:100000000C9493180D94EB230D941C240D944D2403
:100010000D947E240D94AF240D94E0240D941125AD
:100020000D9442250C94C0180C94C0180C94C01860
:100030000C94C0180C94C0180C94C0180C94E3B223
:100040000C94C0180C94C0180C94C0180C94C018D0
:100050000C94C0180C94C0180C94C0180D947325FF
:100060000C94C0180C9471220C94B1220C94C018FA
:100070000C94C0180C94C0180C94C0180C94C018A0
:100080000C94C0180C94C0180C94C0180C94C01890
:100090000C9403230C9443230C94C0180C9446C571
:1000A0000C94C0180C9410B30C94C0180C94C01885
:1000B0000C94C0180C94C0180C943DB30C94C01848
:1000C0000C94C0180C94C0180C94C0180C94C01850
:1000D0000C94C0180C94C0180C9495230C94D52340
:1000E0000C94C018B45FCD5FD55FBC5FC55FDD5FAA
:1000F00032600A600260FA5F12601A6022602A6051
:10010000EA5FF25F4A603A605B60626069607860F3
:100110007060036EDB363D9A9999993DABAAAA2A85
:100120003E000000803F084AD73B3BCE016E84BCB6
:10013000BFFDC12F3D6C74319ABD56833DDA3D0041
:10014000C77F11BED9E4BB4C3E916BAAAABE00008A
:1001500000803F072C7AA5BA6CC590DA3B9365FC0A
:100160008BBC53F810FD3C5692834DBD879D3AB62B
:100170003DCBC9BF5BBE73DA0FC93F05A84CCDB2FA
:10018000D44EB93836A9020C50B9918688083CA6DD
:10019000AAAA2ABE000000803F08000000BE9224E8
:1001A00049123EABAAAA2ABECDCCCC4C3E000000E0
:1001B00080BEABAAAAAA3E00000000BF00000080DB
:1001C0003F0000000000084178D3BB4387D1133DB6
:1001D000190E3CC3BD4282AD2B3E68EC8276BED97F
:1001E0008FE1A93E4C80EFFFBE01C4FF7F3F0000BE
:1001F00000000002005241575F53454E530000007B
:10020000000000003000000002014558545F5354C4
:1002100041540000000000000032000000020252C1
:10022000435F4348414E00000000000000003400DE
:10023000000002035241575F4354524C000000003B
:10024000000000360000000204504F534954494F4B
:100250004E00000000000000380000000205455874
:10026000545241310000000000000000003A00003C
:1002700000020645585452413200000000000000C0
:1002800000003C0000000207455854524133000072
:10029000000000000000003E000000020850415233
:1002A000414D53000000000000000000400000002D
:1002B00000FF00000000000000000000000000003F
:1002C00000000000004C6F670064756D7000000056
:1002D000000000000000006F54657261736500004B
:1002E000000000000000005B6B656E61626C6500E1
:1002F00000000000000000154C64697361626C65C9
:1003000000000000000000154C706C616E6E65729C
:10031000006763730000000000000000000000A3FD
:1003200084736574757000726573657400000000F5
:100330000000000000DE4B726164696F0000000085
:100340000000000000F9666D6F6465730000000036
:1003500000000000007E666C6576656C00000000A1
:1003600000000000004A78636F6D706173730000D5
:1003700000000000005D4B6465636C696E61746928
:100380006F6E000000484B62617474657279000002
:100390000000000000144B73686F7700000000003D
:1003A0000000000000E84A6572617365000000000B
:1003B0000000000000053B41726475506C616E6581
:1003C0002056322E3530006C6F677300000000003D
:1003D0000000000000E24A736574757000000000C0
:1003E0000000000000CA4A74657374000000000039
:1003F0000000000000B24A68656C70000000000058
:100400000000000000982C706C616E6E6572000038
:1004100000000000009A4A746573740070776D00E4
:10042000000000000000000000000D6672616469B9
:100430006F000000000000000000896570617373A8
:1004400074687275000000000000504A6661696CB3
:100450007361666500000000000088646261747466
:1004600065727900000000000000836372656C61B2
:10047000790000000000000000003E3F77617970C5
:100480006F696E747300000000002B3E7862656532
:10049000000000000000000000006A3B6565647514
:1004A0006D700000000000000000293D6D6F646564
:1004B00073776974636800000000673C67707300BD
:1004C000000000000000000000009C3B72617767A4
:1004D000707300000000000000002B3B696D750088
:1004E0000000000000000000000009326169727322
:1004F00070656564000000000000203A6169727058
:1005000072657373757265000000836A636F6D7046
:100510006173730000000000000003346C6F6767B4
:10052000696E6700000000000000EB2E466F726DE0
:1005300061742076657273696F6E3A20256C78203D
:1005400020457870656374656420666F726D6174B0
:100550002076657273696F6E3A20256C780A004EBA
:10056000756D50616765733A20257520205061676D
:100570006553697A653A2025750A004D616E756686
:10058000616374757265723A203078253032782054
:1005900020204465766963653A20307825303478C8
:1005A0000A004552523A204E6F2064617461666CB5
:1005B00061736820696E7365727465640054657355
:1005C00074696E672064617461666C617368206C25
:1005D0006F6767696E6700736176696E67206F6623
:1005E000667365747300636F6D70617373206E6FF3
:1005F00074206865616C7468790048656164696E2F
:10060000673A20256C642C2058595A3A2025642CCE
:100610002025642C2025642C0958595A6F66663AA7
:100620002025362E32662C2025362E32662C2025AB
:10063000362E32660A00436F6D7061737320696EE7
:10064000697469616C69736174696F6E2066616950
:100650006C65642100436F6D706173733A200061B3
:10066000626C65640A0064697300656E004D6167C1
:10067000206F6666736574733A2025342E34662CB9
:100680002025342E34662C2025342E34660A004D65
:100690006167204465636C696E6174696F6E3A20AE
:1006A00025342E34660A003F3F0048494C00484D2F
:1006B000433538343300484D43353838334C0043E4
:1006C0006F6D706173733A20002D00486974204586
:1006D0006E74657220746F20657869742E0A0A0042
:1006E000416C743A2025302E32666D2C2052617791
:1006F0003A20256C642054656D7065726174757262
:10070000653A20252E31660A006E6F742068656197
:100710006C74687900556E63616C696272617465AE
:10072000642072656C6174697665206169727072AB
:100730006573737572650A006261726F6D657465C9
:10074000722063616C6962726174696F6E20636F9D
:100750006D706C65746500496E697469616C69736C
:10076000696E672041504D2E2E2E00496E76616CC9
:1007700069642053455249414C335F42415544001E
:10078000252E3166206D2F730A00616972737065C2
:1007900065643A200061697273706565643A20008F
:1007A00061697273706565645F63683A20252E31F4
:1007B000660A00723A2534642020703A2534642099
:1007C00020793A2533642020673D2825352E31666F
:1007D0002025352E31662025352E316629202061D1
:1007E0003D2825352E31662025352E3166202535CC
:1007F0002E3166290A002E004C61743A20256C6463
:100800002C204C6F6E20256C642C20416C743A2097
:10081000256C646D2C2023736174733A2025640A5F
:1008200000506F736974696F6E2025640A00436F0E
:100830006E74726F6C20434820002025303278009F
:10084000253034783A00426567696E205842656504
:1008500020582D4354552052616E676520616E64A7
:10086000205253534920546573743A0A004C6F69FF
:10087000746572207261646975733A2025640A0A8E
:1008800000486974207261646975733A2025640AAE
:1008900000256420776179706F696E74730A00486F
:1008A0006F6C6420616C746974756465206F662078
:1008B00025646D0A00486F6C642063757272656E02
:1008C0007420616C7469747564650A00636F6D6D82
:1008D000616E6420233A2025642069643A256420EF
:1008E0006F7074696F6E733A25642070313A2564B5
:1008F0002070323A256C642070333A256C64207085
:10090000343A256C64200A0052656C6179206F6668
:10091000660A0052656C6179206F6E0A004E6F7432
:1009200020656E61626C65640A00563A2025342E9B
:1009300034662C20413A2025342E34662C206D411B
:10094000683A2025342E34660A00563A2025342E83
:1009500034660A004D5347204653204F4646202513
:1009600075004D5347204653204F4E202575004CAF
:100970004F5320636175736564206E6F20636861F7
:100980006E676520696E2041504D2E0A0054485212
:100990004F54544C45204641494C53414645204113
:1009A00043544956415445443A2025642C20004381
:1009B0004F4E54524F4C204D4F4445204348414EDA
:1009C0004745443A20005448524F54544C45204324
:1009D00048414E474544202564200A00556E706CFE
:1009E000756720626174746572792C207468726F07
:1009F00074746C6520696E206E65757472616C2C00
:100A0000207475726E206F666620726164696F2E45
:100A10000A00494E20313A20256409323A202564E3
:100A200009333A20256409343A20256409353A20EF
:100A3000256409363A20256409373A2025640938A7
:100A40003A2025640A00494E3A09313A20256409C2
:100A5000323A20256409333A20256409343A2025A6
:100A60006409353A20256409363A20256409373A65
:100A700020256409383A2025640A00506C616E6EA6
:100A80006572204D6F64650A0A54686973206D6F42
:100A90006465206973206E6F7420696E74656E647E
:100AA000656420666F72206D616E75616C20757370
:100AB000650A0A00436F6D6D616E64733A0A202007
:100AC0006C6F677320202020202020206C6F67200F
:100AD000726561646261636B2F7365747570206DFC
:100AE0006F64650A202073657475702020202020B3
:100AF00020207365747570206D6F64650A20207402
:100B000065737420202020202020207465737420B9
:100B10006D6F64650A0A4D6F766520746865207391
:100B20006C6964652073776974636820616E642002
:100B3000726573657420746F20464C592E0A0A0042
:100B400054657374204D6F64650A0A0053657475AB
:100B500070204D6F64650A0A494D504F5254414E02
:100B6000543A20696620796F752068617665206E39
:100B70006F742070726576696F75736C7920736518
:100B80007420746869732073797374656D2075704F
:100B90002C20757365207468650A27726573657407
:100BA0002720636F6D6D616E6420746F20696E69BC
:100BB0007469616C697A6520746865204545505296
:100BC0004F4D20746F2073656E7369626C6520648D
:100BD000656661756C742076616C7565730A616E0B
:100BE00064207468656E207468652027726164698A
:100BF0006F2720636F6D6D616E6420746F20636F6B
:100C00006E66696775726520666F7220796F75729E
:100C100020726164696F2E0A0A000A547970652097
:100C200027592720616E642068697420456E7465B9
:100C30007220746F20657261736520616C6C20771F
:100C40006179706F696E7420616E64207061726189
:100C50006D6574657220646174612C20616E792009
:100C60006F74686572206B657920746F2061626FA4
:100C700072743A2000646F6E650A000A45726173EF
:100C8000696E6720454550524F4D0A0052617720EA
:100C900056616C7565730A00526164696F0A00439E
:100CA00048383A202564207C202564207C20256457
:100CB0000A004348373A202564207C202564207CA4
:100CC0002025640A004348363A202564207C2025EC
:100CD00064207C2025640A004348353A202564209E
:100CE0007C202564207C2025640A004348343A2077
:100CF0002564207C202564207C2025640A0043484C
:100D0000333A202564207C202564207C2025640A39
:100D1000004348323A202564207C202564207C2032
:100D200025640A004348313A202564207C2025644C
:100D3000207C2025640A004D6F6E69746F72696EA5
:100D40006720766F6C747320616E642063757272B5
:100D5000656E74004D6F6E69746F72696E672062A4
:100D600061747420766F6C74730042617474206DCA
:100D70006F6E69746F72696E672064697361626C0B
:100D800065640042617474204D6F696E746F720AFD
:100D9000006E617620706974636820616C743A0A31
:100DA00000656E6572677279207468726F74746C16
:100DB000653A0A006E617620706974636820616923
:100DC0007273706565643A0A006E617620726F6CAA
:100DD0006C3A0A00736572766F207275646465728E
:100DE0003A0A00736572766F2070697463683A0A14
:100DF00000736572766F20726F6C6C3A0A004761FF
:100E0000696E730A00503A2025342E33662C20492F
:100E10003A25342E33662C20443A25342E33662C62
:100E200020494D41583A256C640A005854524143B8
:100E30004B3A2025342E32660A58545241434B20F7
:100E4000616E676C653A2025640A0043726F7373A4
:100E5000747261636B0A006D696E3A2025640A6DD5
:100E600061783A2025640A6372756973653A2025B2
:100E7000640A6661696C736166655F656E61626C68
:100E800065643A2025640A6661696C736166655F12
:100E900076616C75653A2025640A005468726F7437
:100EA000746C650A00466C69676874206D6F6465D0
:100EB000730A00506F732025643A2000494D550A8B
:100EC000004779726F206F6666736574733A2025E8
:100ED000342E32662C2025342E32662C2025342EDA
:100EE00032660A00416363656C206F6666736574E1
:100EF000733A2025342E32662C2025342E32662C6F
:100F00002025342E32660A000A4F7074696F6E73A2
:100F10003A20332D34000A4F7074696F6E733A5B58
:100F20006F6E2C6F66662C72657365745D0A007255
:100F300065736574006F666600436F6D70617373EF
:100F400020696E697469616C69736174696F6E2080
:100F50006661696C656421006F6E004E4F206169A7
:100F6000727370656564007A65726F20616972736F
:100F7000706565642063616C6962726174656400A8
:100F8000426567696E6E696E6720494D55206361E1
:100F90006C6962726174696F6E3B20646F206E6F62
:100FA00074206D6F766520706C616E65005761729C
:100FB0006D696E67207570204144432E2E2E0044CB
:100FC000656D6F20536572766F7321000A4D6F76E1
:100FD0006520524320746F67676C6520737769746E
:100FE000636820746F206561636820706F73697433
:100FF000696F6E20746F20656469742C206D6F7644
:10100000652061696C65726F6E20737469636B2013
:10101000746F2073656C656374206D6F6465732EE7
:10102000000A53617665642053657474696E677352
:101030000A0A000A4D6F766520616C6C20636F6E42
:1010400074726F6C7320746F2065616368206578BB
:101050007472656D652E2048697420456E746572E2
:1010600020746F20736176653A200A000A4E6F2063
:10107000726164696F3B20436865636B20636F6EC8
:101080006E6563746F72732E000A0A526164696F31
:101090002053657475703A0A000A464143544F5212
:1010A0005920524553455420636F6D706C657465CB
:1010B000202D20706C6561736520726573657420E6
:1010C00041504D20746F20636F6E74696E756500BA
:1010D0000A547970652027592720616E6420686959
:1010E0007420456E74657220746F20706572666F2F
:1010F000726D20666163746F7279207265736574B6
:101100002C20616E79206F74686572206B65792080
:10111000746F2061626F72743A2000656E61626C58
:10112000650043555200434D4400524157004D4F16
:101130004445004E54554E004354554E00504D000A
:101140004750530041545449545544455F4D45441C
:101150000041545449545544455F4641535400613D
:101160006C6C006D697373696E67206C6F672074B7
:101170007970650A004C6F67206572617365206342
:101180006F6D706C6574650045726173696E672080
:101190006C6F677300446F6E650A0044756D70690B
:1011A0006E67204C6F672025642C202020207374EC
:1011B0006172742070672025642C202020656E6485
:1011C0002070672025640A00626164206C6F6720CC
:1011D0006E756D6265720A0064756D70696E672068
:1011E000616C6C0A0025640A0025642C09004446E1
:1011F00020706167652C206C6F672066696C6520C4
:10120000232C206C6F6720706167653A2025642C61
:1012100009004E756D626572206F66207061636BA8
:1012200065747320726561643A2025640A000A417E
:10123000726475506C616E652056322E35300A46E8
:101240007265652052414D3A2025750A004572723B
:101250006F722052656164696E6720454E445F423B
:101260005954453A2025640A004572726F72205223
:10127000656164696E67205061636B65743A20250F
:10128000640A004154543A2025642C2025642C2003
:1012900025750A004D4F443A004354554E3A004ECE
:1012A00054554E3A2025342E34662C2025642C20AB
:1012B00025342E34662C2025342E34662C202534FB
:1012C0002E34662C2025342E34662C2025342E34E2
:1012D000662C0A00504D3A005241573A00434D44A3
:1012E0003A00435552523A2025642C2025342E349E
:1012F000662C2025342E34662C2025640A002025F7
:101300006420636F6D6D616E647320696E206D651E
:101310006D6F72790A00554E4B4E4F574E20535405
:101320004152545550202D200047524F554E4420D5
:101330005354415254202D200041495220535441CE
:101340005254202D20004750533A20256C642C2005
:1013500025642C2025642C2025342E37662C20254E
:10136000342E37662C2025642C2025342E34662C10
:101370002025342E34662C2025342E34662C20254E
:10138000342E34660A004C6F672025642C20202000
:101390002073746172742025642C202020656E6493
:1013A0002025640A000A2564206C6F67730A000A0E
:1013B0004E6F206C6F67730A0A0043555200202558
:1013C0005300434D4400202553005241570020252F
:1013D00053004D4F444500202553004E54554E00B8
:1013E000202553004354554E0020255300504D00F6
:1013F00020255300475053002025530041545449A1
:10140000545544455F4D45440020255300415454F4
:1014100049545544455F4641535400202553006EBE
:101420006F6E65006C6F677320656E61626C6564DA
:101430003A200067707320616C743A20256C750047
:10144000696E697420686F6D65006261642066650D
:101450006E636520706F696E7400626164206665FA
:101460006E636520706F696E740066656E63696E89
:1014700067206D7573742062652064697361626CA6
:10148000656400666C6967687420706C616E2072B8
:101490006563656976656400636F6D6D616E642078
:1014A00072656365697665643A20005265636569B3
:1014B0007665642052657175657374202D206A7598
:1014C0006D7020746F20636F6D6D616E64202325D5
:1014D00069004261642052657175657374202D2026
:1014E00063616E6E6F74206368616E676520746FF0
:1014F000206E6F6E2D4E617620636D64004E6F6EB0
:101500002D4E617620636F6D6D616E6420494420BD
:101510007570646174656420746F20232569004EC2
:101520006F6E2D4E617620636F6D6D616E64204924
:1015300044207570646174656420746F202325698C
:10154000006F7574206F6620636F6D6D616E6473DC
:1015500021004E617620636F6D6D616E6420696E4F
:10156000646578207570646174656420746F2023ED
:1015700025690052657475726E696E6720746F20FC
:10158000486F6D6500457865637574696E672063A3
:101590006F6D6D616E64204944202325690052659A
:1015A00073657474696E6720707265765F5750005A
:1015B000457865637574696E6720636F6D6D616EE4
:1015C000642049442023256900444F5F5345545FFC
:1015D000524F49206E6F7420737570706F7274650E
:1015E0006400457865637574696E6720636F6D6D1F
:1015F000616E642049442023256900736574746911
:101600006E6720636F6D6D616E6420696E646578CE
:101610003A2025690073657474696E6720636F6D85
:101620006D616E6420696E6465783A2025690049B1
:101630006E206A756D702E20204A756D7073206C57
:101640006566743A20256900666C69676874206D68
:101650006F6465203D202575004661696C73616685
:1016600065202D2053686F7274206576656E742036
:101670006F6E2C20004661696C73616665202D20B9
:1016800053686F7274206576656E74206F666600AD
:1016900067656F2D66656E6365207472696767653F
:1016A0007265640067656F2D66656E6365204F4BDC
:1016B0000067656F2D66656E636520736574757070
:1016C000206572726F720067656F2D66656E636567
:1016D000206C6F61646564003C6E6176696761745B
:1016E000653E205750206572726F72202D2064690C
:1016F0007374616E6365203C2030007665726966A4
:10170000795F6E61763A20496E76616C6964206F0C
:1017100072206E6F2063757272656E74204E6176F2
:1017200020636D6400506173736564205761797044
:101730006F696E7420232569206469737420257590
:101740006D004D6973736564205750005265616385
:1017500068656420576179706F696E74202325690C
:1017600020646973742025756D00766572696679E9
:101770005F6E61763A204C4F49544552206F726239
:1017800069747320636F6D706C6574650076657243
:101790006966795F6E61763A204C4F495445522014
:1017A00074696D6520636F6D706C6574650052655A
:1017B000616368656420686F6D650076657269664F
:1017C000795F636F6E6469746F6E3A20496E7661FB
:1017D0006C6964206F72206E6F2063757272656E23
:1017E0007420436F6E646974696F6E20636D64006A
:1017F000666C69676874206D6F6465203D2025758F
:10180000004661696C73616665202D204C6F6E67C0
:10181000206576656E74206F6E2C20000A5072650C
:10182000737320454E54455220332074696D65739F
:1018300020746F20737461727420696E74657261B4
:1018400063746976652073657475700A0A00436F66
:101850006D7061737320696E697469616C6973611D
:1018600074696F6E206661696C6564210045524140
:1018700053494E47204C4F4753004E6F20646174CC
:1018800061666C617368206361726420696E736560
:1018900072746564000A0A496E6974204172647545
:1018A000506C616E652056322E35300A0A467265DC
:1018B000652052414D3A2025750A0002464F524D8F
:1018C00041545F56455253494F4E0000F7090000FE
:1018D0000153595349445F53575F545950450000D1
:1018E00001F90900000253595349445F54484953D0
:1018F0004D4156000070FA09000002535953494403
:101900005F4D594743530000000071FC090000017E
:1019100053455249414C335F4241554400000072E7
:10192000FE090000044B46465F50544348434F4D68
:1019300050000000C8FF090000044B46465F5244B7
:1019400044524D495800000000C9030A0000044BEE
:1019500046465F5054434832544852000000CA077C
:101960000A0000044B46465F5448523250544348E4
:10197000000000CB0B0A0000014D414E55414C5F69
:101980004C4556454C000000114F0A0000026C61A6
:101990006E645F70697463685F6364000012540A68
:1019A0000000045854524B5F4741494E5F53430077
:1019B000000096130A0000025854524B5F414E47F4
:1019C0004C455F4344000097170A000004414C5403
:1019D0005F4D4958000000000000000083190A0014
:1019E0000001434D445F544F54414C00000000003F
:1019F00000DD1E0A000001434D445F494E44455836
:101A0000000000000000DE1F0A00000157505F5276
:101A10004144495553000000000000DF200A000047
:101A20000157505F4C4F495445525F5241440000AA
:101A3000E0210A00000146454E43455F41435449B9
:101A40004F4E000000E1220A00000146454E43458A
:101A50005F544F54414C00000000E2230A00000193
:101A600046454E43455F4348414E4E454C0000E3DA
:101A7000240A00000246454E43455F4D494E414C05
:101A800054000000E4250A00000246454E43455F2D
:101A90004D4158414C54000000E5270A0000014127
:101AA000525350445F4642575F4D494E00007829DB
:101AB0000A00000141525350445F4642575F4D4176
:101AC000580000792A0A0000015448525F4D494EDF
:101AD0000000000000000000B22B0A000001544882
:101AE000525F4D41580000000000000000B32C0A76
:101AF0000000015448525F534C4557524154450031
:101B00000000BA2D0A0000015448525F4641494C7A
:101B100053414645000000B42E0A000002544852CA
:101B20005F46535F56414C5545000000B52F0A00F3
:101B300000015452494D5F5448524F54544C450093
:101B400000B6310A00000146535F53484F52545FBC
:101B50004143544E0000B7320A00000146535F4C27
:101B60004F4E475F4143544E000000B8330A000017
:101B70000146535F4743535F454E41424C000000CE
:101B8000B9340A000001464C544D4F44455F434868
:101B90000000000000D2350A000001464C544D4FB1
:101BA00044453100000000000000D3360A00000167
:101BB000464C544D4F44453200000000000000D414
:101BC000370A000001464C544D4F44453300000095
:101BD00000000000D5380A000001464C544D4F4427
:101BE000453400000000000000D6390A000001461C
:101BF0004C544D4F44453500000000000000D73ADA
:101C00000A000001464C544D4F4445360000000088
:101C1000000000D83B0A0000024C494D5F524F4C77
:101C20004C5F434400000000983C0A0000024C490D
:101C30004D5F50495443485F4D41580000993E0A5A
:101C40000000024C494D5F50495443485F4D494E96
:101C500000009A400A0000015452494D5F4155541A
:101C60004F00000000000002420A000001535749E3
:101C70005443485F454E41424C45000003430A002F
:101C80000001454C45564F4E5F4D4958494E47005F
:101C90000006440A000001454C45564F4E5F524530
:101CA00056455253450007450A000001454C45562C
:101CB0004F4E5F4348315F5245560008460A0000C8
:101CC00001454C45564F4E5F4348325F52455600E2
:101CD00009470A0000025359535F4E554D5F524564
:101CE00053455453000E480A0000024C4F475F42D0
:101CF00049544D41534B00000000044A0A000002C1
:101D00004C4F475F4C41535446494C450000000F2F
:101D10004C0A0000015253545F5357495443485FE3
:101D200043480000104E0A0000025452494D5F41E2
:101D3000525350445F434D00009B500A000004532F
:101D400043414C494E475F53504545440000CC0F3A
:101D50000A0000024D494E5F474E445350445F43D2
:101D60004D00009E560A0000025452494D5F5049F2
:101D70005443485F4344000005580A000002414CA8
:101D8000545F484F4C445F52544C0000009C520A30
:101D9000000002414C545F484F4C445F4642574359
:101DA0004D007A5A0A0000014D41475F454E4142BD
:101DB0004C450000000000875C0A000001464C41D1
:101DC000505F315F504552434E5400000A600A0094
:101DD0000001464C41505F315F535045454400007F
:101DE000000B610A000001464C41505F325F5045D4
:101DF00052434E5400000C620A000001464C415010
:101E00005F325F53504545440000000D630A0000F7
:101E100001424154545F4D4F4E49544F520000000F
:101E2000895F0A000004564F4C545F4449564944A8
:101E300045520000008A640A000004414D505F5082
:101E400045525F564F4C540000008B680A00000456
:101E5000494E5055545F564F4C5453000000008C6F
:101E60006C0A000002424154545F434150414349CF
:101E7000545900008D700A000001494E56455254D5
:101E80004544464C545F4348009D720A000001538C
:101E90004F4E41525F454E41424C450000008F730A
:101EA0000A000008474E445F0000000000000000E8
:101EB00000000093D40C4A23085243315F00000015
:101EC0000000000000000000AA740AD62508524352
:101ED000325F0000000000000000000000AB950A27
:101EE000D625085243335F000000000000000000C8
:101EF0000000ACB60AD625085243345F000000004B
:101F000000000000000000ADD70AD6250852433576
:101F10005F0000000000000000000000AEF80A545E
:101F200026085243365F0000000000000000000059
:101F300000AF1E0B5426085243375F00000000001C
:101F4000000000000000B0440B5426085243385FE4
:101F50000000000000000000000000B16A0B5426E1
:101F6000085243395F00000000000000000000003C
:101F7000BB900B542608524331305F000000000034
:101F80000000000000BCB60B542608524331315FFC
:101F900000000000000000000000BDDC0B5426081B
:101FA00048444E4732524C4C5F000000000000F0A5
:101FB000020C6D2508524C4C325352565F00000003
:101FC00000000000F1200C6D2508505443483253A6
:101FD00052565F000000000000F23E0C6D250841E3
:101FE00052535032505443485F0000000000F35CED
:101FF0000C6D25085957325352565F0000000000FF
:10200000000000F47A0C6D2508454E5247593254B1
:1020100048525F0000000000F5980C6D2508414C07
:102020005432505443485F000000000000F6B60CE4
:102030006D2508434F4D504153535F000000000091
:10204000000088570D8923085352305F00000000BC
:10205000000000000000006EA008F3010853523396
:102060005F00000000000000000000006FEC08F3BB
:102070000108494E535F000000000000000000000E
:1020800000133707072408494D555F000000000082
:10209000000000000000825A07DA24084148525329
:1020A0005F00000000000000000000919507192566
:1020B0000841525350445F0000000000000000003F
:1020C000946909BD26084D4E545F000000000000D1
:1020D0000000000000A0990926276C6F61645F6111
:1020E0006C6C20746F6F6B20256C7575730A0064BF
:1020F0006F6E652E004669726D7761726520636848
:10210000616E67653A2065726173696E6720454547
:1021100050524F4D2E2E2E0A004552524F523A2009
:102120004661696C656420746F20736574757020F6
:1021300041505F506172616D000A0A20526561640E
:102140007920746F20464C592E003C737461727470
:1021500075705F67726F756E643E2047524F554EC3
:10216000442053544152540000407A10F35A00A0C6
:10217000724E18090010A5D4E80000E87648170050
:1021800000E40B54020000CA9A3B000000E1F50590
:10219000000080969800000040420F000000A086DA
:1021A00001000000102700000000E803000000000C
:1021B0006400000000000A000000000001000000B0
:1021C00000002C76D888DC674F0823DFC1DFAE59CA
:1021D000E1B1B796E5E3E453C63AE651997696E85D
:1021E000E6C28426EB898C9B62ED407C6FFCEFBCE1
:1021F0009C9F40F2BAA56FA5F490055A2AF75C930C
:102200006B6CF9676DC11BFCE0E40D47FEF520E641
:10221000B500D0ED902E0300943577050080841E24
:10222000080000204E0A000000C80C333333330F7F
:10223000986E12831141EF8D2114893BE65516CF1C
:10224000FEE6DB18D1844B381BF77C1D901DA4BB28
:10225000E424203284725E228100C9F124ECA1E5DD
:102260003D276E616E00696E660025733A20256613
:102270000A0025733A20256C640A0025733A20254C
:10228000640A0025733A2025640A006578697400A1
:1022900068656C7000245047434D442C31362C3017
:1022A0002C302C302C302C302A36410D0A00245092
:1022B0005352463130302C302C33383430302C38B7
:1022C0002C312C302A334300205369524620002001
:1022D0004D544B312E3620002075626C6F782000F3
:1022E0002075626C6F782000204D544B312E3420C5
:1022F000006661696C65642C207265747279696E20
:1023000067004F4B0024505542582C34312C312C4F
:10231000303030332C303030312C33383430302CB6
:10232000302A32360AB56206010300010601124F57
:10233000004D41585F50494E5F534F5552434553EE
:1023400020524541434845440A0004024142535F3C
:1023500050524553530000000000000C00000004E0
:102360000354454D50000000000000000000000034
:102370000800000000FF0000000000000000000056
:1023800000000000000000000005014F465300005F
:102390000000000000000000000011000000040226
:1023A0004445430000000000000000000000001D44
:1023B00000000001034C4541524E000000000000A7
:1023C00000000000210000000104555345000000FA
:1023D0000000000000000000002200000001054194
:1023E00055544F4445430000000000000000230006
:1023F000000000FF000000000000000000000000DE
:10240000000000000000000200584800000000002A
:102410000000000000000000020000000201584C13
:1024200000000000000000000000000000040000A8
:1024300000020259480000000000000000000000F7
:102440000000060000000203594C000000000000DC
:10245000000000000000000800000002045A4800CC
:102460000000000000000000000000000A00000062
:1024700002055A4C000000000000000000000000AF
:10248000000C00000000FF00000000000000000041
:102490000000000000000000000020002A00496E3B
:1024A000697420416363656C000A6779726F206408
:1024B0006964206E6F7420636F6E76657267653A2B
:1024C00020646966663D2566206470730A002A00F0
:1024D000496E6974204779726F00060043414C00D1
:1024E00000000000000000000000000300000002E7
:1024F0000150524F445543545F49440000000000CE
:102500003700000000FF0000000000000000000095
:1025100000000000000000000004005941575F5017
:10252000000000000000000000002D000000040179
:1025300052505F5000000000000000000000003119
:1025400000000004024750535F4741494E0000001D
:10255000000000003500000000FF00000000000047
:102560000000000000000000000000000004005017
:10257000000000000000000000000000000000005B
:1025800000000401490000000000000000000000FD
:1025900000000004000000040244000000000000ED
:1025A0000000000000000000080000000203494D88
:1025B000415800000000000000000000000C000076
:1025C0000000FF000000000000000000000000000C
:1025D00000000000000002004D494E000000000015
:1025E000000000000000000A0000000201545249EF
:1025F0004D00000000000000000000000C00000082
:1026000002024D41580000000000000000000000E0
:10261000000E0000000103524556000000000000BB
:10262000000000000000150000000204445A0000F1
:102630000000000000000000000000160000000084
:10264000FF0000000000000000000000000000008B
:102650000000000008000000000000000000000072
:1026600000000000000000D625010146554E4354ED
:10267000494F4E000000000000002100000002024F
:10268000414E474C455F4D494E000000000000227E
:102690000000000203414E474C455F4D4158000089
:1026A000000000002400000000FF00000000000007
:1026B00000000000000000000000000000010045D4
:1026C0004E41424C450000000000000000000B009D
:1026D000000001015553450000000000000000000B
:1026E0000000000A00000004024F46465345540013
:1026F000000000000000000002000000040352413E
:1027000054494F00000000000000000000060000D7
:102710000000FF00000000000000000000000000BA
:1027200000000000000001004D4F44450000000083
:102730000000000000000021000000050152455487
:10274000524143540000000000000000330000002C
:1027500005024E45555452414C0000000000000057
:10276000003F0000000503434F4E54524F4C000001
:102770000000000000004B000000010453544142DF
:102780005F524F4C4C0000000000001E0000000192
:1027900005535441425F5049544348000000000033
:1027A0001F0000000106535441425F594157000089
:1027B00000000000002000000000FF0000000000FA
:1027C00000000000000000000000000000009691E2
:1027D0008C87827D78736E69645F5A55504B464191
:1027E0003C37322D28231E19140F0A050004090E48
:1027F00013181D22272C31363B40454A4F54595E51
:1028000063686D72777C81868B90959A9FA4A9AE40
:10281000B3AFAAA5A09B968F89837E78736E6964F7
:102820005F5A55504B47423E3935302C27231F1BEA
:1028300016120E09050103070B1014191D22262B71
:102840002F34393D42474C51565B60656B70757B48
:1028500080868C92979DA3A9AFB2ACA6A09A948FC4
:10286000827C76706B65605C57524E4A46413D39BA
:1028700036322E2A26221F1B1713100C08040102C1
:10288000060A0E12161A1E22262B2F33383D4146F9
:102890004B4F54595E64696F747A80878D949BA204
:1028A000AAB1AEA69F979089826F68635E59555111
:1028B0004D4946423F3C3835322E2B2824211E1AE2
:1028C0001714100D0A0603000306090D1014181C36
:1028D0002024282C3034393D41464A4F54585D62FB
:1028E000676D737980878F98A2ACB0A59A90867D2A
:1028F000766F55514D4A4744413F3C3A3835333164
:102900002E2B292623201D1A1713100D0A07040148
:10291000010306090D1013171A1E22262A2E32361D
:102920003A3E42464A4E53575B5F64696E757C85FA
:10293000909FB2A08D7D7067605A553E3C3A393702
:1029400036343332302F2E2C2A292724221F1C19EB
:102950001613100D0A070402000305080A0D1013D0
:10296000161A1D2125292D3135383C4043464A4D44
:10297000505356595B5E6165696F826D544D4A478D
:102980004442403E2E2E2D2C2C2B2A2A2929282742
:1029900026252423211F1C1A1714100D0A070401D1
:1029A00001030507090C0E1013161A1D2124282CEB
:1029B0003033373A3D40424447484A4A4B4A4844FC
:1029C0003D3019021621282B2D2E2F2E2E06090CF4
:1029D0000F121517191B1C1B1811040E2231383C3D
:1029E0003C3C3A3835322F2B2824201C1915110D68
:1029F00009050102060A0E1115181C1F2225272998
:102A00002A2B2B2926211911080004080A0A0A0872
:102A100007040200030616181A1C1E20211F171295
:102A2000516063625F5D5956524E4A46423E3935A7
:102A3000312C2824201B17130E0A060102060A0F48
:102A400013171B1F23262A2D313437393C3D3F3FB6
:102A50003E3D39352F28211C17151313131416A8C2
:102A6000ADB2B0ABA6A19C97928D88837E79746F2E
:102A70006A65605B56514C47423D38332E29241F0E
:102A80001A15100B060103080D12171C21262B30F6
:102A9000353A3F44494E53585D62676C71767B808E
:102AA000858A8F94999EA3A800000001FFFFE00093
:102AB000000000000001FFFFF00000000000000126
:102AC000FFFFF800000000000001FFFFFE00000013
:102AD00000000003FFFFFF00000000000003FFFFF5
:102AE000FFF000000000000FFFFFFFFE00000003EA
:102AF000FFFFFC000007FC00007FFFFFFC00000060
:102B0000000000001FFFFE0000000000241E191539
:102B100012100E0C0B0A0909090808080706060519
:102B2000040404030404040000000000000000008A
:102B30000027262123252325242722292A2A1C276A
:102B4000282B33322725222C333130370000000068
:102B500000000000000080114011407132733433D6
:102B600032131211321112933413145352310021C3
:102B7000030406080B2D0A090705040241C011C011
:102B80005112535473121112515273147332310093
:102B900021020405060708090806070624030201A6
:102BA00002000120012011C0011100313213741301
:102BB000143312F112D312510001022325060746E5
:102BC000442342210001E0A0313213B43311121129
:102BD00000112011005233121332112001222485DA
:102BE000042304020342410001E0A0511214131512
:102BF00013153413325140012011521332310001A8
:102C00002223040504050423010382612001E0114D
:102C10008011321354151433323140210201003136
:102C20007231410223442302012201220102614048
:102C300001A01180511214133415143312314001C4
:102C400002010302012052111220212243042241D9
:102C5000022102A10001E0201140515374133211EE
:102C6000402102030203020100111211320011413E
:102C700022232221004102A1800160116011001174
:102C80003233741312114001620302032131121115
:102C900012114001020102030201000100E121E0E2
:102CA000A0112012117334333120016203624012EB
:102CB0001112110011010001020122000120010086
:102CC000E1C00100118011001211131214133452CB
:102CD0002001E20221203112110011000100210225
:102CE00001000140210002410001E0601140111289
:102CF0001113121413141332110021220342010282
:102D00002100010011001211001120010041600199
:102D100000C1000140112001601140511213121333
:102D2000143312310001420322010221000140113B
:102D300000310011000100010001A0E10001A0012B
:102D400080112031529312110021C2210021403103
:102D50000011201100010001E0E16001E01100110B
:102D6000727312310021420301020102202140113D
:102D700000112011600140116001000102210200D8
:102D80000120014001A051321312533211200102DF
:102D90000182210021000100110031E00011001129
:102DA00060210001020102010100212001000160F7
:102DB000110011521312141352110041820102002A
:102DC000010021401100110011A01100310011205B
:102DD0008122010100020100210001601100521353
:102DE00012131413323101000201220142010021A9
:102DF000000100011120110011201140710011404B
:102E00000102210201020100210221000100010052
:102E10001100121112331234133211200102014237
:102E20000122010041000160112011001100110078
:102E3000511231206102012202000201028120119F
:102E4000001211733413321100410201820100613A
:102E50000001801100110091323140214201020233
:102E60000062614011521413543331004182012237
:102E70000001020041000160911211525120012213
:102E800001030102020082610051335415143331F1
:102E9000002102012203424102A18031921332310A
:102EA000004122030201030022032201020140111A
:102EB0001233953331010022010342032221220102
:102EC000026100011100115213125312310041220C
:102ED00003220300230203020102212032131416ED
:102EE0001517161533112001620302030203220194
:102EF000A2414011125314131413321101000201A4
:102F000002030203020200022302032221203214E0
:102F1000163718171513121100212203024302431A
:102F200001030203822120111213141534151432E7
:102F30001100016223020300430203420120121325
:102F40001518193A1715131100210203026304E33F
:102F5000020302030201024012131415171516345E
:102F60001220212243020300A3220100111215188E
:102F70001C1E1D1916131100020103020304230471
:102F80000324030443042304030203422011121404
:102F9000151718361513312102030223020300000E
:102FA0002100240027002A002D00300033000101F9
:102FB0000000040107010A0100002200250028008A
:102FC0002B002E0031003400020100000501080131
:102FD0000B01000020002300260029002C002F00F8
:102FE0003200000100000301060109010505050585
:102FF000070508080808020202020A0A0808040471
:10300000040401010101010101010303030303039E
:103010000303040707070C0C0C0C0C0C0C0C02022D
:10302000020206060606060606060B0B0B0B0B0B2A
:103030000B0B0102102020080810204010204080B7
:10304000020102010804020101020408102040806C
:1030500080402010080402018004020180402010FA
:103060000804020108040201010204081020408043
:1030700001020408102040800000090A02080B0C1D
:103080000D0706030401000000000000000000001E
:103090000000000000000000000000000000000030
:1030A0000000000011100F000000000000000000F0
:1030B0000000000000000000000000000000494E79
:1030C00046494E4954594E414ECDCCCC3D0AD723AA
:1030D0003C17B7D13877CC2B329595E6241FB14FEA
:1030E0000A000020410000C84200401C4620BCBE2F
:1030F0004CCA1B0E5AAEC59D74000D942F0E0D9434
:103100007B160D944B160D94DE160D94B9160D9486
:10311000CC270D9483160D94BC000D9414180D94B7
:10312000EF25A95579C511241FBECFEFD1E2DEBF2F
:10313000CDBF00E00CBF16E0A0E0B2E0EAEDFDE597
:1031400002E00BBF02C007900D92A835B107D9F776
:103150001BBE12E1A8E5B6E001C01D92A63CB10776
:10316000E1F711E3C6E2D1E304C02297FE010F9418
:10317000D42EC232D107C9F70F94BE270D94EB2E7F
:103180000C940000283008F027E03327DA01990F6B
:10319000311D87FD916000966105710539F432603B
:1031A0002E5F3D9330E32A95E1F708959F3F30F07D
:1031B00080387105610509F03C5F3C5F3D939130BB
:1031C00008F08068911DDF93CF931F930F93FF92B8
:1031D000EF92192F987F9695E92F96959695E90F7E
:1031E000FF27EE53FE4D99273327EE24FF24A70136
:1031F000E70105900894079428F4360FE71EF81E9F
:10320000491F511D660F771F881F991F0694A1F74C
:103210000590079428F4E70EF81E491F561FC11D9C
:10322000770F881F991F661F0694A1F705900794D2
:1032300028F4F80E491F561FC71FD11D880F991F6C
:10324000661F771F0694A1F70590079420F4490F95
:10325000561FC71FD81F990F661F771F881F069418
:10326000A9F784911095177041F0D695C795579599
:103270004795F794E7941A95C1F7E8E6F1E2689468
:103280001590159135916591959105907FE2739513
:10329000E118F10A430B560BC90BD009C0F7E10C3A
:1032A000F11E431F561FC91FD01D7EF4703311F449
:1032B0008A95E6CFE894015030F0080F0AF4002711
:1032C000021708F4202F2395022F7A3328F079E390
:1032D0007D932A95E9F710C07D932A9589F6069487
:1032E00097956795379517951794E118F10A430B51
:1032F000560BC90BD00998F023957E9173957A33BC
:1033000008F070E37C932013B8F77E9170617D9391
:1033100030F0839571E37D9370E32A95E1F71124F2
:10332000EF90FF900F911F91CF91DF91992787FD2B
:1033300090950895FA01AA27283051F1203181F1A2
:10334000E8946F936E7F6E5F7F4F8F4F9F4FAF4FAD
:10335000B1E03ED0B4E03CD0670F781F891F9A1FC0
:10336000A11D680F791F8A1F911DA11D6A0F711D74
:10337000811D911DA11D20D009F468943F912AE080
:10338000269F11243019305D3193DEF6CF01089568
:10339000462F4770405D4193B3E00FD0C9F7F6CF99
:1033A000462F4F70405D4A3318F0495D31FD405261
:1033B000419302D0A9F7EACFB4E0A69597958795F7
:1033C00077956795BA95C9F70097610571050895D6
:1033D0009B01AC010A2E0694579547953795279582
:1033E000BA95C9F7620F731F841F951FA01D08951A
:1033F000A0E3B0E0EEEFF9E10D949B2EA8E04E01C2
:103400000894811C911CF401BA2F1192BA95E9F726
:1034100029833A834B835C836D837E838F83988774
:10342000CE010996FC011192AA95E9F7A986BA8600
:10343000CB86DC86ED86FE860F87188B29813A8144
:103440004B815C812DA73EA74FA758AB79018A011C
:103450008FEF9FEFA0E0B0E0E822F9220A231B23C0
:103460001A014424552429853A854B855C8529A772
:103470003AA74BA75CA759016A01A822B922CA2220
:10348000DB223A0188249924C601B501A8019701DD
:103490000F940C2E6DA37EA38FA398A7C401B30134
:1034A0000F940C2E69A37AA38BA39CA3C601B5012C
:1034B000A20191010F940C2E7B018C01C401B30178
:1034C0000F940C2E5B016C0189A19AA1ABA1BCA148
:1034D0008E0D9F1DA01FB11F89A39AA3ABA3BCA3F0
:1034E0002DA13EA14FA158A5CA01AA27BB2729A1FA
:1034F0003AA14BA15CA1280F391F4A1F5B1F29A3CA
:103500003AA34BA35CA32E153F054007510740F497
:1035100080E090E0A1E0B0E0A80EB91ECA1EDB1E5C
:1035200089A19AA1ABA1BCA19D01442755272A0DD1
:103530003B1D4C1D5D1D2D8F3E8F4F8F58A36C0181
:10354000BB24AA248DA19EA1AFA1B8A5A070B07084
:10355000A80EB91ECA1EDB1EA98EBA8ECB8EDC8EBB
:103560009A8C8B8C7C8C9E8D6F8D78A1FE017196D0
:1035700088E0DF011D928A95E9F72D8B9E8B6F8B7A
:10358000788F2D853E854F8558896DA57EA58FA5A1
:1035900098A90F940C2E7B018C012D813E814F81C7
:1035A000588569A57AA58BA59CA50F940C2EE60ECF
:1035B000F71E081F191F6D897E898F89988D6E0DE2
:1035C0007F1D801F911F6D8B7E8B8F8B988FEE8957
:1035D0002A2D392D482D572D7E2F8F89988DE096D5
:1035E000E2E10D94B72EEF92FF920F93DF93CF930A
:1035F000CDB7DEB760970FB6F894DEBF0FBECDBF74
:10360000A82F002309F461C07E010894E11CF11C7D
:1036100088E0F70111928A95E9F729833A834B8371
:103620005C836D837E83AF83988780E2801BE82F65
:10363000FF27E7FDF09549815A816B817C8118163F
:1036400084F019861A861B861C86882799278E1B6C
:103650009F0B04C0440F551F661F771F8A95D2F732
:1036600028C0202F332727FD3095DB01CA01022E09
:1036700004C0880F991FAA1FBB1F0A94D2F789871D
:103680009A87AB87BC8704C0769567955795479511
:10369000EA95D2F78D819E81AF81B88504C0880FED
:1036A000991FAA1FBB1F2A95D2F7482B592B6A2BAB
:1036B0007B2B4D875E876F87788B29853A854B8575
:1036C0005C856D857E85AF8598898A2F60960FB65B
:1036D000F894DEBF0FBECDBFCF91DF910F91FF9069
:1036E000EF9008950F931F93CF93DF93689F80010E
:1036F000699F100D789F100D1124C8010DD0EC01A9
:10370000009721F060E070E0A80190D1CE01DF9138
:10371000CF911F910F910895CF93DF93BC01823019
:10372000910510F462E070E0A091C212B091C31252
:10373000ED01E0E0F0E040E050E021C088819981B7
:103740008617970769F48A819B81309719F09383D4
:10375000828304C09093C3128093C212FE0134C0CE
:103760006817790738F44115510519F08417950742
:1037700008F4AC01FE018A819B819C01E90120973C
:10378000E9F641155105A9F1CA01861B970B04976B
:1037900008F4BA01E0E0F0E02AC08D919C91119705
:1037A00084179507F9F46417750781F412968D91C3
:1037B0009C911397309719F09383828304C0909360
:1037C000C3128093C212FD0132964CC0CA01861BFF
:1037D000970BFD01E80FF91F6193719302978D9389
:1037E0009C9340C0FD01828193819C01D901109777
:1037F000A1F68091C0129091C112892B41F4809161
:103800003603909137039093C1128093C012409178
:103810003803509139034115510541F44DB75EB756
:103820008091340390913503481B590B2091C012AD
:103830003091C112CA01821B930B8617970780F043
:10384000AB014E5F5F4F8417950750F0420F531F37
:103850005093C1124093C012F9016193719302C059
:10386000E0E0F0E0CF01DF91CF910895CF93DF93B7
:10387000009709F450C0EC0122971B821A82A09194
:10388000C212B091C312109709F140E050E0AC179A
:10389000BD0708F1BB83AA83FE0121913191E20F9C
:1038A000F31FAE17BF0779F48D919C911197280FE4
:1038B000391F2E5F3F4F3983288312968D919C913B
:1038C00013979B838A834115510571F4D093C312DA
:1038D000C093C21220C012968D919C911397AD0196
:1038E000009711F0DC01D3CFFA01D383C283219179
:1038F0003191E20FF31FCE17DF0769F488819981B8
:10390000280F391F2E5F3F4FFA01318320838A81B0
:103910009B8193838283DF91CF91089566277727D8
:10392000EFC21F93FC0199278827BC01E8941191ED
:103930001032E9F3193010F01E30C8F31B3249F091
:103940001D3241F4689405C0CDD0610F711D811DF9
:10395000911D119110531A30B8F33EF49095809553
:10396000709561957F4F8F4F9F4F1F910895FB0179
:10397000DC0102C005900D9241505040D8F70895E7
:10398000FB01DC018D9181341CF08B350CF4805EE1
:10399000659161341CF06B350CF4605E861B61111F
:1039A00089F3990B0895FB01DC018D910590801935
:1039B0000110D9F3990B0895FC0105900020E9F757
:1039C000809590958E0F9F1F0895FB01DC0141505B
:1039D000504030F08D910590801919F40020B9F70E
:1039E000881B990B0895FB01DC014150504048F0C1
:1039F00005900D920020C9F701C01D924150504022
:103A0000E0F70895FC010590615070400110D8F76F
:103A1000809590958E0F9F1F0895FB01DC0102C0D9
:103A200001900D9241505040D8F70895DC0101C03B
:103A30006D9341505040E0F70895FB01DC018D91FA
:103A4000019080190110D9F3990B0895FB01DC0155
:103A50004150504048F001900D920020C9F701C03C
:103A60001D9241505040E0F70895FC0161507040B4
:103A700001900110D8F7809590958E0F9F1F0895A3
:103A8000009731F4DA018D919C91009709F40EC0F2
:103A9000DC01FB013D912191222319F03217C9F37A
:103AA000FACF332331F4DA011D921C92882799272B
:103AB00008951197AF93BF93FB013D912191321768
:103AC00071F4332321F488279927119702C01E929D
:103AD0001196FA01A193B0839F918F9108952223AB
:103AE00069F7EACF592F482F372F262F660F771FF8
:103AF000881F991F660F771F881F991F620F731FFA
:103B0000841F951F660F771F881F991F0895AEE0C9
:103B1000B0E0EDE8FDE10D94A92E8C0177FF02C025
:103B200060E070E8615070407E836D831A83098382
:103B300086E08C83CE010196BA01A90111D02D81B6
:103B40003E8137FD09C0EF81F8852E173F070CF441
:103B5000F901E00FF11F10822E96E4E00D94C52EBE
:103B6000ABE0B0E0E6EBFDE10D949B2E3C012B01B8
:103B70005A01FC0117821682838181FD03C06FEF19
:103B80007FEFB9C19AE0892E1E010894211C311CD7
:103B9000F3012381F20123FD859123FF81912F0100
:103BA000882309F4A5C1853239F423FD859123FFCB
:103BB00081912F01853221F490E0B30116D3E8CF33
:103BC000982FFF24EE249924FFE1FF15D0F09B32BB
:103BD00069F09C3228F4903259F0933291F40EC07F
:103BE0009D3249F0903369F441E024C052E0F52A57
:103BF00084E0F82A28C098E0F92A25C0E0E1FE2AEE
:103C000022C0F7FC29C0892F80538A3070F4F6FE59
:103C100005C0989C902C1124980E15C0E89CE02CAF
:103C20001124E80EF0E2FF2A0EC09E3229F4F6FCC1
:103C30005FC140E4F42A07C09C3619F450E8F52A25
:103C400002C0983649F4F20123FD959123FF91912A
:103C50002F01992309F0B8CF892F8554833018F0AC
:103C60008052833038F444E050E0A40EB51E5FE388
:103C700059830FC0933631F0933779F0933509F0BB
:103C800052C01FC0F5018081898342E050E0A40E3C
:103C9000B51E610101E010E011C0F501C080D180C6
:103CA000F6FC03C06FEF7FEF02C0692D70E042E0C9
:103CB00050E0A40EB51EC601D8DE8C015FE7F522E8
:103CC00013C0F501C080D180F6FC03C06FEF7FEF19
:103CD00002C0692D70E042E050E0A40EB51EC6019E
:103CE00091DE8C0150E8F52AF3FE06C018C080E290
:103CF00090E0B3017AD2EA948E2D90E0081719076C
:103D0000B0F30DC0F601F7FC8591F7FE81916F01CC
:103D100090E0B3016AD2E110EA940150104001151D
:103D2000110581F7E2C0943611F0993661F5F7FE7E
:103D300008C0F501208131814281538184E090E007
:103D40000AC0F501808191819C01442737FD40958F
:103D5000542F82E090E0A80EB91E9FE6F92257FF8B
:103D600009C050954095309521953F4F4F4F5F4F7B
:103D7000E0E8FE2ACA01B901A1012AE030E0DADA5E
:103D8000D82ED2183FC0953729F41F2D1F7E2AE068
:103D900030E01DC01F2D197F9F3661F0903720F451
:103DA000983509F0A5C00FC0903739F0983709F061
:103DB0009FC004C028E030E00AC0106114FD146008
:103DC00020E130E004C014FD166020E132E017FF6E
:103DD00008C0F501608171818281938144E050E0E7
:103DE00008C0F50180819181BC0180E090E042E053
:103DF00050E0A40EB51EA1019DDAD82ED2188FE78F
:103E0000F82EF122F6FE0BC05EEFF522D91438F43D
:103E1000F4FE07C0F2FC05C08FEEF82202C01D2D93
:103E200001C0192DF4FE0DC0FE01ED0DF11D8081C4
:103E3000803319F499EEF92208C01F5FF2FE05C025
:103E400003C08F2D867809F01F5F0F2DF3FC13C080
:103E5000F0FE0EC01E1510F09D2C0AC09D2C9E0C6D
:103E6000911A1E2D05C080E290E0B301BED11F5F04
:103E70001E15C8F304C01E1510F4E11A01C0EE248B
:103E800004FF0EC080E390E0B301AFD102FF1BC07E
:103E900001FD03C088E790E00EC088E590E00BC00C
:103EA000802F867881F001FF02C08BE201C080E2A2
:103EB000F7FC8DE290E0B30198D105C080E390E07B
:103EC000B30193D19A94D914C8F3DA94F101ED0DAA
:103ED000F11D808190E0B30188D1DD20B1F705C0EC
:103EE00080E290E0B30181D1EA94EE20C9F750CE90
:103EF000F30166817781CB012B96E2E10D94B72E19
:103F0000A0E0B0E0E6E8FFE10D94A12EEC015B013A
:103F10006115710519F0FB0191838083F9908F2D54
:103F200090E00F94E02E892BC9F7FDE2FF1621F4F3
:103F3000F990EE24E39405C02BE2F21609F4F9900F
:103F4000EE248E0101501040C8016EEB70E343E097
:103F500050E033D1892BF9F48E010E5F1F4FC80159
:103F600061EC70E345E050E028D1892B19F48E0113
:103F7000095F1F4FA114B10419F0F50111830083EB
:103F8000E0FC04C070E090E080E813C070E090E0D6
:103F900080E86FEF07C1C80166EC70E343E050E0D2
:103FA0000CD1892B69F4A114B10429F470E090E0DC
:103FB00080EC6FE7F7C02296F501D183C083F6CF7E
:103FC0008824992440E050E060E070E0EF2DE05359
:103FD000EA30A0F5F2E0EF2A8E2D90E09C012870E7
:103FE0003070E2FE06C0232B79F50894811C911CE9
:103FF0002BC0232B19F0089481089108DB01CA011A
:1040000012E0880F991FAA1FBB1F1A95D1F7480FFE
:10401000591F6A1F7B1F440F551F661F771F4E0FC6
:10402000511D611D711D483929E9520729E96207AF
:1040300029E1720748F084E0E82A06C0EE3F31F437
:10404000E3FC39C098E0E92AF990C0CFE53311F0DC
:10405000E53189F529912D3219F4E0E1EE2A05C008
:104060002B3219F081E090E003C0299182E090E0CA
:10407000E22FE053EA3018F0C81BD90B1CC020E037
:1040800030E0FCE020383F075CF4C901880F991F3D
:10409000880F991F280F391F220F331F2E0F311D34
:1040A000E991E053EA3068F3E4FE03C030952195CE
:1040B0003F4F820E931ECE2CDD24E1FE07C0A114DB
:1040C000B10421F02197F501D183C083CB01BA015E
:1040D0000F945D2B7B018C01F3E0CF22DD2423E0E4
:1040E000C216D10421F417FB109517F9109557014A
:1040F0006801C801B70120E030E040E050E00F94D3
:10410000BD2A882309F44AC097FE0DC02DEDE22E8A
:1041100020E3F22E9094819491089394C0E2D0E031
:1041200000E010E012C095EFE92E90E3F92EF6CFF3
:10413000F7012591359145915491C601B5010F9430
:10414000472D5B016C018C1A9D0A8C169D0684F725
:10415000D595C7950F5F1F4F0630110529F08CEFDD
:104160009FEFE80EF91EF1CFC501D6017C018D014C
:104170008C2D880F8D2D881F8F3F51F0C601B50102
:1041800020E030E040E050E00F94BD2A882331F475
:1041900082E290E09093C5128093C4127E2D9F2DF1
:1041A000802F612F272F392F482F562FB901CA0191
:1041B000CDB7DEB7ECE00D94BD2EFB01DC01415024
:1041C000504088F08D9181341CF08B350CF4805E6A
:1041D000659161341CF06B350CF4605E861B6111D7
:1041E00071F3990B0895881BFCCF0F931F93CF9306
:1041F000DF938C01EB018B8181FF1BC082FF0DC01F
:104200002E813F818C819D812817390764F4E881D4
:10421000F9810193F983E88306C0E885F985802F49
:104220001995892B31F48E819F8101969F838E830E
:1042300002C00FEF1FEFC801DF91CF911F910F91C7
:1042400008959C01F999FECF32BD21BDF89A60B561
:10425000F999FECF2F5F3F4F32BD21BD2150304035
:10426000F89A70B5F999FECF2E5F3F4F32BD21BD50
:1042700022503040F89A80B5F999FECF2D5F3F4F1C
:1042800032BD21BDF89A90B508959C01F999FECFF1
:104290001FBA32BD21BD40BD0FB6F894FA9AF99A03
:1042A0000FBEF999FECF1FBA2F5F3F4F32BD21BD20
:1042B0002150304050BD0FB6F894FA9AF99A0FBECB
:1042C000F999FECF1FBA2E5F3F4F32BD21BD22505C
:1042D000304060BD0FB6F894FA9AF99A0FBEF9997A
:1042E000FECF1FBA2D5F3F4F32BD21BD70BD0FB64F
:1042F000F894FA9AF99A0FBE0895CF92DF92EF924E
:10430000FF920F931F93CF93DF938C016B017A0180
:10431000C0E0D0E01CC0F601EC0FFD1F608101156C
:10432000110521F00130110589F405C0E091F30970
:10433000F091F40904C0E091F509F091F609A0812B
:10434000B1812D913C91CF01F90119952196CE159E
:10435000DF0508F3DF91CF911F910F91FF90EF9050
:10436000DF90CF900895CF92DF92EF92FF920F935C
:104370001F93DF93CF93CDB7DEB728970FB6F8948E
:10438000DEBF0FBECDBF182FE92ED42EC52EF22EC4
:10439000282F30E08EEF8B83FC82F901EE0FFF1F98
:1043A000E20FF31FEE0FFF1FEE0FFF1FEF5DF04F49
:1043B00097819D8380913B038E8380913C038F8303
:1043C00068879F5F97836FEF7FEFFE013496DE0172
:1043D00019961DC021912627822F8295807F8227E2
:1043E00090E0382F2227AC01440F551F440F551F72
:1043F000440F551F24273527672F772762277327F8
:1044000024E0959587952A95E1F768277927EA179B
:10441000FB0701F78D2D9C2D9C01F9014F2D1BC031
:1044200081918627282F2295207F282730E0722F20
:104430006627C90153E0880F991F5A95E1F768274D
:1044400079276A277B27B4E035952795BA95E1F758
:10445000622773274150A72FBB27442309F7802FDA
:104460008627282F2295207F282730E0922F882723
:10447000A90163E0440F551F6A95E1F7842795274A
:104480008A279B2744E0359527954A95E1F78227AF
:10449000932789839A83812F9E2DBE016D5F7F4F65
:1044A00046E050E02ADF812F9E2D6D2D7C2D4F2D73
:1044B00050E023DF812F9E2DBE016F5F7F4F42E0D2
:1044C00050E01BDF28960FB6F894DEBF0FBECDBFBD
:1044D000CF91DF911F910F91FF90EF90DF90CF90E0
:1044E00008951F920F920FB60F920BB60F921124E0
:1044F0002F933F934F938F939F93EF93FF9340910D
:10450000C60020914711309148112F5F3F4F809195
:104510004B1190914C11282339238091491190918E
:104520004A112817390779F0809147119091481165
:10453000E0914D11F0914E11E80FF91F4083309337
:10454000481120934711FF91EF919F918F914F91C7
:104550003F912F910F900BBE0F900FBE0F901F90A9
:1045600018951F920F920FB60F920BB60F9211244F
:104570002F933F938F939F93EF93FF932091691114
:1045800030916A118091671190916811281739074D
:10459000E9F08091691190916A11E0916D11F091AB
:1045A0006E11E80FF91F80818093C6008091691118
:1045B00090916A11019620916B1130916C118223B8
:1045C000932390936A118093691110C02091671111
:1045D000309168118091691190916A1128173907FB
:1045E00029F48091C1008F7D8093C100FF91EF91EC
:1045F0009F918F913F912F910F900BBE0F900FBE07
:104600000F901F9018951F920F920FB60F920BB636
:104610000F9211242F933F934F938F939F93EF9378
:10462000FF934091CE0020914F11309150112F5F98
:104630003F4F809153119091541128233923809139
:104640005111909152112817390779F080914F112B
:1046500090915011E0915511F0915611E80FF91F0A
:1046600040833093501120934F11FF91EF919F9110
:104670008F914F913F912F910F900BBE0F900FBED6
:104680000F901F9018951F920F920FB60F920BB6B6
:104690000F9211242F933F938F939F93EF93FF9348
:1046A000209171113091721180916F119091701160
:1046B00028173907E9F08091711190917211E091FA
:1046C0007511F0917611E80FF91F80818093CE006B
:1046D0008091711190917211019620917311309116
:1046E000741182239323909372118093711110C0DF
:1046F00020916F1130917011809171119091721110
:104700002817390729F48091C9008F7D8093C9004B
:10471000FF91EF919F918F913F912F910F900BBE41
:104720000F900FBE0F901F9018951F920F920FB60B
:104730000F920BB60F9211242F933F934F938F93A9
:104740009F93EF93FF934091360120915F11309139
:1047500060112F5F3F4F8091631190916411282366
:10476000392380916111909162112817390779F0EE
:1047700080915F1190916011E0916511F091661147
:10478000E80FF91F40833093601120935F11FF9170
:10479000EF919F918F914F913F912F910F900BBE71
:1047A0000F900FBE0F901F9018951F920F920FB68B
:1047B0000F920BB60F9211242F933F938F939F93D9
:1047C000EF93FF93209181113091821180917F119D
:1047D0009091801128173907E9F08091811190910B
:1047E0008211E0918511F0918611E80FF91F808107
:1047F00080933601809181119091821101962091D0
:10480000831130918411822393239093821180939A
:10481000811110C020917F11309180118091811100
:10482000909182112817390729F4809131018F7DE9
:1048300080933101FF91EF919F918F913F912F9143
:104840000F900BBE0F900FBE0F901F9018950F93F7
:104850001F93CF93DF9360912D0A6623B1F1C0912E
:10486000BE0AD091BF0A00915703109158037727D1
:1048700067FD7095872F972F0F945F2B2091410331
:104880003091420340914303509144030F94472DCC
:1048900020E030E040E251E40F94472D0F942C2BA0
:1048A0009801261B370BC217D3073CF09B01200F42
:1048B000311FC217D3070CF49E013093BF0A209317
:1048C000BE0A3093580320935703DF91CF911F9175
:1048D0000F9108950F93DF93CF93CDB7DEB729974C
:1048E0000FB6F894DEBF0FBECDBFAC0190913A0376
:1048F000983050F4953008F046C09130C1F09130B6
:1049000078F0923091F43FC09F3089F0903128F4D4
:10491000892F8A50833048F40AC0903131F402C0A4
:1049200020E408C021E032E00CC021E001C028E111
:10493000992311F434E004C034E0903111F0206187
:10494000206C892F90E0A0E0B0E089839A83AB834C
:10495000BC8381E08D8383E08E8321602F83388741
:104960008987CA0160E0AE014F5F5F4F29E002E333
:10497000FADC29960FB6F894DEBF0FBECDBFCF91FB
:10498000DF910F91089520E1D7CF2F923F924F9260
:104990005F926F927F928F929F92AF92BF92CF92CF
:1049A000DF92EF92FF920F931F93DF93CF93CDB7D8
:1049B000DEB7A1970FB6F894DEBF0FBECDBF99A3A7
:1049C00088A380915C0A882329F027E030E040E04A
:1049D00050E004C023E030E040E050E0F8E0EF2E8B
:1049E000F12C012D112DE22AF32A042B152BE09135
:1049F000070EF091080E309769F085AD96AD0297DD
:104A000049F4E8E2EE2EF12C012D112DE22AF32AD1
:104A1000042B152B212C7CEF372E7FEF472E7FEFB9
:104A2000572E2E283F28402A512A6FEFA62E61E0EC
:104A3000B62EC12CD12CA220B320C420D520809129
:104A40003A038630C1F0873038F4823079F085300F
:104A500069F0813011F519C08D3028F48A30A8F43E
:104A60008730D9F40DC08F30C1F40FC080E09CE0D6
:104A7000A0E0B0E00EC080E09CE8AFEFBFEF09C05F
:104A800080E09CEAAFEFBFEF04C080E09CEFAFEFA7
:104A9000BFEFA82AB92ACA2ADB2A6090810E70903B
:104AA000820E8090830E9090840EC401B30120E0AA
:104AB00030E040E050E00F94BD2A882331F46624B2
:104AC0006A94762C99249A9435C02091700A30917A
:104AD000710A2115310519F499249A941AC0B90163
:104AE000882777FD8095982F0F945F2B7B018C0191
:104AF000A40193010F94DF2920E030E048EC52E458
:104B00000F94472DA80197010F94C42A0F94312BBD
:104B1000962E60917D0E70917E0E80917F0E909109
:104B2000800E20E030E048EC52E40F94472D0F94C3
:104B3000312B3B0180915F0A833011F456E9952EA9
:104B40006091390F70913A0F80913B0F90913C0F1B
:104B500020E030E04AE754E40F94472D0F94312BC6
:104B60007B018C016091450370914603809147035E
:104B70009091480320E030E04AE754E40F94472D39
:104B80000F94312B29823A824B825C82AD82BE82A5
:104B9000CF82D88629863A864B865C86FE86ED864D
:104BA000788B6F877A8A698A1C8A1B8A1E8A1D8A7B
:104BB000188E1F8A1A8E198E1C8E1B8E1E8E1D8EAD
:104BC0009F8E88A199A161E0AE014F5F5F4F2FE1F9
:104BD0000CE7C9DBA1960FB6F894DEBF0FBECDBFC0
:104BE000CF91DF911F910F91FF90EF90DF90CF90C9
:104BF000BF90AF909F908F907F906F905F904F90FD
:104C00003F902F9008952F923F924F925F926F9214
:104C10007F928F929F92AF92BF92CF92DF92EF924C
:104C2000FF920F931F93DF93CF93CDB7DEB7A49777
:104C30000FB6F894DEBF0FBECDBF98A38F8F6091E3
:104C400051037091520380915303909154036F3F2D
:104C50002FEF72072FEF82072FEF920741F4609139
:104C60003D0F70913E0F80913F0F9091400F24E6D1
:104C700030E040E050E00F94802E3C8F2B8F60910D
:104C8000450F7091460F8091470F9091480F0F94F8
:104C90005F2B20E030E048EC52E40F94C42A7B0103
:104CA0008C016091490F70914A0F80914B0F909148
:104CB0004C0F24E630E040E050E00F94802E29A312
:104CC0003AA34BA35CA380919509909196099E8F7E
:104CD0008D8F60914D0F70914E0F80914F0F90917D
:104CE000500F0F945F2B20E030E048EC52E40F941B
:104CF000C42A5B016C016090730E7090740E8090FA
:104D0000750E9090760E2090510F3090520F40907B
:104D1000530F5090540F6091410F7091420F80914A
:104D2000430F9091440F0F945F2B20E030E048EC4C
:104D300052E40F94C42A69837A838B839C83C701CE
:104D4000D8018D839E83AF83B887C501D60189873B
:104D50009A87AB87BC876D867E868F86988A298ADC
:104D60003A8A4B8A5C8A8B8D9C8D9E8B8D8B89A118
:104D70009AA1988F8F8B8D8D9E8D9A8F898F8F8D15
:104D800098A16EE3AE014F5F5F4F2AE107EBEBDACC
:104D9000A4960FB6F894DEBF0FBECDBFCF91DF91C2
:104DA0001F910F91FF90EF90DF90CF90BF90AF9049
:104DB0009F908F907F906F905F904F903F902F903B
:104DC00008952F923F924F925F926F927F928F92AF
:104DD0009F92AF92BF92CF92DF92EF92FF920F938A
:104DE0001F93DF93CF93CDB7DEB7EA970FB6F89452
:104DF000DEBF0FBECDBF9CAB8BAB0091070E1091F9
:104E0000080ED801DD96BC91BF8FB23011F4E3E0FB
:104E1000EF8FD8011C968D919D910D90BC91A02D86
:104E20008FA798ABA9ABBAABD80150968D919D9145
:104E30000D90BC91A02D8BA79CA7ADA7BEA7F80194
:104E400064897589868997892AE030E040E050E0DE
:104E50000F940C2E6FA378A789A79AA7D8019496D0
:104E60000D90BC91A02DBEA3ADA3F801008CF18DD7
:104E7000E02DFCA3EBA3D8015C960D90BC91A02D76
:104E8000BAA3A9A3F801F6A1F8A3F80187A590A9F0
:104E9000A1A9B2A94C015D019C01A50160E070E0EF
:104EA00080E090E002E00E94F31A122F632E542E4D
:104EB000352E6DAB7EAB8FAB98AF05E00E94F31A39
:104EC000A32FB42F052F462E272E89AF9AAF722E0F
:104ED000711AF1E0271508F0F0E03A2F3619E1E0F9
:104EE000A31708F0E0E0132F1F1B21E0311708F093
:104EF00020E0E22B4B2F451931E0B41708F030E0E9
:104F0000B42FBE1B21E04B1708F020E0322B502FAE
:104F1000531941E0051708F040E0052F031B21E07D
:104F2000501708F020E0422B642DFDA96F1B31E0E3
:104F3000461608F030E0962F941B21E0691708F020
:104F400020E0322B722D2EA9721B41E0271608F0AB
:104F500040E0A72FA31B21E07A1708F020E0422BA6
:104F600089AD3FA9831B21E0E9ADE81708F020E0F7
:104F7000E82FE41B31E08E1708F030E0232BFAAD68
:104F800038ADF31BF21B672C680C31E0671408F096
:104F900030E0812F890D41E0811708F040E0380FA3
:104FA00051E0381708F050E0452B8B2F8A0D51E067
:104FB0008B1708F050E0480F61E0481708F060E0F8
:104FC000562B202F2B0D81E0201708F080E0520F88
:104FD00061E0521708F060E0682B690F71E0691713
:104FE00008F070E07A0F81E07A1708F080E08E0F09
:104FF00091E08E1708F090E0262D9F0F03E00E94AD
:10500000F31A29833A834B835C836D837E838F837A
:1050100098878FA598A9A9A9BAA989879A87AB87E4
:10502000BC878BA59CA5ADA5BEA58D879E87AF87A8
:10503000B88B8FA198A5A9A5BAA5898B9A8BAB8BA4
:10504000BC8BADA1BEA1BE8BAD8B8FEF9FEF988FB8
:105050008F8BEBA1FCA1FA8FE98F29A13AA13C8F9C
:105060002B8F3F8D3D8F88A18E8F8BA99CA968E1E6
:10507000AE014F5F5F4F2EE108E175D9EA960FB69A
:10508000F894DEBF0FBECDBFCF91DF911F910F917E
:10509000FF90EF90DF90CF90BF90AF909F908F9058
:1050A0007F906F905F904F903F902F9008950F9357
:1050B000DF93CF930F920F92CDB7DEB720911F0AE7
:1050C000332727FD30953A8329836AE2AE014F5F8B
:1050D0005F4F22E00CE147D90F900F90CF91DF9105
:1050E0000F910895CF93DF93EC01FB01EE0FFF1FAB
:1050F000E80FF91F90A99923D1F0FE01E60FF71FE1
:10510000EE5BFF4F8081882381F4692F933308F091
:1051100062E382E390E070E00F944B2EC55BDF4FBB
:105120008881860F808381E003C08150808380E086
:10513000DF91CF9108950F93DF93CF9300D00F921B
:10514000CDB7DEB7FC01858D8823C9F04689578924
:1051500080911E0A992787FD90958417950778F00E
:1051600081899289208D328D5A8349832B833C8398
:1051700068E2AE014F5F5F4F24E006EEF4D80F9077
:105180000F900F900F90CF91DF910F91089520E035
:1051900090913B03891321E0822F08954F925F92F3
:1051A0006F927F928F929F92AF92BF92CF92DF9237
:1051B000EF92FF920F931F93DF93CF93CDB7DEB79C
:1051C0002F970FB6F894DEBF0FBECDBF9A2DA982E0
:1051D000EB2DBA82FC2DCB82DC82ED82FE820F8326
:1051E000188729873A874B875C876D877E878F87EB
:1051F0004C815D816E817F81C884D984EA84FB847F
:105200004C845D846E847F8497FE03C020E030E090
:105210000BC080911E0AA82FBB27A7FDB095940153
:10522000A815B9050CF49D01D90114E0AA0FBB1F04
:105230001A95E1F7A21BB30BA050BB4FE0FD02C0D3
:10524000E0E006C0E0E0232B09F4E1E081E0E8279C
:10525000F999FECF1FBAB2BDA1BD90BD0FB6F894AB
:10526000FA9AF99A0FBECD010196F999FECF1FBAAD
:1052700092BD81BDE0BD0FB6F894FA9AF99A0FBEBF
:105280008C010F5F1F4FF999FECF1FBA12BD01BDF0
:10529000F0BD0FB6F894FA9AF99A0FBEC8010196BC
:1052A0000E944521C8010596B701A6010E9445212B
:1052B000C8010996B301A2010E9445212F960FB69D
:1052C000F894DEBF0FBECDBFCF91DF911F910F913C
:1052D000FF90EF90DF90CF90BF90AF909F908F9016
:1052E0007F906F905F904F900895CF92DF92EF92F2
:1052F000FF920F931F93DF93CF93CDB7DEB728971D
:105300000FB6F894DEBF0FBECDBF9C018091230A7B
:10531000992787FD90958217930740F4CC24DD24CC
:10532000760180E090E0A0E0B0E017C08901045170
:105330001E4F83E0000F111F8A95E1F7C8010E94FC
:105340002121AC01CB01DA016C017D01C801049679
:105350000E942121AC01CB01DA01C982DA82EB8201
:10536000FC828D839E83AF83B8872C2D3A814B813D
:105370005C81682F7E818F81988528960FB6F8947E
:10538000DEBF0FBECDBFCF91DF911F910F91FF9078
:10539000EF90DF90CF90089580915603882329F4F1
:1053A00080915C0A813009F046C080913D0F909158
:1053B0003E0FA0913F0FB091400F2091AB0730916D
:1053C000AC074091AD075091AE07821B930BA40B25
:1053D000B50B8093221190932311A0932411B093C5
:1053E00025118091221190912311A0912411B09147
:1053F0002511813526E4920720E0A20720E0B207BC
:105400002CF0805A9C48A040B0400CC0803B29EB57
:1054100092072FEFA2072FEFB20724F4805693478D
:10542000AF4FBF4F8093221190932311A09324116B
:10543000B09325110895E091070EF091080E809128
:105440003D0F90913E0FA0913F0FB091400F248DE2
:10545000358D468D578DB9CF2091740A3091750ADC
:105460008091800A9091810A281B390B25363105DD
:105470001CF08AE08093860F2C593F4F1CF486EF76
:105480008093860F8091860F18161CF481508093AC
:10549000860F8091860F87FF03C08F5F8093860FF2
:1054A0008091860F813019F08F3F09F080E00895D8
:1054B000AF92BF92CF92DF92EF92FF920F931F9322
:1054C000CF93DF93EC015A016B018E81882351F455
:1054D000CB01BA010F945F2B6F83788789879A87F6
:1054E00081E08E83EA80FB800C811D81C601B501BD
:1054F0000F945F2B9B01AC01C801B7010F94472D9E
:105500005B016C0160E070E080E89FE3A801970117
:105510000F94DF292F81388549855A850F94472DAF
:105520009B01AC01C601B5010F94E0296F83788718
:1055300089879A870F942C2B9B01AC01CA01DF91BC
:10554000CF911F910F91FF90EF90DF90CF90BF9080
:10555000AF900895FC011382128215821482178283
:105560001682118610861386128614860895FC0111
:10557000168208950F931F938C01CB01BA010F94EB
:105580005F2BF801678370878187928781E086832C
:105590001F910F910895EF92FF920F931F93CF9356
:1055A000DF93DC018B011E969C911E971C968C91BB
:1055B0001C97853028F48F5F1C968C931C9706C02F
:1055C000992321F4ED0120E030E026C01C964C9197
:1055D0001C974150842F992787FD90954F5FEC01D0
:1055E000CC0FDD1FCA0FDB1F20E030E07C0102C0C2
:1055F0007D836C83F701E21BF30B688179810617C9
:105600001707DCF42F5F3F4F2297842F821B181659
:105610007CF313C059834883F9014C815D814017A5
:1056200051075CF42F5F3F4F22961C968C911C977C
:1056300090E00197E817F9076CF33196EE0FFF1F22
:10564000EA0FFB1F118300831E968C911E9791E039
:1056500089271E968C931E971C96EC911C97E5301B
:1056600010F4E69503C01D96EC911D97F0E031967D
:10567000EE0FFF1FEA0FFB1F80819181DF91CF9119
:105680001F910F91FF90EF90089585E00895EF929C
:10569000FF920F931F93CF93DF93EC018E89E82F36
:1056A000F0E0EE0FFF1FEE0FFF1FEC0FFD1F428318
:1056B0005383648375838F5F8E8B853008F01E8AD9
:1056C0008F898F5F8F8B8150853010F085E08F8BB5
:1056D0006A817B818C819D8120E030E040E050E058
:1056E0000F94E0292E813F81488559850F94E02948
:1056F0002A853B854C855D850F94E0292E853F8565
:10570000488959890F94E0292A893B894C895D8908
:105710000F94E0297B018C016F8970E0882777FD69
:105720008095982F0F945F2B9B01AC01C801B701A6
:105730000F94C42ADF91CF911F910F91FF90EF90AA
:105740000895FC0180E090E0A0E0B0E082839383C4
:10575000A483B58386839783A087B1878287938745
:10576000A487B58786879787A08BB18B828B938B15
:10577000A48BB58B168A178A089585E00895FF9249
:105780000F931F93CF93DF93EC01142F052FF62E69
:105790002E8DE22FF0E0EE0FFF1FEE0FFF1FEC0F3C
:1057A000FD1F812F902FAF2DB72F82839383A4836A
:1057B000B5832F5F2E8F273008F01E8E212F302FBC
:1057C0004F2D572FB901CA01DF91CF911F910F9132
:1057D000FF90089587E00895EF92FF920F931F9333
:1057E0007A018B018331C9F1843174F48230C9F0BC
:1057F000833024F4813009F051C01AC08430F9F0AC
:10580000893009F04BC022C0893399F18A3324F4DE
:10581000863209F043C027C08F3689F18337F1F50E
:1058200036C0F0E6EF2EF9E0FF2E012D112D3CC021
:10583000E0EBEE2EE4E0FE2E012D112D35C070ECD4
:10584000E72E72E1F72E012D112D2EC060E8E62E15
:1058500065E2F62E012D112D27C0E12C5BE4F52E1B
:10586000012D112D21C0E12C46E9F42E012D112D21
:105870001BC0E12C31EEF32E012D112D15C02CEFA4
:10588000E22E21EBF22E21E0022F112D0DC0E12C92
:1058900092ECF92E91E0092F112D06C088E596E0D3
:1058A0006BE677E00E94C49FB701C8011F910F917A
:1058B000FF90EF90089528E536E0882349F000D066
:1058C0000F92EDB7FEB7328321838AE696E008C0D7
:1058D00000D00F92EDB7FEB73283218386E696E0C3
:1058E000948383830E94A49F88E596E0EDB7FEB77A
:1058F000928381838FE596E0948383830E94A49FA3
:105900000F900F900F900F90089500D00F9288E5A0
:1059100096E0EDB7FEB7928381838BEC96E094839B
:1059200083830E94A49F0F900F900F900F90089573
:1059300000D00F9288E596E0EDB7FEB792838183A1
:1059400084EB9AE0948383830E94A49F0F900F902E
:105950000F900F9080E0089500D00F9288E596E0B8
:10596000EDB7FEB7928381838BE79CE094838383BA
:105970000E94A49F80E090E00F900F900F900F90F6
:10598000F999FECF1FBA92BD81BD10BC0FB6F89435
:10599000FA9AF99A0FBE0196F0E180309F0781F7DD
:1059A00000D00F9288E596E0EDB7FEB79283818331
:1059B00085E79CE0948383830E94A49F0F900F90BF
:1059C0000F900F9008950F931F938DB79EB70A976E
:1059D0000FB6F8949EBF0FBE8DBFEDB7FEB73196E0
:1059E00008E516E0ADB7BEB712961C930E9311975B
:1059F00084E29DE09383828380917E0A90917F0A66
:105A0000958384838091800A9091810A978386830D
:105A10008091820A9091830A918780870E94A49F37
:105A2000EDB7FEB73196ADB7BEB712961C930E9385
:105A3000119781E19DE09383828380919F0A9091E9
:105A4000A00A958384838091A10A9091A20A9783EA
:105A500086838091A30A9091A40A918780870E94EF
:105A6000A49FEDB7FEB73196ADB7BEB712961C93A3
:105A70000E9311978EEF9CE0938382838091C00AEE
:105A80009091C10A958384838091C20A9091C30A40
:105A9000978386838091C40A9091C50A91878087F5
:105AA0000E94A49FEDB7FEB73196ADB7BEB7129670
:105AB0001C930E9311978BEE9CE0938382838091CD
:105AC000E10A9091E20A958384838091E30A9091A0
:105AD000E40A978386838091E50A9091E60A91878C
