:10F800000C943E7C0C945B7C0C945B7C0C945B7C39
:10F810000C945B7C0C945B7C0C945B7C0C945B7C0C
:10F820000C945B7C0C945B7C0C945B7C0C945B7CFC
:10F830000C945B7C0C945B7C0C945B7C0C945B7CEC
:10F840000C945B7C0C945B7C0C945B7C0C945B7CDC
:10F850000C945B7C0C945B7C0C945B7C0C945B7CCC
:10F860000C945B7C0C945B7C0C945B7C0C945B7CBC
:10F870000C945B7C0C945B7C0C945B7C11241FBE11
:10F88000CFEFD0E1DEBFCDBF11E0A0E0B1E0E8EB0B
:10F89000FFEF02C005900D92A230B107D9F712E038
:10F8A000A2E0B1E001C01D92AD30B107E1F70E94C6
:10F8B0003B7D0C94DA7F0C94007C982F9595959560
:10F8C00095959595905D8F708A307CF0282F295AF8
:10F8D0008091C00085FFFCCF9093C6008091C0004E
:10F8E00085FFFCCF2093C6000895282F205DF0CF20
:10F8F000982F8091C00085FFFCCF9093C60008959B
:10F90000EF92FF920F931F93EE24FF2487018091C3
:10F91000C00087FD19C0199B05C00894E11CF11CAB
:10F92000011D111D81E4E81682E4F8068FE0080746
:10F9300080E0180760F3E0910401F091050109955A
:10F940008091C00087FFE7CF8091C6001F910F9183
:10F95000FF90EF9008950E94807C982F8091C000C6
:10F9600085FFFCCF9093C60091362CF490330CF0B9
:10F970009053892F08959755892F08951F930E94BA
:10F98000AB7C182F0E94AB7C1295107F810F1F91CA
:10F9900008951F93182F882321F00E94807C115016
:10F9A000E1F71F9108951F93182F0E94807C8032E9
:10F9B00049F0809103018F5F809303018530C1F08E
:10F9C0001F9108958091C00085FFFCCF84E1809352
:10F9D000C6008091C00085FFFCCF1093C6008091C7
:10F9E000C00085FFFCCF80E18093C6001F91089581
:10F9F000E0910401F091050109951F91089540E9F6
:10FA000051E08823A1F05E9A28EE33E0FA013197A5
:10FA1000F1F721503040D1F75E9828EE33E0FA013B
:10FA20003197F1F721503040D1F7815061F70895B7
:10FA30000E94807C803241F0809103018F5F80932F
:10FA40000301853080F408958091C00085FFFCCFCC
:10FA500084E18093C6008091C00085FFFCCF80E1E7
:10FA60008093C60008950E94FF7CE0910401F0910C
:10FA70000501099508953F924F925F926F927F9290
:10FA80008F929F92AF92BF92CF92DF92EF92FF92AE
:10FA90000F931F93CF93DF9300002198299A8091B1
:10FAA0000201882309F082C281E08093020180E193
:10FAB0008093C4001092C50088E18093C10086E065
:10FAC0008093C2005098589A569A569A81E00E94A4
:10FAD000FF7C24E1F22E9EE1E92E86E9D82E0AE091
:10FAE000C02E10E1B12EAA24A394B1E49B2EA6E56A
:10FAF0008A2EF2E57F2EE0E26E2E79E4572E63E542
:10FB0000462E50E5352E0E94807C8033B1F1813342
:10FB1000B9F1803409F46FC0813409F476C08234BD
:10FB200009F485C0853409F488C0803531F1823507
:10FB300021F1813511F1853509F485C0863509F447
:10FB40008DC0843609F496C0843709F405C1853721
:10FB500009F473C1863709F466C0809103018F5F91
:10FB600080930301853079F6E0910401F09105015D
:10FB700009950E94807C803351F60E94187DC3CF86
:10FB80000E94807C803249F78091C00085FFFCCFC5
:10FB9000F092C6008091C00085FFFCCF9092C60015
:10FBA0008091C00085FFFCCF8092C6008091C0008C
:10FBB00085FFFCCF7092C6008091C00085FFFCCF0E
:10FBC0006092C6008091C00085FFFCCF5092C600B5
:10FBD0008091C00085FFFCCF4092C6008091C0009C
:10FBE00085FFFCCF3092C6008091C00085FFFCCF1E
:10FBF000B092C60088CF0E94807C863808F4BDCFC2
:10FC00000E94807C0E94187D7ECF0E94807C80387C
:10FC100009F49EC0813809F40CC1823809F431C15D
:10FC2000883909F491C080E00E94D37C6CCF84E1D4
:10FC30000E94C97C0E94187D66CF85E00E94C97C25
:10FC40000E94187D60CF0E94807C809306010E94F4
:10FC5000807C809307010E94187D55CF0E94807C94
:10FC6000803309F412C183E00E94C97C80E00E94C5
:10FC7000D37C49CF0E94807C809309020E94807CC3
:10FC80008093080280910C028E7F80930C020E9468
:10FC9000807C853409F40AC18091080290910902A0
:10FCA000892B89F000E010E00E94807CF801E85F79
:10FCB000FE4F80830F5F1F4F8091080290910902D1
:10FCC0000817190788F30E94807C803209F045CF1D
:10FCD0005E9A80910C0280FFF5C0609106017091E0
:10FCE0000701660F771F7093070160930601A091CB
:10FCF0000802B09109021097C9F0E8E0F1E09B0119
:10FD0000AD014E0F5F1FF999FECF32BD21BD81912C
:10FD100080BDFA9AF99A2F5F3F4FE417F50799F7DC
:10FD20006A0F7B1F70930701609306015E988091B4
:10FD3000C00085FFFCCFF092C6008091C00085FF17
:10FD4000FCCFB092C600DFCE83E00E94D37CDBCE36
:10FD500082E00E94D37CD7CE0E94807C80930902EF
:10FD60000E94807C80930802809106019091070197
:10FD7000880F991F90930701809306010E94807C51
:10FD8000853409F499C080910C028E7F80930C0217
:10FD90000E94807C803209F0B6CE8091C00085FF41
:10FDA000FCCFF092C600A0910802B0910902109712
:10FDB000B9F180910C02182F1170082F0270E09198
:10FDC0000601F0910701AF014F5F5F4FBA0120E0DC
:10FDD00030E01123B1F4002339F494918091C000F4
:10FDE00085FFFCCF9093C6002F5F3F4FCB0101965C
:10FDF000FA012A173B0780F4BC014F5F5F4F1123C4
:10FE000051F3F999FECFF2BDE1BDF89A90B580911A
:10FE1000C00085FFFCCFE6CF709307016093060119
:10FE20008091C00085FDE4CE8091C00085FFF8CFB1
:10FE3000DFCE81E00E94D37C66CE0E94807C80323F
:10FE400009F08BCE8091C00085FFFCCFF092C600F8
:10FE50008091C00085FFFCCFE092C6008091C00079
:10FE600085FFFCCFD092C6008091C00085FFFCCFFB
:10FE7000C092C6008091C00085FFFCCFB092C60042
:10FE800042CE80E10E94D37C3ECE0E94807C0E94C4
:10FE9000807C182F0E94807C112309F47FC01130D0
:10FEA00009F480C08AE00E94D37C2DCE80910C02A0
:10FEB000816080930C02F0CE80910C02816080936F
:10FEC0000C0266CF809107018823880F880B8A2156
:10FED00080930B028091060190910701880F991F72
:10FEE00090930701809306018091080280FF09C06A
:10FEF00080910802909109020196909309028093E3
:10FF00000802F894F999FECF1127E0910601F091CB
:10FF10000701C8E0D1E080910802909109021030F9
:10FF200091F40091570001700130D9F303E0009380
:10FF30005700E8950091570001700130D9F301E1B5
:10FF400000935700E89509901990009157000170AF
:10FF50000130D9F301E000935700E895139510386C
:10FF600098F011270091570001700130D9F305E096
:10FF700000935700E8950091570001700130D9F3C4
:10FF800001E100935700E8953296029709F0C7CF38
:10FF9000103011F00296E5CF1124C8CE8EE10E94F8
:10FFA000D37CB1CD86E90E94D37CADCD813009F000
:08FFB0008BCD7DCDF894FFCF4D
:02FFB8008000C7
:040000030000F80001
:00000001FF
