:100000000C9491040C9459160C9432160C94B90467
:100010000C94B9040C94B9040C94B9040C94B9046C
:100020000C94B9040C94B9040C94B9040C94B9045C
:100030000C94B9040C94B9040C94B9040C94B9044C
:100040000C94E8150C94B9040C942E090C94020934
:100050000C94B9040C94B9040C94B9040C94B9042C
:100060000C94B9040C94B904EF1CF31C081D351D45
:10007000291D411D4F1D641D7A1DB61D802088203D
:100080009D20C7202A2160218C21AC21084AD73B22
:100090003BCE016E84BCBFFDC12F3D6C74319ABD57
:1000A00056833DDA3D00C77F11BED9E4BB4C3E917B
:1000B0006BAAAABE000000803F05A84CCDB2D44E6A
:1000C000B93836A9020C50B9918688083CA6AAAA6C
:1000D0002ABE000000803F0664EC1B3C04BC163EB8
:1000E0003BE5B93CC93C37C29E5A3D660498083E80
:1000F000EA69AAAA3E000000803F686F6C64007441
:10010000756E6500666C69700073707274006D20A6
:1001100031320064726966006F666C6F006C616EEC
:100120006400706F736800636972630072746C209E
:10013000006C6F69740067756964006175746F00A5
:10014000616C7468006163726F007374616200694E
:100150006E69740067756964006D5F3134006D5FAE
:100160003133006C6F69740072746C2000617574B7
:100170006F006174756E006372757A0066627762F3
:100180000066627761006163726F0074726169007A
:10019000737461620063697263006D616E75006102
:1001A000746F66006163202000706F6920007070BA
:1001B0002020006C616E640072746C2000706120FD
:1001C0002000686C202000706F737200636C202028
:1001D00000706F7368007374623600737462350068
:1001E0007374623400737462330073746232007328
:1001F000746231006D616E750048696768205653FE
:1002000070656564210020204C6F772052737369FC
:1002100020200042617474657279204C6F77210050
:10022000204F766572537065656421200020202080
:100230005374616C6C2120202000204E6F204750A9
:100240005320666978210000000000230026002961
:100250000000070E091C1B1215383F363124232AD3
:100260002D70777E796C6B6265484F464154535AC6
:100270005DE0E7EEE9FCFBF2F5D8DFD6D1C4C3CAF6
:10028000CD90979E998C8B8285A8AFA6A1B4B3BA66
:10029000BDC7C0C9CEDBDCD5D2FFF8F1F6E3E4ED93
:1002A000EAB7B0B9BEABACA5A28F88818693949D06
:1002B0009A2720292E3B3C35321F18111603040DB6
:1002C0000A5750595E4B4C45426F68616673747DA6
:1002D0007A898E878095929B9CB1B6BFB8ADAAA350
:1002E000A4F9FEF7F0E5E2EBECC1C6CFC8DDDAD346
:1002F000D4696E676075727B7C51565F584D4A4376
:1003000044191E171005020B0C21262F283D3A33E5
:10031000344E49404752555C5B7671787F6A6D6414
:10032000633E39303722252C2B0601080F1A1D1485
:1003300013AEA9A0A7B2B5BCBB9691989F8A8D8435
:1003400083DED9D0D7C2C5CCCBE6E1E8EFFAFDF425
:10035000F34E6F20696E70757420646174612120A2
:100360000025346925630025342E3266256300B8E4
:10037000B900C6202020202020202020202020C5B9
:100380007C00B2202020202020202020202020B30C
:100390007C002534690507002534690506002535EC
:1003A0002E32660D00253269002531302E36667CEE
:1003B0002531302E366600032531302E36667C041A
:1003C0002531302E3666002531302E366620253117
:1003D000302E366600032531302E36662004253156
:1003E000302E366600256325638E25692525002578
:1003F000342E3066010025322E3069252500256314
:1004000025638E25342E30660100C32573870020B6
:10041000C7C7C7C72EC7C7C7C7207C002534690513
:100420000020586525342E3066256300253269206A
:1004300025342E306625637C0025332E3069250057
:100440004A01450140013B01360131012C012701E0
:1004500022011D01180113010E0109010401FF0011
:10046000FA009A01950190018B01860181017C01BE
:10047000770172016D01680163015E015901540148
:100480004F01F401EF01EA01E501E001DB01D601D2
:10049000D101CC01C701C201BD01B801B301AE0158
:1004A000A901A4019F0125352E32660E0025342EA8
:1004B00030662563004E5225322E3066057C4E5044
:1004C00025322E3066057C4E4825342E3069057C59
:1004D000544225342E3069057C414525332E306643
:1004E00025637C584525332E30666D7C4145253388
:1004F0002E30662563002533692500202090912049
:100500000025342E306625630025342E3066010028
:1005100025352E31662563004325642535697C0029
:10052000202020202020202020202020005069741E
:10053000636820696E204E54534320202000526F80
:100540006C6C2020696E204E5453432020200050B4
:100550006974636820696E2050414C20202020007F
:10056000252E336600526F6C6C2020696E2050413E
:100570004C20202020002020486F72697A6F6E2066
:10058000616E676C657300566572746963616C2097
:100590006F66667320202000486F72697A6F6E74F0
:1005A000616C206F6666732000436F6E74726173B6
:1005B00074202020202020202000252E306600538B
:1005C000637265656E7320436F756E742020200022
:1005D000202053637265656E20706172616D7320B7
:1005E00000426174742032207761726E696E6720F8
:1005F000200025332E31667600426174746572796D
:10060000207761726E696E672000202020202020F4
:100610004F534420736574757020007605680000A0
:1006200000000000000000000065056601230500D1
:10063000006005000004004F05660127050000600A
:1006400005000004003E0566012B05000060050062
:100650000004002D0566012F050000600500000460
:10066000000A06000000000000000000000000F981
:1006700005620AFA040000F2050000FF00E10562CD
:100680000A33050000F2050000FF00D0050000005D
:10069000000000000000000000BF056201380500F6
:1006A00000BA0501000400A9056201F704A610BA0A
:1006B0000500000300980563013505A610BA05E1A1
:1006C000FF1F00870563013405A610BA05F1FF0F6F
:1006D00000030201002532693A25303269002535D0
:1006E0002E306625630025352E32662563007C0B8F
:1006F00025356925637C8F25356925637C1425356F
:100700006925637C1225356925637C032531302EEC
:1007100036667C042531302E36660025332E306651
:10072000256300256325630025632563253469055A
:10073000007C2563256325322E3066256300202842
:100740004E5453432900202850414C29006106088B
:1007500000001B0605470B000000000043440A0090
:100760005246460A0000000008000201000003048F
:100770000700000000000000006E616E00696E66F8
:100780000000000000250028002B000404040404DD
:10079000040404020202020202030303030303012E
:1007A0000204081020408001020408102001020405
:1007B000081020666666400000803F100CBA000AF0
:1007C00000001BE8031A52B80E4085EB5140196631
:1007D000BB0012800C1CA0141E10000E000F001194
:1007E000004D697373696E672F4F6C6420436F6EA1
:1007F0006669673A202564206D79202564004D697B
:100800006E696D4F53442D457874726120322E34D9
:100810007C756E6920723831354456000000000046
:10082000240027002A0000407A10F35A00A0724EDC
:1008300018090010A5D4E80000E87648170000E485
:100840000B54020000CA9A3B000000E1F5050000CD
:1008500080969800000040420F000000A086010032
:100860000000102700000000E80300000000640002
:10087000000000000A00000000000100000000006D
:100880002C76D888DC674F0823DFC1DFAE59E1B191
:10089000B796E5E3E453C63AE651997696E8E6C2A0
:1008A0008426EB898C9B62ED407C6FFCEFBC9C9FA7
:1008B00040F2BAA56FA5F490055A2AF75C936B6CC9
:1008C000F9676DC11BFCE0E40D47FEF520E6B500BD
:1008D000D0ED902E0300943577050080841E08002B
:1008E00000204E0A000000C80C333333330F986EDB
:1008F00012831141EF8D2114893BE65516CFFEE698
:10090000DB18D1844B381BF77C1D901DA4BBE4245D
:10091000203284725E228100C9F124ECA1E53D27DA
:10092000663311241FBECFEFD8E0DEBFCDBF27E076
:10093000A0E8B2E001C01D92A23FB207E1F712E0C9
:10094000A0E0B1E0E2E6F0E702C005900D92A03829
:10095000B107D9F714E0C1E9D4E004C02197FE0142
:100960000E942438C039D107C9F70E9490190C940D
:100970002F380C940000109242050895E09134073E
:10098000F091350732962491215090911D0160918C
:1009900032077091330787FF03C0992339F004C0F1
:1009A000882311F0291721F0980F03C0922F01C05E
:1009B00090E0FB013EE0939FE00DF11D1124349681
:1009C00045915491452B39F390931D018091190164
:1009D00084608093190108950F931F93E8E6F7E070
:1009E0008491E2EAF7E09491EEE8F7E0E491EE23F7
:1009F00009F43EC0882339F1833091F038F4813016
:100A0000A9F0823001F584B58F7D12C0873091F056
:100A10008830A1F08430B9F4809180008F7D03C0CC
:100A2000809180008F77809380000DC084B58F7790
:100A300084BD09C08091B0008F7703C08091B00061
:100A40008F7D8093B000F0E0EE0FFF1FE95BFD4F5C
:100A5000A591B491EC91E92359F00E94911560930E
:100A6000390770933A0780933B0790933C072BC05C
:100A70008091390790913A07A0913B07B0913C07CC
:100A8000892B8A2B8B2BF9F08091410581111BC09A
:100A90000E9491150091390710913A0720913B0768
:100AA00030913C07601B710B7093380760933707D8
:100AB0001092390710923A0710923B0710923C07A8
:100AC00081E0809341051F910F9108958F929F922D
:100AD000AF92BF92CF92DF92EF92FF926B017C01B7
:100AE0000E946036072E000C880B990B0E94D733AA
:100AF0004B015C019B01AC01C701B6010E940A35A4
:100B000020E030E040E752E40E9436346B017C0183
:100B100020E030E048EC52E4C501B4010E943634D4
:100B20009B01AC01C701B6010E940B3520E030E00B
:100B300048EC52E40E94EE356B017C0120E030E08D
:100B400044E353EC0E94D03387FD0AC020E030E03C
:100B500044E353E4C701B6010E94FC3618161CF4A6
:100B6000C12CD12C760120E836E948E15BE4C701CD
:100B7000B6010E9436340E946036FF90EF90DF90FD
:100B8000CF90BF90AF909F908F900895AF92BF92FB
:100B9000CF92DF92EF92FF920F931F93CF93DF9349
:100BA000B82EA92EF0908502E0908602D0908702A0
:100BB000C090880220E030E0A901D701F6016B2F38
:100BC0007A2F8F2F9E2F0E94D033882361F1C091FE
:100BD0008902D0918A0210918B0200918C0220E050
:100BE00030E0A901F8016C2F7D2F8F2F9E2F0E94DE
:100BF000D0338823C1F0CF92DF92EF92FF920F9310
:100C00001F93DF93CF93AF92BF9287E497E09F93B8
:100C10008F930E94A8108DB79EB70C960FB6F894CC
:100C20009EBF0FBE8DBFDF91CF911F910F91FF909F
:100C3000EF90DF90CF90BF90AF9008957F936F9328
:100C40009F938F9387E497E09F938F930E94A810C0
:100C50000F900F900F900F900F900F9008951F928C
:100C60002F937F936F935F934F939F938F9387E41B
:100C700097E09F938F930E94A8108DB79EB70A9616
:100C80000FB6F8949EBF0FBE8DBF0895AB01BC0197
:100C9000E091A204F091A304389624918BE197E0AF
:100CA0000C942F060F931F93CF93813110F0805136
:100CB000FCCF811101C080E1880FCEE8C80F0C2F56
:100CC0000C2E000C110B613009F049C0E091A20418
:100CD000F091A30465917591859194912091880478
:100CE0003091890440918A0450918B040E943634DB
:100CF0000E9446068091A2049091A304FC013896BC
:100D00002491FC0165917591859194911F922F9387
:100D10002091840430918504409186045091870489
:100D20000E9436349F938F937F936F93C8010196EF
:100D30009F938F931F93CF9381E397E09F938F931C
:100D400087E497E09F938F930E94A8108DB79EB77A
:100D50000E960FB6F8949EBF0FBE8DBF39C062309D
:100D6000F9F4809182048F93809181048F93C8015C
:100D700001969F938F931F93CF9388E297E09F9361
:100D80008F9387E497E09F938F930E94A8108DB76D
:100D90009EB70A960FB6F8949EBF0FBE8DBF18C0BF
:100DA000C80101969F938F931F93CF9383E297E09F
:100DB0009F938F9387E497E09F938F930E94A8104F
:100DC0008DB79EB708960FB6F8949EBF0FBE8DBF25
:100DD000CF911F910F910895AB01BC01E091A20446
:100DE000F091A304399624918EED96E00C942F0691
:100DF000CF92DF92EF92FF921F93CF93DF939B01ED
:100E0000AC01C091A204D091A304FE013496659177
:100E10007591859194910E9436346B017C0120E09C
:100E20003CE34CE156E40E94FC361816F4F4FE0153
:100E30003F96149131966591749180E090E00E9404
:100E4000D5339B01AC01C701B6010E94EE35AB0161
:100E5000BC01212F86EE96E0DF91CF911F91FF908C
:100E6000EF90DF90CF900C942F06C701B601DF9171
:100E7000CF911F91FF90EF90DF90CF900C94EC06F4
:100E80007F936F935F934F939F938F9387E497E044
:100E90009F938F930E94A8108DB79EB708960FB6A8
:100EA000F8949EBF0FBE8DBF08952CE330E0B901CA
:100EB0000E94CF379F938F93CB01B9010E94CF3708
:100EC0009F938F9385ED96E09F938F9387E497E0B0
:100ED0009F938F930E94A8108DB79EB708960FB668
:100EE000F8949EBF0FBE8DBF0895E091A204F091CB
:100EF000A304349665917591859194912091810216
:100F00003091820240918302509184020E943634D3
:100F10000895E091A204F091A304659175918591E3
:100F2000949120913D0530913E0540913F055091AF
:100F300040050E9436340895EF92FF920F931F935D
:100F4000CF93DF937C01E40EF51EEC018B01081BAF
:100F5000190BCE15DF0539F0C8018C0F9D1F0E94BB
:100F6000F4348993F6CFDF91CF911F910F91FF90C9
:100F7000EF9008956091F00480911C01681771F062
:100F8000643060F460931C0180E8689FB001112414
:100F90004CE450E084EA94E00C949C070895FB0133
:100FA0002081822790E1899F900111242827822F98
:100FB00090E0582F44279C0163E0220F331F6A956D
:100FC000E1F742275327218130E02427352774E0B9
:100FD000959587957A95E1F782279327918380836A
:100FE000089520E836E948E15BE40E94EE35089573
:100FF0000F931F93CF93DF93C091F004E091F60419
:10100000E13029F480913707909138074DC08BEF7C
:101010008E0F843040F4F0E0EE0FFF1FE057FB4FDF
:101020008081918141C08091A0049091A104E4301D
:10103000D9F5D09183048AEF8D0F823008F477C000
:1010400080912707D817A9F0D09327070E94DC15B5
:1010500060932307709324078093250790932607B6
:1010600080911B01D81305C0809119018062809383
:1010700019010E94DC15009123071091240720918B
:10108000250730912607DC01CB01801B910BA20BB9
:10109000B30B813D9740A105B10508F448C080918C
:1010A000830480931B0143C02091FB04211118C0CD
:1010B000609138058D3424E0920760F09C012C5437
:1010C000344070E080E293E00E94CF37C9010E9473
:1010D000BB3701C060E06C1751F16093F00427C08A
:1010E000813B944020F10E94DC1500912307109170
:1010F0002407209125073091260706171707280790
:101100003907A8F4809119018062809319010E9427
:10111000DC15DC01CB018C509E4FAF4FBF4F80934D
:10112000230790932407A0932507B0932607809167
:10113000190185FF0EC08F7D809319018091F00405
:101140008F5F8093F00490913805981710F41092F7
:10115000F0048091F004C81761F080911901806457
:10116000809319010E94BA078091190184608093CD
:1011700019018091190186FD04C080911601882310
:1011800039F0809119018F7B80931901109216011B
:10119000DF91CF911F910F910895CF92DF92EF923F
:1011A000FF92BC01990F880B990B0E94D73320E066
:1011B00030E044EB53E40E94EE3520E030E040E8BC
:1011C00051E40E9436346B017C0120E030E0A9013B
:1011D0000E94FC3620E030E040E05FE387FD05C080
:1011E000C701B6010E940B3504C0C701B6010E94B9
:1011F0000A350E946036CB010196FF90EF90DF9098
:10120000CF9008951F920F920FB60F9211248F93D3
:101210009F93EF93FF939091D7078091D6079817EC
:1012200079F0E091D707F0E0EE52F84F808180939B
:10123000C6008091D7078F5F83708093D70705C062
:101240008091C1008F7D8093C100FF91EF919F91AC
:101250008F910F900FBE0F901F9018951F920F92B5
:101260000FB60F9211242F938F939F93EF93FF93B9
:101270009091C6008091D0078F5F8F772091D10722
:10128000821741F0E091D007F0E0E05BF84F9083E7
:101290008093D007FF91EF919F918F912F910F90A5
:1012A0000FBE0F901F901895209199022F5F2093E9
:1012B000990280919A0290E03EE1239F800D911D5A
:1012C000112490937C0480937B0408956C3719F467
:1012D0000E9454090FC080917B0490917C049C0172
:1012E0002F5F3F4F30937C0420937B04FC01E55635
:1012F000FD4F608381E090E00895682F87E497E0D8
:101300000C946609262F2F778F7790E03EE1239F7C
:10131000800D911D112490937C0480937B04642F95
:1013200087E497E00C9466092F923F924F925F9268
:101330006F927F928F929F92AF92BF92CF92DF92E5
:10134000EF92FF920F931F93CF93DF93CDB7DEB74A
:101350002C970FB6F894DEBF0FBECDBF282E362EC9
:1013600080914F078034E9F027EA32E94BE25CE3F1
:1013700060912B0570912C0580912D0590912E0583
:101380000E9436346B017C0125E33AEF4EE85CE3C2
:1013900060912F0570913005809131059091320553
:1013A0001CC027EA32E94BE25CE3609123057091AF
:1013B000240580912505909126050E9436346B0105
:1013C0007C0125E33AEF4EE85CE3609127057091DC
:1013D00028058091290590912A050E9436344B01F9
:1013E0005C0180917D0490917E048A35910538F0EE
:1013F0009C012D543F4F2935310568F4C9018A31CC
:10140000910504F50A9734F128E030E03C872B87FA
:1014100013EF30ED35C08B35910514F0835B9109E6
:1014200097FF03C09195819591098A319105D4F474
:101430000A9704F148E050E05C874B8715EF52EEC5
:1014400059831FC067E070E07C876B8718EF79EDE8
:10145000798317C089E090E09C878B871DEC96EC20
:1014600099830FC0A7E0B0E0BC87AB871BEFBBEE52
:10147000B98307C029E030E03C872B871DEC36ECB0
:101480003983F7FAF094F7F8F09460919004709132
:101490009104072E000C880B990B0E94D733A701EB
:1014A00096010E9436340E94533720E030E040EA33
:1014B00050E40E94363420E030E040E951E40E94DC
:1014C000363420E030E0A9010E94FC36609190049F
:1014D0007091910487FD1FC0072E000C880B990B9B
:1014E0000E94D733A70196010E9436340E945337D9
:1014F00020E030E040EA50E40E94363420E030E062
:1015000040E951E40E94363420E030E040E05FE3FF
:101510000E940B351EC0072E000C880B990B0E94F1
:10152000D733A70196010E9436340E94533720E03A
:1015300030E040EA50E40E94363420E030E040E9F8
:1015400051E40E94363420E030E040E05FE30E9446
:101550000A350E946036635D7F4F9EEBE92EFF24C3
:10156000FA94CB01770FAA0BBB0B8A839B83AC83C6
:10157000BD8316501E8360917D0470917E04072EFA
:10158000000C880B990B0E94D733A50194010E948F
:1015900036340E9453379B01AC01B7010F2C000C6D
:1015A000880B990B2F83388749875A870E94D73336
:1015B0002F81388549855A850E9436342B013C019C
:1015C0006A817B818C819D810E94D7339B01AC0114
:1015D000C301B2010E940B350E9460368B019C0151
:1015E000CB0101978A35910580F562E170E00E9498
:1015F000CF376B014EEE4603C001479F900D11247B
:10160000080F191F0F5F1F4F17FF02C00F5F1F4FFB
:1016100015950795932D9C194981400F64E0690F3A
:10162000822D9F830E9482099F816B857C8506178E
:1016300017075CF074E0C716D10439F04E81400FF3
:1016400063E0690F822D0E9482098CE0E80EF11C94
:1016500023949EE4E916F10409F08DCF2C960FB681
:10166000F894DEBF0FBECDBFDF91CF911F910F91D8
:10167000FF90EF90DF90CF90BF90AF909F908F90B2
:101680007F906F905F904F903F902F90089566E00D
:1016900089E00C9494098F7780939A026F77609316
:1016A000990290E02EE1629F800D911D112490938C
:1016B0007C0480937B0408952F923F924F925F9217
:1016C0006F927F928F929F92AF92BF92CF92DF9252
:1016D000EF92FF920F931F93CF93DF93CDB7DEB7B7
:1016E0002B970FB6F894DEBF0FBECDBF80913607A3
:1016F00025E0829FC0011124FC01E35BF84FF093C9
:101700003507E093340725913491309333072093C4
:101710003207FC01E15BF84FF49080913007909123
:101720003107892B21F580912E0790912F07892B66
:10173000F1F480912C0790912D07892BC1F48091B1
:101740009204909193049093310780933007809195
:1017500094049091950490932F0780932E07809185
:1017600098049091990490932D0780932C07A12CB5
:10177000B12CE12CEF1409F482C0992493949E0CAF
:10178000692D81E00E944B0BC0903207D090330747
:10179000CA0CDB1CF6016591749187E497E00E9406
:1017A000801680911D01E81208C06EE387E497E07F
:1017B0000E94660980909A0205C060E287E497E083
:1017C0000E946609F601329684913196E490833640
:1017D00001F198F4811105C03EE0A30EB11CE92C83
:1017E000C9CF823609F041C0F6013496A591B49173
:1017F0006C9170E080E090E016C0863639F1883652
:10180000A1F580914F07803409F080C266E477E04B
:101810007FC2F6013496A591B4916C91062E000C0E
:10182000770B880B990B0E94D7332B013C016E2D4F
:1018300070E080E090E00E94D5339B01AC01C301D1
:10184000B2010E94EE358B018B870EC0F6013496F3
:10185000A591B4910C9111961C91119712968C91AF
:1018600012978B8713969C919A87F60138968591EB
:101870009491A8016B857A850E944007ADCFE091D5
:101880003407F0913507339685919491009711F0C4
:10189000FC0109950E94DC1540902807509029070B
:1018A00060902A0770902B0746165706680679063F
:1018B00008F033C20E94DC15DC01CB018C509E4F36
:1018C000AF4FBF4F8093280790932907A0932A0713
:1018D000B0932B0780911901846080931901809146
:1018E00094049091950420912E0730912F07AC011C
:1018F000445651092417350710F481E006C08C596D
:101900009F4F82179307D8F48FEF2B960FB6F8945A
:10191000DEBF0FBECDBFDF91CF911F910F91FF9022
:10192000EF90DF90CF90BF90AF909F908F907F907F
:101930006F905F904F903F902F900C94BE048091D9
:1019400098049091990420912C0730912D07AC01B7
:10195000445651092417350760F481E080931D0136
:1019600080913607813019F410923607D6C18F5F07
:1019700010C08C599F4F8217930770F491E0909399
:101980001D0180913607811103C090933607C5C1B0
:10199000815080933607C1C1E0901D0161E06E0D5A
:1019A000882D0E944B0BE0913207F09133071F0105
:1019B0002EE0E29E200C311C112480913007909182
:1019C00031079B838A83A0919204B0919304BD83D5
:1019D000AC835C01AA1ABB0AB7FE03C0B194A19400
:1019E000B108F1013496C590D490F1013A96259151
:1019F00034913F832E83F1013C9685919491998790
:101A00008887F1013296949199833196E4909336C8
:101A100061F0963609F451C0923609F07CC0F601A7
:101A2000608170E080E090E007C0D6016C91062EE6
:101A3000000C770B880B990B0E94D7332B013C01CC
:101A40006E2D70E080E090E00E94D5339B01AC01E8
:101A5000C301B2010E94EE358B018B879A87FDE2AC
:101A6000AF16F1E0BF069CF06E2D70E080E090E0D4
:101A70000E94D5339B01AC0160E070E080E291E40C
:101A80000E94EE352B013C01FF24F39471C027E93D
:101A9000A216B1040CF443C06E2D70E080E090E01B
:101AA0000E94D5339B01AC0160E070E080E89FE3C9
:101AB0000E94EE352B013C0135C0D6010C911196E8
:101AC0001C9111971296BC91BB87F601F381FA879E
:101AD00021E9A21621E0B2060CF042C03DE2A316B5
:101AE00031E0B30614F589ECA816B10434F595E697
:101AF000A916B1040CF4C0C0902E812EAB84BA8418
:101B00003FE6432E32E1532E33E8632E3AE3732E41
:101B100044E0F42E31C0412C512C320118C0412C2C
:101B2000512C3201FF24F39412C07DEC472E7CEC43
:101B3000572E652C7DE3772E08C06AE0462E67EDB0
:101B4000562E63E2662E6CE3762E54E0F52E902E30
:101B5000812EA5E6AA16B1046CF4AB84BA845AC0EF
:101B6000412C512C80E8682E8FE3782E94E0F92EDA
:101B7000902E812EAB84BA84EA81FB812C813D8139
:101B80002E173F0750F4A3019201B8018B859A8567
:101B90000E940A358B018B879A878A819B81AC8151
:101BA000BD818A179B0750F4A3019201B8018B8570
:101BB0009A850E940B358B018B879A87EE81FF8176
:101BC000BF01FF0F880B990B0E94D7332B013C01FB
:101BD0009B01AC01B8018B859A850E94D03387FFA9
:101BE00003C082016B867A8628853985B901330F57
:101BF000880B990B0E94D7332B013C019B01AC0150
:101C0000B8018B859A850E94FC3618161CF4820157
:101C10006B867A86292D382DA501B8018B859A858A
:101C20000E94D033882309F478C039813336A1F07B
:101C3000363679F13236A9F56E2D70E080E090E00D
:101C40000E94D73398014B855A850E9436340E94F2
:101C50006736F601608325C06E2D70E080E090E06D
:101C60000E94D73398014B855A850E9436340E94D2
:101C70006036D6016C9315C098014B855A85B80122
:101C80008B859A850E94D033882309F446C024E0CE
:101C9000F22EC801AB85BA85F60180839183A283B9
:101CA000B3830F2D10E09601215F324079010115B9
:101CB000110561F0D6016D916D01C7010E94FC34E0
:101CC00001501109BFEFEB1AFB0AF1CFF101369673
:101CD00085919491009709F1FC012B960FB6F89429
:101CE000DEBF0FBECDBFDF91CF911F910F91FF904F
:101CF000EF90DF90CF90BF90AF909F908F907F90AC
:101D00006F905F904F903F902F9009946EE377E033
:101D100087E497E00E9480165FCD2B960FB6F8946B
:101D2000DEBF0FBECDBFDF91CF911F910F91FF900E
:101D3000EF90DF90CF90BF90AF909F908F907F906B
:101D40006F905F904F903F902F9008954F925F92C9
:101D50006F927F928F929F92AF92BF92CF92DF92BB
:101D6000EF92FF92CF93DF93692F0E944B0BE0918C
:101D7000A204F091A3043996C49188E00E947D09E1
:101D800060918C0470918D0480918E0490918F04E9
:101D900028EE33E040E050E00E94E337C9010E94A2
:101DA00055072091A2043091A304A9014C5F5F4F15
:101DB000FA016591759185919491F9013896D491C4
:101DC000F90185909590A590B490FA01C590D590B1
:101DD000E590F490FA0145905590659074902091AB
:101DE00088022F93209187022F93209186022F93B0
:101DF000209185022F9320918C022F9320918B02AA
:101E00002F9320918A022F93209189022F931F9262
:101E1000CF9320918D0230918E0240918F0250918C
:101E200090020E9436340E9460367F936F931F9217
:101E3000DF93209191023091920240919302509150
:101E40009402C501B4010E9436340E9460367F932B
:101E50006F931F92CF932091F1043091F20440913F
:101E6000F3045091F404C701B6010E9436340E9475
:101E700060367F936F931F92CF932091950230919C
:101E800096024091970250919802C301B2010E94BC
:101E900036340E9460367F936F938EEE96E09F9368
:101EA0008F9387E497E09F938F930E94A8108DB73C
:101EB0009EB74C960FB6F8949EBF0FBE8DBFDF91B4
:101EC000CF91FF90EF90DF90CF90BF90AF909F9019
:101ED0008F907F906F905F904F90089560E086E0C4
:101EE0000C94181561E086E00C941815CF93DF93DD
:101EF0001F92CDB7DEB769830E949A166981862F3B
:101F00000F90DF91CF910C949A16AF92BF92DF920F
:101F1000EF92FF920F931F93CF93DF93CDB7DEB76E
:101F2000C054D1090FB6F894DEBF0FBECDBF0E94DA
:101F30006E0F64E084E00E94760F0E94720F60E6EC
:101F400077E08BE497E00E948016E12CF12C00E012
:101F500010E08BE497E00E94EE148D3031F008F130
:101F600090ED980F923070F01CC098E0D91218C014
:101F70000F5F1F4FE1E0F0E0EC0FFD1FE00FF11FDE
:101F800010820EC0E1E0F0E0EC0FFD1FE00FF11F4A
:101F90009081990F813309F49F5F9083D39401C09E
:101FA000D12C00341105B1F08FEFE816F10489F25D
:101FB00084F2C05CDF4F0FB6F894DEBF0FBECDBF1A
:101FC000DF91CF911F910F91FF90EF90DF90BF9025
:101FD000AF900895F8940E946E0F60E080E00E9438
:101FE000760F6E2D89E00E94760FFE0131965F011B
:101FF00010E0F50101915F01612F8AE00E94760FE8
:10200000602F8BE00E94760F1F5F163391F760EA16
:1020100088E00E94760F80EA0E949A168FEF0E9455
:102020009A1685FDF8CF6CE080E00E94760F0E9442
:10203000720F7894FFEFEF1AFF0A6CE577E08BE4FC
:1020400097E00E94801600E010E0AECF5E9860E05E
:1020500085E00E94760F60E086E00E94760F61E0E6
:1020600084E00E94760F5E9AEBE9F2E080E25E98EF
:1020700090819EBD81930DB407FEFDCF5E9A94E0E2
:10208000EB37F907A1F75E988FEF0E949A165E9AD8
:102090000895882321F0813019F490E401C090E084
:1020A00080914F07981761F090934F070E946E0F31
:1020B00060914F076C6180E00E94760F0C94720F64
:1020C00008950E946E0F8091800481FD05C080916B
:1020D0007F0483FF0DC008C080EA0E949A168FEF2C
:1020E0000E949A1680FF02C081E003C081FF04C0F5
:1020F00080E00E94491002C082FDE9CF0C94720F6B
:10210000CF93DF930E946E0FE091F704E43008F064
:10211000E0E0F0E0EF52F94FD08180E1C1E0C80F7C
:102120006D2F0E94760F8C2FC032C1F7609135055C
:10213000605E82E00E94760F60913405605F83E00C
:102140000E94760FDF91CF910C94720F0C94801047
:102150002F923F924F925F926F927F928F929F92B7
:10216000AF92BF92CF92DF92EF92FF920F931F93A5
:10217000CF93DF93CDB7DEB72E970FB6F894DEBFBF
:102180000FBECDBFCDA0DEA07E0127E2E20EF11C86
:10219000CE0101964C01F60191E090FD059190FF72
:1021A00001916F01002309F44EC3053241F490FD03
:1021B000059190FF01916F01053281F407C00A304B
:1021C00029F46DE087E497E00E946609602F87E4B8
:1021D00097E00E94660957017501DDCF10E0312CB0
:1021E00020E02032A0F40B3269F030F4003259F0D4
:1021F000033269F420612CC00D3239F0003339F418
:10220000216026C02260246023C0286021C027FDF1
:1022100028C080ED800F8A3078F426FF06C0EAE0FF
:102220001E9F800D1124182F13C0FAE03F9E800DD1
:102230001124382E20620CC00E3221F426FD03C377
:10224000206406C00C3611F4206802C0083649F438
:10225000F60181E080FD059180FF01916F01011180
:10226000C0CF8BEB800F833018F42061005E06C076
:102270008BE9800F833008F060C12F7E26FF16E0C7
:102280002F73722E053619F42064722E08C006369C
:1022900021F4922F9068792E02C01111115077FE0F
:1022A00005C01C3348F431E0310F07C0183038F056
:1022B00030E027E017E005C03CE327E002C0212F13
:1022C00030E05701E4E0AE0EB11CF701608171818E
:1022D00082819381032FA4013E870E9415187C01FF
:1022E00029803E8520FE02C023FE06C071FC06C088
:1022F00072FE06C000E205C00DE203C00BE201C0A1
:1023000000E0822D8C7019F0011167C26BC277FE5C
:102310000DC03E0D24FE04C08A81813309F4315082
:1023200013165CF5393060F138E02AC076FC28C01D
:10233000812F90E08E159F0544F0FCEFEF16FFEF24
:10234000FF061CF0272D2068722E112359F0E2E0C1
:10235000F0E0EC0FFD1FE10FF11D8081803311F4DF
:102360001150F3CF77FE0CC031E0310F812F90E098
:10237000E816F90624F41E1903C031E001C010E08C
:1023800077FE06C01E141F0434F4C701019605C071
:1023900085E090E002C081E090E0011101961123F8
:1023A00031F0412F50E04F5F5F4F840F951F432D59
:1023B00050E08417950714F4381A01C0312C872D8A
:1023C000897059F4332049F060E287E497E03E8752
:1023D0000E9466093A943E85F5CF002339F0602FBC
:1023E00087E497E03E870E9466093E8573FC0BC038
:1023F000332049F060E387E497E03E870E94660956
:102400003A943E85F5CF77FE48C02701F7FE02C01B
:10241000412C512C37018FEF681A780A641875081F
:10242000680C791CF701E31BF109FD87EC87012F8C
:1024300010E0119501951109FFEF4F165F0629F481
:102440006EE287E497E00E946609E414F50444F024
:102450008C859D85841595051CF4F301608101C070
:1024600060E3F1E04F1A51082FEF621A720A40162A
:1024700051062CF087E497E00E946609DDCFE41452
:10248000F50409F055C08A81863328F4853309F0B4
:102490004FC024FC4DC061E34BC06A81613319F029
:1024A000822D8F7E282E87E497E00E946609111105
:1024B00004C074FC17C065E616C06EE287E497E0BE
:1024C0000E9466091E5F82E001E0080FF401E80F38
:1024D000F11D608187E497E00E946609802F101348
:1024E000F3CFE7CF65E487E497E00E946609F7FC45
:1024F00005C0E114F10439F424FE05C0F194E1941F
:10250000F1086DE201C06BE287E497E00E94660982
:1025100060E39AE0E916F1042CF06F5FEAE0EE1A4E
:10252000F108F7CF87E497E00E94660960E36E0D3B
:1025300087E497E00E94660946C1033631F003370D
:1025400079F0033509F058C021C05701F2E0AF0E11
:10255000B11CF7018081898301E010E0740114C08F
:102560005701F2E0AF0EB11CF701E080F18026FFC9
:1025700003C0612F70E002C06FEF7FEFC7012E87AD
:102580000E94C5338C012E852F7715C05701F2E0CC
:10259000AF0EB11CF701E080F18026FF03C0612F70
:1025A00070E002C06FEF7FEFC7012E870E94BA3341
:1025B0008C012E852068722E23FD1AC0832D90E099
:1025C00008171907A8F460E287E497E00E946609FB
:1025D0003A94F4CFF70177FC659177FE61917F0122
:1025E00087E497E00E94660931103A94015011097E
:1025F0000115110579F7E7C0043611F0093659F5D0
:10260000570127FF09C0F4E0AF0EB11CF70160814C
:102610007181828193810AC0F2E0AF0EB11CF70193
:1026200060817181072E000C880B990B2F76722E1A
:1026300097FF09C090958095709561957F4F8F4F5A
:102640009F4F2068722E2AE030E0A4010E94ED180E
:10265000E82EE81848C0053729F42F7E722E2AE0AC
:1026600030E025C0F22FF97F7F2E0F36C1F018F42D
:10267000083579F0E8C0003719F0083721F0E3C0D9
:102680002F2F2061722E74FE0DC0872D8460782E4E
:1026900009C024FF0AC09F2F9660792E06C028E04B
:1026A00030E005C020E130E002C020E132E0570117
:1026B00077FE09C0E4E0AE0EB11CF70160817181C4
:1026C0008281938108C0F2E0AF0EB11CF7016081F6
:1026D000718180E090E0A4010E94ED18E82EE818D6
:1026E000F72DFF777F2E76FE0BC0072D0E7FE116AC
:1026F00050F474FE0AC072FC08C0072D0E7E05C09F
:10270000FE2C072D03C0FE2C01C0F12E04FF0DC0CE
:10271000FE01EE0DF11D8081803311F4097E09C0A8
:1027200002FF06C0F394F39404C0802F867809F06A
:10273000F39403FD11C000FF06C0F31488F43E0CAF
:10274000132D1F190EC0F31460F460E287E497E0C4
:102750000E946609F394F7CFF31418F43F1802C0EF
:102760001E2D312C04FF0DC060E387E497E00E942A
:10277000660902FF14C001FD02C068E70CC068E5ED
:102780000AC0802F867859F001FF02C06BE201C0B9
:1027900060E207FD6DE287E497E00E946609E116BA
:1027A00038F460E387E497E00E9466091150F7CFA0
:1027B000EA94F401EE0DF11D608187E497E00E9438
:1027C0006609E110F5CF332009F406CD60E287E415
:1027D00097E00E9466093A94F6CF24E0231578F535
:1027E00084E004C083E0831560F583E0381A73FC4D
:1027F00008C060E287E497E00E9466093A943110CD
:10280000F8CF002329F0602F87E497E00E94660943
:1028100023FE03C009E717E002C00DE717E0F72D1C
:10282000F0717F2EF8016491662369F27110605295
:1028300087E497E00E9466090F5F1F4FF3CF312CAA
:10284000E2CF312CE5CF2E960FB6F894DEBF0FBE47
:10285000CDBFDF91CF911F910F91FF90EF90DF904F
:10286000CF90BF90AF909F908F907F906F905F9030
:102870004F903F902F900895CF92DF92EF92FF926A
:102880000F931F93CF93DF936C017A018B01C0E00C
:10289000D0E0CE15DF0581F0D8016D918D01D60114
:1028A000ED91FC910190F081E02DC6010995892BF5
:1028B00011F02196EECF7E01C701DF91CF911F91DC
:1028C0000F91FF90EF90DF90CF90089508950895B5
:1028D000CF93FC0180913D0790913E07009729F42A
:1028E00021E030E03383228337C0E0913F07F0914D
:1028F000400720914107322F3095CFB740914207D2
:1029000041116095F8945081442311F0522B01C07D
:1029100053235083DC011197F1F758E0708160FF79
:1029200002C0722B01C073237083DC011197F1F791
:102930006695515099F78081442319F08323808351
:1029400002C0282B2083CFBF80913D0790913E0786
:102950000197F1F781E090E0CF91089580E008952C
:1029600008958091C10084FF18C08091D6078F5FC1
:1029700083709091D7078917E1F3E091D607F0E0D3
:10298000EE52F84F60838093D6078091C100806239
:102990008093C10081E090E0089580E090E0089588
:1029A000E0EDF7E081818083E6EDF7E080818183CF
:1029B00008959091C100892F807194FF0EC090916D
:1029C000D0078091D107981302C080E00895E0916C
:1029D000D107F0E0E05BF84F808108959091C1004D
:1029E000892F807194FF14C09091D0078091D107F6
:1029F000981302C080E00895E091D107F0E0E05B19
:102A0000F84F80819091D1079F5F9F779093D10776
:102A100008959091C100892F807194FF06C0809124
:102A2000D0079091D107891B8F7708950E942A388B
:102A300090E0FC01E156F84F2491FC01E557F84F76
:102A4000E491EE23A1F0F0E0EE0FFF1FEF57F84FF7
:102A5000A591B4919FB7F894611105C08C91E22FB4
:102A6000E095E82302C0EC91E22BEC939FBF089520
:102A7000CF93DF9390E0FC01E156F84F2491FC01E5
:102A8000E557F84F8491882361F190E0880F991FF2
:102A9000FC01E45EF74FC591D491FC01EF57F84F6C
:102AA000A591B491611109C09FB7F89488812095D0
:102AB00082238883EC912E230BC0623061F49FB790
:102AC000F8948881322F309583238883EC912E2BC4
:102AD0002C939FBF06C08FB7F894E8812E2B2883D4
:102AE0008FBFDF91CF9108958E3008F08E502091E6
:102AF000220190E4299F900111248770822B8093FA
:102B00007C0080917A00806480937A0080917A00C2
:102B100086FDFCCF809178002091790090E0922B87
:102B200008953FB7F8948091EE079091EF07A09138
:102B3000F007B091F10726B5A89B05C02F3F19F00B
:102B40000196A11DB11D3FBFBA2FA92F982F88272D
:102B5000820F911DA11DB11DBC01CD0142E0660F88
:102B6000771F881F991F4A95D1F70895CF92DF925A
:102B7000EF92FF92CF93DF936B017C010E9491153E
:102B8000EB01C114D104E104F10479F00E94911524
:102B90006C1B7D0B683E7340A0F381E0C81AD1081E
:102BA000E108F108C851DC4FECCFDF91CF91FF90E5
:102BB000EF90DF90CF9008952FB7F8946091EA07D7
:102BC0007091EB078091EC079091ED072FBF08956E
:102BD0001F920F920FB60F9211242F933F938F9352
:102BE0009F93AF93BF938091EA079091EB07A091D9
:102BF000EC07B091ED073091E90723E0230F2D3763
:102C000020F40196A11DB11D05C026E8230F0296F0
:102C1000A11DB11D2093E9078093EA079093EB076C
:102C2000A093EC07B093ED078091EE079091EF072A
:102C3000A091F007B091F1070196A11DB11D8093FD
:102C4000EE079093EF07A093F007B093F107BF91C1
:102C5000AF919F918F913F912F910F900FBE0F9049
:102C60001F9018951F920F920FB60F9211242F9359
:102C70003F934F935F936F937F938F939F93AF9304
:102C8000BF93EF93FF93E0912001F091210109950B
:102C9000FF91EF91BF91AF919F918F917F916F9134
:102CA0005F914F913F912F910F900FBE0F901F900A
:102CB00018951F920F920FB60F9211242F933F93E6
:102CC0004F935F936F937F938F939F93AF93BF9334
:102CD000EF93FF93E0911E01F0911F010995FF9181
:102CE000EF91BF91AF919F918F917F916F915F9184
:102CF0004F913F912F910F900FBE0F901F901895FD
:102D00000F931F93CF93DF938C01FB016491EF012D
:102D10002196662351F0D801ED91FC910190F0814C
:102D2000E02DC8010995FE01F1CFDF91CF911F91F0
:102D30000F9108958EBD0DB407FEFDCF8EB5089599
:102D4000E091E80721E02E0F2093E807E770F0E01C
:102D5000EE0FFF1FE852F84F91838083E8EDF7E014
:102D600060E070E081919191680F791F87E0E83E03
:102D7000F807C1F780E090E00E94D53320E030E012
:102D800040E05EE30E94363408950F931F93CF9383
:102D9000DF930FB6F894A8958091600088618093C6
:102DA0006000109260000FBE61E086E00E9438155E
:102DB00062E083E00E94381583E0809322018091D5
:102DC0007A008B7F80937A0080917A00866080936E
:102DD0007A008BEB94E090931F0180931E01809109
:102DE00069008C7F826080936900E89A8CEE94E0A1
:102DF000909321018093200180916900837F8460FA
:102E000080936900E99A8091C10084FF05C0809198
:102E1000C10087748093C1001092D7071092D60723
:102E20001092D1071092D0071092C0001092C500E6
:102E300080E18093C4008091C10088698093C100C3
:102E40000E94720F85E080939A02809399028BE929
:102E500090E090937C0480937B046EEF77E087E4AE
:102E600097E00E94801642E050E060E072E08FE759
:102E700094E00E949C0748E450E064E072E085EF33
:102E800094E00E949C0780917F0481FF03C086EC40
:102E900097E002C083EB97E09093A3048093A20491
:102EA00080910B058F3421F490910C059A3129F112
:102EB00091E090939A02909399022FE130E0309341
:102EC0007C0420937B041F929FE49F931F928F9317
:102ED00081EE97E09F938F9387E497E09F938F9382
:102EE0000E94A8108DB79EB708960FB6F8949EBFA3
:102EF0000FBE8DBF00E117E202C000ED17E0809128
:102F00000D05883341F480910E05813321F48091C1
:102F10000F058533D1F088E380930D0581E380931D
:102F20000E0585E380930F0568E38CE192E00E9433
:102F3000FC3460910E058DE192E00E94FC346091BA
:102F40000F058EE192E00E94FC34809136058823C3
:102F5000B9F0E0913705EE2399F0F0E0EE0FFF1F96
:102F6000E952F84F8591949180938002882341F033
:102F700061E00E94381560E0809180020E9418157F
:102F80001092F0040E94BA0761E086E00E943815B2
:102F900062E082E00E9438150E9461100E946E0F6C
:102FA0008CEE0E949A168FEF0E949A16D82FC0912D
:102FB0004F076C2F626080E00E94760F66E970E038
:102FC00080E090E00E94B6156D2F6F7E8CE60E9427
:102FD000760F62E18CE00E94760F6C2F6C6380E0CC
:102FE0000E94760F66E970E080E090E00E94B615DE
:102FF0006C2F6C6180E00E94760F0E94801066E961
:1030000070E080E090E00E94B6150E942610B801A2
:10301000110F880B990B0E94B6158BE497E0DF9196
:10302000CF911F910F910C94D014283008F027E015
:103030003327DA01990F311D87FD916000966105F4
:10304000710539F432602E5F3D9330E32A95E1F744
:1030500008959F3F30F080387105610509F03C5FAD
:103060003C5F3D93913008F08068911DDF93CF93D2
:103070001F930F93FF92EF92192F987F9695E92F48
:1030800096959695E90FFF27E058F74F9927332734
:10309000EE24FF24A701E70105900894079428F483
:1030A000360FE71EF81E491F511D660F771F881F38
:1030B000991F0694A1F70590079428F4E70EF81ECF
:1030C000491F561FC11D770F881F991F661F069441
:1030D000A1F70590079428F4F80E491F561FC71F43
:1030E000D11D880F991F661F771F0694A1F70590C1
:1030F000079420F4490F561FC71FD81F990F661F4A
:10310000771F881F0694A9F784911095177041F0D6
:10311000D695C79557954795F794E7941A95C1F7B3
:10312000E6E2F8E0689415901591359165919591D6
:1031300005907FE27395E118F10A430B560BC90B1A
:10314000D009C0F7E10CF11E431F561FC91FD01D47
:103150007EF4703311F48A95E6CFE894015030F094
:10316000080F0AF40027021708F4202F2395022FD6
:103170007A3328F079E37D932A95E9F710C07D939F
:103180002A9589F60694979567953795179517941C
:10319000E118F10A430B560BC90BD00998F023959F
:1031A0007E9173957A3308F070E37C932013B8F71F
:1031B0007E9170617D9330F0839571E37D9370E330
:1031C0002A95E1F71124EF90FF900F911F91CF9175
:1031D000DF91992787FD90950895FA01AA27283055
:1031E00051F1203181F1E8946F936E7F6E5F7F4FD4
:1031F0008F4F9F4FAF4FB1E03ED0B4E03CD0670F50
:10320000781F891F9A1FA11D680F791F8A1F911DA2
:10321000A11D6A0F711D811D911DA11D20D009F4F2
:1032200068943F912AE0269F11243019305D319334
:10323000DEF6CF010895462F4770405D4193B3E01D
:103240000FD0C9F7F6CF462F4F70405D4A3318F0C4
:10325000495D31FD4052419302D0A9F7EACFB4E075
:10326000A6959795879577956795BA95C9F700972D
:103270006105710508959B01AC010A2E06945795CE
:10328000479537952795BA95C9F7620F731F841F25
:10329000951FA01D0895CF92DF92EF92FF920F939A
:1032A0001F93E82FF92F05C0015011092109310999
:1032B00061F1908196239417B9F305C0015011096B
:1032C0002109310911F1908196239413F7CFC12C74
:1032D000D12CE12CF12C0AC08FEFC81AD80AE80AC9
:1032E000F80A0C151D052E053F0579F0808186230F
:1032F000841791F36C2D7D2D8E2D9F2D1F910F9195
:10330000FF90EF90DF90CF90089560E070E080E054
:1033100090E01F910F91FF90EF90DF90CF90089574
:10332000CF93DF93CDB7DEB7AD970FB6F894DEBF7E
:103330000FBECDBF789484B5826084BD84B58160B2
:1033400084BD85B5826085BD85B5816085BD809170
:103350006E00816080936E0080917A00846080931B
:103360007A0080917A00826080937A0080917A005E
:10337000816080937A0080917A00806880937A00DF
:103380001092C1000E94C5160E94DC15A8950091FC
:103390001F0710912007209121073091220706175F
:1033A00017072807390708F0C6C2DC01CB0144968D
:1033B000A11DB11D80931F0790932007A0932107A3
:1033C000B093220780918002882369F1E09136054D
:1033D000F0E0EE0FFF1FE656FB4F2081318190E0B9
:1033E000FC01E156F84F4491FC01E557F84FE49198
:1033F000F0E0EE0FFF1FEF57F84FA591B491F8944E
:103400008C91842B8C932230310540F0C901880FB8
:10341000991F880F991F05970197F1F7EC91409537
:103420004E234C93789480911E078F5F863018F45A
:1034300080931E07D1C110921E0780917F0484FFE4
:10344000ABC01091750581E0810F8093750580E117
:103450000E9474151770E12FF0E0EE0FFF1FEB597B
:10346000FA4F91838083E5E6F5E060E070E08191BA
:103470009191680F791F25E0E537F207C1F780E0E9
:1034800090E00E94D53320911305309114054091AE
:103490001505509116050E94363420E030EC4FE7B8
:1034A00054E40E94EE3520E030E040E05EE30E940C
:1034B000363420E030E04AE754E40E94363424E118
:1034C0003EEA43EA50E40E94363421EE3AE744E90A
:1034D0005EE30E94EE350E9467362091040730912A
:1034E00005072115310559F0A901440F551F240F77
:1034F000351F620F731F7695679576956795709364
:103500000507609304078091190184608093190175
:10351000609104077091050780E090E00E94D53328
:1035200020E030E04AE754E40E94EE356B017C0174
:103530008091FA046EE10E94A137682F70E080E06C
:1035400090E00E94D7339B01AC01C701B6010E94F5
:10355000EE3523E333E343E550E40E940A3524E6E5
:1035600036E646E65FE30E94EE3520E030E04FE7C6
:1035700053E40E9436340E94603677FF03C01092F5
:103580001B070AC06F3F710529F024F08FEF80936D
:103590001B0702C060931B0780917F0485FF67C0F3
:1035A0001091640581E0810F809364058EE00E9494
:1035B00074151770E12FF0E0EE0FFF1FEC5AFA4F71
:1035C00091838083E4E5F5E060E070E08191919182
:1035D000680F791F35E0E436F307C1F780E090E02B
:1035E0000E94D53320911705309118054091190597
:1035F00050911A050E94363420E030EC4FE754E435
:103600000E94EE3520E030E040E05EE30E94363478
:1036100020E030E04AE754E40E9436342FE135E8F8
:1036200043EA50E40E94363426ED3FE845E95EE384
:103630000E94EE350E9467362091BC063091BD068F
:103640002115310559F0A901440F551F240F351FCD
:10365000620F731F76956795769567957093BD0693
:103660006093BC0680911901846080931901809158
:103670007F0486FF56C01091530581E0810F80932F
:1036800053058FE00E9474151770E12FF0E0EE0FE4
:10369000FF1FED5BFA4F91838083E3E4F5E083E560
:1036A00095E060E070E021913191620F731F8E17F9
:1036B0009F07C9F780E090E00E94D53320911B0559
:1036C00030911C0540911D0550911E050E94363415
:1036D00020E030EC4FE754E40E94EE3520E030E08B
:1036E00040EA52E40E94EE3520E030E04AE754E43C
:1036F0000E94363420E030E040E251E40E94EE3592
:1037000020E030E040EA51E40E9436340E94603606
:103710007093FB066093FA06809119018460809390
:1037200019018091FF048695813061F008F449C049
:10373000823061F0843009F04FC08091A0049091F4
:10374000A10442C081E10E94741523C0E0EBF7E0C0
:103750006491ECE9F7E0E491F0E0EE0FFF1FE95B24
:10376000FD4F8591949100E21EE420E030E0462F69
:103770000E944B19611571058105910539F0DC0135
:10378000CB010196A11DB11DBF7003C080E090E088
:10379000DC010E94A01620911F0530912005409168
:1037A0002105509122050E9436340E94673670939D
:1037B000AB066093AA068091190184608093190179
:1037C0000BC08091840590E00E94A0160E9467368D
:1037D0007093AB066093AA0680911D078F5F8A31B4
:1037E00018F480931D07A7C010921D07809119013E
:1037F00084608093190190911A0194FB332730F96A
:1038000021E0232720FB94F990931A01222309F445
:1038100092C090911C079F5F90931C0780688093D3
:1038200019016091890270918A0280918B029091B6
:103830008C020E94660560930501709306018093D7
:103840000701909308016091850270918602809132
:103850008702909188020E9466056093010170932F
:10386000020180930301909304016091CA06709154
:10387000CB068091CC069091CD060E94D73320E0F4
:1038800030E048EC52E40E94EE350E946036CB01F5
:10389000770FAA0BBB0B8093090190930A01A093A9
:1038A0000B01B0930C0128E43DE34FE95CE3609128
:1038B0003D0570913E0580913F05909140050E9425
:1038C000363420E030E048EC52E40E9436340E9466
:1038D000603670930E0160930D0180910407909102
:1038E000050790931201809311018091FC0690913D
:1038F000FD069093100180930F011092130180E058
:10390000E82E81E0F82E8701F70161917F0183E4C1
:1039100097E00E946814F801608180911301680F9C
:1039200060931301F3E1EF16F1E0FF0661F783E422
:1039300097E00E9468148091190184FD06C080916F
:103940001A0185FD97C384FF95C3B9E0EB2EF12CD6
:1039500018E0C12ED12C07E0A02EB12C5524539491
:10396000E5E02E2E312CF3E06F2E712CA4E08A2E90
:10397000912C8BE497E00E940915882309F4E4C791
:103980008BE497E00E94EE14182F8091190184FDBA
:1039900018C00E94DC15683B7B408105910588F4C6
:1039A0001A3021F01D3011F00C941E3380919506D1
:1039B0008F5F8093950680919506843010F00E9469
:1039C000850F10927605E0917905F0917A05EA303D
:1039D000F10508F0F0C0EC5CFF4F0C942438109215
:1039E0008105109280051E3F11F00C94623382E035
:1039F00090E090937A058093790510928805109352
:103A00008705EFEFFFEFF0938605E0938505D3C0C0
:103A1000163688F0809177058F5F809377058091C7
:103A200078058F5F8093780521E030E030937A0548
:103A300020937905C0C01093880510927B0565E836
:103A400075E0812F0E94CF0790927A0580927905C8
:103A5000B2C01093890565E875E0812F0E94CF07F9
:103A600070927A0560927905A6C010938A0565E880
:103A700075E0812F0E94CF0730927A052092790558
:103A80009AC010938B0565E875E0812F0E94CF07DF
:103A900086E090E090937A05809379058CC010932E
:103AA0008C0565E875E0812F0E94CF07809188051D
:103AB000811105C0D0927A05C09279057CC0B09280
:103AC0007A05A092790577C0E0917B054424439460
:103AD0004E0E40927B05F0E0E357FA4F108365E805
:103AE00075E0812F0E94CF078091880548120C94C1
:103AF0006233E0CFE0918C05F0E0ED5BFE4F65E8CE
:103B000075E080810E94CF07412F50E080918505AC
:103B100090918605992748175907F1F0809178050B
:103B20008F5F80937805E1E0F0E0F0937A05E09311
:103B300079051E3F11F00C94623322E030E030939F
:103B40007A0520937905109288058FEF9FEF909367
:103B50008605809385052FC0F0927A05E09279055D
:103B6000E0917B05F0E0E357FA4F24C0812F90E00D
:103B7000E0918605E8A719A628A539A5821793071D
:103B800061F0809178058F5F8093780581E090E007
:103B900090937A0580937905CCCF50927605E1E039
:103BA000F0E0F0937A05E0937905E0917B05F0E091
:103BB000E257FA4F108320917605213099F48091D5
:103BC000890580937C0580917E0590917F05009703
:103BD00021F41092810510928005019690937F0543
:103BE00080937E0580917C058F5F8F8380917E0519
:103BF00090917F059A8789878091780590E09C87CE
:103C00008B87809177058A8310927805222309F4A7
:103C100026C20E94DC1560930E0770930F078093F5
:103C2000100790931107809119018C608061809337
:103C3000190180918C05813209F4F1C1D0F58831E8
:103C400009F498C038F4882309F467C0813009F476
:103C500076C005C28D3109F4D9C18E3109F0FFC19A
:103C600021EE3EE245E652E460919505709196059D
:103C700080919705909198050E9436340E94603695
:103C8000709391046093900421EE3EE245E652E485
:103C900060919105709192058091930590919405A2
:103CA0000E9436340E94603670937E0460937D04D7
:103CB000D6C18E3309F4FCC058F4833209F461C1D3
:103CC0008A3209F0CCC180918D0580930C07C7C161
:103CD0008A3409F4A0C0883A09F0C1C160918D0509
:103CE00070918E0580918F05909190050E946036AD
:103CF0007093D5066093D4068091910590919205BA
:103D0000A0919305B09194058093880490938904C1
:103D1000A0938A04B0938B04A2C180918D058093F7
:103D200083048091930590E0880F892F881F990B59
:103D300090911A0180FB90F990931A0190C18091A3
:103D40007F0484FD0CC020919B0530919C0530932D
:103D50000507209304079091AB0590931B0786FD00
:103D60007EC180919D0590919E059093FB06809366
:103D7000FA0675C180919D0590919E05A0919F05C1
:103D8000B091A0058093CA069093CB06A093CC0671
:103D9000B093CD0660919505709196058091970539
:103DA000909198050E94D7330E94F1076093890291
:103DB00070938A0280938B0290938C026091990594
:103DC00070919A0580919B0590919C050E94D73334
:103DD0000E94F107609385027093860280938702A8
:103DE000909388028091A90580930A078091AA0583
:103DF0008093BE068091A7059091A8059093C60672
:103E00008093C5068091A1059091A2059093C0066C
:103E10008093BF0624C180918D0590918E05A0915D
:103E20008F05B09190058093060790930707A093A4
:103E30000807B09309078091910590919205A09190
:103E40009305B091940580933D0590933E05A09312
:103E50003F05B093400580919D0590919E059093FC
:103E6000D3068093D20680919F0580931607809198
:103E7000950590919605A0919705B091980580932E
:103E8000CE069093CF06A093D006B093D106809132
:103E9000990590919A05A0919B05B0919C058093FE
:103EA000EE069093EF06A093F006B093F106D7C00C
:103EB0008091A3059091A4059093E1068093E0067C
:103EC0008091A5059091A6059093C9068093C80698
:103ED00080918D0590918E05A0918F05B0919005F0
:103EE0008093D6069093D706A093D806B093D906B0
:103EF0008091910590919205A0919305B0919405C0
:103F00008093DA069093DB06A093DC06B093DD067F
:103F10008091A1059091A2059093DF068093DE0623
:103F20008091950590919605A0919705B09198057F
:103F30008093810290938202A0938302B0938402C3
:103F40008091990590919A05A0919B05B0919C054F
:103F50008093E6069093E706A093E806B093E906FF
:103F600080919D0590919E05A0919F05B091A0051F
:103F70008093E2069093E306A093E406B093E506EF
:103F80006EC08091910590919205909393048093D7
:103F90009204809193059091940590939504809359
:103FA0009404809195059091960590939704809341
:103FB0009604809197059091980590939904809329
:103FC00098048091990590919A0590939B04809311
:103FD0009A0480919B0590919C0590939D048093F9
:103FE0009C0480919D0590919E0590939F048093E1
:103FF0009E0480919F059091A0059093A1048093C9
:10400000A0048091A2058093840529C08091990520
:1040100090919A059093FD068093FC0620C06091D4
:104020009D0570919E0580919F059091A0050E942D
:10403000D7339B01AC016091CE067091CF06809181
:10404000D0069091D1060E940A350E946036609396
:104050009E0670939F068093A0069093A1068BE422
:1040600097E00E940915811184CC83EA92E00197C0
:10407000F1F774CCBB24B39437E0832E06E045E01F
:10408000A42E53E0952E63EAE62E62E0F62E92E02F
:10409000D92E24EBC22E8BE497E00E9409158823C9
:1040A00009F452C48BE497E00E94EE14182F80911B
:1040B0001A0185FD18C00E94DC156838734181051E
:1040C000910588F41A3021F01D3011F00C94223340
:1040D000809195068F5F8093950680919506833039
:1040E00011F40E94850FE09183058E2F90E08830B7
:1040F000910508F01FC4FC01E25CFF4F0C942438CA
:104100001C3309F017C4B0928305C0928F0612C405
:10411000E0918F06E127F0E0EF5AFD4F8081809318
:104120008F06812F887F803229F4D09283051093E7
:1041300085050FC110928305FDC3E0918F06E1272D
:10414000F0E0EF5AFD4F808180938F0680918205C9
:104150008F5F80938205212F30E0823028F43093E6
:10416000870520938605E6C3322F22278091860596
:1041700090918705280F391F309387052093860576
:104180002F3F310509F0B0F690928305E2C0E0912F
:104190008F06E127F0E0EF5AFD4F808180938F0674
:1041A000809182058F5F80938205823071F140F4A7
:1041B000813009F0BFC3812F90E0A0E0B0E039C0AA
:1041C000833009F43FC0843009F0B4C3412F50E07C
:1041D00060E070E0742F66275527442740908805DB
:1041E0005090890560908A0570908B05440D551D8F
:1041F000661D771D409388055093890560938A0555
:1042000070938B0580938305A4C0812F90E0A0E07C
:10421000B0E04427582F692F7A2F8091880590911C
:104220008905A0918A05B0918B05840F951FA61F63
:10423000B71F8093880590938905A0938A05B09352
:104240008B0578C3812F90E0A0E0B0E0BC0155273A
:104250004427E3CFE0918F06E127F0E0EF5AFD4FCE
:10426000808180938F06809182058F5F8093820585
:10427000813019F0823041F05DC3212F30E030935E
:104280008D0520938C0556C3212F30E0322F222735
:1042900080918C0590918D05280F391F30938D05E5
:1042A00020938C058091860590918705892B09F4D0
:1042B0004EC08091850587FF2CC0A092830549C020
:1042C000E0918F06E127F0E0EF5AFD4F8081809367
:1042D0008F06809182058F5F80938205813091F0F7
:1042E000823009F027C3212F30E0322F222780911E
:1042F0008E0590918F05280F391F30938F052093DD
:104300008E0507C0212F30E030938F0520938E0556
:1043100011C3009383051DC0E0918F06E127F0E0F3
:10432000EF5AFD4F808180938F06809182058F5FC9
:104330008093820590E0FC01EB57FA4F12872091A1
:104340008605309187058217930708F4F3C280929F
:10435000830510928205EEC21092830580918F062C
:104360001813E8C280918605882309F4E3C280917E
:10437000190184608093190180911A0180628093F1
:104380001A010E94DC1560930E0770930F0780934B
:104390001007909311078091880590918905A0914D
:1043A0008A05B0918B05863E26EA920726E2A2078F
:1043B0002DE7B20709F4E1C108F070C0823D42EC7C
:1043C000940742E8A4074EE1B40709F42AC198F51E
:1043D0008430FAE99F07F7EDAF07FEE0BF0709F465
:1043E0000FC180F486313AEA930737E3A3073BE035
:1043F000B30709F405C184359447A54CBB4009F4C3
:104400001DC298C28E3CE8E49E07E7E5AE07EAE1EC
:10441000BE0709F4B2C18437FBEE9F07FAE7AF0786
:10442000FBE1BF0709F4ECC088399C42AA41B641C0
:1044300009F4F7C07FC2863E35ED93073AEDA30736
:1044400033E3B30709F4A2C080F48C39E1EB9E0793
:10445000E5EAAE07EEE1BE0709F451C282359342A8
:10446000A649B64209F4FCC165C2863A2EE092071D
:1044700022E1A20728E4B20709F423C2823E35E50F
:1044800093073CE9A30736E6B30709F433C28A3938
:104490009F45AD48B34409F437C24CC28032EEE4C4
:1044A0009E07E9EAAE07E1EBBE0709F423C298F5DF
:1044B00082352AEE920720E8A2072AE8B20709F41B
:1044C0009FC080F480384CED940745E4A40742E88F
:1044D000B40709F4B3C1843E9C42A540B64809F430
:1044E0008FC028C28E37F2E19F07FAE6AF07FBE9DB
:1044F000BF0709F485C08A3726EF920721EFA2078C
:104500002DE9B20709F439C18A369E42A246B9495B
:1045100009F010C2D6C184354DE294074FEFA407CD
:1045200045ECB40709F46CC0C8F48A3BF4E89F0773
:10453000F5E2AF07FEEBBF0709F4DCC1803824E7E2
:10454000920720E1A20724ECB20709F4BEC08A3822
:10455000974FA74CB84B09F0EDC163C0843649EDC5
:10456000940740EEA40747EDB40781F0863BE3E2F1
:104570009E07E3EAAE07E2EEBE0709F4FEC0863905
:104580009543A840B24D09F46BC1D4C16091A00518
:104590007091A1058091A2059091A3050E946036BB
:1045A00070937E0460937D046091A4057091A505CD
:1045B0008091A6059091A7050E94603670939104A2
:1045C0006093900420E030E0A9016091890270912D
:1045D0008A0280918B0290918C020E94D0338111CB
:1045E000A9C16091A8057091A9058091AA05909133
:1045F000AB050E9460367093D3066093D2069AC1D1
:1046000091E080919005811101C090E080911A01A4
:1046100090FB80F980931A01809191058093830427
:1046200089C120E030E048EC52E46091900570913F
:10463000910580919205909193050E9436340E94D5
:104640006036693C18F46093160702C01092160792
:104650008091AA059091AB0590939704809396045E
:104660008091AC059091AD05909393048093920452
:104670008091AE059091AF0590939504809394043A
:104680008091B0059091B10590939904809398041E
:104690008091B2059091B30590939B0480939A0406
:1046A0008091B4059091B50590939D0480939C04EE
:1046B0008091B6059091B70590939F0480939E04D6
:1046C0008091B8059091B90553C020E030E048ECE6
:1046D00052E46091900570919105809192059091BE
:1046E00093050E9436340E946036693C18F460934A
:1046F000160702C0109216078091A8059091A9058F
:1047000090939704809396048091AA059091AB05AD
:1047100090939304809392048091AC059091AD05A1
:1047200090939504809394048091AE059091AF0589
:1047300090939904809398048091B0059091B1056D
:1047400090939B0480939A048091B2059091B30555
:1047500090939D0480939C048091B4059091B5053D
:1047600090939F0480939E048091B6059091B70525
:104770009093A1048093A004DDC060919005709196
:10478000910580919205909193050E94D7330E94E4
:10479000F1076093890270938A0280938B02909351
:1047A0008C02609194057091950580919605909189
:1047B00097050E94D7330E94F1076093850270939A
:1047C000860280938702909388028091B50580933A
:1047D000BE068091B40580930A076091A005709190
:1047E000A1058091A2059091A3050E946036709367
:1047F000D3066093D20660919805709199058091D7
:104800009A0590919B050E9460366093CA0670934A
:10481000CB068093CC069093CD068091A405909111
:10482000A505A091A605B091A70580933D0590939D
:104830003E05A0933F05B09340057CC0809198054C
:1048400090919905A0919A05B0919B05B0588093DD
:10485000EE069093EF06A093F006B093F1066AC0BF
:1048600060919005709191058091920590919305CA
:104870000E946736709305076093040720E030E0DC
:1048800048EC52E4609194057091950580919605ED
:10489000909197050E9436340E9460367093FB0613
:1048A0006093FA066091A8057091A9058091AA0508
:1048B0009091AB050E9460367093EB066093EA0618
:1048C00039C0609190057091910580919205909109
:1048D00093050E946036072E000C880B990B0E94EE
:1048E000D7336093CE067093CF068093D006909313
:1048F000D10620C08091F005809384051BC0809173
:10490000900580930C0716C08091A405882391F030
:1049100060919C0570919D05072E000C880B990BEA
:104920000E94D733609306077093070780930807A8
:10493000909309078BE497E00E9409158111ABCB96
:10494000C7010197F1F7A3CB0E94F80780911901E5
:1049500082FD02C00C9405338B7F80931901109166
:104960001B07812F90E08138910540F029E82093C2
:10497000170180589109E8E1F1E012C02DE8209379
:1049800018018231910550F480911A0184FF0CC006
:1049900080E280931701809318011BC0E7E1F1E0EA
:1049A0008B31910528F402C0E7E1F1E08DE810C0F9
:1049B0008433910510F48CE80BC08E34910510F40B
:1049C0008BE806C08836910510F48AE801C089E8B2
:1049D00080838091F504882321F0813009F443C05D
:1049E0005CC080911607843078F08091140190911A
:1049F000150180379E4F41F48091D2069091D306E5
:104A0000909315018093140160919E0670919F060A
:104A10008091A0069091A1060E94D73320E030E05B
:104A20004AE754E40E94EE359B01AC016091CE064A
:104A30007091CF068091D0069091D1060E940A35E0
:104A400060931707709318078093190790931A07BC
:104A500080910D07811121C080910A07833009F0F0
:104A6000CFC00C94263380911A01982F917080FF4B
:104A700003C081FF10920D0780911A0190FB81F90C
:104A800080931A0180910D07811107C080910A0758
:104A9000823010F00C942633B3C080910D07813022
:104AA00009F0AEC080909A0690909B06A0909C065C
:104AB000B0909D0620E030E0A901C501B4010E943C
:104AC000FC3625E33AEF4EE85CE3181614F00C943C
:104AD0004B33C501B4010E9436340E94E9356B01A5
:104AE0007C012091890230918A0240918B02509181
:104AF0008C02C501B4010E940A3520EC3BE649ED69
:104B000057E40E9436344B015C01209185023091BC
:104B100086024091870250918802609196067091BA
:104B2000970680919806909199060E940A3520EC8C
:104B30003BE649ED57E40E943634A70196010E94F6
:104B400036346B017C01A5019401C501B4010E94BA
:104B500036342B013C01A7019601C701B6010E9422
:104B600036349B01AC01C301B2010E940B350E9497
:104B70000F370E946036609312077093130780937B
:104B8000140790931507C501B4019F770E94603602
:104B90007093BB066093BA06C701B6019F770E9467
:104BA00060367093B9066093B806A7019601505815
:104BB000C501B4010E948A3520EE3EE245E652E48A
:104BC0000E94363420E030E044EB52E40E940B3582
:104BD0000E9460369B0177FF02C028593E4FC901F1
:104BE000845B91092091D2063091D306821B930BEE
:104BF00097FF02C088599E4F0E94CD088093C70638
:104C0000E091A204F091A304349665917591859189
:104C100094912091EE063091EF064091F00650916C
:104C2000F1060E94363420E030E040E752E40E9472
:104C300036342DEC3CEC4CEC5DE30E9436346B01D9
:104C40007C0126E636E646E65FE36091FE0670915B
:104C5000FF0680910007909101070E9436349B0166
:104C6000AC01C701B6010E940B356093FE0670933C
:104C7000FF0680930007909301078091EC06082EB1
:104C8000000C990B212F30E08217930714F4109336
:104C9000EC060E94DC150091AC061091AD06209147
:104CA000AE063091AF066B017C01C01AD10AE20A50
:104CB000F30A0E94DC156093AC067093AD068093F6
:104CC000AE069093AF0610911A0113FD1FC020E0AD
:104CD00030E040EA50E46091170770911807809126
:104CE000190790911A070E94FC3618167CF48091DF
:104CF00016078B3058F0186010931A011092F104C7
:104D00001092F2041092F3041092F40480903D0586
:104D100090903E05A0903F05B090400520E030E027
:104D200040E85FE3C501B4010E94FC36181614F593
:104D3000C701B6010E94D533A50194010E94363403
:104D400020E030E04AE754E40E94EE359B01AC01DC
:104D50006091F1047091F2048091F3049091F40455
:104D60000E940B356093F1047093F2048093F30476
:104D70009093F4046091FA067091FB06072E000CE4
:104D8000880B990B0E94D73320E030E040E251E4D9
:104D90000E9436342B013C01C701B6010E94D53375
:104DA0009B01AC01C301B2010E94363420E03AEB12
:104DB0004BE55AE40E94EE359B01AC016091C106BF
:104DC0007091C2068091C3069091C4060E940B3573
:104DD0006093C1067093C2068093C3069093C40685
:104DE0009091AA068091AB062091FF0420FD64C03B
:104DF0002090390530903A0500913B0510913C0513
:104E00000215130540F42091FE041801022F10E052
:104E100031E03FA301C01FA2692F782F62157305EF
:104E200008F4B1010617170708F4B80180E090E014
:104E30000E94D5332B013C01B10180E090E00E943B
:104E4000D5339B01AC01C301B2010E940A352B018D
:104E50003C01B8016219730980E090E00E94D533EB
:104E60009B01AC01C301B2010E94EE3520E030E0AD
:104E700048EC52E40E9436340E9460366536710573
:104E800028F4709303076093020706C084E690E05D
:104E900090930307809302074FA1442389F0209148
:104EA00002073091030784E690E0821B930B9093F6
:104EB00003078093020704C09093020780930307BF
:104EC0009091F50480911A01911102C083FD02C0F6
:104ED00080FFA4C080918C0490918D04A0918E04D9
:104EE000B0918F04C80ED91EEA1EFB1EC0928C041E
:104EF000D0928D04E0928E04F0928F04609112079C
:104F00007091130780911407909115070E94D73371
:104F10006B017C012091950230919602409197029D
:104F2000509198020E94FC36181644F4C0929502E3
:104F3000D0929602E0929702F0929802C0900607F3
:104F4000D0900707E0900807F09009072091A60687
:104F50003091A7064091A8065091A906C701B60155
:104F60000E94FC36181644F4C092A606D092A706FA
:104F7000E092A806F092A906209191023091920247
:104F80004091930250919402C501B4010E94FC36F5
:104F9000181644F48092910290929202A092930289
:104FA000B0929402C090CE06D090CF06E090D0068A
:104FB000F090D10620918D0230918E0240918F02A7
:104FC00050919002C701B6010E94FC36181644F4B5
:104FD000C0928D02D0928E02E0928F02F0929002E7
:104FE000C0908804D0908904E0908A04F0908B04EB
:104FF0002091A2063091A3064091A4065091A506E7
:10500000C701B6010E94FC36181644F4C092A206ED
:10501000D092A306E092A406F092A5060E94611029
:105020000E94DC1520913805253018F024E02093EB
:10503000380500910E0710910F072091100730914D
:1050400011070856174F2F4F3F4F0617170728070E
:105050003907B8F48091380590911601891380932F
:10506000160185E080939A0289E08093990283E19A
:1050700091E090937C0480937B0461E573E00C9451
:10508000F93220911A0120FD25C020E137E240E0ED
:1050900050E00E94053820FD1DC020E030E048E4CB
:1050A00052E46091F1047091F2048091F3049091C4
:1050B000F4040E94FC3618166CF4809116018130BD
:1050C00019F081E08093160181E091E00E94A60E24
:1050D0000C94FD328091F60481110E94F8079091A2
:1050E00038058091F004891710F00C94D931109193
:1050F000CF0417FD53C20091CE04612F802F0E9470
:105100004B0B8091800482FF1FC062E873E087E44C
:1051100097E00E94801662E873E087E497E00E94BF
:10512000801662E773E087E497E00E94801662E8E9
:1051300073E087E497E00E94801662E873E087E4FA
:1051400097E00E94801611C095E0F92E8EE0E82EBF
:1051500060E287E497E00E946609EA94E110F8CFE4
:105160000E945409FA94F110F1CFFF24F394F00E49
:10517000612F8F2D0E9494098091800480FFB6C01A
:105180008091F504811178C0609112077091130726
:1051900080911407909115070E94D7339B01AC01B1
:1051A00060911707709118078091190790911A075D
:1051B0000E948A3521EE3EE245E652E40E943634F2
:1051C00020E030E040E251E40E940A350E9460365F
:1051D0002DE2269FA001279F500D1124CA016AE0ED
:1051E00070E00E94CF37CB01469669E070E00E94E4
:1051F000CF376331710590F420ED30E06901C81AB2
:10520000D90AE12EE60E4C2D6E2D8CE0800F0E9407
:1052100082094C2D6E2D8F2D0E9482092091C70688
:1052200030E08091140190911501281B390B48E45E
:10523000429FC001439F900D11246AE070E00E94DC
:10524000CF37CB01849666E070E00E94CF376D3097
:10525000710508F04BC07C01EFEBEE0EF11CF02E57
:10526000F60E4E2D64E0610F8F2D0E9482094E2DA7
:1052700061E0610F8F2D38C0E091A204F091A3048A
:10528000349665917591859194912091CE063091D7
:10529000CF064091D0065091D1060E94363420E0CE
:1052A00030E040EA50E40E940B352DEC3CEC4CE839
:1052B00050E40E9436340E946036862F9FEF960F8E
:1052C0009B3240F469E00E94AD374FEC491B682FD8
:1052D000610F08C06C3224F064E0610F4EE202C03E
:1052E000612F4FEC8CE0800F0E94820980917F0437
:1052F00087FF46C1A2E08A2E810EB6E09B2E900E5B
:1053000088E0E3E2F1E0DE01119601900D928A95CA
:10531000E1F76091D2067091D306072E000C880B3E
:10532000990B0E94D73320E030E044EB51E40E9417
:105330000B3520E030E044E352E40E94EE350E9459
:1053400060365B016830710514F0A12CB12C80919E
:10535000BA069091BB0697FF03C09195819591097C
:105360006AEF70E00E94CF37362F272F8091B80662
:105370009091B90697FF03C09195819591096AEFC5
:1053800070E00E94CF37E32EF22EE616F7060CF4FB
:105390007B012FEFE21AF20A6091ED0467FD57C01E
:1053A0008091EC040E944B0B8091EC0487FD03C0BC
:1053B0008FE10E947D09C090A204D090A304F60161
:1053C000349625913591459154918AEF8E9DB00187
:1053D0008F9D700D1124072E000C880B990B2DA7A3
:1053E0003AA74BA75CA70E94D7332DA53AA54BA59A
:1053F0005CA50E943634F60138E2E316F10484F02D
:105400003F96C49020E030E04AE754E40E94EE3535
:10541000AB01BC012C2D87E693E00E942F0617C03C
:105420003996E4911F92EF930E9460367F936F93B9
:1054300081E693E09F938F9387E497E09F938F9308
:105440000E94A8100FB6F894DEBF0FBECDBFB70103
:10545000FF0C880B990B0E94D7332B013C01609104
:10546000B8067091B906072E000C880B990B0E94A4
:10547000D7336B017C012CEB34E743E95CE3C301D8
:10548000B2010E94EE359B01AC01C701B6010E943A
:10549000EE350E9460366FA3262E6091BA06709199
:1054A000BB06072E000C880B990B0E94D7336B01AB
:1054B0007C0122E430E645EE5CE3C301B2010E94C8
:1054C000EE359B01AC01C701B6010E94EE3520E02C
:1054D00030E040E05FE30E940B350E946036362EDC
:1054E000E1E0F0E0EC0FFD1FEA0DFB1DB080C82CE1
:1054F000C218D92CD60E4B2D6C2D8D2D0E948209F1
:105500008091800483FF3CC08091B006381204C0B3
:105510008091B1062816F9F0E6EB4E2EE6E05E2EFD
:10552000F8EB6F2EF6E07F2EF201929182912F011F
:10553000F301929382933F014B2D6C2D8D2D0E9490
:105540008209F0EB4F16F6E05F0671F73092B00675
:105550002FA12093B10676EBE72E76E0F72EF70128
:105560008181682D681B808144E2890D0E94820937
:10557000F2E0EF1AF10820EBE21626E0F20679F7E6
:1055800007FD0CC062E0610F86E0800F0E944B0BAC
:105590006FE673E087E497E00E9480166091A704AD
:1055A00067FD0CC08091A6040E944B0B6091900493
:1055B0007091910482E993E00E941E066091A90413
:1055C00067FD0CC08091A8040E944B0B60917D0484
:1055D00070917E0488E993E00E941E066091AB04FE
:1055E00067FD1EC01091AA04812F0E944B0B17FD6E
:1055F00003C08CEB0E947D09609104077091050740
:1056000080E090E00E94D53320E030E04AE754E4A7
:105610000E94EE35AB01BC018EE993E00E94400789
:105620006091AD0467FD1EC01091AC04812F0E94F3
:105630004B0B17FD03C086E20E947D096091BC06FA
:105640007091BD0680E090E00E94D53320E030E00C
:105650004AE754E40E94EE35AB01BC018EE993E0C9
:105660000E9440076091AF0467FD25C01091AE0411
:10567000812F0E944B0B80910A07823021F08330EA
:1056800021F08AE203C08FE101C08FE02091BF06C4
:105690003091C006283C310520F090911A0194FD0C
:1056A00080E217FF0E947D096091BE0670E085EAE6
:1056B00093E00E941E066091B30467FD0EC0109136
:1056C000B204812F0E944B0B17FD03C087EB93E0C0
:1056D00002C089EA93E00E94C6056091EB0467FD71
:1056E0000EC01091EA04812F0E944B0B17FD03C0DE
:1056F00085ED93E002C087EC93E00E94C6056091BF
:10570000D50467FD64C01091D404812F0E944B0B17
:1057100017FD46C088E80E947D0980917F04309182
:1057200018012091170180FF1BC090911B0781E099
:105730009F3F08F480E044E6849FC00111249F93BA
:105740008F931F923F931F922F9385EE93E09F9329
:105750008F9387E497E09F938F930E94A8101AC0BD
:105760008091C4068F938091C3068F938091C20667
:105770008F938091C1068F931F923F931F922F9317
:105780008EEF93E09F938F9387E497E09F938F939F
:105790000E94A8100FB6F894DEBF0FBECDBF17C091
:1057A00080917F0480FF07C060E070E086EF93E0A7
:1057B0000E941E060CC04091C1065091C206609125
:1057C000C3067091C4068FEE93E00E94400760917B
:1057D000B10467FD2CC08091B0040E944B0B8091F6
:1057E000C5069091C606C29664E670E00E94BB377B
:1057F0008091D2069091D306681B790B653B7105A9
:105800001CF06856714006C06C34FFEF7F0714F43B
:1058100068597E4F70938204609381048091810463
:10582000909182040E94CD0862E00E94520620916D
:10583000B50427FD55C01091B40488E1EBE2F1E016
:10584000DE01119601900D928A95E1F74091D20602
:105850005091D30638E1349FC001359F900D11243B
:105860000C9668E671E00E94CF37CB01049797FD54
:105870004896FE017996AE014E5D5F4F0E2FFF2ECA
:10588000A1E0B0E0AC0FBD1FA80FB91F3C91319350
:1058900001968831910514F080E090E0E417F50757
:1058A00079F71AA2622F812F0E944B0B17FD06C0B9
:1058B0006FE074E087E497E00E948016FF920F93F8
:1058C0008AE094E09F938F9387E497E09F938F9370
:1058D0000E94A8100F900F900F900F900F900F90B4
:1058E0006091B70467FD0CC08091B6040E944B0B19
:1058F0006091D2067091D3068CE194E00E941E065E
:105900008091EF0487FD06C08091EE049091EF0432
:105910000E94A60E80910D07813039F56091BB047D
:1059200067FD16C01091BA04812F0E944B0B17FD22
:1059300003C08BE00E947D096091120770911307EC
:1059400080911407909115070E94D7330E94F806A2
:105950006091B90467FD09C08091B8040E944B0BA7
:1059600060E08091C7060E9452066091D70467FDEF
:1059700015C08091D6040E944B0B60918C047091ED
:105980008D0480918E0490918F0428EE33E040E0E6
:1059900050E00E94E337C9010E94550700910C07AF
:1059A000002309F4D0C06091BF0467FDCCC0109102
:1059B000BE04812F0E944B0B20E030EC49E754E4F9
:1059C0006091E2067091E3068091E4069091E5060D
:1059D0000E94FC36181664F480E090ECA9E7B4E469
:1059E0008093E2069093E306A093E406B093E50665
:1059F00020E030EC49E754EC6091E2067091E30658
:105A00008091E4069091E5060E94D03387FF0CC098
:105A100080E090ECA9E7B4EC8093E2069093E30673
:105A2000A093E406B093E50617FD03C08CE50E9441
:105A30007D098091A2049091A304FC0139961491F0
:105A4000359725913591459154911F921F936091FF
:105A5000C8067091C90680E090E02DA73AA74BA731
:105A60005CA70E94D5332DA53AA54BA55CA50E9445
:105A700036349F938F937F936F931F920F938CE293
:105A800094E09F938F9387E497E09F938F930E9476
:105A9000A8108091E0069091E1060FB6F894DEBF61
:105AA0000FBECDBF97FF06C088599E4F9093E10669
:105AB0008093E0066091E0067091E106072E000CED
:105AC000880B990B0E94D7336B017C016091D20641
:105AD0007091D306072E000C880B990B0E94D733C8
