:100000000C9454050C9456300C947D300C947C0563
:100010000C947C050C947C050C947C050C947C055C
:100020000C947C050C947C050C947C050C94B82AEB
:100030000C947C050C947C050C947C050C947C053C
:100040000C94A4300C947C050C94CB090C94F1090D
:100050000C947C050C947C050C947C050C947C051C
:100060000C947C050C947C053E0E540EA90FA90F30
:10007000A90F7E0E870ECF0EE70EFA0E1C0F460F4D
:10008000500FA90FA90FA90FA90FA90FA90F5A0F58
:1000900091219521A121C521B821D221DD21F12174
:1000A00005223B22084AD73B3BCE016E84BCBFFDF4
:1000B000C12F3D6C74319ABD56833DDA3D00C77F38
:1000C00011BED9E4BB4C3E916BAAAABE00000080D1
:1000D0003F05A84CCDB2D44EB93836A9020C50B960
:1000E000918688083CA6AAAA2ABE000000803F0686
:1000F00064EC1B3C04BC163E3BE5B93CC93C37C232
:100100009E5A3D660498083EEA69AAAA3E0000008D
:10011000803F0302010010000E000F0011004D6926
:100120007373696E672F4F6C6420436F6E666967E7
:100130003A202564206D79202564004D696E696D33
:100140004F53442D457874726120322E347C756E85
:10015000692072383138445600434425640A0052FD
:1001600046460A0020284E54534329002028504177
:100170004C29004325642535697C0025342E3066E2
:1001800025630025342E326625630025632563250B
:10019000346905007C2563256325322E306625638E
:1001A0000020586525342E306625630025326920ED
:1001B00025342E306625637C00C32573870020C755
:1001C000C7C7C72EC7C7C7C7207C0025346905002D
:1001D0002531302E3666202531302E366600032537
:1001E00031302E366620042531302E36660025311A
:1001F000302E36667C2531302E36660003253130B0
:100200002E36667C042531302E3666002532690094
:100210004E6F20696E7075742064617461212000D6
:1002200025352E32660D0025346905060025346912
:10023000050700B8B900C62020202020202020205B
:10024000202020C57C0025342E3066010025322E6A
:100250003066252500256325638E25342E30660102
:1002600000256325638E25322E3066252500253333
:100270002E3069250025332E306625630025352E66
:1002800032660E0025336925002020909100253428
:100290002E3066010025352E31662563004E52252D
:1002A000332E306605004E5025332E306605004E45
:1002B0004825342E30660500544225362E31660519
:1002C00000414525352E3166256300584525342EDD
:1002D00030666D00414525352E31662563009D024F
:1002E00069B70600000000A60269B506000000001C
:1002F000AF0269B30600000000B80269B106000051
:100300000000C10266AA0600000000CB02699C063C
:1003100000000000D40266A60600000000000000F5
:10032000000000000000650366D506000000006DB7
:100330000366B90600000000740366CD06000000E5
:10034000007B0366C906000000008203664D0600BC
:100350000000008A03665106000000000000000053
:1003600000000000007C0B2535662563008F2535D5
:10037000662563001425356625630012253566253C
:100380006300032531302E366600042531302E36C9
:10039000660025352E326625630025352E3066250C
:1003A00063002532693A253032690000040C0000F0
:1003B000BA0305521B0000000000EF0468000000B3
:1003C0000000000000000000D50466015307000093
:1003D000B404FCFF0400E204660157070000B40403
:1003E000FCFF0400B90466015B070000B404FCFFD5
:1003F0000400C70466015F070000B404FCFF0400AA
:10040000A2050000000000000000000000009205AE
:10041000620A2A070000AD040000FF008305620A9B
:1004200063070000AD040000FF00750562012907A5
:100430000000A8040000FF00630562012807000017
:10044000A8040000FF005205620130070000A80464
:100450000000FF004505620131070000A80400000C
:10046000FF00350500000000000000000000000053
:100470002705620168070000A804010004001E05AA
:10048000620127078309A804000003000E05630129
:1004900065078309A804E1FF1F00000563016407E5
:1004A0008309A804F1FF0F00252E30660025332EA6
:1004B00031667600252E336600526F6C6C20206901
:1004C0006E204E54534300506974636820696E2057
:1004D0004E54534300526F6C6C2020696E20504183
:1004E0004C00506974636820696E2050414C0020B4
:1004F00020486F72697A6F6E20616E676C65730059
:10050000566572746963616C206F66667300486F2C
:1005100072697A6F6E74616C206F66667300436FE8
:100520006E74726173740053637265656E732043F9
:100530006F756E7400202053637265656E20706164
:1005400072616D730052535349207761726E696E08
:100550006700426174742063686172676520776127
:10056000726E004F76657273706565642077617294
:100570006E696E67005374616C6C207761726E698E
:100580006E6700426174742032207761726E696E0A
:10059000670042617474657279207761726E696E6A
:1005A00067002020202020204F534420736574755D
:1005B00070002B07C305BE05260713070907686FE0
:1005C000726900616E676C00F305BA0626070907B9
:1005D000EE05E905E405DF05DA05696E6974006D6D
:1005E0005F3037006D5F3036006D697373006D5F8B
:1005F00030340061726D00BA064E06490644063F6B
:10060000063A063506090732062D062A062706137E
:10061000070407240620069C061B0661746F66000B
:10062000706F6900707000706100686C00706F73AB
:100630007200636C00737462360073746235007309
:1006400074623400737462330073746232007374C2
:10065000623100BA06B506B006AB062B07A606A1A6
:10066000069C06970621071307170792068D061C9E
:1006700007880683067E067906716C6F69007168CB
:100680006F76007173746200696E6974006D5F311A
:1006900034006D5F3133006174756E006372757A7A
:1006A0000066627762006662776100747261690059
:1006B000737461620063697263006D616E7500300E
:1006C000072B07260721071C07170713070E070923
:1006D000070407FF06FA06F506F006EB06E606E154
:1006E00006686F6C640074756E6500666C697000F6
:1006F00073707274006D2031320064726966006F2D
:10070000666C6F006C616E6400706F736800636983
:1007100072630072746C006C6F6974006775696451
:10072000006175746F00616C7468006163726F00C2
:100730007374616200B2202020202020202020201D
:100740002020B37C00486967682056537065656453
:10075000210020204C6F772052737369004261742E
:1007600074657279204C6F772100204F7665725343
:100770007065656421002020205374616C6C210039
:10078000204E6F204750532066697821002058651D
:1007900025342E306625630015231D013514023DD6
:1007A0001403B11704BC17054514072318232C188C
:1007B00018421706E31808CF08096614258E150B92
:1007C00017150AF619194F110D5D19117A1416A68D
:1007D00014120916171216132E141436090F751158
:1007E0001B0B191CA2131DD8150E21141EF9112163
:1007F000A71120970822081524B9131FBF0900006C
:100800000000017B0501027F0502038305030487C5
:100810000505008B050A068F050B07930513009746
:100820000500070E091C1B1215383F363124232AF8
:100830002D70777E796C6B6265484F464154535AF0
:100840005DE0E7EEE9FCFBF2F5D8DFD6D1C4C3CA20
:10085000CD90979E998C8B8285A8AFA6A1B4B3BA90
:10086000BDC7C0C9CEDBDCD5D2FFF8F1F6E3E4EDBD
:10087000EAB7B0B9BEABACA5A28F88818693949D30
:100880009A2720292E3B3C35321F18111603040DE0
:100890000A5750595E4B4C45426F68616673747DD0
:1008A0007A898E878095929B9CB1B6BFB8ADAAA37A
:1008B000A4F9FEF7F0E5E2EBECC1C6CFC8DDDAD370
:1008C000D4696E676075727B7C51565F584D4A43A0
:1008D00044191E171005020B0C21262F283D3A3310
:1008E000344E49404752555C5B7671787F6A6D643F
:1008F000633E39303722252C2B0601080F1A1D14B0
:1009000013AEA9A0A7B2B5BCBB9691989F8A8D845F
:1009100083DED9D0D7C2C5CCCBE6E1E8EFFAFDF44F
:10092000F352B80E4085EB51401966BB0012800CA3
:100930001CA0141E666666400000803F100CBA00C2
:100940000A00001BE8031A00407A10F35A00A07254
:100950004E18090010A5D4E80000E87648170000FA
:10096000E40B54020000CA9A3B000000E1F50500C8
:100970000080969800000040420F000000A0860111
:10098000000000102700000000E8030000000064E1
:1009900000000000000A000000000001000000004C
:1009A000002C76D888DC674F0823DFC1DFAE59E121
:1009B000B1B796E5E3E453C63AE651997696E8E690
:1009C000C28426EB898C9B62ED407C6FFCEFBC9C63
:1009D0009F40F2BAA56FA5F490055A2AF75C936B75
:1009E0006CF9676DC11BFCE0E40D47FEF520E6B530
:1009F00000D0ED902E0300943577050080841E080A
:100A00000000204E0A000000C80C333333330F9827
:100A10006E12831141EF8D2114893BE65516CFFEEE
:100A2000E6DB18D1844B381BF77C1D901DA4BBE47A
:100A300024203284725E228100C9F124ECA1E53DBC
:100A4000276E616E00696E660000000008000201FA
:100A50000000030407000000000000000001020481
:100A60000810204080010204081020010204081030
:100A70002004040404040404040202020202020327
:100A800003030303030000000023002600290000E5
:100A9000000000250028002B000000000024002793
:100AA000002A00000D2A442A11241FBECFEFD8E0EF
:100AB000DEBFCDBF12E0A0E0B1E0E8E5FEE602C097
:100AC00005900D92A638B107D9F728E0A6E8B2E064
:100AD00001C01D92AC30B207E1F715E0C4E5D5E0E6
:100AE00004C02197FE010E94F836C235D107C9F72C
:100AF0000E94AA320C942A370C940000283008F087
:100B000027E03327DA01990F311D87FD91600096A8
:100B10006105710539F432602E5F3D9330E32A950B
:100B2000E1F708959F3F30F080387105610509F0C5
:100B30003C5F3C5F3D93913008F08068911DDF93EE
:100B4000CF931F930F93FF92EF92192F987F969553
:100B5000E92F96959695E90FFF27EF55F64F9927C0
:100B60003327EE24FF24A701E7010590089407949A
:100B700028F4360FE71EF81E491F511D660F771F18
:100B8000881F991F0694A1F70590079428F4E70E93
:100B9000F81E491F561FC11D770F881F991F661F1A
:100BA0000694A1F70590079428F4F80E491F561FE4
:100BB000C71FD11D880F991F661F771F0694A1F7C5
:100BC0000590079420F4490F561FC71FD81F990F8F
:100BD000661F771F881F0694A9F7849110951770D8
:100BE00041F0D695C79557954795F794E7941A9590
:100BF000C1F7E7E4F9E06894159015913591659196
:100C0000959105907FE27395E118F10A430B560B1D
:100C1000C90BD009C0F7E10CF11E431F561FC91FB5
:100C2000D01D7EF4703311F48A95E6CFE89401501C
:100C300030F0080F0AF40027021708F4202F23953C
:100C4000022F7A3328F079E37D932A95E9F710C0D3
:100C50007D932A9589F6069497956795379517950C
:100C60001794E118F10A430B560BC90BD00998F001
:100C700023957E9173957A3308F070E37C9320136B
:100C8000B8F77E9170617D9330F0839571E37D9329
:100C900070E32A95E1F71124EF90FF900F911F91D7
:100CA000CF91DF91992787FD90950895FA01AA27A2
:100CB000283051F1203181F1E8946F936E7F6E5F9F
:100CC0007F4F8F4F9F4FAF4FB1E03ED0B4E03CD04D
:100CD000670F781F891F9A1FA11D680F791F8A1F30
:100CE000911DA11D6A0F711D811D911DA11D20D097
:100CF00009F468943F912AE0269F11243019305D51
:100D00003193DEF6CF010895462F4770405D419341
:100D1000B3E00FD0C9F7F6CF462F4F70405D4A338E
:100D200018F0495D31FD4052419302D0A9F7EACF56
:100D3000B4E0A6959795879577956795BA95C9F785
:100D400000976105710508959B01AC010A2E069478
:100D50005795479537952795BA95C9F7620F731F31
:100D6000841F951FA01D0895CF92DF92EF92FF92EE
:100D70000F931F93E82FF92F05C001501109210986
:100D8000310961F1908196239417B9F305C00150A0
:100D900011092109310911F1908196239413F7CF9C
:100DA000C12CD12CE12CF12C0AC08FEFC81AD80A23
:100DB000E80AF80A0C151D052E053F0579F080811B
:100DC0008623841791F36C2D7D2D8E2D9F2D1F91E1
:100DD0000F91FF90EF90DF90CF90089560E070E06A
:100DE00080E090E01F910F91FF90EF90DF90CF9007
:100DF000089580E008950895FC01138212822CE486
:100E000031E0318320830895CF93DF931F92CDB7D4
:100E1000DEB769830E943E2A6981862F0F90DF9199
:100E2000CF910C943E2A0E943E2A8FEF0C943E2ACA
:100E300061E086E00C94D13160E086E00C94D13121
:100E4000882339F0813049F488E08093680490E485
:100E500004C086E08093680490E08091690498174C
:100E600061F0909369040E941C07609169046C61B1
:100E700080E00E9404070C94180708950E941C0744
:100E800080916E0781FD05C080916D0783FF0AC0C8
:100E900005C080EA0E94130780FF02C081E003C002
:100EA00081FF04C080E00E94200702C082FDECCFD9
:100EB0000C941807CF93DF93E0912707E43008F0F4
:100EC000E0E0F0E0EE5EFE4FD08180E1C1E0C80FCF
:100ED0006D2F0E9404078C2FC032C1F7DF91CF9194
:100EE00008950E941C070E945A0760916507605E82
:100EF00082E00E94040760916407605F83E00E94C3
:100F000004070C941807CF930E941C078CEE0E94D4
:100F10001307C82F60916904626080E00E94040793
:100F20000E9438266C2F6F7E8CE60E94040762E1D7
:100F30008CE00E940407609169046C6380E00E9469
:100F400004070E943826609169046C6180E00E9469
:100F50000407CF910C94710761E086E00E949531FF
:100F600062E082E00E9495310E943E070C94830764
:100F700080916904803411F080E0089581E0089543
:100F80000E941C0764E084E00E9404070C94180788
:100F900020916A0480916B0490E03EE1239F800DD4
:100FA000911D1124909387028093860208958F7774
:100FB00080936B046F7760936A040C94C8078C3736
:100FC00039F480916A048F5F80936A040C94C80797
:100FD0002091860230918702A9014F5F5F4F5093A5
:100FE000870240938602F901E857FD4F80830895F8
:100FF000862F0E94DF0781E090E00895CF93DF9372
:101000001F92CDB7DEB749830E94D7074981842F4D
:101010000F90DF91CF910C94DF075E9860E085E040
:101020000E94040760E086E00E94040761E084E01B
:101030000E9404075E9AE8E8F2E080E25E98908100
:101040009EBD81930DB407FEFDCF5E9A94E0E83615
:10105000F907A1F75E988FEF0E943E2A5E9A0895E5
:10106000EF92FF920F931F93CF93DF931F92CDB711
:10107000DEB7182FF62E79830E941C0760E080E00F
:101080000E940407612F89E00E9404070F2D7981D7
:10109000172FE12CF801F1908F016E2D8AE00E944C
:1010A00004076F2D8BE00E940407E394F6E3EF1230
:1010B000F1CF60EA88E00E94040780EA0E943E2A9D
:1010C0008FEF0E943E2A85FDF8CF6CE080E00E9401
:1010D00004070F90DF91CF911F910F91FF90EF9038
:1010E0000C941807FB012081822790E1899F9001D1
:1010F00011242827822F90E0582F44279C0163E079
:10110000220F331F6A95E1F742275327218130E0F0
:101110002427352774E0959587957A95E1F78227FE
:101120009327918380830895109208060895CF92A3
:10113000DF92EF92FF920F931F93CF93DF930AE812
:1011400016E0C1E0D0E083E7C82E81E0D82E98EF0A
:10115000E92E95E0F92EF801808191810E5F1F4FF5
:101160009F938F93DF93CF93DF92CF92FF92EF9273
:101170000E944C2B2196EDB7FEB738960FB6F89427
:10118000FEBF0FBEEDBFC930D10529F7DF91CF916A
:101190001F910F91FF90EF90DF90CF9008950F93E4
:1011A0001F93CF93DF93CDB7DEB7A6970FB6F89412
:1011B000DEBF0FBECDBF282F88E1E8E2F1E0DE01FF
:1011C000119601900D928A95E1F740912E0650916B
:1011D0002F0638E1349FC001359F900D11240C96E5
:1011E00068E671E00E94A336CB01049797FD48960C
:1011F000FE017996AE014E5D5F4F1E2F0F2FA1E0CD
:10120000B0E0AC0FBD1FA80FB91F3C913193019600
:101210008831910514F080E090E04E175F0779F770
:101220001AA227FD06C06EEB71E088EF95E00E94E0
:10123000322B0F931F9389EB91E09F938F9388EF4D
:1012400095E09F938F930E944C2B0F900F900F90DF
:101250000F900F900F90A6960FB6F894DEBF0FBEBA
:10126000CDBFDF91CF911F910F91089587FD03C0EE
:101270008FE70E94DF0780911C01E091760683FFD3
:1012800006C0F0E0EE0FFF1FE950FA4F2EC084FFBA
:1012900006C0F0E0EE0FFF1FEE54FA4F26C080911B
:1012A00010068E30B1F42E2F30E087E090E0E82F6A
:1012B000A901082E02C0559547950A94E2F740FD12
:1012C00003C00197A0F7E8E0EE0FFF0BE853FA4FD9
:1012D0000CC080912507F0E0EE0FFF1F811103C0C5
:1012E000ED5AF94F02C0E154F94F6591749188EFBE
:1012F00095E00E94322B80911B0186FF03C086E897
:101300000C94DF0708950C947107CF92DF92EF924F
:10131000FF920E94FA306B017C0183E00E94F13160
:10132000813049F4C0920106D0920206E092030691
:10133000F09204061FC08091010690910206A091D0
:101340000306B09104060097A105B10599F0C81AEB
:10135000D90AEA0AFB0AD0920606C0920506109244
:10136000010610920206109203061092040681E014
:1013700080930706FF90EF90DF90CF9008958091C3
:1013800016068F73823030F462E377E088EF95E0E1
:101390000C94A73208951F920F920FB60F9211244A
:1013A0002F938F939F93EF93FF939091C60080911B
:1013B00001088F5F8F7720910208821741F0E0913A
:1013C0000108F0E0E158F84F908380930108FF9105
:1013D000EF919F918F912F910F900FBE0F901F90C3
:1013E00018951F920F920FB60F9211248F939F930F
:1013F000EF93FF93909100088091FF07981779F081
:10140000E0910008F0E0E558F84F80818093C60035
:10141000809100088F5F83708093000805C08091E1
:10142000C1008F7D8093C100FF91EF919F918F91BB
:101430000F900FBE0F901F9018950F931F93CF938F
:10144000DF93EC018B010E94EE30DC01CB01800FB9
:10145000911FA11DB11D88839983AA83BB83DF914E
:10146000CF911F910F910895FB018138910530F0C4
:1014700029E820838058910931960EC02DE82183F8
:101480008231910548F480911C0182FF08C080E2FE
:101490008083818381E008958B31910510F48DE87C
:1014A00010C08433910510F48CE80BC08E34910584
:1014B00010F48BE806C08836910510F48AE801C064
:1014C00089E8808380E0089524E0880F991F2A9599
:1014D000E1F78C549F4F68E671E00E94A336CB0180
:1014E000019608954F925F926F927F928F929F9292
:1014F000AF92BF92CF92DF92EF92FF928091250739
:1015000081111CC080911706843078F080912101F0
:101510009091220180379E4F41F480912E06909148
:101520002F06909322018093210180911C0187FD59
:1015300005C081E090914B06933009F080E09091D6
:101540001B0196FB222720F996FF07C097FD05C0D7
:1015500090911C019F7790931C0190911B0120FB9F
:1015600097F990931B01882379F088E0EDE4F6E089
:10157000AFE3B6E001900D928A95E1F780911C01EE
:10158000806880931C01B4C080911C0187FFB0C0AB
:10159000C0903F06D0904006E0904106F090420691
:1015A00020E030E0A901C701B6010E94633525E3C0
:1015B0003AEF4EE85CE318161CF4C701B60103C00D
:1015C000C701B60190580E9470350E949E332B01CE
:1015D0003C0120914D0630914E0640914F065091AE
:1015E0005006C701B6010E94BA3220EC3BE649ED35
:1015F00057E40E9470354B015C01209151063091F7
:1016000052064091530650915406609143067091E2
:10161000440680914506909146060E94BA3220EC1D
:101620003BE649ED57E40E947035A30192010E9408
:1016300070356B017C01A5019401C501B4010E94C4
:1016400070352B013C01A7019601C701B6010E942C
:1016500070359B01AC01C301B2010E94BB320E94F4
:10166000E3350E94153460933B0670933C068093EB
:101670003D0690933E06C501B4019F770E94153444
:101680007093390660933806C701B6019F770E94B0
:1016900015347093370660933606A70196015058AB
:1016A000C501B4010E943A3320EE3EE245E652E421
:1016B0000E94703520E030E044EB52E40E94BB32DF
:1016C0000E9415349B0177FF02C028593E4FC90183
:1016D000845B910920912E0630912F06821B930B7B
:1016E00097FF02C088599E4F0E94640A80933A0671
:1016F000FF90EF90DF90CF90BF90AF909F908F9032
:101700007F906F905F904F900895CF92DF92EF920D
:10171000FF92CF93DF93EC01FB01C080D180E28088
:10172000F380A7019601688179818A819B810E945B
:10173000993387FF04C0C882D982EA82FB82DF9195
:10174000CF91FF90EF90DF90CF9008954F925F92EE
:101750006F927F928F929F92AF92BF92CF92DF92C1
:10176000EF92FF920F931F93CF93DF9300D000D09F
:10177000CDB7DEB70E94EE3000916206109163068D
:1017800020916406309165066B017C01C01AD10A74
:10179000E20AF30A60E070E082E696E00E941D0A29
:1017A000E0918806F091890634966591759185914E
:1017B00094912091550630915606409157065091CC
:1017C00058060E94703520E030E040EC50E40E9462
:1017D00070354B015C0126E636E646E65FE3609134
:1017E000BD067091BE068091BF069091C0060E9412
:1017F00070359B01AC01C501B4010E94BB326093FE
:10180000BD067093BE068093BF069093C0062091DC
:101810007D0680917C06082E000C990B422F50E02B
:101820008417950714F420937C066091A2067091AA
:10183000A3068091A4069091A5060E944D3420E055
:1018400030E04AE754E40E94A3339B01AC0160916D
:101850002A0670912B0680912C0690912D060E94ED
:10186000BA3260939E0670939F068093A006909371
:10187000A10610911C0111FD17C020E030E040EAE4
:1018800050E40E94633518167CF4809117068B3063
:1018900058F0126010931C011092B9061092BA060B
:1018A0001092BB061092BC06C701B6010E944B34D1
:1018B00020E030E04AE754E40E94A3332B013C01CE
:1018C00090901C0197FE24C080911B0186FF20C0D0
:1018D000209118063091190640911A0650911B0666
:1018E000C301B2010E9470359B01AC016091B90641
:1018F0007091BA068091BB069091BC060E94BB32E3
:101900006093B9067093BA068093BB069093BC06A9
:101910006091820670918306072E000C880B990B4C
:101920000E944D34A30192010E94703520E030E006
:1019300044EB53E40E94A3339B01AC0160917E060B
:1019400070917F0680918006909181060E94BB3243
:1019500060937E0670937F06809380069093810645
:1019600080910C0690910D0620912F0720FD5EC0FE
:10197000A0906907B0906A0700916B0710916C07FF
:101980000A151B0540F420912E075801022F10E084
:101990008824839401C0812C9501A816B90608F407
:1019A0009C01B8012017310708F4B90180E090E0EC
:1019B0000E944B342B013C01B50180E090E00E9475
:1019C0004B349B01AC01C301B2010E94BA322B011E
:1019D0003C01B8016A197B0980E090E00E944B3419
:1019E0009B01AC01C301B2010E94A33320E030E0AF
:1019F00048EC52E40E9470350E941534653671053A
:101A000028F470930B0660930A0606C084E690E003
:101A100090930B0680930A06882061F020910A06B5
:101A200030910B0684E690E0821B930B90930B069B
:101A300080930A0680912507811102C091FC04C0A1
:101A400080911B0186FF41C08091660690916706D8
:101A5000A0916806B0916906C80ED91EEA1EFB1E49
:101A6000C0926606D0926706E0926806F092690618
:101A700060913B0670913C0680913D0690913E0638
:101A80000E944D3469837A838B839C83BE016F5F90
:101A90007F4F85ED96E00E94850B62E276E081ED56
:101AA00096E00E94850B68E176E08DEC96E00E945E
:101AB000850B6AE276E089EC96E00E94850B6EE188
:101AC00076E085EC96E00E94850B0F900F900F90CA
:101AD0000F90DF91CF911F910F91FF90EF90DF90CA
:101AE000CF90BF90AF909F908F907F906F905F90BE
:101AF0004F9008950E944D3420E836E948E15BE4B8
:101B00000E94A3330895A2EFB5E0EC918E27E82F51
:101B1000F0E0EF5DF74FE491EC9308950F931F937E
:101B2000CF93C1E00AE010E00E94DC2B8823D9F0BB
:101B30000E94EB2B1092F3051092F4058C3351F4B4
:101B4000C093F3051092F2050E94830D1093F605E1
:101B50000093F5050E94DC2B8111E6CF8AEA90E024
:101B60000E944731E1CFCF911F910F9108954F927D
:101B70005F926F927F928F929F92AF92BF92DF920D
:101B8000EF92FF920F931F93CF93DF9310926B0509
:101B90000BE715E020E2F22E35E0E32E44E0D42EF0
:101BA0000E94DC2B882309F4E8C10E94EB2B909162
:101BB0006B059230B9F028F4992349F0913071F017
:101BC000D3C1943009F1B0F0953051F1CDC191E01D
:101BD000843209F090E090936B05C6C18D3421F4F6
:101BE00082E005C08E3311F080E001C083E0809375
:101BF0006B05BAC1813808F0ACC180936A05D092F8
:101C00006B0580936905B0C1E0926B0580936C050C
:101C10009091690589278093690510926805A4C190
:101C200090916905982790936905E0916805209146
:101C30006A05E21391C191118CC110926D058091DA
:101C40001C01806180931C0180911B018460809342
:101C50001B0160E070E082E196E00E941D0AE091C5
:101C60006C058E2F90E0FC01E456F109E431F1059A
:101C700008F06FC1EC5CFF4F0C94F836E0916D05F5
:101C800081E08E0F80936D05F0E0E851FB4F80817D
:101C90008093110680916F0590917005A091710558
:101CA000B09172058E7F4DC1E0916D05F0E0E85175
:101CB000FB4F46815781608571854093770550932E
:101CC00078056093790570937A0580917B059091F2
:101CD0007C05A0917D05B0917E0584239523A623E4
:101CE000B72321E0892B8A2B8B2B09F420E08091EC
:101CF0001B0120FB86F980931B012BC1E0916D0530
:101D0000F0E0E851FB4F80E1AAE8B6E06EC0C09178
:101D10006D05D0E0C851DB4F888180934B068981E7
:101D200080934C066A817B818C819D810E944B341B
:101D300060934D0670934E0680934F069093500625
:101D40006E817F81888599850E944B34609351060E
:101D50007093520680935306909354068A859B8510
:101D6000A0E0B0E08093260690932706A093280673
:101D7000B09329066C857D8580E090E00E944B340D
:101D8000609318067093190680931A0690931B06A9
:101D90008E859F8590934A0680934906DAC0E0912C
:101DA0006D05F0E0E851FB4F80819181A0E0B0E04B
:101DB00080933B0690933C06A0933D06B0933E066D
:101DC000828193810E94640A80933A06C2C0E091A6
:101DD0006D05F0E0E851FB4F8481958190932F06CB
:101DE00080932E0686E0A0E3B6E001900D928A95DE
:101DF000E1F7AFC0C0916D05D0E0C851DB4F6881FD
:101E000079818A819B810E944B3460932A0670936A
:101E10002B0680932C0690932D066C817D8180E0AB
:101E200090E00E944B346093550670935606809361
:101E30005706909358068DC080916D07E0916D050F
:101E400084FD0FC0AE2FB0E0A851BB4F2D913C9147
:101E50001197309387062093860611969C91909354
:101E60007D0686FD0CC0AE2FB0E0A851BB4F159685
:101E70008D919C9116979093830680938206F0E053
:101E8000E851FB4F838180930E0663C080916F05FC
:101E900090917005A0917105B09172059D7F51C020
:101EA00080916F0590917005A0917105B0917205B8
:101EB0009B7F47C020916A05F8013F2D11923A950A
:101EC000E9F7812C912C54018394222389F1E0912C
:101ED0006D0581E08E0F80936D05F0E0E851FB4FBA
:101EE000408181E098E0042E000C550BFC016491C8
:101EF00070E04617570789F43296A591B4914D903A
:101F00005D906D907C901397482859286A287B280B
:101F10004D925D926D927C9213970496F8E0813217
:101F20009F0721F7880C991CAA1CBB1C2150CDCF00
:101F300080916F0590917005A0917105B091720527
:101F4000977F80936F0590937005A0937105B09370
:101F5000720510926B0508C091E09E0F9093680582
:101F6000F0E0E851FB4F80830E94DC2B811118CEFA
:101F70008AEA90E00E94473113CEDF91CF911F9102
:101F80000F91FF90EF90DF90BF90AF909F908F9058
:101F90007F906F905F904F900895EF92FF920F9314
:101FA0001F93CF93DF937C01E40EF51EEC018B01B0
:101FB000081B190BCE15DF0539F0C8018C0F9D1FCA
:101FC0000E9414378993F6CFDF91CF911F910F9123
:101FD000FF90EF900895EF92FF920F931F93CF938E
:101FE000DF93EB017C018B01040F151FC017D10794
:101FF00041F0F70161917F01CE010E941C372196CB
:10200000F5CFDF91CF911F910F91FF90EF90089541
:1020100042E050E060E072E08DE697E00E94CD0F74
:1020200048E450E064E072E085E297E00E94CD0F62
:1020300080916D0781FD03C084E399E002C081E2D5
:1020400099E09093890680938806089560910F0621
:1020500080910401681771F0643060F460930401AA
:1020600080E8689FB00111244CE450E089ED96E0CF
:102070000C94CD0F08950F931F93CF93E0912607F3
:10208000EE2309F4A9C0C0910F06E13029F4809134
:102090000506909106064AC08BEF8E0F843040F4FF
:1020A000F0E0EE0FFF1FE857F94F808191813EC0AD
:1020B0008091980690919906E430C1F5809176065A
:1020C0009AEF980F923008F46AC0909161068917D0
:1020D00099F08093610660E070E08DE596E00E94E3
:1020E0001D0A9091610680911E01981305C0809190
:1020F0001B01806180931B010E94EE3000915D0600
:1021000010915E0620915F0630916006DC01CB01E4
:10211000801B910BA20BB30B813D9740A105B1052C
:10212000F0F18091760680931E0139C020912B0733
:10213000211118C0609168078D3424E0920760F087
:102140009C012C54344070E080E293E00E94A3365E
:10215000C9010E948F3601C060E06C1701F16093E5
:102160000F061DC0813B9440D0F00E94EE300091DC
:102170005D0610915E0620915F063091600606179D
:1021800017072807390758F480911B018061809355
:102190001B0164EF71E08DE596E00E941D0A8091BD
:1021A0001B0184FF0EC08F7E80931B0180910F0660
:1021B0008F5F80930F0690916807981710F4109224
:1021C0000F0680910F06C81739F00E9426108091E3
:1021D0001B01846080931B01CF911F910F91089583
:1021E000692F0C94D707EF92FF920F931F93CF9311
:1021F000DF93C8E9D7E0FE0184913196E590F49031
:10220000E114F10491F0E82FF0E0EE0FFF1FE75228
:10221000F94F0081118117FD06C0C8010E94F0101E
:10222000C801F70109952396E6CFDF91CF911F9161
:102230000F91FF90EF900895E0918806F091890644
:1022400065917591859194912091180630911906A8
:1022500040911A0650911B060E94703508952CE398
:1022600030E0B9010E94A3369F938F93CB01B9014F
:102270000E94A3369F938F9382EA93E09F938F935C
:1022800088EF95E09F938F930E944C2B8DB79EB75C
:1022900008960FB6F8949EBF0FBE8DBF089560914B
:1022A000660670916706809168069091690628EE2F
:1022B00033E040E050E00E94B736C9010C942F1182
:1022C0007F936F935F934F939F938F9388EF95E0E6
:1022D0009F938F930E944C2B8DB79EB708960FB695
:1022E000F8949EBF0FBE8DBF089587FD03C08DEB90
:1022F0000E94DF076091820670918306072E000C12
:10230000880B990B0E944D342AE037ED43E25CE3E1
:102310000E947035AB01BC018DE792E00C94601116
:102320001F922F937F936F935F934F939F938F93FE
:1023300088EF95E09F938F930E944C2B8DB79EB7AB
:102340000A960FB6F8949EBF0FBE8DBF0895CF9228
:10235000DF92EF92FF920F931F93CF93DF938091C1
:10236000880690918906FC013A96D4913296C491E0
:102370003196059114916091790670917A0680E00A
:1023800090E00E944B3420E030E040E251E40E94B3
:10239000A3336B017C016C2F70E080E090E00E9421
:1023A0004D349B01AC01C701B6010E9470356B0131
:1023B0007C01B80180E090E00E944B349B01AC01AD
:1023C000C701B6010E94BB3220E030E048EC52E485
:1023D0000E94A333AB01BC012D2F85E992E0DF9170
:1023E000CF911F910F91FF90EF90DF90CF900C94C1
:1023F00090118F929F92AF92BF92CF92DF92EF9205
:10240000FF920F931F93CF93DF93C82F80912507DF
:10241000811124C19091170680911C01992309F420
:1024200054C080FD03C0816080931C0120E030E037
:10243000A901609118067091190680911A06909171
:102440001B060E9499338823E1F060918206709107
:102450008306072E000C880B990B0E944D346B01EC
:102460007C010E941C119B01AC01C701B6010E94B6
:10247000A33320E030E0A9010E94BB326B017C0154
:1024800003C0C12CD12C7601C7FD03C086E10E9498
:10249000DF07C701B6010E941534615071096F3022
:1024A000774208F042C1B701A6018EE892E0DF91C1
:1024B000CF911F910F91FF90EF90DF90CF90BF9041
:1024C000AF909F908F900C94601180FF23C040913B
:1024D0009E0650919F066091A0067091A1064093C0
:1024E000590650935A0660935B0670935C064091C0
:1024F000B9065091BA066091BB067091BC06409334
:10250000C0045093C1046093C2047093C3048E7FCF
:1025100080931C01C7FD03C088E10E94DF07C090C3
:102520005506D0905606E0905706F09058062DECD0
:102530003CEC4CE45DEBC701B6010E94993387FF88
:102540006BC0C0909E06D0909F06E090A006F090D1
:10255000A106C0918806D0918906FE013496859027
:102560009590A590B490A70196016091590670913D
:102570005A0680915B0690915C060E94BA329B01DC
:10258000AC01C701B6010E94A3336B017C0120910D
:10259000C0043091C1044091C2045091C3046091C1
:1025A000B9067091BA068091BB069091BC060E9454
:1025B000BA329B01AC01C701B6010E947035A5017A
:1025C00094010E9470356B017C010E9415346031CA
:1025D00087E278072CF4161617060CF0A6C007C081
:1025E000C12C8CE3D82E8CE1E82E86E4F82EFE0177
:1025F00039962491B701A60180E997E0DF91CF9148
:102600001F910F91FF90EF90DF90CF90BF90AF9010
:102610009F908F900C9490112DEC3CEC4CE45DEB72
:10262000C701B6010E94633587FD7FC080913006E7
:102630009091310697FF79C069E872E088EF95E0E4
:10264000DF91CF911F910F91FF90EF90DF90CF908E
:10265000BF90AF909F908F900C94322B80911B0174
:1026600086FF63C0D0917D060D2F10E080917B0620
:10267000082E000C990B0817190709F43FC0809128
:102680001C0183FD3BC060916606709167068091D6
:102690006806909169060E944B346B017C016D2F96
:1026A00070E080E090E00E944B349B01AC01C701D8
:1026B000B6010E9470356B017C0160917C06062E8C
:1026C000000C770B601B710B072E000C880B990B0D
:1026D0000E944D349B01AC01C701B6010E94A33397
:1026E00020E030E04AE754E40E94A3330E941C3407
:1026F0007093780660937706D0937B06C7FD03C07E
:1027000087E10E94DF078091770690917806DF913C
:10271000CF911F910F91FF90EF90DF90CF90BF90DE
:10272000AF909F908F900C942F11DF91CF911F91BC
:102730000F91FF90EF90DF90CF90BF90AF909F9060
:102740008F90089587FD03C085E10E94DF07E09127
:102750008806F0918906729624914091BD065091A9
:10276000BE066091BF067091C00680E997E00C94A8
:102770009011EF92FF920F931F93CF93DF9300D0AE
:1027800000D0CDB7DEB787FD03C08FE10E94DF0721
:102790000091D5041091D604E0908806F090890647
:1027A000F701349625913591459154918AEF809F98
:1027B000B001819F700D1124072E000C880B990B1E
:1027C00029833A834B835C830E944D3429813A816B
:1027D0004B815C810E947035F7010832110574F05D
:1027E0003F96149120E030E04AE754E40E94A3337E
:1027F000AB01BC01212F83E891E006C039962491FA
:10280000AB01BC018BE791E00F900F900F900F9000
:10281000DF91CF911F910F91FF90EF900C94901149
:102820007F936F939F938F9388EF95E09F938F9300
:102830000E944C2B0F900F900F900F900F900F90C5
:10284000089587FD03C089E00E94DF0760910A06B2
:1028500070910B0684E892E00C94101460911706B6
:1028600070E08EE692E00C94101460913006709146
:1028700031068DE292E00C94101460913206709152
:10288000330687E292E00C941014282F90914B06A7
:10289000923021F0933021F48FE003C08FE101C02A
:1028A0008AE240919A0650919B06483C510520F0DF
:1028B00090911C0192FD80E227FF0E94DF0760914A
:1028C0004C0670E08CE092E00C94101460912E069F
:1028D00070912F068BEC91E00C941014AB01BC01AD
:1028E000E0918806F0918906399624918AE993E06F
:1028F0000C949011CF92DF92EF92FF9287FD03C06C
:1029000081E10E94DF07E0918806F0918906349604
:10291000C590D590E590F4906091260670912706B9
:1029200080912806909129060E944D3420E030E0E5
:102930004AE754E40E94A333A70196010E94703530
:10294000FF90EF90DF90CF900C946E1487FD03C042
:1029500082E10E94DF07E0918806F09189063496B3
:10296000659175918591949120912A0630912B065D
:1029700040912C0650912D060E9470350C946E14D7
:10298000CF92DF92EF92FF921F93CF93DF939B0141
:10299000AC01C0918806D0918906FE0134966591FC
:1029A0007591859194910E9470356B017C0120E0B6
:1029B0003CE34CE156E40E9463351816F4F4FE0142
:1029C0003F96149131966591749180E090E00E9459
:1029D0004B349B01AC01C701B6010E94A333AB018C
:1029E000BC01212F82E993E0DF91CF911F91FF90ED
:1029F000EF90DF90CF900C949011C701B601DF915A
:102A0000CF911F91FF90EF90DF90CF900C946E14B8
:102A100087FD03C08FE80E94DF076091B9067091BF
:102A2000BA068091BB069091BC060C94C01490919C
:102A30001C0197FF11C087FD03C08BE00E94DF07D8
:102A400060913B0670913C0680913D0690913E0658
:102A50000E944D340C94C01408958F929F92AF92AF
:102A6000BF92CF92DF92EF92FF920F931F93CF937B
:102A7000DF93EC01FE01C590D490C114D10409F498
:102A800040C0FE01329684913196A591B491FE0129
:102A9000359605911491FE013796E590F4908636AF
:102AA00069F0893679F46D917C91072E000C880BC2
:102AB000990B0E944D344B015C0104C08D909D9098
:102AC000AD90BC900115110559F0F8012591359193
:102AD00045915491C501B4010E9470354B015C01D0
:102AE000E114F10419F0F701249101C020E2B501CD
:102AF000A401C6010E9490118CE70E94DF0729966D
:102B0000B9CFDF91CF911F910F91FF90EF90DF90A0
:102B1000CF90BF90AF909F908F9008958091E004E8
:102B200081112EC08091880690918906AC014C5F7E
:102B30005F4F50932C0340932B039C01275F3F4F23
:102B400030932E0320932D03509335034093340389
:102B5000309337032093360390933E0380933D03D5
:102B600008969093400380933F035093470340930C
:102B70004603309349032093480381E08093E004A7
:102B800088E00E94DF076091660670916706809179
:102B900068069091690628EE33E040E050E00E941C
:102BA000B736C9010E942F1186E293E00C942D15CF
:102BB0008091D80481111DC080918806909189066A
:102BC0009C012C5F3F4F30930803209307032B5F3A
:102BD0003F4F30930A032093090390931A03809385
:102BE0001903089690931C0380931B0381E0809344
:102BF000D8048EED92E00C942D15AB01BC01E09150
:102C00008806F09189063896249185E792E00C9425
:102C1000901187FD03C084E10E94DF070E941C1110
:102C20000C94FD1587FD03C083E10E94DF07E0914E
:102C30008806F0918906659175918591949120910E
:102C400022063091230640912406509125060E94C9
:102C500070350C94FD15CF92DF92EF92FF921F9387
:102C6000CF93DF9380911B0185FBDD27D0F985FF92
:102C7000CFC08F7D80931B01E0918806F09189067B
:102C8000659175918591949120912206309123064A
:102C900040912406509125060E9470350E941534FB
:102CA0002091860630918706C1E080914B068230E4
:102CB00008F0C0E01091250711110AC08091290782
:102CC00090E06817790724F480911C0181FDC260AF
:102CD00080912807882329F090E0861797070CF445
:102CE000C460F0902A07FF2091F0B90180E090E0E5
:102CF0000E944B3420E030E048EC52E40E94A333C1
:102D00000E9415342F2D30E06217730744F0809134
:102D10003007882329F090917D06981708F4C86041
:102D200080912F0780FD0BC08091310790E02091AA
:102D30000A0630910B062817390708F4C061C090C5
:102D4000BD06D090BE06E090BF06F090C00620E021
:102D500030E0A901C701B6010E94633518163CF4A2
:102D600020E030E040E251E4C701B60107C0C701EE
:102D7000B601905820E030E040E251E40E94A333D5
:102D80000E941534113051F480912907882331F0C5
:102D900090E08617970714F4C06205C0C11103C004
:102DA0001092D70427C02091D70481E02111820F0F
:102DB0008093D7049091D7043FEF390F81E001C091
:102DC000880F3A95EAF730E0973018F03D2F91E000
:102DD00081E0482F4C2321F49F5F880F3D2FF4CFD3
:102DE00031119093D7048091D704281309C0109211
:102DF000D70406C080911B01826080931B0108C02C
:102E000080912C078330B0F780911B018D7FF5CF27
:102E1000DF91CF911F91FF90EF90DF90CF900895B9
:102E20000E94F0100E942B16E091D704F0E0EE0F04
:102E3000FF1FE85AFD4F608171816115710521F016
:102E400088EF95E00C94322B08957F936F935F93F6
:102E50004F93EFE1F1E021811F922F9320811F9288
:102E60002F939F938F9388EF95E09F938F930E946A
:102E70004C2B8DB79EB70C960FB6F8949EBF0FBE25
:102E80008DBF08950F931F93CF93DF9300D000D091
:102E9000CDB7DEB7082F80916D07182F117080FF16
:102EA00016C060917D0670E080E090E00E944B3497
:102EB00020E030E040E85BE30E94703520E030E045
:102EC00048EC52E40E947035AB01BC0108C040914F
:102ED0007E0650917F06609180067091810607FD05
:102EE0001EC088E849835A836B837C830E94DF0776
:102EF00080916D0749815A816B817C8180FF03C07D
:102F000081E692E002C085E592E00F900F900F906D
:102F10000F90DF91CF911F910F910C9425171123E2
:102F200019F08DE492E002C086E492E00F900F90D9
:102F30000F900F90DF91CF911F910F910C94601122
:102F4000BC0180E090E00E944B3420E030E04AE792
:102F500054E40E94A333AB01BC0180E292E00C94E4
:102F6000601187FD03C08CEB0E94DF07809186060D
:102F7000909187060C94A01787FD03C086E20E94FB
:102F8000DF0780918406909185060C94A01769E074
:102F900085E00E94D70760E172E088EF95E00C942D
:102FA000322BEF92FF920F931F93CF93DF93F82E64
:102FB000E92EC0915106D09152061091530600910E
:102FC000540620E030E0A901F8016C2F7D2F8F2FEF
:102FD0009E2F0E94993381110FC020E030E0A9019B
:102FE00060914D0670914E0680914F06909150066B
:102FF0000E949933882301F10F931F93DF93CF939E
:10300000809150068F9380914F068F9380914E064A
:103010008F9380914D068F93EF92FF9288EF95E00A
:103020009F938F930E944C2B8DB79EB70C960FB633
:10303000F8949EBF0FBE8DBFDF91CF911F910F916E
:10304000FF90EF90089587FF03C08EEE91E002C0DD
:103050008CEF91E00C94D11787FF03C080ED91E0D5
:1030600002C08EED91E00C94D1178091B106909141
:10307000B20697FF06C088599E4F9093B206809380
:10308000B1068091B1069091B20620912E06309142
:103090002F06821B930B0C94640A0F931F93CF93FC
:1030A000DF93813110F08051FCCF811101C080E1AC
:1030B000880FCEEFC80FD0E9DC0F613039F16230F4
:1030C00009F071C08D2F0D2E000C990B2091480630
:1030D0002F93209147062F939C012F5F3F4F3F93E3
:1030E0002F939F93DF938BE891E09F938F9388EFCB
:1030F00095E09F938F930E944C2B8DB79EB70A96B5
:103100000FB6F8949EBF0FBE8DBF58C0E0918806E1
:10311000F0918906659175918591949120911E0693
:1031200030911F0640912006509121060E94703573
:103130000E94FD158091880690918906FC013896C1
:103140002491FC0165917591859194910D2F0D2E1F
:10315000000C110B1F922F932091C1063091C206D3
:103160004091C3065091C4060E9470359F938F937F
:103170007F936F93C80101969F938F931F93DF9363
:1031800084E991E09F938F9388EF95E09F938F93CD
:103190000E944C2B8DB79EB70E960FB6F8949EBF2B
:1031A0000FBE8DBF0BC08D2F0E94DF0781E98C0FF2
:1031B000DF91CF911F910F910C94DF07DF91CF9199
:1031C0001F910F9108958091490690914A06C296E9
:1031D00064E670E00E948F3680912E0690912F0653
:1031E000681B790B653B71051CF06856714006C081
:1031F0006C348FEF780714F468597E4F709348064B
:103200006093470680914706909148060E94640AA1
:1032100062E00C944D18CF92DF92EF92FF92CF9321
:10322000DF9387FD03C08DE10E94DF07C0911C067C
:10323000D0911D06D7FF02C0C859DE4F2AE037EDF6
:1032400043E25CE360911E0670911F0680912006A8
:10325000909121060E9470356B017C0124EA30E7D1
:103260004DE75FE36091C1067091C2068091C3068D
:103270009091C4060E9470359B01AC01C701B60154
:103280000E94BB326093C1067093C2068093C3064E
:103290009093C40680912E0690912F069E01281BC4
:1032A000390BC9010E94640A61E0DF91CF91FF9060
:1032B000EF90DF90CF900C944D181F93CF93DF9336
:1032C00000D000D0CDB7DEB787FD03C08CE50E94EB
:1032D000DF0780919C0690919D06883E934034F0D4
:1032E00087EE93E090939D0680939C0680919C06C8
:1032F00090919D0689319C4F34F489E19CEF909325
:103300009D0680939C068091880690918906FC0119
:1033100039961491359725913591459154911F9285
:103320001F936091AF067091B00680E090E0298312
:103330003A834B835C830E944B3429813A814B81D1
:103340005C810E9470359F938F937F936F938091E0
:10335000AE061F928F938CEA91E09F938F9388EF34
:1033600095E09F938F930E944C2B0E94351860E04C
:103370000E944D180FB6F894DEBF0FBECDBF8091EE
:1033800076068A3059F5E0918806F09189063496E0
:10339000259135914591549160919C0670919D06BF
:1033A000072E000C880B990B29833A834B835C838F
:1033B0000E944D3429813A814B815C810E94703595
:1033C000AB01BC01212F81EA91E00F900F900F908B
:1033D0000F90DF91CF911F910C9490110F900F904F
:1033E0000F900F90DF91CF911F91089580911C0154
:1033F00087FF05C060E080913A060C944D1808954F
:103400002F923F924F925F926F927F928F929F92F4
:10341000AF92BF92CF92DF92EF92FF920F931F93E2
:10342000CF93DF9300D000D0CDB7DEB7F82E962E25
:103430000E94B80727EA32E94BE25CE3811119C028
:1034400060915B0770915C0780915D0790915E07CA
:103450000E9470355B016C0125E33AEF4EE85CE3B6
:1034600060915F077091600780916107909162079A
:1034700018C060915307709154078091550790913F
:1034800056070E9470355B016C0125E33AEF4EE868
:103490005CE36091570770915807809159079091AC
:1034A0005A070E9470352B013C01809132069091A1
:1034B00033068A35910538F09C012D543F4F29354C
:1034C000310558F4C9018A319105DCF40A971CF1E1
:1034D00008E0E3EFEE2E10ED22C08B35910514F0DD
:1034E000835B910997FF03C09195819591098A317A
:1034F000910564F40A977CF008E075EFE72E12EE70
:103500000EC007E068EFE62E19ED09C007E05BEF9B
:10351000E52E1BEE04C009E04DECE42E16EC6091A4
:10352000300670913106072E000C880B990B0E9413
:103530004D34A601950150580E9470350E942736DF
:1035400020E030E040EA50E40E94703520E030E0B6
:1035500040E951E40E9470355B016C0120E030E0ED
:10356000A9010E94633520E030E040E05FE387FD81
:1035700005C0C601B5010E94BB3204C0C601B50139
:103580000E94BA320E9415349DE2892E860E2EEBDF
:10359000C22EDD24DA9432E1A32EB12C202E000FAE
:1035A00033080AEF0E0D6091320670913306072E34
:1035B000000C880B990B0E944D34A30192010E94CC
:1035C00070350E9427369B01AC01B6010D2C000C12
:1035D000880B990B2B833C8349835A830E944D347B
:1035E0002B813C8149815A810E9470350E9415349B
:1035F000680D8FEF860F8A35A8F5E62FF0E0CF0132
:103600000197B5010E94A336E62E2EEE2603A001F7
:10361000279F500D11244E0F5F1F4F5F5F4F57FFC5
:1036200002C04F5F5F4F9A0135952795992D961BE4
:10363000422F410F64E0690F8F2D2B833C839983C8
:103640000E94FE072B813C8199812215330554F09D
:1036500084E0E81639F0422F400F63E0690F8F2DA8
:103660000E94FE072CE0C20ED11CF3948EE4C81613
:10367000D10409F098CF0F900F900F900F90DF9129
:10368000CF911F910F91FF90EF90DF90CF90BF905F
:10369000AF909F908F907F906F905F904F903F90F2
:1036A0002F90089566E089E00C94001A0F931F9301
:1036B000CF93DF93D82FC62F8091250781116CC03F
:1036C00060913B0670913C0680913D0690913E06CC
:1036D0000E944D349B01AC0160919E0670919F0643
:1036E0008091A0069091A1060E943A3321EE3EE21D
:1036F00045E652E40E9470350E9415346A50710903
:103700002DE2269FC001279F900D11246AE070E0F2
:103710000E94A336CB01469669E070E00E94A33672
:10372000633180F400ED081B1C2F160F402F612F12
:103730008CE08D0F0E94FE07402F612F81E08D0FDE
:103740000E94FE0720913A0630E08091210190917D
:103750002201281B390B48E4429FC001439F900D72
:1037600011246AE070E00E94A336CB01849666E0E3
:1037700070E00E94A3366D3008F04AC01FEB180FAE
:10378000D60F64E06C0F412F8D2F0E94FE0761E081
:103790006C0F412F8D2F36C0E0918806F09189067D
:1037A0003496659175918591949120912A06309176
:1037B0002B0640912C0650912D060E94703520E07A
:1037C00030E040EA50E40E94BB322DEC3CEC4CE887
:1037D00050E40E9470350E941534862F9FEF960F9B
:1037E0009B3238F469E00E9481364FEC491BC80FC8
:1037F00006C06C321CF0CC5F4EE201C04FEC6C2F67
:1038000086E08D0FDF91CF911F910F910C94FE07F1
:10381000DF91CF911F910F9108952F923F924F9278
:103820005F926F927F928F929F92AF92BF92CF9250
:10383000DF92EF92FF920F931F93CF93DF93CDB759
:10384000DEB728970FB6F894DEBF0FBECDBF382E77
:10385000262E88E0E0E4F1E0DE01119601900D9261
:103860008A95E1F760912E0670912F06072E000CC5
:10387000880B990B0E944D3420E030E044EB51E47A
:103880000E94BB3220E030E044E352E40E94A333C4
:103890000E9415348B016830710514F000E010E0CF
:1038A000E0903806F0903906C0903606D090370682
:1038B000C701F7FE04C0882799278E199F096AEF70
:1038C00070E00E94A336362F272FC601D7FE04C012
:1038D000882799278C199D096AEF70E00E94A3360A
:1038E000832F922F861797070CF4CB01BC016F5FD3
:1038F0007F4F7093D6046093D504072E000C880B7D
:10390000990B0E944D342B013C01B601DD0C880B54
:10391000990B0E944D344B015C012CEB34E743E9D9
:103920005CE3C301B2010E94A3339B01AC01C5015A
:10393000B4010E94A3330E941534A62EB701FF0CD8
:10394000880B990B0E944D346B017C0122E430E618
:1039500045EE5CE3C301B2010E94A3339B01AC01BD
:10396000C701B6010E94A33320E030E040E05FE3EE
:103970000E94BB320E941534F62EE1E0F0E0EC0F1D
:10398000FD1FE00FF11F6080722C7A18E32CE60E09
:10399000462D672D8E2D0E94FE0780916E0783FFB6
:1039A00039C08091B804F81639F00EEB14E090ECB1
:1039B000492E94E0592E05C08091B904A812F5CF84
:1039C00015C0F801929182918F01F2019293829336
:1039D0002F01462D672D8E2D0E94FE07F4E0083B37
:1039E0001F0779F7F092B804A092B9040EEB14E027
:1039F00088EBE82E84E0F82EF8018181622D681BA7
:103A0000808144E2830D0E94FE0702501109E016F6
:103A1000F10691F728960FB6F894DEBF0FBECDBF22
:103A2000DF91CF911F910F91FF90EF90DF90CF909A
:103A3000BF90AF909F908F907F906F905F904F90CE
:103A40003F902F900895CF93DF93EC0180916E0704
:103A500082FF1EC065E377E088EF95E00E94322B7D
:103A600065E377E088EF95E00E94322B66E372E031
:103A700088EF95E00E94322B65E377E088EF95E0D0
:103A80000E94322B65E377E088EF95E00E94322BAD
:103A90006D2F81E08C0F0E94001A80916D0787FFC7
:103AA00006C062E06D0F86E08C0F0E940D1CC7FD02
:103AB0000CC062E06D0F86E08C0F0E94D70763E3B5
:103AC00072E088EF95E00E94322B80916E0780FFB4
:103AD00006C06D2F8C2FDF91CF910C94561BDF9178
:103AE000CF910895E091D40435E0E39FF0011124D3
:103AF000E355FC4F9491915020911A016091C804B4
:103B00007091C90487FF03C0222339F004C08823C1
:103B100011F0921721F0280F03C0292F01C020E0D7
:103B2000FB013EE0239FE00DF11D112434964591E9
:103B30005491452B39F320931A0180911B01846025
:103B400080931B01089521E020931A019091D404E1
:103B500087FF05C091110AC02093D4040AC08823AE
:103B600029F0913019F41092D40403C0890F809386
:103B7000D40480911B01846080931B0108952F92CF
:103B80003F924F925F926F927F928F929F92AF92ED
:103B9000BF92CF92DF92EF92FF920F931F93CF933A
:103BA000DF93CDB7DEB72B970FB6F894DEBF0FBE0D
:103BB000CDBF9091D404892E912C85E0989F9001DF
:103BC0001124F901E555FC4F859194919093C90416
:103BD0008093C804F901E355FC4F94919A87809132
:103BE000CE049091CF04892B21F58091CC04909143
:103BF000CD04892BF1F48091CA049091CB04892BD8
:103C0000C1F480918A0690918B069093CF048093A3
:103C1000CE0480918C0690918D069093CD04809374
:103C2000CC0480919006909191069093CB04809360
:103C3000CA04C12CD12CF12CBA85FB1609F496C00C
:103C4000EE24E394EF0C6E2D81E00E94D7070091E3
:103C5000C8041091C9040C0D1D1DF80165917491E3
:103C600088EF95E00E94322B6E2D83E10E94D707EA
:103C700080911A01F81206C08EE30E94DF07B0900F
:103C80006B0403C080E20E94DF07F8013296849142
:103C9000319624912A83833669F1C8F4811105C0D5
:103CA000AEE0CA0ED11CFE2CC7CF823609F04DC043
:103CB000F8013496A591B4916C9170E080E090E0A9
:103CC0000E944D342B013C013A81632F23C086367C
:103CD00079F1883609F039C00E94B807882319F0B5
:103CE0006CE671E002C064E671E088EF95E00E9446
:103CF000322BD6CFF8013496A591B4916C91062E53
:103D0000000C770B880B990B0E944D342B013C0162
:103D10002A81622F70E080E090E00E944B349B018A
:103D2000AC01C301B2010E94A3332B013C010DC0C1
:103D3000F8013496A591B4914C9011965C9011972E
:103D400012966C90129713967C9080911A01F8123B
:103D500004C0A42C352C262C7982F8013896859144
:103D60009491A201B3010E9460119ACF85E0889DD1
:103D7000F001899DF00D1124E255FC4F859194913D
:103D8000009711F0FC0109950E94EE300091D004DB
:103D90001091D1042091D2043091D3040617170753
:103DA0002807390708F003C264EF71E080ED94E062
:103DB0000E941D0A80911B01846080931B018091E9
:103DC0008C0690918D062091CC043091CD04AC01ED
:103DD000445651092417350710F481E006C08C5968
:103DE0009F4F82179307D8F48FEF2B960FB6F89456
:103DF000DEBF0FBECDBFDF91CF911F910F91FF901E
:103E0000EF90DF90CF90BF90AF909F908F907F907A
:103E10006F905F904F903F902F900C94721D809107
:103E20009006909191062091CA043091CB04AC0188
:103E3000445651092417350710F481E006C08C5907
:103E40009F4F82179307D8F48FEF2B960FB6F894F5
:103E5000DEBF0FBECDBFDF91CF911F910F91FF90BD
:103E6000EF90DF90CF90BF90AF909F908F907F901A
:103E70006F905F904F903F902F900C94A31D609196
:103E80001A016F5F8B2D0E94D70780911A01009154
:103E9000C8041091C904FEE08F9F000D111D11246C
:103EA0002091CE043091CF043D832C8380908A06EC
:103EB00090908B067901E818F908F7FE03C0F19499
:103EC000E194F108F8013496C590D490F8013A963F
:103ED000859194919F838E83F8013C96A591B4912E
:103EE000B987A887F8013296B491BA8331962491A4
:103EF0002B83B23608F454C0B43618F0B63691F1BC
:103F00004FC03DE2E31631E0F306A4F0AB816A2F27
:103F100070E080E090E00E944B349B01AC0160E0D7
:103F200070E080E291E40E94A3332B013C01B1E0F8
:103F3000BA8762C0E7E9EE16F104B4F1FB816F2F96
:103F400070E080E090E00E944B349B01AC0160E0A7
:103F500070E080E89FE30E94A3332B013C0121E045
:103F60002A873CC031E9E31631E0F306ECF58DE237
:103F7000E81681E0F806F4F499ECE916F10424F56A
:103F8000A5E6EA16F1040CF4CDC09FE6492E92E1B5
:103F9000592E93E8692E9AE3792E34E03A872CC0A3
:103FA000412C512C32011AC0412C512C3201B1E06C
:103FB000BA8714C03DEC432E3CEC532E652C3DE3F8
:103FC000732EE4E0EA870AC02AE0422E27ED522E43
:103FD00023E2622E2CE3722EF4E0FA8725E6E21645
:103FE000F1040CF461C008C0412C512C80E8682E0B
:103FF0008FE3782EF4E0FA878C819D8188169906EC
:1040000060F4A30192016A2D732D822D99810E9483
:10401000BA32B62EE72EF82E04C0BA2CE32CF22CBE
:1040200099819B87AC81BD81A815B90560F4A30176
:1040300092016B2D7E2D8F2D9B850E94BB32B62E5B
:10404000E72EF82E9B87EE81FF81BF01FF0F880BC3
:10405000990B0E944D343B014C019B01AC016B2D2F
:104060007E2D8F2D9B850E94993387FF04C0B62C2F
:10407000E72CF82C9B8628853985B901330F880BEE
:10408000990B0E944D343B014C019B01AC016B2DFF
:104090007E2D8F2D9B850E946335181654F4B62C07
:1040A000E72CF82C9B8605C0BA2CE32CF22C398126
:1040B0003B872A2D332D422D59816B2D7E2D8F2D3F
:1040C0009B850E949933882309F471C08A818336C5
:1040D000B9F08636D1F1823609F040C0FB816F2FEE
:1040E00070E080E090E00E944D342B2D3E2D4F2D4E
:1040F0005B850E9470350E941C34D6016C932EC0E3
:10410000AB816A2F70E080E090E00E944D342B2D4F
:104110003E2D4F2D5B850E9470350E941534F601AF
:1041200060831CC02A2D332D422D59816A2D732D99
:10413000822D99810E9499338823C9F1BA2CE32CEE
:10414000F22C29812B8734E03A878B2D9E2DAF2DC1
:10415000BB85F60180839183A283B383FA854F2FB9
:1041600050E0B60161527540C6010E94EB0FF801A4
:104170003696859194910097D1F0FC012B960FB65D
:10418000F894DEBF0FBECDBFDF91CF911F910F918D
:10419000FF90EF90DF90CF90BF90AF909F908F9067
:1041A0007F906F905F904F903F902F9009942B9647
:1041B0000FB6F894DEBF0FBECDBFDF91CF911F9138
:1041C0000F91FF90EF90DF90CF90BF90AF909F90B6
:1041D0008F907F906F905F904F903F902F900895B9
:1041E0000F931F93CF930E943E070E94EE302091C1
:1041F0006807253018F024E0209368070091120624
:104200001091130620911406309115060856174F89
:104210002F4F3F4F061717072807390728F4CF916C
:104220001F910F910C94C71780911B0186FBCC271F
:10423000C0F986FD1FC0809116066AE00E9475369F
:1042400080FD18C020E030E048E452E46091B906F7
:104250007091BA068091BB069091BC060E946335AE
:10426000181644F481E091E00E948E15CF911F91C1
:104270000F9108959091680780910F06891718F49F
:104280000E94F31007C0C11105C0CF911F910F917B
:104290000C94BF1D80910D0790910E07CF911F9137
:1042A0000F910C9410172F923F924F925F926F9242
:1042B0007F928F929F92AF92BF92CF92DF92EF92B6
:1042C000FF920F931F93CF93DF931F92CDB7DEB76B
:1042D00056E0652E712C02E010E0EE24EA94FE2CEC
:1042E00078E0A72EB12CE7E08E2E912C5524539424
:1042F00044E0242E312C0E94DC2B882309F43DC39A
:104300000E94EB2B982F1092AC04E091AF04F09137
:10431000B004EA30F10508F0C4C0E85BFF4F0C942C
:10432000F8361092B7041092B6049E3F09F022C3EB
:104330001093B0040093AF041092EB049093EA043E
:1043400089C0863640F08091AD048F5F8093AD04C4
:1043500021E030E022C08093EB041092B10468EEBB
:1043600074E00E9472083092B0042092AF0499C0A9
:104370008093EC0468EE74E00E94720883E090E0A1
:104380009093B0048093AF048CC08093ED0468EEEA
:1043900074E00E94720825E030E03093B00420936E
:1043A000AF047FC08093EE0468EE74E00E94720850
:1043B0007092B0046092AF0474C08093EF0468EE12
:1043C00074E00E9472088091EB04811105C0B092E4
:1043D000B004A092AF0465C09092B0048092AF0484
:1043E00060C0E091B104442443944E0E4092B10465
:1043F000F0E0E051FB4F808368EE74E00E947208A9
:104400008091EB044812B6C2E2CFE091EF04F0E0F5
:10441000E85AFE4F68EE74E0808199830E9472082A
:104420009981492F50E02091E8043091E904332725
:1044300042175307A1F021E030E03093B0042093FD
:10444000AF049E3F09F096C21093B0040093AF04EE
:104450001092EB04F092E904E092E80422C029E013
:1044600030E03093B0042093AF04E091B104F0E069
:10447000E051FB4F15C0282F30E0C090E904D12C4B
:104480002C153D05C1F65092AC0421E030E030938C
:10449000B0042093AF04E091B104F0E0EF50FB4F83
:1044A00090832091AC04213099F48091EC048093A6
:1044B000B2048091B4049091B504009721F4109255
:1044C000B7041092B60401969093B5048093B40497
:1044D0001092AE04222309F444C260E070E082E14D
:1044E00096E00E941D0A20911B0124602860209301
:1044F0001B018091EF04882309F41FC190911106DC
:10450000992321F02091ED04921337C2833209F4EC
:10451000DBC108F07FC08D3109F41BC208F053C025
:10452000813009F427C1883109F01BC28091000550
:1045300090910105A0910205B09103058093260694
:1045400090932706A0932806B09329066091F8045B
:104550007091F9048091FA049091FB040E947A0D05
:1045600060934D0670934E0680934F0690935006CD
:104570006091FC047091FD048091FE049091FF0411
:104580000E947A0D609351067093520680935306F1
:104590009093540680910C0580934B0680910D05F5
:1045A00080934C0680910A0590910B0590934A06E2
:1045B00080934906809104059091050590939B0690
:1045C00080939A06CEC18E3109F43CC1813209F044
:1045D000C8C160910005709101058091020590911C
:1045E00003050E944D349B01AC0160912A06709135
:1045F0002B0680912C0690912D060E94BA320E94C3
:1046000015346093A2067093A3068093A40690933A
:10461000A506A7C18A3409F4C8C008F069C08A3267
:1046200009F44DC18E3309F09CC18091060590912B
:1046300007059093B2068093B1068091080590918A
:1046400009059093B0068093AF066091F0047091D5
:10465000F1048091F2049091F3040E941534709358
:10466000B8066093B7066091F4047091F5048091E8
:10467000F6049091F7040E9415347093B606609387
:10468000B50680910405909105059093B40680933A
:10469000B3068091F8049091F904A091FA04B091C6
:1046A000FB048093AA069093AB06A093AC06B0934C
:1046B000AD068091FC049091FD04A091FE04B091A0
:1046C000FF048093A6069093A706A093A806B09334
:1046D000A9066091000570910105809102059091F5
:1046E00003050E94153470939D0660939C0639C1A2
:1046F000893809F42EC1883A09F033C16091F00479
:104700007091F1048091F2049091F3040E941534A9
:1047100070931D0660931C068091F4049091F5043B
:10472000A091F604B091F70480931E0690931F06A3
:10473000A0932006B093210614C18091F404863022
:1047400009F40FC18091ED04809311068091F50466
:10475000809310068091F004809376068091F60491
:1047600090E0880F892F881F990B80FB26F92093F2
:104770001B01F7C020916D0724FD0CC08091FE0441
:104780009091FF04909387068093860680910E0592
:1047900080937D0626FDE5C080910005909101057E
:1047A0009093830680938206DCC08091F004909100
:1047B000F104A091F204B091F30480932206909347
:1047C0002306A0932406B09325068091F4049091CB
:1047D000F504A091F604B091F70480931806909325
:1047E0001906A0931A06B0931B06809100059091BC
:1047F000010590932F0680932E06809102058093E9
:1048000017068091F8049091F904A091FA04B091F0
:10481000FB0480932A0690932B06A0932C06B0935A
:104820002D068091FC049091FD04A091FE04B091AE
:10483000FF048093550690935606A0935706B093B5
:1048400058068FC021EE3EE245E652E46091F8043E
:104850007091F9048091FA049091FB040E947035E4
:104860000E941534709331066093300621EE3EE2CB
:1048700045E652E46091F4047091F5048091F604E9
:104880009091F7040E9470350E941534709333069E
:104890006093320621EE3EE245E652E46091FC046C
:1048A0007091FD048091FE049091FF040E94703588
:1048B0000E941534709335066093340652C080917F
:1048C000F0048093AE064DC08091F4049091F504FD
:1048D00090938B0680938A068091F6049091F7045A
:1048E00090938D0680938C068091F8049091F90442
:1048F00090938F0680938E068091FA049091FB042A
:1049000090939106809390068091FC049091FD0411
:1049100090939306809392068091FE049091FF04F9
:1049200090939506809394068091000590910105DF
:1049300090939706809396068091020590910305C7
:1049400090939906809398068091050580930E06B2
:1049500008C08091FC049091FD0490937A068093A6
:1049600079060E94DC2B8111C6CC8AEA90E00E9475
:104970004731BCCC2091AC04ABCD0F90DF91CF91EF
:104980001F910F91FF90EF90DF90CF90BF90AF906D
:104990009F908F907F906F905F904F903F902F905F
:1049A00008959F92AF92BF92CF92DF92EF92FF92C3
:1049B0000F931F93CF93DF93CDB7DEB7C054D109C8
:1049C0000FB6F894DEBF0FBECDBF8CB581608CBD35
:1049D0000E94C0076FE571E08CEF95E00E94322BDA
:1049E00000E0E12CF12C10E089E5A82E81E0B82E42
:1049F0009CEFC92E95E0D92E8FEFE816F10411F047
:104A00000CF049C00E94EB2B823338F48033B8F4A9
:104A10008A3091F38D3039F022C0823701F581E080
:104A2000E81AF1081CC088E0981218C01F5FE1E086
:104A3000F0E0EC0FFD1FE10FF11D10820FC0082701
:104A4000E1E0F0E0EC0FFD1FE10FF11D9081990F07
:104A5000813309F49F5F9083939401C0912C1034AB
:104A600059F6BE016F5F7F4FC7010E9430088FEF7C
:104A7000E81AF80A1F920F93BF92AF92DF92CF927B
:104A80000E944C2B0F900F900F900F900F900F9053
:104A900000E010E0B1CFC05CDF4F0FB6F894DEBF8E
:104AA0000FBECDBFDF91CF911F910F91FF90EF907F
:104AB000DF90CF90BF90AF909F900895EAE7F0E02D
:104AC00080818B7F808380818660808308958F9230
:104AD0009F92AF92BF92CF92DF92EF92FF92FC0132
:104AE000C080D180E280F380C701B6010E941534F6
:104AF000072E000C880B990B0E944D344B015C0172
:104B00009B01AC01C701B6010E94BA3220E030E03F
:104B100040E752E40E9470356B017C0120E030E0F8
:104B200048EC52E4C501B4010E9470359B01AC0110
:104B3000C701B6010E94BB3220E030E048EC52E4ED
:104B40000E94A3336B017C010E9415346C547F4F8B
:104B50006936714018F0C12CD12C760120E836E975
:104B600048E15BE4C701B6010E9470350E9415342C
:104B7000FF90EF90DF90CF90BF90AF909F908F907D
:104B800008950F931F93CF93DF938DE496E00E94D7
:104B9000672560930B0170930C0180930D01909336
:104BA0000E0181E596E00E946725609307017093EE
:104BB00008018093090190930A0160912606709183
:104BC000270680912806909129060E944D3420E006
:104BD00030E040E251E40E94A3330E941534CB013F
:104BE000770FAA0BBB0B80930F0190931001A0933A
:104BF0001101B093120120EC3FEC48EF5FE36091AC
:104C000018067091190680911A0690911B060E9451
:104C100070350E94153470931401609313018091D4
:104C200086069091870690931801809317018091D2
:104C3000790690917A06909316018093150110924F
:104C40001901C6E0D1E08E0189910E94DF2AF801A6
:104C5000908180911901890F80931901F1E0C93188
:104C6000DF0789F7DF91CF911F910F910C94DF2A15
:104C700066E970E080E090E00C941F31CF93DF9301
:104C80000FB6F894A89580916000886180936000C9
:104C9000109260000FBE61E086E00E94953162E0F4
:104CA00083E00E94953141E065E879E081E00E946F
:104CB000363084B58C7F84BD83E00E9475310E94BC
:104CC0005E2542E064E978E080E00E94363060E0F2
:104CD00071EE80E090E00E94892B8CEF95E090933C
:104CE0007107809370070E94180765E085E00E94B5
:104CF000D7076BE371E088EF95E00E94322B0E94AA
:104D0000081080913B078F3421F480913C078A3151
:104D100001F161E081E00E94D7071F928FE48F9339
:104D200080913B071F928F938EE191E09F938F9329
:104D300088EF95E09F938F930E944C2B8DB79EB781
:104D400008960FB6F8949EBF0FBE8DBFC0E1D7E2A4
:104D500002C0C4E1D5E080913D07883341F48091E1
:104D60003E07813321F480913F07883381F088E347
:104D700080933D0791E390933E0780933F0743E084
:104D800050E06CE172E08DE397E00E94EB0F8091C0
:104D900066078823B9F0E0916707EE2399F0F0E009
:104DA000EE0FFF1FEC5EFE4F8591949180930006FD
:104DB000882341F061E00E94953160E08091000617
:104DC0000E94D13110920F060E9426100E94AC075B
:104DD0000E9438260E940D08BE01DD0F880B990B3A
:104DE000DF91CF910C941F31E0910301EF5FE093CD
:104DF0000301E770F0E0EE0FFF1FE456FB4F9183D5
:104E0000808388E060E070E08150E82FF0E0EE0FF2
:104E1000FF1FE456FB4F20813181620F731F811108
:104E2000F3CF80E090E00E944B3420E030E040E09F
:104E30005EE30E9470350895CF92DF92EF92FF9269
:104E4000CF9380916D0784FF90C0C0910201CF5F26
:104E5000C093020180E10E947831C770EC2FF0E02E
:104E6000EE0FFF1FE457FB4F9183808388E060E0E3
:104E700070E08150E82FF0E0EE0FFF1FE457FB4F8A
:104E800020813181620F731F8111F3CF80E090E0A8
:104E90000E944B34209143073091440740914507CD
:104EA000509146070E94703529E53EEE49E050E4F6
:104EB0000E9470350E941C3420918606309187062E
:104EC0002115310559F0A901440F551F240F351F35
:104ED000620F731F76956795769567957093870631
:104EE0006093860680911B01846080931B01609112
:104EF00086067091870680E090E00E944B3420E0A7
:104F000030E04AE754E40E94A3336B017C018091B6
:104F10002A076EE10E947536682F70E080E090E00D
:104F20000E944D349B01AC01C701B6010E94A3331E
:104F300023E333E343E550E40E94BA322CEA3AEA31
:104F40004DE853E40E9470350E94153477FF03C08A
:104F500010927D060AC06F3F710529F024F08FEF93
:104F600080937D0602C060937D0680916D0785FF6A
:104F700052C0C0910101CF5FC09301018EE00E9439
:104F80007831C770EC2FF0E0EE0FFF1FE458FB4FB5
:104F90009183808388E060E070E08150E82FF0E04A
:104FA000EE0FFF1FE458FB4F20813181620F731F0A
:104FB0008111F3CF80E090E00E944B3420914707AD
:104FC000309148074091490750914A070E94703537
:104FD00029EA3CEC48E050E40E9470350E941C3401
:104FE00020918406309185062115310559F0A901DB
:104FF000440F551F240F351F620F731F7695679559
:1050000076956795709385066093840680911B0161
:10501000846080931B0180916D0786FF40C0C09122
:105020000001CF5FC09300018FE00E947831C7700C
:10503000EC2FF0E0EE0FFF1FE459FB4F91838083CC
:1050400088E060E070E08150E82FF0E0EE0FFF1F95
:10505000E459FB4F20813181620F731F8111F3CF1F
:1050600080E090E00E944B3420914B0730914C0738
:1050700040914D0750914E070E9470352DE032E36C
:1050800048EC5CE30E9470350E94153470938306EF
:105090006093820680911B01846080931B01809144
:1050A0002F078695813051F070F1823059F08430AD
:1050B000A9F5809198069091990628C081E10E94F7
:1050C000783109C020E23EE440E050E061E081E157
:1050D0000E943632CB010E94F42620914F07309176
:1050E000500740915107509152070E9470350E941D
:1050F0001C3470930D0660930C0680911B01846034
:1051000080931B010BC080910E0690E00E94F42654
:105110000E941C3470930D0660930C06CF91FF9093
:10512000EF90DF90CF9008951F93CF93DF9320915E
:105130000006222329F1E0916607F0E0EE0FFF1F41
:10514000EE56F94F8081918130E0F901E35AF54F35
:105150001491F901EF58F54FE491F0E0EE0FFF1FC5
:10516000E157F54FC591D491F8942881212B2883DC
:105170000E9447318881E12FE095E823E883789405
:10518000DF91CF911F91089580917D066FE171E0CD
:1051900090E00E94340A0E94720A0E94A60B0C94AE
:1051A000F020CF92DF92EF92FF92CF93DF93809126
:1051B0001B0183FD1EC080911C0183FD12C084FD74
:1051C00015C00E94EE30683873418105910520F4C6
:1051D0000E94DC2B811186C080911606837082307C
:1051E00019F40E948E0D07C08330C9F40E94B70DD8
:1051F00002C00E94532180911B0182FF8DC08B7FD2
:1052000080931B010E943B100E94C42880911B01C7
:10521000816080931B0181E0809308067DC081300E
:1052200041F70E94832B0E94EE306B017C0124E643
:10523000C20ED11CE11CF11CDAEFCFEF24EC39E0F7
:1052400040E050E060E080E00E9436326F3F710540
:105250008105910509F064F4662351F06C1708F498
:10526000C62F0E94EE30C616D706E806F90610F0E3
:10527000D15021F7CF3F19F4C091050102C0C0936E
:105280000501CB3078F0C33190F0CD31A8F0C832B1
:10529000C0F0CC33D8F0C639F0F060EC72E180E0B9
:1052A00090E01DC060E072EC81E090E018C060E02A
:1052B00071EE80E090E013C060E076E980E090E07D
:1052C0000EC060E870E780E090E009C060E07BE439
:1052D00080E090E004C060E875E280E090E00E9429
:1052E000892B89CF0E94EB2B8A3011F08D3031F45D
:1052F000809109068F5F8093090602C0109209060B
:1053000080910906843040F0DF91CF91FF90EF90BB
:10531000DF90CF900C94D124DF91CF91FF90EF904C
:10532000DF90CF900895CF92DF92EF92FF920E948C
:10533000EE306B017C01A895809172069091730606
:10534000A0917406B09175068C159D05AE05BF053C
:1053500040F464E170E082E796E00E941D0A0E943A
:10536000942880916E0690916F06A0917006B0917E
:1053700071068C159D05AE05BF0540F464E670E02E
:105380008EE696E00E941D0A0E941C2780916A0604
:1053900090916B06A0916C06B0916D068C159D05E1
:1053A000AE05BF0520F564EF71E08AE696E00E9445
:1053B0001D0A80911B01846080931B010E94C125FE
:1053C00080911C0182FB222720F991E0922790FB1B
:1053D00082F980931C01992351F0809116068F5F0A
:1053E0008093160680911B01806280931B010E94AE
:1053F000D12880911B0180FF0BC08091080681118C
:1054000007C00E940D0880911B018E7F80931B01B5
:10541000FF90EF90DF90CF9008958CEF95E00E9481
:105420007B2B88EF95E00E94FC0641E160E084EC74
:1054300094E00E944B2A60E076E980E090E00C94D2
:105440007A2A1CBC8E7281658CBD8DB581608DBD44
:105450008DB58EB5089561E08DE00E94953161E0D3
:105460008BE00E94953160E08CE00E94953161E014
:105470008AE00E94953180E00C94212A8EBD0DB403
:1054800007FEFDCF8EB508958FE697E00C942B2A8A
:1054900080E008950895CF93C42FFC0113821282F7
:1054A0002AE632E03183208361E0842F0E94D131EB
:1054B00061E08C2F0E9495314C2F50E0FA01E35AA5
:1054C000F54FE491E0937A0780917A078095809375
:1054D0007907FA01EF58F54FE491F0E0EE0FFF1F66
:1054E000E157F54F859194919093780780937707D2
:1054F000CF9108950F939B01AC0121158BE43807E0
:1055000041055105C1F03CF4203885E238074105DA
:10551000510589F015C0211586E938074105510567
:1055200079F481E08093720783EA91E090937607A3
:10553000809375071BC082E08093720708E004C067
:1055400081E08093720701E060E074E284EF90E014
:105550000E94D936CA01B901202F30E040E050E066
:105560000E94D93630937607209375070F910895DE
:105570001F920F920FB60F9211248F939F93EF9368
:10558000FF9380917307E0917707F0917807882364
:1055900029F090917A078081892B04C09091790736
:1055A00080818923808381E080937407FF91EF914C
:1055B0009F918F910F900FBE0F901F901895282FDD
:1055C0008091750790917607009709F447C0809104
:1055D00075079091760710927307AC0148525109F4
:1055E00050938500409384009093890080938800B5
:1055F0001092800080917207886080938100B19A38
:1056000080916F00826080936F0010927407809188
:1056100074078823E1F398E0822F817080937307E9
:10562000269510927407809174078823E1F39150B6
:1056300099F781E080937307109274078091740743
:105640008823E1F310927407809174078823E1F3B3
:1056500010926F001092810081E090E00895862FF3
:105660000C94DF2A0F931F93CF93DF938C01FB01E0
:105670006491EF012196662351F0D801ED91FC91E0
:105680000190F081E02DC8010995FE01F1CFDF9175
:10569000CF911F910F910895CF93DF93CDB7DEB7D0
:1056A0009E01275F3F4F4F81588561E08D819E812C
:1056B0000E942B2CDF91CF9108959091C100892FEA
:1056C000807194FF0EC09091010880910208981398
:1056D00002C080E00895E0910208F0E0E158F84F40
:1056E00080810895E1E0F8E081818083EFEFF7E0C9
:1056F000808181830895FC01138212822AE732E0BF
:10570000318320830895E1ECF0E080818774808309
:105710000895CF93DF9300D000D0CDB7DEB79B01C3
:10572000AC018091C10084FF0AC029833A834B8376
:105730005C830E94832B5C814B813A81298110928A
:1057400000081092FF07109202081092010812162A
:10575000130614061506FCF4211581EE38074105E1
:10576000510529F182E08093C00060E079E08DE38B
:1057700090E00E94D936CA01B901615071098109CE
:10578000910922E030E040E050E00E94D9363093A9
:10579000C5002093C4008091C10088698093C10036
:1057A0000F900F900F900F90DF91CF91089510926E
:1057B000C00020E130E0EBCF9091C100892F8071D3
:1057C00094FF06C08091010890910208891B8F7791
:1057D00008950C94DC2B9091C100892F807194FF67
:1057E00014C09091010880910208981302C080E0D3
:1057F0000895E0910208F0E0E158F84F808190911F
:1058000002089F5F9F779093020808950C94EB2BFA
:105810009091C10094FF18C09091FF079F5F937013
:10582000209100089217E1F3E091FF07F0E0E558BE
:10583000F84F80839093FF078091C100806280932E
:10584000C10081E090E0089580E090E00895862F07
:105850000C94082C08952F923F924F925F926F9272
:105860007F928F929F92AF92BF92CF92DF92EF92F0
:10587000FF920F931F93CF93DF93CDB7DEB763975C
:105880000FB6F894DEBF0FBECDBF7C016C875A0106
:1058900029019E012F5F3F4F3901F5013C8530FD05
:1058A000059130FF01915F01002309F4C5C3053262
:1058B00041F430FD059130FF01915F010532C1F4E3
:1058C0000BC00A3049F4D701ED91FC910190F081B1
:1058D000E02D6DE0C7010995D701ED91FC91019094
:1058E000F081E02D602FC701099542012401D5CF39
:1058F00010E0D12C20E02032A0F40B3269F030F41B
:10590000003259F0033269F420612CC00D3239F0B5
:10591000003339F4216026C02260246023C028604F
:1059200021C027FD28C080ED800F8A3078F426FF43
:1059300006C0BAE01B9F800D1124182F13C0EAE0A7
:10594000DE9E800D1124D82E20620CC00E3221F470
:1059500026FD72C3206406C00C3611F4206802C014
:10596000083649F4F5013C8530FD059130FF019181
:105970005F010111C0CF8BEB800F833018F42061E1
:10598000005E06C08BE9800F833008F09BC12F7E3C
:1059900026FF16E02F73322E053619F42064322EBE
:1059A00008C0063621F4822F8068382E02C01111FB
:1059B000115037FE06C01C3350F4CC24C394C10EE2
:1059C00008C0183040F0C12C27E017E006C04CE3B7
:1059D000C42E27E002C0212FC12C420194E0890E81
:1059E000911CD2016D917D918D919C910C2DA30103
:1059F0000E947E052C01098100FF02C003FF07C041
:105A000031FC08C032FE09C030E2232E07C02DE26F
:105A1000222E04C09BE2292E01C0212C802F8C70E5
:105A200019F02110C5C2CAC237FE0FC0C40C04FF52
:105A300004C08A81813309F4CA941C1474F5B8E057
:105A4000BC1578F588E0C82E2CC036FC2AC0812F02
:105A500090E08415950544F0ECEF4E16EFEF5E06EE
:105A60001CF0F32DF0683F2E112359F0E2E0F0E036
:105A7000EC0FFD1FE10FF11D8081803311F41150F7
:105A8000F3CF37FE0EC0CC24C394C10E812F90E01B
:105A9000481659062CF4141904C0CC24C39401C030
:105AA00010E037FE06C01414150434F4C201019648
:105AB00005C085E090E002C081E090E021100196F1
:105AC000112331F0212F30E02F5F3F4F820F931FC2
:105AD0002D2D30E08217930714F4D81A01C0D12C71
