:10000000D3C500000C9411210C94B721F5C5000054
:10001000F3C50000F1C50000EFC50000EDC500000C
:10002000EBC50000E9C50000E7C50000E5C500001C
:10003000E3C50000E1C50000DFC50000DDC500002C
:100040000C948E28D9C500000C94F80F0C941E1047
:10005000D3C50000D1C50000CFC50000CDC500004C
:10006000CBC50000C9C500006F186F187D1889182E
:100070009E18B818E118F5181319084AD73B3BCE5B
:10008000016E84BCBFFDC12F3D6C74319ABD568397
:100090003DDA3D00C77F11BED9E4BB4C3E916BAA4F
:1000A000AABE000000803F05A84CCDB2D44EB9389E
:1000B00036A9020C50B9918688083CA6AAAA2ABE85
:1000C000000000803F0664EC1B3C04BC163E3BE590
:1000D000B93CC93C37C29E5A3D660498083EEA695D
:1000E000AAAA3E000000803F03020100536372652C
:1000F000656E20300046440A00434425640A0052DD
:1001000046460A004D697373696E672F4F6C642011
:10011000436F6E6669673A202564206D7920373910
:10012000004D696E696D4F53442D4578747261209E
:10013000322E347C756E69207225642044567C0012
:10014000100E0F1120284E545343290020285041EF
:100150004C290025372E32660025362E3166009157
:1001600025372E326600A125372E32660053010B4B
:1001700068B6050059018F688E050059011473AEE9
:10018000050059011D73A6050059011268AA050052
:100190005F0190769E05006601A0769A05005901E0
:1001A000BD61A20500000000000000004E6F206944
:1001B0006E70757420646174612120257500B8B972
:1001C0000025346905070025346905060025352E0C
:1001D00032660D00253269006F7665726C6F61645E
:1001E0000053747265616D0066726F7A656E0025EA
:1001F000342E3066010025322E3066252500256319
:1002000025638E25342E30660100256325638E25F7
:10021000322E306625250025346905007C20CECE9F
:10022000CECE60CECECECE200040CB242020207C6F
:10023000007C20202024CB008280818081808480EB
:1002400081808180838081808180858081808180A0
:1002500020C8C8C8C87EC8C8C8C8207C00202020C4
:1002600024CBB8B9CB242020207C0025336905009D
:1002700020586525342E30660025342E3066002542
:100280003269200025352E30660025332E30692551
:10029000250025352E32660E0025332E30660025CA
:1002A000322E3066002520352E3166180025203587
:1002B0002E326618005225332E3066050050253345
:1002C0002E306605004825332E3066050042253560
:1002D0002E316605004525352E3166004525342E24
:1002E00030666D00734525352E316600B5026E69A6
:1002F000880500BD026E69860500C5026E69840529
:1003000000CD025469820500D50241687D0500DCFC
:10031000025869730500E40241737905000000008A
:10032000000000002533690025303269002020904C
:10033000910025352E3166004325642535697C0002
:1003400025342E31660025342E326600432569207F
:100350000025690025346400B0B1B4B5B6B77B7D23
:10036000151B1C00015C0A0002550A00034315BC62
:10037000842C152605500C0007770C00188B0D00F7
:1003800006441600080F0D00090E1C00251213006C
:100390000B5E110B0A660B00191B0E000DD5155CC8
:1003A0001104151116861112126A1314175C131317
:1003B000134F0A0214240A7F0F7E0ABD1B80151DED
:1003C0001C270E151D0F13000E1D0A091EBE13005B
:1003D00021B20A0020A10B002255118F247E131F89
:1003E0002B780A1F2CA610002D8010002F63100000
:1003F000A7880D00A8850D00A9820D00AA7F0D0019
:100400001F6E0B0026F30B009A98110000000000ED
:10041000E8040C0000A20405EA0F240409C5090041
:1004200000000000D50500000000000000000000F2
:100430000000CC057301800200009C05C0E0401F55
:10044000C3057301840200009C059CFF6400BA058B
:100450007301000000009C05C0E0401FC30573014C
:10046000000000009C059CFF6400AC0573010000C7
:1004700000009C05C0E0401FC305730100000000A0
:100480009C059CFF6400A1057301000000009C0511
:10049000C0E0401FC3057301000000009C059CFFE5
:1004A00064001A0668000000000000000000000060
:1004B00000066601E90500009C05FCFF04000D062E
:1004C0006601ED0500009C05FCFF0400E4056601E3
:1004D000F10500009C05FCFF0400F2056601F5052E
:1004E00000009C05FCFF0400CD0600000000000099
:1004F000000000000000BD06620AC005000095056E
:100500000000FF00AE06620AF90500009505000034
:10051000FF00A0066201BF05000090050000FF007B
:100520008E066201BE05000090050000FF007D06FA
:100530006201C605000090050000FF007006620120
:10054000C705000090050000FF00600600000000E5
:10055000000000000000000052066201FE050000DD
:1005600090050100040049066201BD05620990057D
:100570000000030039065A01FB0562099005E1FFFE
:100580001F002B067A01FA0562099005F1FF0F00A2
:10059000252E30660025332E31667600252E3366F3
:1005A000003420285253534929204B00332028433C
:1005B000757272656E7429204B00322028563229DC
:1005C000204B0020202020202020410031202856D0
:1005D0003129204B0020202050696E2053656E7316
:1005E0006F727300526F6C6C2020696E204E5453F2
:1005F0004300506974636820696E204E5453430071
:10060000526F6C6C2020696E2050414C0050697410
:10061000636820696E2050414C002020486F726949
:100620007A6F6E20616E676C6573005665727469CF
:1006300063616C206F66667300486F72697A6F6ED3
:1006400074616C206F66667300436F6E74726173C1
:10065000740053637265656E7320436F756E74002A
:10066000202053637265656E20706172616D730046
:1006700052535349207761726E696E67004261740C
:100680007420636861726765207761726E004F76CF
:1006900065727370656564207761726E696E67005C
:1006A0005374616C6C207761726E696E6700426191
:1006B00074742032207761726E696E6700426174D3
:1006C00074657279207761726E696E6700202020F0
:1006D0004F534420736574757000696E6974008BA4
:1006E00007360731072C07270722071D07E7071AD8
:1006F00007150712070F07F107E2070C070807772E
:1007000007030761746F6600706F69007070007096
:100710006100686C00706F737200636C00737462C8
:10072000360073746235007374623400737462331C
:1007300000737462320073746231008B07EC070E31
:10074000088607090881077C0777077207D307FF28
:1007500007F107F507D307D307FA07DA066D07682D
:10076000076307716C6F690071686F76007173744D
:1007700062006174756E006372757A0066627762FA
:1007800000666277610074726169006D616E750068
:100790000E0809080408FF07FA07F507F107EC0738
:1007A000E707E207DD07D807D307CE07C907C40765
:1007B000BF07BB07B607746872770062726B006888
:1007C0006F6C640074756E6500666C6970007370A0
:1007D0007274006D5F25640064726966006F666CF8
:1007E0006F006C616E6400706F73680063697263A0
:1007F0000072746C006C6F697400677569640061E5
:1008000075746F00616C7468006163726F0073745B
:1008100061620050084308320823088A087D086E88
:10082000085F080325392E356625630425392E35E2
:100830006600032531302E36662563042531302EBF
:1008400036660025392E3566256325392E35660036
:100850002531302E366625632531302E366600036D
:100860002530356C642563042530356C6400032520
:1008700030366C642563042530366C6400253035D1
:100880006C6425632530356C64002530366C642536
:10089000632530366C640015090B09FF08F208E681
:1008A00008D908CD08C208B608AB0846656E63656E
:1008B00020466172210046656E636520486967685D
:1008C000210046656E6365204C6F7721004261749C
:1008D000742042206C6F7721004869676820565366
:1008E00070656564210020204C6F77205273736916
:1008F000210042617474657279204C6F7721002069
:100900004F76657253706565642100202020537412
:10091000616C6C2100204E6F20475053206669782F
:10092000210000070E091C1B1215383F3631242305
:100930002A2D70777E796C6B6265484F464154531F
:100940005A5DE0E7EEE9FCFBF2F5D8DFD6D1C4C38F
:10095000CACD90979E998C8B8285A8AFA6A1B4B37F
:10096000BABDC7C0C9CEDBDCD5D2FFF8F1F6E3E4EF
:10097000EDEAB7B0B9BEABACA5A28F8881869394DF
:100980009D9A2720292E3B3C35321F18111603044F
:100990000D0A5750595E4B4C45426F68616673743F
:1009A0007D7A898E878095929B9CB1B6BFB8ADAA9F
:1009B000A3A4F9FEF7F0E5E2EBECC1C6CFC8DDDA9F
:1009C000D3D4696E676075727B7C51565F584D4A0F
:1009D0004344191E171005020B0C21262F283D3AFF
:1009E00033344E49404752555C5B7671787F6A6D6F
:1009F00064633E39303722252C2B0601080F1A1D5F
:100A00001413AEA9A0A7B2B5BCBB9691989F8A8DCE
:100A10008483DED9D0D7C2C5CCCBE6E1E8EFFAFDBE
:100A2000F4F352B80E4085EB51401966BB001280BA
:100A30000C1CA0141E666666400000803F100CBAB5
:100A4000000A00001BE8031A000000080002010071
:100A50000003040700000000000000000102040879
:100A60001020408001020408102001020408102018
:100A70000404040404040404020202020202030344
:100A800003030303000000002300260029000000E8
:100A90000000250028002B00000000002400270093
:100AA0002A006E616E00696E660000407A10F35A8B
:100AB00000A0724E18090010A5D4E80000E876489E
:100AC000170000E40B54020000CA9A3B000000E14A
:100AD000F505000080969800000040420F000000DD
:100AE000A08601000000102700000000E8030000BD
:100AF00000006400000000000A0000000000010087
:100B0000000000002C76D888DC674F0823DFC1DFA7
:100B1000AE59E1B1B796E5E3E453C63AE6519976AA
:100B200096E8E6C28426EB898C9B62ED407C6FFCE4
:100B3000EFBC9C9F40F2BAA56FA5F490055A2AF726
:100B40005C936B6CF9676DC11BFCE0E40D47FEF52F
:100B500020E6B500D0ED902E030094357705008097
:100B6000841E080000204E0A000000C80C333333F6
:100B7000330F986E12831141EF8D2114893BE65596
:100B800016CFFEE6DB18D1844B381BF77C1D901D79
:100B9000A4BBE424203284725E228100C9F124ECDB
:100BA000A1E53D27E308E82411241FBECFEFD8E0DC
:100BB000DEBFCDBF11E0A0E0B1E0E2EFF6E602C09B
:100BC00005900D92AC32B107D9F726E0ACE2B1E066
:100BD00001C01D92A639B207E1F715E0C4EDD5E0DA
:100BE00004C02197FE010E941533C23DD107C9F709
:100BF0000E94D72A0C940F2F03CACF92DF92EF9254
:100C0000FF920F931F93E82FF92F05C00150110990
:100C10002109310961F1908196239417B9F305C038
:100C2000015011092109310911F190819623941382
:100C3000F7CFC12CD12CE12CF12C0AC08FEFC81AB0
:100C4000D80AE80AF80A0C151D052E053F0579F0AB
:100C500080818623841791F36C2D7D2D8E2D9F2D01
:100C60001F910F91FF90EF90DF90CF90089560E07B
:100C700070E080E090E01F910F91FF90EF90DF9087
:100C8000CF900895FA01AA27283051F1203181F13F
:100C9000E8946F936E7F6E5F7F4F8F4F9F4FAF4F84
:100CA000B1E03ED0B4E03CD0670F781F891F9A1F97
:100CB000A11D680F791F8A1F911DA11D6A0F711D4B
:100CC000811D911DA11D20D009F468943F912AE057
:100CD000269F11243019305D3193DEF6CF0108953F
:100CE000462F4770405D4193B3E00FD0C9F7F6CF70
:100CF000462F4F70405D4A3318F0495D31FD405238
:100D0000419302D0A9F7EACFB4E0A69597958795CD
:100D100077956795BA95C9F70097610571050895AC
:100D20009B01AC010A2E0694579547953795279558
:100D3000BA95C9F7620F731F841F951FA01D0895F0
:100D4000283008F027E03327DA01990F311D87FD9D
:100D5000916000966105710539F432602E5F3D9314
:100D600030E32A95E1F708959F3F30F08038710510
:100D7000610509F03C5F3C5F3D93913008F080686D
:100D8000911DDF93CF931F930F93FF92EF92192F33
:100D9000987F9695E92F96959695E90FFF27EC5F3A
:100DA000F44F99273327EE24FF24A701E70105908C
:100DB0000894079428F4360FE71EF81E491F511DAA
:100DC000660F771F881F991F0694A1F70590079457
:100DD00028F4E70EF81E491F561FC11D770F881F04
:100DE000991F661F0694A1F70590079428F4F80E42
:100DF000491F561FC71FD11D880F991F661F771FD8
:100E00000694A1F70590079420F4490F561FC71FB9
:100E1000D81F990F661F771F881F0694A9F7849122
:100E20001095177041F0D695C79557954795F7944B
:100E3000E7941A95C1F7EAEAFAE0689415901591DB
:100E400035916591959105907FE27395E118F10ACE
:100E5000430B560BC90BD009C0F7E10CF11E431F21
:100E6000561FC91FD01D7EF4703311F48A95E6CF4A
:100E7000E894015030F0080F0AF40027021708F434
:100E8000202F2395022F7A3328F079E37D932A953A
:100E9000E9F710C07D932A9589F606949795679592
:100EA000379517951794E118F10A430B560BC90BA8
:100EB000D00998F023957E9173957A3308F070E30A
:100EC0007C932013B8F77E9170617D9330F0839509
:100ED00071E37D9370E32A95E1F71124EF90FF9081
:100EE0000F911F91CF91DF91992787FD90950895DC
:100EF00080E008950895FC011382128220E131E020
:100F00003183208308958EBD0DB407FEFDCF8EB5CD
:100F10006EBD0DB407FEFDCF8EB508958EBD0DB428
:100F200007FEFDCF8EB58FEF8EBD0DB407FEFDCF52
:100F30008EB50895882311F080E401C080E090917F
:100F40000E03891749F080930E035E9860910E039B
:100F50006C6180E0D8DF5E9A08955E988091040607
:100F600081FD06C08091030683FF19C081E018C08F
:100F700080EAD4DF80FF06C081E0DCDF80910306D9
:100F8000886007C081FF08C080E0D4DF809103063D
:100F9000877F8093030605C082FDE4CF02C080E016
:100FA000C9DF5E9A0895CF93DF93E091BD05E430E9
:100FB00008F0E0E0F0E0E851FF4FC49180E1D1E0BB
:100FC000D80F6C2FA0DF8D2FD032C9F7DF91CF91D2
:100FD00008955E98E8DF6091FB0582E094DF609100
:100FE000FA0583E090DF5E9A0895CF935E988CEEC9
:100FF00095DFC82F60910E03626080E084DF0E945D
:101000008B216C2F6F7E8CE67EDF62E18CE07BDFD4
:1010100060910E036C6380E076DF0E948B2160910B
:101020000E036C6180E06FDFD4DFCF91089561E043
:1010300086E00E945C2962E082E00E945C298DDFEC
:10104000D4CF20910F038091100390E03EE1239FC5
:10105000800D911D112490932D0180932C010895F2
:101060008F73809310036F7060930F0380910E0352
:10107000803411F0673008F4E4CF635060930F03BD
:10108000FBCF8F3F79F020912C0130912D01A901E8
:101090004F5F5F4F50932D0140932C01F901E25DAA
:1010A000FE4F808308958C3731F480910F038F5F5A
:1010B00080930F03C6CFE5CF862FF5DF81E090E068
:1010C0000895A1E0B0E0E7E6F8E00C943A334983F4
:1010D000C7DF4981842FE7DF2196E2E00C94563385
:1010E0005E9860E085E00FDF60E086E00CDF61E0A5
:1010F00084E009DF5E9AEEE2F1E080E25E989081A2
:101100009EBD0DB407FEFDCF9EB581935E9A93E020
:10111000EE30F90799F75E988FEF8EBD0DB407FE9C
:10112000FDCF8EB55E9A0895A1E0B0E0EAE9F8E05F
:101130000C943633182FF62E5E9860E080E07983A9
:10114000E2DE612F89E0DFDE0F2D7981172FE12CA0
:10115000F801F1908F016E2D8AE0D5DE6F2D8BE0C6
:10116000D2DEE394F6E3EF12F3CF60EA88E0CBDE61
:1011700080EAD4DE85FF03C00E941C18F9CF6CE022
:1011800080E0C1DE5E9A2196E6E00C9452331CBCEE
:101190008F7280658CBD8DB581608DBD8DB58EB52E
:1011A000089561E08DE00E945C2961E08BE00E947F
:1011B0005C2960E08CE00E945C2961E08AE00E948A
:1011C0005C2980E0E4CF81E193E0EBCFE82FF0E011
:1011D000EE0FFF1FED59FA4F20813181662329F070
:1011E00040E253E088E998E004C048EE53E080ED27
:1011F00097E02417350780F0241B350B841B950BD3
:1012000065E070E00E94B032C9010E94B032862FC2
:10121000653018F084E0089580E00895E0917B0443
:1012200035E0E39FF0011124EE5EFB4F9491915065
:1012300020910501609171047091720487FF03C0D1
:10124000222339F004C0882311F0921721F0280FCF
:1012500003C0292F01C020E0FB013EE0239FE00DE9
:10126000F11D1124349645915491452B39F3209367
:10127000050181E0809397040895A3E6B5E0E3E7D4
:10128000F4E080819181883E934028F48D919C9177
:101290001197918380833296129684E0EB37F8079A
:1012A00081F7089590E0880F991FDC01AD59BA4F7E
:1012B000FC01ED58FB4F8D919C9120813181821B67
:1012C000930B089586CE0895692FCACEEF92FF92B0
:1012D0000F931F93CF93DF937C01E40EF51EEC0177
:1012E0008B01081B190BCE15DF0539F0C8018C0FD7
:1012F0009D1F0E9461338993F6CFCDB7DEB7E6E03C
:101300000C945233A8E1B0E0E8E8F9E00C943933EA
:10131000182F88E1189FB001112460587D4F48E1D3
:1013200050E0CE010196D2DFE12FF0E0EE0FFF1F7B
:10133000EB57FB4F6081718180E090E00E948E301E
:1013400029813A814B815C810E94A9312D813E81A6
:101350004F8158850E94282F9F938F937F936F937F
:10136000CE0109969F938F938DE694E09F938F9380
:101370000E94AE2B0FB6F894DEBF0FBECDBF6896AD
:10138000E3E00C9455338CE78ECECF936AE086E091
:1013900067DEC0E08C2FB6DFF6DFCF5FC430D1F759
:1013A000CF91089580E27FCECF93813110F08051AC
:1013B000FCCF811101C080E1880FCEEFC80F80E91A
:1013C0008C0F71DE81E98C0F6EDECF9108957F93D3
:1013D0006F939F938F938DE694E09F938F930E94DA
:1013E000BE2B0F900F900F900F900F900F900895BD
:1013F0001F93CF93DF93EC01162F6CE370E00E94F4
:10140000B03284E293E0E3DF112331F08091A00455
:10141000882311F080E201C08AE345DECE016CE34F
:1014200070E00E94B032BC0188E293E0D0DFDF912F
:10143000CF911F91089560E0DBCF6091E20470913D
:10144000E30484E293E0C3CF8091980482FD08C056
:101450008091BB05882341F083E1E0E9F7E007C014
:1014600082E1EFEDF6E003C084E1EBE3F7E0909179
:101470005505692F70E0981740F4CB01880F991F2C
:10148000E80FF91F8591949102C083ED97E09FDFEB
:1014900080919D04882311F086E805CE089560911F
:1014A000FA0470E08AE892E092CF60910B057091A7
:1014B0000C0587EC91E08BCF6091090570910A05CE
:1014C00081EC91E084CF7F936F935F934F939F93D1
:1014D0008F938DE694E09F938F930E94BE2B8DB7E0
:1014E0009EB708960FB6F8949EBF0FBE8DBF0895A5
:1014F00040E050E0BA0186E493E0E5CF60915B05FF
:1015000070915C05072E000C880B990B0E9490309F
:101510002AE037ED43E25CE30E94A931AB01BC0154
:1015200082E992E0D0CFA1E0B0E0E9E9FAE00C94E2
:101530003A337F936F935F934F939F938F938DE68F
:1015400094E09F938F9329830E94BE2B2981822F41
:10155000AADD0FB6F894DEBF0FBECDBF2196E2E044
:101560000C945633CF938091610590916205FC01F4
:101570003A96C4913296E491FC013D96659174913E
:1015800080E090E00E948E302AE037ED43E25CE399
:101590000E94A931AB01BC012C2F82E393E0C3DF91
:1015A000CF9108957F936F935F934F93E7E0F1E0BE
:1015B00021811F922F9320811F922F939F938F93AE
:1015C0008DE694E09F938F930E94BE2B8DB79EB7BC
:1015D0000C960FB6F8949EBF0FBE8DBF0895E8E23B
:1015E000F5E027812F9326812F9325812F93248146
:1015F0002F931F926F9323812F9322812F93218109
:101600002F9320812F939F938F938DE694E09F9348
:101610008F930E94BE2B8DB79EB70E960FB6F8948F
:101620009EBF0FBE8DBF0895EF92FF920F931F9341
:10163000CF93DF93EB017C018B01040F151FC017C3
:10164000D10741F0F70161917F01CE010E9469331A
:101650002196F5CFCDB7DEB7E6E00C9452330E9469
:10166000272F20EC3BE649ED57E40C94A931CF92AB
:10167000DF92EF92FF92CF93C42F6B017C01E8942D
:10168000F7F8C701B6010E945D30072E000C880BE9
:10169000990B0E9490309B01AC01C701B6010E94DA
:1016A000272FC11105C020E034E244E759E404C00B
:1016B00020E030E543EC57E40E94A9310E945D3000
:1016C000CF91FF90EF90DF90CF9008958091A1048B
:1016D00082FF03C08091130567CE08958091F804BE
:1016E0009091F9048F739927029730F468EC75E0B4
:1016F0008DE694E00C948A2A0895CF93C42F28EEA7
:1017000033E040E050E00E94D7326C2FC90170DE18
:10171000CF9108957F936F939F938F9388E393E086
:101720009F938F938DE694E09F938F930E94BE2B9F
:101730008DB79EB708960FB6F8949EBF0FBE8DBFAB
:1017400008950F931F93CF93DF9303E615E0C1E055
:10175000D0E0F801619171918F01CE01DBDF21961C
:10176000C930D105B1F7DF91CF911F910F91089545
:10177000A2E0B0E0EEEBFBE00C9433338C01F80117
:10178000B4903196E590F490E114F10441F1809128
:10179000EF046B2D6F7770E0660F771FF0E88F9F77
:1017A000600D711D112442E050E0CE0101968EDDE6
:1017B000C980DA80C60188DDD7FC09C0C7FC09C032
:1017C000F80133968491882321F06DDC02C0B7FEC6
:1017D00003C0C601F70109950C5F1F4FD0CF2296B9
:1017E000E9E00C944F330F931F93CF93DF93209135
:1017F000AD04222309F44DC04091AB045091AC04D8
:101800002091F8043091F9044217530709F441C0BC
:101810003091AA042AE1231B27FD0BC02695692FCE
:10182000820F1EDC6DEA74E08DE694E00E948A2A45
:1018300032C096FD1CC0219530E08091F00490915B
:10184000A904891B90E0B901660F771F0E94C4327A
:101850004091A70441110DC0009729F02150310992
:101860008217930731F421E02093A70402C080E09F
:1018700090E0EC01C355DB4F8E01065E1F4F89914E
:10188000811102C08FDD07C00EDCC017D107B9F788
:10189000F9CF1092AD04DF91CF911F910F91089570
:1018A0001F93CF93DF93D82F192F80912605823075
:1018B00019F020F0CFE003C0CFE101C0CAE2D7FDAC
:1018C00002C016FF0DC06091270570E084ED91E025
:1018D0007EDDD7FD08C016FF06C08C2FE4DB03C0F9
:1018E0008C2FE1DBF0CFDF91CF911F910895A0E025
:1018F000B0E0EDE7FCE00C943433C0902C05D090C0
:101900002D05E0902E05F0902F05C114D104E104BF
:10191000F10469F4409128055091290560912A0548
:1019200070912B05452B462B472B09F473C094FD72
:1019300002C0CCE701C0C0E296FBDD27D0F9E82F5A
:10194000E095EE1FEE27EE1FEE0FED2B8091A00429
:10195000882311F18091A504853058F061EE71E083
:101960008DE694E00E94942B8C2F9DDB68EE71E055
:101970000EC08091A604853078F061EE71E08DE6AE
:1019800094E00E94942B8C2F8EDB68ED71E08DE645
:1019900094E00E94942B3EC00E2E000CFF0BEE0F25
:1019A000FF1F95FF31C0E55EF74F059114914D2F54
:1019B000C701B6015CDEF62EE72ED82EC92E609147
:1019C00028057091290580912A0590912B054D2FAE
:1019D0004EDECF92DF92EF92FF921F92CF939F93B2
:1019E0008F937F936F931F930F938DE694E09F9354
:1019F0008F930E94BE2B8DB79EB70E960FB6F894AC
:101A00009EBF0FBE8DBF06C0ED5EF74F85919491CE
:101A10006C2FE5DDCDB7DEB7E8E00C945033FF92D4
:101A20000F931F93CF93DF93F82E092F192F107266
:101A300087FD0AC096FD08C0112389F16DE572E0AB
:101A40008DE694E00E94942B83EC2DDB209107051A
:101A50003091080548E1429FC001439F900D112439
:101A60000C9668E671E00E94C432CCEFC60F1111EB
:101A700002C0D9E001C0DAE0EC2FF0E0E85CFD4FF5
:101A8000849111DBCF5FC83108F0C0E0D150A1F7DD
:101A900087E809DBF7FC1AC006FD04C017C060E543
:101AA00072E0CECF112379F061E372E08DE694E02D
:101AB0000E94942B8CE7E5DA69E272E08DE694E00F
:101AC0000E94942B03C06CE172E0F8CFCDB7DEB773
:101AD000E5E00C945333262F30E0F901EF57FB4F2C
:101AE00087FD0BC091E09083F901E358FB4F86FB23
:101AF000992790F99083862F05CC1082089563E092
:101B0000892FE9CF62E0892FE6CF61E0892FE3CF0B
:101B100060E0892FE0CFCF92DF92EF92FF921F9388
:101B2000CF93DF93182FC92F809159058F55863099
:101B300010F0DFEF01C0D4E660915A0570E080E05C
:101B400090E00E948E306B017C016D2F70E080E090
:101B500090E00E9490309B01AC01C701B6010E9449
:101B6000F52F20E030E048EC52E40E94A9316B01EF
:101B70007C01C07417FD45C088E895DA2AE037ED8E
:101B800043E250E4C701B6010E94A9310E946230CD
:101B9000AB016138710540F029E8209307014058F6
:101BA0005109E8E0F1E012C02DE82093080162310C
:101BB000710550F42091A004222331F080E280933B
:101BC0000701809308010AC0E7E0F1E0CA016AE179
:101BD00070E00E94B0328DE8861B8083CC2329F010
:101BE000B701A6018AE092E00AC040918A055091AF
:101BF0008B0560918C0570918D058EEF91E0D2DCA4
:101C000012C0CC2329F0AB01BC0186EF91E00AC0E1
:101C100040918A0550918B0560918C0570918D05DE
:101C20008FEE91E050DCDF91CF911F91FF90EF900C
:101C3000DF90CF90089596FB442740F960914505C9
:101C400070914605809147059091480556CDCF92F9
:101C5000DF92EF92FF928091A20496FF23C08460EE
:101C60008093A20429E838E848E85CE36091920593
:101C70007091930580919405909195050E94A931EA
:101C80006B017C010E945D30675F7F4F633171059E
:101C900018F085EA92E002C08DEA92E0B701A60151
:101CA00012DC14C08B7F8093A204E0916105F09157
:101CB000620572962491409192055091930560912E
:101CC00094057091950589E792E02DDCFF90EF90E7
:101CD000DF90CF900895AAE0B0E0E1E7FEE00C9439
:101CE0002A33C82EE62E80910E0327EA32E94BE212
:101CF0005CE38034C9F46091ED057091EE0580914C
:101D0000EF059091F0050E94A9314B015C0125E39C
:101D10003AEF4EE85CE36091E9057091EA05809145
:101D2000EB059091EC0518C06091F5057091F605F2
:101D30008091F7059091F8050E94A9314B015C0153
:101D400025E33AEF4EE85CE36091F1057091F2050E
:101D50008091F3059091F4050E94A9312B013C017B
:101D600080910B0590910C052091030627FF03C07D
:101D70009195819591098A35910538F09C012D54F2
:101D80003F4F2935310570F4C9018734910534F589
:101D90008A31910544F50A9758F118E073EFD72E70
:101DA00000ED2AC08B35910514F0835B910997FFF4
:101DB00003C0919581959109873491057CF48A310E
:101DC00091053CF40A97A0F018E065EFD62E02EEDC
:101DD00013C017E05BEFD52E0BEE0EC010E04DECFC
:101DE000D42E01EC09C017E038EFD32E09ED04C062
:101DF00019E02DECD22E06EC6091090570910A05D0
:101E0000072E000C880B990B0E949030A5019401BD
:101E100050580E94A9310E94513220E030E044EB3A
:101E200052E40E94A9314B015C0120E030E0A9019D
:101E30000E949E3120E030E040E05FE387FD0CC06F
:101E4000C501B4010E94282F0E945D309B01235DD3
:101E50003F4F3A8729870BC0C501B4010E94272F45
:101E60000E945D30AB01435D5F4F5A87498789858A
:101E70009A8597FF05C0885A9F4F9A87898709C01E
:101E800029853A852B35310534F0285A3F4F3A875A
:101E9000298782E001C080E0FF24F394F80E9CE0E3
:101EA000899F902D112419822CE030E01901281A05
:101EB000310892549A8392E1892E912CCA94CB8254
:101EC000A12E012E000CBB083AEF3D0D3C838F2D57
:101ED00090E0281639060CF479C0DA804981D40ED6
:101EE00060910B0570910C058091030687FF03C07C
:101EF000719561957109072E000C880B990B0E9452
:101F00009030A30192010E94A9310E9451329B019D
:101F1000AC016D2D0D2C000C770B880B990B2E83CB
:101F20003F834D8358870E9490302E813F814D81A1
:101F300058850E94A9310E945D3029853A85260F77
:101F4000371FC90101978A359105D8F5B4010E9460
:101F5000C4326B01112399F05EEE5603C001579F06
:101F6000900D1124BC01620F731F6F5F7F4F77FFCD
:101F700002C06F5F7F4F75956795262F01C020E0E7
:101F80005E2D5C193B813F0D64E0650F402F420FD1
:101F9000832F2E833F83588794D82E813F81588585
:101FA000222379F0822F90E08A159B0554F064E09B
:101FB000C616D10431F04C81420F63E0650F832FC8
:101FC00080D8F3948981845F898381CF2A96E2E166
:101FD0000C94463366E089E07ECEAB01BC01E09113
:101FE0006105F09162053996249184E892E09BCADC
:101FF0001F920F920FB60F9211242F938F939F93DE
:10200000EF93FF939091C600809194068F5F8F7736
:1020100020919506821741F0E0919406F0E0EE5E83
:10202000F94F908380939406FF91EF919F918F9148
:102030002F910F900FBE0F901F9018951F920F9227
:102040000FB60F9211248F939F93EF93FF9390916C
:10205000930680919206981779F0E0919306F0E04C
:10206000E25FF94F80818093C600809193068F5F75
:1020700083708093930605C08091C1008F7D80930B
:10208000C100FF91EF919F918F910F900FBE0F9024
:102090001F901895EAE7F0E080818B7F8083808134
:1020A00086608083089595FB222720F994FD02C065
:1020B00090E001C092E0922B86FD02C080E001C05A
:1020C00084E0892B08951F93CF93DF93182FEBDFC4
:1020D0008C5FC82FD0E017FD06C0BE016F5F7F4F39
:1020E0008CE493E074D9CC0FDD1FCD59DA4F6881B1
:1020F000798184E593E06BD9DF91CF911F910895A9
:102100001F93CF93DF93182FC92FCDDFD4E0D80FC3
:1021100017FD07C06D2F70E06F5F7F4F81E593E083
:1021200056D9C6FB662760F98D2F50D8D82FC0E04E
:10213000DC1302C081E801C080E80E945308CF5F31
:10214000C530B1F7DF91CF911F9108951F93CF93C1
:10215000DF93182FC92FA7DFD4E0D80F17FD07C0D2
:102160006D2F70E06F5F7F4F8CE493E030D9C6FB3A
:10217000662760F98D2F2AD8182FC0E0D3E0CE0152
:102180000E9461338F3F71F0811103C0112351F020
:102190001150111102C00E9453082196C03883E0EB
:1021A000D80769F7DF91CF911F9108950F931F937F
:1021B000CF93DF93EC018B010E94D828DC01CB0187
:1021C000800F911FA11DB11D88839983AA83BB83B2
:1021D000DF91CF911F910F9108959B01FC014081E8
:1021E000518162817381420F531F611D711D4083B4
:1021F0005183628373830895E0916105F0916205D4
:10220000349665917591859194910895A4E0B0E01C
:10221000ECE0F1E10C9434339B01AC0169833A8327
:102220004B835C83E9DF29813A814B815C810E9489
:10223000A9316B017C010E945D3000916105109114
:102240006205F801603177423CF439962491B70178
:10225000A60189E792E024C070966591749180E0B0
:1022600090E00E948E309B01AC01C701B6010E9434
:10227000F52F6B017C010E945D306A30710534F0EE
:102280006436710534F089E792E005C086E493E096
:1022900002C080E493E0F8013F962491B701A601C3
:1022A00042D92496E8E00C94503360918E057091E9
:1022B0008F058091900590919105A8CF8091A10400
:1022C00082FF0BC060911405709115058091160571
:1022D000909117050E94903099CF0895A4E0B0E046
:1022E000E4E7F1E10C943A339B01AC0169833A8352
:1022F0004B835C8381DF29813A814B815C810E9421
:10230000A9316BDE2496E2E00C945633609103050C
:10231000709104058091050590910605DFCFE0914D
:102320006105F0916205659175918591949108958B
:102330000F931F93CF93DF9380919C04182F1170FC
:1023400080FFDEC08E7F80939C04E9DF2091FF0434
:102350003091000540910105509102050E94A9317C
:102360000E945D30A0915F05B09160058091A2044C
:1023700081FF09C081E090E020912605223008F01D
:1023800080E0EC0102C0C0E0D0E0E091BB05E111CB
:102390000AC02091BF0530E06217730724F48091D2
:1023A0009F0482FDC2602091BE05222329F030E007
:1023B000261737070CF4C46030915A05209159054F
:1023C0004091C005442369F0CD0164E670E00E94AD
:1023D000B0326115710529F0842F90E068177907F4
:1023E000E4F04091C6054423C9F054E6359FC0018E
:1023F0001124322F27FF02C031E0320F3595830FB1
:10240000911D37FD9A95622F220F770B0E94C432DF
:10241000842F90E0681779070CF4C8608091C50597
:1024200080FD0BC08091C70590E02091E2043091BF
:10243000E3042817390708F4C061E130E1F4809122
:10244000920590919305A0919405B0919505009106
:10245000BF05002381F0BC01CD019F770E945D3054
:10246000CB016AE070E00E94C432802F90E08617B2
:1024700097070CF4C06280915D0590915E052091F4
:10248000F905222371F064E670E00E94B032611514
:10249000710539F0822F90E06817790714F4C06451
:1024A00005C0209719F4109257032AC09091570342
:1024B00081E09111890F80935703809157034FEF6B
:1024C000480F21E030E002C0220F331F4A95E2F7A7
:1024D00040E08B3020F0412F81E021E030E0B90175
:1024E0006C237D23672B29F48F5F220F331F412F2D
:1024F000F0CF41118093570380915703981799F2B9
:10250000E0915703EE2359F0F0E0EE0FFF1FEB567A
:10251000F74F659174918DE694E00E94942BDF91C2
:10252000CF911F910F910895A0E0B0E0EAE9F2E1A8
:102530000C943533EC01FE01059114910115110540
:1025400009F468C0FE013296849181110E945308FB
:10255000FE01339684913196E590F490893691F09E
:1025600030F4813609F43CC08836C1F004C08337AA
:10257000E9F0863719F150E2D52E60E070E080E88E
:102580009FE337C0F70160817181072E000C880B33
:10259000990B0E94903040E2D42E32C0E091610548
:1025A000F09162053996D49027DE23C0E091610551
:1025B000F09162053896D490B2DE1BC01DDE2091EA
:1025C000A20422FD14C0E0916105F09162057296AB
:1025D000D49020E030E040E752E40E94A93109C0E5
:1025E00031E4D32E6AE077ED83E29CE302C028E178
:1025F000D22EF70120813181428153810E94A9317D
:102600002D2DAB01BC01C8010E94930A0E94C30991
:10261000279691CFCDB7DEB7E7E00C9451338CEE1F
:1026200092E082CF48E0692F0E94610860914505E1
:1026300070914605809147059091480540E05DD82E
:102640000E94C3098DE691E06FDF6CE782E398E0BA
:102650000C94EF0ACF92DF92EF92FF920F931F93A9
:10266000CF938C016A017B01C22F59DEA70196012D
:102670000E94A931C1110BC0E0916105F091620582
:102680003896C49120E030E040E85FE305C0C8E13F
:1026900026E636E646E650E40E94F52FAB01BC0183
:1026A0002C2FC8010E94930ACF911F910F91FF9088
:1026B000EF90DF90CF90089596FB222720F940916C
:1026C000FF0450910005609101057091020589E9B0
:1026D00092E0C0CF96FB222720F94091FB04509155
:1026E000FC046091FD047091FE0489E992E0B2CF90
:1026F0002FE632E143E85AE30C94A931A4E0B0E0BC
:10270000E4E8F3E10C943833009158031091590335
:1027100073DD9B01AC018AEF809FB001819F700D3A
:102720001124072E000C880B990B2C8339834A83C4
:102730005B830E9490302C8139814A815B810E94A9
:10274000A931E0916105F09162050832110554F05C
:102750003F9624912C83CCDFAB01BC012C8186E415
:1027600093E006C039962491AB01BC0189E792E061
:102770000E94930A2496E4E00C945433A4E0B0E061
:10278000E4ECF3E10C942F33782E8091BB0581119A
:10279000E1C0C090FB04D090FC04E090FD04F090F8
:1027A000FE0420E030E0A901C701B6010E94EE2F2F
:1027B000882309F425C100915B0510915C05AFDD0C
:1027C0009B01AC019091FA0480919F049330E0F159
:1027D00081FD03C0826080939F04B801012E000C2C
:1027E000880B990B29833A834B835C830E9490303A
:1027F0004B015C0129813A814B815C81C701B601A3
:102800000E94A9319B01AC01C501B4010E94F52FC2
:1028100020E030E040E251E40E94A9316B017C01EC
:102820000E945D30615071096F30774208F0E8C056
:1028300077FC03C086E10E945308B701A6018FEE22
:1028400091E00E94630ADCC081FF1BC01092380532
:102850001092390510923A0510923B0540918E0571
:1028600050918F05609190057091910540935203AE
:102870005093530360935403709355038D7F80935B
:102880009F042DEC3CEC4CE45DEB609134057091C1
:10289000350580913605909137050E94EE2F87FF10
:1028A00045C02091520330915303409154035091FD
:1028B000550360918E0570918F05809190059091E0
:1028C00091050E94272F20E030E0A9010E94A93144
:1028D0006B017C0191DC9B01AC01C701B6010E9438
:1028E000A9316B017C010E945D30603187E278077D
:1028F00024F41616170644F083C0C12C8CE3D82E9E
:102900008CE1E82E86E4F82E77FC03C08EEE0E9460
:102910005308E0916105F091620539962491B70161
:10292000A60189E792E00E94930A6AC08091090596
:1029300090910A0597FF64C08091A004882319F044
:102940006EE273E002C06DE273E08DE694E00E94F7
:10295000942B56C080919D04882309F451C0B090F7
:102960005A050B2D10E080915805082E000C990B8C
:1029700008171907D1F18091980482FD36C0609143
:1029800045057091460580914705909148050E9444
:102990008E306B017C016B2D70E080E090E00E9436
:1029A0008E309B01AC01C701B6010E94A9316B01B9
:1029B0007C0160915905062E000C770B601B710B92
:1029C000072E000C880B990B0E9490309B01AC01E4
:1029D000C701B6010E94F52F8BDE0E946230709312
:1029E000570560935605B092580577FC03C087E100
:1029F0000E94530880915605909157050E941B0A2A
:102A00002496EDE00C944B33409130055091310504
:102A1000609132057091330596FF0CC080912005BE
:102A200090912105A0912205B0912305481B590BD7
:102A30006A0B7B0BCB01BA010E94903059DE4ECC61
:102A4000BC0180E090E00E948E3052DEAB01BC0100
:102A50008DEC91E00C94630A8091030697FD08C009
:102A600080628093030680915D0590915E05E8CFBA
:102A700091E02091F905211101C090E090FB85F9CA
:102A800080930306089580915F0590916005D8CFEB
:102A90002091F8043091F904260F311D3093AC04D5
:102AA0002093AB048093AA048091F0048093A9043E
:102AB000089597FF03C088599E4F0895893621E0F5
:102AC000920714F0885691400895CF93DF93EC015C
:102AD0000E94D82828813981CB01821B930BDF917A
:102AE000CF91089524E0880F991F2A95E1F78C541F
:102AF0009F4F68E671E00E94C432CB0101960895B1
:102B0000A0E0B0E0E6E8F5E10C943433C92F80E0B2
:102B100090E0CFDF8C01C0909605D0909705E090B3
:102B20009805F0909905C701B60190582AE037ED55
:102B300043E25CE30E94A931A70196010E94282F7D
:102B400060939605709397058093980590939905E7
:102B5000C6FBDD27D0F92D2F40E050E0BA0189E90E
:102B600092E078DD0E94C3098091070590910805E5
:102B70009801281B390BC901B5DF9C2F9072C5FD48
:102B800098E0890F0E94D4094091960550919705CD
:102B900060919805709199052D2F8FE992E05ADD8B
:102BA000CDB7DEB7E8E00C945033EF92FF921F935D
:102BB000CF93DF9300D000D0CDB7DEB7809155051D
:102BC0008A3009F057C0E0907305F090740588EEE4
:102BD000E81683E0F80654F489E1E8168CEFF8066D
:102BE0004CF489E1E82E8CEFF82E04C097EEE92E24
:102BF00093E0F92EE0916105F09162053996149108
:102C00006091810570E08FE792E00E94E709F4DAB5
:102C1000212F40E050E0BA0189E792E00E94930A38
:102C20000E94C309809182059091830542DF209123
:102C3000070530910805821B930B54DF0E94D409CD
:102C4000DBDA9B01AC01B701FF0C880B990B2983E0
:102C50003A834B835C830E94903029813A814B8177
:102C60005C810E94A931AB01BC01212F80E792E079
:102C70000E94930A0F900F900F900F90DF91CF91C9
:102C80001F91FF90EF90089580910705909108059E
:102C90009195819591090DDF845B910990932505AC
:102CA000809324051FDF885F0E94D409609124056A
:102CB0007091250587E192E00C94E709CF92DF92AD
:102CC000EF92FF92CF93DF93EC016A017B019A01AF
:102CD000AB01688179818A819B810E94EE2F87FFF9
:102CE00004C0C882D982EA82FB82DF91CF91FF9033
:102CF000EF90DF90CF900895CF93DF93EC019A018E
:102D0000AB01688179818A819B810E94282F688329
:102D100079838A839B83DF91CF910895A0E0B0E00F
:102D2000E4E9F6E10C942C3381E495E0CEDEEC018D
:102D300060E070E081E495E039DABE0185E495E079
:102D40004CDABE0180E090E00E948E30D1DC6B0155
:102D50007C0152DA2B013C01809092059090930502
:102D6000A0909405B090950520E030E040E752E453
:102D70006091340570913505809136059091370545
:102D80000E94A931A30192010E94A931A5019401D9
:102D90000E94272F2DEC3CEC4CEC5DE30E94A93106
:102DA000A50194010E94282F6093920570939305CA
:102DB000809394059093950520915A05809159052B
:102DC000082E000C990B422F50E08417950714F43D
:102DD000209359058091A10482FF15C080919D0424
:102DE000882389F02091FB043091FC044091FD047C
:102DF0005091FE04C701B6010E94A931AB01BC018C
:102E00008EE895E079DF60915B0570915C05072E97
:102E1000000C880B990B0E94903021E63BE046E3C2
:102E20005BE30E94A931A70196010E94A931AB0181
:102E3000BC018AE895E060DF8091E4049091E504AC
:102E40002091C50520FD5EC00091FF051091000690
:102E5000C0910106D0910206C017D10740F4302F6F
:102E6000212F8E01C32FD22FFF24F39401C0F12C08
:102E700098010817190708F49C01BE012C173D079B
:102E800008F4B90180E090E00E948E304B015C01B3
:102E9000B80180E090E00E948E309B01AC01C5013A
:102EA000B4010E94272F4B015C01BE01601B710B16
:102EB00080E090E00E948E309B01AC01C501B4011E
:102EC0000E94F52F20E030E048EC52E40E94A93146
:102ED0000E945D306536710528F47093E3046093B9
:102EE000E20406C084E690E09093E3048093E20459
:102EF000FF2061F02091E2043091E30484E690E049
:102F0000821B930B9093E3048093E2048091BB05B2
:102F1000811104C080919F0482FD05C080919D04B1
:102F2000882309F458C060911405709115058091AB
:102F30001605909117050E949030AB01BC0186EBFD
:102F400095E0BCDE4091FF045091000560910105C1
:102F50007091020582EB95E0B1DE4091FB04509147
:102F6000FC046091FD047091FE048EEA95E0A6DEFB
:102F70004091030550910405609105057091060587
:102F80008AEA95E09BDE40E050E0BA0186EA95E0EF
:102F900095DE60915B0570915C05072E000C880B37
:102FA000990B0E949030AB01BC0182EA95E086DE6D
:102FB000C0903405D0903505E0903605F090370587
:102FC000B701A6018EE995E079DEB701A601705838
:102FD0008AE995E073DECDB7DEB7E0E10C944833C3
:102FE000CF93DF93EC01CB01BA010E94903025E929
:102FF0003FEB46ED53E30E94A931688379838A83CE
:103000009B83DF91CF9108950E94D8286093F204AA
:103010007093F3048093F4049093F5048091F80482
:103020009091F9049093F7048093F604E7E9F4E0B3
:1030300081E08083828308958AEA90E00C942E29AF
:103040000E94482B811101C0F7CF089590919804F8
:10305000892F817090FF05C09091960481E09111B5
:1030600080E00895A4E6B4E0EC918E27E82FF0E02C
:10307000EE5DF64FE491EC9308958F929F92AF929C
:10308000BF92EF92FF920F931F93CF93DF93FF2492
:10309000F39487E0E82E0AE010E00E94482B882392
:1030A00009F49BC30E94572BC82FD09165048D2F24
:1030B00090E08930910508F0C1C0FC01EC5CFF4F45
:1030C0000C941533C0935C0320915B0330915C0337
:1030D00080916704909168042817390730F5CC3344
:1030E00011F0D1E0ABC0109264048CE3BBDF10930D
:1030F000680400936704D2E0A1C08C2FB3DF8C2F4B
:10310000887F803261F7C0935A0310926604D3E03F
:1031100095C08C2FA7DF809166048F5F8093660433
:10312000823080F6C0935B0389C081509F4F821725
:103130009307A8F210926604D4E080C08C2F92DF2F
:10314000E0916604EF5FE0936604E13008F476C036
:10315000E43048F0E43009F071C0C093600310928D
:103160006604D5E06BC0F0E0E45AFC4FC08366C053
:103170008C2F78DF809166048F5F809366048130A6
:1031800019F0823021F05AC0C093610357C0C09338
:10319000620320915B0330915C03809167049091FE
:1031A00068042817390749F0D0915A03DD1FDD273D
:1031B000DD1F2E2D2D1BD22F01C0D8E010926604EA
:1031C0003DC08C2F4FDF809166048F5F8093660433
:1031D000813041F0823091F5C0936403109266040F
:1031E000D7E02CC0C093630329C08C2F3BDFE09154
:1031F000660481E08E0F80936604F0E0E65AFC4F8F
:10320000C38790E020915B0330915C034091670499
:1032100050916804241B350B8217930778F01092A5
:103220006604D8E00BC080916404C81358CFF092B4
:10323000650480915B03811104C0CDC2D093650405
:10324000CAC280919804846080939804DDDE8091E6
:103250005D0390915E03A0915F03B0916003863E91
:1032600026EA920726E2A2072DE7B20709F4DFC19A
:1032700008F070C0823D22EC920722E8A2072EE1FE
:10328000B20709F428C198F584302AE9920727ED9E
:10329000A2072EE0B20709F411C180F486312AEAB0
:1032A000920727E3A2072BE0B20709F407C1843590
:1032B0009447A54CBB4009F409C28AC28E3C28E45D
:1032C000920727E5A2072AE1B20709F4B0C18437C3
:1032D0002BEE92072AE7A2072BE1B20709F4EEC012
:1032E00088399C42AA41B64109F4F5C071C2863EB4
:1032F00025ED92072AEDA20723E3B20709F4A2C045
:1033000080F48C3921EB920725EAA2072EE1B2075F
:1033100009F443C282359342A649B64209F4E8C192
:1033200057C2863A2EE0920722E1A20728E4B207AC
:1033300009F415C2823E25E592072CE9A20726E68C
:10334000B20709F425C28A399F45AD48B34409F450
:1033500029C23EC280322EE4920729EAA20721EB5D
:10336000B20709F415C298F582352AEE920720E8D3
:10337000A2072AE8B20709F4A1C080F480382CED36
:10338000920725E4A20722E8B20709F49FC1843E10
:103390009C42A540B64809F491C01AC28E3722E17A
:1033A00092072AE6A2072BE9B20709F487C08A37F9
:1033B00026EF920721EFA2072DE9B20709F437C1E2
:1033C0008A369E42A246B94909F002C2C8C1843574
:1033D0002DE292072FEFA20725ECB20709F46EC089
:1033E000C8F48A3B24E8920725E2A2072EEBB20735
:1033F00009F4CEC1803824E7920720E1A20724EC2B
:10340000B20709F4BCC08A38974FA74CB84B09F0F3
:10341000DFC161C0843629ED920720EEA20727EDB7
:10342000B20781F0863B23E2920723EAA20722EE4D
:10343000B20709F4FCC086399543A840B24D09F49F
:1034400057C1C6C16091750370917603809177036F
:10345000909178030E945D3070930C0560930B058A
:103460006091790370917A0380917B0390917C0342
:103470000E945D3070930A056093090560917D0399
:1034800070917E0380917F03909180030E945D3054
:1034900070930E0560930D05809028059090290586
:1034A000A0902A05B0902B0589288A288B2809F03E
:1034B0008FC170930805609307058AC181E09091E0
:1034C0006503911101C080E080939D0480916603A3
:1034D000809355057DC120E030E048EC52E46091D6
:1034E00065037091660380916703909168030E9461
:1034F000A9310E945D30693C18F46093FA0402C05F
:103500001092FA0480917F03909180039093680554
:103510008093670580918103909182039093640565
:103520008093630580918303909184039093660553
:1035300080936505809185039091860390936A0539
:1035400080936905809187039091880390936C051F
:1035500080936B058091890390918A0390936E0507
:1035600080936D0580918B0390918C0390937005EF
:1035700080936F0580918D0390918E0353C020E05E
:1035800030E048EC52E460916503709166038091ED
:103590006703909168030E94A9310E945D30693CE5
:1035A00018F46093FA0402C01092FA0480917D032B
:1035B00090917E03909368058093670580917F03C7
:1035C00090918003909364058093630580918103BB
:1035D00090918203909366058093650580918303A3
:1035E0009091840390936A05809369058091850387
:1035F0009091860390936C0580936B05809187036F
:103600009091880390936E0580936D058091890356
:1036100090918A039093700580936F0580918B033E
:1036200090918C039093720580937105D1C0409165
:10363000650350916603609167037091680388E2A7
:1036400095E0CEDC4091690350916A0360916B0371
:1036500070916C038CE295E0C3DC80918A038093C7
:1036600027058091890380932605609175037091E9
:10367000760380917703909178030E945D30709378
:1036800008056093070560916D0370916E0380914A
:103690006F03909170030E945D30609330057093CA
:1036A0003105809332059093330580917903909191
:1036B0007A03A0917B03B0917C038093FB049093E9
:1036C000FC04A093FD04B093FE0482C080916D03BE
:1036D00090916E03A0916F03B0917003B0588093E6
:1036E000340590933505A0933605B093370570C027
:1036F000C0910306C4FD0EC060916503709166031E
:1037000080916703909168030E9462307093600516
:1037100060935F05C6FD14C020E030E048EC52E441
:103720006091690370916A0380916B0390916C03BF
:103730000E94A9310E945D3070935C0560935B0527
:1037400060917D0370917E0380917F03909180034F
:103750000E945D30709357056093560539C06091A3
:1037600065037091660380916703909168030E94DE
:103770005D30072E000C880B990B0E9490306093EF
:10378000030570930405809305059093060520C0FA
:103790008091C5038093E6041BC0809165038093EC
:1037A000810516C080917903882391F0609171039F
:1037B00070917203072E000C880B990B0E949030B9
:1037C0006093FF04709300058093010590930205B8
:1037D0003DDC811103C034DC60CC80E0DF91CF910F
:1037E0001F910F91FF90EF90BF90AF909F908F909F
:1037F00008958091070590910805880F991F8D966F
:103800006AE570E00E94C4326830710514F060E02F
:1038100070E0FB01E85AFC4F8491089587FD03C0D6
:10382000E8DF0E94530860910705709108058BE658
:1038300092E00C94E709A4E0B0E0E1E2FCE10C9432
:103840002C334C01D92C96FE0BC015E019C0133057
:1038500001F585EC0E9453080E94C3091150D9F468
:10386000CC24C394C80C692D8C2D0E946B0E26E0CD
:10387000B22EB80C32E0A32EA90C94FECBC00FC020
:1038800082EB0E9453080DE0015009F30E94D20917
:10389000FBCF83EBDFCF133099F786ECF2CF0091AB
:1038A000110510911205E0900F05F0901005C80168
:1038B00017FF04C088279927801B910B6AEF70E0DF
:1038C0000E94C432362F272FC701F7FE04C0882775
:1038D00099278E199F096AEF70E00E94C432832FE6
:1038E000922F861797070CF4CB01BC016F5F7F4FB7
:1038F0007093590360935803072E000C880B990BA3
:103900000E9490302B013C01B701FF0C880B990BF2
:103910000E94903069837A838B839C8324EE38E302
:103920004EE552E4C301B2010E94A9319B01AC01F2
:1039300069817A818B819C810E94F52F0E945D3084
:10394000F62EE62EB801012E000C880B990B0E9472
:10395000903069837A838B839C832DE63BED4EE028
:1039600052E4C301B2010E94A9319B01AC016981FB
:103970007A818B819C810E94F52F20E030E040E02D
:103980005FE30E94282F0E945D30562E86FC09C0FE
:1039900030DF6A2D6F19482F8B2D850D0E9461082D
:1039A00039C08091E704681304C08091E804F816D8
:1039B000E1F08091EB049091EC049093EE048093FD
:1039C000ED048091E9049091EA049093EC048093D3
:1039D000EB048091E7049091E8049093EA048093CB
:1039E000E9045092E704F092E8040DEE14E097EE3B
:1039F000692E94E0792EF80181816A2D681B8081FF
:103A000044E28B0D0E946108025011096016710694
:103A100091F7BECF87FC0AC06A2D8B2D0E9430081B
:103A20006EEB71E08DE694E00E94942B95FEC1C090
:103A300080919D04882309F4BCC08091BB0581114D
:103A400085C06091140570911505809116059091BF
:103A500017050E9490309B01AC0160E070E0CB0143
:103A60000E949B2F21EE3EE245E652E40E94A931DE
:103A70000E945D306A5071092DE2269FC001279F88
:103A8000900D11246AE070E00E94C432CB0146968A
:103A900069E070E00E94C432663078F400ED081BE3
:103AA000192D160F402F612F8CE0880D0E946108A0
:103AB000402F612F8C2D0E9461088091130590E0AA
:103AC0002091090130910A01821B930B0E94591524
:103AD000853B910534F028E631E0A901481B590BDC
:103AE000CA019C01245B310948E4429FC001439F05
:103AF000900D11246AE070E00E94C432CB018496DC
:103B000066E070E00E94C432962F64E0690D97FF72
:103B100006C04CE38C2D0E9461084CE314C09D301C
:103B200054F01CE0180D4EE3812F0E9461084EE313
:103B3000692D812F3CC01FEB180FC90E412F8C2D12
:103B40000E946108412F692D8C2D31C00E94FC100C
:103B5000209103053091040540910505509106051B
:103B60000E94A93120E030E040EA50E40E94282F72
:103B70002DEC3CEC4CE850E40E94A9310E945D30F1
:103B8000862F9FEF960F9B3240F469E00E94A3328C
:103B90004FEC491BD92CD80E08C06C322CF084E0B5
:103BA000D82ED90C4EE201C04FEC6D2D8B2D0E940A
:103BB00061082496E0E10C944833ACE0B0E0E3EE19
:103BC000FDE10C942A330E94AD070E94D8286B01B6
:103BD0007C018091BB0510919D04811118C01123B7
:103BE00021F180919F0482FF20C06091FB047091BD
:103BF000FC048091FD049091FE040E945D306230CF
:103C000071055CF48091FA04823038F40EC0111111
:103C10000CC080919E04882341F0C0927505D0921B
:103C20007605E0927705F092780510939E048091D6
:103C3000FE05853018F084E08093FE0582EF94E065
:103C40000E946515853C9940A8F063E085E00E94DC
:103C500030086091F8047091F9048091F604909115
:103C6000F704681B790B8CEA91E00E94E70983E076
:103C700095E02FC080919D0481112EC08091750523
:103C800090917605A0917705B0917805892B8A2BC4
:103C90008B2B11F185E795E00E946515883B9B40D1
:103CA000D8F460918E0570918F0580919005909168
:103CB00091050E945D306630710574F081E080935B
:103CC000A3040E943D098091EF0480937C0481E06D
:103CD00091E00E941213A1C28091A3048823D9F11C
:103CE00080917C049091EF04891721F08093EF0478
:103CF0001092A30482E00E945209092E000CAA0B24
:103D0000BB0BB7FF07C0B095A095909581959F4FCD
:103D1000AF4FBF4F8D329140A105B1050CF07AC273
:103D200083E00E945209092E000CAA0BBB0BB7FFBF
:103D300007C0B095A095909581959F4FAF4FBF4F0D
:103D40008D329140A105B1050CF064C280919D04B3
:103D5000811160C2BCCF8091FE05882321F0909133
:103D6000EF04981718F480E693E051C280919D0407
:103D700081114BC21D821E821F82188640917B04D6
:103D8000842E912C85E0489FA0011124FA01E05F68
:103D9000FB4F859194919093720480937104FA0182
:103DA000EE5EFB4F14910E943D09A12CB12C00E066
:103DB000712C1A861B86612C1986C12C101709F4E8
:103DC000B6C0DD24D394D00EE0907104F09072045C
:103DD000EA0CFB1CF701459054906D2D81E00E9488
:103DE0003008B2018DE694E00E94942B6D2D83E1A2
:103DF0000E94300880910501081306C08EE30E94DE
:103E00005308C090100302C00E94D209F7013296F5
:103E10008491319624912C87833609F442C060F452
:103E20008A3509F43CC0823689F1811169C09EE06F
:103E3000A90EB11C0D2DC2CF8836D1F088F486367C
:103E400009F05EC0F7013496A591B4918D919D91D2
:103E50000D90BC91A02D8D839E83AF83B88750C0F9
:103E6000833709F443C08A3709F04AC080E118C09B
:103E700080910E03803419F46CE471E002C064E4B4
:103E800071E08DE694E00E94942BD1CFF701349637
:103E9000A591B4916C9170E080E090E011C080E257
:103EA0008987F7013496A591B4916C91062E000C88
:103EB000770B9985691B7109072E000C880B990BEC
:103EC0000E9490301B012C012C85622F70E080E055
:103ED00090E00E948E309B01AC01C201B1010E94B2
:103EE000F52F6D837E838F8398870AC0F701349600
:103EF0006591749144E050E0CE0105960E946609F8
:103F000080910501BD81AE813F812885081304C0E1
:103F10007B2EAA873B87622EF70138968591949174
:103F20004B2F5A2F632F722F0E94630A80CF85E098
:103F3000889DF001899DF00D1124ED5EFB4F859168
:103F40009491009711F0FC0109958091A10483FFE1
:103F500064C1877F8093A10401E00093970481E00E
:103F60000E9452098739910514F081E004C08A3615
:103F70009F4F24F48FEF0E940E094FC183E00E94EF
:103F80005209873991055CF00093050180917B040B
:103F9000823019F410927B0440C18F5F0CC08A36C6
:103FA0009F4F64F40093050180917B04811102C04E
:103FB00082E001C0815080937B042FC16091050194
:103FC0006F5F8C2D0E94300880910501E090710494
:103FD000F09072049EE0899FE00CF11C112480E0B7
:103FE0000E9452096C0197FF06C0D194C194D10878
:103FF0008824839401C0812CF7013496A590B49055
:10400000F7013296049131969490872D9A85AB856D
:10401000B62D8D839E83AF83B887043630F4023685
:1040200060F40A3509F04AC008C0033771F10A3755
:1040300021F0063609F042C028C0EDE2CE16E1E0DC
:10404000DE0684F0692D70E080E090E00E948E3002
:104050009B01AC0160E070E080E291E40E94F52FEA
:1040600011E04AC0F7E9CF16D10464F1692D70E080
:1040700080E090E00E948E309B01AC0160E070E037
:1040800080E89FE30E94F52F20C021E9C21621E0BD
:10409000D2066CF58DE2C81681E0D806C4F499EC1E
:1040A000C916D104CCF414E0E5E6CE16D1040CF424
:1040B0005CC06FE672E183E89AE31EC060E070E0E6
:1040C000CB010FC060E070E0CB0111E00AC06DECE5
:1040D0007CEC8CEC9DE304C06AE077ED83E29CE32A
:1040E00014E0F5E6CF16D1040CF43FC005C060E043
:1040F00070E080E89FE314E081109058AB01BC01B0
:10410000CE0105960E947C16F7013A96659174914E
:10411000F7013C96C590D490072E000C880B990BA4
:104120000E9490301B012C012D813E814F815885CA
:104130000E949E31181624F42D823E824F825886AA
:10414000B6010D2C000C880B990B0E9490301B01BE
:104150002C012D813E814F8158850E94EE2F87FFD3
:1041600004C02D823E824F8258862D803E804F8033
:104170005884A2019101672D7A858B85962D0E9426
:10418000EE2F882309F449C0692D70E080E090E0AB
:104190000E949030A20191010E94A9310E945D30DD
:1041A0000336A9F028F40A3579F0023681F01CC0F4
:1041B000033781F00A3751F00636B1F4F501208259
:1041C00031824282538210C0605E01C0605FF5019F
:1041D00060830AC029823A824B825C8244E050E0CC
:1041E000B501CE01019606C0412F50E0B501675BD5
:1041F0007340C5010E94140BF70136968591949186
:10420000009759F0FC01099508C088E094E00E94ED
:10421000B80B03C01092A3045ACD2C96E2E10C9483
:1042200046331F920F920FB60F9211242F933F9394
:104230004F935F936F937F938F939F93AF93BF93AE
:10424000EF93FF9310929604809195048F5F809373
:10425000950480915603811114C08091A80488238D
:1042600081F0809156038F5F8093560378940E946B
:104270007008F8941092A80480915603815080939E
:104280005603FF91EF91BF91AF919F918F917F91D5
:104290006F915F914F913F912F910F900FBE0F90B3
:1042A0001F901895CF92DF92EF92FF928DD76B01FE
:1042B0007C0183E00E94B829813049F4C0928E04C9
:1042C000D0928F04E0929004F09291041FC08091EC
:1042D0008E0490918F04A0919004B0919104009766
:1042E000A105B10599F0C81AD90AEA0AFB0AD092C9
:1042F0009304C092920410928E0410928F04109234
:1043000090041092910481E080939404FF90EF90C8
:10431000DF90CF90089566E970E080E090E079C783
:1043200065E085E00E94300866E673E081E291E096
:104330000E94E7093DD74AE050E08DE694E00E94F4
:10434000D12A8091D1058F3421F48091D2058A3110
:1043500059F061E081E00E9430086091D10570E081
:1043600084E091E00E94E709D6DF0C9470081F9268
:104370000F920FB60F9211242F933F934F935F9399
:104380006F937F938F939F93AF93BF93EF93FF931D
:1043900089DFFF91EF91BF91AF919F918F917F91B5
:1043A0006F915F914F913F912F910F900FBE0F90A2
:1043B0001F9018950FB6F894A895809160008861B9
:1043C00080936000109260000FBE60E071EE80E0AC
:1043D00090E00E94082B42E050E060E072E083E051
:1043E00096E00E94660948E450E064E072E08BEBDE
:1043F00095E00E9466098091030681FD03C085E374
:104400009AE002C082E29AE090936205809361058F
:1044100084B58C7F84BD83E00E94302A0E944A10BC
:10442000809169008C7F826080936900E89A809116
:10443000BC05813051F462E083E03ED78091690091
:10444000837F846080936900E99A5E9A0E94700875
:1044500078948091D305883341F48091D4058733D3
:1044600021F48091D505803389F088E38093D305CA
:1044700087E38093D40580E38093D50543E050E043
:104480006CE172E083ED95E00E94140B8091FC05D5
:10449000882391F0E091FD05EE2371F0F0E0E15CFE
:1044A000FE4F849180938D04882331F061E004D71E
:1044B00060E080918D043CD70E94170831DF109294
:1044C000E1040895E0910301EF5FE0930301E770D9
:1044D000F0E0EE0FFF1FEE5BFC4F9183808388E0DE
:1044E00060E070E08150E82FF0E0EE0FFF1FEE5B20
:1044F000FC4F20813181620F731F8111F3CF80E067
:1045000090E00E948E3020E030E040E05EE30C94CA
:10451000A931CF92DF92EF92FF92CF93DF938091F8
:10452000030684FD05C080918104882309F4AAC094
:10453000C0910201CF5FC093020180E194D7C770A0
:10454000EC2FF0E0EE0FFF1FEE5CFC4F91838083B9
:1045500088E0C0E0D0E08150E82FF0E0EE0FFF1FD0
:10456000EE5CFC4F20813181C20FD31F8111F3CF4C
:10457000209185043091860447E0429FC001439F0B
:10458000900D11248C0F9D1F23E0969587952A95F9
:10459000E1F790938604809385048091030684FF5D
:1045A00071C029E53EEE49E050E46091D905709173
:1045B000DA058091DB059091DC050E94A9316B0141
:1045C0007C01BE0180E090E00E948E309B01AC0136
:1045D000C701B6010E94A9310E94623040915F0577
:1045E000509160054115510529F470936005609361
:1045F0005F0512C09A01220F331F240F351F2E5F53
:104600003F4FA901460F571F569547955695479519
:104610005093600540935F0581E080939704E0919B
:10462000C0058E2F61E20E949732482F80915F056E
:1046300090916005C29664E670E00E94B032F0E0AE
:104640009B012E1B3F0BAFEFB0E00E941B335AE2E1
:10465000459F900111242E1B3F0B032E000C440B91
:10466000550B0E94F93237FF03C010925A050AC059
:104670002F3F310529F024F08FEF80935A0502C0B7
:1046800020935A058091030685FD05C08091820420
:10469000882309F474C0C0910101CF5FC093010168
:1046A0008EE0E1D6C770EC2FF0E0EE0FFF1FEE5D5D
:1046B000FC4F9183808388E0C0E0D0E08150E82FF8
:1046C000F0E0EE0FFF1FEE5DFC4F20813181C20F45
:1046D000D31F8111F3CF209187043091880447E0E4
:1046E000429FC001439F900D11248C0F9D1FA3E09A
:1046F00096958795AA95E1F790938804809387040F
:104700008091030685FF3BC029EA3CEC48E050E479
:104710006091DD057091DE058091DF059091E005E7
:104720000E94A9316B017C01BE0180E090E00E94F3
:104730008E309B01AC01C701B6010E94A9310E94D5
:10474000623040915D0550915E054115510529F497
:1047500070935E0560935D0512C09A01220F331FAE
:10476000240F351F2E5F3F4FA901460F571F569547
:1047700047955695479550935E0540935D0580910A
:10478000030686FD05C080918304882309F480C058
:1047900080917F04882349F020E137E240E050E037
:1047A00061E08FE02BD6CB0102C08FE05CD6E091B8
:1047B0000001EF5FE0930001E770F0E0EE0FFF1FF4
:1047C000EE5EFC4F9183808388E0C0E0D0E08150B2
:1047D000E82FF0E0EE0FFF1FEE5EFC4F20813181ED
:1047E000C20FD31F8111F3CF2091890430918A0425
:1047F00047E0429FC001439F900D11248C0F9D1FE5
:1048000033E0969587953A95E1F790938A048093E3
:1048100089048091030686FF3BC02DE032E348EC1B
:104820005CE36091E1057091E2058091E305909170
:10483000E4050E94A9316B017C01BE0180E090E09B
:104840000E948E309B01AC01C701B6010E94A931C4
:104850000E94623040915B0550915C054115510505
:1048600029F470935C0560935B0512C09A01220FD6
:10487000331F240F351F2E5F3F4FA901460F571FCF
:10488000569547955695479550935C0540935B0523
:104890008091C5058695823099F040F4882369F1AE
:1048A000813009F05FC081E1DED512C0833049F16B
:1048B000843009F057C0809171059091720523C032
:1048C00020E23EE440E050E061E081E197D5CB0199
:1048D000F9DD2091E5053091E6054091E70550911D
:1048E000E8050E94A9310E9462307093E50460934C
:1048F000E40481E08093970435C08091E60490E061
:1049000002C080E090E0DEDD0E9462307093E5043A
:104910006093E40480918404882321F180918004D1
:10492000882341F020E137E240E050E061E081E19E
:1049300065D503C081E197D5BC0120918B043091EE
:104940008C0447E0429FC001439F900D1124680FE3
:10495000791F83E0769567958A95E1F770938C04CB
:1049600060938B04DF91CF91FF90EF90DF90CF9019
:1049700008951F93CF93DF9320918D04222321F17B
:10498000E091FC05F0E0EE0FFF1FE559FA4F808142
:10499000918130E0F901E45AF54F1491F901E059A1
:1049A000F54FE491F0E0EE0FFF1FE257F54FC59190
:1049B000D491F8942881212B288350D48881E12F29
:1049C000E095E823E8837894DF91CF911F910895D3
:1049D0008DE694E00E947B0789E694E011D6E4E23C
:1049E000F4E088E992E097A786A78CE992E095AF7A
:1049F00084AF80EB92E090936F0480936E0484EB1D
:104A000092E090937D0480937C0488EC92E09093F4
:104A10008B0480938A048CEC92E0909399048093A9
:104A200098040895A4E0B0E0E8E1F5E20C942C339A
:104A3000A895BED36B017C0128EE33E040E050E046
:104A40000E94D7323093F9042093F80424E1C2166F
:104A500025E0D206E104F10408F07FC019D68823CE
:104A600009F479C024D68A3031F48091E1048F5F53
:104A70008093E10402C01092E1048091E10484304B
:104A800068F38CB583608CBD6FEF70E089E694E0CD
:104A90004BD6B12CE12CF12C912CA12CE9EFCE2E90
:104AA000E0E0DE2E09E614E03FEFE316F10411F03A
:104AB0000CF04BC0EDD58823B9F3F9D5823338F427
:104AC0008033D8F48A3081F38D3039F023C08237B7
:104AD00009F5A1E0EA1AF1081DC088E0981219C092
:104AE000EA2DF0E0E65AFC4F8081B826A394EA2D27
:104AF000F0E0E65AFC4F10820CC0EA2DF0E0E65AD6
:104B0000FC4F9081990F813309F49F5F90839394B8
:104B100001C0912CB0E4AB12C7CF6AE573E0C701C6
:104B20000E949408EFEFEE1AFE0A1F92BF92DF92E6
:104B3000CF921F930F9322D60F900F900F900F904C
:104B40000F900F90B12CA12CAFCF65EF70E089E6EC
:104B500094E0EAD5DFC2E4DBDDC28091980482FDF7
:104B60007EC080E4EAE5F3E0DF011D928A95E9F773
:104B70008091F10465E00E949732913021F09230EB
:104B800009F46DC06EC081D513D34B015C01B4E64E
:104B90008B0E911CA11CB11C0AEF1FEF09D38616C6
:104BA0009706A806B906A0F024EC39E040E050E0F2
:104BB00060E080E023D46F3F71058105910509F025
:104BC0002CF4662319F0611708F4162F015031F701
:104BD0001F3F19F41091040102C0109304011B300F
:104BE00088F01331B0F01D31D0F01832F0F01C33E2
:104BF00018F1163938F570E8872E75E2972EA12C3A
:104C0000B12C26C0812C62EC962EAA24A394B12C40
:104C10001FC0812C51EE952EA12CB12C19C0812CD6
:104C200046E9942EA12CB12C13C030E8832E30E736
:104C3000932EA12CB12C0CC0812C2BE4922EA12CF4
:104C4000B12C06C090EC892E92E1992EA12CB12CAA
:104C500089E694E0CCD4C501B401DAD402C00E9444
:104C60003D1880919704882309F4DEC0E091BC05CB
:104C7000E33008F4CDC0B090EF04E33029F4809124
:104C80009204909193043BC08BEF8E0F843040F4DC
:104C9000F0E0EE0FFF1FEF59FA4F808191812FC096
:104CA0008091710590917205E43049F58091550528
:104CB0009AEF980F923008F471C0909140058917CF
:104CC00089F08093400560E070E08CE395E00E94FD
:104CD000D6109091400580910601981303C081E0A1
:104CE00080939A048CE395E00E946515813D97407E
:104CF00008F454C080915505809306014FC020915F
:104D0000C105211118C06091FE058D34F4E09F07A4
:104D100060F09C012C54344070E080E293E00E94EB
:104D2000C432C9010E94B03201C060E0B616B1F1D0
:104D30006093EF0433C02091030620FF13C0815B12
:104D400094408730974020F481E080939B0426C0F4
:104D500080919B04882319F081E080939A0410923B
:104D60009B041CC08D5D95408B3D9540B8F420D2CE
:104D700000913C0510913D0520913E0530913F0585
:104D8000061717072807390748F481E080939A042B
:104D900064EF71E08CE395E00E94D61080919A0454
:104DA000882369F010929A048091EF048F5F8093BA
:104DB000EF049091FE05981710F41092EF04809183
:104DC000EF04B81629F191E09093970498E0E3E797
:104DD000F4E0DF011D929A95E9F79091A40490FD0B
:104DE00012C0ADEAB4E0ECEEF0E094919D93319600
:104DF0009111FBCF9091B404890F8093B40463E0C8
:104E000088E00E9448158091A4048E7F8093A404BA
:104E10008091980480FD06C081608093980481E0B1
:104E200080939604109297048091980480FF34C078
:104E300090919604911130C08E7F80939804909148
:104E40002605992329F08091A20482608093A20410
:104E50008091BB05882309F4ADC080919D04811128
:104E6000BFC08091A10482FDC8C0933070F08CE077
:104E7000E8E2F5E0A8E1B5E001900D928A95E1F74E
:104E80008091A10484608093A1040E948E160E94E8
:104E9000DD1D81E08093A804809151059091520519
:104EA000A0915305B09154058C159D05AE05BF0525
:104EB00038F464E170E081E595E00E94ED1059DD81
:104EC00080914D0590914E05A0914F05B0915005F0
:104ED0008C159D05AE05BF0550F564E670E08DE4C8
:104EE00095E00E94ED1015DB8091A10484FB222740
:104EF00020F991E0922790FB84F98093A1049923F3
:104F0000B1F08091A704882369F08F5F8093A70494
:104F1000833068F08091F0048F5F8093F0041092EA
:104F2000A70405C08091F0048F5F8093F004809106
:104F3000490590914A05A0914B05B0914C058C15FF
:104F40009D05AE05BF0508F0E5C064EF71E089E49A
:104F500095E00E94ED1081E0809397049091A10468
:104F600098609093A1049091F1049F5F9093F10455
:104F70009091A00489278093A004882309F4CAC0D3
:104F800080919C04816080939C048091950485307D
:104F900060F48091BA058F5F8093BA05843038F051
:104FA0000E94F5070E94700802C01092BA05109284
:104FB0009504B0C08091FA04833308F44ECF209159
:104FC000090130910A0120373E4F09F046CF209168
:104FD00007053091080530930A01209309013DCF60
:104FE00080919F0480FD3DCF2091A1042B7F2093D1
:104FF000A104816080939F0434CF80901805909025
:105000001905A0901A05B0901B05C501B4019F7742
:1050100025E33AEF4EE85CE30E94A931E3D72B0188
:105020003C01209128053091290540912A05509195
:105030002B05C501B4010E942F0B4B015C0120918F
:105040002C0530912D0540912E0550912F05609132
:105050001C0570911D0580911E0590911F050E94F1
:105060002F0B9B01AC01C301B2010E94A9312B019E
:105070003C01A5019401C501B4010E94A9316983D5
:105080007A838B839C83A3019201C301B2010E94A6
:10509000A9319B01AC0169817A818B819C81D8D631
:1050A0000E9410320E945D306093140570931505C4
:1050B0008093160590931705C501B4019F77FDD71E
:1050C0007093120560931105C301B2019F77F5D764
:1050D0007093100560930F05A30192015058C5010C
:1050E000B40129D720EE3EE245E652E40E94A93100
:1050F000E4D76A5571098091070590910805FB0175
:10510000E81BF90BCF010E9459150E94721580937C
:105110001305BBCE2496E0E10C9448331F920F9206
:105120000FB60F9211242F933F938F939F93AF93BA
:10513000BF938091060690910706A0910806B09152
:1051400009063091050623E0230F2D3720F4019640
:10515000A11DB11D05C026E8230F0296A11DB11D9A
:10516000209305068093060690930706A0930806F1
:10517000B093090680910A0690910B06A0910C0647
:10518000B0910D060196A11DB11D80930A06909362
:105190000B06A0930C06B0930D06BF91AF919F91A3
:1051A0008F913F912F910F900FBE0F901F901895E8
:1051B0002FB7F89460910606709107068091080653
:1051C000909109062FBF08953FB7F89480910A0681
:1051D00090910B06A0910C06B0910D0626B5A89BE8
:1051E00005C02F3F19F00196A11DB11D3FBFBA2F79
:1051F000A92F982F8827820F911DA11DB11DBC01D9
:10520000CD0142E0660F771F881F991F4A95D1F79D
:105210000895CF92DF92EF92FF92CF93DF936B01CD
:105220007C01D2DFEB01C114D104E104F10479F077
:10523000E4D0CADF6C1B7D0B683E7340A0F381E0B5
:10524000C81AD108E108F108C851DC4FECCFDF9152
:10525000CF91FF90EF90DF90CF900895823091052D
:1052600038F0880F991F880F991F05970197F1F75C
:105270000895789484B5826084BD84B5816084BDCE
:1052800085B5826085BD85B5816085BDEEE6F0E0BF
:10529000808181608083EAE7F0E0808184608083A0
:1052A000808182608083808181608083808180684A
:1052B00080831092C1000895CF93DF9390E0FC01AA
:1052C000E45AF54F2491FC01E059F54F849188236D
:1052D00061F190E0880F991FFC01E856F54FC591E8
:1052E000D491FC01E257F54FA591B491611109C029
:1052F0009FB7F8948881209582238883EC912E2390
:105300000BC0623061F49FB7F8948881322F3095DA
:1053100083238883EC912E2B2C939FBF06C08FB7DD
:10532000F894E8812E2B28838FBFDF91CF910895C9
:1053300090E0FC01E45AF54F2491FC01E059F54F4F
:10534000E491EE23A1F0F0E0EE0FFF1FE257F54FDE
:10535000A591B4919FB7F894611105C08C91E22F8B
:10536000E095E82302C0EC91E22BEC939FBF0895F7
:1053700090E0FC01E85BF54F2491FC01E45AF54F05
:105380003491FC01E059F54FE491EE23A1F1222381
:1053900039F1233091F038F42130A9F0223001F5B1
:1053A00084B58F7D12C0273091F02830A1F02430D1
:1053B000B9F4809180008F7D03C0809180008F7749
:1053C000809380000DC084B58F7784BD09C0809123
:1053D000B0008F7703C08091B0008F7D8093B000C4
:1053E000F0E0EE0FFF1FEC57F54FA591B491EC9153
:1053F000E32381E009F480E0089508950F931F935B
:1054000090E0FC01E45AF54F7491FC01E059F54F2E
:10541000E491662311F0672F01C060E0F0E0EE0F29
:10542000FF1FEC57F54F8591949189019A013F70C8
:10543000462F672F0E94FD056115710581059105B5
:1054400049F0DC01CB010196A11DB11DBC01CD01CC
:105450009F7003C060E070E0CB011F910F91089531
:1054600080930B0108958E3008F08E5020910B012F
:1054700090E4299F900111248770822B80937C00F7
:1054800080917A00806480937A0080917A0086FD12
:10549000FCCF809178002091790090E0922B0895C4
:1054A000A0E0B0E0E6E5FAE20C9434336C017A0156
:1054B0008B01C0E0D0E0CE15DF0581F0D8016D9101
:1054C0008D01D601ED91FC910190F081E02DC60196
:1054D0000995892B11F02196EECF7E01C701CDB73A
:1054E000DEB7E8E00C9450336115710581F0FB01E3
:1054F00001900020E9F73197AF01461B570BDC0103
:10550000ED91FC910280F381E02D0995089580E0F2
:1055100090E00895E9CF0895A1E2B0E0E2E9FAE26F
:105520000C9430336C01142FE52FCB01022F19A2FC
:10553000223008F40AE07E0121E2E20EF11C802E06
:10554000912CA12CB12C612F7E2FA50194010E94DA
:10555000D732029F1019112481E0E81AF1081A309D
:1055600014F4105D01C0195CF7011083122FE32FB2
:10557000CA01232B242B252B31F7B701C601B4DF39
:10558000A196ECE00C944C332115310549F4DC0173
:10559000ED91FC910190F081E02D642F0995089523
:1055A000BBCF9A01AB0160E070E0EECF089561DE01
:1055B000FDDF0E94DA21C3E9DBE234DA2097E9F368
:1055C000B2D0FBCF9091C100892F807194FF0EC0A3
:1055D0009091940680919506981302C080E00895FA
:1055E000E0919506F0E0EE5EF94F80810895E4E9E0
:1055F000F6E081818083E2E9F6E08081818308958D
:10560000FC011382128220E231E03183208308956D
:105610009B01AC018091C10084FD1092C1001092E9
:105620009306109292061092950610929406121606
:10563000130614061506ECF4211581EE3807410512
:105640005105F1F082E08093C00060E079E08DE3E5
:1056500090E0CFD7CA01B901615071098109910960
:1056600022E030E040E050E0C4D73093C500209302
:10567000C40088E98093C10086E08093C200089549
:105680001092C00020E130E0F0CF1092C1000895E8
:105690009091C100892F807194FF06C0809194067B
:1056A00090919506891B8F770895F2CF0895909178
:1056B000C100892F807194FF14C09091940680914D
:1056C0009506981302C080E00895E0919506F0E0F9
:1056D000EE5EF94F8081909195069F5F9F77909342
:1056E00095060895E4CF08959091C10094FF15C0E8
:1056F000909192069F5F9370209193069217E1F329
:10570000E0919206F0E0E25FF94F80839093920679
:105710008091C10080628093C1000895862FE4DFEC
:1057200081E090E0089508950F931F93CF93DF9346
:105730008C01FB016491EF012196662351F0D801A1
:10574000ED91FC910190F081E02DC8010995FE01D9
:10575000F1CFDF91CF911F910F910895A0E0B0E0BC
:10576000E3EBFBE287C79E01275F3F4F4F815885E0
:1057700060E08D819E811AD0E2E098C7A0E0B0E0A1
:10578000E3ECFBE277C79E01275F3F4F4F815885CF
:1057900061E08D819E810AD0E2E088C7DC01ED9155
:1057A000FC910190F081E02D09950895A1E1B0E010
:1057B000EBEDFBE24FC77C016C876A013901AE015A
:1057C0004F5F5F4F4A01F6015C8550FD059150FF28
:1057D00001916F01002309F41FC3053241F450FD0C
:1057E000059150FF01916F01053261F405C00A3047
:1057F00019F46DE0C701D2DF602FC701CFDF53017D
:105800003501E1CF10E0312C20E02032A0F40B3242
:1058100069F030F4003259F0033269F420612CC091
:105820000D3239F0003339F4216026C02260246043
:1058300023C0286021C027FD28C080ED800F8A305A
:1058400078F426FF06C09AE0199F800D1124182FC6
:1058500013C0EAE03E9E800D1124382E20620CC059
:105860000E3221F426FDD8C2206406C00C3611F495
:10587000206802C0083649F4F6014C8540FD0591C8
:1058800040FF01916F010111C0CF8BEB800F83307E
:1058900018F42061005E06C08BE9800F833008F0A9
:1058A0004DC12F7E26FF16E02F73522E053619F4B8
:1058B0002064522E08C0063621F4522F5068552E0F
:1058C00002C01111115057FE05C01C3348F431E0DD
:1058D000310F07C0183038F030E027E017E005C07E
:1058E0003CE327E002C0212F30E0530184E0A80E02
:1058F000B11CF3016081718182819381032FA40126
:10590000398B0E94A0063C012980398920FE02C003
:1059100023FE06C051FC06C052FE06C000E205C0D0
:105920000DE203C00BE201C000E0822D8C7019F083
:10593000011142C246C257FE0DC0360D24FE04C0FE
:105940008A81813309F4315013165CF5393060F1E6
:1059500038E02AC056FC28C0812F90E086159705B4
:1059600044F0FCEF6F16FFEF7F061CF0252D20683A
:10597000522E112359F0E2E0F0E0EC0FFD1FE10F91
:10598000F11D8081803311F41150F3CF57FE0CC00C
:1059900031E0310F812F90E06816790624F4161952
:1059A00003C031E001C010E057FE06C01614170412
:1059B00034F4C301019605C085E090E002C081E0A7
:1059C00090E001110196112331F0412F50E04F5F1B
:1059D0005F4F840F951F432D50E08417950714F4F3
:1059E000381A01C0312C852D897049F4332039F0E3
:1059F00060E2C701398BD2DE3A943989F7CF0023B0
:105A000029F0602FC701398BC9DE398953FC09C0E1
:105A1000332039F060E3C701398BC0DE3A9439890D
:105A2000F7CF57FE49C0230177FE02C0412C512C0D
:105A3000C301019684199509A401480F591F5E8777
:105A40004D87A301431B5109588B4F87012F10E04D
:105A50001195019511095FEF4516550619F46EE28F
:105A6000C7019CDE641475044CF04F8558894415B9
:105A7000550524F4ED85FE85608101C060E3F1E009
:105A80004F1A51084D855E854F5F5F4F5E874D878A
:105A9000401651061CF0C70181DEDDCF6414750489
:105AA00009F049C08A81863328F4853309F043C060
:105AB00024FC41C061E33FC06A81613319F0522D7B
:105AC0005F7E252EC7016ADE111104C054FC13C08D
:105AD00065E612C06EE2C70161DE1E5F82E001E092
