:10000000ECC500000C9459250C94EB250EC600009D
:100010000CC600000AC6000008C6000006C60000A4
:1000200004C6000002C6000000C60000FEC50000B5
:10003000FCC50000FAC50000F8C50000F6C50000C8
:100040000C94832DF2C500000C941A110C944011ED
:10005000ECC50000EAC50000E8C50000E6C50000E8
:10006000E4C50000E2C50000A91BAD1BCB1BE31BD0
:10007000D91BEF1BFB1B0D1C271CB51BB51B084A0E
:10008000D73B3BCE016E84BCBFFDC12F3D6C7431AC
:100090009ABD56833DDA3D00C77F11BED9E4BB4C03
:1000A0003E916BAAAABE000000803F05A84CCDB2CD
:1000B000D44EB93836A9020C50B9918688083CA6AE
:1000C000AAAA2ABE000000803F0664EC1B3C04BCC8
:1000D000163E3BE5B93CC93C37C29E5A3D66049882
:1000E000083EEA69AAAA3E000000803F0302010020
:1000F00053637265656E20300046440A0043442510
:10010000640A005246460A00100E0F114D697373BF
:10011000696E672F4F6C6420436F6E6669673A2083
:100120002564206D79203739004D696E696D4F5314
:10013000442D4578747261204D41564C696E6B2098
:10014000322E347C756E6920723838372044567CE4
:100150000020284E5453432900202850414C2900A8
:1001600025372E32660025362E3166009125372E32
:10017000326600A125372E32660060010B68BC0490
:100180000066018F6820060066011473B4040066DF
:10019000011D73AC040066011268B004006C01908C
:1001A00076A404007301A076A004006601BD61A8D6
:1001B0000400660157779C04000000000000000066
:1001C0004E6F20696E707574206461746121202502
:1001D000757C00B8B9002534690507002534690528
:1001E000060025352E32660D00253269006F7665D2
:1001F000726C6F61640053747265616D0066726F3A
:100200007A656E0053747265616D0025342E306618
:10021000010025322E3066252500256325638E25B5
:10022000342E30660100256325638E25322E30661C
:1002300025250025346905007C20CECECECE60CEAB
:10024000CECECE200040CB242020207C007C20205D
:100250002024CB0082808180818084808180818085
:1002600083808180818085808180818020C8C8C80A
:10027000C87EC8C8C8C8207C0020202024CBB8B9BC
:10028000CB242020207C00253369050020586525DB
:10029000342E30660025342E306600253269200069
:1002A00025352E30660025332E306925250025356D
:1002B0002E32660E0025332E30660025332E306632
:1002C0000025322E30660025342E3066002520357C
:1002D0002E316618002520352E326618005225333F
:1002E0002E306605005025332E3066050048253334
:1002F0002E306605004225352E3166050045253530
:100300002E3166004525342E30666D007345253547
:100310002E316600DD026E691A0600E5026E69186C
:100320000600ED026E69160600F502546914060017
:10033000FD0241680D060004035869FF05000C0327
:100340004173090600000000000000002533690029
:10035000253032697C002533690025342E30660152
:1003600000202090910025342E30660025352E3156
:1003700066004325642535697C0025342E306600EF
:1003800025342E31660025342E32660025342E3079
:10039000660025342E30660025342E326600253462
:1003A0002E3266004325692000256900253464004B
:1003B0004325692000B0B1B4B5B6B77B7D327C89E6
:1003C00000EDD9687700000059000000000000002F
:1003D00000D69FDCA81817AA90437327F6B968EDDA
:1003E000F4DED409FEE61C1C84DDE80B992927D62F
:1003F000DF8D210F036418EFEE1EF0B782820094A8
:100400001500347C0000001400988F0000000000EC
:10041000000000000000E7B73F36000000000000C9
:1004200000AF669ED0385D8A6C20B95422007CED06
:10043000044C80387486EDCBFA57CBDC19E2001DF2
:10044000DF5506E5CB01C3000000000000000000FE
:100450009AB20086DBD0BC5416131586004E44BDFC
:100460007F6F1515900100000000000000000000E3
:100470000000340000000000000000000000000048
:10048000000000000000000000000000000000006C
:10049000000000000000000000000000000000005C
:1004A000000000000000000000000000000000004C
:1004B000000000000000CC31AA2C532E00060102DF
:1004C0000203050A0A0B020C01151D200001D30AC4
:1004D0000002CC0A0003CE18BC849F1826053E0FEC
:1004E00000071D0E00188C0D000624160008BA0E19
:1004F0000009102000257114008B9A120B0A050CBC
:1005000000191F0F000DB7155C1122151116C2122C
:100510001212C3141417D1141313C60A0214870A33
:100520007F0F7418BD2E020B571B2B181D1C4B0D73
:10053000151D6E14000E2B0F091EE3160021270B4C
:100540000020400C002291128F24E5141F2BEF0A8B
:100550001F2CCA11002DA311002F851100A7D10C4B
:1005600000A8CE0C00A9CB0C00AAC80C001F0D0CD3
:100570000026D40C009AE112000000000055060C81
:1005800000000F06050C11910509440A0000000047
:1005900000420700000000000000000000000039D9
:1005A000077301800200000907C0E0401F30077395
:1005B000018402000009079CFF640027077301986B
:1005C0000200000907C0E0401F300773019C0200D1
:1005D0000009079CFF640019077301B002000009BD
:1005E00007C0E0401F30077301B402000009079CF8
:1005F000FF64000E077301C80200000907C0E04055
:100600001F30077301CC02000009079CFF640087BC
:10061000076800000000000000000000006D076691
:1006200001610600000907FCFF04007A0766016506
:100630000600000907FCFF04005107660169060077
:10064000000907FCFF04005F0766016D0600000952
:1006500007FCFF04003A0800000000000000000052
:100660000000002A08620A3806000002070000FFA6
:10067000001B08620A7106000002070000FF000D5F
:1006800008620137060000FD060000FF00FB07625C
:100690000136060000FD060000FF00EA0762013E89
:1006A000060000FD060000FF00DD0762013F0600B6
:1006B00000FD060000FF00CD070000000000000064
:1006C0000000000000BF07620176060000FD060181
:1006D000000400B60762013506E809FD06000003C4
:1006E00000A6075A017306E809FD06E1FF1F0098FE
:1006F000077A017206E809FD06F1FF0F00252E308A
:10070000660025332E31667600252E3366003420B0
:10071000285253534929204B0033202843757272C5
:10072000656E7429204B00322028563229204B0058
:10073000202020202020204100312028563129204F
:100740004B0020202050696E2053656E736F7273CA
:1007500000526F6C6C2020696E204E545343005041
:100760006974636820696E204E54534300526F6C65
:100770006C2020696E2050414C00506974636820E1
:10078000696E2050414C002020486F72697A6F6E6C
:1007900020616E676C657300566572746963616C85
:1007A000206F66667300486F72697A6F6E74616C51
:1007B000206F66667300436F6E74726173740053CA
:1007C000637265656E7320436F756E7400202053ED
:1007D000637265656E20706172616D730052535370
:1007E00049207761726E696E67004261747420639C
:1007F0006861726765207761726E004F766572730B
:1008000070656564207761726E696E67005374610C
:100810006C6C207761726E696E670042617474203F
:1008200032207761726E696E67004261747465721E
:1008300079207761726E696E67002020204F5344E3
:10084000207365747570006308BC083509180904C5
:10085000095E08040904095908696E6974006D6924
:1008600073730061726D00BC081D093F09B7083A37
:1008700009B208AD08A808A308040930092209260E
:1008800009040904092B099E08990894088F087126
:100890006C6F690071686F76007173746200696EC5
:1008A0006974006174756E006372757A00666277B0
:1008B0006200666277610074726169006D616E75D5
:1008C000003F093A09350930092B09260922091D7B
:1008D00009180913090E0909090409FF08FA08F59E
:1008E00008F008EC08E708746872770062726B0021
:1008F000686F6C640074756E6500666C6970007377
:10090000707274006D5F25640064726966006F66C2
:100910006C6F006C616E6400706F73680063697265
:10092000630072746C006C6F6974006775696400B1
:100930006175746F00616C7468006163726F00733D
:10094000746162008109740963095409BB09AE0925
:100950009F0990090325392E356625630425392E14
:10096000356600032531302E366625630425313087
:100970002E36660025392E3566256325392E3566D7
:10098000002531302E366625632531302E3666003F
:10099000032530356C642563042530356C64000311
:1009A0002530366C642563042530366C64002530B0
:1009B000356C6425632530356C64002530366C64F5
:1009C00025632530366C6400460A3C0A300A230A47
:1009D000170A0A0AFE09F309E709DC0946656E638E
:1009E0006520466172210046656E6365204869672F
:1009F00068210046656E6365204C6F772100426177
:100A000074742042206C6F77210048696768205613
:100A10005370656564210020204C6F7720527373FA
:100A200069210042617474657279204C6F772100EE
:100A3000204F766572537065656421002020205335
:100A400074616C6C2100204E6F2047505320666902
:100A500078210052B80E4085EB51401966BB001258
:100A6000800C1CA0141E666666400000803F100CBF
:100A7000BA000A00001BE8031A0000000800020187
:100A80000000030407000000000000000001020451
:100A90000810204080010204081020010204081000
:100AA00020040404040404040402020202020203F7
:100AB00003030303030000000023002600290000B5
:100AC000000000250028002B000000000024002763
:100AD000002A006E616E00696E660000407A10F3B5
:100AE0005A00A0724E18090010A5D4E80000E8765C
:100AF00048170000E40B54020000CA9A3B000000B3
:100B0000E1F505000080969800000040420F0000CB
:100B100000A08601000000102700000000E803008C
:100B20000000006400000000000A00000000000156
:100B300000000000002C76D888DC674F0823DFC156
:100B4000DFAE59E1B1B796E5E3E453C63AE6519911
:100B50007696E8E6C28426EB898C9B62ED407C6F3A
:100B6000FCEFBC9C9F40F2BAA56FA5F490055A2AF1
:100B7000F75C936B6CF9676DC11BFCE0E40D47FEFD
:100B8000F520E6B500D0ED902E03009435770500F2
:100B900080841E080000204E0A000000C80C333379
:100BA00033330F986E12831141EF8D2114893BE688
:100BB0005516CFFEE6DB18D1844B381BF77C1D9011
:100BC0001DA4BBE424203284725E228100C9F1247A
:100BD000ECA1E53D27000A094D2911241FBECFEFE6
:100BE000D8E0DEBFCDBF11E0A0E0B1E0E0E6F1E784
:100BF00002C005900D92A833B107D9F727E0A8E30A
:100C0000B1E001C01D92AC30B207E1F71BE0CAEDC4
:100C1000DBE004C02297FE010E946438C63DD10784
:100C2000C9F70E9404300C944634EAC9CF92DF928F
:100C3000EF92FF920F931F93E82FF92F05C00150F9
:100C400011092109310961F1908196239417B9F3B3
:100C500005C0015011092109310911F19081962334
:100C60009413F7CFC12CD12CE12CF12C0AC08FEFBB
:100C7000C81AD80AE80AF80A0C151D052E053F0502
:100C800079F080818623841791F36C2D7D2D8E2D34
:100C90009F2D1F910F91FF90EF90DF90CF900895BF
:100CA00060E070E080E090E01F910F91FF90EF9086
:100CB000DF90CF900895FA01AA27283051F1203112
:100CC00081F1E8946F936E7F6E5F7F4F8F4F9F4FE0
:100CD000AF4FB1E03ED0B4E03CD0670F781F891F22
:100CE0009A1FA11D680F791F8A1F911DA11D6A0FF0
:100CF000711D811D911DA11D20D009F468943F91A3
:100D00002AE0269F11243019305D3193DEF6CF01A1
:100D10000895462F4770405D4193B3E00FD0C9F767
:100D2000F6CF462F4F70405D4A3318F0495D31FDD4
:100D30004052419302D0A9F7EACFB4E0A695979527
:100D4000879577956795BA95C9F7009761057105FD
:100D500008959B01AC010A2E069457954795379547
:100D60002795BA95C9F7620F731F841F951FA01DA1
:100D70000895283008F027E03327DA01990F311D54
:100D800087FD916000966105710539F432602E5F30
:100D90003D9330E32A95E1F708959F3F30F0803886
:100DA0007105610509F03C5F3C5F3D93913008F0AF
:100DB0008068911DDF93CF931F930F93FF92EF9263
:100DC000192F987F9695E92F96959695E90FFF270D
:100DD000EB5CF44F99273327EE24FF24A701E701AA
:100DE00005900894079428F4360FE71EF81E491F53
:100DF000511D660F771F881F991F0694A1F7059054
:100E0000079428F4E70EF81E491F561FC11D770FDF
:100E1000881F991F661F0694A1F70590079428F470
:100E2000F80E491F561FC71FD11D880F991F661F37
:100E3000771F0694A1F70590079420F4490F561FD9
:100E4000C71FD81F990F661F771F881F0694A9F721
:100E500084911095177041F0D695C7955795479591
:100E6000F794E7941A95C1F7EBEDFAE068941590C2
:100E7000159135916591959105907FE27395E118F3
:100E8000F10A430B560BC90BD009C0F7E10CF11E58
:100E9000431F561FC91FD01D7EF4703311F48A956D
:100EA000E6CFE894015030F0080F0AF4002702174B
:100EB00008F4202F2395022F7A3328F079E37D93CD
:100EC0002A95E9F710C07D932A9589F6069497959F
:100ED0006795379517951794E118F10A430B560B50
:100EE000C90BD00998F023957E9173957A3308F059
:100EF00070E37C932013B8F77E9170617D9330F09E
:100F0000839571E37D9370E32A95E1F71124EF90C7
:100F1000FF900F911F91CF91DF91992787FD9095B9
:100F2000089580E0089580E0089580E00895089590
:100F3000FC011382128226E131E03183208308957F
:100F40008EBD0DB407FEFDCF8EB56EBD0DB407FE90
:100F5000FDCF8EB508958EBD0DB407FEFDCF8EB5C5
:100F60008FEF8EBD0DB407FEFDCF8EB508956FE0F7
:100F700070E080E090E00C94FC2D811180E4909171
:100F80001A03981749F080931A035E9860911A0328
:100F90006C6180E0D5DF5E9A08955E98809130069E
:100FA00081FD06C080912F0683FF19C081E018C023
:100FB00080EAD1DF80FF06C081E0DFDF80912F066D
:100FC000886007C081FF08C080E0D7DF80912F06CE
:100FD000877F80932F0605C082FDE4CF02C080E0AA
:100FE000CCDF5E9A0895CF93DF93E0913506E4302D
:100FF00008F0E0E0F0E0E451FF4FD49180E1C1E07F
:10100000C80F6D2F9DDFC03211F08C2FF8CFDF910C
:10101000CF9108955E98E7DF6091730682E090DFDC
:101020006091720683E08CDF5E9A0895CF935E989C
:101030008CEE91DFC82F60911A03626080E080DF40
:101040000E94E5256C2F6F7E8CE67ADF62E18CE0F2
:1010500077DF60911A036C6380E072DF0E94E52500
:1010600060911A036C6180E06BDFD4DFCF9108954B
:101070005E9862E080E064DF7ADFD8CF61E086E0EE
:101080000E944F2E62E082E00E944F2E86DFCECF7C
:1010900020911B0380911C0390E03EE1239F800D73
:1010A000911D1124909339018093380108958F7117
:1010B00080931C036F7060931B0380911A0380342C
:1010C00011F0673008F4E4CF635060931B03FBCF4B
:1010D0008F3F99F02091380130913901203E91E005
:1010E000390758F4A9014F5F5F4F5093390140937E
:1010F0003801F901E65CFE4F808308958C3731F4A6
:1011000080911B038F5F80931B03C2CFE1CF862F9B
:10111000F5DF81E090E00895CF93C42FC8DF8C2FD6
:10112000EDDFCF9108955E9860E085E009DF60E033
:1011300086E006DF61E084E003DF5E9AEAE3F1E047
:1011400080E25E9890819EBD0DB407FEFDCF9EB5F6
:1011500081935E9A93E0EA31F90798F35E988FEFF6
:101160008EBD0DB407FEFDCF8EB55E9A08950F9328
:101170001F93CF93DF93C82F8B015E9860E080E0D0
:10118000DFDE6C2F89E0DCDEE80110E00991612FE1
:101190008AE0D6DE602F8BE0D3DE1F5F1633B1F717
:1011A00060EA88E0CDDE80EAD6DE85FF03C00E94DB
:1011B000CC1AF9CF6CE080E0C3DE5E9ADF91CF916C
:1011C0001F910F910895A1E0B0E0E9EEF8E00C94D2
:1011D00087381CBC8F7280658CBD8DB581608DBDDC
:1011E0008DB589838EB589832196E2E00C94A3386E
:1011F00061E08DE00E944F2E61E08BE00E944F2E57
:1012000060E08CE00E944F2E61E08AE00E944F2E49
:1012100080E0D9CF8DE193E0EBCFFB01908198275F
:1012200080E1989F900111242927822F90E0382F88
:101230002227AC0163E0440F551F6A95E1F724278C
:101240003527418150E02427352774E0959587950F
:101250007A95E1F728273927318320830895262FAF
:10126000BC01822FDACFE82FF0E0EE0FFF1FE35131
:10127000FA4F80819181611105C028EE33E040ED85
:1012800057E004C020E233E048E958E082179307B2
:1012900090F0FC01E21BF30BCA01821B930B65E08B
:1012A00070E00E94FD37CF010E94FD37862F653028
:1012B00018F084E0089580E00895ADEEB5E0E9EC23
:1012C000F4E080819181883E934028F48D919C9137
:1012D0001197918380833296129684E0E13DF8075E
:1012E00081F7089590E0880F991FDC01A351BA4F50
:1012F000FC01E753FB4F8D919C9120813181821B32
:10130000930B0895E091C80425E0E29FF0011124B9
:10131000E158FA4F649161504091C6045091C7045E
:1013200090910B0187FF03C0992339F004C08823F3
:1013300011F0961721F0980F03C0962F01C090E08E
:10134000FA012EE0929FE00DF11D112434962591B3
:101350003491232B39F390930B0181E08093F404B3
:101360000895EF92FF920F931F93CF93DF937B012A
:101370008A01080F191FEC01E81AF90AC017D107F2
:1013800039F0C7018C0F9D1F0E94A8378993F6CFB3
:10139000CDB7DEB7E6E00C949F38EF92FF920F9343
:1013A0001F93CF93DF93EB018A017C01060F171F78
:1013B000C017D10741F0F70161917F01CE010E9472
:1013C000B0372196F5CFCDB7DEB7E6E00C949F3865
:1013D00021CE0895692F6BCE8CE790CE80E28ECE21
:1013E000CF93813110F08051FCCF811101C080E199
:1013F000C82FCC0FC25080E98C0F80DE81E98C0FA2
:101400007DDECF910895A8E1B0E0E9E0FAE00C9428
:101410008638182F88E1189FB001112460587D4F3D
:1014200048E150E0CE0101969CDFE12FF0E0EE0FA5
:10143000FF1FE652FB4F6081718180E090E00E94C7
:10144000C53529813A814B815C810E94E0362D812E
:101450003E814F8158850E945F349F938F937F9385
:101460006F93CE0109969F938F9388E994E09F93A1
:101470008F930E94D9300FB6F894DEBF0FBECDBF58
:101480006896E3E00C94A238CF936AE086E00FDE22
:10149000C0E08C2FB8DFA0DFCF5FC430D1F7CF9191
:1014A00008957F936F939F938F9388E994E09F9320
:1014B0008F930E94E9300F900F900F900F900F9034
:1014C0000F9008951F93CF93DF93EC01162F6CE3D9
:1014D00070E00E94FD3786E593E0E3DF112331F0F1
:1014E00080910005882311F080E201C08AE306DEC6
:1014F000CE016CE370E00E94FD37BC0180E593E013
:10150000D0DFDF91CF911F91089560E0DBCF809114
:1015100067058E30C1F42091D80530E087E090E077
:10152000682FA901082E02C0559547950A94E2F745
:1015300040FD03C00197A0F768E06093D80529E05B
:1015400087E498E00BC080913306811104C024E148
:1015500087E698E003C023E181EC98E03091D8055C
:10156000632F70E0321740F4FB01EE0FFF1FE80F0E
:10157000F91F8591949102C084E099E092DF8091F7
:10158000FB04882311F086E8B9CD089560917105B8
:1015900070E086EA92E085CF60918C0570918D05B0
:1015A0008CED91E07ECF60918A0570918B0586ED80
:1015B00091E077CF7F936F935F934F939F938F9338
:1015C00088E994E09F938F930E94E9308DB79EB78E
:1015D00008960FB6F8949EBF0FBE8DBF0895609118
:1015E000FD057091FE0580E090E00E94C5352AE07F
:1015F00037ED43E25CE30E94E036AB01BC018EE9CB
:1016000093E0D8CF4091DF055091E0056091E1056E
:101610007091E20585EB92E0CDCFCF93C22F7F93FF
:101620006F935F934F939F938F9348E954E05F9339
:101630004F930E94E9308C2F61DD8DB79EB70896DD
:101640000FB6F8949EBF0FBE8DBFCF910895A0E056
:10165000B0E0EDE2FBE00C9481388091EB059091D5
:10166000EC05FC013A961491329604910D96FC011A
:10167000C591D4916091DB057091DC0580E090E02C
:101680000E94C5352DEC3CEC4CEC5DE30E94E0364D
:101690006B017C01602F70E080E090E00E94C73514
:1016A0009B01AC01C701B6010E94E0366B017C01D1
:1016B000BE0180E090E00E94C5359B01AC01C701EE
:1016C000B6010E945F342AE037ED43E25CE30E94FA
:1016D000E036AB01BC01212F8CE693E09EDFCDB755
:1016E000DEB7E8E00C949D387F936F935F934F9340
:1016F00020910E011F922F9320910D011F922F9385
:101700009F938F9388E994E09F938F930E94E93091
:101710008DB79EB70C960FB6F8949EBF0FBE8DBFC7
:101720000895EFEAF5E023812F9322812F93218101
:101730002F9320812F931F926F93EBEAF5E0238183
:101740002F9322812F9321812F9320812F939F9379
:101750008F9388E994E09F938F930E94E9308DB72F
:101760009EB70E960FB6F8949EBF0FBE8DBF08951C
:101770000E945E3420EC3BE649ED57E40C94E036E1
:10178000CF92DF92EF92FF92CF93C42F6B017C0137
:10179000E894F7F8C701B6010E949435882777FDD1
:1017A0008095982F0E94C7359B01AC01C701B601F7
:1017B0000E945E349B01AC01CC2329F060E070E50F
:1017C00083EC97E404C060E074E284E799E40E944B
:1017D000E0360E949435CF91FF90EF90DF90CF904C
:1017E00008950F931F93CF93DF93162F082FEC01CB
:1017F0008C2F801B811720F489910E949D30F8CF97
:10180000DF91CF911F910F91089580910205882358
:1018100019F080919405E4CD089580916F05909121
:1018200070058F739927029730F460E476E088E9B9
:1018300094E00C94722F0895CF93C42F28EE33E0D8
:1018400040E050E00E9424386C2FC9013BDECF916C
:1018500008957F936F939F938F9382E793E09F9375
:101860008F9388E994E09F938F930E94E9308DB71E
:101870009EB708960FB6F8949EBF0FBE8DBF089511
:101880000F931F93CF93DF930DEE15E0C1E0D0E0EF
:10189000F801619171918F01CE01DBDF2196C93092
:1018A000D105B1F7DF91CF911F910F910895A2E07B
:1018B000B0E0EDE5FCE00C9480388C01F801B490C8
:1018C0003196E590F490E114F10441F180916005C6
:1018D0006B2D6F7770E0660F771FF0E88F9F600DBC
:1018E000711D112442E050E0CE0101963ADDC9801D
:1018F000DA80C6016FDDD7FC09C0C7FC09C0F8015A
:1019000033968491882321F0F9DB02C0B7FE03C02F
:10191000C601F70109950C5F1F4FD0CF2296E9E071
:101920000C949C38CF93C82F60917C0370917D03F9
:1019300080917E0390917F030E94943561507109DC
:101940006F30774278F4C7FD02C086E1D7DB409163
:101950007C0350917D0360917E0370917F038AE543
:1019600093E028DECF910895262F30E0F901EA5266
:10197000FB4F87FD0BC091E09083F901EE52FB4FC6
:1019800086FB882780F98083862F3DCD10820895BD
:1019900063E0892FE9CF62E0892FE6CF61E0892FEC
:1019A000E3CF60E0892FE0CF0F931F93CF93DF93B6
:1019B000182F092F80911D05882309F45EC04091DE
:1019C0001B0550911C0520916F0530917005421741
:1019D000530709F452C080911905833010F0C0E01C
:1019E00001C0C1E2DAE180911A05D81BD7FD10C011
:1019F0008D2F8695602F810F5ADB17FD02C0C11114
:101A00003FC06DE175E088E994E00E94722F3EC00E
:101A100017FD02C0C11137C006FD1DC0D1952D2F85
:101A200030E08091610590911805891B90E0B90123
:101A3000660F771F0E9411384091110541110DC0AA
:101A4000009729F0215031098217930731F421E0E2
:101A50002093110502C080E090E0EC01C35EDA4FF4
:101A60008E01065E1F4F8991811102C0B7DC0EC046
:101A700045DBC017D107B9F7F9CF10921D0506C095
:101A80008C2F3CDBBECF8C2F39DBC6CFDF91CF91C3
:101A90001F910F910895CF92DF92EF92FF9296FFE0
:101AA00023C081E08093070529E838E848E85CE333
:101AB0006091240670912506809126069091270654
:101AC0000E94E0366B017C010E949435675F7F4F76
:101AD0006331710518F485ED92E002C08DEC92E05F
:101AE000B701A60167DD13C010920705E091EB0571
:101AF000F091EC05729624914091240650912506B0
:101B0000609126067091270687EC92E086DDFF90B3
:101B1000EF90DF90CF900895CF92DF92EF92FF92F7
:101B20001F93CF93DF93D82FC92F8091DE058F5558
:101B3000863010F414E601C01FEF6091E40570E0F8
:101B400080E090E00E94C5356B017C01612F70E060
:101B500080E090E00E94C7359B01AC01C701B6014F
:101B60000E942C3520E030E048EC52E40E94E03640
:101B70006B017C01C074D7FD46C088E8BFDA2AE05B
:101B800037ED43E250E4C701B6010E94E0360E94FF
:101B900099359B016138710548F029E820930D01C2
:101BA0009B0120583109EEE0F1E012C08DE88093EE
:101BB0000E012231310550F480910005882331F067
:101BC00080E280930D0180930E010AC0EDE0F1E008
:101BD000C9016AE170E00E94FD378DE8861B8083B1
:101BE000CC2329F0B701A60186E292E00AC0409119
:101BF0001C0650911D0660911E0670911F068AE119
:101C000092E072DD12C0CC2329F0AB01BC0182E16D
:101C100092E00AC040911C0650911D0660911E067C
:101C200070911F068BE092E0C5DCDF91CF911F9190
:101C3000FF90EF90DF90CF900895A0E0B0E0E3E256
:101C4000FEE00C9481384091AF055091B005609151
:101C5000B1057091B205452B462B472B69F4409195
:101C6000AB055091AC056091AD057091AE05452B6B
:101C7000462B472B09F479C094FF02C010E201C043
:101C80001CE796FB002700F9E82FE095EE1FEE27F2
:101C9000EE1FEE0FE02B80910005882311F180915B
:101CA0000C05853058F064E072E088E994E00E9409
:101CB000C530812F23DA6DEF71E00EC080910D05E4
:101CC000853078F066EF71E088E994E00E94C530D5
:101CD000812F14DA6DEE71E088E994E00E94C5303E
:101CE00044C0FF27E7FDF095EE0FFF1F95FF37C0BB
:101CF000E45BF64FC591D4916091AF057091B0054A
:101D00008091B1059091B205402F3ADDF62EE72E75
:101D1000D82EC92E6091AB057091AC058091AD05B0
:101D20009091AE05402F2CDDCF92DF92EF92FF9283
:101D30001F921F939F938F937F936F93DF93CF9304
:101D400088E994E09F938F930E94E9308DB79EB706
:101D50000E960FB6F8949EBF0FBE8DBF06C0EC5B0B
:101D6000F64F85919491612FDCDCCDB7DEB7E8E0CA
:101D70000C949D38FF920F931F93CF93DF93D92F2D
:101D8000182F1095111F1127111F51F096FD08C033
:101D900095FF39C069E772E088E994E00E94C53098
:101DA00083ECACD9209188053091890548E1429FA8
:101DB000C001439F900D11240C9668E671E00E94CB
:101DC000113864507109C62F77FF02C0C8E1C60FF1
:101DD000D5FBFF24F0F8D5FF02C00AE001C009E0FE
:101DE000EC2FF0E0EC5AFD4F849188D9CF5FC831D9
:101DF00008F0C0E00150A1F787E880D91123D1F0A5
:101E0000D6FD04C017C06CE672E0C6CFFF2079F0A3
:101E10006DE472E088E994E00E94C5308CE758D9FF
:101E200065E472E088E994E00E94C53003C068E38D
:101E300072E0F8CFCDB7DEB7E5E00C94A03896FBA2
:101E4000442740F96091C8057091C9058091CA0581
:101E50009091CB05F1CCCF93C92F60915205709131
:101E600053058CE493E01DDB80913D0680FD04C0AA
:101E7000C6FF02C085E242D9CF9108951F93CF9348
:101E8000DF93192F9091A905923019F020F4CAE23E
:101E900003C0CFE101C0CFE02091FD053091FE05E8
:101EA000283C310520F0909100059111C0E2D82F17
:101EB000D095DD1FDD27DD1F11F016FF0DC06091ED
:101EC000AA0570E089EE91E0ECDADD2341F016FF1F
:101ED00006C08C2F13D903C08C2F10D9F0CFDF91FF
:101EE000CF911F910895ADE0B0E0E9E7FFE00C94D9
:101EF0007738782E688780911A03803489F4C090EF
:101F00006506D0906606E0906706F09068068090BF
:101F1000610690906206A0906306B090640610C0BF
:101F2000C0906D06D0906E06E0906F06F09070063F
:101F30008090690690906A06A0906B06B0906C063F
:101F400060918C0570918D05882777FD8095982F7D
:101F50000E94C7359B01AC01C501B4010E94E03667
:101F60004B015C018091EC0480FF04C0B7FAB0948F
:101F7000B7F8B094C501B4010E949435AB016A353D
:101F8000710538F09B012D543F4F2935310580F400
:101F9000A9014734510590F54A31510518F54A30E9
:101FA000510530F529E02C878DEC682E16EC30C0F9
:101FB0006B3571051CF0AB01435B5109CA0157FF3A
:101FC00003C091958195910987349105B8F48A31C0
:101FD0009105C8F40A9730F338E03C8705EF602E8E
:101FE00012EE16C087E08C8718EF612E19ED10C035
:101FF00098E09C87B3EF6B2E10ED0AC01C86ADEC09
:102000006A2E11EC05C0E7E0EC87FBEF6F2E1BEEAC
:1020100027EA32E94BE25CEBC701B6010E94E036E9
:102020006C837D838E839F8325E33AEF4EE85CE3E8
:10203000C501B4010E94E0364B015C01ECE02E2E9C
:10204000312C00E07A947B822C85332727FD309554
:102050003A8729873AEF360D3B87C02EDD24C7FC2F
:10206000D09480918A0590918B058C0D9D1DBC01AB
:10207000882777FD8095982F0E94C7352C813D8158
:102080004E815F810E94E0360E94883720E030E078
:1020900044EB52E40E94E0362B013C0120E030E0AA
:1020A000A9010E94D53620E030E040E05FE387FDE3
:1020B0000BC0C301B2010E945F340E9494357B01C2
:1020C000EDE2EE0EF11C0AC0C301B2010E945E34C3
:1020D0000E9494357B01FDE2EF0EF11C2DE02219E8
:1020E0002D87882799278C199D099A838983FD85D7
:1020F0008F2F90E0281639060CF478C0C501B40182
:102100000E9488372B013C019D85ECE09E9F602D4D
:1021100011246E54772767FD7095872F972F0E94A3
:10212000C7359B01AC01C301B2010E94E0360E9499
:102130009435F701E60FF71FCF0101978A35910516
:1021400008F050C062E170E00E941138662E2C85C4
:10215000222391F03EEE3603A001379F500D11244B
:102160004E0F5F1F4F5F5F4F57FF02C04F5F5F4FC4
:1021700055954795742E01C0712C5884561A64E009
:10218000650D8B819D85890F0E945708002389F07A
:10219000ED85E53071F4B601D7FE02C069817A8120
:1021A0004AE050E088E994E00E94EA2FF6E0FD87DB
:1021B00004C0872D810F0E947E08772099F0872D1B
:1021C00090E029853A858217930764F034E063161E
:1021D00049F04B85470D63E0650D8B819D85890F27
:1021E0000E948C08ED85EF5FED8781CFF7FE0AC076
:1021F000025E82E0281A310894E02916310409F0C1
:102200002CCF06C02BE5E216F10414F00E51F1CFED
:102210002D96E2E10C94933866E089E064CEAB0140
:10222000BC01E091EB05F091EC053996249180EA30
:1022300092E0F3C91F920F920FB60F9211242F93C1
:102240008F939F93EF93FF939091C60080910A071D
:102250008F5F8F7720910B07821741F0E0910A077B
:10226000F0E0E857F94F908380930A07FF91EF91D0
:102270009F918F912F910F900FBE0F901F901895E7
:102280001F920F920FB60F9211248F939F93EF938B
:10229000FF939091090780910807981779F0E091D2
:1022A0000907F0E0EC57F94F80818093C6008091D8
:1022B00009078F5F83708093090705C08091C10073
:1022C0008F7D8093C100FF91EF919F918F910F902F
:1022D0000FBE0F901F901895EAE7F0E080818B7F8A
:1022E0008083808186608083089595FB222720F972
:1022F00094FF02C092E001C090E0292B86FF02C04B
:1023000084E001C080E0822B08951F93CF93DF9378
:10231000182FEBDF8C5FC82FD0E017FD06C0BE0181
:102320006F5F7F4F80EB93E0BCD8FE01EE0FFF1F85
:10233000E351FA4F608171818CEA93E0B2D8DF916A
:10234000CF911F9108951F93CF93DF93182FD92F0B
:10235000CCDFC4E0C80F17FD07C06C2F70E06F5FC3
:102360007F4F89EA93E09DD8D6FB662760F98C2FD2
:102370000E943309D82FC0E0CD1711F080E801C0CA
:1023800081E80E947E08CF5FC530B1F7DF91CF9121
:102390001F9108951F93CF93DF93182FD92FA5DF97
:1023A000C4E0C80F17FD07C06C2F70E06F5F7F4F50
:1023B00084EA93E076D8D6FB662760F98C2F0E94DA
:1023C0003309182FC0E0D3E0CE010E94A8378F3F19
:1023D00071F0811103C0112351F01150111102C08D
:1023E0000E947E082196C03883E0D80769F7DF9104
:1023F000CF911F91089596FB222720F930E095FF99
:1024000003C082E090E002C080E090E0822B932B3A
:1024100001978330910540F4FC01EE0FFF1FEE5D44
:10242000FE4F80819181089580E090E008950F93A0
:102430001F93CF93DF93EC018B010E94CD2D600F92
:10244000711F811D911D688379838A839B83DF912E
:10245000CF911F910F9108959B01FC014081518103
:1024600062817381420F531F611D711D408351832F
:10247000628373830895E091EB05F091EC05349647
:1024800065917591859194910895CF92DF92EF9225
:10249000FF92CF93DF936B017C01EDDFA7019601E3
:1024A0000E94E0366B017C010E949435C091EB05DF
:1024B000D091EC05FE01603177423CF439962491CD
:1024C000B701A6018CE893E024C0709665917491E1
:1024D00080E090E00E94C5359B01AC01C701B601C8
:1024E0000E942C356B017C010E9494356A30710585
:1024F00034F06436710534F480E893E005C086E872
:1025000093E002C08AE793E0FE013F962491B70171
:10251000A60183D8DF91CF91FF90EF90DF90CF900D
:102520000895609120067091210680912206909175
:102530002306ABCF96FB882780F980931005809106
:102540000205882369F097FD0BC060919505709195
:10255000960580919705909198050E94C73595CF73
:102560000895CF92DF92EF92FF926B017C0183DF9F
:10257000A70196010E94E03652DEFF90EF90DF90B7
:10258000CF90089560910506709106068091070628
:1025900090910806611571058105910541F46091DE
:1025A0008405709185058091860590918705D9CF26
:1025B000E091EB05F091EC05659175918591949111
:1025C0000895CF92DF92EF92FF92CF93C92F80911F
:1025D000FA04882309F4F2C01092FA04C09080052E
:1025E000D0908105E0908205F0908305E1DFA7019E
:1025F00096010E94E0360E9494358091E905909101
:10260000EA0520910605222351F031E020E04091B7
:10261000A905423008F030E0E32EF22E02C0E12C92
:10262000F12C4091330641110CC02091370630E067
:102630006217730734F42091FF0420FF02C06894EE
:10264000E1F820913606222331F030E026173707D3
:1026500014F46894E2F8F091E405E091DE0520912D
:102660003806222359F064E670E00E94FD376115B8
:10267000710521F030E062177307ECF020913E06FF
:102680002223D9F034E6F39FC00111243E2FE7FF47
:1026900002C031E03E0F3595830F911D37FD9A95AD
:1026A0006E2F772767FD70950E941138822F90E07A
:1026B0006817790714F46894E3F880913D0680FD6B
:1026C0000CC080913F0690E0209152053091530557
:1026D0002817390710F46894E4F880912406909143
:1026E0002506A0912606B09127064130A9F4D09086
:1026F0003706DD2089F0BC01CD019F770E9494351B
:10270000CB016AE070E00E9411388D2D90E08617B1
:10271000970714F46894E5F88091E7059091E8052F
:1027200020917106222371F064E670E00E94FD376B
:102730006115710539F0822F90E06817790714F45C
:102740006894E6F8C6FF11C080916605813019F4DF
:102750006894E7F80DC0823019F46894F0F808C066
:10276000833019F46894F1F803C0E114F10421F105
:1027700050917B0381E05111850F80937B03409141
:102780007B032FEF240F81E090E002C0880F991F98
:102790002A95E2F74B3018F041E081E090E09C018F
:1027A0002E213F21232B21F4880F991F4F5FF2CF59
:1027B00040937B03451302C010927B03E0917B039F
:1027C000EE2359F0F0E0EE0FFF1FEA53F64F65914C
:1027D000749188E994E00E94C530CF91FF90EF900A
:1027E000DF90CF900895A0E0B0E0E9EFF3E10C9422
:1027F0008238EC01FE01059114910115110509F4CF
:1028000068C0FE013296849181110E947E08FE010B
:10281000339684913196E590F4908936D1F068F43E
:10282000813681F0883609F03AC0E091EB05F091ED
:10283000EC053996D4901FDE3BC08337B1F0863764
:10284000E1F02DC0B1E4DB2E6AE077ED83E29CE39A
:102850002FC0F70160817181882777FD8095982FBF
:102860000E94C735A0E2DA2E2AC0E091EB05F09174
:10287000EC053896D4909CDE1BC0FDDD2091070549
:10288000211114C0E091EB05F091EC057296D49003
:1028900020E030E040E752E40E94E03609C0F0E278
:1028A000DF2E60E070E080E89FE302C0E8E1DE2E0A
:1028B000F70120813181428153810E94E0362D2D24
:1028C000AB01BC01C8010E940D0B0E94EC092796C8
:1028D00091CFCDB7DEB7E7E00C949E3884E193E06A
:1028E00082CFCF93DF93D82FC92F48E0692F0E9462
:1028F0008C086091C8057091C9058091CA059091B6
:10290000CB0540E00E941C0C8AE791E06CDFC6FF1B
:1029100005C06C2F8AE08D0F0E9457086CE783E694
:1029200099E00E94910BDF91CF910895CF92DF92B1
:10293000EF92FF921F93CF93DF93EC016A017B012B
:10294000122F36DEA70196010E94E036112341F0D6
:1029500024EE38E34EE85EE30E94E03628E106C04C
:10296000E091EB05F091EC0538962491AB01BC01A8
:10297000CE010E940D0BDF91CF911F91FF90EF9040
:10298000DF90CF90089596FB222720F9409176059D
:102990005091770560917805709179058BEB92E005
:1029A000C5CF96FB222720F94091800550918105E3
:1029B00060918205709183058BEB92E0B7CF2FE693
:1029C00032E143E85AE30C94E036CF92DF92EF9283
:1029D000FF92CF93DF93C0918003D09181034BDDB1
:1029E0006B017C018AEF8C9FB0018D9F700D1124CB
:1029F000882777FD8095982F0E94C7359B01AC01F1
:102A0000C701B6010E94E036E091EB05F091EC05BC
:102A1000A8974CF03F96C491D2DFAB01BC012C2F9C
:102A200088E993E006C039962491AB01BC0182E9A4
:102A300093E00E940D0BDF91CF91FF90EF90DF901C
:102A4000CF9008954091B3055091B4056091B505BC
:102A50007091B60596FF0CC08091A1059091A205DA
:102A6000A091A305B091A405481B590B6A0B7B0BE1
:102A7000CB01BA010E94C735A2DF73CDBC0180E053
:102A800090E00E94C5359BDFAB01BC0182EE91E076
:102A90000C94DA0A20916F0530917005260F311DD4
:102AA00030931C0520931B0580931A0580916105C6
:102AB00080931805089597FF03C088599E4F089585
:102AC000893621E0920714F0885691400895CF93FB
:102AD000DF93EC010E94CD2D28813981CB01821B2F
:102AE000930BDF91CF91089520913B0630913C06E6
:102AF000815018F4822F8F70089594E036952795B1
:102B00009A95E1F7F5CFA2E0B0E0E9E8F5E10C94A1
:102B1000873881E08093F40488E0E9ECF4E0DF0199
:102B20001D928A95E9F760916005B0E86B9FB0014E
:102B3000112442E050E0CE0101960E94B109998132
:102B40008A819093EC048093ED042296E2E00C9449
:102B5000A33824E0880F991F2A95E1F78C549F4FE2
:102B600068E671E00E941138CB0101960895CF927A
:102B7000DF92EF92FF921F93CF93DF938091D8055E
:102B80008A3009F059C0C091FF05D0910006C83EB7
:102B900083E0D8073CF4C9318CEFD8072CF4C9E1A5
:102BA000DCEF02C0C7EED3E0E091EB05F091EC055D
:102BB000399614916091110670E08BE992E00E94C1
:102BC000510A609112067091130680E090E00E9415
:102BD000C5356B017C014FDCA70196010E94E036F0
:102BE000AB01BC01212F85E992E00E940D0B0E94F0
:102BF000EC0980911406909115065DDF20918805FF
:102C000030918905821B930BA4DF0E94F00933DC0D
:102C10006B017C01BE01882777FD8095982F0E946B
:102C2000C735A70196010E94E036AB01BC01212FF8
:102C30008CE892E00E940D0BDF91CF911F91FF90E5
:102C4000EF90DF90CF9008958091A7059091A8050F
:102C5000C29664E670E00E94FD37209188053091AD
:102C60008905CB01821B930B26DF845B910990932E
:102C7000A6058093A5056DDF885F0E94F00960912D
:102C8000A5057091A60583E392E00C94510ACF92BA
:102C9000DF92EF92FF92CF93DF93EC016A017B0109
:102CA0009A01AB01688179818A819B810E942535D7
:102CB00087FF04C0C882D982EA82FB82DF91CF916C
:102CC000FF90EF90DF90CF900895A0E0B0E0EBE6AA
:102CD000F6E10C947D38EC014A015B018901C88062
:102CE000D980EA80FB8020E030E0A901C701B6016D
:102CF0000E942535882319F00115110529F48882D1
:102D00009982AA82BB821DC0A7019601C501B401A8
:102D10000E945E344B015C01B801882777FD8095E5
:102D2000982F0E94C7359B01AC01C501B4010E94D8
:102D30002C35A70196010E945F34688379838A83CA
:102D40009B83CDB7DEB7ECE00C9499388F929F92BD
:102D5000AF92BF92CF92DF92EF92FF926091E50522
:102D60007091E605882777FD8095982F0E94C735DA
:102D70004B015C01C0907605D0907705E090780516
:102D8000F090790515DCA70196010E94E0369B01C1
:102D9000AC01C501B4010E942C3520E030E040E2D6
:102DA00051E40E94E036AB01BC0124E630E08CE740
:102DB00093E08BDFFF90EF90DF90CF90BF90AF90CC
:102DC0009F908F9008958F929F92AF92BF92CF92D3
:102DD000DF92EF92FF92CF93C82F96FF12C020E0B0
:102DE00030E0A901609176057091770580917805B2
:102DF000909179050E942535882309F422C1A6DF28
:102E000020C0809133068111CAC020E030E0A901C2
:102E1000609176057091770580917805909179059C
:102E20000E942535882309F40CC190DF909171052B
:102E30008091FE04933048F0811103C081E08093BB
:102E4000FE048C2F0E94920CFCC0882311F180910B
:102E5000050690910606A0910706B091080680939A
:102E6000BB059093BC05A093BD05B093BE058091B2
:102E7000200690912106A0912206B091230680930E
:102E80006A0390936B03A0936C03B0936D0310924D
:102E9000FE042DEC3CEC4CE45DEB6091B7057091C9
:102EA000B8058091B9059091BA050E94253587FF34
:102EB00062C0C0900506D0900606E0900706F0902C
:102EC000080620916A0330916B0340916C03509186
:102ED0006D036091200670912106809122069091E9
:102EE00023060E945E344B015C01A70196016091AC
:102EF000BB057091BC058091BD059091BE050E94F7
:102F00005E349B01AC01C701B6010E942C359B01C8
:102F1000AC01C501B4010E94E0366B017C01ABDA63
:102F20009B01AC01C701B6010E94E0366B017C0138
:102F30000E949435603187E2780724F4161617064C
:102F400044F07FC0C12C3CE3D32E3CE1E32E36E4B9
:102F5000F32EC7FD03C08EEE0E947E08E091EB05C4
:102F6000F091EC0539962491B701A60186E693E02D
:102F70000E940D0B66C080918A0590918B0597FF8A
:102F800060C080910005811103C061E673E002C05A
:102F900062E673E088E994E00E94C53052C08091F7
:102FA000FB04882309F44DC09090E405A92CB12CB2
:102FB0008091DD05992787FD9095A816B906B1F196
:102FC0006091C8057091C9058091CA059091CB05A3
:102FD0000E94C5356B017C01692D70E080E090E0B6
:102FE0000E94C5359B01AC01C701B6010E94E036C5
:102FF0006B017C016091DE05772767FD70956A198A
:103000007B09882777FD8095982F0E94C7359B0103
:10301000AC01C701B6010E942C35D1DC0E94993564
:103020007093DA056093D9059092DD05C7FD03C062
:1030300087E10E947E088091D9059091DA050E946F
:10304000850ACF91FF90EF90DF90CF90BF90AF9027
:103050009F908F900895A0E0B0E0E1E3F8E10C9438
:103060008138092F80917A0590917B0524DDEC0150
:10307000C0907C05D0907D05E0907E05F0907F05A6
:1030800024E630E0B701A60188E296E01EDE06FBEA
:10309000112710F9212FB701A6018BEB92E046DC36
:1030A0000E94EC0980918805909189059E01281B5A
:1030B000390BC9014EDD05FF02C098E001C090E068
:1030C000890F0E94F00940912806509129066091CD
:1030D0002A0670912B06212F81EC92E027DCCDB7D8
:1030E000DEB7E8E00C949D38CF93DF9384D9EC01F0
:1030F0006091E5057091E605882777FD8095982F0A
:103100000E94C735AB01BC019E0186E693E0DDDD80
:103110002AE037ED43E25CE3609166037091670358
:1031200080916803909169030E94E036AB01BC0175
:103130008EEA92E00E94DA0ADF91CF910895CF9350
:10314000DF9397FD20C021E020930F0554D9EC01B7
:103150006091E7057091E80580E090E00E94C53538
:10316000AB01BC019E0182E693E0AFDD609162039A
:103170007091630380916403909165030E94993577
:10318000CB017CDC08C081E090917106911101C0F7
:1031900080E080930F05DF91CF910895CF93DF9367
:1031A0002AD9EC016091E9057091EA0580E090E090
:1031B0000E94C535AB01BC019E018EE593E085DD23
:1031C00060915E0370915F03809160039091610351
:1031D0000E949935CB0152DCDF91CF9108952AE00E
:1031E00030E073CDCF93DF93EC019A01AB0168819E
:1031F00079818A819B810E945F34688379838A8385
:103200009B83DF91CF910895A7E0B0E0EAE0F9E178
:103210000C94773884EC95E05ADC1C0160E070E097
:1032200084EC95E004D9B10180E090E00E94C535BE
:10323000C6DB6A837B838C839D836091E5057091F7
:10324000E605882777FD8095982F0E94C7356B018A
:103250007C016091E9057091EA0580E090E00E94B0
:10326000C535A70196010E94E0362CEA35EC47E20D
:1032700057E30E94E036AB01BC018FED95E0AFDF74
:103280008090B7059090B805A090B905B090BA05A8
:10329000F2D82B013C0120E030E040E752E4C501C8
:1032A000B4010E94E036A30192010E94E036AB0116
:1032B000BC0184E296E093DF4091E4052091DE05B5
:1032C000332727FD3095842F90E02817390714F411
:1032D0004093DE0580913306811120C01091FF04D8
:1032E00010FD1CC0609105067091060680910706CE
:1032F000909108060E949435663071057CF08091AB
:1033000071058F3158F011601093FF041092200660
:1033100010922106109222061092230621E63BE02D
:1033200046E35BE3C701B6010E94E0362A813B8198
:103330004C815D810E94E036AB01BC018CE196E0DE
:1033400051DF809154059091550520913D0620FD57
:1033500070C000917706109178062091790630911F
:103360007A063F832E832017310744F03E812F8158
:103370001F830E83032F122F198202C031E039837D
:103380003E812F814E815F814817590714F4382FF1
:10339000292F632F722F061717070CF4B8018827FF
:1033A00077FD8095982F0E94C7352B013C01EE8157
:1033B000FF81BF01882777FD8095982F0E94C73530
:1033C0009B01AC01C301B2010E945E342B013C01A0
:1033D000B8012E813F81621B730B882777FD809592
:1033E000982F0E94C7359B01AC01C301B2010E9416
:1033F0002C3520E030E048EC52E40E94E0360E9498
:103400009435653671052CF477FF05C060E070E0F7
:1034100002C064E670E03981332331F084E690E045
:10342000AC01461B570BBA017093530560935205CC
:1034300004C0909353058093520580913306811107
:1034400004C08091FF0480FD05C08091FB048823A7
:1034500009F472C0B10188EC95E00E942C128091B1
:103460000205882399F020917605309177054091E7
:103470007805509179056A817B818C819D810E94BC
:10348000E036AB01BC0180E296E0ACDE60919505D0
:103490007091960580919705909198050E94C73587
:1034A000AB01BC018CEB94E0F2DB409180055091C4
:1034B0008105609182057091830588EB94E0E7DBDC
:1034C0004091760550917705609178057091790566
:1034D00084EB94E0DCDB409184055091850560919C
:1034E00086057091870580EB94E0D1DB40917C05E7
:1034F00050917D0560917E0570917F058CEA94E086
:10350000C6DB4091DF055091E0056091E1057091C7
:10351000E2058CE994E0BBDBB701A60188EA94E000
:10352000B6DBB501A40184EA94E0B1DBB501A401E6
:10353000705880EA94E0ABDB2796E2E10C94933874
:10354000CF93DF93EC01CB01BA010E94C73525E987
:103550003FEB46ED53E30E94E036688379838A832C
:103560009B83DF91CF9108950E94CD2D60936905D3
:1035700070936A0580936B0590936C0580916F053D
:103580009091700590936E0580936D0581E0809316
:10359000F4048093F60408958AEA90E00C94212EB6
:1035A0000E947330811101C0F7CF08953091E40477
:1035B0003323E1F0E0917406F0E0EE0FFF1FEB50D3
:1035C000FA4F80819181E091E204F091E30420813F
:1035D000232B20830E94212EE091E204F091E3044A
:1035E00090818091E4048095892380830895A0E1EF
:1035F000B0E0EDEFFAE10C947A380DEB14E07724AB
:1036000073945EEF652E66E0562E88248A94982C7B
:103610006E0187E0C80ED11CFE013D965F01F801E6
:103620003196849160912D06662339F0880F880FBA
:103630000E94E437811101C081E0F80124913091AA
:10364000680590E098878F8339871A862B877C8658
:1036500069825A82809175038B83909105019C83C6
:10366000909106019D8392E49E838F5F8093750302
:103670009E868D86CE0102967C01EC14FD0439F005
:10368000B501F70181917F010E940D09F6CF8D856B
:103690009E85988B8F877601BE01615F7F4FEA140C
:1036A000FB0431F0F70181917F010E940D09F4CFF5
:1036B00084E90E940D099F8588899D878E8766E031
:1036C000CE0101960E94F10B66E0C6010E94F10B4B
:1036D00062E0C7010E94F10B0E5F1F4FF4E0093C4E
:1036E0001F0709F09CCF6096EFE00C949638A0E09D
:1036F000B0E0EDE7FBE10C94773844244394C1E05B
:10370000D0E008E010E0E6E02E2E312CF5E06F2E40
:10371000712CA4E0CA2ED12CB2E0AB2EB12C88249F
:103720008A94982C0E947330882309F442C10E9425
:103730008230582E10926E032091710330917203E3
:103740002B30310508F0BAC0F901EC5CFF4F0C9446
:10375000623810927903109278038EEF581681F038
:10376000D0937203C0937103A9C090E0E0908503E9
:10377000F12C8E159F0509F491C09EEF5912F0CFE0
:10378000B0927203A0927103109287039092850306
:103790008092840393C08093870310927303682FF1
:1037A00084E893E00E942F09D0927203C0927103C3
:1037B00085C080938803682F84E893E00E942F09D6
:1037C00083E090E025C080938903682F84E893E02C
:1037D0000E942F0970927203609271036FC08093F0
:1037E0008A03682F84E893E00E942F0930927203C5
:1037F0002092710363C080938B03682F84E893E069
:103800000E942F09809187038823E1F087E090E0F0
:10381000909372038093710351C0E091730381E030
:103820008E0F80937303F0E0E457FC4F5082652DB8
:1038300084E893E00E942F0990917303809187039D
:1038400098133CC0109372030093710337C0E0914A
:103850008B03F0E0E354FC4F649184E893E00E9412
:103860002F09252D30E080918403909185039927BD
:103870002817390739F09EEF591609F481CF8AE0ED
:1038800090E0C6CF89E090E090937203809371033B
:10389000E0917303F0E0E457FC4F0FC02A3031058C
:1038A00009F46BCF40926E03D0937203C0937103FF
:1038B000E0917303F0E0E357FC4F508220916E03D8
:1038C000222399F08091880380937403809176037A
:1038D00090917703009721F4109279031092780366
:1038E00001969093770380937603109270032223BE
:1038F00009F473C339DE80918B03833809F04CC01F
:103900009091890380916505981346C080918A0340
:10391000843609F041C080918C0390918D032091F1
:1039200063053091640582179307B1F190936405A4
:103930008093630580918E038E3E71F580918F0395
:103940008F3451F580919003833531F58091910347
:10395000843411F580919203823699F08737E1F42F
:10396000609193034091940350E080E8689FB00118
:10397000112485E993E00E94CD0981E08093080538
:103980000BC080919403811107C0809108058823A2
:1039900019F0EE27FF27099480918B03882309F4FF
:1039A0008AC090916805992331F02091890392177C
:1039B00011F080E015C38E3309F4B3C108F05EC086
:1039C0008D3109F47CC250F4883109F4F6C08B3192
:1039D00009F4C5C0813009F002C3C7C0813209F4BF
:1039E00077C208F040C08E3109F0F9C221EE3EE204
:1039F00045E652E46091940370919503809196039B
:103A0000909197030E94E0360E94943570938B0545
:103A100060938A0521EE3EE245E652E46091900310
:103A20007091910380919203909193030E94E036EC
:103A30000E94943570938D0560938C0521EE3EE2D3
:103A400045E652E4609198037091990380919A033E
:103A500090919B030E94E0360E94943570938F05ED
:103A600060938E05BCC2833209F4C5C18A3209F065
:103A7000B6C280918C0380931106B1C2823A09F4D8
:103A80009DC250F48D3609F49EC2893809F417C2DC
:103A90008A3409F0A4C2EBC0883A09F4F1C120F4D9
:103AA000863A09F490C29BC2853B09F479C08D3FE8
:103AB00009F465C294C280919003863049F48091E4
:103AC000890380936505109264051092630587C28F
:103AD000853009F484C28A3109F481C2809191034E
:103AE000809367058091920387FB882780F98093F4
:103AF000FB0480918C038093D80580918903809387
:103B0000680580911705811121C080912C068823BA
:103B100091F080910D05853020F48F5F80930D0525
:103B200019C010920B0580912D068F3798F4880FDD
:103B300080932D060FC080910C05853020F48F5F97
:103B400080930C0507C010920B0504C010920D0560
:103B500010920C051092170510922C0640C280910D
:103B60002C068F5F80932C063AC220912F0624FDED
:103B70000CC080919A0390919B039093EA058093E7
:103B8000E9058091AA038093E40526FD28C280916F
:103B90009C0390919D039093E6058093E5051FC2D9
:103BA00080912F0685FD1BC280918C0390918D031F
:103BB0009093E8058093E70512C2409194035091D9
:103BC000950360919603709197038BEA95E0B8DCBA
:103BD000409198035091990360919A0370919B03CF
:103BE0008FEA95E0ADDC8091A8038093A9059091C0
:103BF000A9039093AA05882389F080919C03909152
:103C00009D03A0919E03B0919F038093B305909371
:103C1000B405A093B505B093B60518C020E030E018
:103C20004AE754E46091840570918505809186058A
:103C3000909187050E94E0360E9494356093B30509
:103C40007093B4058093B5059093B6058091A60353
:103C50009091A7039093A8058093A7058091A00356
:103C60009091A1039093FE058093FD05BCC08091C7
:103C70008C0390918D03A0918E03B0918F0380935C
:103C8000800590938105A0938205B0938305809170
:103C9000A905882349F08091900390919103A09108
:103CA0009203B091930308C08091720590917305BF
:103CB000A0917405B0917505809376059093770572
:103CC000A0937805B093790580919C0390919D0312
:103CD000909389058093880580919E038093710558
:103CE0008091940390919503A0919603B0919703CE
:103CF0008093840590938505A0938605B0938705EE
:103D00008091980390919903A0919A03B0919B039D
:103D10008093B7059093B805A093B905B093BA0501
:103D20005EC160918C0370918D0380918E039091A0
:103D30008F030E94943570931B0660931A0660915E
:103D400090037091910380919203909193030E944C
:103D5000943570931906609318068091A003909192
:103D6000A103909317068093160680919403909177
:103D70009503A0919603B091970380930D069093BD
:103D80000E06A0930F06B0931006809198039091B1
:103D90009903A0919A03B0919B0380930906909395
:103DA0000A06A0930B06B0930C068091A203909193
:103DB000A30390931506809314068091A403909119
:103DC000A503909313068093120660919C03709153
:103DD0009D0380919E0390919F030E949435709360
:103DE00000066093FF05809117058F5F809317058C
:103DF00010920C05F4C080919003909191039093E0
:103E0000EE058093ED05809192039091930390933A
:103E1000F0058093EF058091940390919503909322
:103E2000F2058093F105809196039091970390930A
:103E3000F4058093F30580919803909199039093F2
:103E4000F6058093F50580919A0390919B039093DA
:103E5000F8058093F70580919C0390919D039093C2
:103E6000FA058093F90580919E0390919F039093AA
:103E7000FC058093FB058091A10380935705AFC09B
:103E800060918C0370918D0380918E0390918F03CC
:103E90000E94943570937B0560937A05809190031E
:103EA00090919103A0919203B091930380937C052C
:103EB00090937D05A0937E05B0937F0590C080917F
:103EC0009803909199039093DC058093DB0587C05C
:103ED00060919C0370919D0380919E0390919F033C
:103EE00028EE33E040E050E00E944638CA01B901B4
:103EF0000E94C735609305067093060680930706F7
:103F0000909308066091A2037091A303882777FD20
:103F10008095982F0E94C7354B015C016091A003EA
:103F20007091A103882777FD8095982F0E94C7354F
:103F30006B017C01A5019401C501B4010E94E0362A
:103F40004B015C01A7019601C701B6010E94E03652
:103F50009B01AC01C501B4010E945F340E94473748
:103F60002AE037ED43E25CE30E94E036609372059D
:103F700070937305809374059093750530C080919C
:103F80008C0380931905873050F582E3EDE8F3E068
:103F9000ADE1B5E001900D928A95E1F710924F05E1
:103FA000EFE4F5E022E32E1B822F8E0F92919F7D8E
:103FB000D9F3118266E00E944A1511C080919303E3
:103FC000809366050CC0909190038091910398179F
:103FD00008F4892F8093560502C0E2DAA3CB81E072
:103FE000CDB7DEB7E2E10C949338809188059091CB
:103FF0008905880F991F8D966AE570E00E94113837
:1040000077FF03C0685F7F4FFBCF683071051CF0FE
:1040100068507109FACFFB01EB54FC4F849108956D
:1040200087FD03C0E2DF0E947E08609188057091E1
:10403000890587E892E00C94510AA3E0B0E0E3E23E
:10404000F0E20C947738882EB92E992E96FD10C088
:1040500033243394380C6B2D832D0E94730F56E05C
:10406000A52EA80C62E0262E2B0CB4FEDAC019C0D7
:1040700015E082EB0E947E080DE0015019F00E94CD
:10408000EE09FBCF133011F485EC01C083EB0E94E5
:104090007E080E94EC091150D9F2133051F786ECDA
:1040A000E9CF20919205309193053B832A830091BB
:1040B000900510919105C80117FF04C08827992722
:1040C000801B910B6AEF70E00E941138362F272F6A
:1040D0008A819B8197FF03C09195819591096AEF31
:1040E00070E00E941138CB01632F722F6817790797
:1040F0000CF4BC016F5F7F4F70938103609380036A
:10410000882777FD8095982F0E94C7356B017C0129
:10411000B801882777FD8095982F0E94C7352B011D
:104120003C0124EE38E34EE552E4C701B6010E949B
:10413000E0369B01AC01C301B2010E942C350E9404
:1041400094356983162F4A815B81BA01882777FDF0
:104150008095982F0E94C7352B013C012DE63BED41
:104160004EE052E4C701B6010E94E0369B01AC016B
:10417000C301B2010E942C3520E030E040E05FE353
:104180000E945F340E949435F62E86FC0AC02DDF13
:10419000622D5981651B482F8A2D8F0D0E948C0836
:1041A00040C090915805961304C08091590581171D
:1041B000E9F080915C0590915D0590935F05809397
:1041C0005E0520915A0530915B0530935D05209383
:1041D0005C05209158053091590530935B0520937B
:1041E0005A05F09258058981809359050FE515E02D
:1041F0004EE5C42E45E0D42EF8018081622D681B67
:10420000F601808144E28A0D0E948C080250110957
:10421000F2E0CF1AD10828E5C21625E0D20661F7F0
:10422000B6CF87FC0AC0622D8A2D0E94570863ED25
:1042300071E088E994E00E94C530B5FEC8C0809165
:10424000FB04882309F4C3C08091330681118AC01E
:1042500060919505709196058091970590919805CC
:104260000E94C7359B01AC0160910506709106065E
:1042700080910706909108060E94D23421EE3EE21A
:1042800045E652E40E94E0360E9494356A50710976
:104290002DE2269FC001279F900D11246AE070E057
:1042A0000E941138CB01469669E070E00E941138F7
:1042B000663078F410ED181B0B2D060F412F602F80
:1042C0008CE0880D0E948C08412F602F832D0E9466
:1042D0008C088091940590E020910F01309110019D
:1042E000821B930B0E945B15853B910534F028E6F9
:1042F00031E0A901481B590BCA019C01245B31091B
:1043000048E4429FC001439F900D11246AE070E091
:104310000E941138CB01849666E070E00E9411384B
:10432000962F64E06B0D97FF06C04CE3832D0E942F
:104330008C084CE314C09D3054F01CE0180D4EE383
:10434000812F0E948C084EE36B2D812F3EC01FEB06
:10435000180F390E412F832D0E948C08412F6B2D91
:10436000832D33C0C0908405D0908505E0908605EC
:10437000F09087050E943B12A70196010E94E0364B
:1043800020E030E040EA50E40E945F342DEC3CEC49
:104390004CE850E40E94E0360E949435862F9FEF4F
:1043A000960F9B3240F469E00E94F0374FEC491BB6
:1043B0009B2C980E08C06C322CF034E0932E9B0C92
:1043C0004EE201C04FEC692D8A2D0E948C08239685
:1043D000E2E10C949338ADE0B0E0E1EFF1E20C944F
:1043E00077386B017C010E94CD07809133061091D4
:1043F000FB0481112DC0112389F18091FF0480FFFE
:104400002DC0609105067091060680910706909177
:1044100008060E9494356B3071058CF46091760526
:104420007091770580917805909179050E94943577
:104430006230710524F480917105823078F0C09269
:104440000106D0920206E0920306F092040606C02E
:10445000111104C08091FC048111F1CF1093FC0470
:1044600080917606853018F084E08093760689E6A0
:1044700095E00E946715853C994080F11092760581
:1044800010927705109278051092790563E085E027
:104490000E94570860916F057091700580916D05BD
:1044A00090916E05681B790B80EC91E00E94510A97
:1044B00040911205509113056091140570911505F6
:1044C000411551056105710531F02AE030E088E9B8
:1044D00094E00E94F12F83E095E433C08091300690
:1044E00080FF36C08091FB0481112EC080910106AF
:1044F00090910206A0910306B0910406892B8A2BA5
:104500008B2B11F181E096E00E946715883B9B4060
:10451000D8F4609120067091210680912206909136
:1045200023060E9494356630710574F081E0809313
:1045300009050E945D09809160058093D10481E0A6
:1045400091E00E947114B1C280910905811171C27C
:1045500080917606882321F090916005981718F4D1
:1045600089EC94E063C28091FB0481115DC21D82DD
:104570001E821F821886E090C80485E0E89E7001C4
:104580001124F701E358FA4F7F018591949190939C
:10459000C7048093C604F7013296249129870E94AC
:1045A0005D09C12CD12C812C712C212C312C412C5A
:1045B000912C512C9985891609F4B9C0662463940D
:1045C000680C0091C6041091C7040C0D1D1DF80164
:1045D000A590B490662D81E00E945708B50188E946
:1045E00094E00E94C530662D83E10E9457088091B7
:1045F0000B01881206C08EE30E947E0850901C03B7
:1046000002C00E94EE09F801329684913196B4906E
:10461000833609F43FC040F48A3509F439C0823644
:1046200071F1811168C07EC08836D9F088F4863671
:1046300009F061C0F8013496A591B4918D919D91D6
:104640000D90BC91A02D8D839E83AF83B88753C0FE
:10465000833709F446C08A3709F04DC070E1972EC0
:1046600019C080911A03803419F469E571E002C021
:1046700061E571E088E994E00E94C53053C0F8011B
:104680003496A591B4916C9170E080E090E010C0F8
:10469000E0E29E2EF8013496A591B4916C917727B3
:1046A00067FD709569197109882777FD8095982FA6
:1046B0000E94C7356A877B878C879D876B2D70E04A
:1046C00080E090E00E94C5359B01AC016A857B8546
:1046D0008C859D850E942C356D837E838F83988782
:1046E0000AC0F80134966591749144E050E0CE011F
:1046F00005960E94B10980910B01BD81AE813F8179
:104700002885881204C07B2E2A2E332E422E085F65
:104710001F4FF801859194914B2F5A2F632F722FC1
:104720000E94DA0A8EE0C80ED11C862C43CFE3E04B
:10473000EE0EF11CF70185919491009711F0FC01A8
:10474000099580910305882309F4AFC110920305F0
:1047500011E01093F40481E00E94720987399105F9
:1047600014F081E004C08A369F4F24F48FEF0E943A
:1047700082099BC183E00E947209873991055CF030
:1047800010930B018091C804823019F41092C80470
:104790008CC18F5F0CC08A369F4F64F410930B015D
:1047A0008091C804811102C082E001C081508093D1
:1047B000C8047BC160910B016F5F852D0E94570873
:1047C00080910B01E090C604F090C7049EE0899FA1
:1047D000E00CF11C112480E00E9472098C0197FF0B
:1047E00006C01195019511098824839401C0812C7C
:1047F000F7013496C590D490F701329654903196D3
:104800006490872D922DA32DB42D8D839E83AF832D
:10481000B887E3E6E51538F0F2E65F1670F42AE5AE
:10482000521248C00AC083E7581671F19AE7591628
:1048300021F0E6E65E123EC027C00D32F1E01F0710
:104840008CF0662D70E080E090E00E94C5359B0101
:10485000AC0160E070E080E291E40E942C3521E040
:1048600029874AC0073911054CF1662D70E080E0B8
:1048700090E00E94C5359B01AC0160E070E080E8EB
:104880009FE30E942C351DC00139F1E01F0774F52C
:104890000D3221E01207C4F4093C1105E4F484E070
:1048A0008987053611050CF464C06FE672E183E870
:1048B0009AE322C060E070E0CB0113C060E070E0DA
:1048C000CB01E1E0E9870DC06DEC7CEC8CEC9DE365
:1048D000F4E0F98706C06AE077ED83E29CE324E028
:1048E0002987053611050CF444C006C060E070E06D
:1048F00080E89FE3F4E0F98781109058AB01BC0198
:10490000CE0105960E94F218F7013A9665917491CE
:10491000F7013C9605911491882777FD8095982F93
:104920000E94C7354B015C019B01AC016D817E810A
:104930008F8198850E94253587FF04C08D829E82D5
:10494000AF82B886B801882777FD8095982F0E949E
:10495000C7354B015C019B01AC016D817E818F816C
:1049600098850E94D536181624F48D829E82AF82D7
:10497000B8868D809E80AF80B884272D322D432D40
:10498000542DC501B4010E942535882309F48DC03A
:10499000662D70E080E090E00E94C735A50194018B
:1049A0000E94E0360E94943593E65916D9F0951589
:1049B00038F0EAE55E1699F0F2E65F1699F01FC04E
:1049C00023E7521691F08AE7581659F096E65912E5
:1049D00016C0F60180829182A282B38210C0605E0E
:1049E00001C0605FF60160830AC089829A82AB824F
:1049F000BC8244E050E0B601CE01019607C0F985C3
:104A00004F2F50E0B6016F527440C6010E94CD098D
:104A100026E0E20EF11CF70185919491009709F4CC
:104A200044C0FC01099541C085E795E00E94570C00
:104A30003CC08091D10490916005891721F080934A
:104A400060051092090582E00E947209AA2797FD6D
:104A5000A095BA2FB7FF07C0B095A0959095819506
:104A60009F4FAF4FBF4F8D329140A105B105D4F498
:104A700083E00E947209AA2797FDA095BA2FB7FF7D
:104A800007C0B095A095909581959F4FAF4FBF4FB0
:104A90008D329140A105B1052CF48091FB0488234F
:104AA00009F44DCD109209054ACD2D96E2E10C9402
:104AB00093381F920F920FB60F9211242F933F93AA
:104AC0004F935F936F937F938F939F93AF93BF9316
:104AD000CF93EF93FF931092F3048091F2048F5FD2
:104AE0008093F2040E94CD2D6093EE047093EF0446
:104AF0008093F0049093F10480917A03811119C09E
:104B0000CFB780911605882379F080917A038F5F63
:104B100080937A0378940E949308109216058091EE
:104B20007A03815080937A03789480E00E94D61AA9
:104B3000CFBFFF91EF91CF91BF91AF919F918F9197
:104B40007F916F915F914F913F912F910F900FBE89
:104B50000F901F901895CF92DF92EF92FF920E94D4
:104B6000D92D6B017C0183E00E94A62E813049F48F
:104B7000C092E504D092E604E092E704F092E804E3
:104B80001FC08091E5049091E604A091E704B091E4
:104B9000E8040097A105B10599F0C81AD90AEA0AF4
:104BA000FB0AD092EA04C092E9041092E504109244
:104BB000E6041092E7041092E80481E08093EB048D
:104BC000FF90EF90DF90CF90089566E970E080E06D
:104BD00090E00C94FC2D1F920F920FB60F921124AF
:104BE0002F933F934F935F936F937F938F939F93F5
:104BF000AF93BF93EF93FF93AEDFFF91EF91BF9120
:104C0000AF919F918F917F916F915F914F913F9164
:104C10002F910F900FBE0F901F90189565E085E0C3
:104C20000E94570869E271E088E994E00E94C5306B
:104C3000B4D74AE050E088E994E00E94FE2F8091CA
:104C400049068F3421F480914A068A3171F061E07F
:104C500081E00E9457086091490670E08CE091E085
:104C60000E94510A81E080930E050E949308ADCF07
:104C7000CF9388E10FB6F8948093600010926000A3
:104C80000FBE60E071EE80E090E00E9433304CE4B3
:104C900050E060E072E08FE296E00E94B1098091FE
:104CA0002F0681FF03C083E59AE002C086E69AE002
:104CB0009093EC058093EB0584B58C7F84BD83E0F5
:104CC0000E94192F0E946C11809169008C7F826074
:104CD00080936900E89A80913406813051F462E053
:104CE00083E0DDD780916900837F846080936900D1
:104CF000E99A84E994E090938303809382035E9A17
:104D00000E949308789480914B06883341F48091F7
:104D10004C06883321F480914D06873381F088E377
:104D200080934B0680934C0687E380934D0643E0C7
:104D300050E06CE172E08BE496E00E94CD09809136
:104D40007406882331F1E0917506EE2311F1F0E04D
:104D5000E95FFE4FC49161E08C2FA1D760E08C2FFA
:104D6000D7D78C2F90E0FC01EF55F54F2491FC0133
:104D7000E357F54F84918093E404E22FF0E0EE0FC7
:104D8000FF1FE154F54F859194919093E304809334
:104D9000E2040E943E0842DF0E948315CF910895ED
:104DA000E0910301EF5FE0930301E770F0E0EE0FA5
:104DB000FF1FE25BFC4F9183808328E060E070E09E
:104DC0002150E22FF0E0EE0FFF1FE25BFC4F8081ED
:104DD0009181680F791F2111F3CF80E090E00E944C
:104DE000C53520E030E040E05EE30C94E03697FD0E
:104DF00005C08F3F910509F01CF4089580E00895E7
:104E00008FEF0895CF92DF92EF92FF92CF93DF93CF
:104E100080912F0684FD05C08091D604882309F473
:104E2000A0C0C0910201CF5FC093020180E10E9447
:104E30001C2FC770EC2FF0E0EE0FFF1FE25CFC4F61
:104E40009183808328E0C0E0D0E02150E22FF0E0A1
:104E5000EE0FFF1FE25CFC4F80819181C80FD91FCC
:104E60002111F3CF2091DA043091DB0447E0429F17
:104E7000C001439F900D11248C0F9D1FA3E09695B8
:104E80008795AA95E1F79093DB048093DA048091EB
:104E90002F0684FF66C029E53EEE49E050E46091AC
:104EA00051067091520680915306909154060E94CB
:104EB000E0366B017C01BE0180E090E00E94C535C8
:104EC0009B01AC01C701B6010E94E0360E949935F2
:104ED0004091E9055091EA054115510529F4709377
:104EE000EA056093E90511C09A01220F331F240FD0
:104EF000351F2E5F3F4F260F371F36952795369566
:104F000027953093EA052093E90581E08093F40426
:104F100030913806832F61E20E94E437E82F8091B8
:104F2000E9059091EA05C29664E670E00E94FD37BB
:104F3000432F50E0641B750B9B01AFEFB0E00E9464
:104F40006838FAE2EF9F90011124241B350B4427A7
:104F500037FD4095542F0E944638C90148DF8093A1
:104F6000E40580912F0685FF04C080910F05811113
:104F700005C08091D704882309F49CC0C091010129
:104F8000CF5FC09301018EE057D7C770EC2FF0E0E0
:104F9000EE0FFF1FE25DFC4F9183808328E0C0E0AD
:104FA000D0E02150E22FF0E0EE0FFF1FE25DFC4F5A
:104FB00080819181C80FD91F2111F3CF2091DC048A
:104FC0003091DD0447E0429FC001439F900D1124C2
:104FD0008C0F9D1F23E0969587952A95E1F7909376
:104FE000DD048093DC0480912F0685FF63C029EAED
:104FF0003CEC48E050E46091550670915606809173
:105000005706909158060E94E0366B017C01BE0164
:1050100080E090E00E94C5359B01AC01C701B6015C
:105020000E94E0360E9499354091E7055091E805CD
:105030004115510529F47093E8056093E70511C007
:105040009A01220F331F240F351F2E5F3F4F260F6B
:10505000371F36952795369527953093E805209389
:10506000E70530917106832F61E20E94E437E82F53
:105070008091E7059091E805C29664E670E00E9491
:10508000FD37432F50E0641B750B9B01AFEFB0E081
:105090000E946838FAE2EF9F90011124241B350B1F
:1050A000442737FD4095542F0E944638C9019FDEA2
:1050B0008093E30580912F0686FD05C08091D8047A
:1050C000882309F47FC08091D404882349F020E12B
:1050D00037E240E050E061E08FE07FD6CB0102C0D4
:1050E0008FE0AAD6E0910001EF5FE0930001E77046
:1050F000F0E0EE0FFF1FE25EFC4F9183808328E01B
:10510000C0E0D0E02150E22FF0E0EE0FFF1FE25EA2
:10511000FC4F80819181C80FD91F2111F3CF2091BD
:10512000DE043091DF0447E0429FC001439F900DB1
:1051300011248C0F9D1FA3E096958795AA95E1F702
:105140009093DF048093DE0480912F0686FF3AC09F
:105150002DE032E348EC5CE36091590670915A0609
:1051600080915B0690915C060E94E0366B017C01A9
:10517000BE0180E090E00E94C5359B01AC01C701F3
:10518000B6010E94E0360E9499354091E5055091A4
:10519000E6054115510529F47093E6056093E50590
:1051A00011C09A01220F331F240F351F2E5F3F4F6E
:1051B000260F371F36952795369527953093E605A8
:1051C0002093E50580913D068695813041F038F1C8
:1051D000823041F0833039F58091560522C081E15B
:1051E0002BD608C020E23EE440E050E061E081E1DF
:1051F000F4D5CB01D5DD20915D0630915E0640915E
:105200005F06509160060E94E0360E9499357093C7
:1052100055056093540581E08093F40437C0809174
:10522000570590E004C08091FB059091FC05B8DD26
:105230000E94993570935505609354058091D90467
:10524000882321F18091D504882341F020E137E2C1
:1052500040E050E061E081E1C0D503C081E1ECD5E0
:10526000BC018091E0049091E10447E0489F9001E7
:10527000499F300D1124260F371F43E0369527959F
:105280004A95E1F73093E1042093E004DF91CF9158
:10529000FF90EF90DF90CF90089588E994E00E940E
:1052A000980784E994E0D7C6A4E0B0E0EAE5F9E223
:1052B0000C947938A89571D46B017C0128EE33E009
:1052C00040E050E00E9424383093700520936F0531
:1052D0002CEDC21625E0D206E104F10428F08091FD
:1052E0000E05882309F47FC0FED6882309F479C00F
:1052F00009D78A3031F4809151058F5F8093510531
:1053000002C01092510580915105843068F38CB52C
:1053100083608CBD63E071E084E994E036D7B12C02
:10532000812C912CC12CD12C0DEF10E0A4E9EA2E98
:10533000A4E0FA2E8FEF8816910411F00CF04BC008
:10534000D2D68823E9F3DED6823338F48033D8F41A
:105350008A30B1F38D3039F023C0823709F551E03E
:10536000851A91081DC038E0C31219C0ED2DF0E078
:10537000EC57FC4F8081B826D394ED2DF0E0EC572C
:10538000FC4F10820CC0ED2DF0E0EC57FC4F9081EB
:10539000990F813309F49F5F9083C39401C0C12C9E
:1053A00060E4D612C7CF64E873E0C4010E94B70876
:1053B0007FEF871A970A1F92BF921F930F93FF9256
:1053C000EF9207D70F900F900F900F900F900F90C4
:1053D000B12CD12CAFCF69EF70E084E994E0D5D641
:1053E0008EC31CDC8CC3789480916805882381F07F
:1053F00080910B0581110CC00E94F71AE6DB0E9418
:10540000F71AE3DB0E94F71AE0DB81E080930B05DB
:10541000F4E84F2EF3E05F2E10E48091F604811142
:1054200008C08091F704811104C080910005882391
:1054300061F00E94771B8091F6048093F7048091BD
:10544000F404882309F4C6C186C0F201212F119209
:105450002A95E9F745D6A1D34B015C0134E6830ECA
:10546000911CA11CB11CEAEF7E2E0FEF96D386167D
:105470009706A806B906A0F024EC39E040E050E019
:1054800060E080E0AAD46F3F71058105910509F0C5
:105490002CF4662319F0601708F4062F7A9431F77C
:1054A0000F3F19F40091040102C0009304010B3076
:1054B00090F00331C0F00D31E8F0083210F10C33F8
:1054C00040F1063968F580E270E8872E75E2972E84
:1054D000A12CB12C2CC082E0812C62EC962EAA2447
:1054E000A394B12C24C084E0812C51EE952EA12CE4
:1054F000B12C1DC086E0812C46E9942EA12CB12C44
:1055000016C088E030E8832E30E7932EA12CB12C12
:105510000EC080E1812C2BE4922EA12CB12C07C06F
:1055200080E490EC892E92E1992EA12CB12C8093ED
:105530002D068092120590921305A0921405B09248
:10554000150584E994E07ED5C501B4018CD581E0D0
:105550008093F70462CF0091600540913406433098
:1055600008F42DC1433029F48091E9049091EA04B4
:1055700011C08BEF840F843048F4E42FF0E0EE0F7D
:10558000FF1FE551FA4F8081918104C08091FB0596
:105590009091FC059C01285E3340213D374008F086
:1055A0000EC1443049F58091D8059AEF980F92309A
:1055B00008F487C09091C305981789F08093C305BC
:1055C00060E070E08FEB95E00E9417129091C305A8
:1055D00080910C01981303C081E08093F8048FEB55
:1055E00095E00E946715813D974008F46AC080915C
:1055F000D80580930C0165C020913906211119C08E
:10560000609176068D3474E0970760F09C012C540D
:10561000344070E080E293E00E941138C9010E949A
:10562000FD3701C060E0061709F44BC060936005C8
:1056300048C050912F0652FF14C02091C0043091F1
:10564000C1042115310539F0FC01E21BF30B41E0E7
:10565000E93CF10508F440E09093C1048093C00454
:1056600005C041E08D3D954008F440E050FF10C07A
:10567000442321F081E08093F90423C08091F90450
:10568000882319F081E08093F8041092F90419C07E
:105690004423B9F08090BF059090C005A090C1054B
:1056A000B090C2057AD286169706A806B90648F4C5
:1056B00081E08093F80464EF71E08FEB95E00E9445
:1056C00017128091F804882371F01092F8048091E9
:1056D00060058F5F8093600590917606981718F5A6
:1056E0001092600520C080912F0687FF1CC080911A
:1056F000C2049091C304A091C404B091C504009762
:10570000A105B10581F040916F055091700560E0F1
:1057100070E084179507A607B70728F481E0809307
:105720000A058093F804B09060050B1509F447C092
:105730000E94831580912F0610910A0587FF09C0EA
:10574000112339F080917606882319F0B81609F4F0
:10575000BCCF8B2D0E947415882399F040916F0562
:1057600050917005480F511D60E070E04093C204F5
:105770005093C3046093C4047093C50411111DC0F9
:105780000AC01111A2CF1092C2041092C304109249
:10579000C4041092C504ADE1B5E0E0EFF0E08491FF
:1057A0008D9331968111FBCF809124058B0D8093D1
:1057B000240563E088E00E944A1510920A05809152
:1057C000F504811105C081E08093F5048093F30412
:1057D0001092F4048091F504882309F4C7C08091E5
:1057E000F3048111C3C01092F5042091A90522236E
:1057F00019F081E08093060580913306882309F42F
:1058000044C19091FB048091FD04992309F463C184
:1058100080FD0DC01092020581608093FD041092FE
:10582000C8051092C9051092CA051092CB05809147
:105830000205882309F43FC180910205882309F4F9
:105840008CC08090990590909A05A0909B05B0908F
:105850009C05C501B4019F7725E33AEF4EE85CE370
:105860000E94E0360E9429352B013C012091AB05B6
:105870003091AC054091AD055091AE05C501B40124
:105880000E94B80B4B015C012091AF053091B0052F
:105890004091B1055091B20560919D0570919E05B2
:1058A00080919F059091A0050E94B80BA3019201E1
:1058B0000E94E0362B013C019B01AC010E94E036C6
:1058C00069837A838B839C83A5019401C501B4010C
:1058D0000E94E0369B01AC0169817A818B819C81B9
:1058E000EED70E9447370E949435609395057093D8
:1058F00096058093970590939805C501B4019F770D
:105900000E9494357093930560939205C301B20190
:105910009F770E9494357093910560939005A30141
:1059200092015058C501B4010E94D23420EE3EE2EB
:1059300045E652E40E94E0360E949435CB018A5538
:1059400091092091880530918905821B930B0E9453
:105950005B150E94A915809394050E940419C70144
:10596000B6010E94EB2181E0809316058091D40559
:105970009091D505A091D605B091D7058C159D05C0
:10598000AE05BF05A8F464E170E084ED95E00E94E7
:105990002C1280911605882359F08091F3048823F6
:1059A00039F08EEE94E00E946715C39708F0A0C00E
:1059B0008091D0059091D105A091D205B091D305E9
:1059C0008C159D05AE05BF0528F564E670E080EDF9
:1059D00095E00E942C1216DA8091040591E0892747
:1059E000809304058823B1F080911105882369F024
:1059F0008F5F80931105833068F0809161058F5F20
:105A0000809361051092110505C0809161058F5F3B
:105A1000809361058091CC059091CD05A091CE0534
:105A2000B091CF058C159D05AE05BF0508F067C088
:105A300064EF71E08CEC95E00E942C1281E0809381
:105A4000F40480930305909162059F5F9093620533
:105A500090910005982790930005992309F44FC071
:105A60008093FA048091F204853050F480912E06E0
:105A70008F5F80932E06843028F00E94380802C081
:105A800010922E061092F2043AC080917105833371
:105A900008F4B7CE80910F019091100180379E4F8E
:105AA00009F0AFCE809188059091890590931001FF
:105AB00080930F01A6CE233008F4BECE8CE0EBEA33
:105AC000F5E0A9E9B5E001900D928A95E1F781E052
:105AD00080930205B1CE80FFAACE90911005992344
