:100000007BC400000C9494210C940C229DC400002D
:100010009BC4000099C4000097C4000095C4000070
:1000200093C4000091C400008FC400008DC4000080
:100030008BC4000089C4000087C4000085C4000090
:100040000C94E92981C400000C94640E0C948A0E6F
:100050007BC4000079C4000077C4000075C40000B0
:1000600073C4000071C400009219A8191A1B1A1B4E
:100070001A1BCE19DB192A1A451A641A8A1AB41ADD
:10008000BE1A1A1B1A1B1A1B1A1B1A1B1A1BC81A78
:10009000084AD73B3BCE016E84BCBFFDC12F3D6CEF
:1000A00074319ABD56833DDA3D00C77F11BED9E455
:1000B000BB4C3E916BAAAABE000000803F05A84C35
:1000C000CDB2D44EB93836A9020C50B99186880801
:1000D0003CA6AAAA2ABE000000803F0664EC1B3C96
:1000E00004BC163E3BE5B93CC93C37C29E5A3D664E
:1000F0000498083EEA69AAAA3E000000803F030275
:10010000010053637265656E2030005246460066FA
:100110006F6E742075706C6F6164696E6720004645
:10012000440043440023736574757020646F6E65EA
:100130000A00100E0F114D697373696E672F4F6CB3
:100140006420436F6E6669673A202564206D7920CC
:100150003739004D696E696D4F53442D457874727F
:1001600061204D535020322E34FF756E6920723954
:100170003230204456FF0001000A006400E80320EA
:10018000284E5453432900202850414C290025373C
:100190002E32660025362E3166009125372E3266C6
:1001A00000A125372E3266008E010B68870500946A
:1001B000018F681A0600940114737F050094011DD5
:1001C00073770500940112687B05009A0190766FA1
:1001D0000500A101A0766B05009401BD61730500C7
:1001E00094015777670500940101661606004E6F6B
:1001F00020696E707574206461746121202575FF1B
:1002000000B8B900253469050700253469050600E2
:100210006F7665726C6F61640066726F7A656E00EE
:1002200053747265616D002534690500FF20CECEE0
:10023000CECE60CECECECE00FF20202024CB7C4080
:10024000CB24008280818081808480818081808332
:10025000808180818085808180818020C8C8C8C8D5
:100260007EC8C8C8C820FF0020202024CBB8B9CB46
:1002700024202020FF0025322E3066002520342E39
:100280003066002520342E3166002520342E32665B
:10029000005225332E306605005025332E3066057A
:1002A000004825332E306605004225352E3166057F
:1002B000004525352E3166004525342E30666D000B
:1002C000734525352E31660091026E69140600993A
:1002D000026E69120600A1026E69100600A902549E
:1002E000690E0600B10241680A0600B802586900AA
:1002F0000600C00241730606002090910025352EAD
:10030000316600432564253569FF002569002E25E7
:100310003464001F1C1F1E1F1E1F1F1E1F1E1F25B3
:10032000303269FF003A253032693A0020207820C7
:10033000207920207AFF0020B3FF20B3FF20C5FFE3
:1003400020B3FF20B300B2FFB2FFC6FFB2FFB2007E
:10035000B0B1B4B5B6B77B7D15591C0001A70B0031
:1003600002A00B00032315BC84EE142605760B00B7
:1003700007F9120034310E03352D0E0418AE0B00B0
:10038000065F140008A0120009491C00251F110077
:100390008B29100B0A630B0019EB0D000D5E145C2A
:1003A00011A9111116401012129010141787101372
:1003B000130F0C0214550B7F0F4915BD2EBC0C57A3
:1003C0001B7C151D9C500F151D1B11000EB9150926
:1003D0001E20160021940C00204C0E002249108F84
:1003E0002456111F2BB60C1F2C080F002DE30E00F6
:1003F0002FC60E00A7B60D00A8B30D00A9B00D00C2
:10040000AAAD0D001F240D0026C70C0030C90A003C
:1004100031480C0033920A00237B12003210120084
:100420009A561300000000005A040C00003C04051A
:100430002F0A620709740A000000000052056800D4
:1004400000003805663A04254505663E04251C056E
:10045000664204252A0566460425050600000000BC
:10046000F50542110400E605424A0400D805621071
:100470000410C605620F0410B50562170410A80524
:10048000621804109805000000008A05624F0411EC
:100490008105620E041271055A4C041363057A4BF0
:1004A0000414D204CD04C8040000FF0001000400BD
:1004B00000000300E1FF1F00F1FF0F00FCFF04003C
:1004C000C0E0401F9CFF6400252E336600252E30BF
:1004D000660025332E316676003420285253534966
:1004E00029204B0033202843757272656E742920D1
:1004F0004B00322028563229204B0020202020207B
:1005000020204100312028563129204B0020202076
:1005100050696E2053656E736F727300526F6C6C0E
:100520002020696E204E5453430050697463682044
:10053000696E204E54534300526F6C6C2020696EDC
:100540002050414C00506974636820696E2050410E
:100550004C002020486F72697A6F6E20616E676C64
:10056000657300566572746963616C206F666673AB
:1005700000486F72697A6F6E74616C206F66667383
:1005800000436F6E74726173740053637265656EBD
:100590007320436F756E7400202053637265656E1F
:1005A00020706172616D73005253534920776172FC
:1005B0006E696E670042617474206368617267657A
:1005C000207761726E004F76657273706565642086
:1005D0007761726E696E67005374616C6C2077612D
:1005E000726E696E670042617474203220776172A6
:1005F0006E696E670042617474657279207761720A
:100600006E696E67002020204F5344207365747517
:1006100070002E2530326400432569200041062EEB
:100620000629063C0638063306686F726900616E5B
:10063000676C00706F73680072746C00616C746832
:10064000006163726F0054064E0661065B06253931
:100650002E3566002531302E3666002530356C6427
:10066000002530366C6400E506DB06CF06C206B610
:1006700006A9069D06920686067B0646656E63659C
:1006800020466172210046656E636520486967688F
:10069000210046656E6365204C6F772100426174CE
:1006A000742042206C6F7721004869676820565398
:1006B00070656564210020204C6F77205273736948
:1006C000210042617474657279204C6F772100209B
:1006D0004F76657253706565642100202020537445
:1006E000616C6C2100204E6F204750532066697862
:1006F000210025342E30660025342E316600253445
:100700002E32660025352E326600253269002533EB
:1007100069002534690025332E3066000001440548
:100720000102480502034C05030450050500540569
:100730000A0658050B075C051300600552B80E4009
:1007400085EB51401966BB0012800C1CA0141E667C
:100750006666400000803F100CBA000A00001BE8EB
:10076000031A0D0500000000040573800225FB0438
:1007700073840227F20473000025FB047300002732
:10078000E40473000026FB0473000027D9047300FF
:100790000026FB047300002700000008000201008F
:1007A000000304070000000000000000010204082C
:1007B00010204080010204081020010204081020CB
:1007C00004040404040404040202020202020303F7
:1007D000030303030000000023002600290000009B
:1007E0000000250028002B00000000002400270046
:1007F0002A006E616E00696E660000407A10F35A3E
:1008000000A0724E18090010A5D4E80000E8764850
:10081000170000E40B54020000CA9A3B000000E1FC
:10082000F505000080969800000040420F0000008F
:10083000A08601000000102700000000E80300006F
:1008400000006400000000000A0000000000010039
:10085000000000002C76D888DC674F0823DFC1DF5A
:10086000AE59E1B1B796E5E3E453C63AE65199765D
:1008700096E8E6C28426EB898C9B62ED407C6FFC97
:10088000EFBC9C9F40F2BAA56FA5F490055A2AF7D9
:100890005C936B6CF9676DC11BFCE0E40D47FEF5E2
:1008A00020E6B500D0ED902E03009435770500804A
:1008B000841E080000204E0A000000C80C333333A9
:1008C000330F986E12831141EF8D2114893BE65549
:1008D00016CFFEE6DB18D1844B381BF77C1D901D2C
:1008E000A4BBE424203284725E228100C9F124EC8E
:1008F000A1E53D27C107832511241FBECFEFD8E016
:10090000DEBFCDBF11E0A0E0B1E0E6E5FAE602C04F
:1009100005900D92AC33B107D9F726E0ACE3B1E016
:1009200001C01D92A93BB207E1F714E0CCE7D4E087
:1009300004C02197FE010E94C734CA37D107C9F706
:100940000E946F2C0C94C1305BCBCF92DF92EF9260
:10095000FF920F931F93E82FF92F05C00150110943
:100960002109310961F1908196239417B9F305C0EB
:10097000015011092109310911F190819623941335
:10098000F7CFC12CD12CE12CF12C0AC08FEFC81A63
:10099000D80AE80AF80A0C151D052E053F0579F05E
:1009A00080818623841791F36C2D7D2D8E2D9F2DB4
:1009B0001F910F91FF90EF90DF90CF90089560E02E
:1009C00070E080E090E01F910F91FF90EF90DF903A
:1009D000CF900895FA01AA27283051F1203181F1F2
:1009E000E8946F936E7F6E5F7F4F8F4F9F4FAF4F37
:1009F000B1E03ED0B4E03CD0670F781F891F9A1F4A
:100A0000A11D680F791F8A1F911DA11D6A0F711DFD
:100A1000811D911DA11D20D009F468943F912AE009
:100A2000269F11243019305D3193DEF6CF010895F1
:100A3000462F4770405D4193B3E00FD0C9F7F6CF22
:100A4000462F4F70405D4A3318F0495D31FD4052EA
:100A5000419302D0A9F7EACFB4E0A6959795879580
:100A600077956795BA95C9F700976105710508955F
:100A70009B01AC010A2E069457954795379527950B
:100A8000BA95C9F7620F731F841F951FA01D0895A3
:100A9000283008F027E03327DA01990F311D87FD50
:100AA000916000966105710539F432602E5F3D93C7
:100AB00030E32A95E1F708959F3F30F080387105C3
:100AC000610509F03C5F3C5F3D93913008F0806820
:100AD000911DDF93CF931F930F93FF92EF92192FE6
:100AE000987F9695E92F96959695E90FFF27EC5AF2
:100AF000F74F99273327EE24FF24A701E70105903C
:100B00000894079428F4360FE71EF81E491F511D5C
:100B1000660F771F881F991F0694A1F70590079409
:100B200028F4E70EF81E491F561FC11D770F881FB6
:100B3000991F661F0694A1F70590079428F4F80EF4
:100B4000491F561FC71FD11D880F991F661F771F8A
:100B50000694A1F70590079420F4490F561FC71F6C
:100B6000D81F990F661F771F881F0694A9F78491D5
:100B70001095177041F0D695C79557954795F794FE
:100B8000E7941A95C1F7EAEFF7E06894159015918C
:100B900035916591959105907FE27395E118F10A81
:100BA000430B560BC90BD009C0F7E10CF11E431FD4
:100BB000561FC91FD01D7EF4703311F48A95E6CFFD
:100BC000E894015030F0080F0AF40027021708F4E7
:100BD000202F2395022F7A3328F079E37D932A95ED
:100BE000E9F710C07D932A9589F606949795679545
:100BF000379517951794E118F10A430B560BC90B5B
:100C0000D00998F023957E9173957A3308F070E3BC
:100C10007C932013B8F77E9170617D9330F08395BB
:100C200071E37D9370E32A95E1F71124EF90FF9033
:100C30000F911F91CF91DF91992787FD909508958E
:100C400080E0089580E0089580E008950895FC0113
:100C50001382128229E131E03183208308958EBD11
:100C60000DB407FEFDCF8EB56EBD0DB407FEFDCFF2
:100C70008EB508958EBD0DB407FEFDCF8EB58FEFF6
:100C80008EBD0DB407FEFDCF8EB508956FE070E008
:100C900080E090E00C94642A682F80E0E0CF882305
:100CA00011F080E401C080E090911E03981741F09C
:100CB00080931E035E9880911E038C61EDDF5E9A27
:100CC00008955E988091090481FD06C08091080412
:100CD00083FF19C081E018C080EACCDF80FF06C026
:100CE00081E0DDDF80910804886007C081FF08C0D3
:100CF00080E0D5DF80910804877F8093080405C0D9
:100D000082FDE4CF02C080E0CADF5E9A0895CF93EF
:100D1000DF93E0910E04E43008F0E0E0F0E0E25010
:100D2000FF4FC49180E1D1E0D80F6C2F98DF8D2F59
:100D3000D032C9F7DF91CF9108955E98E8DF6091D6
:100D40004C0482E08CDF60914B0483E088DF5E9A84
:100D500008955E988CEE8EDF682F6F7E8CE67FDFC5
:100D600062E18CE07CDF80911E038C6395DF0E9442
:100D70008E2180911E038C618FDFDFCFCF93DF93B5
:100D80005E98CFE0DFEF80EA75DF877059F4C150DD
:100D9000C15030F0DEBD0DB407FEFDCF8EB5F8CFEB
:100DA00075DFF1CF80911E03826076DF6FDFD1DFC8
:100DB000DF91CF91089561E086E00E94CB2A62E046
:100DC00082E00E94CB2A61E08AE00E94CB2A61E0A7
:100DD0008AE00E94072BD2DF74DFBBCF20911F0374
:100DE0008091200390E03EE1239F800D911D11240E
:100DF00090933D0180933C0108958F71809320036F
:100E00006F7060931F0380911E03803411F0673070
:100E100008F4E4CF635060931F03FBCF90911F034E
:100E2000690F90912003890F9EE1699FB001112401
:100E3000680F711D70933D0160933C0108952091EE
:100E40003C0130913D01203E91E0390758F4A90161
:100E50004F5F5F4F50933D0140933C01F901E25CCD
:100E6000FE4F808308958F3F31F480911F038F5F81
:100E700080931F03B3CFE3CF862FF5DF81E090E0AF
:100E80000895CF93C42FCADF8C2FEDDFCF91089543
:100E90005E9860E085E0E3DE60E086E0E0DE61E051
:100EA00084E0DDDE5E9AEEE3F1E080E25E98908120
:100EB0009EBD0DB407FEFDCF9EB581935E9A93E073
:100EC000EE31F90798F35E988FEF8EBD0DB407FEF3
:100ED000FDCF8EB55E9A08950F931F93CF93DF9346
:100EE000182FD62FC72F5E9880E0D6DE612F89E0BD
:100EF000B6DE0D2F1C2FC0E0F801D1918F016C2FB1
:100F00008AE0ADDE6D2F8BE0AADECF5FC633A1F79E
:100F100060EA88E0A4DE80EAADDE85FF03C00E94BF
:100F2000CE18F9CF8CE0B8DE5E9ADF91CF911F9199
:100F30000F910895A1E0B0E0E0EAF7E00C94EC3402
:100F40001CBC8F7280658CBD8DB581608DBD8DB5EB
:100F500089838EB589832196E2E00C94083561E09F
:100F60008DE00E94CB2A61E08BE00E94CB2A60E0FA
:100F70008CE00E94CB2A61E08AE00E94CB2A80E0CC
:100F8000D9CF81E293E0EBCFE82FF0E0EE0FFF1F27
:100F9000E051FA4F20813181662329F040E253E08D
:100FA00088E998E004C048EE53E080ED97E024170C
:100FB000350780F0241B350B841B950B65E070E032
:100FC0000E946234C9010E946234862F653018F095
:100FD00084E0089580E00895A0EFB5E0EEE8F5E044
:100FE00080819181883E934028F48D919C91119746
:100FF000918380833296129685E0E639F80781F76F
:10100000089590E0880F991FDC01A051BA4FFC01B0
:10101000E257FA4F8D919C9120813181821B930B75
:101020000895E0918D0535E0E39FF0011124E65D20
:10103000FB4F9491915020910A016091520370915D
:10104000530387FF03C0222339F004C0882311F023
:10105000291721F0280F03C0292F01C020E0FB0130
:1010600036E0239FE00DF11D1124339645915491F4
:10107000452B39F320930A010895EF92FF920F93C5
:101080001F93CF93DF938C01040F151FEC017B019D
:10109000E81AF90AC017D10739F0C7018C0F9D1F54
:1010A0000E9413358993F6CFCDB7DEB7E6E00C94F6
:1010B0000435A2E0B0E0EFE5F8E00C94EC34909158
:1010C0009E05682F70E0660F771F80E8989F600D7F
:1010D000711D112442E050E0CE010196CEDF8981DE
:1010E0009A812296E2E00C940835692F86CECF9340
:1010F000DF9388E8B8DECCE0D1E08881B4DE898176
:10110000B2DE8EE8B0DEDF91CF910895CF938131CA
:1011100010F08051FCCF811101C080E1880FCEEF2B
:10112000C80F80E98C0F9FDE81E98C0F9CDECF9188
:10113000089585E298CE80E296CE8FEF94CEABE014
:10114000B0E0E5EAF8E00C94DC3480911E038034D2
:1011500089F480903E0490903F04A0904004B090A9
:101160004104C0903A04D0903B04E0903C04F090DD
:101170003D0410C08090460490904704A09048041D
:10118000B0904904C0904204D0904304E0904404DD
:10119000F09045048091E4039091E503BC01990F20
:1011A000880B990B0E9442329B01AC01C701B6012A
:1011B0000E945B336B017C018091730380FF04C04C
:1011C000F7FAF094F7F8F094C701B6010E940F32D5
:1011D000AB016A35710540F09B012D543F4F293515
:1011E000310580F477FDA901473451052CF54A31CA
:1011F000510534F54A30510540F128E02A8713EFB4
:1012000030ED27C06B3571051CF0AB01435B510914
:10121000CA0157FF03C091958195910987349105C3
:10122000D0F48A319105E0F40A9700F148E04A874A
:1012300015EF82EE8B871FC01A861DEC91EC14C04F
:10124000E7E0EA8718EFF9ED15C029E02A871DECE1
:1012500036EC3B8710C01A861DEC41EC4B870BC067
:1012600087E08A871BEF9BEE9B8705C0E9E0EA8752
:101270001DECF6ECFB8727EA32E94BE25CEBC5019B
:10128000B4010E945B334B015C0125E33AEF4EE869
:101290005CE3C701B6010E945B336C837D838E8360
:1012A0009F839CE0292E312C19822A85022E000C66
:1012B000330B398728878981C82E880FDD08609114
:1012C000E2037091E3036C0D7D1D072E000C880B6B
:1012D000990B0E944232A50194010E945B330E9447
:1012E000033420E030E044EB52E40E945B332B01F6
:1012F0003C0120E030E0A9010E94503320E030E0C2
:1013000040E05FE387FD0BC0C301B2010E94DA3009
:101310000E940F327B01EDE2EE0EF11C0AC0C30108
:10132000B2010E94D9300E940F327B01FDE2EF0E24
:10133000F11C0DE00219222733272C193D093B83AC
:101340002A83802F90E0281639060CF46FC06C8138
:101350007D818E819F810E9403342B013C013CE002
:10136000039F602D11246E54062E000C770B880B02
:10137000990B0E9442329B01AC01C301B2010E9451
:101380005B330E940F32F701E60FF71FCF01019781
:101390008A35910508F048C062E170E00E94763419
:1013A0003B014A85442379F031962EEE2603C00195
:1013B000279F900D1124E80FF91FF7FD3196F59541
:1013C000E7955E2E01C0512C64E066198FEF800F07
:1013D00025DD3981332379F0053069F4B601D7FE74
:1013E00002C06A817B814AE050E088E293E00E947B
:1013F000682C06E003C08B85850D35DD5520A1F0F6
:10140000252D30E088859985281739076CF094E000
:101410006916710449F0E52DE10F4AEF4E0F63E0C4
:1014200066198FEF800F2DDD0F5F8BCFF7FE0BC09E
:10143000E981E25EE98334E0231A310844E02416AE
:10144000310449F038CFFBE5EF16F10424F029818F
:101450002E512983F0CF2B96E2E10C94F83466E00C
:1014600089E0CBDC6CCEA8E1B0E0E9E3FAE00C94D3
:10147000EB34182F88E1189FB001112460587D4F7C
:1014800048E150E0CE010196F8DDE12FF0E0EE0FEB
:10149000FF1FEF59FC4F6081718180E090E00E9456
:1014A000403229813A814B815C810E945B332D81DE
:1014B0003E814F8158850E94DA309F938F937F93AE
:1014C0006F93CE0109969F938F9388E293E09F9349
:1014D0008F930E944B2D0FB6F894DEBF0FBECDBF89
:1014E0006896E3E00C940735CF936AE086E085DCEC
:1014F000C0E08C2FB8DF21DECF5FC430D1F7CF91B1
:1015000008957F936F939F938F9388E293E09F93C7
:101510008F930E945B2D0F900F900F900F900F9064
:101520000F900895EF92FF920F931F93CF930CE2C9
:1015300013E0C0E096FD1CC089E0E82EF12CF80114
:10154000819191918F018C549440B7010E94623433
:1015500083E196E0D6DFC13011F4EFDD01C0EBDDB1
:10156000CF5FC43061F70FC0E6DDCF5FC43059F004
:10157000F801619171918F0182E197E0C2DFC13082
:1015800099F7DBDDF2CFCF911F910F91FF90EF9094
:101590000895A0E0B0E0EFECFAE00C94E634D92F27
:1015A00000914A0310914B0320914C0330914D035D
:1015B00080919603882309F473C082EBE82E87E0BC
:1015C000F82EE4E6F0E090E9C92EDD24D394C701BB
:1015D00083709927892B81F4C701BF010E9462346F
:1015E000892B31F4C701B6010E946234892B21F4A2
:1015F00061E08EE691E003C060E08DE691E0A0E05E
:10160000B0E0081719072A073B0718F440E050E03C
:1016100008C0081B190B2A0B3B0B8FEFE81AF80ABE
:10162000D6CFC42FFA01ED5EFC4FE4914130510555
:1016300011F46111EF5F8E2F90E0A0E0B0E0081789
:1016400019072A073B0750F0081B190B2A0B3B0B05
:101650004F5F5F4F4C30510521F7CCE08D2F0F5F6E
:101660001F4FD0E086FF0EC0B80183E196E049DF4E
:10167000BE016F5F7F4F82E196E043DFB7018EE0EE
:1016800093E00DC0B70182E197E03BDFBE016F5FE1
:101690007F4F82E196E035DFB80182E196E031DFED
:1016A000CDB7DEB7E8E00C940235EDE1F6E08591C8
:1016B000949160E070E025DF80918203882311F02F
:1016C00086E8D1CB0895CF9380918903882361F078
:1016D000C92F8091BA051ADDC6FF06C06091BA0510
:1016E00070E08EE097E00DDFCF9108951F93CF93C8
:1016F000DF93C82F192F8091C305823019F020F095
:10170000DFE003C0DFE101C0DAE2C095CC1FCC27E7
:10171000CC1F11F016FF0DC06091C40570E08AE087
:1017200097E0EFDECC2341F016FF06C08D2F9BDB48
:1017300003C08D2F98DBF0CFDF91CF911F910895DB
:101740006091E4037091E5038AE092E0DACE609163
:10175000E2037091E30384E092E0D3CE1F93CF9332
:10176000DF93382F192F2091E5052F55C091E705FC
:10177000263008F046C0D0E080E09C2F64E670E0A0
:101780000E946234CB016138710540F029E8209352
:101790000C0180589109EDE0F1E012C02DE8209392
:1017A0000D016231710550F420918703222331F03D
:1017B00020E220930C0120930D0109C0ECE0F1E040
:1017C0006AE170E00E9462342DE8261B208337FF17
:1017D0008EDC16FF06C0BE018AE097E092DEA9DC2F
:1017E0001AC06091160670911706809118069091A4
:1017F00019060E940F3282E197E083DE81E033DB3D
:101800000AC024E6C29FC00111246FEF70E00E945D
:101810007634EB01B1CFDF91CF911F91089560E055
:1018200070E08EE097E06DDE84CCEF92FF920F9334
:101830001F93CF93DF938C01D62FC42F6CE370E0FE
:101840000E9462347C018EE097E05BDECC2341F0A5
:10185000B70185E293E055DECF776C2F70E010C0C2
:10186000DD2331F080918703882311F080E201C0ED
:101870008AE3F9DAC8016CE370E00E946234BC01CB
:101880008FE193E03EDECDB7DEB7E6E00C940435A1
:10189000CF93DF9380919603882321F1C92F609124
:1018A0004603709147038091480390914903D0917A
:1018B00013042CE330E040E050E00E948934205BC8
:1018C0003440C9014CE3D49F800D911D1124C5FF04
:1018D00004C0462F406860E004C0C6FB662760F97C
:1018E00040E0A3DFDF91CF91089540E060E09DCF1D
:1018F000CF93C22F7F936F935F934F939F938F9359
:1019000088E293E09F938F930E945B2D8DB79EB7E3
:1019100008960FB6F8949EBF0FBE8DBFCC2311F072
:101920008C2FA1DACF910895CF938091EE059091FD
:10193000EF05FC013A96C4913296E491FC013D9684
:101940006591749180E090E00E9440322AE037ED8A
:1019500043E25CE30E945B33AB01BC012C2F8DEFB3
:1019600092E0C6DFCF91089520E0C2CF40E050E082
:10197000BA018EEF96E0F8CF40910404509105042F
:10198000609106047091070486E197E0EDCF0F9314
:101990001F93CF93DF932091A503222309F44DC019
:1019A0004091A3035091A4032091A6053091A7056F
:1019B0004217530709F441C0692F9091A2032AE10D
:1019C000291B27FD0AC02695820F17DA65EA73E006
:1019D00088E293E00E94CD2B32C066FD1CC02195A9
:1019E00030E08091E0039091A003891B90E0B90161
:1019F000660F771F0E9476344091990341110DC004
:101A0000009729F0215031098217930731F421E022
:101A10002093990302C080E090E0EC01CB55DC4FAD
:101A20008E01065E1F4F8991811102C084DB07C0C1
:101A30001ADAC017D107B9F7F9CF1092A503DF91D1
:101A4000CF911F910F910895292F8091A605909114
:101A5000A7058F739927029710F026FF06C069E14A
:101A600074E088E293E00C94CD2B0895A0E0B0E000
:101A7000ECE3FDE00C94E734EB017C018B01040FF7
:101A8000151FC017D10771F0F701D1907F01CE016A
:101A90000E9413358D1521F06D2DCE010E941B354E
:101AA0002196EFCFCDB7DEB7E7E00C940335BC014C
:101AB00084E293E00C94422D8BE091E0F8CF0E94F9
:101AC000D93020EC3BE649ED57E40C945B33CF92E0
:101AD000DF92EF92FF92CF93C42F6B017C01E894C9
:101AE000F7F8C701B6010E940F32072E000C880BD1
:101AF000990B0E9442329B01AC01C701B6010E94C2
:101B0000D9309B01AC01C11105C060E074E284E7EB
:101B100099E404C060E070E583EC97E40E945B33D5
:101B20000E940F32CF91FF90EF90DF90CF900895F9
:101B3000982F262F30E0F901E35AFC4F87FD0BC0A8
:101B4000862F41E04083F901E75AFC4F96FB992725
:101B500090F9908388CC1082089563E0892FE8CFB4
:101B600062E0892FE5CF61E0892FE2CF60E0892F25
:101B7000DFCFCF93C82F6091AB047091AC048091FC
:101B8000AD049091AE040E940F32615071096F3024
:101B9000774280F4C7FD02C086E165D94091AB046D
:101BA0005091AC046091AD047091AE0421E082EFDD
:101BB00096E09EDECF910895CF93C42F28EE33E0B8
:101BC00040E050E00E948934DA01C90140E06C2F06
:101BD0002CDECF91089596FB442740F96091D20501
:101BE0007091D3058091D4059091D505E5CFCF9321
:101BF000DF93282F86FB442740F9E42FF0E0DB0138
:101C00006D917D918D919C91EE0FFF1F25FF1AC064
:101C1000E65BF94FC591D4915ADF9F938F937F93E1
:101C20006F93DF93CF9388E293E09F938F930E940B
:101C30005B2DADB7BEB718960FB6F894BEBF0FBEFA
:101C4000ADBF08C0EA5BF94F25913491AB01BC01EF
:101C5000C9018ADEDF91CF91089568EF73E0892F83
:101C6000C6CF64EF73E0892FC2CF7F936F939F93AA
:101C70008F9383E093E09F938F9388E293E09F9309
:101C80008F930E945B2D8DB79EB708960FB6F89480
:101C90009EBF0FBE8DBF08950F931F93CF93DF9309
:101CA00000EF15E080E090E0F801619171918F0103
:101CB000EC012196CE01D9DFCE012897A9F7DF915B
:101CC000CF911F910F9108951F920F920FB60F920F
:101CD00011242F938F939F93EF93FF939091C600BE
:101CE0008091B7068F5F8F772091B806821741F0F9
:101CF000E091B706F0E0EB5CF94F90838093B70674
:101D0000FF91EF919F918F912F910F900FBE0F90A8
:101D10001F9018951F920F920FB60F9211248F9358
:101D20009F93EF93FF939091B6068091B506981715
:101D300079F0E091B606F0E0EF5CF94F8081809396
:101D4000C6008091B6068F5F83708093B60605C08B
:101D50008091C1008F7D8093C100FF91EF919F9191
:101D60008F910F900FBE0F901F90189595FB222713
:101D700020F994FD02C090E001C092E0922B86FD14
:101D800002C080E001C084E0892B08951F93CF93A7
:101D9000DF93182FEBDF8C5FC82FD0E017FD06C054
:101DA000BE016F5F7F4F88E196E0ABDBCC0FDD1F9C
:101DB000C051DA4F6881798182E197E0A2DBDF913F
:101DC000CF911F9108951F93CF93DF93182FC92FA1
:101DD000CDDFD4E0D80F17FD07C06D2F70E06F5F27
:101DE0007F4F8BE093E08DDBC6FB662760F98D2F7C
:101DF000CBD8D82FC0E0CD1302C081E801C080E865
:101E000032D8CF5FC530B9F7DF91CF911F910895D8
:101E10001F93CF93DF93182FC92FA8DFD4E0D80FDB
:101E200017FD07C06D2F70E06F5F7F4F88E196E070
:101E300068DBC6FB662760F98D2FA6D8182FC0E097
:101E4000D3E0CE010E9413358F3F69F0811103C0AA
:101E5000112349F01150111101C005D82196C03845
:101E600083E0D80771F7DF91CF911F91089596FB1A
:101E7000222720F930E095FD03C080E090E002C009
:101E800082E090E0282B392B215031092330310595
:101E900028F4F901EE5EFE4F8081089580E00895F8
:101EA000CF92DF92EF92FF92CF93DF93D82FC92F7B
:101EB000DEDF80930901C7FD46C0C4FF2AC081E070
:101EC00080938E0329E838E848E85CE360911E06B9
:101ED00070911F0680912006909121060E945B332D
:101EE0006B017C010E940F329B0177FF04C0222707
:101EF0003327261B370B2A303105FCF4D6FD03C0EF
:101F00008AE892E002C083E892E028E1B701A601E6
:101F100012C010928E03E091EE05F091EF057296DB
:101F2000249140911E0650911F06609120067091E9
:101F300021068CE792E0DCDC06C0243631051CF378
:101F40008CE792E0E2CFDF91CF91FF90EF90DF90AE
:101F5000CF9008950F931F93CF93DF93EC018B01E4
:101F60000E94332ADC01CB01800F911FA11DB11DFE
:101F700088839983AA83BB83DF91CF911F910F91AF
:101F800008959B01FC014081518162817381420F60
:101F9000531F611D711D40835183628373830895B4
:101FA000E091EE05F091EF0534966591759185917C
:101FB00094910895CF92DF92EF92FF92CF93DF93A7
:101FC0006B017C01EDDFA70196010E945B336B0181
:101FD0007C0120E03CE34CE156E40E94A031C0913A
:101FE000EE05D091EF05FE0118163CF039962491CC
:101FF000B701A60182EF96E024C0709665917491B6
:1020000080E090E00E9440329B01AC01C701B60124
:102010000E94A7316B017C010E940F326A3071056A
:1020200034F06436710534F082EF96E005C08EEF2F
:1020300096E002C088EF96E0FE013F962491B7013A
:10204000A60156DCDF91CF91FF90EF90DF90CF900B
:10205000089596FB882780F98093980380918903DF
:10206000882369F097FD0BC06091BB057091BC059A
:102070008091BD059091BE050E9442329BCF08958C
:102080006091B0057091B1058091B2059091B30552
:1020900091CF60911A0670911B0680911C06909159
:1020A0001D0688CFE091EE05F091EF0565917591E1
:1020B000859194910895CF92DF92EF92FF921F93B2
:1020C000CF93DF93EC016A017B01122FEBDFA701B5
:1020D00096010E945B33112341F024EE38E34EE871
:1020E0005EE30E945B3328E106C0E091EE05F091CB
:1020F000EF0538962491AB01BC01CE01F9DBDF91ED
:10210000CF911F91FF90EF90DF90CF90089596FBB5
:10211000222720F940E050E0BA0186E197E0CBCFDA
:1021200096FB222720F94091A8055091A9056091BE
:10213000AA057091AB0586E197E0BDCFA0E0B0E0C5
:10214000E4EAF0E10C94E634EC01D62EFE010591B0
:1021500014910115110509F469C0FE0132968491AC
:1021600081110E943307FE01339684913196E590E8
:10217000F490893691F030F4813609F43CC0883609
:10218000C1F004C08337E9F0863719F150E2C52E5B
:1021900060E070E080E89FE337C0F7016081718103
:1021A000072E000C880B990B0E94423240E2C42E8D
:1021B00032C0E091EE05F091EF053996C490F0DE63
:1021C00023C0E091EE05F091EF053896C4906ADFE8
:1021D0001BC0E6DE20918E03211114C0E091EE05B4
:1021E000F091EF057296C49020E030E040E752E4B1
:1021F0000E945B3309C031E4C32E6AE077ED83E2CD
:102200009CE302C028E1C22EF70120813181428186
:1022100053810E945B332C2DAB01BC01C80168DBEC
:102220000E949D082796DA94D11090CFCDB7DEB7E3
:10223000E8E00C94023567E088EC92E07FCFCF9322
:10224000DF93D82FC92F0E94750888E00E943307BA
:102250006091D2057091D3058091D4059091D505F8
:1022600040E0AADC6AE088EA91E068DFC6FF05C0CA
:102270006C2F8AE08D0F0E94FD0683E00E943307D9
:1022800064EF73E080E0B3DC0E949D0884E00E946C
:10229000330768EF73E080E0AADCDF91CF91089507
:1022A0002FE632E143E85AE30C945B33CF92DF929E
:1022B000EF92FF92CF93DF93C091AF04D091B0041F
:1022C0006FDE6B017C012AEF2C9FC0012D9F900DCA
:1022D0001124BC01990F880B990B0E9442329B017B
:1022E000AC01C701B6010E945B33E091EE05F091AD
:1022F000EF05A8974CF03F96C491D2DFAB01BC012B
:102300002C2F8EEF96E006C039962491AB01BC01CC
:1023100082EF96E0EDDADF91CF91FF90EF90DF90C2
:10232000CF900895CF93DF93611103C0C4E0D7E04D
:1023300002C0C8EFD6E0BC0180E090E00E944032CD
:10234000AFDFAB01BC012DE0CE01D2DADF91CF913E
:1023500008950F931F93292F207495FF15C0609146
:10236000B0057091B1058091B2059091B30522231B
:1023700021F12091AC053091AD054091AE05509111
:10238000AF050E94D93019C06091FC037091FD0324
:102390008091FE039091FF03222361F00091F003EE
:1023A0001091F1032091F2033091F303601B710B44
:1023B000820B930B0E94423273DFFCDD1F910F9161
:1023C00008952091A6053091A705260F311D309361
:1023D000A4032093A3038093A2038091E00380933E
:1023E000A003089597FF03C088599E4F089589362A
:1023F00021E0920714F0885691400895CF93DF931F
:10240000EC010E94332A28813981CB01821B930B76
:10241000DF91CF910895BC0188E293E00C942E2DBA
:102420001F93CF93DF93182FD92F87FD0FC096FFEF
:1024300004C0C0E087E393E003C0C1E086E493E01A
:10244000EADF812F9D2F0E94750801C0C0E08091B6
:102450001E0690911F06A0912006B0912106BC0196
:10246000CD0190589B01AC010E94DA300E940F32DE
:102470008091730382FF05C0CB016CE370E00E9482
:102480007634D5FF05C0CB016AE070E00E94763457
:10249000D4FF06C077FF02C06F5F7F4F75956795C9
:1024A00016FF08C077FF02C06D5F7F4F7595679577
:1024B000759567959B01235D3F4F37FF02C02F5FE6
:1024C0003F4FC9019595879569E070E00E94763489
:1024D00065302CF467FD06C04FEC481B05C04EE785
:1024E00064E002C040E660E08C2F0E944107DF916B
:1024F000CF911F910895CF93DF9387FD03C08CE2A6
:1025000093E089DFCAE3D3E04991599169917991C8
:1025100086E197E029DA83E0C634D807A9F70E945C
:102520009D08C4E3D3E0699179918EE097E00E9421
:10253000810A83E0CA33D807B1F7DF91CF910895BC
:10254000FF920F931F93CF93DF93D92F8095182F6E
:10255000111F1127111F39F096FD05C095FF39C0D5
:1025600088E692E058DF83EC0E9433072091B4059F
:102570003091B50548E1429FC001439F900D112461
:102580000C9668E671E00E94763464507109C62F9B
:1025900077FF02C0C8E1C60FD5FBFF24F0F8D5FDD8
:1025A00002C009E001C00AE0EC2FF0E0ED5BFD4F56
:1025B00084910E943307CF5FC83108F0C0E001501A
:1025C00099F787E80E943307112371F0D6FD04C004
:1025D0000BC08BE592E0C6CFF11003C08CE292E015
:1025E00002C088E392E017DFCDB7DEB7E5E00C94D8
:1025F00005351F93CF93DF934091F8035091F90372
:102600006091FA037091FB03452B462B472B69F42D
:102610004091F4035091F5036091F6037091F70334
:10262000452B462B472B09F43DC094FD02C01FEFFC
:1026300001C010E2EC01809187038823D9F08091DA
:1026400093038A3048F080E292E0E5DE812F0E9419
:10265000330789E192E00CC0809194038A3050F0F6
:1026600080E292E0D8DE812F0E94330780E192E081
:10267000D2DE18C0C095CC1FCC27CC1F19F083E048
:102680000E94330764EF73E08D2FB1DA812F0E942F
:102690003307CC2319F084E00E94330768EF73E01E
:1026A0008D2FA5DADF91CF911F9108951F93CF93BE
:1026B000DF9380918103882309F4C1C010928103C4
:1026C000F1DC6091EC057091ED0580918D0388231C
:1026D00051F021E090E08091C305823008F020E0C5
:1026E000C22FD92F02C0C0E0D0E0E0910C04E1116C
:1026F00008C080911004882321F08091860380FD1A
:10270000C2603091E7052091E50540911104442312
:1027100069F0CB0164E670E00E94623461157105D6
:1027200029F0842F90E068177907E4F040911704AE
:102730004423C9F054E6359FC0011124322F27FFEE
:1027400002C031E0320F3595830F911D37FD9A9508
:10275000622F220F770B0E947634842F90E0681747
:1027600079070CF4C8608091160480FD0BC080913D
:10277000180490E02091DA033091DB032817390721
:1027800008F4C06180911E0690911F06A09120065A
:10279000B0912106E130A1F410911004112381F0D1
:1027A000BC01CD019F770E940F32CB016AE070E03F
:1027B0000E947634812F90E0861797070CF4C06250
:1027C0008091EA059091EB0520914A04222371F053
:1027D00064E670E00E9462346115710539F0822F61
:1027E00090E06817790714F4C06405C0209719F4C5
:1027F0001092230324C09091230381E09111890F4B
:1028000080932303809123034FEF480F21E030E0B2
:1028100002C0220F331F4A95E2F78B3018F081E097
:1028200021E030E0A9014C235D23452B21F48F5F8B
:10283000220F331FF2CF809323038917C9F2E0914F
:102840002303EE2341F0F0E0EE0FFF1FEB59F94FA9
:1028500085919491E0DDDF91CF911F9108952091B2
:10286000140430911504815018F4822F8F7008954C
:1028700094E0369527959A95E1F7F5CF81E080931E
:102880007B0388E0EEE8F5E0DF011D928A95E9F729
:1028900080E00E9459089093740380937303089515
:1028A00024E0880F991F2A95E1F78C549F4F68E622
:1028B00071E00E947634CB010196089508958091CD
:1028C000C1059091C205C29664E670E00E94623430
:1028D0002091B4053091B505CB01821B930B82DDAD
:1028E000845B91099093C0058093BF05D9DF885F11
:1028F0000E9486086091BF057091C00587E292E052
:102900000C94810ACF92DF92EF92FF92CF93DF93E4
:10291000EC016A017B019A01AB01688179818A81AE
:102920009B810E94A03187FF04C0C882D982EA82BD
:10293000FB82DF91CF91FF90EF90DF90CF900895D1
:102940008F929F92AF92BF92CF92DF92EF92FF92BF
:102950000F931F93CF938C014A015B01C22FFC019F
:10296000C080D180E280F38020E030E0A901C7017F
:10297000B6010E94A031882311F0C23030F4F80172
:1029800080829182A282B3821DC0A7019601C501F7
:10299000B4010E94D9304B015C016C2F70E080E0E3
:1029A00090E00E9442329B01AC01C501B4010E943B
:1029B000A731A70196010E94DA30F8016083718384
:1029C00082839383CF911F910F91FF90EF90DF90BF
:1029D000CF90BF90AF909F908F900895CF93DF934B
:1029E00097FD26C0C92F91E0909397039C2F3FDA63
:1029F000D82F6091EA057091EB0580E090E00E948D
:102A00004032AB01BC012D2F89E994E099DFC295DA
:102A1000C1706091990470919A0480919B04909187
:102A20009C040E941432DC01CB016C2F7BDC08C0BB
:102A300081E090914A04911101C080E08093970356
:102A4000DF91CF910895CF93DF93C92F10DAD82F5C
:102A50006091EC057091ED0580E090E00E944032BD
:102A6000AB01BC012D2F85E994E06ADFC295C170EE
:102A700060919504709196048091970490919804C8
:102A80000E941432DC01CB016C2F4CDCDF91CF9122
:102A90000895CF93DF93C92FEAD9D82F6091E80525
:102AA0007091E905072E000C880B990B0E944232A9
:102AB000AB01BC012D2F8DE994E042DFC4FD03C0C2
:102AC000C4E0D7E002C0C8EFD6E02AE037ED43E229
:102AD0005CE360919D0470919E0480919F049091AD
:102AE000A0040E945B33AB01BC012EE0CE010E942A
:102AF000780CDF91CF9108950F931F93CF93DF93BD
:102B0000D92F80E090E06EDC8C0124E640E050E0BC
:102B1000BA0182E296E014DFD6FBCC27C0F92C2F55
:102B200040E050E0BA0186E197E0C5DA0E949D08D6
:102B30002091B4053091B505C801821B930BB0DE1E
:102B4000D5FD02C090E001C098E0890F0E94860880
:102B5000409122065091230660912406709125062B
:102B60002C2F86E792E0A7DADF91CF911F910F918A
:102B70000895CF93DF93C92F7AD9D82F6091DA03C4
:102B80007091DB0380E090E00E944032AB01BC0119
:102B90002D2F81EA94E0D4DE6091A1047091A2040B
:102BA0008091A3049091A4040E940F328EE097E0DC
:102BB0000E94810A8091160480FD03C0C4FD0E941A
:102BC0009908DF91CF9108958F929F92AF92BF9213
:102BD000CF92DF92EF92FF926091E8057091E90544
:102BE000072E000C880B990B0E9442326B017C016E
:102BF0008090A8059090A905A090AA05B090AB057B
:102C000051DAA50194010E945B339B01AC01C7011D
:102C1000B6010E94A73120E030E040E251E40E947A
:102C20005B33AB01BC0124E68BEA94E089DEFF90C4
:102C3000EF90DF90CF90BF90AF909F908F900895CE
:102C4000A0E0B0E0E6E2F6E10C94E63420918203E5
:102C5000222309F4FEC0C82F96FF15C020E030E003
:102C6000A9016091A8057091A9058091AA0590918C
:102C7000AB050E94A031882309F4EBC0A5DF8C2F9F
:102C80000E94B90DE6C080910C04811195C020E02E
:102C900030E0A9016091A8057091A9058091AA056D
:102CA0009091AB050E94A031882309F4D2C08CDF3B
:102CB000809185038823D1F01092C9051092CA052E
:102CC0001092CB051092CC0580911A0690911B06AC
:102CD000A0911C06B0911D068093A5049093A604B4
:102CE000A093A704B093A804109285032DEC3CECAC
:102CF0004CE45DEB6091C5057091C6058091C705F8
:102D00009091C8050E94A03187FF45C02091A5047D
:102D10003091A6044091A7045091A80460911A062E
:102D200070911B0680911C0690911D060E94D9305F
:102D300020E030E0A9010E945B336B017C0130D9B7
:102D40009B01AC01C701B6010E945B336B017C01A2
:102D50000E940F32CB016031774224F41816190615
:102D600044F077C0C12C8CE3D82E8CE1E82E86E4A9
:102D7000F82EC7FD03C08EEE0E943307E091EE05EA
:102D8000F091EF0539962491B701A60182EF96E004
:102D90000E94780C5EC08091E2039091E30397FF5C
:102DA00058C080918703882319F08AEF92E002C00F
:102DB00089EF92E030DB4DC0D091E7050D2F10E098
:102DC0008091E405082E000C990B08171907B1F142
:102DD0006091D2057091D3058091D4059091D5056D
:102DE0000E9440326B017C016D2F70E080E090E02A
:102DF0000E9440329B01AC01C701B6010E945B33C7
:102E00006B017C014091E505042E000C550B401B25
:102E1000510BBA01550F880B990B0E9442329B014E
:102E2000AC01C701B6010E94A7313ADA0E94143200
:102E30007093E3056093E205D093E405C7FD03C0FA
:102E400087E10E9433078091E2059091E3050E949B
:102E5000750CCDB7DEB7E8E00C9402352AE070CDF2
:102E6000CF93DF93EC019A01AB01688179818A816C
:102E70009B810E94DA30688379838A839B83DF9108
:102E8000CF910895A7E0B0E0E8E4F7E10C94DC34DA
:102E900080E094E0B3DA1C0160E070E080E094E050
:102EA00059D8B10180E090E00E944032F9D96A839C
:102EB0007B838C839D836091E8057091E905072EE3
:102EC000000C880B990B0E9442326B017C016091CF
:102ED000EC057091ED0580E090E00E944032A70182
:102EE00096010E945B332CEA35EC47E257E30E94DF
:102EF0005B33AB01BC0184E094E0B0DF10910901C9
:102F00008090C5059090C605A090C705B090C805F3
:102F100047D82B013C0120E030E040E752E4C501F6
:102F2000B4010E945B33A30192010E945B33AB01A9
:102F3000BC01212F8EE196E003DD2091E705809111
:102F4000E505082E000C990B422F50E084179507D9
:102F500014F42093E50521E63BE046E35BE3C7017B
:102F6000B6010E945B332A813B814C815D810E94C6
:102F70005B33AB01BC0186E196E072DF8091DC033C
:102F80009091DD032091160420FD5FC02091500434
:102F9000309151043F832E830091520410915304C9
:102FA000021713074CF43E812F811F830E83032FDA
:102FB000122F31E0398301C019823E812F814E8169
:102FC0005F814817590714F4382F292F632F722F68
:102FD000061717070CF4B8018E819F81681B790BC7
:102FE00080E090E00E9440322B013C01B801EE816C
:102FF000FF816E1B7F0B80E090E00E9440329B01BE
:10300000AC01C301B2010E94A73120E030E048ECDE
:1030100052E40E945B330E940F32653671052CF436
:1030200077FF05C060E070E002C064E670E0F981FF
:10303000FF2331F084E690E09C01261B370BB90199
:103040007093DB036093DA0304C09093DB038093F7
:10305000DA0380910C04811104C08091860380FD05
:1030600005C080918203882309F468C0B10182ED14
:1030700095E00E94C10F80918903882399F02091E7
:10308000A8053091A9054091AA055091AB056A8128
:103090007B818C819D810E945B33AB01BC018AE105
:1030A00096E0DEDE6091BB057091BC058091BD05A8
:1030B0009091BE050E944232AB01BC0187E895E0C9
:1030C00021DC40E050E0BA0183E895E01BDC409150
:1030D000A8055091A9056091AA057091AB058FE7ED
:1030E00095E010DC4091B0055091B1056091B205BA
:1030F0007091B3058BE795E005DC40E050E0BA0144
:1031000087E795E0FFDB409104045091050460914E
:1031100006047091070487E695E0F4DBB701A60189
:1031200083E795E0EFDBB501A4018FE695E0EADBEC
:10313000B501A40170588BE695E0E4DB2796E2E147
:103140000C94F834CF93DF93EC01CB01BA010E94C9
:10315000423225E93FEB46ED53E30E945B3368833F
:1031600079838A839B83DF91CF9108950E94332ACC
:103170006093A0057093A1058093A2059093A30589
:103180008091A6059091A7059093A5058093A4052D
:10319000EBE7F3E081E08083828308958AEA90E0A0
:1031A0000C949D2A0E94DB2C811101C0F7CF089559
:1031B00080917C03882329F090917A0381E091111A
:1031C00080E00895CF9390916B03992309F447C051
:1031D000E0914D04F0E0EE0FFF1FE850FA4F208120
:1031E0003181CFB7882309F0F8948091540481305D
:1031F000D9F018F0823011F131C0E0916903F091FB
:103200006A03908180916B03892B8083C9010E949E
:103210009D2AE0916903F0916A03908180916B038C
:103220008095892380831AC090916B03E091690394
:10323000F0916A032D3D35406CF009C090916B030D
:10324000E0916903F0916A032C3D35401CF48081C4
:10325000982B03C08081909598239083CFBFCF9106
:103260000895A0E0B0E0E7E3F9E10C94E234C4E4AF
:10327000D5E010E200E10E94DB2C882309F4EFC1C5
:103280000E94EA2C909134059230A1F028F4992301
:1032900051F0913051F005C09430D1F080F095306C
:1032A00011F19F5FD8C191E0C9C18D3409F0D2C13D
:1032B00092E0D1C18E3309F0CDC193E0CCC1813809
:1032C00008F0C8C1809333058093320594E0C3C1F0
:1032D00080933505909132058927809332051092AD
:1032E000310595E0B8C12091320528272093320599
:1032F000E091310530913305E313A3C121119EC143
:103300001092360533DFE09135058E2F90E0FC01F9
:10331000E456F109E431F10508F08CC1EC5CFF4F93
:103320000C94C734E091360581E08E0F809336050A
:10333000F0E0EF54FB4F808180939F05809138052A
:1033400090913905A0913A05B0913B058E7F6AC1F5
:10335000E0913605F0E0E954FB4F408151816281F4
:1033600073814093400550934105609342057093EB
:1033700043058091440590914505A0914605B09183
:10338000470584239523A623B72321E0892B8A2B85
:103390008B2B09F420E0209382034CC1E091360589
:1033A000F0E0EF54FB4FA0EFB5E0802F01900D92BD
:1033B0008A95E1F73FC18091360590E0FC01EF541A
:1033C000FB4F20812093C30521812093C405FC017C
:1033D000ED54FB4F408151816281738184EF93E012
:1033E000B1DEE0913605F0E0E954FB4F40815181B8
:1033F0006281738188EF93E0A5DEE0903605F12CC1
:10340000F701E554FB4F80819181A0E0B0E080930B
:10341000FC039093FD03A093FE03B093FF03F70119
:10342000E354FB4F6081718180E090E00E94403264
:103430006093A8057093A9058093AA059093AB05A6
:10344000F701E154FB4F808191819093C2058093F5
:10345000C105F0C08091360590E0FC01EF54FB4FB0
:103460004081518160E070E04093BB055093BC0502
:103470006093BD057093BE05FC01ED54FB4F808148
:1034800091810EDA8093BA05D5C08091360590E01F
:10349000FC01EB54FB4F208131813093B505209323
:1034A000B405FC01EF54FB4F208131813093E503DB
:1034B0002093E403FC01ED54FB4F808191819093B4
:1034C000E3038093E203B6C0E0903605F12CF701E8
:1034D000EF54FB4F60817181828193810E94403261
:1034E0006093B0057093B1058093B2059093B305D6
:1034F000F701EB54FB4F6081718180E090E00E9406
:1035000040326093C5057093C6058093C7059093BC
:10351000C80590C020910804E091360524FD11C033
:103520008E2F90E0DC01AF54BB4F4D915C915093D6
:10353000ED054093EC05DC01AE54BB4F8C918093BC
:10354000E70526FD0AC0AE2FB0E0AA54BB4F8D910F
:103550009C919093E9058093E805F0E0EC54FB4FD3
:1035600080818093DF0366C0809138059091390592
:10357000A0913A05B0913B059D7F54C080913805DC
:1035800090913905A0913A05B0913B059B7F4AC0C7
:1035900040913305FE01812F11928A95E9F7C12CE4
:1035A000D12C7601C3944423A1F1E091360581E04A
:1035B0008E0F80933605F0E0EF54FB4F60812CE1D5
:1035C00037E0062E000C770BF901849190E0681724
:1035D000790799F4C9010296FC01A591B4918D90E7
:1035E0009D90AD90BC9013978C289D28AE28BF2845
:1035F0008D929D92AD92BC9213972C5F3F4FF7E056
:103600002C333F0709F7CC0CDD1CEE1CFF1C41508E
:10361000CACF8091380590913905A0913A05B091B3
:103620003B05977F8093380590933905A0933A0521
:10363000B0933B05BDDD882369F011C0843251F49D
:103640000AC021E02E0F20933105F0E0EF54FB4F2C
:10365000808301C090E090933405A4DD0CCECDB7FB
:10366000DEB7ECE00C94FE34CF93C82F84E20E94C6
:10367000072D8DE40E94072D8CE30E94072D80E02A
:103680000E94072D8C2F0E94072D8C2F0E94072D42
:10369000CF9108958FEF91E0A0E0B0E080933805DE
:1036A00090933905A0933A05B0933B05ECE3F5E020
:1036B00080819181A281B3819170AA27BB278083E9
:1036C0009183A283B38308950F931F938091AA04DB
:1036D00081110BC00E94D82C60E072EC81E090E078
:1036E0000E949B2C81E08093AA049091A90481E020
:1036F00089278093A9048111A5C0CCDF80913C0566
:1037000090913D05A0913E05B0913F05892B8A2BF4
:103710008B2B81F48091380590913905A0913A0561
:10372000B0913B0580933C0590933D05A0933E05E9
:10373000B0933F0540913C0550913D0560913E0599
:1037400070913F0588279927DC01841B950BA60BF8
:10375000B70B84239523A623B7238C019D010095E5
:103760001095209530954023512362237323409375
:103770003C0550933D0560933E0570933F058034B2
:103780009105A105B10509F44FC020F584309105DC
:10379000A105B10509F454C068F481309105A10573
:1037A000B10509F44BC00297A105B10509F04AC063
:1037B00085E647C080319105A105B10589F18032C8
:1037C0009105A105B10571F10897A105B105D1F5E4
:1037D00089E637C0811522E09207A105B10541F1C4
:1037E00060F480389105A105B10501F18115914082
:1037F000A105B10539F58EE624C0811528E09207B0
:10380000A105B105B9F0811520E19207A105B10527
:1038100099F081159440A105B105A1F480E711C08C
:103820008AE60FC08BE60DC08CE60BC08DE609C0A2
:103830008FE607C087E705C08CED03C084E601C0B2
:1038400086E612DF1F910F91089584E20E945908C5
:1038500096FF08C08091BA0590E08C549F4F0E945B
:10386000F21104C08091B4059091B505880F991F9D
:103870008D966AE570E00E94763477FF03C0685F3A
:103880007F4FFBCF67707727FB01E05BFC4F849194
:10389000089587FD03C0D9DF0E9433076091B40506
:1038A0007091B5058EE097E00E94810A85E00C9446
:1038B00033074F925F926F927F928F929F92AF9257
:1038C000BF92DF92EF92FF920F931F93CF93DF93FC
:1038D0007C01F6FC0CC06F2D81E08E0D0E94FD0670
:1038E0008091730381FD1CC00E949F0819C0C5E030
:1038F00082EB0E943307DDE0D15019F00E949B0853
:10390000FBCFC33011F083EB01C085EC0E9433077D
:103910000E949D08C150F9F2C33051F786ECE9CFFF
:10392000F4FEB1C0C091B805D091B9050091B605BB
:103930001091B705C80117FF04C088279927801B7D
:10394000910B6AEF70E00E947634E62F472FCE018C
:10395000D7FF04C0882799278C1B9D0B6AEF70E066
:103960000E9476342E2F342F261737070CF49B0134
:10397000B9016F5F7F4F7093B0046093AF04072E5F
:10398000000C880B990B0E9442324B015C01B8017C
:10399000110F880B990B0E9442322B013C0124EE3F
:1039A00038E34EE552E4C501B4010E945B339B014C
:1039B000AC01C301B2010E94A7310E940F32162F41
:1039C000BE01DD0F880B990B0E9442322B013C0196
:1039D0002DE63BED4EE052E4C501B4010E945B339D
:1039E0009B01AC01C301B2010E94A73120E030E08D
:1039F00040E05FE30E94DA300E940F32062FE6FCBF
:103A000009C023DF62E0611B482F85E0800F0E9420
:103A1000410739C090919605961304C0809197058F
:103A20008117E1F080919A0590919B0590939D05F7
:103A300080939C05809198059091990590939B05A2
:103A400080939A058091960590919705909399059A
:103A5000809398050093960510939705C0E0D0E0F9
:103A600032E0B32EFE01EA56FA4F87816B2D681BB8
:103A7000868144E28B5F0E9441072297CA3F4FEF45
:103A8000D40781F7BECFE7FC08C062E085E00E9462
:103A90000E0781E092E00E940B12F5FEB6C0809105
:103AA0008203882309F4B1C080910C0481117BC08A
:103AB0006091BB057091BC058091BD059091BE05DC
:103AC0000E9442329B01AC0160E070E0CB010E9499
:103AD0004D3121EE3EE245EE52E40E945B330E94FE
:103AE0000F326A5071092DE2269FC001279F900D69
:103AF00011246AE070E00E947634CB018D9697FD28
:103B000001969595879569E070E00E947634D62FEE
:103B1000653058F4CFECC81B4C2F8CE00E94410755
:103B20004C2F6D2F81E00E9441078091BA0590E0F3
:103B300020910E0130910F01821B930B0E94F21114
:103B4000853B910534F028E631E0A901481B590B6B
:103B5000CA019C01245B310948E4429FC001439F94
:103B6000900D11246AE070E00E947634CB018496B7
:103B700066E070E00E94763467FD07C06D3044F463
:103B8000DFEBD80FC1E0C60F05C0C1E0DCE302C027
:103B9000CCE0DEE34D2F64E08C2F0E9441074D2FD7
:103BA00060E08C2F30C08090B0059090B105A0905F
:103BB000B205B090B3050E94D00FA50194010E94F8
:103BC0005B3320E030E040EA50E40E94DA302DEC34
:103BD0003CEC4CE850E40E945B330E940F32862F8D
:103BE0009FEF960F9B3238F469E00E9455344FECFA
:103BF000491B682F07C06C321CF064E04EE202C023
:103C000060E04FEC86E00E944107DF91CF911F9169
:103C10000F91FF90EF90DF90BF90AF909F908F90AB
:103C20007F906F905F904F900895ABE0B0E0EBE134
:103C3000FEE10C94DC346B017C010E9461068091F2
:103C40000C041091820381111CC0112301F1809199
:103C5000860380FF1CC06091A8057091A905809122
:103C6000AA059091AB050E940F32623071057CF07D
:103C7000C0920206D0920306E0920406F092050676
:103C800006C0111104C0809183038111F1CF1093FC
:103C9000830380914F04853018F084E080934F04B3
:103CA00080EA95E00E94FE11853C994080F11092D7
:103CB000A8051092A9051092AA051092AB0562E022
:103CC00085E00E94FD066091A6057091A705809190
:103CD000A4059091A505681B790B8EEE91E00E94DA
:103CE000810A40919A0350919B0360919C037091CB
:103CF0009D03411551056105710531F02AE030E061
:103D000088E293E00E94222C83E094E433C0809107
:103D1000090480FF36C08091820381112EC08091FA
:103D2000020690910306A0910406B0910506892B26
:103D30008A2B8B2B11F182E096E00E94FE11883BCA
:103D40009B40D8F460911A0670911B0680911C0666
:103D500090911D060E940F326630710574F081E06B
:103D6000809390030E94EC0780919E0580935803F6
:103D700081E091E00E941F11CDC2809190038111DA
:103D80008DC280914F04882321F090919E05981751
:103D900040F508E513E0F801B490C8010196FC0174
:103DA000C590D490C114D10409F4B4C28B2D8F777F
:103DB0000E9459087C010E947508F7FC0AC0E7FCC4
:103DC0000AC0F80133968491882329F00E943307B2
:103DD00002C0B7FE03C0C701F60109950C5F1F4F73
:103DE000DACF80918203811150C21D821E821F8210
:103DF000188640918D05A42EB12CF5E04F9FA001AF
:103E00001124FA01E85DFB4F85919491909353033F
:103E100080935203FA01E65DFB4FF4900E94EC0799
:103E2000C12CD12CE12C1A861B86312C212C198611
:103E3000EF1409F4BEC0552453945E0C0091520354
:103E4000109153030C0D1D1DF80185909490652D64
:103E500081E00E94FD06C4010E940B12652D83E1E2
:103E60000E94FD0680910A01E81203C08EE30E94C1
:103E70003307F8013296E491EF77E33609F457C03F
:103E800080F4E234B9F120F4EE2309F48DC06FC060
:103E9000EA3509F44AC0E23609F069C04424439483
:103EA0002BC0E836D9F088F4E63609F060C0F80196
:103EB0003396A591B4918D919D910D90BC91A02DBB
:103EC0008D839E83AF83B88752C0E33709F445C022
:103ED000EA3709F04CC020E1298729C080911E03F0
:103EE000803419F08FE791E002C087E891E00E94EA
:103EF0000B125AC06AE0462EF8013396A591B49190
:103F00006C9170E080E090E00E9442323B014C01F5
:103F1000642D70E080E090E00E9440329B01AC0193
:103F2000C401B3010E94A73113C080E28987F80160
:103F30003396A591B4916C91062E000C770B998560
:103F4000691B7109072E000C880B990B0E944232E5
:103F50006D837E838F8398870AC0F80133966591BD
:103F6000749144E050E0CE0105960E943D08809196
:103F70000A01BD81AE813F812885E81203C0BA875E
:103F8000AB871901F8013596E491E295EF70F0E006
:103F9000EE0FFF1FEE55FB4F859194914B2F5A2F3B
:103FA000632F722F0E94B40CE6E0CE0ED11CE52CDC
:103FB0003FCF85E08A9DF0018B9DF00D1124E55DDA
:103FC000FB4F85919491009711F0FC010995809128
:103FD0008A03882309F49EC110928A0311E010938A
:103FE0007B0381E00E9401088739910514F081E08C
:103FF00004C08A369F4F24F48FEF0E9411088AC1B3
:1040000083E00E940108873991055CF010930A0152
:1040100080918D05823019F410928D057BC18F5FE0
:104020000CC08A369F4F64F410930A0180918D056D
:10403000811102C082E001C0815080938D056AC168
:1040400060910A016F5F84E10E94FD0680910A0180
:104050000091520310915303480196E0899F800C10
:10406000911C112480E00E9401085C0197FF06C0AA
:10407000B194A194B108EE24E39401C0E12CF401C1
:104080003396C590D490F4013296249129878A857D
:104090009B85A32DB22D8D839E83AF83B887122F6E
:1040A0001F77143640F4123680F4123461F01A355A
:1040B00009F049C00AC0133751F11A3731F01636EA
:1040C00009F041C024C00AE001C001E08DE2A81659
:1040D00081E0B8063CF0412C512C40E2642E41E4D2
:1040E000742E06C0412C512C30E8632E3FE3732E12
:1040F000602F70E080E090E00E9442329B01AC01B2
:10410000C301B2010E94A731FF24F39421C0C5016D
:1041100064E670E00E947634FB01EE0FFF1FEB585F
:10412000FE4F6081718180E090E00E9440329B01EF
:10413000AC0160E070E080E89FE30E94A73101E0FD
:1041400024E0F22E05C060E070E080E89FE301E02B
:10415000E5E6AE16B1040CF446C0E1109058AB0190
:10416000BC01CE0105960E943017F4013596E4910A
:10417000EF70F4E0EF9F30011124F301E855FB4F9D
:1041800065917491072E000C880B990B0E944232A6
:104190004B015C019B01AC016D817E818F81988513
:1041A0000E94A03187FF04C08D829E82AF82B886B4
:1041B000F301E655FB4F65917491072E000C880BB7
:1041C000990B0E9442324B015C019B01AC016D8155
:1041D0007E818F8198850E945033181624F48D8239
:1041E0009E82AF82B8868D809E80AF80B8842A85FB
:1041F0003B85432D522DC501B4010E94A031882377
:1042000009F488C0602F70E080E090E00E944232A4
:10421000A50194010E945B330E940F321336C1F056
:1042200038F41A3589F01236A9F0123401F512C0AB
:10423000133799F01A3751F01636C9F4F601808217
:104240009182A282B38213C080E203C080E101C0E8
:1042500080E0680FF60160830AC089829A82AB828F
:10426000BC8244E050E0B601CE01019606C04F2D5D
:1042700050E0B60168507240C6010E94360DF985C3
:10428000F7FF48C00E949D0645C083E093E00E946E
:10429000750883E093E00E9456133CC08091580358
:1042A00090919E05891721F080939E0510929003AE
:1042B00082E00E940108092E000CAA0BBB0BB7FF7D
:1042C00007C0B095A095909581959F4FAF4FBF4F78
:1042D0008D329140A105B105D4F483E00E9401081C
:1042E000092E000CAA0BBB0BB7FF07C0B095A09519
:1042F000909581959F4FAF4FBF4F8D329140A10553
:10430000B1052CF480918203882309F431CD1092F9
:1043100090032ECD2B96E2E10C94F83466E970E020
:1043200080E090E00C94642A1F920F920FB60F92D7
:1043300011242F933F934F935F936F937F938F93AA
:104340009F93AF93BF93EF93FF9381E080932203FA
:1043500010927A03809179038F5F809379030E9492
:10436000332A609375037093760380937703909359
:10437000780380919E03882321F00E9448071092C1
:104380009E03FF91EF91BF91AF919F918F917F918C
:104390006F915F914F913F912F910F900FBE0F90B2
:1043A0001F901895CF92DF92EF92FF920E943F2AC2
:1043B0006B017C0183E00E94272B813049F4C0927D
:1043C0006C03D0926D03E0926E03F0926F031FC0F6
:1043D00080916C0390916D03A0916E03B0916F0377
:1043E0000097A105B10599F0C81AD90AEA0AFB0A93
:1043F000D0927103C092700310926C0310926D03FF
:1044000010926E0310926F0381E080937203FF900D
:10441000EF90DF90CF9008951F920F920FB60F92FA
:1044200011242F933F934F935F936F937F938F93B9
:104430009F93AF93BF93EF93FF93B4DFFF91EF91FF
:10444000BF91AF919F918F917F916F915F914F91AC
:104450003F912F910F900FBE0F901F90189565E020
:1044600082E00E94FD0683E591E00E940B12FBD7DB
:104470004AE050E088E293E00E942F2C809195035F
:10448000882359F061E081E00E94FD0660912204DA
:1044900070E086E391E00E94810A0E9448073ECFC7
:1044A000CF930FB6F894A8958091600088618093AF
:1044B0006000109260000FBE60E071EE80E090E05E
:1044C0000E949B2C4DE450E060E072E088E094E0B4
:1044D0000E943D088091080481FD03C08FE497E0AD
:1044E00002C08CE397E09093EF058093EE058091F6
:1044F00022048F3421F4809123048A3119F081E061
:104500008093950384B58C7F84BD83E00E94722BD9
:1045100080917A008B7F80937A0080917A00866008
:1045200080937A00809169008C7F8260809369001B
:10453000E89A80910D04813059F462E083E00E9492
:10454000CB2A80916900837F846080936900E99A17
:104550005E9A0E944807789480912404893341F43C
:1045600080912504823321F480912604803389F0E0
:1045700089E38093240482E38093250480E380937D
:10458000260443E050E06CE172E084E294E00E9493
:10459000360D80914D04882331F1E0914E04EE23D5
:1045A00011F1F0E0EF5CFE4FC4912C2F30E0F901E7
:1045B000E054F84F9491F901E455F84F2491209379
:1045C0006B03E92FF0E0EE0FFF1FE252F84F8591E9
:1045D000949190936A038093690380E00E94E218AB
:1045E00061E08C2FD8D70E94DB0639DF0E943E1491
:1045F00065E271E084E293E00E942E2DCF91089550
:10460000E0910301EF5FE0930301E770F0E0EE0F4C
:10461000FF1FEB57FB4F9183808388E060E070E0E1
:104620008150E82FF0E0EE0FFF1FEB57FB4F20818A
:104630003181620F731F8111F3CF80E090E00E94FF
:10464000403220E030E040E05EE30C945B3397FDC5
:1046500005C08F3F910509F01CF4089580E008958E
:104660008FEF0895CF92DF92EF92FF92CF93DF9377
:104670008091080484FD05C080915D03882309F4BE
:10468000A0C0C0910201CF5FC093020180E10E94EF
:10469000752BC770EC2FF0E0EE0FFF1FEB58FB4FB0
:1046A0009183808388E0C0E0D0E08150E82FF0E083
:1046B000EE0FFF1FEB58FB4F20813181C20FD31F3C
:1046C0008111F3CF209161033091620347E0429F53
:1046D000C001439F900D11248C0F9D1F23E09695E0
:1046E00087952A95E1F79093620380936103809107
:1046F000080484FF66C029E53EEE49E050E460917D
:104700002A0470912B0480912C0490912D040E9416
:104710005B336B017C01BE0180E090E00E9440327F
:104720009B01AC01C701B6010E945B330E941432A9
:104730004091EC055091ED054115510529F4709318
:10474000ED056093EC0512C09A01220F331F240F70
:10475000351F2E5F3F4FA901460F571F56954795AE
:10476000569547955093ED054093EC0581E0809375
:104770007B03E09111048E2F61E20E944934482F9F
:104780008091EC059091ED05C29664E670E00E9480
:104790006234F0E09B012E1B3F0BAFEFB0E00E94B4
:1047A000CD345AE2459F900111242E1B3F0B032E5E
:1047B000000C440B550B0E94AB34C90148DF8093B9
:1047C000E7058091080485FF04C08091970381115B
:1047D00005C080915E03882309F49CC0C09101014B
:1047E000CF5FC09301018EE080D7C770EC2FF0E05F
:1047F000EE0FFF1FEB59FB4F9183808388E0C0E0F1
:10480000D0E08150E82FF0E0EE0FFF1FEB59FB4F97
:1048100020813181C20FD31F8111F3CF2091630317
:104820003091640347E0429FC001439F900D1124E3
:104830008C0F9D1FA3E096958795AA95E1F790931D
:104840006403809363038091080485FF63C029EAB1
:104850003CEC48E050E460912E0470912F0480916C
:104860003004909131040E945B336B017C01BE01E6
:1048700080E090E00E9440329B01AC01C701B6018C
:104880000E945B330E9414324091EA055091EB057F
:104890004115510529F47093EB056093EA0512C0A8
:1048A0009A01220F331F240F351F2E5F3F4FA9019E
:1048B000460F571F56954795569547955093EB05CC
:1048C0004093EA05E0914A048E2F61E20E94493448
:1048D000482F8091EA059091EB05C29664E670E05E
:1048E0000E946234F0E09B012E1B3F0BAFEFB0E063
:1048F0000E94CD345AE2459F900111242E1B3F0B9C
:10490000032E000C440B550B0E94AB34C9019FDEF3
:104910008093E6058091080486FD05C080915F03C1
:10492000882309F480C080915B03882349F020E14B
:1049300037E240E050E061E08FE0A2D6CB0102C058
:104940008FE0D3D6E0910001EF5FE0930001E770C4
:10495000F0E0EE0FFF1FEB5AFB4F9183808388E05E
:10496000C0E0D0E08150E82FF0E0EE0FFF1FEB5ADF
:10497000FB4F20813181C20FD31F8111F3CF2091D2
:1049800065033091660347E0429FC001439F900D4D
:1049900011248C0F9D1F33E0969587953A95E1F78A
:1049A00090936603809365038091080486FF3BC063
:1049B0002DE032E348EC5CE3609132047091330403
:1049C00080913404909135040E945B336B017C012B
:1049D000BE0180E090E00E9440329B01AC01C70123
:1049E000B6010E945B330E9414324091E805509159
:1049F000E9054115510529F47093E9056093E8052F
:104A000012C09A01220F331F240F351F2E5F3F4F14
:104A1000A901460F571F56954795569547955093B0
:104A2000E9054093E805809116048695813041F0B0
:104A300038F1823041F0833039F58091DE0322C0B5
:104A400081E153D608C020E23EE440E050E061E05E
:104A500081E116D6CB01D4DD2091360430913704A4
:104A600040913804509139040E945B330E94143203
:104A70007093DD036093DC0381E080937B0337C098
:104A80008091DF0390E004C08091FE059091FF05C6
:104A9000B7DD0E9414327093DD036093DC038091D4
:104AA0006003882321F180915C03882341F020E199
:104AB00037E240E050E061E081E1E2D503C081E10E
:104AC00014D6BC01809167039091680347E0489F2A
:104AD0009001499F300D1124620F731F83E076957A
:104AE00067958A95E1F77093680360936703DF9198
:104AF000CF91FF90EF90DF90CF90089581E00E94DA
:104B0000E2180C94641B88E293E00E94270684E27A
:104B100093E009D7E2E6F7E088E992E0968B858B8F
:104B20008CE992E0948F838F80EB92E092A381A333
:104B300084EB92E090A787A388EC92E096A785A7E4
:104B40008CEC92E094AB83AB0895A4E0B0E0EBEA88
:104B5000F5E20C94DE34A895789485D46B017C0141
:104B600028EE33E040E050E00E9489343093A705FE
:104B70002093A6052CEDC21625E0D206E104F1042F
:104B800058F080919503811107C001EB14E030E4E7
:104B9000632E77247394D4C00ED7882309F475C08C
:104BA00019D78A3031F48091D9038F5F8093D9036C
:104BB00002C01092D9038091D903843068F38CB578
:104BC00083608CBD0E945C0D65E085E00E94FD065F
:104BD0008FE091E00E940B120E944807F12CC12C3B
:104BE000D12C00E010E0E12CA12C0F3F110511F0B9
:104BF0000CF046C0E0D68823C1F3ECD6B82E81E392
:104C00008B1550F090E3B91600F5EAE0BE1651F0AE
:104C1000FDE0BF1651F023C022E7B21220C00150C0
:104C200011091DC08DE0C81649F1D11003C00E94C2
:104C30005C0D24C098E0E91211C0EA2DF0E0EF54B9
:104C4000FB4FF082A394F12C09C0FF0CE1E3BE12EC
:104C500001C0F394E394DD24D39401C0E12CF0E48B
:104C6000AF120CC061EB74E0C8010E946C070F5FCB
:104C70001F4F82E291E00E94570DA12CCB2CB5CFA3
:104C80008FE191E00E94570DA0C3E9DB9EC38091A4
:104C90007E0381115AC080918703811156C0F801AB
:104CA000262D11922A95E9F783D6DDD34B015C01BD
:104CB000E4E68E0E911CA11CB11C2AEF422E552455
:104CC0005A94D1D386169706A806B90608F049C0AB
:104CD000FFEF5F125CC0509008012AE0251508F034
:104CE00059C082E1851508F058C09CE1951508F07F
:104CF00057C0E7E2E51508F056C0FBE3F51508F0EC
:104D000055C025E9251508F054C021E040E430E005
:104D1000A0ECB2E10E94CD344B015C014093260629
:104D200060939A0370939B0380939C0390939D03DD
:104D300084E293E0EFD5C501B401FDD570927E0306
:104D400080917D03882309F4A2CF0E9431198091BC
:104D50007D0380937E0380917B03882309F48BC1BC
:104D60002BC024EC39E040E050E060E080E088D4E3
:104D70006F3F71058105910509F02CF4662319F048
:104D8000651508F4562E4A9441109BCFA1CF50923E
:104D90000801A3CF28E142E0BACF2CE044E0B7CF2E
:104DA00028E046E0B4CF26E048E0B1CF24E040E17F
:104DB000AECF22E040E2ABCF10919E0580910D0472
:104DC000833008F44DC1833029F420917003309171
:104DD000710311C09BEF980F943048F4E82FF0E076
:104DE000EE0FFF1FE251FA4F2081318104C0209164
:104DF000FE053091FF05A901405253404939584002
:104E000008F02EC140910601509107012417350783
:104E100020F4309307012093060140910401509142
:104E200005014217530720F4309305012093040134
:104E3000843001F58091D105882389F01092D10545
:104E400060E070E08DEC95E00E94AA0F9091D10592
:104E500080910B01981303C081E080937F038DEC58
:104E600095E00E94FE11813D974008F479C01092B0
:104E70000B0176C08091120481111FC08091040142
:104E800090910501409106015091070160914F04F6
:104E90004217530758F4241B350B841B950B70E005
:104EA0000E946234C9010E94623401C060E016179A
:104EB00009F456C060939E0553C06091080462FFD8
:104EC00013C080918B0590918C05009739F0A90152
:104ED000481B590B81E0493C510508F480E03093B0
:104EE0008C0520938B0511C0409104015091050160
:104EF0008091060190910701480F591F56954795DB
:104F000081E04217530708F080E060FF10C088235B
:104F100021F081E08093800323C080918003882367
:104F200019F081E080937F031092800319C08823D9
:104F3000B9F08090CD059090CE05A090CF05B090AF
:104F4000D00591D286169706A806B90648F481E0E6
:104F500080937F0364EF71E08DEC95E00E94AA0FCF
:104F600080917F03882371F010927F0380919E05CA
:104F70008F5F80939E0590914F04981720F51092B3
:104F80009E0521C08091080487FF1DC040914E03FB
:104F900050914F0360915003709151034115510599
:104FA0006105710581F08091A6059091A705A0E0AB
:104FB000B0E0481759076A077B0728F481E080931F
:104FC000910380937F0300919E05101709F448C058
:104FD0000E943E1480910804B090910387FF09C09D
:104FE000BB2039F080914F04882319F0081709F489
:104FF000BBCF802F0E942F14282F882399F08091F7
:10500000A6059091A705820F911DA0E0B0E08093C6
:105010004E0390934F03A0935003B0935103B110EC
:105020001DC00AC0B110A0CF10924E0310924F03C2
:105030001092500310925103A5EAB3E0E2E0F1E0D0
:1050400084918D9331968111FBCF8091AC03800FB9
:105050008093AC0363E088E00E94E1111092910319
:1050600080917C03811105C081E080937C03809353
:105070007A0310927B0380917C03882309F4C5C0D6
:1050800080917A038111C1C010927C039091C30575
:10509000992319F081E080938D0320918203809100
:1050A0008403222309F46EC180FD0DC01092890390
:1050B0008160809384031092D2051092D3051092E0
:1050C000D4051092D50580918903882309F43AC14B
:1050D00080918903882309F48FC08090E803909021
:1050E000E903A090EA03B090EB03C501B4019F77F8
:1050F00025E33AEF4EE85CE30E945B330E94A43163
:105100002B013C012091F4033091F5034091F6030B
:105110005091F703C501B4010E945F0D4B015C0182
:105120002091F8033091F9034091FA035091FB0369
:105130006091EC037091ED038091EE039091EF0389
:105140000E945F0DA30192010E945B332B013C0181
:105150009B01AC010E945B3369837A838B839C83C0
:10516000A5019401C501B4010E945B339B01AC0110
:1051700069817A818B819C810E94DA300E94C233DE
:105180000E940F326093BB057093BC058093BD05F0
:105190009093BE05C501B4019F770E940F327093B2
:1051A000B9056093B805C301B2019F770E940F3221
:1051B0007093B7056093B605A30192015058C501DD
:1051C000B4010E944D312091B4053091B50506EA35
:1051D0001FEF021B130B20EE3EE245E652E40E9455
:1051E0005B330E940F32C801860F971F0E94F21195
:1051F0000E9450148093BA050E944217C701B6015D
:105200000E94151E81E080939E038091DE0590919F
:10521000DF05A091E005B091E1058C159D05AE0577
:10522000BF05B0F464E170E08EED95E00E94C10F1F
:1052300065DC80919E03882359F080917A0388234E
:1052400039F085E793E00E94FE11C39708F0A7C0EC
:105250008091DA059091DB05A091DC05B091DD0528
:105260008C159D05AE05BF0528F564E670E08AED56
:1052700095E00E94C10FF6D990918B0381E08927B8
:1052800080938B038823B1F080919903882369F080
:105290008F5F80939903833068F08091E0038F5F84
:1052A0008093E0031092990305C08091E0038F5F23
:1052B0008093E0038091D6059091D705A091D80501
:1052C000B091D9058C159D05AE05BF0508F07DC0D0
:1052D00064EF71E086ED95E00E94C10F81E080935C
:1052E0007B0380938A039091E1039F5F9093E10396
:1052F00090918703982790938703992309F465C0B9
:105300008093810380919603882399F080914603CE
:1053100090914703A0914803B09149030196A11DC4
:10532000B11D8093460390934703A0934803B09325
:105330004903809122038823C9F180917903853044
:10534000D0F134C0933008F4C3CE8CE0E4EFF3E046
:10535000A8EEB3E001900D928A95E1F781E0809389
:1053600089038091B0059091B105A091B205B091EB
:10537000B3058093AC059093AD05A093AE05B093B3
:10538000AF05A6CE80FF9FCE20919803222309F47B
:105390009ACE109289038E7F8093840394CE1092CC
:1053A0007A030E94480710929E0352CF109227065C
:1053B000109279030AC0809127068F5F8093270699
:1053C0008430B0F30E94BE06F3CF2496E0E10C9443
:1053D000FA341F920F920FB60F9211242F933F931E
:1053E0008F939F93AF93BF93809128069091290646
:1053F000A0912A06B0912B063091300623E0230FAE
:105400002D3720F40196A11DB11D05C026E8230FFC
:105410000296A11DB11D209330068093280690931B
:105420002906A0932A06B0932B0680912C06909112
:105430002D06A0912E06B0912F060196A11DB11D3B
:1054400080932C0690932D06A0932E06B0932F06E2
:10545000BF91AF919F918F913F912F910F900FBE70
:105460000F901F9018952FB7F894609128067091AF
:10547000290680912A0690912B062FBF08953FB7E9
:10548000F89480912C0690912D06A0912E06B09153
:105490002F0626B5A89B05C02F3F19F00196A11D28
:1054A000B11D3FBFBA2FA92F982F8827820F911DBA
:1054B000A11DB11DBC01CD0142E0660F771F881F01
:1054C000991F4A95D1F708958F929F92AF92BF92FC
:1054D000CF92DF92EF92FF926B017C01D0DF4B0104
:1054E0005C01C114D104E104F104F1F0C8D0C7DFBC
:1054F000DC01CB0188199909AA09BB09883E9340B0
:10550000A105B10570F321E0C21AD108E108F10844
:1055100088EE880E83E0981EA11CB11CC114D10432
:10552000E104F10421F7DDCFFF90EF90DF90CF9001
:10553000BF90AF909F908F9008958230910538F082
:10554000880F991F880F991F05970197F1F7089504
:10555000789484B5826084BD84B5816084BD85B54E
:10556000826085BD85B5816085BDEEE6F0E0808115
:1055700081608083EAE7F0E08081846080838081BD
:105580008260808380818160808380818068808365
:105590001092C1000895CF93DF9390E0FC01E45591
:1055A000F84F2491FC01E054F84F8491882361F175
:1055B00090E0880F991FFC01E851F84FC591D491F4
:1055C000FC01E252F84FA591B491611109C09FB757
:1055D000F8948881209582238883EC912E230BC038
:1055E000623061F49FB7F8943881822F80958323CD
:1055F0008883EC912E2B2C939FBF06C08FB7F89415
:10560000E8812E2B28838FBFDF91CF91089590E002
:10561000FC01E455F84F2491FC01E054F84FE4916B
:10562000EE23A1F0F0E0EE0FFF1FE252F84FA5913C
:10563000B4918FB7F894611105C09C91E22FE09569
:10564000E92302C0EC91E22BEC938FBF089590E028
:10565000FC01E455F84F2491FC01E054F84FE4912B
:10566000EE2359F0F0E0EE0FFF1FEC52F84FA5913A
:10567000B491EC91E22381E009F480E0089508956B
:105680000F931F9390E0FC01E455F84F7491FC01D7
:10569000E054F84FE491662311F0672F01C060E0F9
:1056A000F0E0EE0FFF1FEC52F84F859194918901C5
:1056B0009A013F70462F672F0E94A504611571055E
:1056C0008105910549F0DC01CB010196A11DB11DB9
:1056D000BC01CD019F7003C060E070E0CB011F9161
:1056E0000F9108958093110108958E3008F08E5027
:1056F00087702091110190E4299F90011124822B41
:1057000080937C0080917A00806480937A008091FD
:105710007A0086FDFCCF809178002091790090E09E
:10572000922B0895A0E0B0E0E8E9FBE20C94E634A7
:105730006C017A018B01C0E0D0E0CE15DF0589F065
:10574000D8016D918D01D601ED91FC910190F08110
:10575000E02DC6010995892B11F47E0102C0219626
:10576000ECCFC701CDB7DEB7E8E00C940235611588
:10577000710581F0FB0101900020E9F73197AF013D
:10578000461B570BDC01ED91FC910280F381E02D6B
:105790000995089580E090E00895E9CF0895DC012F
:1057A000ED91FC910190F081E02D0995089565E25D
:1057B00071E0DDCF4F925F926F927F92EF92FF92F6
:1057C0000F931F93CF93DF93CDB7DEB7A1970FB69B
:1057D000F894DEBF0FBECDBF7C01FA01CB0119A248
:1057E000223008F42AE08E010F5D1F4F422E512C0B
:1057F000612C712CBF01A30192010E948934F9012F
:10580000CA01015011096A3014F4605D01C0695C7D
:10581000D8016C93232B242B252B61F7B801C701EA
:10582000A6DFA1960FB6F894DEBF0FBECDBFDF9105
:10583000CF911F910F91FF90EF907F906F905F90AD
:105840004F9008952115310549F4DC01ED91FC914B
:105850000190F081E02D642F09950895ABCF9A0156
:10586000AB0160E070E0EECFA0E0B0E0EAE3FCE284
:105870000C94E6348C016A017B012115310549F451
:10588000DC01ED91FC910190F081E02D642F0995F0
:105890001AC02A30310599F477FF10C06DE27FDF1E
:1058A000EC0144275527BA014C195D096E097F099F
:1058B0002AE0C8017FDF8C0F9D1F05C02AE0B701D9
:1058C000A601C80177DFCDB7DEB7E8E00C9402355A
:1058D0009A01AB01770F660B770BC6CF089538DEC0
:1058E000FDDF0E94502231D9FECF9091C100892F57
:1058F000807194FF0EC09091B7068091B8069813FE
:1059000002C080E00895E091B806F0E0EB5CF94F4A
:1059100080810895E7EBF6E081818083E5EBF6E096
:10592000808181830895FC011382128220E331E09B
:105930003183208308959B01AC018091C10084FDD7
:105940001092C1001092B6061092B5061092B806D9
:105950001092B7061216130614061506ECF421155C
:1059600081EE380741055105F1F082E08093C000D7
:1059700060E079E08DE390E0EED7CA01B9016150B3
:1059800071098109910922E030E040E050E0E3D75D
:105990003093C5002093C40088E98093C10086E05D
:1059A0008093C20008951092C00020E130E0F0CF53
:1059B0001092C10008959091C100892F807194FFC9
:1059C00006C08091B7069091B806891B8F7708951D
:1059D000F2CF08959091C100892F807194FF14C077
:1059E0009091B7068091B806981302C080E00895A0
:1059F000E091B806F0E0EB5CF94F80819091B80639
:105A00009F5F9F779093B8060895E4CF0895909193
:105A1000C10094FF15C09091B5069F5F93702091CF
:105A2000B6069217E1F3E091B506F0E0EF5CF94FAE
:105A300080839093B5068091C10080628093C100FD
:105A40000895862FE4DF81E090E00895DC01ED9178
:105A5000FC910190F081E02D099508950F931F931B
:105A6000CF93DF938C01FB016491EF0121966623B4
:105A700021F0C801EBDFFE01F7CFDF91CF911F913D
:105A80000F910895CF93DF93EC01E8DFCE018FDE15
:105A9000DF91CF910895A0E0B0E0E0E5FDE29CC782
:105AA0009E01275F3F4F4F81588560E08D819E8129
:105AB00012D0E2E0ADC7A0E0B0E0E0E6FDE28CC7C6
:105AC0009E01275F3F4F4F81588561E08D819E8108
:105AD00002D0E2E09DC7A4E1B0E0E0E7FDE26CC7E0
