:10000000D7C400000C94A81C0C943A1DF9C400003D
:10001000F7C40000F5C40000F3C40000F1C4000000
:10002000EFC40000EDC40000EBC40000E9C4000010
:10003000E7C40000E5C40000E3C40000E1C4000020
:100040000C94AE25DDC400000C94480F0C946E0F88
:10005000D7C40000D5C40000D3C40000D1C4000040
:10006000CFC40000CDC40000084AD73B3BCE016E90
:1000700084BCBFFDC12F3D6C74319ABD56833DDAFF
:100080003D00C77F11BED9E4BB4C3E916BAAAABE0E
:10009000000000803F05A84CCDB2D44EB93836A937
:1000A000020C50B9918688083CA6AAAA2ABE000074
:1000B00000803F0664EC1B3C04BC163E3BE5B93CAB
:1000C000C93C37C29E5A3D660498083EEA69AAAA0E
:1000D0003E000000803F0302010053637265656EBD
:1000E00020300046440A00434425640A0052464634
:1000F0000A00100E0F114D697373696E672F4F6CF4
:100100006420436F6E6669673A202564206D79200C
:100110003739004D696E696D4F53442D45787472BF
:100120006120322E347C756E69207225642044561D
:100130007C0020284E5453432900202850414C294C
:100140000025372E32660025362E31660091253780
:100150002E326600A125372E32660041010B68D68B
:10016000030047018F68FF040047011473CE0300AA
:1001700047011D73C6030047011268CA03004D0101
:100180009076BE03005401A076BA03004701BD611A
:10019000C2030047015777B60300000000000000CB
:1001A000004E6F20696E7075742064617461212047
:1001B00025757C00B8B90025346905070025346928
:1001C00005060025352E32660D00253269006F7652
:1001D00065726C6F61640053747265616D00667264
:1001E0006F7A656E0053747265616D0025342E3030
:1001F00066010025322E3066252500256325638E95
:1002000025342E30660100256325638E25322E307D
:100210006625250025346905007C20CECECECE6033
:10022000CECECECE200040CB242020207C007C20CF
:10023000202024CB00828081808180848081808105
:100240008083808180818085808180818020C8C872
:10025000C8C87EC8C8C8C8207C0020202024CBB8CD
:10026000B9CB242020207C00253369050020586567
:1002700025342E30660025342E3066002532692064
:100280000025352E30660025332E306925250025C2
:10029000352E32660E0025332E30660025332E3083
:1002A000660025322E30660025342E30660025206B
:1002B000352E316618002520352E3266180052255D
:1002C000332E306605005025332E30660500482554
:1002D000332E306605004225352E31660500452552
:1002E000352E3166004525342E30666D0073452568
:1002F000352E316600BE026E69F90400C6026E69D1
:10030000F70400CE026E69F50400D6025469F304C6
:1003100000DE024168EF0400E5025869E50400EDE3
:10032000024173EB04000000000000000025336967
:1003300000253032697C002533690025342E306673
:100340000100202090910025352E31660043256460
:100350002535697C0025342E30660025342E316623
:100360000025342E32660025342E30660025342ECA
:1003700030660025342E32660025342E3266004366
:100380002569200025690025346400432569200083
:10039000B0B1B4B5B6B77B7D15A51700014609000D
:1003A000023F0900034313BC842C132605A50B0050
:1003B00007060D0018100C000614140008A10C000C
:1003C00009981700255412000BAB100B0A5A0A00AB
:1003D00019860B000DB5135C1104131116CC101205
:1003E00012A5121417B31213133A0902142D097F20
:1003F0000F7309BD2E6809571B7D151D1CCF0B15EA
:100400001D5112000E920B091EC1140021A20900F9
:1004100020950A0022A2108F24C7121F2B62091FE9
:100420002CF70F002DD10F002FB30F00A7260B00C4
:10043000A8230B00A9200B00AA1D0B001F620A00B5
:1004400026290B009AD910000000000024050C009A
:1004500000DE04053A0F600409EA0800000000000D
:100460001106000000000000000000000000080667
:10047000730180020000D805C0E0401FFF05730132
:1004800084020000D8059CFF6400F6057301980201
:100490000000D805C0E0401FFF0573019C0200006A
:1004A000D8059CFF6400E8057301B0020000D80580
:1004B000C0E0401FFF057301B4020000D8059CFF97
:1004C0006400DD057301C8020000D805C0E0401FCC
:1004D000FF057301CC020000D8059CFF640056069E
:1004E0006800000000000000000000003C066601FB
:1004F0003F050000D805FCFF0400490666014305DE
:100500000000D805FCFF0400200666014705000036
:10051000D805FCFF04002E0666014B050000D80537
:10052000FCFF0400090700000000000000000000BC
:100530000000F906620A16050000D1050000FF0060
:10054000EA06620A4F050000D1050000FF00DC0644
:10055000620115050000CC050000FF00CA0662011B
:1005600014050000CC050000FF00B90662011C055F
:100570000000CC050000FF00AC0662011D05000074
:10058000CC050000FF009C060000000000000000F9
:10059000000000008E06620154050000CC05010039
:1005A00004008506620113058E08CC0500000300D7
:1005B00075065A0151058E08CC05E1FF1F0067063C
:1005C0007A0150058E08CC05F1FF0F00252E30660C
:1005D0000025332E31667600252E33660034202820
:1005E0005253534929204B003320284375727265BA
:1005F0006E7429204B00322028563229204B0020CF
:100600002020202020204100312028563129204B55
:100610000020202050696E2053656E736F72730046
:10062000526F6C6C2020696E204E54534300506909
:1006300074636820696E204E54534300526F6C6C93
:100640002020696E2050414C005069746368206915
:100650006E2050414C002020486F72697A6F6E20E6
:10066000616E676C657300566572746963616C20B6
:100670006F66667300486F72697A6F6E74616C2082
:100680006F66667300436F6E7472617374005363B8
:100690007265656E7320436F756E7400202053631E
:1006A0007265656E20706172616D730052535349BB
:1006B000207761726E696E670042617474206368AE
:1006C00061726765207761726E004F766572737034
:1006D000656564207761726E696E67005374616C42
:1006E0006C207761726E696E6700426174742032AB
:1006F000207761726E696E67004261747465727909
:10070000207761726E696E67002020204F5344206D
:100710007365747570006D5F25640058074B073A68
:10072000072B0792078507760767070325392E35BC
:100730006625630425392E356600032531302E36B3
:10074000662563042531302E36660025392E356640
:10075000256325392E3566002531302E3666256312
:100760002531302E366600032530356C6425630450
:100770002530356C6400032530366C642563042510
:1007800030366C64002530356C6425632530356C5B
:1007900064002530366C6425632530366C64001D9A
:1007A0000813080708FA07EE07E107D507CA07BECE
:1007B00007B30746656E6365204661722100466592
:1007C0006E63652048696768210046656E63652031
:1007D0004C6F772100426174742042206C6F772146
:1007E00000486967682056537065656421002020C1
:1007F0004C6F772052737369210042617474657283
:1008000079204C6F772100204F76657253706565B3
:100810006421002020205374616C6C2100204E6FF5
:100820002047505320666978210052B80E4085EB6E
:1008300051401966BB0012800C1CA0141E6666662F
:10084000400000803F100CBA000A00001BE8031AA9
:10085000000000080002010000030407000000007F
:10086000000000000102040810204080010204087A
:1008700010200102040810200404040404040404E9
:10088000020202020202030303030303000000004A
:1008900023002600290000000000250028002B006E
:1008A00000000000240027002A006E616E00696EBF
:1008B000660000407A10F35A00A0724E180900102A
:1008C000A5D4E80000E87648170000E40B540200C5
:1008D00000CA9A3B000000E1F505000080969800F0
:1008E000000040420F000000A08601000000102719
:1008F00000000000E80300000000640000000000A9
:100900000A00000000000100000000002C76D888DA
:10091000DC674F0823DFC1DFAE59E1B1B796E5E3ED
:10092000E453C63AE651997696E8E6C28426EB8906
:100930008C9B62ED407C6FFCEFBC9C9F40F2BAA5A3
:100940006FA5F490055A2AF75C936B6CF9676DC13B
:100950001BFCE0E40D47FEF520E6B500D0ED902E3F
:100960000300943577050080841E080000204E0A9D
:10097000000000C80C333333330F986E12831141DB
:10098000EF8D2114893BE65516CFFEE6DB18D184A6
:100990004B381BF77C1D901DA4BBE42420328472CD
:1009A0005E228100C9F124ECA1E53D27F1079220E8
:1009B00011241FBECFEFD8E0DEBFCDBF11E0A0E015
:1009C000B1E0ECE9F1E602C005900D92AC33B1075D
:1009D000D9F725E0ACE3B1E001C01D92AA3EB20711
:1009E000E1F719E0C0EBD9E004C02297FE010E94B4
:1009F000C830CC3AD107C9F70E942F280C94712C2B
:100A0000FFCACF92DF92EF92FF920F931F93E82FCE
:100A1000F92F05C0015011092109310961F19081B7
:100A200096239417B9F305C0015011092109310922
:100A300011F1908196239413F7CFC12CD12CE12C86
:100A4000F12C0AC08FEFC81AD80AE80AF80A0C1568
:100A50001D052E053F0579F080818623841791F3CB
:100A60006C2D7D2D8E2D9F2D1F910F91FF90EF905E
:100A7000DF90CF90089560E070E080E090E01F91FB
:100A80000F91FF90EF90DF90CF900895FA01AA2781
:100A9000283051F1203181F1E8946F936E7F6E5FC1
:100AA0007F4F8F4F9F4FAF4FB1E03ED0B4E03CD06F
:100AB000670F781F891F9A1FA11D680F791F8A1F52
:100AC000911DA11D6A0F711D811D911DA11D20D0B9
:100AD00009F468943F912AE0269F11243019305D73
:100AE0003193DEF6CF010895462F4770405D419364
:100AF000B3E00FD0C9F7F6CF462F4F70405D4A33B1
:100B000018F0495D31FD4052419302D0A9F7EACF78
:100B1000B4E0A6959795879577956795BA95C9F7A7
:100B200000976105710508959B01AC010A2E06949A
:100B30005795479537952795BA95C9F7620F731F53
:100B4000841F951FA01D0895283008F027E0332743
:100B5000DA01990F311D87FD9160009661057105DD
:100B600039F432602E5F3D9330E32A95E1F7089522
:100B70009F3F30F080387105610509F03C5F3C5FB4
:100B80003D93913008F08068911DDF93CF931F93C0
:100B90000F93FF92EF92192F987F9695E92F9695D4
:100BA0009695E90FFF27E45FF64F99273327EE2448
:100BB000FF24A701E70105900894079428F4360F55
:100BC000E71EF81E491F511D660F771F881F991FCA
:100BD0000694A1F70590079428F4E70EF81E491F24
:100BE000561FC11D770F881F991F661F0694A1F716
:100BF0000590079428F4F80E491F561FC71FD11DF2
:100C0000880F991F661F771F0694A1F70590079418
:100C100020F4490F561FC71FD81F990F661F771F53
:100C2000881F0694A9F784911095177041F0D69506
:100C3000C79557954795F794E7941A95C1F7E2EB56
:100C4000F8E068941590159135916591959105900E
:100C50007FE27395E118F10A430B560BC90BD009DB
:100C6000C0F7E10CF11E431F561FC91FD01D7EF4B3
:100C7000703311F48A95E6CFE894015030F0080FF4
:100C80000AF40027021708F4202F2395022F7A3345
:100C900028F079E37D932A95E9F710C07D932A9592
:100CA00089F6069497956795379517951794E118E7
:100CB000F10A430B560BC90BD00998F023957E918E
:100CC00073957A3308F070E37C932013B8F77E9124
:100CD00070617D9330F0839571E37D9370E32A9585
:100CE000E1F71124EF90FF900F911F91CF91DF91C9
:100CF000992787FD9095089580E0089580E00895F4
:100D000080E008950895FC011382128220E131E011
:100D10003183208308958EBD0DB407FEFDCF8EB5BF
:100D20006EBD0DB407FEFDCF8EB508958EBD0DB41A
:100D300007FEFDCF8EB58FEF8EBD0DB407FEFDCF44
:100D40008EB508956FE070E080E090E00C94272667
:100D5000811180E490911E03981749F080931E033F
:100D60005E9860911E036C6180E0D5DF5E9A089505
:100D70005E9880910E0581FD06C080910D0583FF70
:100D800019C081E018C080EAD1DF80FF06C081E091
:100D9000DFDF80910D05886007C081FF08C080E01B
:100DA000D7DF80910D05877F80930D0505C082FDFB
:100DB000E4CF02C080E0CCDF5E9A0895CF93DF934A
:100DC000E0911305E43008F0E0E0F0E0EA52FF4F74
:100DD000D49180E1C1E0C80F6D2F9DDFC03211F0CA
:100DE0008C2FF8CFDF91CF9108955E98E7DF609167
:100DF000510582E090DF6091500583E08CDF5E9AC0
:100E00000895CF935E988CEE91DFC82F60911E03FA
:100E1000626080E080DF0E94341D6C2F6F7E8CE664
:100E20007ADF62E18CE077DF60911E036C6380E023
:100E300072DF0E94341D60911E036C6180E06BDFE5
:100E4000D4DFCF9108955E9862E080E064DF7ADFBE
:100E5000D8CF61E086E00E947A2662E082E00E94BC
:100E60007A2686DFCECF20911F038091200390E069
:100E70003EE1239F800D911D112490933D018093AD
:100E80003C0108958F71809320036F7060931F035E
:100E900080911E03803411F0673008F4E4CF635072
:100EA00060931F03FBCF8F3F79F020913C0130917D
:100EB0003D01A9014F5F5F4F50933D0140933C01BD
:100EC000F901E25CFE4F808308958C3731F4809104
:100ED0001F038F5F80931F03C6CFE5CF862FF5DFFB
:100EE00081E090E00895CF93C42FCCDF8C2FEDDF0D
:100EF000CF9108955E9860E085E00DDF60E086E0C8
:100F00000ADF61E084E007DF5E9AEEE3F1E080E271
:100F10005E9890819EBD0DB407FEFDCF9EB5819376
:100F20005E9A93E0EE31F90798F35E988FEF8EBDED
:100F30000DB407FEFDCF8EB55E9A08950F931F93F3
:100F4000CF93DF93C82F8B015E9860E080E0E3DEF3
:100F50006C2F89E0E0DEE80110E00991612F8AE062
:100F6000DADE602F8BE0D7DE1F5F1633B1F760EA61
:100F700088E0D1DE80EADADE85FF03C00E944E17EA
:100F8000F9CF6CE080E0C7DE5E9ADF91CF911F91D0
:100F90000F910895A1E0B0E0E0EDF7E00C949F30F0
:100FA0001CBC8F7280658CBD8DB581608DBD8DB58B
:100FB00089838EB589832196E2E00C94BB3061E091
:100FC0008DE00E947A2661E08BE00E947A2660E044
:100FD0008CE00E947A2661E08AE00E947A2680E016
:100FE000D9CF81E293E0EBCFE82FF0E0EE0FFF1FC7
:100FF000E45EFE4F80819181611105C028EE33E0EF
:1010000040ED57E004C020E233E048E958E08217A1
:10101000930790F0FC01E21BF30BCA01821B930BB8
:1010200065E070E00E941B30CF010E941B30862FCC
:10103000653018F084E0089580E00895ACE1B1E0F7
:10104000E3EEF3E080819181883E934028F48D9116
:101050009C911197918380833296129683E0EB3EA8
:10106000F80781F7089590E0880F991FDC01A45ECE
:10107000BE4FFC01ED51FC4F8D919C91208131813F
:10108000821B930B0895E091E20325E0E29FF001BB
:101090001124E25BFB4F649161504091E003509159
:1010A000E1039091050187FF03C0992339F004C043
:1010B000882311F0961721F0980F03C0962F01C0D6
:1010C00090E0FA012EE0929FE00DF11D112434967C
:1010D00025913491232B39F39093050181E080937E
:1010E0000E040895EF92FF920F931F93CF93DF9317
:1010F0007B018A01080F191FEC01E81AF90AC017D1
:10110000D10739F0C7018C0F9D1F0E94D32F8993FF
:10111000F6CFCDB7DEB7E6E00C94B73066CE0895D3
:10112000692FB0CE8CE7D1CE80E2CFCECF93813184
:1011300010F08051FCCF811101C080E1C82FCC0F8D
:10114000C25080E98C0FC1DE81E98C0FBEDECF91E9
:101150000895A8E1B0E0EFEAF8E00C949E30182F73
:1011600088E1189FB001112460587D4F48E150E09C
:10117000CE010196B7DFE12FF0E0EE0FFF1FEC503C
:10118000FC4F6081718180E090E00E94F02D298108
:101190003A814B815C810E940B2F2D813E814F81D2
:1011A00058850E948A2C9F938F937F936F93CE01D3
:1011B00009969F938F9382EB93E09F938F930E9466
:1011C00004290FB6F894DEBF0FBECDBF6896E3E0EA
:1011D0000C94BA30CF936AE086E054DEC0E08C2FE6
:1011E000B8DFA0DFCF5FC430D1F7CF9108957F93F0
:1011F0006F939F938F9382EB93E09F938F930E94C3
:1012000014290F900F900F900F900F900F9008954A
:101210001F93CF93DF93EC01162F6CE370E00E94D5
:101220001B3087E393E0E3DF112331F080911A0450
:10123000882311F080E201C08AE347DECE016CE32F
:1012400070E00E941B30BC0181E393E0D0DFDF91AE
:10125000CF911F91089560E0DBCF6091D20470E0E0
:1012600086E197E0C4DF80911504882311F086E8B9
:101270002CCE089560E070E087E892E0B8CF6091EE
:101280008C0470918D048DEB91E0B1CF60918A0454
:1012900070918B0487EB91E0AACF7F936F935F935C
:1012A0004F939F938F9382EB93E09F938F930E9432
:1012B00014298DB79EB708960FB6F8949EBF0FBE3F
:1012C0008DBF089540E050E0BA0189E793E0E5CF93
:1012D0004091D7045091D8046091D9047091DA04F8
:1012E00086E992E0DACF6091DD047091DE04882710
:1012F00077FD8095982F0E94F22D2AE037ED43E28A
:101300005CE30E940B2FAB01BC018FE892E0C5CFDC
:10131000CF93C22F7F936F935F934F939F938F933E
:1013200042EB53E05F934F930E9414298C2FCDDD45
:101330008DB79EB708960FB6F8949EBF0FBE8DBFAF
:10134000CF910895CF938091E3049091E404FC0140
:101350003A96C4913296E4910D96FC016591749190
:1013600080E090E00E94F02D2AE037ED43E25CE35C
:101370000E940B2FAB01BC012C2F87E493E0C8DF48
:10138000CF9108957F936F935F934F9320910801BE
:101390001F922F93209107011F922F939F938F935A
:1013A00082EB93E09F938F930E9414298DB79EB791
:1013B0000C960FB6F8949EBF0FBE8DBF0895EDEA50
:1013C000F4E023812F9322812F9321812F93208179
:1013D0002F931F926F93E9EAF4E023812F932281E8
:1013E0002F9321812F9320812F939F938F9382EBB3
:1013F00093E09F938F930E9414298DB79EB70E960A
:101400000FB6F8949EBF0FBE8DBF0895EF92FF9266
:101410000F931F93CF93DF93EB018A017C01060F9B
:10142000171FC017D10741F0F70161917F01CE016D
:101430000E94DB2F2196F5CFCDB7DEB7E6E00C9406
:10144000B7300E94892C20EC3BE649ED57E40C9420
:101450000B2FCF92DF92EF92FF92CF93C42F6B01AD
:101460007C01E894F7F8C701B6010E94BF2D8827D8
:1014700077FD8095982F0E94F22D9B01AC01C7014A
:10148000B6010E94892C9B01AC01CC2329F060E0BD
:1014900070E583EC97E404C060E074E284E799E4CB
:1014A0000E940B2F0E94BF2DCF91FF90EF90DF90F5
:1014B000CF90089580911C04882319F080919404A2
:1014C00035CE089580917E0490917F048F73992783
:1014D000029730F46EE175E082EB93E00C949D2767
:1014E0000895CF93C42F28EE33E040E050E00E94EF
:1014F00042306C2FC9018CDECF9108957F936F939A
:101500009F938F938DE493E09F938F9382EB93E06F
:101510009F938F930E9414298DB79EB708960FB69C
:10152000F8949EBF0FBE8DBF08950F931F93CF9366
:10153000DF930CE111E0C1E0D0E0F801619171911D
:101540008F01CE01DBDF2196C930D105B1F7DF91E4
:10155000CF911F910F910895A2E0B0E0E2EBFAE085
:101560000C9498308C01F801B4903196E590F49089
:10157000E114F10441F1809175046B2D6F7770E0F7
:10158000660F771FF0E88F9F600D711D112442E0F8
:1015900050E0CE010196A6DDC980DA80C601C0DD2B
:1015A000D7FC09C0C7FC09C0F80133968491882391
:1015B00021F08BDC02C0B7FE03C0C601F70109951C
:1015C0000C5F1F4FD0CF2296E9E00C94B430CF933C
:1015D000C82F609168037091690380916A039091AC
:1015E0006B030E94BF2D615071096F30774278F410
:1015F000C7FD02C086E169DC409168035091690330
:1016000060916A0370916B038BE393E046DECF91A8
:101610000895262F30E0F901E051FC4F87FD0BC003
:1016200091E09083F901E451FC4F86FB882780F913
:101630008083862F8ECD1082089563E0892FE9CFB5
:1016400062E0892FE6CF61E0892FE3CF60E0892F48
:10165000E0CF0F931F93CF93DF9320913204222387
:1016600009F44DC0409130045091310420917E0422
:1016700030917F044217530709F441C02AE13091A9
:101680002F04231B27FD0BC02695692F820FFADB41
:1016900062E374E082EB93E00E949D2732C096FDE6
:1016A0001CC0219530E08091760490912E04891B16
:1016B00090E0B901660F771F0E942F3040912804F7
:1016C00041110DC0009729F021503109821793076D
:1016D00031F421E02093280402C080E090E0EC0186
:1016E000CE5CDB4F8E01065E1F4F8991811102C0D7
:1016F0001BDD07C0EADBC017D107B9F7F9CF10929D
:101700003204DF91CF911F910F91089596FB4427EA
:1017100040F96091C2047091C3048091C404909117
:10172000C504DFCECF93C92F609167047091680420
:101730008DE293E05CDD80911B0580FD04C0C6FF57
:1017400002C085E2C2DBCF9108951F93CF93DF9350
:10175000192F9091A704923019F020F4CAE203C027
:10176000CFE101C0CFE0D82FD095DD1FDD27DD1FF1
:1017700011F016FF0DC06091A80470E08AEC91E0B2
:1017800036DDDD2341F016FF06C08C2F9EDB03C043
:101790008C2F9BDBF0CFDF91CF911F910895CF92DB
:1017A000DF92EF92FF9296FF23C081E080932104A5
:1017B00029E838E848E85CE3609103057091040586
:1017C00080910505909106050E940B2F6B017C010D
:1017D0000E94BF2D675F7F4F6331710518F486EB60
:1017E00092E002C08EEA92E0B701A60156DD13C076
:1017F00010922104E091E304F091E40472962491A4
:10180000409103055091040560910505709106050E
:1018100088EA92E07DDDFF90EF90DF90CF90089511
:10182000CF92DF92EF92FF921F93CF93DF93D82F47
:10183000C92F8091D6048F55863010F414E601C06C
:101840001FEF6091DC0470E080E090E00E94F02DDA
:101850006B017C01612F70E080E090E00E94F22D2E
:101860009B01AC01C701B6010E94572D20E030E07A
:1018700048EC52E40E940B2F6B017C01C074D7FD31
:1018800046C088E822DB2AE037ED43E250E4C70196
:10189000B6010E940B2F0E94C42D9B016138710577
:1018A00048F029E8209307019B0120583109E8E01E
:1018B000F1E012C08DE8809308012231310550F427
:1018C00080911A04882331F080E28093070180938D
:1018D00008010AC0E7E0F1E0C9016AE170E00E9496
:1018E0001B308DE8861B8083CC2329F0B701A6012D
:1018F00087E092E00AC04091FB045091FC046091A3
:10190000FD047091FE048BEF91E03CDD12C0CC230E
:1019100029F0AB01BC0183EF91E00AC04091FB04C8
:101920005091FC046091FD047091FE048CEE91E0F6
:10193000B4DCDF91CF911F91FF90EF90DF90CF90BB
:101940000895FF920F931F93CF93DF93D92F182FF2
:101950001095111F1127111F51F096FD08C095FF1A
:1019600039C06AE572E082EB93E00E94F02883ECD4
:10197000ACDA209188043091890448E1429FC0018B
:10198000439F900D11240C9668E671E00E942F3061
:1019900064507109C62F77FF02C0C8E1C60FD5FB9E
:1019A000FF24F0F8D5FF02C00AE001C009E0EC2FE7
:1019B000F0E0EB5CFD4F849188DACF5FC83108F02E
:1019C000C0E00150A1F787E880DA1123D1F0D6FDFD
:1019D00004C017C06DE472E0C6CFFF2079F06EE25C
:1019E00072E082EB93E00E94F0288CE75CDA66E21A
:1019F00072E082EB93E00E94F02803C069E172E09C
:101A0000F8CFCDB7DEB7E5E00C94B830A0E0B0E099
:101A1000ECE0FDE00C9499304091AD045091AE049F
:101A20006091AF047091B004452B462B472B69F4AD
:101A30004091A9045091AA046091AB047091AC0448
:101A4000452B462B472B09F479C094FF02C010E2C6
:101A500001C01CE796FB002700F9E82FE095EE1F78
:101A6000EE27EE1FEE0FE02B80911A04882311F170
:101A700080912604853058F065EE71E082EB93E0AA
:101A80000E94F028812F21DA6EED71E00EC0809166
:101A90002704853078F067ED71E082EB93E00E94D7
:101AA000F028812F12DA6EEC71E082EB93E00E9455
:101AB000F02844C0FF27E7FDF095EE0FFF1F95FFCC
:101AC00037C0ED5DF84FC591D4916091AD04709130
:101AD000AE048091AF049091B004402FBADCF62E92
:101AE000E72ED82EC92E6091A9047091AA04809186
:101AF000AB049091AC04402FACDCCF92DF92EF921C
:101B0000FF921F921F939F938F937F936F93DF9307
:101B1000CF9382EB93E09F938F930E9414298DB70C
:101B20009EB70E960FB6F8949EBF0FBE8DBF06C02F
:101B3000E55EF84F85919491612F41DCCDB7DEB71A
:101B4000E8E00C94B530AEE0B0E0E9EAFDE00C94DA
:101B50008F30782E6F8380911E03803489F4C0907B
:101B60004305D0904405E0904505F09046058090EF
:101B70003F0590904005A0904105B090420510C0EF
:101B8000C0904B05D0904C05E0904D05F0904E056F
:101B90008090470590904805A0904905B0904A056F
:101BA00060918C0470918D04882777FD8095982F23
:101BB0000E94F22D9B01AC01C501B4010E940B2FC4
:101BC0004B015C018091060480FF04C0B7FAB09419
:101BD000B7F8B094C501B4010E94BF2DAB016A35BE
:101BE000710538F09B012D543F4F2935310580F4A4
:101BF000A9014734510590F54A31510518F54A308D
:101C0000510530F529E02D870DEC602E16EC30C023
:101C10006B3571051CF0AB01435B5109CA0157FFDD
:101C200003C091958195910987349105B8F48A3163
:101C30009105C8F40A9730F338E03D8715EF612E1F
:101C400012EE16C087E08D87B8EF6B2E19ED10C02D
:101C500098E09D87A3EF6A2E10ED0AC01D86FDEC6B
:101C60006F2E11EC05C0E7E0ED87EBEF6E2E1BEE5B
:101C700027EA32E94BE25CEBC701B6010E940B2F69
:101C80006B837C838D839E8325E33AEF4EE85CE390
:101C9000C501B4010E940B2F4B015C01F2E0F983F6
:101CA00000E07A947A822D85332727FD30953B8793
:101CB0002A873AEF360D3C87D980DA94DA94E02E01
:101CC000FF24E7FCF09480918A0490918B048E0DA0
:101CD0009F1DBC01882777FD8095982F0E94F22DCB
:101CE0002B813C814D815E810E940B2F0E94B32F7E
:101CF00020E030E044EB52E40E940B2F2B013C012A
:101D000020E030E0A9010E94002F20E030E040E018
:101D10005FE387FD0BC0C301B2010E948A2C0E94C1
:101D2000BF2D1B01EDE22E0E311C0AC0C301B20112
:101D30000E94892C0E94BF2D1B01FDE22F0E311C39
:101D4000298121502E878CE090E08D199109998787
:101D50008887CC24DD24CE18DF08FE858F2F90E005
:101D600028853985281739070CF473C0C501B401DB
:101D70000E94B32F2B013C019E85ECE09E9F602DBD
:101D800011246E54772767FD7095872F972F0E9437
:101D9000F22D9B01AC01C301B2010E940B2F0E94E6
:101DA000BF2DF101E60FF71FCF0101978A3591058D
:101DB00008F04BC062E170E00E942F30662E2D8546
:101DC000222391F03EEE3603A001379F500D1124DF
:101DD0004E0F5F1F4F5F5F4F57FF02C04F5F5F4F58
:101DE00055954795742E01C0712C5F80561A64E09A
:101DF000650D8A819E85890F45D8002379F0EE858F
:101E0000E53061F4B701F7FCB6014AE050E082EB3F
:101E100093E00E941528F6E0FE8703C0872D810F0E
:101E200054D8772091F0872D90E02A853B85821742
:101E300093075CF034E0631641F04C85470D63E096
:101E4000650D8A819E85890F4ED8EE85EF5FEE87FE
:101E500084CF37FE05C0025E89818E5F89832CCFD7
:101E60003BE52316310414F00E51F6CF2E96E2E135
:101E70000C94AB3066E089E066CEAB01BC01E0912A
:101E8000E304F091E4043996249181E892E040CA99
:101E90001F920F920FB60F9211242F938F939F933F
:101EA000EF93FF939091C6008091E8058F5F8F7745
:101EB0002091E905821741F0E091E805F0E0EA5948
:101EC000FA4F90838093E805FF91EF919F918F9156
:101ED0002F910F900FBE0F901F9018951F920F9289
:101EE0000FB60F9211248F939F93EF93FF939091CE
:101EF000E7058091E605981779F0E091E705F0E0B5
:101F0000EE59FA4F80818093C6008091E7058F5F7C
:101F100083708093E70505C08091C1008F7D809319
:101F2000C100FF91EF919F918F910F900FBE0F9085
:101F30001F901895EAE7F0E080818B7F8083808195
:101F400086608083089595FB222720F994FF02C0C4
:101F500092E001C090E0292B86FF02C084E001C01E
:101F600080E0822B08951F93CF93DF93182FEBDF30
:101F70008C5FC82FD0E017FD06C0BE016F5F7F4F9A
:101F80008BE893E034D9FE01EE0FFF1FE45EFE4FB5
:101F90006081718187E893E02AD9DF91CF911F9109
:101FA00008951F93CF93DF93182FD92FCCDFC4E070
:101FB000C80F17FD07C06C2F70E06F5F7F4F84E87C
:101FC00093E015D9D6FB662760F98C2F0DD8D82F52
:101FD000C0E0CD1711F080E801C081E80E946507DC
:101FE000CF5FC530B1F7DF91CF911F9108951F9357
:101FF000CF93DF93182FD92FA6DFC4E0C80F17FDAA
:1020000007C06C2F70E06F5F7F4F8FE793E0EFD8D2
:10201000D6FB662760F98C2F0E94F407182FC0E0CA
:10202000D3E0CE010E94D32F8F3F71F0811103C006
:10203000112351F01150111102C00E946507219621
:10204000C03883E0D80769F7DF91CF911F910895D9
:102050000F931F93CF93DF93EC018B010E94F82520
:10206000600F711F811D911D688379838A839B8313
:10207000DF91CF911F910F9108959B01FC01408149
:10208000518162817381420F531F611D711D408315
:102090005183628373830895E091E304F091E40433
:1020A000349665917591859194910895CF92DF92C0
:1020B000EF92FF92CF93DF936B017C01EDDFA701DD
:1020C00096010E940B2F6B017C010E94BF2DC091D5
:1020D000E304D091E404FE01603177423CF4399688
:1020E0002491B701A60187E693E024C0709665911C
:1020F000749180E090E00E94F02D9B01AC01C7013B
:10210000B6010E94572D6B017C010E94BF2D6A30E1
:10211000710534F06436710534F48BE593E005C045
:1021200081E693E002C085E593E0FE013F962491AD
:10213000B701A601EDD8DF91CF91FF90EF90DF902E
:10214000CF9008956091FF04709100058091010582
:1021500090910205ABCF80911C04882359F06091C7
:1021600095047091960480919704909198040E9430
:10217000F22D9CCF0895CF92DF92EF92FF926B01E8
:102180007C018ADFA70196010E940B2F76DEFF906B
:10219000EF90DF90CF90089560E070E0CB01EBCF3F
:1021A000E091E304F091E404659175918591949137
:1021B0000895CF92DF92EF92FF92809114048823CA
:1021C00009F4E0C010921404C0908404D0908504F7
:1021D000E0908604F0908704E3DFA70196010E9457
:1021E0000B2F0E94BF2D8091E1049091E204209179
:1021F0002004222351F031E020E04091A704423036
:1022000008F030E0E32EF22E02C0E12CF12C4091D8
:10221000110541110CC02091150530E062177307BC
:1022200034F42091190420FF02C06894E1F8209151
:102230001405222331F030E02617370714F4689490
:10224000E2F8F091DC04E091D604209116052223F7
:1022500059F064E670E00E941B306115710521F0B1
:1022600030E062177307ECF020911C052223D9F0AF
:1022700034E6F39FC00111243E2FE7FF02C031E096
:102280003E0F3595830F911D37FD9A956E2F772759
:1022900067FD70950E942F30822F90E068177907B4
:1022A00014F46894E3F880911B0580FD0CC08091C4
:1022B0001D0590E0209167043091680428173907C4
:1022C00010F46894E4F88091030590910405A091BE
:1022D0000505B09106054130A9F4D0901505DD2023
:1022E00089F0BC01CD019F770E94BF2DCB016AE030
:1022F00070E00E942F308D2D90E08617970714F420
:102300006894E5F88091DF049091E00420914F05F6
:10231000222379F064E670E00E941B30611571059C
:1023200041F0822F90E0681779071CF46894E6F872
:1023300003C0E114F10421F15091670381E05111D0
:10234000850F80936703409167032FEF240F81E08F
:1023500090E002C0880F991F2A95E2F74B3018F0E1
:1023600041E081E090E09C012E213F21232B21F4CC
:10237000880F991F4F5FF2CF40936703451302C048
:1023800010926703E0916703EE2359F0F0E0EE0F3F
:10239000FF1FE356F84F6591749182EB93E00E9422
:1023A000F028FF90EF90DF90CF900895A0E0B0E08C
:1023B000ECEDF1E10C949A30EC01FE0105911491E1
:1023C0000115110509F468C0FE013296849181114E
:1023D0000E946507FE01339684913196E590F49052
:1023E0008936D1F068F4813681F0883609F03AC038
:1023F000E091E304F091E4043996D4904DDE3BC0C3
:102400008337B1F08637E1F02DC0B1E4DB2E6AE00E
:1024100077ED83E29CE32FC0F7016081718188270B
:1024200077FD8095982F0E94F22DA0E2DA2E2AC027
:10243000E091E304F091E4043896D490B1DE1BC03F
:102440002BDE20912104211114C0E091E304F091CE
:10245000E4047296D49020E030E040E752E40E9419
:102460000B2F09C0F0E2DF2E60E070E080E89FE310
:1024700002C0E8E1DE2EF7012081318142815381E3
:102480000E940B2F2D2DAB01BC01C8010E948809B1
:102490000E949208279691CFCDB7DEB7E7E00C9463
:1024A000B63085EF92E082CFCF93DF93D82FC92F3C
:1024B00048E0692F0E9473076091C2047091C304C1
:1024C0008091C4049091C50440E00BD88BE591E065
:1024D0006DDFC6FF05C06C2F8AE08D0F0E9442079A
:1024E0006CE78AE397E00E94DF09DF91CF910895BE
:1024F000CF92DF92EF92FF921F93CF93DF93EC0185
:102500006A017B01122F4CDEA70196010E940B2F5E
:10251000112341F024EE38E34EE85EE30E940B2FD6
:1025200028E106C0E091E304F091E4043896249198
:10253000AB01BC01CE010E948809DF91CF911F91B0
:10254000FF90EF90DF90CF90089596FB222720F91F
:1025500040918004509181046091820470918304C1
:102560008CE992E0C5CF96FB222720F940918404A4
:102570005091850460918604709187048CE992E003
:10258000B7CF2FE632E143E85AE30C940B2FCF92FA
:10259000DF92EF92FF92CF93DF93C0916C03D091C3
:1025A0006D037ADD6B017C018AEF8C9FB0018D9FFA
:1025B000700D1124882777FD8095982F0E94F22DA9
:1025C0009B01AC01C701B6010E940B2FE091E3040F
:1025D000F091E404A8974CF03F96C491D2DFAB0190
:1025E000BC012C2F83E793E006C039962491AB0100
:1025F000BC018DE693E00E948809DF91CF91FF90A6
:10260000EF90DF90CF9008954091B1045091B204C3
:102610006091B3047091B40496FF0CC08091A10442
:102620009091A204A091A304B091A404481B590B5B
:102630006A0B7B0BCB01BA010E94F22DA2DF9BCD6E
:10264000BC0180E090E00E94F02D9BDFAB01BC015B
:1026500083EC91E00C944D0980910D0597FD08C025
:10266000806280930D058091DF049091E004E8CFB3
:1026700091E020914F05211101C090E090FB85F978
:1026800080930D0508958091E1049091E204D8CFE4
:1026900020917E0430917F04260F311D3093310448
:1026A0002093300480932F048091760480932E042D
:1026B000089597FF03C088599E4F0895893621E0F9
:1026C000920714F0885691400895CF93DF93EC0160
:1026D0000E94F82528813981CB01821B930BDF9161
:1026E000CF9108952091190530911A05815018F461
:1026F000822F8F70089594E0369527959A95E1F78B
:10270000F5CFA2E0B0E0E7E8F3E10C949F3081E080
:1027100080930E0488E0E3EEF3E0DF011D928A95DA
:10272000E9F760917504B0E86B9FB001112442E0B5
:1027300050E0CE0101960E94720899818A8190939F
:102740000604809307042296E2E00C94BB3024E058
:10275000880F991F2A95E1F78C549F4F68E671E026
:102760000E942F30CB0101960895CF92DF92EF9215
:10277000FF920F931F93CF938091D2048A3009F078
:102780004BC00091E5041091E604083E83E0180771
:102790003CF409318CEF18072CF409E11CEF02C05E
:1027A00007EE13E0E091E304F091E4043996C4915C
:1027B00060E070E08CE792E00E94F7086DDC2C2F5F
:1027C00040E050E0BA0186E792E00E9488090E944A
:1027D00092088091F3049091F4046BDF20918804B7
:1027E00030918904821B930BB2DF0E94960854DC5F
:1027F0006B017C01B801882777FD8095982F0E9496
:10280000F22DA70196010E940B2FAB01BC012C2FCA
:102810008DE692E00E948809CF911F910F91FF9061
:10282000EF90DF90CF900895809188049091890473
:102830009195819591093DDF845B91099093A60460
:102840008093A50484DF885F0E9496086091A504A8
:102850007091A60484E192E00C94F708CF92DF9285
:10286000EF92FF92CF93DF93EC016A017B019A0113
:10287000AB01688179818A819B810E94502D87FFFD
:1028800004C0C882D982EA82FB82DF91CF91FF9097
:10289000EF90DF90CF9008958F929F92AF92BF926A
:1028A000CF92DF92EF92FF921F93CF93DF93EC01D1
:1028B000CB01BA01122FC880D980EA80FB80A70122
:1028C00096010E94892C4B015C01612F70E080E031
:1028D00090E00E94F22D9B01AC01C501B4010E9461
:1028E000572DA70196010E948A2C688379838A83D9
:1028F0009B83DF91CF911F91FF90EF90DF90CF905E
:10290000BF90AF909F908F9008958F929F92AF92BB
:10291000BF92CF92DF92EF92FF926091DD047091AF
:10292000DE04882777FD8095982F0E94F22D4B01B9
:102930005C01C0908004D0908104E0908204F0900B
:1029400083042EDCA70196010E940B2F9B01AC0192
:10295000C501B4010E94572D20E030E040E251E46F
:102960000E940B2FAB01BC0124E688E693E094DFC4
:10297000FF90EF90DF90CF90BF90AF909F908F909F
:102980000895A0E0B0E0E7ECF4E10C949930082F52
:1029900096FF15C020E030E0A9016091800470919D
:1029A000810480918204909183040E94502D882399
:1029B00009F49EC0AADF802F0E94E70A99C0809187
:1029C0001105811143C020E030E0A901609180042D
:1029D0007091810480918204909183040E94502D13
:1029E000882309F485C091DF809118048823D1F0F1
:1029F0001092B5041092B6041092B7041092B80465
:102A00008091FF0490910005A0910105B09102050D
:102A10008093620390936303A0936403B093650370
:102A20001092180480918A0490918B0497FF60C0E3
:102A300080911A04811103C062E473E002C063E470
:102A400073E082EB93E00E94F02852C0809115045D
:102A5000882309F44DC01091DC04C12FD0E080918F
:102A6000D504992787FD9095C817D907B1F16091D2
:102A7000C2047091C3048091C4049091C5040E9463
:102A8000F02D6B017C01612F70E080E090E00E94EE
:102A9000F02D9B01AC01C701B6010E940B2F6B0109
:102AA0007C016091D604772767FD70956C1B7D0BC8
:102AB000882777FD8095982F0E94F22D9B01AC010D
:102AC000C701B6010E94572D5CDD0E94C42D709392
:102AD000D4046093D3041093D50407FD03C087E1A9
:102AE0000E9465078091D3049091D4040E942B0921
:102AF000CDB7DEB7E8E00C94B5300F931F93CF93BA
:102B0000DF93092F80E090E0D4DDEC0124E640E083
:102B100050E0BA0187E095E0BFDE06FB112710F90F
:102B2000212F40E050E0BA018CE992E0E1DC0E9404
:102B3000920880918804909189049E01281B390B8A
:102B4000C90105DE05FF02C098E001C090E0890FD1
:102B50000E9496084091070550910805609109056B
:102B600070910A05212F82EA92E0C2DCDF91CF91B9
:102B70001F910F9108952AE08FCECF93DF93EC0140
:102B80009A01AB01688179818A819B810E948A2C9C
:102B9000688379838A839B83DF91CF910895A3E033
:102BA000B0E0E5EDF5E10C948F308EEB94E08DDD37
:102BB0001C0160E070E08EEB94E04ADAB10180E045
:102BC00090E00E94F02DDDDC4B015C016091DD04A2
:102BD0007091DE04882777FD8095982F0E94F22D52
:102BE0006B017C016091E1047091E20480E090E06F
:102BF0000E94F02DA70196010E940B2F2CEA35ECC4
:102C000047E257E30E940B2FAB01BC0187ED94E034
:102C1000B2DF42DA40E050E0BA0183E095E0ABDF9A
:102C20004091DC042091D604332727FD3095842F72
:102C300090E02817390714F44093D60421E63BE0CE
:102C400046E35BE3C701B6010E940B2FA501940187
:102C50000E940B2FAB01BC018BEF94E08EDF8091C3
:102C6000690490916A0420911B0520FD70C00091B9
:102C700055051091560520915705309158053B8315
:102C80002A832017310744F03A812B811B830A8362
:102C9000032F122F198202C031E039833A812B8130
:102CA0004A815B814817590714F4382F292F632F65
:102CB000722F061717070CF4B801882777FD809547
:102CC000982F0E94F22D2B013C01EA81FB81BF016C
:102CD000882777FD8095982F0E94F22D9B01AC01EB
:102CE000C301B2010E94892C2B013C01B8012A8149
:102CF0003B81621B730B882777FD8095982F0E947C
:102D0000F22D9B01AC01C301B2010E94572D20E0BE
:102D100030E048EC52E40E940B2F0E94BF2D653634
:102D200071052CF477FF05C060E070E002C064E636
:102D300070E03981332331F084E690E0AC01461B2A
:102D4000570BBA01709368046093670404C09093B2
:102D500068048093670480911105811104C08091FB
:102D6000190480FD05C080911504882309F466C00C
:102D7000B10182EC94E081D980911C04882389F010
:102D80002091800430918104409182045091830409
:102D9000C501B4010E940B2FAB01BC018FEF94E081
:102DA000ECDE609195047091960480919704909167
:102DB00098040E94F22DAB01BC0186ED93E04EDD3C
:102DC0004091840450918504609186047091870439
:102DD00082ED93E043DD4091800450918104609145
:102DE0008204709183048EEC93E038DD40E050E083
:102DF000BA018AEC93E032DD40E050E0BA0186ECA3
:102E000093E02CDD4091D7045091D8046091D9040F
:102E10007091DA0486EB93E021DDB701A60182EC24
:102E200093E01CDD40E050E0BA018EEB93E016DD4C
:102E300040E050E0BA018AEB93E010DD2396E2E136
:102E40000C94AB30CF93DF93EC01CB01BA010E941D
:102E5000F22D25E93FEB46ED53E30E940B2F6883EB
:102E600079838A839B83DF91CF9108950E94F8250F
:102E7000609378047093790480937A0490937B0430
:102E800080917E0490917F0490937D0480937C04D4
:102E900081E080930E048093100408958AEA90E004
:102EA0000C944C2680910F04882321F090910D04FE
:102EB00081E0911180E008953091FE033323E1F029
:102EC000E0915205F0E0EE0FFF1FEC5DFE4F8081B8
:102ED0009181E091FC03F091FD032081232B20835D
:102EE0000E944C26E091FC03F091FD0390818091BB
:102EF000FE038095892380830895809188049091B2
:102F00008904880F991F8D966AE570E00E942F3022
:102F100077FF03C0685F7F4FFBCF683071051CF0FF
:102F200068507109FACFFB01E057FC4F8491089576
:102F300087FD03C0E2DF0E946507609188047091FD
:102F4000890488E692E00C94F7082F923F924F9202
:102F50005F927F928F929F92AF92BF92CF92DF92B9
:102F6000EF92FF920F931F93CF93DF93D82FC92F28
:102F700096FD0EC011E01D0F6C2F812F0E94A30D36
:102F800006E00D0FE2E07E2E7C0EC4FFD6C019C015
:102F900015E082EB0E9465070DE0015019F00E94D8
:102FA0009408FBCF133011F485EC01C083EB0E9431
:102FB00065070E9492081150E9F2133051F786EC30
:102FC000E9CFA0909204B0909304809090049090E8
:102FD0009104C40197FE04C088279927881999098C
:102FE0006AEF70E00E942F30362F272FC501B7FE01
:102FF00004C0882799278A199B096AEF70E00E940C
:103000002F30CB01632F722F681779070CF4BC01A6
:103010006F5F7F4F70936D0360936C03882777FD1C
:103020008095982F0E94F22D6B017C01B4018827B6
:1030300077FD8095982F0E94F22D1B012C0124EE24
:1030400038E34EE552E4C701B6010E940B2F9B0105
:10305000AC01C201B1010E94572D0E94BF2D562E16
:10306000B501882777FD8095982F0E94F22D4B019E
:103070005C012DE63BED4EE052E4C701B6010E9433
:103080000B2F9B01AC01C501B4010E94572D20E01C
:1030900030E040E05FE30E948A2C0E94BF2DB62EF4
:1030A000D6FD09C02ADF672D6519482F802F8B0DAB
:1030B0000E94730742C090916D04961304C08091E2
:1030C0006E048515E1F02091710430917204309303
:1030D00074042093730420916F0430917004309332
:1030E00072042093710420916D0430916E0430932A
:1030F000700420936F04B0926D0450926E0464E7E4
:10310000C62E64E0D62E73E7E72E74E0F72EF601A4
:103110008081672D681BF701808144E2800F0E9447
:103120007307F2E0CF1AD10842E0E41AF1085DE635
:10313000E51654E0F50659F7B5CFD7FD0AC0672D5F
:10314000802F0E94420764EB71E082EB93E00E94C3
:10315000F028C5FF93C080911504882309F48EC020
:1031600080911105811183C060919504709196043E
:1031700080919704909198040E94F22D9B01AC01DC
:1031800060E070E0CB010E94FD2C21EE3EE245E6BE
:1031900052E40E940B2F0E94BF2D6A5071092DE24C
:1031A000269FC001279F900D11246AE070E00E94C5
:1031B0002F30CB01469669E070E00E942F306630D8
:1031C00078F400ED081BFC2EF60E402F6F2D8CE0DE
:1031D0008D0F0E947307402F6F2D812F0E94730760
:1031E0008091940490E02091090130910A01821BA2
:1031F000930B5FDA853B910534F028E631E0F90165
:10320000E81BF90BCF019C01245B310948E4429F84
:10321000C001439F900D11246AE070E00E942F309E
:10322000CB01849666E070E00E942F30962F64E018
:103230006C0F97FF06C04CE3812F0E9473074CE38D
:1032400013C09D304CF0D45F4EE38D2F0E94730766
:103250004EE36C2F8D2F10C0DFEBD80F190F4D2FC1
:10326000812F0E9473074D2F6C2F812F05C00E9464
:103270004C104BEC672D802F0E947307DF91CF918C
:103280001F910F91FF90EF90DF90CF90BF90AF9084
:103290009F908F907F905F904F903F902F900895D8
:1032A000ADE0B0E0E6E5F9E10C948F300E94B8069D
:1032B0000E94F8256B017C01809111051091150485
:1032C000811114C0112301F18091190480FF1CC0E9
:1032D00060918004709181048091820490918304B4
:1032E0000E94BF2D623071053CF40EC011110CC05C
:1032F00080911604882341F0C092E704D092E8043C
:10330000E092E904F092EA041093160480915405C7
:10331000853018F084E08093540588E794E0D5D98F
:10332000853C994080F110928004109281041092A3
:1033300082041092830463E085E00E94420760915A
:103340007E0470917F0480917C0490917D04681BC1
:10335000790B81EA91E00E94F7084091290450918D
:103360002A0460912B0470912C04411551056105CC
:10337000710531F02AE030E082EB93E00E941C28D6
:1033800083E095E42EC08091150481112CC08091BA
:10339000E7049091E804A091E904B091EA04892B34
:1033A0008A2B8B2B01F187EE94E08FD9883B9B40D1
:1033B000D0F46091FF047091000580910105909117
:1033C00002050E94BF2D663071056CF081E080938C
:1033D00023040E941E08809175048093EB0381E012
:1033E00091E062D8B1C2809123048823D9F1809101
:1033F000EB0390917504891721F080937504109266
:10340000230482E00E943308AA2797FDA095BA2FD3
:10341000B7FF07C0B095A095909581959F4FAF4F8E
:10342000BF4F8D329140A105B1050CF08AC283E0F7
:103430000E943308AA2797FDA095BA2FB7FF07C0AF
:10344000B095A095909581959F4FAF4FBF4F8D320E
:103450009140A105B1050CF074C280911504811151
:1034600070C2BDCF80915405882321F090917504DE
:10347000981718F488E993E061C2809115048111CE
:103480005BC21D821E821F821886E090E20385E0E7
:10349000E89E70011124F701E45BFB4F7F018591E9
:1034A00094919093E1038093E003F7013296249185
:1034B00029870E941E08C12CD12C812C712C212C13
:1034C000312C412C912C512C9985891609F4B9C0C5
:1034D00066246394680C0091E0031091E1030C0DE5
:1034E0001D1DF801A590B490662D81E00E94420751
:1034F000B50182EB93E00E94F028662D83E10E94E3
:10350000420780910501881206C08EE30E9465077C
:103510005090200302C00E949408F80132968491D2
:103520003196B490833609F43FC040F48A3509F4EB
:1035300039C0823671F1811168C07EC08836D9F0F9
:1035400088F4863609F061C0F8013496A591B491EB
:103550008D919D910D90BC91A02D8D839E83AF8305
:10356000B88753C0833709F446C08A3709F04DC085
:10357000F0E19F2E19C080911E03803419F46AE394
:1035800071E002C062E371E082EB93E00E94F028F8
:1035900053C0F8013496A591B4916C9170E080E02D
:1035A00090E010C0A0E29A2EF8013496A591B49153
:1035B0006C91772767FD709569197109882777FDE8
:1035C0008095982F0E94F22D6A877B878C879D8734
:1035D0006B2D70E080E090E00E94F02D9B01AC012B
:1035E0006A857B858C859D850E94572D6D837E83A2
:1035F0008F8398870AC0F80134966591749144E0EE
:1036000050E0CE0105960E94720880910501BD81AF
:10361000AE813F812885881204C07B2E2A2E332E4E
:10362000422E085F1F4FF801859194914B2F5A2F1E
:10363000632F722F0E944D098EE0C80ED11C862C7C
:1036400043CFE3E0EE0EF11CF701859194910097D2
:1036500011F0FC01099580911D04882309F474C1BF
:1036600010921D0411E010930E0481E00E943308B3
:103670008739910514F081E004C08A369F4F24F405
:103680008FEF0E94430860C183E00E9433088739AE
:1036900091055CF0109305018091E203823019F4EA
:1036A0001092E20351C18F5F0CC08A369F4F64F4C1
:1036B000109305018091E203811102C082E001C0F4
:1036C00081508093E20340C1609105016F5F852DB9
:1036D0000E94420780910501E090E003F090E10331
:1036E0009EE0899FE00CF11C112480E00E943308C9
:1036F0008C0197FF06C011950195110988248394C8
:1037000001C0812CF7013496C590D490F701329610
:10371000549031966490872D922DA32DB42D8D83D6
:103720009E83AF83B887E3E6E51538F0F2E65F16CF
:1037300070F42AE5521248C00AC083E7581671F1A6
:103740009AE7591621F0E6E65E123EC027C00D3218
:10375000F1E01F078CF0662D70E080E090E00E94A1
:10376000F02D9B01AC0160E070E080E291E40E94EA
:10377000572D21E029874AC0073911054CF1662DE4
:1037800070E080E090E00E94F02D9B01AC0160E0D1
:1037900070E080E89FE30E94572D1DC00139F1E0E1
:1037A0001F0774F50D3221E01207C4F4093C11051E
:1037B000E4F484E08987053611050CF463C06FE6F4
:1037C00072E183E89AE322C060E070E0CB0113C0AD
:1037D00060E070E0CB01E1E0E9870DC06DEC7CECCE
:1037E0008CEC9DE3F4E0F98706C06AE077ED83E2B4
:1037F0009CE324E02987053611050CF443C006C07C
:1038000060E070E080E89FE3F4E0F9878110905871
:10381000AB01BC01CE010596B0D9F7013A9665918E
:103820007491F7013C9605911491882777FD809556
:10383000982F0E94F22D4B015C019B01AC016D8120
:103840007E818F8198850E94502D87FF04C08D82D4
:103850009E82AF82B886B801882777FD8095982F21
:103860000E94F22D4B015C019B01AC016D817E81B8
:103870008F8198850E94002F181624F48D829E82D5
:10388000AF82B8868D809E80AF80B884272D322D80
:10389000432D542DC501B4010E94502D882309F4F5
:1038A00053C0662D70E080E090E00E94F22DA501EB
:1038B00094010E940B2F0E94BF2D93E65916D9F058
:1038C000951538F0EAE55E1699F0F2E65F1699F084
:1038D0001FC023E7521691F08AE7581659F096E672
:1038E000591216C0F60180829182A282B38210C062
:1038F000605E01C0605FF60160830AC089829A82BF
:10390000AB82BC8244E050E0B601CE01019607C014
:10391000F9854F2F50E0B6016D507340C6010E94EB
:10392000060A26E0E20EF11CF701859194910097BA
:1039300059F0FC01099508C084E494E00E94AC0AA7
:1039400003C0109223044BCD2D96E2E10C94AB30D2
:103950001F920F920FB60F9211242F933F934F9304
:103960005F936F937F938F939F93AF93BF93CF9307
:10397000EF93FF9310920D0480910C048F5F80935E
:103980000C040E94F8256093080470930904809346
:103990000A0490930B0480916603811119C0CFB77C
:1039A00080912D04882381F0809166038F5F80933E
:1039B000660378940E947A07F89410922D048091FF
:1039C0006603815080936603789480E075DACFBFF8
:1039D000FF91EF91CF91BF91AF919F918F917F9187
:1039E0006F915F914F913F912F910F900FBE0F906C
:1039F0001F901895CF92DF92EF92FF920E940426BB
:103A00006B017C0183E00E94D126813049F4C09291
:103A1000FF03D0920004E0920104F09202041FC060
:103A20008091FF0390910004A0910104B0910204E1
:103A30000097A105B10599F0C81AD90AEA0AFB0A4C
:103A4000D0920404C09203041092FF031092000469
:103A5000109201041092020481E080930504FF900B
:103A6000EF90DF90CF90089566E970E080E090E0FD
:103A70000C9427261F920F920FB60F9211242F93AA
:103A80003F934F935F936F937F938F939F93AF93E6
:103A9000BF93EF93FF93AEDFFF91EF91BF91AF9193
:103AA0009F918F917F916F915F914F913F912F9156
:103AB0000F900FBE0F901F90189565E085E00E9453
:103AC000420760E773E083E191E00E94F7080E94FB
:103AD000F8254AE050E082EB93E00E94292880918B
:103AE00027058F3421F4809128058A3159F061E04F
:103AF00081E00E9442076091270570E086EF90E028
:103B00000E94F708B1DF0C947A07CF9388E10FB6D3
:103B1000F89480936000109260000FBE60E071EE38
:103B200080E090E00E945E284CE450E060E072E0AB
:103B30008DE095E00E94720880910D0581FF03C021
:103B40008AE298E002C08DE398E09093E4048093C9
:103B5000E30484B58C7F84BD83E00E9444270E94E7
:103B60009A0F809169008C7F826080936900E89A47
:103B700080911205813059F462E083E00E947A2638
:103B800080916900837F846080936900E99A5E9ADE
:103B90000E947A07789480912905883341F48091B6
:103BA0002A05883321F480912B05803381F088E346
:103BB0008093290580932A0580E380932B0543E0B9
:103BC00050E06CE172E089E295E00E94060A809183
:103BD0005205882341F1E0915305EE2321F1F0E0F5
:103BE000EF50FF4FC49161E08C2F0E947A2660E075
:103BF0008C2F0E94B3268C2F90E0FC01E858F74FE1
:103C00002491FC01EC59F74F84918093FE03E22F3D
:103C1000F0E0EE0FFF1FEA56F74F859194919093D5
:103C2000FD038093FC030E94290747DF0E94811354
:103C3000CF910895E0910301EF5FE0930301E770F6
:103C4000F0E0EE0FFF1FEE5AFC4F9183808328E0D7
:103C500060E070E02150E22FF0E0EE0FFF1FEE5A1F
:103C6000FC4F80819181680F791F2111F3CF80E093
:103C700090E00E94F02D20E030E040E05EE30C9404
:103C80000B2F97FD05C08F3F910509F01CF4089597
:103C900080E008958FEF0895CF92DF92EF92FF9228
:103CA000CF93DF9380910D0584FD05C08091F003D3
:103CB000882309F4A0C0C0910201CF5FC093020124
:103CC00080E10E944727C770EC2FF0E0EE0FFF1F46
:103CD000EE5BFC4F9183808328E0C0E0D0E0215070
:103CE000E22FF0E0EE0FFF1FEE5BFC4F8081918131
:103CF000C80FD91F2111F3CF2091F4033091F503A0
:103D000047E0429FC001439F900D11248C0F9D1FDF
:103D1000A3E096958795AA95E1F79093F503809394
:103D2000F40380910D0584FF66C029E53EEE49E06D
:103D300050E460912F05709130058091310590918C
:103D400032050E940B2F6B017C01BE0180E090E0E8
:103D50000E94F02D9B01AC01C701B6010E940B2F00
:103D60000E94C42D4091E1045091E2044115510597
:103D700029F47093E2046093E10411C09A01220FC8
:103D8000331F240F351F2E5F3F4F260F371F3695E9
:103D90002795369527953093E2042093E10481E03E
:103DA00080930E0430911605832F61E20E940F303C
:103DB000E82F8091E1049091E204C29664E670E0FD
:103DC0000E941B30432F50E0641B750B9B01AFEF2B
:103DD000B0E00E948030FAE2EF9F90011124241B92
:103DE000350B442737FD4095542F0E946430C9019C
:103DF00048DF8093DC0480910D0585FD05C080912E
:103E0000F103882309F49DC0C0910101CF5FC093E5
:103E100001018EE00E944727C770EC2FF0E0EE0F03
:103E2000FF1FEE5CFC4F9183808328E0C0E0D0E070
:103E30002150E22FF0E0EE0FFF1FEE5CFC4F80817F
:103E40009181C80FD91F2111F3CF2091F603309132
:103E5000F70347E0429FC001439F900D11248C0F50
:103E60009D1F23E0969587952A95E1F79093F70398
:103E70008093F60380910D0585FF63C029EA3CEC31
:103E800048E050E460913305709134058091350528
:103E9000909136050E940B2F6B017C01BE0180E0E2
:103EA00090E00E94F02D9B01AC01C701B6010E9479
:103EB0000B2F0E94C42D4091DF045091E004411566
:103EC000510529F47093E0046093DF0411C09A0156
:103ED000220F331F240F351F2E5F3F4F260F371F32
:103EE00036952795369527953093E0042093DF0487
:103EF00030914F05832F61E20E940F30E82F8091AF
:103F0000DF049091E004C29664E670E00E941B30EA
:103F1000432F50E0641B750B9B01AFEFB0E00E9494
:103F20008030FAE2EF9F90011124241B350B4427C7
:103F300037FD4095542F0E946430C901A2DE809362
:103F4000DB0480910D0586FD05C08091F203882376
:103F500009F47FC08091EE03882349F020E137E225
:103F600040E050E061E08FE063D7CB0102C08FE01A
:103F70008ED7E0910001EF5FE0930001E770F0E081
:103F8000EE0FFF1FEE5DFC4F9183808328E0C0E0C1
:103F9000D0E02150E22FF0E0EE0FFF1FEE5DFC4F6E
:103FA00080819181C80FD91F2111F3CF2091F8038F
:103FB0003091F90347E0429FC001439F900D1124C7
:103FC0008C0F9D1FA3E096958795AA95E1F7909396
:103FD000F9038093F80380910D0586FF3AC02DE028
:103FE00032E348EC5CE360913705709138058091CD
:103FF000390590913A050E940B2F6B017C01BE019F
:1040000080E090E00E94F02D9B01AC01C701B60159
:104010000E940B2F0E94C42D4091DD045091DE04BC
:104020004115510529F47093DE046093DD0411C03D
:104030009A01220F331F240F351F2E5F3F4F260F8B
:10404000371F36952795369527953093DE042093B4
:10405000DD0480911B058695813041F038F1823076
:1040600041F0833039F580916B0422C081E10FD794
:1040700008C020E23EE440E050E061E081E1D8D6B3
:10408000CB01D8DD20913B0530913C0540913D05A9
:1040900050913E050E940B2F0E94C42D70936A041C
:1040A0006093690481E080930E0435C080916C04B4
:1040B00090E002C080E090E0BDDD0E94C42D7093CE
:1040C0006A04609369048091F303882321F180914D
:1040D000EF03882341F020E137E240E050E061E067
:1040E00081E1A6D603C081E1D2D6BC018091FA035A
:1040F0009091FB0347E0489F9001499F300D1124A8
:10410000260F371F43E0369527954A95E1F7309300
:10411000FB032093FA03DF91CF91FF90EF90DF90A4
:10412000CF90089582EB93E00E9483068EEA93E09D
:10413000BDC71F93CF93DF931AE08EEA93E00E94EE
:10414000AB28882309F421C1C0918103D091820357
:104150008EEA93E00E94C62860917C03462F50E0CF
:104160002091800330E02450310990917E03C130CA
:10417000D105A1F01CF4209751F006C0C230D10542
:10418000B9F0C330D10581F190937E03D6CF9093DF
:104190007E03843291F6C1E0D0E0CFCF843519F0B0
:1041A000C0E0D0E0E4CF90937E03C2E0D0E0C5CF82
:1041B0008E3461F028F4813449F0873449F0F0CF2F
:1041C0008F3431F0833561F79BE003C09AE001C082
:1041D00092E19093800380937D0310927C03109270
:1041E0007E03C3E0D0E0A9CF98274217530709F018
:1041F000C2C09111D5CF10927E030E9436178091D4
:104200007D03873439F0833509F482C0813409F0A5
:10421000ACC047C040916E0350916F036091700332
:104220007091710389EA94E00E9422174091A603DD
:104230005091A7036091A8037091A9038DEA94E0BF
:104240000E9422178091EC039091ED03A091EE0360
:10425000B091EF038093B1049093B204A093B304A0
:10426000B093B4046091760384E6689FB001112492
:10427000882777FD8095982F0E94F22D6093800407
:1042800070938104809382049093830480917B03D4
:10429000982F969596959093A80483708093A70481
:1042A00064C02091700330917103129FC001139F6D
:1042B000900D112490938D0480938C0420916E03B3
:1042C00030916F03129FC001139F900D11249093A2
:1042D0008B0480938A0480917203909173038C54B1
:1042E0009F4F0E94591390938F0480938E044091A6
:1042F000A9045091AA046091AB047091AC04452BC1
:10430000462B472B91F590938904809388042DC008
:1043100080910D0584FD0CC080916E0390916F0318
:104320009093E2048093E104809170038093DC0415
:104330008091720380936C046091730370E080E05D
:1043400090E00E94F02D6093840470938504809324
:1043500086049093870480917403982F91709093B2
:104360001504869586958093D2040E94521788235F
:1043700009F4E3CE0EC090937E036F5F60937C03DD
:10438000FA01E259FC4F8083D8CED0938203C093C8
:104390008103DF91CF911F910895A4E0B0E0E3ED98
:1043A000F1E20C949130A89523D46B017C0128EEA6
:1043B00033E040E050E00E94423030937F0420938D
:1043C0007E0424E1C21625E0D206E104F10408F0DF
:1043D0007FC0B4D6882309F479C0BFD68A3031F4BF
:1043E000809166048F5F8093660402C01092660419
:1043F00080916604843068F38CB583608CBD6DEE6B
:1044000070E08EEA93E0ECD6B12C812C912CC12C7B
:10441000D12C07EE10E0AEEAEA2EA3E0FA2EEFEF81
:104420008E16910411F00CF04BC088D68823E9F366
:1044300094D6823338F48033D8F48A30B1F38D3097
:1044400039F023C0823709F561E0861A91081DC052
:1044500058E0C51219C0ED2DF0E0E259FC4F808103
:10446000B826D394ED2DF0E0E259FC4F10820CC039
:10447000ED2DF0E0E259FC4F9081990F813309F462
:104480009F5F9083C39401C0C12C70E4D712C7CF43
:104490006EE673E0C4010E949E078FEF881A980AA7
:1044A0001F92BF921F930F93FF92EF92BDD60F9072
:1044B0000F900F900F900F900F90B12CD12CAFCF89
:1044C00063EE70E08EEA93E08BD644C3F6DA42C323
:1044D0007894FEE64F2EF3E05F2E10E480911004F6
:1044E000811108C080911104811104C080911A04C7
:1044F000882359F01EDE809110048093110480916E
:104500000E04882309F4C4C186C0F201212F119240
:104510002A95E9F710D66CD34B015C0154E6850E61
:10452000911CA11CB11CEAEF7E2E0FEF61D3861601
:104530009706A806B906A0F024EC39E040E050E068
:1045400060E080E075D46F3F71058105910509F049
:104550002CF4662319F0601708F4062F7A9431F7CB
:104560000F3F19F40091040102C0009304010B30C5
:1045700090F00331C0F00D31E8F0083210F10C3347
:1045800040F1063968F580E270E8872E75E2972ED3
:10459000A12CB12C2CC082E0812C62EC962EAA2496
:1045A000A394B12C24C084E0812C51EE952EA12C33
:1045B000B12C1DC086E0812C46E9942EA12CB12C93
:1045C00016C088E030E8832E30E7932EA12CB12C62
:1045D0000EC080E1812C2BE4922EA12CB12C07C0BF
:1045E00080E490EC892E92E1992EA12CB12C80933D
:1045F0000B058092290490922A04A0922B04B09279
:104600002C048EEA93E049D5C501B40157D581E069
:104610008093110463CF00917504409112054330DB
:1046200008F42BC1433029F48091030490910404D1
:104630000FC08BEF840F843048F4E42FF0E0EE0FCE
:10464000FF1FE65EFE4F8081918102C080E090E016
:104650009C01285E3340213D374008F00EC14430B4
:1046600049F58091D2049AEF980F923008F487C0F0
:104670009091BD04981789F08093BD0460E070E0CC
:1046800089EB94E00E9428109091BD04809106016E
:10469000981303C081E08093120489EB94E00E9498
:1046A0006513813D974008F46AC08091D2048093DD
:1046B000060165C020911705211119C060915405AC
:1046C0008D34E4E09E0760F09C012C54344070E08F
:1046D00080E293E00E942F30C9010E941B3001C08C
:1046E00060E0061709F44BC06093750448C0509110
:1046F0000D0552FF14C02091DA033091DB03211520
:10470000310539F0BC01621B730B41E0693C710556
:1047100008F440E09093DB038093DA0305C041E0A6
:104720008D3D954008F440E050FF10C0442321F037
:1047300081E08093130423C080911304882319F02F
:1047400081E0809312041092130419C04423B9F03D
:104750008090B9049090BA04A090BB04B090BC04BF
:1047600047D286169706A806B90648F481E08093DA
:10477000120464EF71E089EB94E00E9428108091AC
:104780001204882371F010921204809175048F5FD7
:104790008093750490915405981718F5109275043C
:1047A00020C080910D0587FF1CC08091DC03909193
:1047B000DD03A091DE03B091DF030097A105B105F1
:1047C00081F040917E0450917F0460E070E0841796
:1047D0009507A607B70728F481E080932404809307
:1047E0001204B09075040B1509F447C00E948113A0
:1047F00080910D051091240487FF09C0112339F021
:1048000080915405882319F0B81609F4BCCF8B2D7C
:104810000E947213882399F040917E0450917F0486
:10482000480F511D60E070E04093DC035093DD03BE
:104830006093DE037093DF0311111DC00AC01111D4
:10484000A2CF1092DC031092DD031092DE031092CF
:10485000DF03A2E3B4E0EAEDF0E084918D933196BA
:104860008111FBCF809139048B0D8093390463E073
:1048700088E00E9448131092240480910F04811153
:1048800005C081E080930F0480930D0410920E0404
:1048900080910F04882351F180910D04811126C06D
:1048A00010920F048091A704882319F091E090934F
:1048B0002004909115049111A8C090911C049111AD
:1048C000B6C0833060F08CE0E9EAF4E0A9E9B4E036
:1048D00001900D928A95E1F781E080931C040E947B
:1048E000CF150E94501981E080932D048091CE0451
:1048F0009091CF04A091D004B091D1048C159D0566
:10490000AE05BF05A8F464E170E08EEC94E00E946F
:104910003D1080912D04882359F080910D04882347
:1049200039F088E094E00E946513C39708F00BC14A
:104930008091CA049091CB04A091CC04B091CD0495
:104940008C159D05AE05BF0528F564E670E08AEC80
:1049500094E00E943D10A0D980911E0491E0892727
:1049600080931E048823B1F080912804882369F085
:104970008F5F80932804833068F0809176048F5F86
:10498000809376041092280405C0809176048F5F8E
:10499000809376048091C6049091C704A091C804C6
:1049A000B091C9048C159D05AE05BF0508F0D2C0B5
:1049B00064EF71E086EC94E00E943D1081E080930A
:1049C0000E0480931D04909177049F5F9093770469
:1049D00090911A04982790931A04992309F4BAC065
:1049E0008093140480910C04853050F480910C0560
:1049F0008F5F80930C05843028F00E94230702C04B
:104A000010920C0510920C04A5C09091170490FD13
:104A100054CF10921C049160909317041092C2041A
:104A20001092C3041092C4041092C50446CF809023
:104A3000990490909A04A0909B04B0909C04C501A6
:104A4000B4019F7725E33AEF4EE85CE30E940B2F19
:104A50000E94542D2B013C012091A9043091AA04FD
:104A60004091AB045091AC04C501B4010E94210AED
:104A70004B015C012091AD043091AE044091AF0434
:104A80005091B00460919D0470919E0480919F04A8
:104A90009091A0040E94210AA30192010E940B2F71
:104AA0002B013C019B01AC010E940B2F69837A838F
:104AB0008B839C83A5019401C501B4010E940B2F37
:104AC0009B01AC0169817A818B819C8123D70E94F3
:104AD000722F0E94BF2D609395047093960480936B
:104AE000970490939804C501B4019F770E94BF2D4D
:104AF0007093930460939204C301B2019F770E9464
:104B0000BF2D7093910460939004A30192015058BB
:104B1000C501B40172D720EE3EE245E652E40E94A0
:104B20000B2F0E94BF2DCB018A559109209188043B
:104B300030918904821B930B0E9459130E94A71382
:104B400080939404CCCE10920D040E947A071092A8
:104B50002D04EECE2496E0E10C94AD301F920F921E
:104B60000FB60F9211242F933F938F939F93AF9380
:104B7000BF9380915A0590915B05A0915C05B0911F
:104B80005D053091590523E0230F2D3720F4019660
:104B9000A11DB11D05C026E8230F0296A11DB11D60
:104BA0002093590580935A0590935B05A0935C056B
:104BB000B0935D0580915E0590915F05A0916005C1
:104BC000B09161050196A11DB11D80935E05909382
:104BD0005F05A0936005B0936105BF91AF919F9170
:104BE0008F913F912F910F900FBE0F901F901895AE
:104BF0002FB7F89460915A0570915B0580915C0520
:104C000090915D052FBF08953FB7F89480915E05A0
:104C100090915F05A0916005B091610526B5A89BB4
:104C200005C02F3F19F00196A11DB11D3FBF66279A
:104C3000782F892F9A2F620F711D811D911D42E0DF
:104C4000660F771F881F991F4A95D1F70895CF9255
:104C5000DF92EF92FF92CF93DF936B017C01D4DF61
:104C6000EB01C114D104E104F10479F0E0D0CCDF10
:104C70006C1B7D0B683E7340A0F381E0C81AD1081D
:104C8000E108F108C851DC4FECCFDF91CF91FF90E4
:104C9000EF90DF90CF9008958230910538F0880F23
:104CA000991F880F991F05970197F1F70895789438
:104CB00084B5826084BD84B5816084BD85B5826021
:104CC00085BD85B5816085BDEEE6F0E080818160BF
:104CD0008083EAE7F0E08081846080838081826065
:104CE000808380818160808380818068808310924E
:104CF000C1000895CF93DF9390E0FC01EC59F74F8A
:104D00002491FC01E858F74F8491882349F190E001
:104D1000880F991FFC01E056F74FA591B4918A5670
:104D2000974FFC01C591D4919FB7611108C0F894C9
:104D30008C91209582238C93888182230AC06230D3
:104D400051F4F8948C91322F309583238C93888181
:104D5000822B888304C0F8948C91822B8C939FBF04
:104D6000DF91CF91089590E0FC01EC59F74F249129
:104D7000FC01E858F74FE491EE2391F0F0E0EE0FDC
:104D8000FF1FEA56F74FA591B4919FB7F8948C9105
:104D9000611103C02095822301C0822B8C939FBF99
:104DA000089590E0FC01E05BF74F2491FC01EC5981
:104DB000F74F3491FC01E858F74F84918823A9F10B
:104DC000222339F1233091F038F42130A9F0223038
:104DD00001F594B59F7D12C0273091F02830A1F0E5
:104DE0002430B9F4909180009F7D03C090918000A1
:104DF0009F77909380000DC094B59F7794BD09C0B4
:104E00009091B0009F7703C09091B0009F7D9093E8
:104E1000B000E82FF0E0EE0FFF1FE457F74FA59129
:104E2000B4919C91932381E009F480E00895089562
:104E30000F931F93762F90E0FC01EC59F74F64918C
:104E4000FC01E858F74FE4917111762FF0E0EE0F76
:104E5000FF1FE457F74F8591949189019A013F70A4
:104E6000472F0E940105611571058105910531F0FB
:104E70006F5F7F4F8F4F9F4F9F7003C060E070E068
:104E8000CB011F910F91089580930B0108958E30EF
:104E900008F08E50877020910B0190E4299F9001BB
:104EA0001124822B80937C0080917A00806480930F
:104EB0007A0080917A0086FDFCCF80917800209165
:104EC000790090E0922B0895A0E0B0E0EAE6F7E2E6
:104ED0000C9499307C016A01EB0100E010E00C15A4
:104EE0001D0571F06991D701ED91FC910190F08160
:104EF000E02DC7010995892B19F00F5F1F4FEFCFE8
:104F0000C801CDB7DEB7E8E00C94B5306115710586
:104F100089F0DB010D900020E9F7AD014150510906
:104F2000461B570BDC01ED91FC910280F381E02DD3
:104F30000995089580E090E00895E8CF0895DC0198
:104F4000ED91FC910190F081E02D09950895A1E289
:104F5000B0E0EDEAF7E20C9495307C01C42EE52F29
:104F6000CB01D22E19A221E02D1510F02AE0D22E6D
:104F70008E010F5D1F4F8D2C912CA12CB12C6C2D0F
:104F80007E2FA50194010E9442308C2DD29E801963
:104F90001124015011098A3014F4805D01C0895C2C
:104FA000F8018083211531054105510521F0C22EFC
:104FB000E32FCA01E4CFB801C701A8DFA196ECE056
:104FC0000C94B130A0E0B0E0E8EEF7E20C94993038
:104FD000EC016A017B012115310541F4E881F98179
:104FE0000190F081E02D642F09951AC02A30310517
:104FF00099F477FF10C06DE2A2DF8C01442755279A
:10500000BA014C195D096E097F092AE0CE019FDFC4
:10501000800F911F05C02AE0B701A601CE0197DFDE
:10502000CDB7DEB7E8E00C94B5309A01AB01662746
:1050300057FD6095762FC6CF2115310549F4DC0167
:10504000ED91FC910190F081E02D642F0995089578
:105050007ECF9A01AB0160E070E0EECF089527DECD
:10506000FDDF0E94851DC7EED8E297D92097E9F3AE
:10507000AED0FBCF8091C10084FF06C09091E805BF
:105080008091E905981302C080E00895E091E90558
:10509000F0E0EA59FA4F808108958091E905809304
:1050A000E8058091E6058093E7050895FC011382E9
:1050B000128220E331E03183208308959B01AC010B
:1050C0008091C10084FD1092C1001092E7051092FA
:1050D000E6051092E9051092E8051216130614066B
:1050E0001506ECF4211581EE380741055105F1F064
:1050F00082E08093C00060E079E08DE390E0E4D747
:105100002150310941095109CA01B90122E030E0B9
:1051100040E050E0D9D73093C5002093C40088E91F
:105120008093C10086E08093C20008951092C00071
:1051300020E130E0F0CF1092C10008958091C100CD
:1051400084FF07C08091E8059091E905891B8F775E
:10515000089580E00895F2CF08958091C10084FF02
:1051600006C09091E8058091E905981302C080E09F
:105170000895E091E905F0E0EA59FA4F80819091B5
:10518000E9059F5F9F779093E9050895E6CF08951D
:105190009091C10094FF15C09091E6059F5F9370B8
:1051A0002091E7059217E1F3E091E605F0E0EE5972
:1051B000FA4F80839093E6058091C10080628093CE
:1051C000C1000895862FE4DF81E090E008950895FE
:1051D000DC01ED91FC910190F081E02D099508959D
:1051E0000F931F93CF93DF938C01FB016491EF0129
:1051F0002196662321F0C801EBDFFE01F7CFDF9196
:10520000CF911F910F910895A0E0B0E0E9E0F9E29D
:1052100096C79E01275F3F4F4F81588560E08D8183
:105220009E8112D0E2E0A7C7A0E0B0E0E9E1F9E298
:1052300086C79E01275F3F4F4F81588561E08D8172
:105240009E8102D0E2E097C7A4E1B0E0E9E2F9E292
:1052500066C77C016C871A0169019E012F5F3F4F71
:105260004901F1012C8520FD059120FF01911F01CD
:10527000002309F433C3053241F420FD059120FFDA
:1052800001911F01053261F405C00A3019F46DE087
:10529000C7019EDF602FC7019BDF56016501E1CF8B
:1052A00010E0512C712CFFE1F715E0F00B3289F082
:1052B00040F4003289F00332A9F4E72DE0617E2E3C
:1052C00038C00D3261F0003369F4272D2160722E51
:1052D00030C0372D3260732E872D846020C0972D0B
:1052E000986023C077FC2EC080ED800F8A3088F450
:1052F00076FE06C0FAE01F9F800D1124182F19C0FA
:105300002AE0529E800D1124582E372D3062732EC4
:1053100010C00E3231F476FCE1C2872D8064782E05
:1053200008C00C3621F4972D9068792E02C00836FB
:1053300049F4F1012C8520FD059120FF01911F0109
:105340000111B1CF8BEB800F833020F4872D80616A
:10535000005E07C08BE9800F833008F082C1872D83
:105360008F7E86FF16E08F73782E053619F48064E1
:10537000782E08C0063621F4382F3068732E02C00C
:105380001111115077FE06C01C3348F44424439495
:10539000410E07C0183038F4212F412C07C04CE3D0
:1053A000442E27E003C0412C27E017E0560184E09B
:1053B000A80EB11CF6016081718182819381042D58
:1053C000A4010E94A4056C01098100FF02C003FF33
:1053D00006C071FC07C072FC08C0612C08C03DE229
:1053E000632E05C02BE2622E02C090E2692E802F50
:1053F0008C7069F1662011F084E001C083E08515AE
:1054000010F0512C09C0581A73FC06C060E2C701A5
:10541000DFDE5A94D9F7F5CF662019F0662DC70163
:10542000D7DE03FD03C00EEA18E002C00AEA18E066
:10543000F72DF0717F2EF8016491662309F446C2BE
:1054400071106052C701C4DE0F5F1F4FF4CF77FEAB
:105450000FC04C0C04FF04C08A81813309F44A94C4
:10546000141474F5F8E0F41578F588E0482E2CC093
:1054700076FC2AC0812F90E08C159D059CF02CEFC6
:10548000C2162FEFD20674F0372D3068732E0AC083
:10549000E2E0F0E0EC0FFD1FE10FF11D80818033B1
:1054A00019F411501111F4CF77FE0EC04424439427
:1054B000410E812F90E0C816D9062CF41C1904C0A7
:1054C0004424439401C010E077FE06C01C141D0460
:1054D00034F4C601019605C085E090E002C081E089
:1054E00090E061100196112331F0212F30E02F5F01
:1054F0003F4F820F931F252D30E08217930714F43E
:10550000581A01C0512C872D897039F4552029F083
:1055100060E2C7015DDE5A94F9CF662019F0662D6E
:10552000C70156DE73FC07C0552029F060E3C701B0
:105530004FDE5A94F9CF77FE54C09C2D8D2DD7FEA7
:1055400002C090E080E0692E782E1E861D86C6017E
:10555000841991099A8B898BF601E619F709E80DF0
:10556000F91DF88BEF87812F90E022273327281B26
:10557000390B3C8B2B8B3FEF6316730619F46EE2ED
:10558000C70126DEC614D7046CF089899A8986156E
:10559000970544F4EF85F8892D853E85E20FF31FCA
:1055A000618101C060E331E0631A71088D859E85D9
:1055B00001969E878D87EB89FC896E167F061CF00D
:1055C000C70106DED8CF6C147D0409F047C08A817C
:1055D000863328F4853309F041C004FD3FC061E300
:1055E0003DC06A81613309F00F7EC701F1DD111101
:1055F00004C074FE13C065E412C06EE2C701E8DDAA
:1056000082E066246394680EF401E80FF11D608166
:10561000C701DEDD115069F3862DF3CF65E6C701C2
:10562000D7DDD7FC05C0C114D10439F404FF05C08F
:10563000D194C194D1086DE201C06BE2C701C8DD0D
:1056400060E32AE0C216D1042CF06F5FFAE0CF1AB3
:10565000D108F7CFC701BCDD60E36C0DC701B8DD31
:1056600035C1033631F0033779F0033509F050C006
:105670001FC0560132E0A30EB11CF6018081898360
:1056800001E010E0640111C05601F2E0AF0EB11C60
:10569000F601C080D18076FE03C0612F70E002C0A9
:1056A0006FEF7FEFC6012AD18C01F72DFF7713C072
:1056B000560122E0A20EB11CF601C080D18076FE18
:1056C00003C0612F70E002C06FEF7FEFC6010BD106
:1056D0008C01F72DF0687F2EF3FD16C0852D90E02C
:1056E0000817190788F460E2C70172DD5A94F6CFF3
:1056F000F60177FC659177FE61916F01C70168DD66
:1057000051105A94015011090115110589F7DEC095
:10571000043611F0093651F5560177FE09C0F4E060
:10572000AF0EB11CF60160817181828193810AC044
:10573000F2E0AF0EB11CF60160817181882777FD20
:105740008095982F072D0F7697FF08C0909580952C
:10575000709561957F4F8F4F9F4F00682AE030E032
:10576000A4010E944605D82ED81848C0053731F448
:10577000F72DFF7E6F2E2AE030E025C0272D297FF0
:10578000622E0F36C1F018F4083579F0A7C0003743
:1057900019F0083721F0A2C0322F3061632E64FE69
:1057A0000DC0862D8460682E09C074FE0AC0922F39
:1057B0009660692E06C028E030E005C020E130E0A8
:1057C00002C020E132E0560167FE09C0E4E0AE0EFF
:1057D000B11CF601608171818281938108C0F2E081
:1057E000AF0EB11CF6016081718180E090E0A401F0
:1057F0000E944605D82ED818062D0F7706FF0CC03C
:10580000F02FFE7F7F2ED11650F404FF0AC002FD58
:1058100008C00E7E702E05C0CD2C702E03C0CD2C7E
:1058200001C0C12E74FE0FC0FE01ED0DF11D80817F
:10583000803321F4272D297E722E09C072FE06C006
:10584000C394C39404C0872D867809F0C39473FC75
:105850000FC070FE06C01D2DC51418F4150D1C19BF
:10586000C52CC51448F460E2C701B2DCC394F9CF7B
:10587000C51410F45C1801C0512C74FE0BC060E319
:10588000C701A6DC72FE12C071FE02C068E50CC042
:1058900068E70AC0872D867849F071FC02C060E293
:1058A00001C06BE277FC6DE2C70192DCD11628F4EF
:1058B00060E3C7018DDC1150F9CFDA94F401ED0DEE
:1058C000F11D6081C70184DCD110F7CF552009F4A8
:1058D000E5CC60E2C7017CDC5A94F8CF6496E2E143
:1058E0003AC4F89459C4FC0105906150704001100D
:1058F000D8F7809590958E0F9F1F0895FC016150F9
:10590000704001900110D8F7809590958E0F9F1FE1
:1059100008955058BB27AA270ED027C2F0D130F0E7
:10592000F5D120F031F49F3F11F41EF4C0C10EF404
:10593000E095E7FBB6C1E92F3AD280F3BA176207C8
:1059400073078407950718F071F49EF552C20EF4A0
:10595000E0950B2EBA2FA02D0B01B90190010C017F
:10596000CA01A0011124FF27591B99F0593F50F497
:10597000503E68F11A16F040A22F232F342F4427EF
:10598000585FF3CF469537952795A795F0405395E7
:10599000C9F77EF41F16BA0B620B730B840BBAF0B7
:1059A0009150A1F0FF0FBB1F661F771F881FC2F722
:1059B0000EC0BA0F621F731F841F48F48795779536
:1059C0006795B795F7959E3F08F0B3CF9395880FED
:1059D00008F09927EE0F97958795089590D158F084
:1059E00080E891E009F49EEF91D128F040E851E081
:1059F00059F45EEF09C05BC1FCC1E92FE078D7D153
:105A000068F3092E052AC1F32617370748075907F7
:105A100038F00E2E07F8E02569F0E025E0640AC0B2
:105A2000EF6307F8009407FADB01B9019D01DC017F
:105A3000CA01AD01EF934AD098D10AD05F915523A6
:105A400031F02BED3FE049E450FD49EC63CF089580
:105A5000DF93DD27B92FBF7740E85FE316161706FF
:105A600048075B0710F4D92FCFD19F938F937F9373
:105A70006F9376D2E8E6F0E01DD177D12F913F9178
:105A80004F915F91D4D1DD2349F09058A2EA2AEDDD
:105A90003FE049EC5FE3D0785D274DDFDF9165C1E2
:105AA000DCD008F481E0089539D1E3956FC10CD0C2
:105AB0005CC12CD140F023D130F021F45F3F19F0CC
:105AC000F0C0511197C1F3C072D198F39923C9F373
:105AD0005523B1F3951B550BBB27AA2762177307F4
