:100000001CC500000C94811B0C942A1C3EC50000EA
:100010003CC500003AC5000038C5000036C50000E8
:1000200034C5000032C5000030C500002EC50000F8
:100030002CC500002AC5000028C5000026C5000008
:100040000C940B2422C500000C94380F0C945E0F06
:100050001CC500001AC5000018C5000016C5000028
:1000600014C5000012C50000084AD73B3BCE016E04
:1000700084BCBFFDC12F3D6C74319ABD56833DDAFF
:100080003D00C77F11BED9E4BB4C3E916BAAAABE0E
:10009000000000803F05A84CCDB2D44EB93836A937
:1000A000020C50B9918688083CA6AAAA2ABE000074
:1000B00000803F0664EC1B3C04BC163E3BE5B93CAB
:1000C000C93C37C29E5A3D660498083EEA69AAAA0E
:1000D0003E000000803F0302010053637265656EBD
:1000E00020300046440A00434425640A0052464634
:1000F0000A004D697373696E672F4F6C6420436FFC
:100100006E6669673A202564206D79203739004D85
:10011000696E696D4F53442D457874726120322E9B
:10012000347C756E69207225642044567C00100E64
:100130000F1120284E5453432900202850414C29A8
:100140000025372E32660025362E31660091253780
:100150002E326600A125372E32660041010B68DD84
:10016000040047018F68B5040047011473D50400EB
:1001700047011D73CD040047011268D104004D01F1
:100180009076C504005401A076C104004701BD610A
:10019000C90400000000000000004E6F20696E706E
:1001A000757420646174612120257500B8B900253B
:1001B000346905070025346905060025352E3266A9
:1001C0000D00253269006F7665726C6F61640053B3
:1001D000747265616D0066726F7A656E0025342EEB
:1001E0003066010025322E30662525002563256303
:1001F0008E25342E30660100256325638E25322E30
:10020000306625250025346905007C20CECECECE73
:1002100060CECECECE200040CB242020207C007C9F
:1002200020202024CB008280818081808480818076
:10023000818083808180818085808180818020C8C9
:10024000C8C8C87EC8C8C8C8207C0020202024CBCD
:10025000B8B9CB242020207C002533690500205824
:100260006525342E30660025342E3066002532692F
:10027000200025352E30660025332E3069252500D7
:1002800025352E32660E0025332E30660025322E9F
:100290003066002520352E316618002520352E3297
:1002A0006618005225332E306605005025332E3057
:1002B0006605004825332E306605004225352E316F
:1002C0006605004525352E3166004525342E3066FD
:1002D0006D00734525352E316600A3026E69AF04AB
:1002E00000AB026E69AD0400B3026E69AB0400BBE3
:1002F000025469A90400C3024168A50400CA025857
:10030000699B0400D2024173A104000000000000B8
:1003100000002533690025303269002020909100CB
:1003200025352E3166004325642535697C0025344A
:100330002E31660025342E326600432569200025C3
:10034000690025346400B0B1B4B5B6B77B7D15C67D
:100350001600011E0B0002170B0003DC13BC84C542
:10036000132605120D0007390D00184D0E0006DC8E
:10037000140008D10D0009B91600254B12000B9E80
:10038000100B0A280C0019DD0E000D6E145C119D77
:10039000131116C610121292121417A01213131270
:1003A0000B0214EF0A7F0F400BBD1B19141D1CE933
:1003B0000E151D4812000EE80A091EF312002174E2
:1003C0000B0020630C002295108F24B4121F2B3ACF
:1003D0000B1F2CE60F002DC00F002FA30F00A74A04
:1003E0000E00A8470E00A9440E00AA410E001F30BF
:1003F0000C0026B50C009AD3100000000000D604B3
:100400000C00009004052C0A120409900A00000058
:100410000000C30500000000000000000000000014
:10042000BA057301800200008A05C0E0401FB105D3
:100430007301840200008A059CFF6400A805730113
:10044000000000008A05C0E0401FB10573010000F4
:1004500000008A059CFF64009A05730100000000FB
:100460008A05C0E0401FB1057301000000008A0545
:100470009CFF64008F057301000000008A05C0E046
:10048000401FB1057301000000008A059CFF640055
:100490000806680000000000000000000000EE05F3
:1004A0006601100500008A05FCFF0400FB056601DB
:1004B000140500008A05FCFF0400D205660118053A
:1004C00000008A05FCFF0400E00566011C05000031
:1004D0008A05FCFF0400BB060000000000000000CD
:1004E00000000000AB06620AE7040000830500007C
:1004F000FF009C06620A2005000083050000FF0043
:100500008E066201E60400007E050000FF007C0606
:100510006201E50400007E050000FF006B06620139
:10052000ED0400007E050000FF005E066201EE049F
:1005300000007E050000FF004E06000000000000E5
:1005400000000000000040066201250500007E0555
:100550000100040037066201E404AB087E050000D8
:10056000030027065A012205AB087E05E1FF1F00A4
:1005700019067A012105AB087E05F1FF0F00252E33
:1005800030660025332E31667600252E3366003422
:1005900020285253534929204B0033202843757299
:1005A00072656E7429204B00322028563229204B68
:1005B00000202020202020204100312028563129F1
:1005C000204B0020202050696E2053656E736F729F
:1005D0007300526F6C6C2020696E204E54534300A0
:1005E000506974636820696E204E54534300526F03
:1005F0006C6C2020696E2050414C00506974636817
:1006000020696E2050414C002020486F72697A6F3B
:100610006E20616E676C6573005665727469636104
:100620006C206F66667300486F72697A6F6E7461D2
:100630006C206F66667300436F6E74726173740032
:1006400053637265656E7320436F756E740020206E
:1006500053637265656E20706172616D73005253F1
:100660005349207761726E696E670042617474202D
:10067000636861726765207761726E004F7665729C
:100680007370656564207761726E696E670053747C
:10069000616C6C207761726E696E67004261747480
:1006A0002032207761726E696E67004261747465F2
:1006B0007279207761726E696E67002020204F5337
:1006C0004420736574757000696E6974001D077E3F
:1006D00007A00718079B0713070E070907040765FC
:1006E00007910783078707650765078C07C806FF1B
:1006F00006FA06F506716C6F690071686F76007115
:10070000737462006174756E006372757A0066625C
:10071000776200666277610074726169006D616E74
:100720007500A0079B07960791078C07870783072B
:100730007E07790774076F076A07650760075B071D
:10074000560751074D074807746872770062726B4D
:1007500000686F6C640074756E6500666C6970008B
:1007600073707274006D5F25640064726966006F57
:10077000666C6F006C616E6400706F736800636913
:1007800072630072746C006C6F69740067756964E1
:10079000006175746F00616C7468006163726F0052
:1007A0007374616200E207D507C407B5071C080F20
:1007B000080008F1070325392E356625630425391D
:1007C0002E356600032531302E366625630425312B
:1007D000302E36660025392E3566256325392E35AF
:1007E00066002531302E366625632531302E36667B
:1007F00000032530356C642563042530356C6400B6
:10080000032530366C642563042530366C6400257E
:1008100030356C6425632530356C64002530366CCA
:100820006425632530366C6400A7089D0891088410
:100830000878086B085F08540848083D0846656E4C
:10084000636520466172210046656E6365204869D4
:100850006768210046656E6365204C6F7721004212
:100860006174742042206C6F7721004869676820AA
:10087000565370656564210020204C6F77205273B9
:100880007369210042617474657279204C6F77211D
:1008900000204F766572537065656421002020202A
:1008A0005374616C6C2100204E6F204750532066BA
:1008B0006978210052B80E4085EB51401966BB00A3
:1008C00012800C1CA0141E666666400000803F105B
:1008D0000CBA000A00001BE8031A0000000800021E
:1008E00001000003040700000000000000000102F6
:1008F00004081020408001020408102001020408AE
:10090000102004040404040404040202020202028B
:100910000303030303030000000023002600290053
:1009200000000000250028002B000000000024002B
:1009300027002A006E616E00696E660000407A1022
:10094000F35A00A0724E18090010A5D4E80000E880
:100950007648170000E40B54020000CA9A3B0000DE
:1009600000E1F505000080969800000040420F006D
:100970000000A08601000000102700000000E8032E
:10098000000000006400000000000A0000000000F9
:100990000100000000002C76D888DC674F0823DFB8
:1009A000C1DFAE59E1B1B796E5E3E453C63AE6518B
:1009B000997696E8E6C28426EB898C9B62ED407CB2
:1009C0006FFCEFBC9C9F40F2BAA56FA5F490055A4E
:1009D0002AF75C936B6CF9676DC11BFCE0E40D4773
:1009E000FEF520E6B500D0ED902E03009435770596
:1009F0000080841E080000204E0A000000C80C334E
:100A00003333330F986E12831141EF8D2114893BDC
:100A1000E65516CFFEE6DB18D1844B381BF77C1D5C
:100A2000901DA4BBE424203284725E228100C9F1AF
:100A300024ECA1E53D272C08581F11241FBECFEF41
:100A4000D8E0DEBFCDBF11E0A0E0B1E0E2EDFDE512
:100A500002C005900D92AC33B107D9F725E0ACE3A5
:100A6000B1E001C01D92AD3BB207E1F715E0CDE169
:100A7000D5E004C02197FE010E94CB2ECB31D107D7
:100A8000C9F70E9454260C948C2ABACACF92DF92DE
:100A9000EF92FF920F931F93E82FF92F05C001509B
:100AA00011092109310961F1908196239417B9F355
:100AB00005C0015011092109310911F190819623D6
:100AC0009413F7CFC12CD12CE12CF12C0AC08FEF5D
:100AD000C81AD80AE80AF80A0C151D052E053F05A4
:100AE00079F080818623841791F36C2D7D2D8E2DD6
:100AF0009F2D1F910F91FF90EF90DF90CF90089561
:100B000060E070E080E090E01F910F91FF90EF9027
:100B1000DF90CF900895FA01AA27283051F12031B3
:100B200081F1E8946F936E7F6E5F7F4F8F4F9F4F81
:100B3000AF4FB1E03ED0B4E03CD0670F781F891FC3
:100B40009A1FA11D680F791F8A1F911DA11D6A0F91
:100B5000711D811D911DA11D20D009F468943F9144
:100B60002AE0269F11243019305D3193DEF6CF0143
:100B70000895462F4770405D4193B3E00FD0C9F709
:100B8000F6CF462F4F70405D4A3318F0495D31FD76
:100B90004052419302D0A9F7EACFB4E0A6959795C9
:100BA000879577956795BA95C9F70097610571059F
:100BB00008959B01AC010A2E0694579547953795E9
:100BC0002795BA95C9F7620F731F841F951FA01D43
:100BD0000895283008F027E03327DA01990F311DF6
:100BE00087FD916000966105710539F432602E5FD2
:100BF0003D9330E32A95E1F708959F3F30F0803828
:100C00007105610509F03C5F3C5F3D93913008F050
:100C10008068911DDF93CF931F930F93FF92EF9204
:100C2000192F987F9695E92F96959695E90FFF27AE
:100C3000EA56F64F99273327EE24FF24A701E70150
:100C400005900894079428F4360FE71EF81E491FF4
:100C5000511D660F771F881F991F0694A1F70590F5
:100C6000079428F4E70EF81E491F561FC11D770F81
:100C7000881F991F661F0694A1F70590079428F412
:100C8000F80E491F561FC71FD11D880F991F661FD9
:100C9000771F0694A1F70590079420F4490F561F7B
:100CA000C71FD81F990F661F771F881F0694A9F7C3
:100CB00084911095177041F0D695C7955795479533
:100CC000F794E7941A95C1F7ECE3F9E0689415906E
:100CD000159135916591959105907FE27395E11895
:100CE000F10A430B560BC90BD009C0F7E10CF11EFA
:100CF000431F561FC91FD01D7EF4703311F48A950F
:100D0000E6CFE894015030F0080F0AF400270217EC
:100D100008F4202F2395022F7A3328F079E37D936E
:100D20002A95E9F710C07D932A9589F60694979540
:100D30006795379517951794E118F10A430B560BF1
:100D4000C90BD00998F023957E9173957A3308F0FA
:100D500070E37C932013B8F77E9170617D9330F03F
:100D6000839571E37D9370E32A95E1F71124EF9069
:100D7000FF900F911F91CF91DF91992787FD90955B
:100D8000089580E008950895FC011382128220E105
:100D900031E03183208308958EBD0DB407FEFDCF71
:100DA0008EB56EBD0DB407FEFDCF8EB508958EBD18
:100DB0000DB407FEFDCF8EB58FEF8EBD0DB407FECF
:100DC000FDCF8EB50895882311F080E401C080E046
:100DD00090911E03891749F080931E035E986091DD
:100DE0001E036C6180E0D8DF5E9A08955E98809162
:100DF0002B0581FD06C080912A0583FF19C081E083
:100E000018C080EAD4DF80FF06C081E0DCDF80917B
:100E10002A05886007C081FF08C080E0D4DF809188
:100E20002A05877F80932A0505C082FDE4CF02C092
:100E300080E0C9DF5E9A0895CF93DF93E091E404E8
:100E4000E43008F0E0E0F0E0EA52FF4FC49180E1C6
:100E5000D1E0D80F6C2FA0DF8D2FD032C9F7DF91F2
:100E6000CF9108955E98E8DF6091220582E094DFDB
:100E70006091210583E090DF5E9A0895CF935E989C
:100E80008CEE95DFC82F60911E03626080E084DFE6
:100E90000E94FC1B6C2F6F7E8CE67EDF62E18CE093
:100EA0007BDF60911E036C6380E076DF0E94FC1B99
:100EB00060911E036C6180E06FDFD4DFCF910895F5
:100EC00061E086E00E94D92462E082E00E94D92499
:100ED0008DDFD4CF20911F038091200390E03EE16D
:100EE000239F800D911D112490933D0180933C011F
:100EF00008958F73809320036F7060931F03809118
:100F00001E03803411F0673008F4E4CF635060931F
:100F10001F03FBCF8F3F79F020913C0130913D01C1
:100F2000A9014F5F5F4F50933D0140933C01F90190
:100F3000E25CFE4F808308958C3731F480911F036B
:100F40008F5F80931F03C6CFE5CF862FF5DF81E04B
:100F500090E00895A1E0B0E0E0EBF7E00C94A42E5F
:100F60004983C7DF4981842FE7DF2196E2E00C94B3
:100F7000C02E5E9860E085E00FDF60E086E00CDF69
:100F800061E084E009DF5E9AEEE3F1E080E25E98E2
:100F900090819EBD0DB407FEFDCF9EB581935E9AF4
:100FA00093E0EE31F90799F75E988FEF8EBD0DB49F
:100FB00007FEFDCF8EB55E9A0895A1E0B0E0E3EEA6
:100FC000F7E00C94A02E182FF62E5E9860E080E0DB
:100FD0007983E2DE612F89E0DFDE0F2D7981172F23
:100FE000E12CF801F1908F016E2D8AE0D5DE6F2D96
:100FF0008BE0D2DEE394F6E3EF12F3CF60EA88E011
:10100000CBDE80EAD4DE85FF03C00E949416F9CFC0
:101010006CE080E0C1DE5E9A2196E6E00C94BC2E86
:101020001CBC8F7280658CBD8DB581608DBD8DB50A
:101030008EB5089561E08DE00E94D92461E08BE0D7
:101040000E94D92460E08CE00E94D92461E08AE00B
:101050000E94D92480E0E4CF81E293E0EBCFE82F37
:10106000F0E0EE0FFF1FE45EFE4F2081318166232A
:1010700029F040E253E088E998E004C048EE53E0EC
:1010800080ED97E02417350780F0241B350B841B77
:10109000950B65E070E00E94202EC9010E94202E71
:1010A000862F653018F084E0089580E00895E0917F
:1010B000BC0335E0E39FF0011124E050FC4F949114
:1010C0009150209105016091B2037091B30387FFA5
:1010D00003C0222339F004C0882311F0921721F0B5
:1010E000280F03C0292F01C020E0FB013EE0239F11
:1010F000E00DF11D1124349645915491452B39F39F
:101100002093050181E08093D8030895ACE1B1E01C
:10111000E4EBF3E080819181883E934028F48D9147
:101120009C911197918380833296129683E0EC3BD9
:10113000F80781F7089590E0880F991FDC01A45EFD
:10114000BE4FFC01EC54FC4F8D919C91208131816C
:10115000821B930B089586CE0895AAE0B0E0E3EBDE
:10116000F8E00C94942EC82EE62E80911E0327EAF8
:1011700032E94BE25CE38034C9F46091140570916C
:10118000150580911605909117050E94262D4B019B
:101190005C0125E33AEF4EE85CE360911005709145
:1011A0001105809112059091130518C060911C05DE
:1011B00070911D0580911E0590911F050E94262D9E
:1011C0004B015C0125E33AEF4EE85CE360911805C2
:1011D0007091190580911A0590911B050E94262D8A
:1011E0002B013C01809147049091480420912A05ED
:1011F00027FF03C09195819591098A35910538F0B3
:101200009C012D543F4F2935310570F4C9018734B5
:10121000910534F58A31910544F50A9758F118E0A3
:1012200073EFD72E00ED2AC08B35910514F0835B48
:10123000910997FF03C09195819591098734910594
:101240007CF48A3191053CF40A97A0F018E065EF30
:10125000D62E02EE13C017E05BEFD52E0BEE0EC0BC
:1012600010E04DECD42E01EC09C017E038EFD32E7E
:1012700009ED04C019E02DECD22E06EC6091450476
:1012800070914604072E000C880B990B0E940D2CC0
:10129000A501940150580E94262D0E94CE2D20E0D9
:1012A00030E044EB52E40E94262D4B015C0120E02B
:1012B00030E0A9010E941B2D20E030E040E05FE318
:1012C00087FD0CC0C501B4010E94A52A0E94DA2B3B
:1012D0009B01235D3F4F3A8729870BC0C501B401AD
:1012E0000E94A42A0E94DA2BAB01435D5F4F5A870C
:1012F000498789859A8597FF05C0885A9F4F9A87A5
:10130000898709C029853A852B35310534F0285A5B
:101310003F4F3A87298782E001C080E0FF24F394A1
:10132000F80E9CE0899F902D112419822CE030E06A
:101330001901281A310892549A8392E1892E912C2E
:10134000CA94CB82A12E012E000CBB083AEF3D0DB2
:101350003C838F2D90E0281639060CF479C0DA8092
:101360004981D40E609147047091480480912A0508
:1013700087FF03C0719561957109072E000C880BDA
:10138000990B0E940D2CA30192010E94262D0E9410
:10139000CE2D9B01AC016D2D0D2C000C770B880B15
:1013A000990B2E833F834D8358870E940D2C2E81ED
:1013B0003F814D8158850E94262D0E94DA2B298578
:1013C0003A85260F371FC90101978A359105D8F54F
:1013D000B4010E94342E6B01112399F05EEE560386
:1013E000C001579F900D1124BC01620F731F6F5FE6
:1013F0007F4F77FF02C06F5F7F4F75956795262FF0
:1014000001C020E05E2D5C193B813F0D64E0650F5B
:10141000402F420F832F2E833F8358879BDD2E81E1
:101420003F815885222379F0822F90E08A159B0511
:1014300054F064E0C616D10431F04C81420F63E0F1
:10144000650F832F87DDF3948981845F898381CF42
:101450002A96E2E10C94B02E66E089E07ECE692FF8
:1014600048CDEF92FF920F931F93CF93DF937C01B0
:10147000E40EF51EEC018B01081B190BCE15DF05E0
:1014800039F0C8018C0F9D1F0E94D12E8993F6CF91
:10149000CDB7DEB7E6E00C94BC2EA8E1B0E0E3E502
:1014A000FAE00C94A32E182F88E1189FB0011124A4
:1014B00060587D4F48E150E0CE010196D2DFE12F28
:1014C000F0E0EE0FFF1FEA53FC4F6081718180E076
:1014D00090E00E940B2C29813A814B815C810E9413
:1014E000262D2D813E814F8158850E94A52A9F93EC
:1014F0008F937F936F93CE0109969F938F938EEA7C
:1015000093E09F938F930E942B270FB6F894DEBF32
:101510000FBECDBF6896E3E00C94BF2E8CE70CCDD8
:10152000CF936AE086E0E5DCC0E08C2FB6DFF6DF23
:10153000CF5FC430D1F7CF91089580E2FDCCCF9337
:10154000813110F08051FCCF811101C080E1880F02
:10155000CEEFC80F80E98C0FEFDC81E98C0FECDC5B
:10156000CF9108957F936F939F938F938EEA93E02B
:101570009F938F930E943B270F900F900F900F9097
:101580000F900F9008951F93CF93DF93EC01162FC8
:101590006CE370E00E94202E82E193E0E3DF1123F0
:1015A00031F08091E103882311F080E201C08AE3E9
:1015B000C3DCCE016CE370E00E94202EBC0186E10A
:1015C00093E0D0DFDF91CF911F91089560E0DBCFF2
:1015D000609123047091240482E193E0C3CF809151
:1015E000E204882321F093E1E2E2F7E003C094E112
:1015F000EDECF6E080918D04682F70E0891740F4DF
:10160000CB01880F991FE80FF91F8591949102C0B3
:1016100085E697E0A7DF8091DE03882311F086E856
:101620008BCC089560E070E088E792E09BCF6091FA
:1016300047047091480485EB91E094CF6091450494
:10164000709146048FEA91E08DCF7F936F935F9303
:101650004F939F938F938EEA93E09F938F930E9473
:101660003B278DB79EB708960FB6F8949EBF0FBE66
:101670008DBF089540E050E0BA0184E393E0E5CFE8
:101680006091930470919404072E000C880B990BC1
:101690000E940D2C2AE037ED43E25CE30E94262DE8
:1016A000AB01BC0180E892E0D0CFA1E0B0E0EBE577
:1016B000FBE00C94A42E7F936F935F934F939F93C3
:1016C0008F938EEA93E09F938F9329830E943B2709
:1016D0002981822F31DC0FB6F894DEBF0FBECDBF5B
:1016E0002196E2E00C94C02ECF93809199049091C2
:1016F0009A04FC013A96C4913296E491FC013D961D
:101700006591749180E090E00E940B2C2AE037ED07
:1017100043E25CE30E94262DAB01BC012C2F80E24A
:1017200093E0C3DFCF9108957F936F935F934F93BF
:10173000E7E0F1E021811F922F9320811F922F93E8
:101740009F938F938EEA93E09F938F930E943B2702
:101750008DB79EB70C960FB6F8949EBF0FBE8DBF87
:101760000895E4E6F4E027812F9326812F932581C5
:101770002F9324812F931F926F9323812F93228184
:101780002F9321812F9320812F939F938F938EEA04
:1017900093E09F938F930E943B278DB79EB70E9641
:1017A0000FB6F8949EBF0FBE8DBF0895EF92FF92C3
:1017B0000F931F93CF93DF93EB017C018B01040FF9
:1017C000151FC017D10741F0F70161917F01CE01CC
:1017D0000E94D92E2196F5CFCDB7DEB7E6E00C9466
:1017E000BC2E0E94A42A20EC3BE649ED57E40C9461
:1017F000262DCF92DF92EF92FF92CF93C42F6B01F1
:101800007C01E894F7F8C701B6010E94DA2B072E95
:10181000000C880B990B0E940D2C9B01AC01C70199
:10182000B6010E94A42AC11105C020E034E244E7B9
:1018300059E404C020E030E543EC57E40E94262D33
:101840000E94DA2BCF91FF90EF90DF90CF90089518
:101850008091E20382FF03C080914F0470CE08950F
:101860008091390490913A048F739927029730F44C
:101870006FEE74E08EEA93E00C9407260895CF9300
:10188000C42F28EE33E040E050E00E94472E6C2F3A
:10189000C90179DECF9108957F936F939F938F93C2
:1018A00086E293E09F938F938EEA93E09F938F93CA
:1018B0000E943B278DB79EB708960FB6F8949EBF3F
:1018C0000FBE8DBF08950F931F93CF93DF930CE14D
:1018D00011E0C1E0D0E0F801619171918F01CE017A
:1018E000DBDF2196C930D105B1F7DF91CF911F9190
:1018F0000F910895A2E0B0E0E0E8FCE00C949D2E8A
:101900008C01F801B4903196E590F490E114F10463
:1019100041F1809130046B2D6F7770E0660F771F77
:10192000F0E88F9F600D711D112442E050E0CE0160
:10193000019697DDC980DA80C60191DDD7FC09C028
:10194000C7FC09C0F80133968491882321F0F4DAAA
:1019500002C0B7FE03C0C601F70109950C5F1F4F17
:10196000D0CF2296E9E00C94B92E0F931F93CF931A
:10197000DF932091EE03222309F44DC04091EC0344
:101980005091ED032091390430913A0442175307E6
:1019900009F441C03091EB032AE1231B27FD0BC062
:1019A0002695692F820FA5DA6EEE73E08EEA93E03A
:1019B0000E94072632C096FD1CC0219530E0809120
:1019C00031049091EA03891B90E0B901660F771FFB
:1019D0000E94342E4091E80341110DC0009729F078
:1019E000215031098217930731F421E02093E80355
:1019F00002C080E090E0EC01C251DC4F8E01065E37
:101A00001F4F8991811102C098DD07C095DAC01778
:101A1000D107B9F7F9CF1092EE03DF91CF911F9163
:101A20000F9108951F93CF93DF93D82F192F809193
:101A30006204823019F020F0CFE003C0CFE101C092
:101A4000CAE2D7FD02C016FF0DC06091630470E0CA
:101A500082EC91E087DDD7FD08C016FF06C08C2F11
:101A60006BDA03C08C2F68DAF0CFDF91CF911F9132
:101A70000895A0E0B0E0EFE3FDE00C949E2EC0904E
:101A80006804D0906904E0906A04F0906B04C1147B
:101A9000D104E104F10469F44091640450916504B7
:101AA0006091660470916704452B462B472B09F41F
:101AB00073C094FD02C0CCE701C0C0E296FBDD27F5
:101AC000D0F9E82FE095EE1FEE27EE1FEE0FED2B7D
:101AD0008091E103882311F18091E603853058F06D
:101AE0006FEC71E08EEA93E00E9411278C2F24DACC
:101AF00066ED71E00EC08091E703853078F06FEC01
:101B000071E08EEA93E00E9411278C2F15DA66ECC3
:101B100071E08EEA93E00E9411273EC00E2E000C69
:101B2000FF0BEE0FFF1F95FF31C0E355F84F0591F6
:101B300014914D2FC701B6015CDEF62EE72ED82E8C
:101B4000C92E60916404709165048091660490913F
:101B500067044D2F4EDECF92DF92EF92FF921F92DD
:101B6000CF939F938F937F936F931F930F938EEADF
:101B700093E09F938F930E943B278DB79EB70E965D
:101B80000FB6F8949EBF0FBE8DBF06C0EB55F84F41
:101B9000859194916C2FE5DDCDB7DEB7E8E00C942C
:101BA000BA2EFF920F931F93CF93DF93F82E092F36
:101BB000192F107287FD0AC096FD08C0112389F104
:101BC0006BE472E08EEA93E00E94112783ECB4D9B3
:101BD000209143043091440448E1429FC001439F57
:101BE000900D11240C9668E671E00E94342ECCEF23
:101BF000C60F111102C0D9E001C0DAE0EC2FF0E00D
:101C0000EA5DFD4F849198D9CF5FC83108F0C0E0FC
:101C1000D150A1F787E890D9F7FC1AC006FD04C09F
:101C200017C06EE372E0CECF112379F06FE172E05E
:101C30008EEA93E00E9411278CE76CD967E172E08D
:101C40008EEA93E00E94112703C06AE072E0F8CFA9
:101C5000CDB7DEB7E5E00C94BD2E262F30E0F901BC
:101C6000EE53FC4F87FD0BC091E09083F901E254E5
:101C7000FC4F86FB992790F99083862F0ECC10821B
:101C8000089563E0892FE9CF62E0892FE6CF61E014
:101C9000892FE3CF60E0892FE0CFCF92DF92EF92E0
:101CA000FF921F93CF93DF93182FC92F8091910438
:101CB0008F55863010F0DFEF01C0D4E660919204BA
:101CC00070E080E090E00E940B2C6B017C016D2F96
:101CD00070E080E090E00E940D2C9B01AC01C701F8
:101CE000B6010E94722B20E030E048EC52E40E94E2
:101CF000262D6B017C01C07417FD45C088E81CD9F6
:101D00002AE037ED43E250E4C701B6010E94262DD8
:101D10000E94DF2BAB016138710540F029E8209368
:101D2000070140585109E8E0F1E012C02DE8209386
:101D300008016231710550F42091E103222331F052
:101D400080E280930701809308010AC0E7E0F1E098
:101D5000CA016AE170E00E94202E8DE8861B808314
:101D6000CC2329F0B701A60188EF91E00AC0409189
:101D7000B1045091B2046091B3047091B4048CEE3C
:101D800091E0D2DC12C0CC2329F0AB01BC0184EE7F
:101D900091E00AC04091B1045091B2046091B30443
:101DA0007091B4048DED91E050DCDF91CF911F91E3
:101DB000FF90EF90DF90CF90089596FB442740F975
:101DC00060917D0470917E0480917F0490918004E5
:101DD00056CDCF92DF92EF92FF928091E30396FF70
:101DE00023C084608093E30329E838E848E85CE393
:101DF0006091B9047091BA048091BB049091BC04C5
:101E00000E94262D6B017C010E94DA2B675F7F4FB9
:101E10006331710518F083E992E002C08BE992E02A
:101E2000B701A60112DC14C08B7F8093E303E0911D
:101E30009904F0919A04729624914091B9045091BA
:101E4000BA046091BB047091BC0487E692E02DDC7B
:101E5000FF90EF90DF90CF900895AB01BC01E0912F
:101E60009904F0919A043996249182E792E01DCC6E
:101E70001F920F920FB60F9211242F938F939F935F
:101E8000EF93FF939091C6008091BB058F5F8F7792
:101E90002091BC05821741F0E091BB05F0E0E75CC2
:101EA000FA4F90838093BB05FF91EF919F918F91A3
:101EB0002F910F900FBE0F901F9018951F920F92A9
:101EC0000FB60F9211248F939F93EF93FF939091EE
:101ED000BA058091B905981779F0E091BA05F0E05C
:101EE000EB5CFA4F80818093C6008091BA058F5FCA
:101EF00083708093BA0505C08091C1008F7D809367
:101F0000C100FF91EF919F918F910F900FBE0F90A5
:101F10001F901895EAE7F0E080818B7F80838081B5
:101F200086608083089595FB222720F994FD02C0E6
:101F300090E001C092E0922B86FD02C080E001C0DB
:101F400084E0892B08951F93CF93DF93182FEBDF45
:101F50008C5FC82FD0E017FD06C0BE016F5F7F4FBA
:101F60008AE393E0FFDACC0FDD1FC45EDE4F6881A9
:101F7000798182E493E0F6DADF91CF911F910895A1
:101F80001F93CF93DF93182FC92FCDDFD4E0D80F45
:101F900017FD07C06D2F70E06F5F7F4F8FE393E0F9
:101FA000E1DAC6FB662760F98D2F59D8D82FC0E03B
:101FB000DC1302C081E801C080E80E949C07CF5F6B
:101FC000C530B1F7DF91CF911F9108951F93CF9343
:101FD000DF93182FC92FA7DFD4E0D80F17FD07C054
:101FE0006D2F70E06F5F7F4F8AE393E0BBDAC6FB33
:101FF000662760F98D2F33D8182FC0E0D3E0CE01CB
:102000000E94D12E8F3F71F0811103C0112351F036
:102010001150111102C00E949C072196C03883E024
:10202000D80769F7DF91CF911F9108950F931F9300
:10203000CF93DF93EC018B010E945524DC01CB018F
:10204000800F911FA11DB11D88839983AA83BB8333
:10205000DF91CF911F910F9108959B01FC01408169
:10206000518162817381420F531F611D711D408335
:102070005183628373830895E0919904F0919A04E7
:10208000349665917591859194910895A4E0B0E09E
:10209000ECE4F0E10C949E2E9B01AC0169833A8341
:1020A0004B835C83E9DF29813A814B815C810E940B
:1020B000262D6B017C010E94DA2B0091990410916E
:1020C0009A04F801603177423CF439962491B701C3
:1020D000A60187E692E024C070966591749180E035
:1020E00090E00E940B2C9B01AC01C701B6010E943D
:1020F000722B6B017C010E94DA2B6A30710534F07F
:102100006436710534F087E692E005C084E393E01D
:1021100002C08EE293E0F8013F962491B701A60138
:10212000C4DA2496E8E00C94BA2E6091B50470915C
:10213000B6048091B7049091B804A8CF8091E203CF
:1021400082FF0BC060915004709151048091520441
:10215000909153040E940D2C99CF0895A4E0B0E013
:10216000E4EBF0E10C94A42E9B01AC0169833A836B
:102170004B835C8381DF29813A814B815C810E94A2
:10218000262D6BDE2496E2E00C94C02E60E070E019
:10219000CB01E4CFE0919904F0919A046591759197
:1021A0008591949108950F931F93CF93DF9380911E
:1021B000DD03182F117080FFDEC08E7F8093DD035A
:1021C000E9DF20913F043091400440914104509157
:1021D00042040E94262D0E94DA2BA0919704B09110
:1021E00098048091E30381FF09C081E090E0209191
:1021F0006204223008F080E0EC0102C0C0E0D0E0D0
:10220000E091E204E1110AC02091E60430E0621797
:10221000730724F48091E00382FDC2602091E504FD
:10222000222329F030E0261737070CF4C4603091E0
:102230009204209191044091E704442369F0CD0178
:1022400064E670E00E94202E6115710529F0842F4C
:1022500090E068177907E4F04091ED044423C9F059
:1022600054E6359FC0011124322F27FF02C031E010
:10227000320F3595830F911D37FD9A95622F220FEE
:10228000770B0E94342E842F90E0681779070CF4A6
:10229000C8608091EC0480FD0BC08091EE0490E05A
:1022A00020912304309124042817390708F4C061D1
:1022B000E130E1F48091B9049091BA04A091BB049B
:1022C000B091BC040091E604002381F0BC01CD0173
:1022D0009F770E94DA2BCB016AE070E00E94342ED7
:1022E000802F90E0861797070CF4C06280919504C8
:1022F0009091960420912005222371F064E670E00D
:102300000E94202E6115710539F0822F90E0681728
:10231000790714F4C06405C0209719F4109267037C
:102320002AC09091670381E09111890F8093670320
:10233000809167034FEF480F21E030E002C0220F89
:10234000331F4A95E2F740E08B3020F0412F81E0C7
:1023500021E030E0B9016C237D23672B29F48F5FE6
:10236000220F331F412FF0CF4111809367038091DB
:102370006703981799F2E0916703EE2359F0F0E0B4
:10238000EE0FFF1FE95DF74F659174918EEA93E0C0
:102390000E941127DF91CF911F910F910895A0E026
:1023A000B0E0E5EDF1E10C949F2EEC01FE0105910A
:1023B00014910115110509F466C0FE01329684914D
:1023C00081110E949C07FE01339684913196E5901D
:1023D000F490893691F030F4813609F43CC08836A7
:1023E000C1F004C08337E9F0863719F150E2D52EE9
:1023F00060E070E080E89FE337C0F70160817181A1
:10240000072E000C880B990B0E940D2C40E2D42E55
:1024100032C0E0919904F0919A043996D4902CDE60
:1024200023C0E0919904F0919A043896D490B2DEDA
:102430001BC022DE2091E30322FD14C0E091990429
:10244000F0919A047296D49020E030E040E752E494
:102450000E94262D09C031E4D32E6AE077ED83E295
:102460009CE302C028E1D22EF70120813181428114
:1024700053810E94262D2D2DAB01BC01C80115D919
:102480004DD8279693CFCDB7DEB7E7E00C94BB2E9F
:102490008AED92E084CF48E0692F0E94AA076091FC
:1024A0007D0470917E0480917F049091800440E0CF
:1024B000E6D934D88BE591E072DF6CE784EC97E0E5
:1024C00050C9CF92DF92EF92FF920F931F93CF9359
:1024D0008C016A017B01C22F5DDEA70196010E947B
:1024E000262DC1110BC0E0919904F0919A04389601
:1024F000C49120E030E040E85FE305C0C8E126E693
:1025000036E646E650E40E94722BAB01BC012C2F4C
:10251000C801CBD8CF911F910F91FF90EF90DF9022
:10252000CF90089596FB222720F940913B045091CB
:102530003C0460913D0470913E0487E892E0C1CF75
:1025400096FB222720F940913F045091400460916E
:1025500041047091420487E892E0B3CF2FE632E164
:1025600043E85AE30C94262DA4E0B0E0EAEBF2E154
:102570000C94A22E00916803109169037DDD9B01EC
:10258000AC018AEF809FB001819F700D1124072E4E
:10259000000C880B990B2C8339834A835B830E9440
:1025A0000D2C2C8139814A815B810E94262DE0917E
:1025B0009904F0919A040832110554F03F96249141
:1025C0002C83CCDFAB01BC012C8184E393E006C0FB
:1025D00039962491AB01BC0187E692E066D8249637
:1025E000E4E00C94BE2EA0E0B0E0E9EFF2E10C9440
:1025F0009E2ED82F8091E204811144C020E030E06B
:10260000A90160913B0470913C0480913D0490913C
:102610003E040E946B2B882309F48AC0BBDD8091A5
:10262000E00381FF1BC0109270041092710410929D
:102630007204109273044091B5045091B6046091F5
:10264000B7047091B804409362035093630360939E
:102650006403709365038D7F8093E003809145044C
:102660009091460497FF64C08091E103882319F09C
:102670006CE173E002C06BE173E08EEA93E00E94CC
:10268000112756C08091DE03882309F451C0C09100
:1026900092040C2F10E080919004082E000C990BEE
:1026A00008171907D1F18091D90382FD36C06091D6
:1026B0007D0470917E0480917F04909180040E943B
:1026C0000B2C6B017C016C2F70E080E090E00E948D
:1026D0000B2C9B01AC01C701B6010E94262D6B019A
:1026E0007C0160919104062E000C770B601B710B2E
:1026F000072E000C880B990B0E940D2C9B01AC013E
:10270000C701B6010E94722B29DF0E94DF2B709354
:102710008F0460938E04C0939004D7FD03C087E1BB
:102720000E949C0780918E0490918F040E94E60A7B
:10273000CDB7DEB7E8E00C94BA2E40916C0450910E
:102740006D0460916E0470916F0496FF0CC08091CF
:102750005C0490915D04A0915E04B0915F04481BFD
:10276000590B6A0B7B0BCB01BA010E940D2CF6DED4
:10277000F5CCBC0180E090E00E940B2CEFDEAB01B9
:10278000BC018BEB91E00C94250B80912A0597FD01
:1027900008C0806280932A058091950490919604E8
:1027A000E8CF91E020912005211101C090E090FB3D
:1027B00085F980932A050895809197049091980453
:1027C000D8CF2091390430913A04260F311D30932F
:1027D000ED032093EC038093EB038091310480930D
:1027E000EA03089597FF03C088599E4F08958936DC
:1027F00021E0920714F0885691400895CF93DF931B
:10280000EC010E94552428813981CB01821B930B56
:10281000DF91CF91089524E0880F991F2A95E1F761
:102820008C549F4F68E671E00E94342ECB010196D4
:102830000895A0E0B0E0EFE1F4E10C949E2EC92FE2
:1028400080E090E0CFDF8C01C090BD04D090BE044A
:10285000E090BF04F090C004C701B60190582AE090
:1028600037ED43E25CE30E94262DA70196010E940A
:10287000A52A6093BD047093BE048093BF04909317
:10288000C004C6FBDD27D0F92D2F40E050E0BA018F
:1028900087E892E016DE0E948E0A809143049091B0
:1028A00044049801281B390BC901B5DF9C2F907295
:1028B000C5FD98E0890F0E949F0A4091BD04509188
:1028C000BE046091BF047091C0042D2F8DE892E08A
:1028D000F8DDCDB7DEB7E8E00C94BA2EEF92FF92A8
:1028E0001F93CF93DF9300D000D0CDB7DEB7809198
:1028F0008D048A3009F056C0E0909B04F0909C044F
:1029000088EEE81683E0F80654F489E1E8168CEFC7
:10291000F8064CF489E1E82E8CEFF82E04C097EE0F
:10292000E92E93E0F92EE0919904F0919A043996FA
:10293000149160E070E08DE692E00E94B20A9CDBA8
:10294000212F40E050E0BA0187E692E00E94550B4B
:102950000E948E0A8091A9049091AA0443DF2091DD
:10296000430430914404821B930B55DF0E949F0A5D
:1029700083DB9B01AC01B701FF0C880B990B29830A
:102980003A834B835C830E940D2C29813A814B81D1
:102990005C810E94262DAB01BC01212F8EE592E0C7
:1029A0000E94550B0F900F900F900F90DF91CF91D9
:1029B0001F91FF90EF9008958091430490914404FB
:1029C0009195819591090EDF845B91099093610443
:1029D0008093600420DF885F0E949F0A60916004FA
:1029E0007091610485E092E00C94B20ACF92DF927C
:1029F000EF92FF92CF93DF93EC016A017B019A0182
:102A0000AB01688179818A819B810E946B2B87FF52
:102A100004C0C882D982EA82FB82DF91CF91FF9005
:102A2000EF90DF90CF900895CF93DF93EC019A0160
:102A3000AB01688179818A819B810E94A52A688384
:102A400079838A839B83DF91CF910895A0E0B0E0E2
:102A5000ECE2F5E10C949A2E89E794E0CFDEEC01EC
:102A600060E070E089E794E0E1DABE018DE794E090
:102A7000F4DABE0180E090E00E940B2C6FDD6B0168
:102A80007C01FADA8090B9049090BA04A090BB045B
:102A9000B090BC04C501B40190582DEC3CEC4CEC5A
:102AA0005DE30E94262DA50194010E94A52A609352
:102AB000B9047093BA048093BB049093BC04209132
:102AC000920480919104082E000C990B422F50E043
:102AD0008417950714F4209391048091E20382FFF8
:102AE00015C08091DE03882389F020913B0430914A
:102AF0003C0440913D0450913E04C701B6010E9440
:102B0000262DAB01BC0185EB94E08EDF6091930430
:102B100070919404072E000C880B990B0E940D2CC9
:102B200021E63BE046E35BE30E94262DA7019601E8
:102B30000E94262DAB01BC0181EB94E075DF8091F2
:102B40002504909126042091EC0420FD5EC00091A4
:102B5000260510912705C0912805D0912905C01799
:102B6000D10740F4302F212F8E01C32FD22FFF2405
:102B7000F39401C0F12C98010817190708F49C017F
:102B8000BE012C173D0708F4B90180E090E00E94D7
:102B90000B2C4B015C01B80180E090E00E940B2CF3
:102BA0009B01AC01C501B4010E94A42A4B015C0148
:102BB000BE01601B710B80E090E00E940B2C9B011A
:102BC000AC01C501B4010E94722B20E030E048EC5A
:102BD00052E40E94262D0E94DA2B6536710528F4F6
:102BE000709324046093230406C084E690E09093DD
:102BF000240480932304FF2061F02091230430916A
:102C0000240484E690E0821B930B90932404809329
:102C100023048091E204811104C08091E00382FDCD
:102C200005C08091DE03882309F44DC060915004F3
:102C30007091510480915204909153040E940D2C84
:102C4000AB01BC018DED94E0D1DE40913F04509189
:102C50004004609141047091420489ED94E0C6DE25
:102C600040913B0450913C0460913D0470913E04BE
:102C700085ED94E0BBDE40E050E0BA0181ED94E0E8
:102C8000B5DE40E050E0BA018DEC94E0AFDE60913B
:102C9000930470919404072E000C880B990B0E94EA
:102CA0000D2CAB01BC0189EC94E0A0DE40E050E0CB
:102CB000BA0185EC94E09ADE40E050E060E070E814
:102CC00081EC94E093DECDB7DEB7ECE00C94B62E49
:102CD000CF93DF93EC01CB01BA010E940D2C25E9C3
:102CE0003FEB46ED53E30E94262D688379838A8368
:102CF0009B83DF91CF9108950E9455246093330404
:102D00007093340480933504909336048091390491
:102D100090913A049093380480933704E8EDF3E0FF
:102D200081E08083828308958AEA90E00C94AB244A
:102D30009091D903892F817090FF05C09091D7039E
:102D400081E0911180E008958091430490914404C2
:102D5000880F991F8D966AE570E00E94342E6830C6
:102D6000710514F060E070E0FB01EA5BFC4F8491B8
:102D7000089587FD03C0E8DF0E949C07609143042B
:102D80007091440489E592E00C94B20AA0E0B0E0AE
:102D9000ECECF6E10C94942ED82FC92F96FF0BC0C3
:102DA00015E019C0133001F585EC0E949C070E94C4
:102DB0008E0A1150D9F4DD24D394DD0E6C2F8D2DA5
:102DC0000E94AD0896E0C92ECD0E22E0222E2C0ED8
:102DD000C4FFC3C00FC082EB0E949C070DE00150EE
:102DE00009F30E949D0AFBCF83EBDFCF133099F7E5
:102DF00086ECF2CF00914D0410914E04E0904B040C
:102E0000F0904C04C80117FF04C088279927801B45
:102E1000910B6AEF70E00E94342EE62F472FC70116
:102E2000F7FE04C0882799278E199F096AEF70E082
:102E30000E94342E2E2F342F261737070CF49B01B7
:102E4000B9016F5F7F4F7093690360936803072E2A
:102E5000000C880B990B0E940D2C2B013C01B70133
:102E6000FF0C880B990B0E940D2C4B015C0124EE8A
:102E700038E34EE552E4C301B2010E94262D9B01C6
:102E8000AC01C501B4010E94722B0E94DA2BF62E10
:102E9000362EB801012E000C880B990B0E940D2CC8
:102EA0004B015C012DE63BED4EE052E4C301B20163
:102EB0000E94262D9B01AC01C501B4010E94722B1A
:102EC00020E030E040E05FE30E94A52A0E94DA2B78
:102ED000E62ED6FD09C038DF622D6F19482F8C2DE4
:102EE0008E0D0E94AA0739C080912804681304C07F
:102EF00080912904F816E1F080912C0490912D0422
:102F000090932F0480932E0480912A0490912B0497
:102F100090932D0480932C0480912804909129048F
:102F200090932B0480932A04E0922804F0922904C1
:102F30000EE214E088E2682E84E0782EF8018181A8
:102F4000622D681B808144E28C0D0E94AA0702500A
:102F500011096016710691F7BECFD7FD0AC0622D28
:102F60008C2D0E9479076CEA71E08EEA93E00E9452
:102F70001127C5FF93C08091DE03882309F48EC01A
:102F80008091E204811183C06091500470915104DA
:102F900080915204909153040E940D2C9B01AC012E
:102FA00060E070E0CB010E94182B21EE3EE245E686
:102FB00052E40E94262D0E94DA2B6A5071092DE2FC
:102FC000269FC001279F900D11246AE070E00E94A7
:102FD000342ECB01469669E070E00E94342E6630B4
:102FE00078F400ED081B1C2F160F402F612F8CE08A
:102FF0008D0F0E94AA07402F612F8D2D0E94AA07D6
:1030000080914F0490E02091090130910A01821BC8
:10301000930BE8DB853B910534F028E631E0A9010C
:10302000481B590BCA019C01245B310948E4429FAB
:10303000C001439F900D11246AE070E00E94342E7D
:10304000CB01849666E070E00E94342E962F64E0F7
:103050006C0F97FF06C04CE38D2D0E94AA074CE32E
:1030600013C09D304CF0D45F4EE38D2F0E94AA0711
:103070004EE36C2F8D2F10C0DFEBD80FD90E4D2FE4
:103080008D2D0E94AA074D2F6C2F8D2D05C00E94FB
:103090003C104BEC622D8C2D0E94AA07CDB7DEB7F9
:1030A000E2E10C94B02EACE0B0E0E9E5F8E10C947C
:1030B000942E0E94F6060E9455246B017C0180919B
:1030C000E2041091DE03811114C0112301F18091FB
:1030D000E00382FF1CC060913B0470913C0480912E
:1030E0003D0490913E040E94DA2B623071053CF45D
:1030F0000EC011110CC08091DF03882341F0C092F3
:103100009D04D0929E04E0929F04F092A00410933C
:10311000DF0380912505853018F084E08093250534
:1031200083E394E06BDB853C9940A8F063E085E0A5
:103130000E9479076091390470913A0480913704B4
:1031400090913804681B790B8AE991E00E94B20AD9
:1031500083E095E065C08091DE03811120C08091FD
:103160009D0490919E04A0919F04B091A004892B8E
:103170008A2B8B2BA1F08DE994E040DB883B9B40B0
:1031800070F46091B5047091B6048091B704909189
:10319000B8040E94DA2B663071050CF0A1C2809150
:1031A000E403882309F43EC08091BD03909130046C
:1031B000891721F0809330041092E40382E00E948A
:1031C0009B08092E000CAA0BBB0BB7FF07C0B095DC
:1031D000A095909581959F4FAF4FBF4F8D329140F5
:1031E000A105B1050CF086C283E00E949B08092E60
:1031F000000CAA0BBB0BB7FF07C0B095A09590952C
:1032000081959F4FAF4FBF4F8D329140A105B105C2
:103210000CF070C28091DE0381116CC281E091E0FC
:103220003AD96BC280912505882321F09091300412
:10323000981718F48EE493E050C28091DE03811158
:103240004AC21D821E821F8218864091BC03842EB2
:10325000912C85E0489FA0011124FA01E250FC4F17
:10326000859194919093B3038093B203FA01E05057
:10327000FC4F14910E948608A12CB12C00E0712C07
:103280001A861B86612C1986C12C101709F4B6C04A
:10329000DD24D394D00EE090B203F090B303EA0C97
:1032A000FB1CF701459054906D2D81E00E94790739
:1032B000B2018EEA93E00E9411276D2D83E10E94F6
:1032C000790780910501081306C08EE30E949C07D0
:1032D000C090200302C00E949D0AF701329684919B
:1032E000319624912C87833609F442C060F48A35E4
:1032F00009F43CC0823689F1811169C09EE0A90EB3
:10330000B11C0D2DC2CF8836D1F088F4863609F075
:103310005EC0F7013496A591B4918D919D910D9069
:10332000BC91A02D8D839E83AF83B88750C0833717
:1033300009F443C08A3709F04AC080E118C080917F
:103340001E03803419F46AE371E002C062E371E0A5
:103350008EEA93E00E941127D1CFF7013496A59110
:10336000B4916C9170E080E090E011C080E28987B8
:10337000F7013496A591B4916C91062E000C770B51
:103380009985691B7109072E000C880B990B0E9407
:103390000D2C1B012C012C85622F70E080E090E049
:1033A0000E940B2C9B01AC01C201B1010E94722B47
:1033B0006D837E838F8398870AC0F7013496659169
:1033C000749144E050E0CE0105960E94310A80914C
:1033D0000501BD81AE813F812885081304C07B2E85
:1033E000AA873B87622EF7013896859194914B2FDF
:1033F0005A2F632F722F0E94250B80CF85E0889D66
:10340000F001899DF00D1124EF5FFB4F85919491A0
:10341000009711F0FC0109958091E20383FF6DC1D3
:10342000877F8093E20301E00093D80381E00E944C
:103430009B088739910514F081E004C08A369F4FBC
:1034400024F48FEF0E94570858C183E00E949B0824
:10345000873991055CF0009305018091BC038230AF
:1034600019F41092BC0349C18F5F0CC08A369F4F7C
:1034700064F4009305018091BC03811102C082E0D5
:1034800001C081508093BC0338C1609105016F5F1A
:103490008C2D0E94790780910501E090B203F09095
:1034A000B3039EE0899FE00CF11C112480E00E9490
:1034B0009B086C0197FF06C0D194C194D108882461
:1034C000839401C0812CF7013496A590B490F70144
:1034D0003296049131969490872D9A85AB85B62DBE
:1034E0008D839E83AF83B887043630F4023660F450
:1034F0000A3509F04AC008C0033771F10A3721F0D4
:10350000063609F042C028C0EDE2CE16E1E0DE0644
:1035100084F0692D70E080E090E00E940B2C9B010C
:10352000AC0160E070E080E291E40E94722B11E057
:103530004AC0F7E9CF16D10464F1692D70E080E04C
:1035400090E00E940B2C9B01AC0160E070E080E8F1
:103550009FE30E94722B20C021E9C21621E0D2060F
:103560006CF58DE2C81681E0D806C4F499ECC91652
:10357000D104CCF414E0E5E6CE16D1040CF45BC023
:103580006FE672E183E89AE31EC060E070E0CB0171
:103590000FC060E070E0CB0111E00AC06DEC7CEC84
:1035A0008CEC9DE304C06AE077ED83E29CE314E0D9
:1035B000F5E6CF16D1040CF43EC005C060E070E023
:1035C00080E89FE314E081109058AB01BC01CE016C
:1035D00005962ADAF7013A9665917491F7013C96BF
:1035E000C590D490072E000C880B990B0E940D2CCF
:1035F0001B012C012D813E814F8158850E941B2D7E
:10360000181624F42D823E824F825886B6010D2C66
:10361000000C880B990B0E940D2C1B012C012D8195
:103620003E814F8158850E946B2B87FF04C02D82FD
:103630003E824F8258862D803E804F805884A20162
:103640009101672D7A858B85962D0E946B2B88239F
:1036500009F453C0692D70E080E090E00E940D2CC9
:10366000A20191010E94262D0E94DA2B0336A9F0B7
:1036700028F40A3579F0023681F01CC0033781F056
:103680000A3751F00636B1F4F501208231824282C8
:10369000538210C0605E01C0605FF50160830AC0A4
:1036A00029823A824B825C8244E050E0B501CE012F
:1036B000019606C0412F50E0B5016E5D7240C50114
:1036C0000E94D60BF7013696859194910097A9F048
:1036D000FC01099512C086EF93E00E947A0C0DC0A0
:1036E00081E08093E4030E948608809130048093F7
:1036F000BD0394CD1092E40391CD2C96E2E10C949D
:10370000B02E1F920F920FB60F9211242F933F935A
:103710004F935F936F937F938F939F93AF93BF93D9
:10372000EF93FF931092D7038091D6038F5F80931E
:10373000D60380916603811114C08091E903882328
:1037400081F0809166038F5F8093660378940E9476
:10375000B907F8941092E903809166038150809331
:103760006603FF91EF91BF91AF919F918F917F91F0
:103770006F915F914F913F912F910F900FBE0F90DE
:103780001F901895CF92DF92EF92FF920E946124D2
:103790006B017C0183E00E943525813049F4C092A1
:1037A000CF03D092D003E092D103F092D2031FC096
:1037B0008091CF039091D003A091D103B091D20317
:1037C0000097A105B10599F0C81AD90AEA0AFB0ABF
:1037D000D092D403C092D3031092CF031092D0039F
:1037E0001092D1031092D20381E08093D503FF9011
:1037F000EF90DF90CF90089566E970E080E090E070
:103800000C94862465E085E00E94790766E673E003
:103810008FE091E00E94B20A0E9455244AE050E0F5
:103820008EEA93E00E944E268091F8048F3421F4B2
:103830008091F9048A3159F061E081E00E947907B2
:103840006091F80470E082EF90E00E94B20AD4DF49
:103850000C94B9071F920F920FB60F9211242F9359
:103860003F934F935F936F937F938F939F93AF9308
:10387000BF93EF93FF9386DFFF91EF91BF91AF91DD
:103880009F918F917F916F915F914F913F912F9178
:103890000F900FBE0F901F9018950FB6F894A89533
:1038A00080916000886180936000109260000FBE7C
:1038B00060E071EE80E090E00E94852642E050E0FA
:1038C00060E072E08AE295E00E94310A48E450E04C
:1038D00064E072E082EE94E00E94310A80912A0551
:1038E00081FD03C087EC98E002C084EB98E09093E0
:1038F0009A048093990484B58C7F84BD83E00E94F0
:10390000AD250E948A0F809169008C7F8260809330
:103910006900E89A8091E304813059F462E083E021
:103920000E94D92480916900837F8460809369001C
:10393000E99A5E9A0E94B90778948091FA048833D4
:1039400041F48091FB04873321F48091FC0480339F
:1039500089F088E38093FA0487E38093FB0480E393
:103960008093FC0443E050E06CE172E08AEF94E065
:103970000E94D60B809123058823A1F0E0912405B5
:10398000EE2381F0F0E0E35DFE4F84918093CE035F
:10399000882341F061E00E94D92460E08091CE0349
:1039A0000E9415250E9460072DDF109222040895C1
:1039B000E0910301EF5FE0930301E770F0E0EE0FA9
:1039C000FF1FEE5AFC4F9183808388E060E070E037
:1039D0008150E82FF0E0EE0FFF1FEE5AFC4F2081E0
:1039E0003181620F731F8111F3CF80E090E00E945C
:1039F0000B2C20E030E040E05EE30C94262DCF92CB
:103A0000DF92EF92FF92CF93DF9380912A0584FD9E
:103A100005C08091C203882309F4ABC0C0910201A4
:103A2000CF5FC093020180E10E94B025C770EC2FE8
:103A3000F0E0EE0FFF1FEE5BFC4F9183808388E088
:103A4000C0E0D0E08150E82FF0E0EE0FFF1FEE5B0A
:103A5000FC4F20813181C20FD31F8111F3CF209100
:103A6000C6033091C70347E0429FC001439F900DBA
:103A700011248C0F9D1F23E0969587952A95E1F7D9
:103A80009093C7038093C60380912A0584FF71C079
:103A900029E53EEE49E050E4609100057091010592
:103AA00080910205909103050E94262D6B017C01F7
:103AB000BE0180E090E00E940B2C9B01AC01C7018D
:103AC000B6010E94262D0E94DF2B40919704509151
:103AD00098044115510529F4709398046093970454
:103AE00012C09A01220F331F240F351F2E5F3F4F44
:103AF000A901460F571F56954795569547955093E0
:103B000098044093970481E08093D803E091E70400
:103B10008E2F61E20E94142E482F8091970490917D
:103B20009804C29664E670E00E94202EF0E09B01AB
:103B30002E1B3F0BAFEFB0E00E94852E5AE2459F4F
:103B4000900111242E1B3F0B032E000C440B550B30
:103B50000E94692E37FF03C0109292040AC02F3FC3
:103B6000310529F024F08FEF8093920402C0209356
:103B7000920480912A0585FD05C08091C3038823A6
:103B800009F474C0C0910101CF5FC09301018EE0C0
:103B9000E7D7C770EC2FF0E0EE0FFF1FEE5CFC4F95
:103BA0009183808388E0C0E0D0E08150E82FF0E08E
:103BB000EE0FFF1FEE5CFC4F20813181C20FD31F3F
:103BC0008111F3CF2091C8033091C90347E0429F90
:103BD000C001439F900D11248C0F9D1FA3E096956B
:103BE0008795AA95E1F79093C9038093C8038091C4
:103BF0002A0585FF3BC029EA3CEC48E050E460918F
:103C000004057091050580910605909107050E94B5
:103C1000262D6B017C01BE0180E090E00E940B2C00
:103C20009B01AC01C701B6010E94262D0E94DF2B2B
:103C300040919504509196044115510529F47093D3
:103C400096046093950412C09A01220F331F240F2B
:103C5000351F2E5F3F4FA901460F571F56954795B9
:103C600056954795509396044093950480912A0564
:103C700086FD05C08091C403882309F480C080912B
:103C8000C003882349F020E137E240E050E061E0E2
:103C90008FE031D7CB0102C08FE062D7E091000105
:103CA000EF5FE0930001E770F0E0EE0FFF1FEE5DC5
:103CB000FC4F9183808388E0C0E0D0E08150E82F02
:103CC000F0E0EE0FFF1FEE5DFC4F20813181C20F4F
:103CD000D31F8111F3CF2091CA033091CB0347E06A
:103CE000429FC001439F900D11248C0F9D1F33E014
:103CF000969587953A95E1F79093CB038093CA0305
:103D000080912A0586FF3BC02DE032E348EC5CE35E
:103D1000609108057091090580910A0590910B0545
:103D20000E94262D6B017C01BE0180E090E00E9484
:103D30000B2C9B01AC01C701B6010E94262D0E94ED
:103D4000DF2B40919304509194044115510529F4BF
:103D5000709394046093930412C09A01220F331F4E
:103D6000240F351F2E5F3F4FA901460F571F569551
:103D700047955695479550939404409393048091AA
:103D8000EC048695823079F040F4882349F1813043
:103D900009F058C081E1E4D60EC0853008F052C069
:103DA00080E090E020C020E23EE440E050E061E0AE
:103DB00081E1A1D6CB01FCDD20910C0530910D05F0
:103DC00040910E0550910F050E94262D0E94DF2B79
:103DD000709326046093250481E08093D80332C059
:103DE0008091270490E0E4DD0E94DF2B709326048D
:103DF000609325048091C503882321F18091C1033C
:103E0000882341F020E137E240E050E061E081E1C9
:103E100072D603C081E1A4D6BC012091CC033091BD
:103E2000CD0347E0429FC001439F900D1124680FCE
:103E3000791F83E0769567958A95E1F77093CD03B6
:103E40006093CC03DF91CF91FF90EF90DF90CF9004
:103E500008951F93CF93DF932091CE03222321F166
:103E6000E0912305F0E0EE0FFF1FEC5DFE4F808137
:103E7000918130E0F901E251F74F1491F901EE5FC1
:103E8000F64FE491F0E0EE0FFF1FE05EF64FC591B4
:103E9000D491F8942881212B28835DD58881E12F46
:103EA000E095E823E8837894DF91CF911F910895FE
:103EB0008EEA93E00E94C4068AEA93E01ED7E2E10C
:103EC000F4E088E992E097A786A78CE992E095AFA5
:103ED00084AF80EB92E090935D0480935C0484EB6C
:103EE00092E090936B0480936A0488EC92E0909344
:103EF0007904809378048CEC92E09093870480930B
:103F0000860408951F93CF93DF931AE08AEA93E023
:103F100049D7882309F419C1C0917D03D0917E034C
:103F20008AEA93E05CD7C130D105B9F070F0C230B5
:103F3000D10521F0C330D10549F1E8CF8E34C1F06D
:103F400088F48134A9F08734A9F021E090E084322C
:103F500009F020E0C22FD92FD9CF8435B1F7C2E0C4
:103F6000D0E0D4CF8F3431F0833579F79BE003C0B4
:103F70009AE001C092E190937C03809379031092C0
:103F8000780310927A03C3E0D0E0C0CF60917A0347
:103F9000682760937A0390917803492F50E020912D
:103FA0007C0330E0245031094217530709F0C5C0A3
:103FB0006111CBCF8091D90380618093D9030E9496
:103FC0007C1680917903873439F0833509F482C0F7
:103FD000813409F0ACC047C040916A0350916B0333
:103FE00060916C0370916D0384E694E00E94681602
:103FF0004091A2035091A3036091A4037091A50383
:1040000088E694E00E9468168091E8039091E903A5
:10401000A091EA03B091EB0380936C0490936D043C
:10402000A0936E04B0936F046091720384E6689F5E
:10403000B0011124072E000C880B990B0E940D2C47
:1040400060933B0470933C0480933D0490933E0442
:1040500080917703982F969596959093630483703B
:104060008093620464C020916C0330916D03129FB1
:10407000C001139F900D112490934804809347042E
:1040800020916A0330916B03129FC001139F900D22
:104090001124909346048093450480916E0390917F
:1040A0006F038C549F4F0E94F21390934A048093A5
:1040B00049044091640450916504609166047091D4
:1040C0006704452B462B472B91F59093440480932E
:1040D00043042DC080912A0584FD0CC080916A03A1
:1040E00090916B03909398048093970480916C0354
:1040F0008093920480916E038093270460916F03F4
:1041000070E080E090E00E940B2C60933F0470937D
:104110004004809341049093420480917003982F4F
:1041200091709093DE038695869580938D040E940E
:104130009816882309F4EACE0CC09F5F9093780309
:10414000FA01E659FC4F8083E1CED0937E03C09301
:104150007D03DF91CF911F910895A4E0B0E0E3EBE0
:10416000F0E20C94962EA895A0D36B017C0128EE6A
:1041700033E040E050E00E94472E30933A04209311
:10418000390424E1C21625E0D206E104F10408F066
:104190007FC0FBD5882309F479C006D68A3031F474
:1041A000809122048F5F8093220402C01092220427
:1041B00080912204843068F38CB583608CBD6DEEF1
:1041C00070E08AEA93E02DD6B12CE12CF12C912CF1
:1041D000A12CE7EECE2EE0E0DE2E0AEA13E03FEF60
:1041E000E316F10411F00CF04BC0CFD58823B9F3DE
:1041F000DBD5823338F48033D8F48A3081F38D30C4
:1042000039F023C0823709F5A1E0EA1AF1081DC090
:1042100088E0981219C0EA2DF0E0E659FC4F808141
:10422000B826A394EA2DF0E0E659FC4F10820CC0AA
:10423000EA2DF0E0E659FC4F9081990F813309F4A3
:104240009F5F9083939401C0912CB0E4AB12C7CFD1
:104250006AE673E0C7010E94DD07EFEFEE1AFE0A7F
:104260001F92BF92DF92CF921F930F9304D60F90AD
:104270000F900F900F900F900F90B12CA12CAFCFFB
:1042800063EE70E08AEA93E0CCD5C1C2BBDABFC26C
:104290008091D90384FD7EC080E4EAE6F3E0DF018B
:1042A0001D928A95E9F78091320465E00E94142EF0
:1042B000913021F0943009F46DC06DC063D5F5D212
:1042C0004B015C01B4E68B0E911CA11CB11C0AEFE2
:1042D0001FEFEBD286169706A806B906A0F024ECCD
:1042E00039E040E050E060E080E005D46F3F7105C8
:1042F0008105910509F02CF4662319F0611708F483
:10430000162F015031F71F3F19F41091040102C01C
:10431000109304011B3088F01331B0F01D31D0F040
:104320001832F0F01C3318F1163938F570E8872E82
:1043300075E2972EA12CB12C26C0812C62EC962E12
:10434000AA24A394B12C1FC0812C51EE952EA12C30
:10435000B12C19C0812C46E9942EA12CB12C13C08C
:1043600030E8832E30E7932EA12CB12C0CC0812C89
:104370002BE4922EA12CB12C06C090EC892E92E158
:10438000992EA12CB12C8AEA93E0AED4C501B401D8
:10439000BCD401C0B7DD8091D803882309F4DCC008
:1043A000E091E304E33008F4CBC0B0903004E33094
:1043B00029F48091D3039091D40339C08BEF8E0FF1
:1043C000843040F4F0E0EE0FFF1FE65EFE4F808188
:1043D00091812DC0E43049F580918D049AEF980FBA
:1043E000923008F473C090917804891789F0809313
:1043F000780460E070E084E794E00E9416109091E9
:10440000780480910601981303C081E08093DB0358
:1044100084E794E00E94FE13813D974008F456C063
:1044200080918D048093060151C080E090E020913E
:10443000E804211118C0609125058D34F4E09F0730
:1044400060F09C012C54344070E080E293E00E94C4
:10445000342EC9010E94202E01C060E0B616B1F1D1
:104460006093300433C020912A0520FF13C0815B84
:1044700094408730974020F481E08093DC0326C08D
:104480008091DC03882319F081E08093DB03109294
:10449000DC031CC08D5D95408B3D9540B8F405D282
:1044A0000091740410917504209176043091770482
:1044B000061717072807390748F481E08093DB03C4
:1044C00064EF71E084E794E00E9416108091DB03B2
:1044D000882369F01092DB03809130048F5F809312
:1044E000300490912505981710F4109230048091B3
:1044F0003004B81629F191E09093D80398E0E4EBEA
:10450000F3E0DF011D929A95E9F79091E50390FDA4
:1045100012C0AEEEB3E0EAEDF0E094919D933196D7
:104520009111FBCF9091F503890F8093F50363E020
:1045300088E00E94E1138091E5038E7F8093E5037C
:104540008091D90380FD06C081608093D90381E00A
:104550008093D7031092D8038091D90380FF2FC096
:104560009091D70391112BC08E7F8093D9039091A6
:104570006204992329F08091E30382608093E3032E
:104580008091DE038111A9C08091E20382FDB2C057
:10459000933070F08CE0E4E6F4E0A4E5B4E0019040
:1045A0000D928A95E1F78091E20384608093E203A3
:1045B0000E9426150E94531881E08093E9038091A0
:1045C000890490918A04A0918B04B0918C048C157D
:1045D0009D05AE05BF0538F464E170E089E894E01C
:1045E0000E942D1036DC8091850490918604A09164
:1045F0008704B09188048C159D05AE05BF0550F564
:1046000064E670E085E894E00E942D10F8D980916E
:10461000E20384FB222720F991E0922790FB84F9A2
:104620008093E2039923B1F08091E803882369F035
:104630008F5F8093E803833068F0809131048F5F4F
:10464000809331041092E80305C0809131048F5F9C
:10465000809331048091810490918204A09183041D
:10466000B09184048C159D05AE05BF0508F0CFC040
:1046700064EF71E081E894E00E942D1081E0809366
:10468000D8039091E20398609093E20390913204F2
:104690009F5F909332049091E10389278093E10317
:1046A000882309F4B4C08091DD0381608093DD0329
:1046B0008091D603853060F48091E1048F5F809310
:1046C000E104843038F00E943E070E94B90702C01E
:1046D0001092E1041092D6039AC08091E00380FD0D
:1046E00053CF2091E2032B7F2093E20381608093DC
:1046F000E0034ACF8090540490905504A090560453
:10470000B0905704C501B4019F7725E33AEF4EE816
:104710005CE30E94262DE3D72B013C012091640429
:10472000309165044091660450916704C501B4015D
:104730000E94F10B4B015C012091680430916904E7
:1047400040916A0450916B0460915804709159042F
:1047500080915A0490915B040E94F10B9B01AC0183
:10476000C301B2010E94262D2B013C01A501940139
:10477000C501B4010E94262D69837A838B839C83B3
:10478000A3019201C301B2010E94262D9B01AC013D
:1047900069817A818B819C81D8D60E948D2D0E945F
:1047A000DA2B6093500470935104809352049093D9
:1047B0005304C501B4019F77FDD770934E046093F5
:1047C0004D04C301B2019F77F5D770934C046093F9
:1047D0004B04A30192015058C501B40129D720EE22
:1047E0003EE245E652E40E94262DE4D76A5571095F
:1047F0008091430490914404FB01E81BF90BCF0125
:104800000E94F2130E940B1480934F04D1CE249681
:10481000E0E10C94B22E1F920F920FB60F9211246A
:104820002F933F938F939F93AF93BF9380912D05C9
:1048300090912E05A0912F05B091300530912C0557
:1048400023E0230F2D3720F40196A11DB11D05C0D3
:1048500026E8230F0296A11DB11D20932C058093FD
:104860002D0590932E05A0932F05B09330058091D0
:10487000310590913205A0913305B0913405019630
:10488000A11DB11D8093310590933205A09333058E
:10489000B0933405BF91AF919F918F913F912F912C
:1048A0000F900FBE0F901F9018952FB7F89460913E
:1048B0002D0570912E0580912F05909130052FBF09
:1048C00008953FB7F8948091310590913205A091F9
:1048D0003305B091340526B5A89B05C02F3F19F0CC
:1048E0000196A11DB11D3FBFBA2FA92F982F882770
:1048F000820F911DA11DB11DBC01CD0142E0660FCB
:10490000771F881F991F4A95D1F70895CF92DF929C
:10491000EF92FF92CF93DF936B017C01D2DFEB012B
:10492000C114D104E104F10479F0E4D0CADF6C1BB6
:104930007D0B683E7340A0F381E0C81AD108E108FE
:10494000F108C851DC4FECCFDF91CF91FF90EF9091
:10495000DF90CF9008958230910538F0880F991F2D
:10496000880F991F05970197F1F70895789484B5FA
:10497000826084BD84B5816084BD85B5826085BD5B
:1049800085B5816085BDEEE6F0E080818160808341
:10499000EAE7F0E0808184608083808182608083A8
:1049A0008081816080838081806880831092C100D3
:1049B0000895CF93DF9390E0FC01E251F74F2491EB
:1049C000FC01EE5FF64F8491882361F190E0880F3F
:1049D000991FFC01E65DF64FC591D491FC01E05EA4
:1049E000F64FA591B491611109C09FB7F8948881E1
:1049F000209582238883EC912E230BC0623061F4D2
:104A00009FB7F8948881322F309583238883EC9167
:104A10002E2B2C939FBF06C08FB7F894E8812E2BC6
:104A200028838FBFDF91CF91089590E0FC01E25180
:104A3000F74F2491FC01EE5FF64FE491EE23A1F0D5
:104A4000F0E0EE0FFF1FE05EF64FA591B4919FB727
:104A5000F894611105C08C91E22FE095E82302C023
:104A6000EC91E22BEC939FBF089590E0FC01E6529D
:104A7000F74F2491FC01E251F74F3491FC01EE5FB6
:104A8000F64FE491EE23A1F1222339F1233091F086
:104A900038F42130A9F0223001F584B58F7D12C0A1
:104AA000273091F02830A1F02430B9F480918000B3
:104AB0008F7D03C0809180008F77809380000DC030
:104AC00084B58F7784BD09C08091B0008F7703C013
:104AD0008091B0008F7D8093B000F0E0EE0FFF1F5B
:104AE000EA5EF64FA591B491EC91E32381E009F4DD
:104AF00080E0089508950F931F9390E0FC01E25128
:104B0000F74F7491FC01EE5FF64FE491662311F0CC
:104B1000672F01C060E0F0E0EE0FFF1FEA5EF64F86
:104B20008591949189019A013F70462F672F0E94C9
:104B30004605611571058105910549F0DC01CB0140
:104B40000196A11DB11DBC01CD019F7003C060E0A5
:104B500070E0CB011F910F91089580930B01089590
:104B60008E3008F08E5020910B0190E4299F900127
:104B700011248770822B80937C0080917A0080645E
:104B800080937A0080917A0086FDFCCF8091780036
:104B90002091790090E0922B0895A0E0B0E0E3ED41
:104BA000F5E20C949E2E6C017A018B01C0E0D0E0FE
:104BB000CE15DF0581F0D8016D918D01D601ED9103
:104BC000FC910190F081E02DC6010995892B11F02F
:104BD0002196EECF7E01C701CDB7DEB7E8E00C9499
:104BE000BA2E6115710581F0FB0101900020E9F7F3
:104BF0003197AF01461B570BDC01ED91FC91028010
:104C0000F381E02D0995089580E090E00895E9CFC3
:104C10000895A1E2B0E0EFE0F6E20C949A2E6C0168
:104C2000142FE52FCB01022F19A2223008F40AE03D
:104C30007E0121E2E20EF11C802E912CA12CB12CE0
:104C4000612F7E2FA50194010E94472E029F10190B
:104C5000112481E0E81AF1081A3014F4105D01C043
:104C6000195CF7011083122FE32FCA01232B242B89
:104C7000252B31F7B701C601B4DFA196ECE00C9407
:104C8000B62E2115310549F4DC01ED91FC9101901E
:104C9000F081E02D642F09950895BBCF9A01AB01F7
:104CA00060E070E0EECF089561DEFDDF0E944D1CF4
:104CB000C0E1D7E252DA2097E9F3B2D0FBCF90916E
:104CC000C100892F807194FF0EC09091BB05809127
:104CD000BC05981302C080E00895E091BC05F0E0A7
:104CE000E75CFA4F80810895EBEBF5E081818083EA
:104CF000E9EBF5E0808181830895FC011382128243
:104D000020E331E03183208308959B01AC01809141
:104D1000C10084FD1092C1001092BA051092B9052D
:104D20001092BC051092BB05121613061406150648
:104D3000ECF4211581EE380741055105F1F082E0D0
:104D40008093C00060E079E08DE390E0C2D7CA01B3
:104D5000B901615071098109910922E030E040E018
:104D600050E0B7D73093C5002093C40088E9809302
:104D7000C10086E08093C20008951092C00020E137
:104D800030E0F0CF1092C10008959091C100892FBA
:104D9000807194FF06C08091BB059091BC05891B72
:104DA0008F770895F2CF08959091C100892F807177
:104DB00094FF14C09091BB058091BC05981302C06C
:104DC00080E00895E091BC05F0E0E75CFA4F808157
:104DD0009091BC059F5F9F779093BC050895E4CFA9
:104DE00008959091C10094FF15C09091B9059F5FFF
:104DF00093702091BA059217E1F3E091B905F0E0C4
:104E0000EB5CFA4F80839093B9058091C10080627A
:104E10008093C1000895862FE4DF81E090E008953B
:104E200008950F931F93CF93DF938C01FB0164913F
:104E3000EF012196662351F0D801ED91FC9101908C
:104E4000F081E02DC8010995FE01F1CFDF91CF91EE
:104E50001F910F910895A0E0B0E0E0E3F7E274C77E
:104E60009E01275F3F4F4F81588560E08D819E8175
:104E70001AD0E2E085C7A0E0B0E0E0E4F7E264C762
:104E80009E01275F3F4F4F81588561E08D819E8154
:104E90000AD0E2E075C7DC01ED91FC910190F08150
:104EA000E02D09950895A1E1B0E0E8E5F7E23CC7FF
:104EB0007C016C876A013901AE014F5F5F4F4A0187
:104EC000F6015C8550FD059150FF01916F010023B3
:104ED00009F41FC3053241F450FD059150FF0191C3
:104EE0006F01053261F405C00A3019F46DE0C701A5
:104EF000D2DF602FC701CFDF53013501E1CF10E0D2
:104F0000312C20E02032A0F40B3269F030F4003272
:104F100059F0033269F420612CC00D3239F00033AE
:104F200039F4216026C02260246023C0286021C09B
:104F300027FD28C080ED800F8A3078F426FF06C058
:104F40009AE0199F800D1124182F13C0EAE03E9EAD
:104F5000800D1124382E20620CC00E3221F426FD63
:104F6000D8C2206406C00C3611F4206802C008368E
:104F700049F4F6014C8540FD059140FF01916F0118
:104F80000111C0CF8BEB800F833018F42061005EDD
:104F900006C08BE9800F833008F04DC12F7E26FFBD
:104FA00016E02F73522E053619F42064522E08C0D5
:104FB000063621F4522F5068552E02C0111111509F
:104FC00057FE05C01C3348F431E0310F07C01830DC
:104FD00038F030E027E017E005C03CE327E002C0EE
:104FE000212F30E0530184E0A80EB11CF301608151
:104FF000718182819381032FA401398B0E94E9057D
:105000003C012980398920FE02C023FE06C051FCE4
:1050100006C052FE06C000E205C00DE203C00BE26E
:1050200001C000E0822D8C7019F0011142C246C20D
:1050300057FE0DC0360D24FE04C08A81813309F469
:10504000315013165CF5393060F138E02AC056FC57
:1050500028C0812F90E08615970544F0FCEF6F166D
:10506000FFEF7F061CF0252D2068522E112359F0EA
:10507000E2E0F0E0EC0FFD1FE10FF11D80818033D5
:1050800011F41150F3CF57FE0CC031E0310F812FD6
:1050900090E06816790624F4161903C031E001C0C7
:1050A00010E057FE06C01614170434F4C30101962D
:1050B00005C085E090E002C081E090E0011101961A
:1050C000112331F0412F50E04F5F5F4F840F951F48
:1050D000432D50E08417950714F4381A01C0312C81
:1050E000852D897049F4332039F060E2C701398B8E
:1050F000D2DE3A943989F7CF002329F0602FC70117
:10510000398BC9DE398953FC09C0332039F060E39B
:10511000C701398BC0DE3A943989F7CF57FE49C0B1
:10512000230177FE02C0412C512CC3010196841942
:105130009509A401480F591F5E874D87A301431BA2
:105140005109588B4F87012F10E0119501951109D6
:105150005FEF4516550619F46EE2C7019CDE641434
:1051600075044CF04F8558894415550524F4ED8598
:10517000FE85608101C060E3F1E04F1A51084D8562
:105180005E854F5F5F4F5E874D87401651061CF06E
:10519000C70181DEDDCF6414750409F049C08A813E
:1051A000863328F4853309F043C024FC41C061E311
:1051B0003FC06A81613319F0522D5F7E252EC701F1
:1051C0006ADE111104C054FC13C065E612C06EE221
:1051D000C70161DE1E5F82E001E0080FF401E80F05
:1051E000F11D6081C70157DE802F0113F5CFEBCF92
:1051F00065E4C70150DE77FC05C06114710439F421
:1052000024FE05C07194619471086DE201C06BE2E7
:10521000C70141DE60E38AE0681671042CF06F5F1D
:105220009AE0691A7108F7CFC70135DE60E3660DB1
:10523000C70131DE36C1033631F0033779F003356B
:1052400009F052C020C05301E2E0AE0EB11CF301E0
:105250008081898301E010E0340113C05301F2E042
:10526000AF0EB11CF3016080718026FF03C0612F77
:1052700070E002C06FEF7FEFC301298B5AD18C0120
:1052800029892F7714C05301F2E0AF0EB11CF3014E
:105290006080718026FF03C0612F70E002C06FEF55
:1052A0007FEFC301298B3AD18C0129892068522EC6
:1052B00023FD16C0832D90E00817190788F460E2DB
:1052C000C701E9DD3A94F6CFF30157FC659157FE2B
:1052D00061913F01C701DFDD31103A94015011099E
:1052E0000115110589F7DDC0043611F0093659F5AD
:1052F000530127FF09C0F4E0AF0EB11CF301608138
:105300007181828193810AC0F2E0AF0EB11CF3017A
:1053100060817181072E000C880B990B2F76522E1D
:1053200097FF09C090958095709561957F4F8F4F3D
:105330009F4F2068522E2AE030E0A4010E948B0586
:10534000682E681848C0053729F42F7E522E2AE0AF
:1053500030E025C0F22FF97F5F2E0F36C1F018F430
:10536000083579F0D6C0003719F0083721F0D1C0E0
:105370002F2F2061522E54FE0DC0452D4460542E17
:1053800009C024FF0AC05F2F5660552E06C028E0D2
:1053900030E005C020E130E002C020E132E05301FE
:1053A00057FE09C084E0A80EB11CF3016081718131
:1053B0008281938108C0F2E0AF0EB11CF3016081DD
:1053C000718180E090E0A4010E948B05682E68182E
:1053D000F52DFF775F2E56FE0BC0052D0E7F611653
:1053E00050F454FE0AC052FC08C0052D0E7E05C0C4
:1053F000762C052D03C0762C01C0712E04FF0DC044
:10540000FE01E60DF11D8081803311F4097E09C093
:1054100002FF06C07394739404C0802F867809F04D
:10542000739403FD0FC000FF06C0731478F4360CAC
:10543000132D17190CC0731450F460E2C7012BDD53
:105440007394F9CF731418F4371802C0162D312C49
:1054500004FF0BC060E3C7011EDD02FF12C001FDA7
:1054600002C068E70CC068E50AC0802F867849F062
:1054700001FF02C06BE201C060E207FD6DE2C701FF
:105480000ADD611628F460E3C70105DD1150F9CF8C
:105490006A94F401E60DF11D6081C701FCDC611026
:1054A000F7CF332009F429CD60E2C701F4DC3A9448
:1054B000F8CF24E0231548F584E004C043E0431509
:1054C00030F583E0381A53FC06C060E2C701E3DC24
:1054D0003A943110FACF002319F0602FC701DBDCBA
:1054E00023FE03C004E319E002C008E319E0F52D30
:1054F000F0715F2EF8016491662399F251106052A9
:10550000C701C9DC0F5F1F4FF5CF312CE6CF312C1F
:10551000E7CF6196E2E124C4F89459C4FC010590F8
:10552000615070400110D8F7809590958E0F9F1FA5
:105530000895FC016150704001900110D8F78095EA
:1055400090958E0F9F1F08955058BB27AA270ED005
:1055500027C2F0D130F0F5D120F031F49F3F11F4A3
:105560001EF4C0C10EF4E095E7FBB6C1E92F3AD2B4
:1055700080F3BA17620773078407950718F071F470
:105580009EF552C20EF4E0950B2EBA2FA02D0B0102
:10559000B90190010C01CA01A0011124FF27591B78
:1055A00099F0593F50F4503E68F11A16F040A22F7E
:1055B000232F342F4427585FF3CF469537952795EF
:1055C000A795F0405395C9F77EF41F16BA0B620BEE
:1055D000730B840BBAF09150A1F0FF0FBB1F661F35
:1055E000771F881FC2F70EC0BA0F621F731F841F78
:1055F00048F4879577956795B795F7959E3F08F09E
:10560000B3CF9395880F08F09927EE0F979587955C
:10561000089590D158F080E891E009F49EEF91D17F
:1056200028F040E851E059F45EEF09C05BC1FCC1CD
:10563000E92FE078D7D168F3092E052AC1F32617A0
:1056400037074807590738F00E2E07F8E02569F0AC
:10565000E025E0640AC0EF6307F8009407FADB0175
:10566000B9019D01DC01CA01AD01EF934AD098D187
:105670000AD05F91552331F02BED3FE049E450FD16
:1056800049EC63CF0895DF93DD27B92FBF7740E85A
:105690005FE31616170648075B0710F4D92FCFD122
:1056A0009F938F937F936F9376D2E8E6F0E01DD1BE
:1056B00077D12F913F914F915F91D4D1DD2349F064
:1056C0009058A2EA2AED3FE049EC5FE3D0785D27ED
:1056D0004DDFDF9165C1DCD008F481E0089539D158
:1056E000E3956FC10CD05CC12CD140F023D130F0D8
:1056F00021F45F3F19F0F0C0511197C1F3C072D18E
:1057000098F39923C9F35523B1F3951B550BBB2788
:10571000AA2762177307840738F09F5F5F4F220F35
:10572000331F441FAA1FA9F333D00E2E3AF0E0E82E
:1057300030D091505040E695001CCAF729D0FE2F7A
:1057400027D0660F771F881FBB1F2617370748070C
:10575000AB07B0E809F0BB0B802DBF01FF279358C2
:105760005F4F2AF09E3F510568F0B6C05EC15F3FB3
:10577000ECF3983EDCF3869577956795B795F795AA
:105780009F5FC9F7880F911D9695879597F90895A2
:10579000E1E0660F771F881FBB1F6217730784073E
:1057A000BA0720F0621B730B840BBA0BEE1F88F74D
:1057B000E095089504D06894B11137C108951AD1C5
:1057C00088F09F5790F0B92F9927B751A0F0D1F0EA
:1057D000660F771F881F991F1AF0BA95C9F712C074
:1057E000B13081F021D1B1E008951EC1672F782F2B
:1057F0008827B85F39F0B93FCCF3869577956795E0
:10580000B395D9F73EF490958095709561957F4F4B
:105810008F4F9F4F0895E89409C097FB3EF49095F1
:105820008095709561957F4F8F4F9F4F9923A9F079
:10583000F92F96E9BB279395F69587957795679508
:10584000B795F111F8CFFAF4BB0F11F460FF1BC04C
:105850006F5F7F4F8F4F9F4F16C0882311F096E9DF
:1058600011C0772321F09EE8872F762F05C066238D
:1058700071F096E8862F70E060E02AF09A95660F46
:10588000771F881FDAF7880F9695879597F90895FF
:10589000990F0008550FAA0BE0E8FEEF1616170641
:1058A000E807F907C0F012161306E407F50798F0A9
:1058B000621B730B840B950B39F40A2661F0232BC2
:1058C000242B252B21F408950A2609F4A140A6953E
:1058D0008FEF811D811D089597F99F6780E870E023
:1058E00060E008959FEF80EC0895DF93CF931F93BE
:1058F0000F93FF92EF92DF927B018C01689405C0B9
:10590000DA2EEF01AFD0FE01E894A59125913591F3
:1059100045915591AEF3EF0129DEFE019701A801F3
:10592000DA9479F7DF90EF90FF900F911F91CF916C
:10593000DF91089500240A94161617061806090622
:10594000089500240A9412161306140605060895F5
:10595000C9CF50D0E8F3E894E0E0BB279F57F0F0C0
:105960002AED3FE049EC06C0EE0FBB0F661F771F24
:10597000881F28F0B23A62077307840728F0B25AEA
:10598000620B730B840BE3959A9572F7803830F4B1
:105990009A95BB0F661F771F881FD2F7904820C1CA
:1059A000092E0394000C11F4882352F0BB0F40F42D
:1059B000BF2B11F460FF04C06F5F7F4F8F4F9F4F6D
:1059C0000895EF93E0FF06C0A2EA2AED3FE049EC1C
:1059D0005FEBCCDDE5DF0F90039401FC9058E5E927
:1059E000F0E011C157FD9058440F551F59F05F3F2B
:1059F00071F04795880F97FB991F61F09F3F79F0F1
:105A000087950895121613061406551FF2CF469572
:105A1000F1DF08C0161617061806991FF1CF8695F4
:105A20007105610508940895E894BB2766277727D8
:105A3000CB0197F908952CDF08F48FEF08959B01AF
:105A4000AC0160E070E080E89FE34CCE0BD0A8CFC3
:105A500071DF28F076DF18F0952309F03DCF42CFB3
:105A60001124E3CFBFDFA0F3959FD1F3950F50E052
:105A7000551F629FF001729FBB27F00DB11D639F00
:105A8000AA27F00DB11DAA1F649F6627B00DA11DA6
:105A9000661F829F2227B00DA11D621F739FB00D4C
:105AA000A11D621F839FA00D611D221F749F3327BC
:105AB000A00D611D231F849F600D211D822F762F55
:105AC0006A2F11249F5750408AF0E1F088234AF052
:105AD000EE0FFF1FBB1F661F771F881F915050409E
