:1000000016C500000C94781E0C94091F38C500001A
:1000100036C5000034C5000032C5000030C5000000
:100020002EC500002CC500002AC5000028C5000010
:1000300026C5000024C5000022C5000020C5000020
:100040000C9414281CC500000C9477100C949D107F
:1000500016C5000014C5000012C5000010C5000040
:100060000EC500000CC50000084AD73B3BCE016E10
:1000700084BCBFFDC12F3D6C74319ABD56833DDAFF
:100080003D00C77F11BED9E4BB4C3E916BAAAABE0E
:10009000000000803F05A84CCDB2D44EB93836A937
:1000A000020C50B9918688083CA6AAAA2ABE000074
:1000B00000803F0664EC1B3C04BC163E3BE5B93CAB
:1000C000C93C37C29E5A3D660498083EEA69AAAA0E
:1000D0003E000000803F0302010053637265656EBD
:1000E00020300046440A00434425640A0052464634
:1000F0000A00100E0F114D697373696E672F4F6CF4
:100100006420436F6E6669673A202564206D79200C
:100110003739004D696E696D4F53442D45787472BF
:1001200061204C544D20322E347C756E692072381B
:1001300039322044567C000000803FCDCCCC3D0AB3
:10014000D7233C6F12833A20284E54534329002072
:100150002850414C290025372E32660025362E3195
:1001600066009125372E326600A125372E326600B3
:1001700056010B680804005C018F683505005C01BE
:1001800014730004005C011D73F803005C01126825
:10019000FC030062019076F003006901A076EC0395
:1001A000005C01BD61F403005C015777E8030000C7
:1001B0000000000000004E6F20696E7075742064AE
:1001C000617461212025757C00B8B900253469056A
:1001D000070025346905060025352E32660D0025F9
:1001E000342E31660D00253269006F7665726C6FB2
:1001F00061640053747265616D0066726F7A656E3A
:100200000053747265616D0025342E30660100253F
:10021000322E3066252500256325638E25342E3049
:10022000660100256325638E25322E306625250064
:1002300025346905007C20CECECECE60CECECECE8B
:100240000040CB24007C20202024CB0082808180B1
:10025000818084808180818083808180818085808D
:100260008180818020C8C8C8C87EC8C8C8C8207C12
:100270000020202024CBB8B9CB242020207C0025CE
:10028000336905002533690020586525342E306612
:100290000025342E306600253269200025332E30AB
:1002A0006925250025352E32660E0025342E31664F
:1002B0000E0025332E30660025332E3066002532A1
:1002C0002E30660025342E3066002520342E306610
:1002D00018002520342E316618002520342E326671
:1002E00018005225332E306605005025332E306617
:1002F00005004825332E306605004225352E31662F
:1003000005004525352E3166004525342E30666DB5
:1003100000734525352E316600E2026E692F050017
:10032000EA026E692D0500F2026E692B0500FA02E1
:10033000546929050002034168250500090358692D
:100340001B0500110341732105000000000000009F
:10035000002533690025342E30660100202090915D
:100360000025352E3166004325642535697C00253E
:10037000342E30660025342E31660025342E326648
:100380000025342E30660025342E30660025342EAC
:1003900032660025342E3266004325692000256927
:1003A000002534640043256920002E253032640086
:1003B0002E2530326400253464002E253464002E4E
:1003C000253032640025303264001F1C1F1E1F1EA2
:1003D0001F1F1E1F1E1F253032697C002530326909
:1003E0007C003A253032693A0025336900336900D0
:1003F00025332E30660020207820207920207A7C3A
:1004000000B0B1B4B5B6B77B7D15BC190001CD09FC
:100410000002C60900039717BC8460172605DD0B90
:100420000007070C0018000E00064B150008780B9B
:100430000009AF1900259C13008B01120B0A900DC7
:100440000019840D000DED145C114D141116FD11F1
:100450001212FC131417EE131313C1090214B4097A
:100460007F0F2A17BD2E6009571BED161D1C900E1D
:10047000151D9913000EBE16091E02160021EE0965
:100480000020DC0A0022F4118F2410141F2B5A09BB
:100490001F2C2611002DFF10002FE21000A7C20C08
:1004A00000A8BF0C00A9BC0C00AAB90C001FB30A1D
:1004B0000026A30D0030F80C0031C50C0023160BEC
:1004C000009A2112000000000023050C0000DD044A
:1004D0000574104F0809380900000000005506682F
:1004E00000000000000000000000003B06660175EF
:1004F000050000D705FCFF040048066601790500E9
:1005000000D705FCFF04001F0666017D050000D72B
:1005100005FCFF04002D06660181050000D705FCDF
:10052000FF040008070000000000000000000000B9
:1005300000F806620A4C050000D0050000FF00E943
:1005400006620A85050000D0050000FF00DB066298
:10055000014B050000CB050000FF00C90662014AFF
:10056000050000CB050000FF00B80662015205003F
:1005700000CB050000FF00AB06620153050000CB75
:10058000050000FF009B06000000000000000000C6
:100590000000008D0662018A050000CB0501000401
:1005A00000840662014905DC08CB050000030074E5
:1005B000065A018705DC08CB05E1FF1F0066067AB5
:1005C000018605DC08CB05F1FF0F00252E30660003
:1005D00025332E31667600252E33660034202852CE
:1005E00053534929204B0033202843757272656E9E
:1005F0007429204B00322028563229204B0020201D
:1006000020202020204100312028563129204B0075
:1006100020202050696E2053656E736F72730052F4
:100620006F6C6C2020696E204E54534300506974E7
:10063000636820696E204E54534300526F6C6C20E7
:1006400020696E2050414C00506974636820696EC7
:100650002050414C002020486F72697A6F6E2061F3
:100660006E676C657300566572746963616C206FA8
:1006700066667300486F72697A6F6E74616C206F82
:1006800066667300436F6E747261737400536372B5
:1006900065656E7320436F756E740020205363721E
:1006A00065656E20706172616D730052535349200D
:1006B0007761726E696E670042617474206368616D
:1006C000726765207761726E004F76657273706530
:1006D0006564207761726E696E67005374616C6C3B
:1006E000207761726E696E670042617474203220F7
:1006F0007761726E696E6700426174746572792009
:100700007761726E696E67002020204F534420731A
:1007100065747570006D5F25640057074A073907D7
:100720002A0791078407750766070325392E356662
:1007300025630425392E356600032531302E3666B3
:100740002563042531302E36660025392E35662581
:100750006325392E3566002531302E366625632512
:1007600031302E366600032530356C642563042550
:1007700030356C6400032530366C64256304253005
:10078000366C64002530356C6425632530356C6427
:10079000002530366C6425632530366C64001C08F7
:1007A00012080608F907ED07E007D407C907BD07D7
:1007B000B20746656E636520466172210046656E2C
:1007C00063652048696768210046656E6365204C53
:1007D0006F772100426174742042206C6F77210092
:1007E0004869676820565370656564210020204C75
:1007F0006F77205273736921004261747465727956
:10080000204C6F772100204F7665725370656564C8
:1008100021002020205374616C6C2100204E6F2039
:1008200047505320666978210052B80E4085EB513D
:10083000401966BB0012800C1CA0141E6666664040
:100840000000803F100CBA000A00001BE8031A10D9
:100850000600000000000000000000000007067312
:100860000180020000D705C0E0401FFE057301842F
:10087000020000D7059CFF6400F50573010000002D
:1008800000D705C0E0401FFE05730100000000D73F
:10089000059CFF6400E705730100000000D705C058
:1008A000E0401FFE05730100000000D7059CFF64B7
:1008B00000DC05730100000000D705C0E0401FFE0A
:1008C00005730100000000D7059CFF6400000000D4
:1008D00008000201000003040700000000000000FF
:1008E00000010204081020408001020408102001C9
:1008F0000204081020040404040404040402020294
:100900000202020303030303030000000023002686
:1009100000290000000000250028002B0000000036
:1009200000240027002A006E616E00696E660000D8
:10093000407A10F35A00A0724E18090010A5D4E8AE
:100940000000E87648170000E40B54020000CA9A41
:100950003B000000E1F50500008096980000004093
:10096000420F000000A086010000001027000000D8
:1009700000E803000000006400000000000A00001E
:100980000000000100000000002C76D888DC674FD2
:100990000823DFC1DFAE59E1B1B796E5E3E453C602
:1009A0003AE651997696E8E6C28426EB898C9B62FA
:1009B000ED407C6FFCEFBC9C9F40F2BAA56FA5F4A4
:1009C00090055A2AF75C936B6CF9676DC11BFCE0CC
:1009D000E40D47FEF520E6B500D0ED902E0300941F
:1009E0003577050080841E080000204E0A000000B4
:1009F000C80C333333330F986E12831141EF8D21BE
:100A000014893BE65516CFFEE6DB18D1844B381B24
:100A1000F77C1D901DA4BBE424203284725E2281E9
:100A200000C9F124ECA1E53D270041086F22112403
:100A30001FBECFEFD8E0DEBFCDBF11E0A0E0B1E038
:100A4000E0EDF6E602C005900D92A434B107D9F7A7
:100A500026E0A4E4B1E001C01D92A132B207E1F7A3
:100A600015E0C7E1D5E004C02197FE010E944A339A
:100A7000C531D107C9F70E94C42A0C940B2FC0CAF4
:100A8000CF92DF92EF92FF920F931F93E82FF92FEF
:100A900005C0015011092109310961F190819623A6
:100AA0009417B9F305C0015011092109310911F159
:100AB000908196239413F7CFC12CD12CE12CF12CEB
:100AC0000AC08FEFC81AD80AE80AF80A0C151D05E3
:100AD0002E053F0579F080818623841791F36C2DD4
:100AE0007D2D8E2D9F2D1F910F91FF90EF90DF9008
:100AF000CF90089560E070E080E090E01F910F914A
:100B0000FF90EF90DF90CF900895FA01AA27283048
:100B100051F1203181F1E8946F936E7F6E5F7F4FCA
:100B20008F4F9F4FAF4FB1E03ED0B4E03CD0670F46
:100B3000781F891F9A1FA11D680F791F8A1F911D99
:100B4000A11D6A0F711D811D911DA11D20D009F4E9
:100B500068943F912AE0269F11243019305D31932B
:100B6000DEF6CF010895462F4770405D4193B3E014
:100B70000FD0C9F7F6CF462F4F70405D4A3318F0BB
:100B8000495D31FD4052419302D0A9F7EACFB4E06C
:100B9000A6959795879577956795BA95C9F7009724
:100BA0006105710508959B01AC010A2E06945795C5
:100BB000479537952795BA95C9F7620F731F841F1C
:100BC000951FA01D0895283008F027E03327DA018B
:100BD000990F311D87FD916000966105710539F40B
:100BE00032602E5F3D9330E32A95E1F708959F3FF1
:100BF00030F080387105610509F03C5F3C5F3D9342
:100C0000913008F08068911DDF93CF931F930F936D
:100C1000FF92EF92192F987F9695E92F96959695CA
:100C2000E90FFF27E757F64F99273327EE24FF24D4
:100C3000A701E70105900894079428F4360FE71EF2
:100C4000F81E491F511D660F771F881F991F0694B4
:100C5000A1F70590079428F4E70EF81E491F561FC8
:100C6000C11D770F881F991F661F0694A1F7059075
:100C7000079428F4F80E491F561FC71FD11D880F6F
:100C8000991F661F771F0694A1F70590079420F41B
:100C9000490F561FC71FD81F990F661F771F881F40
:100CA0000694A9F784911095177041F0D695C795D1
:100CB00057954795F794E7941A95C1F7EFE2F9E055
:100CC00068941590159135916591959105907FE205
:100CD0007395E118F10A430B560BC90BD009C0F705
:100CE000E10CF11E431F561FC91FD01D7EF4703347
:100CF00011F48A95E6CFE894015030F0080F0AF419
:100D00000027021708F4202F2395022F7A3328F0AA
:100D100079E37D932A95E9F710C07D932A9589F6AA
:100D2000069497956795379517951794E118F10AEA
:100D3000430B560BC90BD00998F023957E91739500
:100D40007A3308F070E37C932013B8F77E917061DA
:100D50007D9330F0839571E37D9370E32A95E1F7FD
:100D60001124EF90FF900F911F91CF91DF91992760
:100D700087FD9095089580E0089580E0089580E0D3
:100D800008950895FC011382128224E131E0318339
:100D9000208308958EBD0DB407FEFDCF8EB56EBDC8
:100DA0000DB407FEFDCF8EB508958EBD0DB407FEC0
:100DB000FDCF8EB58FEF8EBD0DB407FEFDCF8EB586
:100DC00008956FE070E080E090E00C948F28682F29
:100DD00080E0E0CF882311F080E401C080E09091B2
:100DE0002603981741F0809326035E98809126038E
:100DF0008C61EDDF5E9A08955E988091440581FDD7
:100E000006C08091430583FF19C081E018C080EAC5
:100E1000CCDF80FF06C081E0DDDF80914305886084
:100E200007C081FF08C080E0D5DF80914305877F40
:100E30008093430505C082FDE4CF02C080E0CADF95
:100E40005E9A0895CF93DF93E0914905E43008F06E
:100E5000E0E0F0E0EA52FF4FC49180E1D1E0D80F2A
:100E60006C2F98DF8D2FD032C9F7DF91CF91089585
:100E70005E98E8DF6091870582E08CDF60918605EF
:100E800083E088DF5E9A0895CF935E988CEE8DDFC5
:100E9000C82F8091260382609ADF0E94031F6C2F67
:100EA0006F7E8CE677DF62E18CE074DF8091260351
:100EB0008C638DDF0E94031F809126038C6187DF86
:100EC000D7DFCF910895CF935E98C0E1C15031F440
:100ED00082E07DDF76DFD8DFCF91089580EA65DF9D
:100EE0008770A1F3F5CF61E086E00E94F62862E00A
:100EF00082E00E94F62880DFC7CF209127038091EF
:100F0000280390E03EE1239F800D911D11249093D2
:100F100045018093440108958F71809328036F7079
:100F20006093270380912603803411F0673008F422
:100F3000E4CF635060932703FBCF8F3F99F020915C
:100F4000440130914501203E91E0390758F4A90150
:100F50004F5F5F4F5093450140934401F901EA5BB5
:100F6000FE4F808308958C3731F4809127038F5F83
:100F700080932703C2CFE1CF862FF5DF81E090E099
:100F80000895CF93C42FC8DF8C2FEDDFCF91089544
:100F90005E9860E085E0FEDE60E086E0FBDE61E01A
:100FA00084E0F8DE5E9AE6E4F1E080E25E9890810B
:100FB0009EBD0DB407FEFDCF9EB581935E9A93E072
:100FC000E632F90798F35E988FEF8EBD0DB407FEF9
:100FD000FDCF8EB55E9A08950F931F93CF93DF9345
:100FE000182FD62FC72F5E9880E0F1DE612F89E0A1
:100FF000D1DE0D2F1C2FC0E0F801D1918F016C2F95
:101000008AE0C8DE6D2F8BE0C5DECF5FC633A1F767
:1010100060EA88E0BFDE80EAC8DE85FF03C00E9488
:101020005219F9CF8CE0D3DE5E9ADF91CF911F91F8
:101030000F910895A1E0B0E0E0E2F8E00C942333D2
:101040001CBC8F7280658CBD8DB581608DBD8DB5EA
:1010500089838EB589832196E2E00C943F3361E069
:101060008DE00E94F62861E08BE00E94F62860E0A7
:101070008CE00E94F62861E08AE00E94F62880E079
:10108000D9CF89E293E0EBCFE82FF0E0EE0FFF1F1E
:10109000ED5DFE4F20813181662329F040E253E06F
:1010A00088E998E004C048EE53E080ED97E024170B
:1010B000350780F0241B350B841B950B65E070E031
:1010C0000E949F32C9010E949F32862F653018F01E
:1010D00084E0089580E00895A3E2B1E0E5E1F4E062
:1010E00080819181883E934028F48D919C91119745
:1010F000918380833296129684E0ED31F80781F770
:10110000089590E0880F991FDC01AD5DBE4FFC0192
:10111000EB5EFB4F8D919C9120813181821B930B63
:101120000895E091140435E0E39FF0011124E553A4
:10113000FB4F94919150209109016091120470919C
:10114000130487FF03C0222339F004C0882311F061
:10115000291721F0280F03C0292F01C020E0FB012F
:101160003EE0239FE00DF11D1124349645915491EA
:10117000452B39F32093090181E0809340040895C1
:10118000EF92FF920F931F93CF93DF938C01040F85
:10119000151FEC017B01E81AF90AC017D10739F0D5
:1011A000C7018C0F9D1F0E9450338993F6CFCDB796
:1011B000DEB7E6E00C943B335BCE0895692FACCEEE
:1011C0008CE7D1CE80E2CFCECF93813110F0805129
:1011D000FCCF811101C080E1880FCEEFC80F80E9FC
:1011E0008C0FC1DE81E98C0FBEDECF910895A8E19E
:1011F000B0E0EDEFF8E00C942233182F88E1189F4F
:10120000B001112460587D4F48E150E0CE010196B5
:10121000B7DFE12FF0E0EE0FFF1FEA5DFB4F6081CB
:10122000718180E090E00E948A3029813A814B816F
:101230005C810E94A5312D813E814F8158850E949D
:10124000242F9F938F937F936F93CE0109969F9343
:101250008F938AEC93E09F938F930E94972B0FB606
:10126000F894DEBF0FBECDBF6896E3E00C943E332A
:10127000CF936AE086E050DEC0E08C2FB8DFA0DFBD
:10128000CF5FC430D1F7CF9108957F936F935F9371
:101290004F939F938F938AEC93E09F938F930E9439
:1012A000A72B8DB79EB708960FB6F8949EBF0FBEBA
:1012B0008DBF089540E050E0BA0183E993E0E5CFA7
:1012C00040910D0550910E0560910F05709110052C
:1012D00082EB92E0DACF7F936F939F938F938AECA8
:1012E00093E09F938F930E94A72B0F900F900F90E6
:1012F0000F900F900F900895EF92FF920F931F930E
:10130000CF93DF938C01D62FC42F6CE370E00E9443
:101310009F327C0189EE93E0DEDFCC2351F0B701F0
:1013200082EE93E0D8DFCF776C2F70E08CED93E006
:1013300012C0DD2331F080914C04882311F080E24B
:1013400001C08AE310DEC8016CE370E00E949F32A6
:10135000BC0186ED93E0BFDFCDB7DEB7E6E00C94CD
:101360003B3340E060E0C8CF6091080570E085E164
:1013700097E0B1DF80914704882311F086E8F3CD30
:10138000089560E070E08CE992E0A5CF6091C2041E
:101390007091C30482ED91E09ECF6091C004709182
:1013A000C1048CEC91E097CFCF93C22F7F936F93C2
:1013B0005F934F939F938F934AEC53E05F934F93C8
:1013C0000E94A72B8C2FCFDD8DB79EB708960FB646
:1013D000F8949EBF0FBE8DBFCF910895CF9380919B
:1013E000190590911A05FC013A96C4913296E49140
:1013F000FC013D966591749180E090E00E948A30F6
:101400002AE037ED43E25CE30E94A531AB01BC0169
:101410002C2F81E693E0C8DFCF9108957F936F93DF
:101420005F934F93EBE0F1E021811F922F93208196
:101430001F922F939F938F938AEC93E09F938F93A8
:101440000E94A72B8DB79EB70C960FB6F8949EBF3F
:101450000FBE8DBF0895EFEDF4E027812F93268115
:101460002F9325812F9324812F931F926F93238194
:101470002F9322812F9321812F9320812F939F934C
:101480008F938AEC93E09F938F930E94A72B8DB745
:101490009EB70E960FB6F8949EBF0FBE8DBF0895EF
:1014A000EF92FF920F931F93CF93DF93EB017C0199
:1014B0008B01040F151FC017D10741F0F70161918F
:1014C0007F01CE010E9458332196F5CFCDB7DEB70C
:1014D000E6E00C943B330E94232F20EC3BE649EDE1
:1014E00057E40C94A531CF92DF92EF92FF92CF9305
:1014F000C42F6B017C01E894F7F8C701B6010E9484
:101500005930072E000C880B990B0E948C309B01E0
:10151000AC01C701B6010E94232F9B01AC01C11190
:1015200005C060E074E284E799E404C060E070E51F
:1015300083EC97E40E94A5310E945930CF91FF902F
:10154000EF90DF90CF900895CF93C42F28EE33E033
:1015500040E050E00E94C632DA01C90140E06C2F41
:10156000CBDECF910895292F8091B4049091B504DA
:101570008F739927029710F026FF06C064E575E087
:101580008AEC93E00C94252A08957F936F939F93A0
:101590008F9387E693E09F938F938AEC93E09F93DA
:1015A0008F930E94A72B8DB79EB708960FB6F8941D
:1015B0009EBF0FBE8DBF08950F931F93CF93DF93F0
:1015C00003E211E080E090E0F801619171918F01F8
:1015D000EC012196CE01D9DFCE012897A9F7DF9142
:1015E000CF911F910F910895CF93C82F60918003E1
:1015F0007091810380918203909183030E945930FE
:10160000615071096F30774278F4C7FD02C086E1FE
:10161000AADC409180035091810360918203709114
:10162000830385E593E031DECF910895CF93DF9377
:1016300087FD06C066EF73E08AEC93E00E94832B7F
:10164000C4EDD3E0499159916991799180EF93E08C
:101650001CDE83E0C03ED807A9F7CEECD3E0699149
:1016600079918DEE93E037DE83E0C43DD807B9F77A
:10167000DF91CF910895A2E0B0E0E1E4FBE00C94AB
:101680001C338C01F801D4903196E590F490E1146C
:10169000F10451F18091AB046D2D6F7770E0660F0E
:1016A000771FF0E88F9F600D711D112442E050E01C
:1016B000CE01019665DDB980CA808B2D9C2D7EDD23
:1016C000C7FC09C0B7FC09C0F80133968491882390
:1016D00021F049DC02C0D7FE04C08B2D9C2DF70100
:1016E00009950C5F1F4FCECF2296E9E00C9438335A
:1016F000FF920F931F93CF93DF93D92F8095182FCD
:10170000111F1127111F51F096FD08C095FF39C018
:1017100061E772E08AEC93E00E94832B83EC23DC88
:101720002091BE043091BF0448E1429FC001439F15
:10173000900D11240C9668E671E00E94B33264505B
:101740007109C62F77FF02C0C8E1C60FD5FBFF2481
:10175000F0F8D5FD02C009E001C00AE0EC2FF0E08E
:10176000E45BFD4F8491FFDBCF5FC83108F0C0E040
:101770000150A1F787E8F7DB1123D1F0D6FD04C0B3
:1017800017C064E672E0C6CFFF2079F065E472E02E
:101790008AEC93E00E94832B8CE7CFDB61E472E05C
:1017A0008AEC93E00E94832B03C065E372E0F8CFDC
:1017B000CDB7DEB7E5E00C943C331F93CF93DF93B6
:1017C000C82F192F8091DD04823019F020F0DFE05E
:1017D00003C0DFE101C0DAE2C095CC1FCC27CC1FEB
:1017E00011F016FF0DC06091DE0470E086EE91E00E
:1017F00072DDCC2341F016FF06C08D2FB4DB03C091
:101800008D2FB1DBF0CFDF91CF911F910895A0E034
:10181000B0E0EDE0FCE00C941D334091E304509106
:10182000E4046091E5047091E604452B462B472BB8
:1018300069F44091DF045091E0046091E1047091FB
:10184000E204452B462B472B09F479C094FD02C0D6
:10185000CCE701C0C0E2E82F96FBDD27D0F9E09588
:10186000EE1FEE27EE1FEE0FED2B80914C04882328
:1018700011F180915804853058F061E072E08AECF3
:1018800093E00E94832B8C2F6EDB6AEF71E00EC019
:1018900080915904853078F063EF71E08AEC93E031
:1018A0000E94832B8C2F5FDB6AEE71E08AEC93E061
:1018B0000E94832B44C00E2E000CFF0BEE0FFF1F67
:1018C00095FF37C0EE5DF84F059114916091E304E8
:1018D0007091E4048091E5049091E6044D2F03DEBD
:1018E000F62EE72ED82EC92E6091DF047091E00409
:1018F0008091E1049091E2044D2FF5DDCF92DF92CB
:10190000EF92FF921F92CF939F938F937F936F934A
:101910001F930F938AEC93E09F938F930E94A72BC2
:101920008DB79EB70E960FB6F8949EBF0FBE8DBFB3
:1019300006C0E65EF84F859194916C2F8CDDCDB793
:10194000DEB7E8E00C943933982F262F30E0F90108
:10195000EE5DFB4F87FD0BC0862F41E04083F90110
:10196000E25EFB4F96FB992790F9908340CC108262
:10197000089563E0892FE8CF62E0892FE5CF61E029
:10198000892FE2CF60E0892FDFCF0F931F93CF9392
:1019900080915B04882341F1C92F6091E00370912D
:1019A000E1038091E2039091E30340914E0550E002
:1019B000445151092CE3249F8001259F100D1124CF
:1019C0002CE330E040E050E00E94C632C801820FB4
:1019D000931FC5FF04C0462F406860E004C0C6FBEB
:1019E000662760F940E088DCCF911F910F91089540
:1019F000A0E0B0E0EEEFFCE00C941D33D92F009195
:101A0000E4031091E5032091E6033091E703809110
:101A10005B04882309F473C082EBE82E87E0F82E7C
:101A2000E4E6F0E090E9C92EDD24D394C701837089
:101A30009927892B81F4C701BF010E949F32892B0E
:101A400031F4C701B6010E949F32892B21F461E075
:101A50008EE691E003C060E08DE691E0A0E0B0E0AA
:101A6000081719072A073B0718F440E050E008C0A0
:101A7000081B190B2A0B3B0B8FEFE81AF80AD6CF7D
:101A8000C42FFA01E653FC4FE4914130510511F4A3
:101A90006111EF5F8E2F90E0A0E0B0E0081719070A
:101AA0002A073B0750F0081B190B2A0B3B0B4F5F13
:101AB0005F4F4C30510521F7CCE08D2F0F5F1F4F4A
:101AC000D0E086FF0EC0B80185EC93E004DCBE01D7
:101AD0006F5F7F4F8FEB93E0FEDBB7018AEB93E004
:101AE0000DC0B70186EB93E0F6DBBE016F5F7F4F61
:101AF00080EB93E0F0DBB8018AEA93E0ECDBCDB752
:101B0000DEB7E8E00C94393396FB442740F9609146
:101B1000F8047091F9048091FA049091FB0414CDBB
:101B2000CF9380914E04882361F0C92F8091CA041D
:101B30004BDBC6FF06C06091CA0470E084E892E007
:101B4000CADBCF9108950F931F93CF93DF9320911A
:101B50006804222309F44DC0409166045091670443
:101B60002091B4043091B5044217530709F441C0E1
:101B7000692F909165042AE1291B27FD0AC026954B
:101B8000820FCAD968E674E08AEC93E00E94252AA5
:101B900032C066FD1CC0219530E08091AC0490916C
:101BA0006404891B90E0B901660F771F0E94B3326D
:101BB00040915E0441110DC0009729F02150310978
:101BC0008217930731F421E020935E0402C080E085
:101BD00090E0EC01C859DB4F8E01065E1F4F8991E2
:101BE000811102C0EFDA07C0BED9C017D107B9F71B
:101BF000F9CF10926804DF91CF911F910F91089552
:101C0000CF92DF92EF92FF921F93CF93DF93182F23
:101C1000C92F20910C052F55263010F0DFEF01C0A1
:101C2000D4E66091120570E080E090E00E948A3076
:101C30006B017C016D2F70E080E090E00E948C30A1
:101C40009B01AC01C701B6010E94F12F20E030E0FA
:101C500048EC52E40E94A5316B017C01C07417FD71
:101C600045C088E880D92AE037ED43E250E4C70157
:101C7000B6010E94A5310E945E30AB01613871054A
:101C800040F029E820930B0140585109ECE0F1E0C5
:101C900012C02DE820930C016231710550F420919F
:101CA0004C04222331F080E280930B0180930C01DD
:101CB0000AC0EBE0F1E0CA016AE170E00E949F32E5
:101CC0008DE8861B8083CC2329F0B701A60183E22F
:101CD00092E00AC040913105509132056091330580
:101CE0007091340587E192E099DB12C0CC2329F092
:101CF000AB01BC018FE092E00AC0409131055091E8
:101D00003205609133057091340588E092E0BDDAC8
:101D1000DF91CF911F91FF90EF90DF90CF900895CA
:101D2000CF92DF92EF92FF9296FF2EC081E08093D8
:101D3000530429E838E848E85CE36091390570917C
:101D40003A0580913B0590913C050E94A5316B01BD
:101D50007C010E9459309B0177FF04C02227332762
:101D6000261B370B2A30310534F02436310534F088
:101D70008AEC92E005C08AED92E002C082ED92E02A
:101D8000B701A60182DA13C010925304E09119053D
:101D9000F0911A05729624914091390550913A05B7
:101DA00060913B0570913C0584EC92E0FDDAFF9078
:101DB000EF90DF90CF900895ADE0B0E0E2EEFEE06E
:101DC0000C941333782E688780912603803489F42D
:101DD0008090790590907A05A0907B05B0907C0565
:101DE000C0907505D0907605E0907705F090780565
:101DF00010C08090810590908205A0908305B090DE
:101E00008405C0907D05D0907E05E0907F05F09020
:101E100080058091C2049091C304BC01990F880B86
:101E2000990B0E948C309B01AC01C701B6010E9446
:101E3000A5316B017C018091380480FF04C0F7FA62
:101E4000F094F7F8F094C701B6010E945930AB0145
:101E50006A35710538F09B012D543F4F2935310506
:101E600078F4A901473451052CF54A31510534F570
:101E70004A30510540F128E02C8713EF30ED27C0A0
:101E80006B3571051CF0AB01435B5109CA0157FF6B
:101E900003C091958195910987349105D4F48A31D5
:101EA0009105E4F40A9700F148E04C8715EF82EEC3
:101EB0008D871FC01C861DEC91EC14C0E7E0EC87F9
:101EC00018EFF9ED15C029E02C871DEC36EC3D87A5
:101ED00010C01C861DEC41EC4D870BC087E08C8741
:101EE0001BEF9BEE9D8705C0E9E0EC871DECF6EC4F
:101EF000FD8727EA32E94BE25CEBC501B4010E94A1
:101F0000A5314B015C0125E33AEF4EE85CE3C701E4
:101F1000B6010E94A5316C837D838E839F839CE0F4
:101F2000292E312C00E07A947B822C85022E000C25
:101F3000330B3A87298716501B87C02E002E000CC2
:101F4000DD086091C0047091C1046C0D7D1D072EE9
:101F5000000C880B990B0E948C30A50194010E9403
:101F6000A5310E944D3220E030E044EB52E40E9463
:101F7000A5312B013C0120E030E0A9010E949A31FB
:101F800020E030E040E05FE387FD0BC0C301B20119
:101F90000E94242F0E9459307B01EDE2EE0EF11CCD
:101FA0000AC0C301B2010E94232F0E9459307B0155
:101FB000FDE2EF0EF11C1DE01219222733272C1928
:101FC0003D093A832983812F90E0281639060CF4C5
:101FD00075C06C817D818E819F810E944D322B0165
:101FE0003C013CE0139F602D11246E54062E000C22
:101FF000770B880B990B0E948C309B01AC01C301BD
:10200000B2010E94A5310E945930F701E60FF71F77
:10201000CF0101978A35910508F04EC062E170E06A
:102020000E94B3322B014C85442399F04EEE9B0164
:102030004203B001439F700D11246E0F7F1F6F5F2D
:102040007F4F77FF02C06F5F7F4F75956795762E44
:1020500001C0712C6884641864E0660D8B81810F67
:102060000E948C07002379F0153069F4B601D7FE81
:1020700002C069817A814AE050E08AEC93E00E94D4
:10208000AB2A16E004C08D85870D0E94B307772028
:1020900099F0872D90E0E985FA858E179F0764F007
:1020A000F4E04F16510441F04B85470D63E0660D97
:1020B0008B81810F0E94C1071F5F85CFF7FE0AC089
:1020C000025E32E0231A310844E02416310409F09C
:1020D00034CF06C02BE5E216F10414F00E51F1CF17
:1020E0002D96E2E10C942F3366E089E065CE1F92D5
:1020F0000F920FB60F9211242F938F939F93EF930C
:10210000FF939091C60080911F068F5F8F7720917B
:102110002006821741F0E0911F06F0E0E356FA4FE7
:10212000908380931F06FF91EF919F918F912F9144
:102130000F900FBE0F901F9018951F920F920FB621
:102140000F9211248F939F93EF93FF9390911E060C
:1021500080911D06981779F0E0911E06F0E0E75691
:10216000FA4F80818093C60080911E068F5F837036
:1021700080931E0605C08091C1008F7D8093C100B1
:10218000FF91EF919F918F910F900FBE0F901F9035
:102190001895EAE7F0E080818B7F808380818660FC
:1021A0008083089595FB222720F994FD02C090E0DA
:1021B00001C092E0922B86FD02C080E001C084E065
:1021C000892B08951F93CF93DF93182FEBDF8C5F3C
:1021D000C82FD0E017FD06C0BE016F5F7F4F85EAB4
:1021E00093E079D8CC0FDD1FCD5DDE4F688179811A
:1021F00081EA93E070D8DF91CF911F9108951F93EA
:10220000CF93DF93182FC92FCDDFD4E0D80F17FD60
:1022100007C06D2F70E06F5F7F4F8EE993E05BD852
:10222000C6FB662760F98D2F0E944408D82FC0E0B6
:10223000CD1302C081E801C080E80E94B307CF5FE0
:10224000C530B1F7DF91CF911F9108951F93CF93C0
:10225000DF93182FC92FA6DFD4E0D80F17FD07C0D2
:102260006D2F70E06F5F7F4F89E993E034D8C6FB34
:10227000662760F98D2F0E944408182FC0E0D3E034
:10228000CE010E9450338F3F71F0811103C01123A2
:1022900051F01150111102C00E94B3072196C038AD
:1022A00083E0D80769F7DF91CF911F91089596FBDE
:1022B000222720F930E095FD03C080E090E002C0C5
:1022C00082E090E0282B392B215031092330310551
:1022D00040F4F901E05EFE4F8081082E000C990B5E
:1022E000089580E090E008950F931F93CF93DF93BC
:1022F000EC018B010E945E28DC01CB01800F911F55
:10230000A11DB11D88839983AA83BB83DF91CF91DF
:102310001F910F9108959B01FC01408151816281C1
:102320007381420F531F611D711D4083518362836E
:1023300073830895E0911905F0911A05349665911B
:102340007591859194910895CF92DF92EF92FF92CB
:10235000CF93DF936B017C01EDDFA70196010E9413
:10236000A5316B017C0120E03CE34CE156E40E9486
:10237000EA2FC0911905D0911A05FE0118163CF0FC
:1023800039962491B701A60181E893E024C07096A4
:102390006591749180E090E00E948A309B01AC01CD
:1023A000C701B6010E94F12F6B017C010E945930D8
:1023B0006A30710534F06436710534F08FE693E0CD
:1023C00005C08BE793E002C085E793E0FE013F96EE
:1023D0002491B701A6010E94D409DF91CF91FF900B
:1023E000EF90DF90CF90089560913505709136059C
:1023F0008091370590913805A7CF60E070E0CB0160
:10240000A3CF96FB882780F980935D0480914E04CA
:10241000882369F097FD0BC06091CB047091CC04C8
:102420008091CD049091CE040E948C308DCF089580
:10243000E0911905F0911A05659175918591949136
:102440000895CF92DF92EF92FF921F93CF93DF9385
:1024500080914604882309F4DAC010924604C090A3
:10246000BA04D090BB04E090BC04F090BD04E0DF5F
:10247000A70196010E94A5310E945930A09117052D
:10248000B091180580915204882351F021E090E02A
:102490008091DD04823008F020E0C22FD92F02C0E5
:1024A000C0E0D0E0E0914705E1110AC020914B0562
:1024B00030E06217730724F480914B0480FDC26002
:1024C00020914A05222329F030E0261737070CF423
:1024D000C4603091120520910C0540914C054423B5
:1024E00069F0CD0164E670E00E949F3261157105CC
:1024F00029F0842F90E068177907E4F040915205A5
:102500004423C9F054E6359FC0011124322F27FF20
:1025100002C031E0320F3595830F911D37FD9A953A
:10252000622F220F770B0E94B332842F90E068173E
:1025300079070CF4C8608091510580FD0BC0809133
:10254000530590E020919D0430919E04281739078F
:1025500008F4C0618091390590913A05A0913B053E
:10256000B0913C05E130A1F410914B05112381F0AD
:10257000BC01CD019F770E945930CB016AE070E029
:102580000E94B332812F90E0861797070CF4C06247
:10259000809115059091160520918505222371F0F3
:1025A00064E670E00E949F326115710539F0822F58
:1025B00090E06817790714F4C06405C0209719F4F7
:1025C00010927F0324C090917F0381E09111890FC5
:1025D00080937F0380917F034FEF480F21E030E02D
:1025E00002C0220F331F4A95E2F78B3018F081E0CA
:1025F00021E030E0A9014C235D23452B21F48F5FBE
:10260000220F331FF2CF80937F038917C9F2E09125
:102610007F03EE2359F0F0E0EE0FFF1FE456F84F72
:10262000659174918AEC93E00E94832BDF91CF91A6
:102630001F91FF90EF90DF90CF900895A0E0B0E061
:10264000E4E2F3E10C941E33EC01FE0105911491D8
:102650000115110509F468C0FE01329684918111BB
:102660000E94B307FE01339684913196E590F49071
:10267000893691F030F4813609F43CC08836C1F0D7
:1026800004C08337E9F0863719F150E2D52E60E0B7
:1026900070E080E89FE337C0F70160817181072E09
:1026A000000C880B990B0E948C3040E2D42E32C073
:1026B000E0911905F0911A053996D4903BDE23C0BC
:1026C000E0911905F0911A053896D490B1DE1BC03F
:1026D00031DE20915304211114C0E0911905F091CD
:1026E0001A057296D49020E030E040E752E40E9450
:1026F000A53109C031E4D32E6AE077ED83E29CE393
:1027000002C028E1D22EF70120813181428153811C
:102710000E94A5312D2DAB01BC01C8010E94D40936
:102720000E94E008279691CFCDB7DEB7E7E00C9482
:102730003A3389E193E082CFCF93DF93D82FC92F2B
:1027400048E0692F0E94C1076091F8047091F90474
:102750008091FA049091FB0440E00E94A40A80E773
:1027600091E06CDFC6FF05C06C2F8AE08D0F0E94E0
:102770008C076CE789E397E00E942B0ADF91CF91E9
:102780000895CF92DF92EF92FF921F93CF93DF9342
:10279000EC016A017B01122F4BDEA70196010E941A
:1027A000A531112341F024EE38E34EE85EE30E94A8
:1027B000A53128E106C0E0911905F0911A05389677
:1027C0002491AB01BC01CE010E94D409DF91CF91CD
:1027D0001F91FF90EF90DF90CF90089596FB2227F6
:1027E00020F94091BA045091BB046091BC047091EF
:1027F000BD0488EB92E0C5CF96FB222720F94091DB
:10280000B6045091B7046091B8047091B90488EB94
:1028100092E0B7CF2FE632E143E85AE30C94A531BA
:10282000CF92DF92EF92FF92CF93DF93C091840318
:10283000D09185037FDD6B017C012AEF2C9FC001C5
:102840002D9F900D1124BC01990F880B990B0E94AC
:102850008C309B01AC01C701B6010E94A531E0910B
:102860001905F0911A05A8974CF03F96C491D2DF54
:10287000AB01BC012C2F8DE893E006C03996249162
:10288000AB01BC0187E893E00E94D409DF91CF91AE
:10289000FF90EF90DF90CF9008954091E704509122
:1028A000E8046091E9047091EA0496FF0CC08091FD
:1028B000D7049091D804A091D904B091DA04481BB0
:1028C000590B6A0B7B0BCB01BA010E948C30A2DF43
:1028D0003BCDCF93DF93611103C0C8EDD1E002C0BF
:1028E000CFEDD1E0BC0180E090E00E948A3092DF21
:1028F000AB01BC01CE010E944509DF91CF91089543
:102900002091B4043091B504260F311D3093670433
:1029100020936604809365048091AC0480936404E2
:10292000089597FF03C088599E4F0895893621E086
:10293000920714F0885691400895CF93DF93EC01ED
:102940000E945E2828813981CB01821B930BDF9185
:10295000CF91089520914F0530915005815018F482
:10296000822F8F70089594E0369527959A95E1F718
:10297000F5CFA2E0B0E0EFEBF4E10C94233381E07B
:102980008093400488E0E5E1F4E0DF011D928A9540
:10299000E9F76091AB04B0E86B9FB001112442E00D
:1029A00050E0CE0101960E94C00899818A819093DF
:1029B0003804809339042296E2E00C943F3324E0FB
:1029C000880F991F2A95E1F78C549F4F68E671E0B4
:1029D0000E94B332CB0101960895CF92DF92EF921D
:1029E000FF921F93CF93DF93809108058A3009F0FF
:1029F0004AC0C0911B05D0911C05C83E83E0D80792
:102A00003CF4C9318CEFD8072CF4C9E1DCEF02C0EB
:102A1000C7EED3E0E0911905F0911A0539961491AB
:102A200060E070E087E992E00E946B0983DC212F6F
:102A300040E050E0BA0181E992E00E94D4090E948E
:102A4000E0088091290590912A056BDF2091BE0452
:102A50003091BF04821B930BB2DF0E94E4086ADC52
:102A60006B017C01BE01DD0F880B990B0E948C303D
:102A7000A70196010E94A531AB01BC01212F88E876
:102A800092E00E94D409DF91CF911F91FF90EF90C7
:102A9000DF90CF9008958091BE049091BF049195EE
:102AA000819591093EDF845B91099093DC048093CA
:102AB000DB0485DF885F0E94E4086091DB0470918D
:102AC000DC0480E392E00C946B09CF92DF92EF92EA
:102AD000FF92CF93DF93EC016A017B019A01AB0176
:102AE000688179818A819B810E94EA2F87FF04C0D7
:102AF000C882D982EA82FB82DF91CF91FF90EF906A
:102B0000DF90CF900895A0E0B0E0E9E8F5E10C9403
:102B100019338C014A015B01E901FC01C080D180BD
:102B2000E280F38020E030E0A901C701B6010E94F5
:102B3000EA2F882311F0209731F4F80180829182E6
:102B4000A282B3821DC0A7019601C501B4010E94F3
:102B5000232F4B015C01BE01DD0F880B990B0E94F6
:102B60008C309B01AC01C501B4010E94F12FA7017B
:102B700096010E94242FF8016083718382839383DE
:102B8000CDB7DEB7ECE00C9435338F929F92AF92C5
:102B9000BF92CF92DF92EF92FF92609113057091F6
:102BA0001405072E000C880B990B0E948C306B01CA
:102BB0007C018090B6049090B704A090B804B090C7
:102BC000B90436DCA50194010E94A5319B01AC013A
:102BD000C701B6010E94F12F20E030E040E251E44D
:102BE0000E94A531AB01BC0124E630E080E893E00F
:102BF0008ADFFF90EF90DF90CF90BF90AF909F90D3
:102C00008F900895A0E0B0E0E8E0F6E10C941D3369
:102C1000D82F96FF15C020E030E0A9016091B604DE
:102C20007091B7048091B8049091B9040E94EA2F82
:102C3000882309F49EC0A9DF8D2F0E94F40A99C051
:102C400080914705811143C020E030E0A9016091E7
:102C5000B6047091B7048091B8049091B9040E94B1
:102C6000EA2F882309F485C090DF80914A048823E5
:102C7000D1F01092EB041092EC041092ED0410923B
:102C8000EE048091350590913605A0913705B091FD
:102C9000380580937A0390937B03A0937C03B093D1
:102CA0007D0310924A048091C0049091C10497FF63
:102CB00060C080914C04882319F06DE573E002C078
:102CC0006CE573E08AEC93E00E94832B52C0809104
:102CD0004704882309F44DC0C09112050C2F10E061
:102CE00080910B05082E000C990B08171907B1F1FC
:102CF0006091F8047091F9048091FA049091FB04BA
:102D00000E948A306B017C016C2F70E080E090E0C3
:102D10000E948A309B01AC01C701B6010E94A53117
:102D20006B017C0140910C05042E000C550B401BDF
:102D3000510BBA01550F880B990B0E948C309B01E7
:102D4000AC01C701B6010E94F12F64DD0E945E3024
:102D500070930A0560930905C0930B05D7FD03C066
:102D600087E10E94B3078091090590910A050E94AE
:102D7000B109CDB7DEB7E8E00C9439330F931F9358
:102D8000CF93C92F94DA8C0160919D0470919E04B9
:102D900080E090E00E948A30AB01BC01980186E798
:102DA00093E0B1DE609176037091770380917803B0
:102DB000909179030E94593081E593E00E946B095C
:102DC0008091510580FD05C0C4FF03C085E20E94CB
:102DD000B307CF911F910F9108950F931F93CF9336
:102DE000DF93C92F80E090E09CDD8C0124E630E089
:102DF00040E050E0BA018DE395E085DEC6FBDD27BB
:102E0000D0F92D2F40E050E0BA0188EB92E0B9DC18
:102E10000E94E0082091BE043091BF04C801821BCB
:102E2000930BCDDD9C2F9072C5FD98E0890F0E9419
:102E3000E40840913D0550913E0560913F05709139
:102E400040052D2F8EEB92E09CDCDF91CF911F91FE
:102E50000F9108950F931F93CF93DF93C92F27DA14
:102E60008C016091130570911405072E000C880BDE
:102E7000990B0E948C30AB01BC01980182E793E072
:102E800042DEC4FD03C0C4EAD2E002C0CBEAD2E015
:102E90002AE037ED43E25CE36091720370917303C3
:102EA00080917403909175030E94A531AB01BC0120
:102EB000CE010E944509DF91CF911F910F91089596
:102EC0000F931F93CF9397FD26C0C92F91E0909346
:102ED0005C049C2FECD98C0160911505709116054E
:102EE00080E090E00E948A30AB01BC0198018EE640
:102EF00093E009DEC295C17060916E0370916F031B
:102F000080917003909171030E945E30DC01CB01CF
:102F10006C2FDFDC08C081E090918505911101C024
:102F200080E080935C04CF911F910F9108950F93DF
:102F30001F93CF93C92FBBD98C0160911705709156
:102F4000180580E090E00E948A30AB01BC01980136
:102F50008AE693E0D8DDC295C17060916A037091F2
:102F60006B0380916C0390916D030E945E30DC01D5
:102F7000CB016C2FAEDCCF911F910F9108952AE009
:102F800030E0C1CDCF93DF93EC019A01AB016881B2
:102F900079818A819B810E94242F688379838A8327
:102FA0009B83DF91CF910895A3E0B0E0EAEDF7E1D4
:102FB0000C94133384EF94E0C0DC1C0160E070E0FB
:102FC00084EF94E091D9B10180E090E00E948A30D2
:102FD00021DC4B015C016091130570911405072EF3
:102FE000000C880B990B0E948C306B017C01609166
:102FF00017057091180580E090E00E948A30A701C3
:1030000096010E94A5312CEA35EC47E257E30E9475
:10301000A531AB01BC018DE095E0B1DF8BD940E07B
:1030200050E0BA0189E395E0AADF20911205809172
:103030000C05082E000C990B422F50E084179507C1
:1030400014F420930C0521E63BE046E35BE3C70163
:10305000B6010E94A531A50194010E94A531AB01E2
:10306000BC0181E395E08EDF80919F049091A004E4
:103070002091510520FD6FC020918B0530918C056A
:103080003B832A8300918D0510918E05021713074B
:103090004CF43A812B811B830A83032F122F31E0DA
:1030A000398301C019823A812B814A815B8148179B
:1030B000590714F4382F292F632F722F061717077B
:1030C0000CF4B801072E000C880B990B0E948C3071
:1030D0002B013C01EA81FB81BF01FF0F880B990B9B
:1030E0000E948C309B01AC01C301B2010E94232FCE
:1030F0002B013C01B8012A813B81621B730B072E17
:10310000000C880B990B0E948C309B01AC01C30111
:10311000B2010E94F12F20E030E048EC52E40E941E
:10312000A5310E945930653671052CF477FF05C032
:1031300060E070E002C064E670E03981332331F072
:1031400084E690E0AC01461B570BBA0170939E04D5
:1031500060939D0404C090939E0480939D0480918D
:103160004705811104C080914B0480FD05C080910A
:103170004704882309F466C0B10188EF94E0CBD8F6
:1031800080914E04882389F02091B6043091B704D1
:103190004091B8045091B904C501B4010E94A53111
:1031A000AB01BC0185E395E0EDDE6091CB0470914D
:1031B000CC048091CD049091CE040E948C30AB0160
:1031C000BC0188E094E081DC4091BA045091BB04DA
:1031D0006091BC047091BD0484E094E076DC409181
:1031E000B6045091B7046091B8047091B90480E0BE
:1031F00094E06BDC40E050E0BA018CEF93E065DCDA
:1032000040E050E0BA0188EF93E05FDC40910D05AB
:1032100050910E0560910F057091100588EE93E0B6
:1032200054DCB701A60184EF93E04FDC40E050E0AE
:10323000BA0180EF93E049DC40E050E0BA018CEE47
:1032400093E043DC2396E2E10C942F33CF93DF939A
:10325000EC01CB01BA010E948C3025E93FEB46ED31
:1032600053E30E94A531688379838A839B83DF912E
:10327000CF9108950E945E286093AE047093AF04CE
:103280008093B0049093B1048091B4049091B504FC
:103290009093B3048093B204E0E4F4E081E080838F
:1032A000828308958AEA90E00C94C82880914104B2
:1032B000882329F090913F0481E0911180E00895E6
:1032C00090913004992399F1E0918805F0E0EE0F98
:1032D000FF1FE55DFE4F2081318180918F0588239E
:1032E00019F08130B1F00895E0912E04F0912F048F
:1032F0008081982B9083C9010E94C828E0912E04F8
:10330000F0912F04908180913004809589238083EF
:103310000895E0912E04F0912F042D3D35401CF0CE
:103320008081982B03C08081909598239083089585
:103330008091BE049091BF04880F991F8D966AE515
:1033400070E00E94B33277FF03C0685F7F4FFBCF0E
:1033500067707727FB01EF5FFB4F8491089587FD2E
:1033600003C0E6DF0E94B3076091BE047091BF0402
:103370008FE792E00C946B09A0E0B0E0E2ECF9E199
:103380000C941333EC01D6FD0AC08091380481FD02
:103390001FC06D2F81E08C0F0E94DC0E19C015E05C
:1033A00082EB0E94B3070DE0015019F00E94E20881
:1033B000FBCF133011F083EB01C085EC0E94B30703
:1033C0000E94E008115009F3133051F786ECE9CF61
:1033D00086E0D82EDC0E92E0C92ECD0ED4FFB2C00E
:1033E0000091C8041091C904E090C604F090C7048D
:1033F000C701F7FE04C0882799278E199F096AEF35
:1034000070E00E94B332E62F472FC80117FF04C0B7
:1034100088279927801B910B6AEF70E00E94B332D6
:103420002E2F342F261737070CF49B01B9016F5F3D
:103430007F4F7093850360938403072E000C880BE5
:10344000990B0E948C304B015C01B701FF0C880B7B
:10345000990B0E948C302B013C0124EE38E34EE5A1
:1034600052E4C501B4010E94A5319B01AC01C30126
:10347000B2010E94F12F0E945930F62E762EB8012B
:10348000012E000C880B990B0E948C301B012C0123
:103490002DE63BED4EE052E4C501B4010E94A5319A
:1034A0009B01AC01C201B1010E94F12F20E030E08C
:1034B00040E05FE30E94242F0E945930E62EC6FDB3
:1034C00009C036DF6C2D6F19482F8D2D8E0D0E948F
:1034D000C10738C09091A304961304C08091A4043E
:1034E0008F15E1F08091A7049091A8049093AA040D
:1034F0008093A9048091A5049091A6049093A804B8
:103500008093A7048091A3049091A4049093A604AF
:103510008093A504E092A304F092A40400E010E0DC
:10352000F801ED55FB4F87816C2D681B868144E2C5
:103530008D0D0E94C107025011090A3F4FEF140779
:1035400079F7BFCFC7FD0AC06C2D8D2D0E948C0767
:1035500069EC71E08AEC93E00E94832BD5FF8BC06D
:1035600080914704882309F486C080914705811122
:103570007BC06091CB047091CC048091CD0490917C
:10358000CE040E948C309B01AC0160E070E0CB0166
:103590000E94972F21EE3EE245E652E40E94A531BB
:1035A0000E9459306A5071092DE2269FC001279F61
:1035B000900D11246AE070E00E94B332CB01469670
:1035C00069E070E00E94B332663080F400ED081BC1
:1035D0001D2F160F402F612F8CE08C0F0E94C1070A
:1035E000402F612F81E08C0F0E94C1078091CA0497
:1035F00090E020910D0130910E01821B930B91D927
:10360000853B910534F028E631E0A901481B590BB0
:10361000CA019C01245B310948E4429FC001439FD9
:10362000900D11246AE070E00E94B332CB018496C1
:1036300066E070E00E94B33267FF03C0CF5F1CE317
:1036400009C06D301CF0C45F1EE304C01FEB180FEF
:10365000CF5FC60F64E06D0F412F8C2F0E94C10712
:10366000412F6D2F8C2F05C00E949A114BEC6C2DB1
:103670008D2D0E94C107CDB7DEB7E2E10C942F3348
:10368000ACE0B0E0E6E4FBE10C9413336B017C01A9
:103690000E94FC06809147051091470481111CC0CF
:1036A000112301F180914B0480FF1CC06091B6048E
:1036B0007091B7048091B8049091B9040E94593078
:1036C000623071057CF0C0921D05D0921E05E0921B
:1036D0001F05F092200506C0111104C08091480416
:1036E0008111F1CF1093480480918A05853018F03C
:1036F00084E080938A058EEA94E01FD9853C994046
:1037000080F11092B6041092B7041092B80410928F
:10371000B90463E085E00E948C076091B404709165
:10372000B5048091B2049091B304681B790B86EBC9
:1037300091E00E946B0940915F0450916004609198
:10374000610470916204411551056105710531F004
:103750002AE030E08AEC93E00E94B12A83E095E40D
:1037600032C08091440580FF35C0809147048111AB
:103770002DC080911D0590911E05A0911F05B0914F
:103780002005892B8A2B8B2B09F18DE195E0D5D86B
:10379000883B9B40D8F46091350570913605809147
:1037A0003705909138050E9459306630710574F0E4
:1037B00081E0809355040E946C088091AB04809353
:1037C0001D0481E091E00E949C138EC280915504FB
:1037D00081114EC280918A05882321F09091AB041B
:1037E000981718F489E094E040C280914704811151
:1037F0003AC21D821E821F82188640911404242F13
:1038000030E03C872B8735E0439FA0011124FA016B
:10381000E753FB4F85919491909313048093120486
:10382000FA01E553FB4F14910E946C08C12CD12C76
:1038300000E0412C312C212C1A861986512C0117BD
:1038400009F4B5C066246394600EE0901204F09011
:103850001304EC0CFD1CF70185909490662D81E01B
:103860000E948C07B4018AEC93E00E94832B662DA2
:1038700083E10E948C0780910901081306C08EE342
:103880000E94B3075090280302C00E94E208F7018B
:103890003296849131967490833609F43FC040F497
:1038A0008A3509F439C0823671F1811165C07AC058
:1038B0008836D9F088F4863609F05EC0F701349670
:1038C000A591B4918D919D910D90BC91A02D8D836A
:1038D0009E83AF83B88750C0833709F443C08A37CB
:1038E00009F04AC080E1898719C08091260380349D
:1038F00019F46FE471E002C067E471E08AEC93E0D0
:103900000E94832B4FC0F7013496A591B4916C911E
:1039100070E080E090E011C090E29987F701349662
:10392000A591B4916C91062E000C770BE9856E1B66
:103930007109072E000C880B990B0E948C304B01EB
:103940005C01672D70E080E090E00E948A309B016E
:10395000AC01C501B4010E94F12F6D837E838F837A
:1039600098870AC0F70134966591749144E050E05D
:10397000CE0105960E94C00880910901BD81AE81EB
:103980003F812885081304C04B2E3A2E232E2A8708
:10399000F7013896859194914B2F5A2F632F722FF0
:1039A0000E944509FEE0CF0ED11C062D48CF85E0D0
:1039B0002B853C85829FF001839FF00D1124E453F9
:1039C000FB4F85919491009711F0FC01099580912E
:1039D0004F04882309F488C110924F0401E000933A
:1039E000400481E00E9481088739910514F081E04C
:1039F00004C08A369F4F24F48FEF0E94910874C14F
:103A000083E00E948108873991055CF000930901E9
:103A100080911404823019F41092140465C18F5FF0
:103A20000CC08A369F4F64F40093090180911404FE
:103A3000811102C082E001C081508093140454C1FE
:103A4000609109016F5F852D0E948C0780910901AB
:103A5000E0901204F09013043EE0839FE00CF11C10
:103A6000112480E00E9481085C0197FF06C0B19498
:103A7000A194B1089924939401C0912CF701349634
:103A8000C590D490F7013296049131965490842DCC
:103A9000932DA22DBA858D839E83AF83B88704367C
:103AA00030F4023658F40A3509F042C007C0033733
:103AB00069F10A3719F00636D9F528C08DE2A81643
:103AC00081E0B80684F0652D70E080E090E00E940F
:103AD0008A309B01AC0160E070E080E291E40E94DA
:103AE000F12F11E032C097E9A916B1042CF1652D30
:103AF00070E080E090E00E948A309B01AC0160E0C1
:103B000070E080E89FE30E94F12F19C0C50164E6D0
:103B100070E00E94B332FB01EE0FFF1FEE0FFF1F9C
:103B2000ED5CFE4F608171818281938114E008C059
:103B300060E070E0CB0104C060E070E0CB0111E018
:103B4000E5E6AE16B1040CF43BC091109058AB0101
:103B5000BC01CE01059616DAF7013A96659174918B
:103B6000F7013C96A590B490072E000C880B990B9A
:103B70000E948C303B014C019B01AC016D817E8128
:103B80008F8198850E94EA2F87FF04C06D827E8214
:103B90008F829886B501BB0C880B990B0E948C30E4
:103BA0004B015C019B01AC016D817E818F81988509
:103BB0000E949A31181624F48D829E82AF82B886B4
:103BC0008D809E80AF80B884242D332D422D5A8560
:103BD000C501B4010E94EA2F882309F485C0652D30
:103BE00070E080E090E00E948C30A50194010E947A
:103BF000A5310E9459300336A9F028F40A3579F02E
:103C0000023681F01CC0033781F00A3751F00636C6
:103C1000B1F4F60180829182A282B38210C0605E0C
:103C200001C0605FF60160830AC089829A82AB821C
:103C3000BC8244E050E0B601CE01019606C0412F9F
:103C400050E0B60163547340C6010E94500AF6E08A
:103C5000EF0EF11CF70185919491009709F444C08F
:103C6000FC01099541C081EC94E00E943B0B3CC0F3
:103C700080911D049091AB04891721F08093AB04CF
:103C80001092550482E00E948108092E000CAA0BB4
:103C9000BB0BB7FF07C0B095A095909581959F4F3E
:103CA000AF4FBF4F8D329140A105B105D4F483E0F1
:103CB0000E948108092E000CAA0BBB0BB7FF07C09E
:103CC000B095A095909581959F4FAF4FBF4F8D3286
:103CD0009140A105B1052CF480914704882309F493
:103CE00070CD109255046DCD2C96E2E10C942F33DB
:103CF0001F920F920FB60F9211242F933F934F9361
:103D00005F936F937F938F939F93AF93BF93CF9363
:103D1000EF93FF9310923F0480913E048F5F809356
:103D20003E040E945E2860933A0470933B048093A3
:103D30003C0490933D0480917E03811118C0CFB75D
:103D400080916304882379F080917E038F5F809354
:103D50007E0378940E94C8071092630480917E03CA
:103D6000815080937E03789480E0AADACFBFFF91E0
:103D7000EF91CF91BF91AF919F918F917F916F9173
:103D80005F914F913F912F910F900FBE0F901F9019
:103D90001895CF92DF92EF92FF920E946A286B01F2
:103DA0007C0183E00E945229813049F4C0923104A1
:103DB000D0923204E0923304F09234041FC0809118
:103DC000310490913204A0913304B09134040097EF
:103DD000A105B10599F0C81AD90AEA0AFB0AD092DE
:103DE0003604C092350410923104109232041092BD
:103DF00033041092340481E080933704FF90EF90F5
:103E0000DF90CF90089566E970E080E090E00C9438
:103E10008F281F920F920FB60F9211242F933F936A
:103E20004F935F936F937F938F939F93AF93BF93C2
:103E3000EF93FF93AEDFFF91EF91BF91AF919F9111
:103E40008F917F916F915F914F913F912F910F9043
:103E50000FBE0F901F90189565E085E00E948C07BB
:103E600063E171E08AEC93E00E94832B0E945E285C
:103E70004AE050E08AEC93E00E94BE2A80915D0502
:103E80008F3421F480915E058A3171F061E081E028
:103E90000E948C0760915D0570E086EF90E00E94C3
:103EA0006B0981E080935A040E94C807ACCFCF937E
:103EB0000FB6F894A89580916000886180936000A7
:103EC000109260000FBE60E071EE80E090E00E9412
:103ED000F02A4DE450E060E072E083E495E00E9457
:103EE000C0088091430581FD03C08CE398E002C0C7
:103EF00089E298E090931A058093190584B58C7F28
:103F000084BD83E00E94CA290E94C9108091690083
:103F10008C7F826080936900E89A809148058130A7
:103F200059F462E083E00E94F62880916900837F63
:103F3000846080936900E99A5E9A0E94C807789429
:103F400080915F05883341F480916005893321F4C5
:103F500080916105823389F088E380935F0589E36E
:103F60008093600582E38093610543E050E06CE15B
:103F700072E08FE595E00E94500A809188058823C1
:103F800041F1E0918905EE2321F1F0E0EF50FF4F80
:103F9000C49161E08C2F0E94F62860E08C2F0E9473
:103FA00032298C2F90E0FC01EB50F74F2491FC015B
:103FB000EF51F74F849180933004E22FF0E0EE0F41
:103FC000FF1FED5EF64F8591949190932F0480939F
:103FD0002E040E94730740DF0E94B914CF91089508
:103FE000E0910301EF5FE0930301E770F0E0EE0F73
:103FF000FF1FE65AFC4F9183808388E060E070E009
:104000008150E82FF0E0EE0FFF1FE65AFC4F2081B1
:104010003181620F731F8111F3CF80E090E00E9425
:104020008A3020E030E040E05EE30C94A53197FD5B
:1040300005C08F3F910509F01CF4089580E00895B4
:104040008FEF0895CF92DF92EF92FF92CF93DF939D
:104050008091430584FD05C080912204882309F4E2
:10406000A0C0C0910201CF5FC093020180E10E9415
:10407000CD29C770EC2FF0E0EE0FFF1FE65BFC4F81
:104080009183808388E0C0E0D0E08150E82FF0E0A9
:10409000EE0FFF1FE65BFC4F20813181C20FD31F63
:1040A0008111F3CF209126043091270447E0429FED
:1040B000C001439F900D11248C0F9D1F23E0969506
:1040C00087952A95E1F790932704809326048091A1
:1040D000430584FF66C029E53EEE49E050E4609167
:1040E00065057091660580916705909168050E944D
:1040F000A5316B017C01BE0180E090E00E948A3016
:104100009B01AC01C701B6010E94A5310E945E303F
:1041100040911705509118054115510529F47093E8
:1041200018056093170512C09A01220F331F240F40
:10413000351F2E5F3F4FA901460F571F56954795D4
:1041400056954795509318054093170581E0809345
:104150004004E0914C058E2F61E20E949332482F7B
:104160008091170590911805C29664E670E00E9450
:104170009F32F0E09B012E1B3F0BAFEFB0E00E949F
:1041800004335AE2459F900111242E1B3F0B032E4E
:10419000000C440B550B0E94E832C90148DF8093A4
:1041A00012058091430585FF04C080915C04811154
:1041B00005C080912304882309F49DC0C0910101AA
:1041C000CF5FC09301018EE00E94CD29C770EC2F14
:1041D000F0E0EE0FFF1FE65CFC4F9183808388E0E8
:1041E000C0E0D0E08150E82FF0E0EE0FFF1FE65C6A
:1041F000FC4F20813181C20FD31F8111F3CF209159
:1042000028043091290447E0429FC001439F900D4C
:1042100011248C0F9D1FA3E096958795AA95E1F731
:1042200090932904809328048091430585FF63C0FF
:1042300029EA3CEC48E050E46091690570916A0518
:1042400080916B0590916C050E94A5316B017C01FA
:10425000BE0180E090E00E948A309B01AC01C70162
:10426000B6010E94A5310E945E3040911505509123
:1042700016054115510529F470931605609315052F
:1042800012C09A01220F331F240F351F2E5F3F4F9C
:10429000A901460F571F5695479556954795509338
:1042A000160540931505E09185058E2F61E20E9469
:1042B0009332482F8091150590911605C29664E6B9
:1042C00070E00E949F32F0E09B012E1B3F0BAFEF8E
:1042D000B0E00E9404335AE2459F900111242E1B46
:1042E0003F0B032E000C440B550B0E94E832C90112
:1042F0009EDE809311058091430586FD05C0809167
:104300002404882309F482C080912004882351F07A
:1043100020E137E240E050E061E08FE00E94982920
:10432000CB0103C08FE00E94CD29E0910001EF5F37
:10433000E0930001E770F0E0EE0FFF1FE65DFC4F39
:104340009183808388E0C0E0D0E08150E82FF0E0E6
:10435000EE0FFF1FE65DFC4F20813181C20FD31F9E
:104360008111F3CF20912A0430912B0447E0429F22
:10437000C001439F900D11248C0F9D1F33E0969533
:1043800087953A95E1F790932B0480932A048091C6
:10439000430586FF3BC02DE032E348EC5CE36091CF
:1043A0006D0570916E0580916F05909170050E946A
:1043B000A5316B017C01BE0180E090E00E948A3053
:1043C0009B01AC01C701B6010E94A5310E945E307D
:1043D00040911305509114054115510529F470932E
:1043E00014056093130512C09A01220F331F240F86
:1043F000351F2E5F3F4FA901460F571F5695479512
:104400005695479550931405409313058091510597
:104410008695813041F038F1823041F0833039F5B2
:104420008091A10422C081E1B8D708C020E23EE417
:1044300040E050E061E081E17BD7CB01D1DD20910C
:1044400071053091720540917305509174050E9479
:10445000A5310E945E307093A00460939F0481E0B8
:104460008093400435C08091A20490E002C080E0B7
:1044700090E0B6DD0E945E307093A00460939F04CC
:1044800080912504882321F180912104882341F023
:1044900020E137E240E050E061E081E149D703C02C
:1044A00081E17BD7BC0180912C0490912D0447E0E1
:1044B000489F9001499F300D1124620F731F83E0C4
:1044C000769567958A95E1F770932D0460932C0497
:1044D000DF91CF91FF90EF90DF90CF9008958AEC1D
:1044E00093E00E94C20686EC93E00E94E82AEFE483
:1044F000F8E088E992E097A786A78CE992E095AF6B
:1045000084AF80EB92E090939A088093990884EBB3
:1045100092E09093A8088093A70888EC92E090938B
:10452000B6088093B5088CEC92E09093C408809311
:10453000C30808951F93CF93DF931AE086EC93E0AE
:104540000E943D2B882309F421C1C0919903D09189
:104550009A0386EC93E00E945A2B90919603609107
:104560009403462F50E02091980330E02450310905
:10457000C130D105A1F01CF4209751F006C0C23023
:10458000D105B9F0C330D10581F190939603D6CF10
:1045900090939603843291F6C1E0D0E0CFCF84357A
:1045A00019F0C0E0D0E0E4CF90939603C2E0D0E0F1
:1045B000C5CF8E3461F028F4813449F0873449F056
:1045C000F0CF8F3431F0833561F79BE003C09AE080
:1045D00001C092E190939803809395031092940305
:1045E00010929603C3E0D0E0A9CF98274217530753
:1045F00009F0C2C09111D5CF109296030E943A19CA
:1046000080919503873439F0833509F482C0813471
:1046100009F0ACC047C04091860350918703609178
:104620008803709189038FED94E00E9426194091D0
:10463000BE035091BF036091C0037091C10383EE2C
:1046400094E00E9426198091040490910504A091A1
:104650000604B09107048093E7049093E804A093C4
:10466000E904B093EA0460918E0384E6689FB00188
:104670001124072E000C880B990B0E948C3060933C
:10468000B6047093B7048093B8049093B9048091F2
:104690009303982F969596959093DE04837080935C
:1046A000DD0464C02091880330918903129FC0010A
:1046B000139F900D11249093C3048093C204209102
:1046C000860330918703129FC001139F900D112420
:1046D0009093C1048093C00480918A0390918B03CE
:1046E0008C549F4F0E9491149093C5048093C404EE
:1046F0004091DF045091E0046091E1047091E20484
:10470000452B462B472B91F59093BF048093BE0415
:104710002DC08091430584FD0CC08091860390914B
:1047200087039093180580931705809188038093E1
:10473000120580918A038093A20460918B0370E03C
:1047400080E090E00E948A306093BA047093BB04CA
:104750008093BC049093BD0480918C03982F91703A
:104760009093470486958695809308050E94561974
:10477000882309F4E3CE0EC0909396036F5F609395
:104780009403FA01EA57FC4F8083D8CED0939A0362
:10479000C0939903DF91CF911F910895A4E0B0E0F9
:1047A000E4EDF3E20C941533A89588D46B017C01F9
:1047B00028EE33E040E050E00E94C6323093B5046A
:1047C0002093B4042CEDC21625E0D206E104F104D6
:1047D00028F080915A04882309F47EC041D78823A9
:1047E00009F478C04CD78A3031F480919C048F5FF3
:1047F00080939C0402C010929C0480919C0484309D
:1048000068F38CB583608CBD6DEE70E086EC93E050
:104810007AD7B12C00E010E0912CA12CB7EEEB2E52
:10482000B0E0FB2E86ECC82E83E0D82E0F3F11059A
:1048300011F00CF049C014D78823C1F320D782337C
:1048400038F48033D0F48A3089F38D3031F022C0CF
:10485000823701F5015011091DC038E0931219C0CB
:10486000EA2DF0E0EA57FC4F8081B826A394EA2DA8
:10487000F0E0EA57FC4F10820CC0EA2DF0E0EA5756
:10488000FC4F9081990F813309F49F5F908393943B
:1048900001C0912C80E4A812C9CF66E873E0C8017A
:1048A0000E94EC070F5F1F4F1F92BF92FF92EF9283
:1048B000DF92CF924CD70F900F900F900F900F90E8
:1048C0000F90B12CA12CB2CF63EE70E086EC93E098
:1048D0001AD7A6C3C1DAA4C3789406E813E0A0E40B
:1048E0007A2E80914204811108C080914304811185
:1048F00004C080914C04882359F01CDE809142044E
:104900008093430480914004882309F4F6C18FC04A
:10491000F801272D11922A95E9F79FD6CFD34B01A5
:104920005C0134E6830E911CA11CB11CFAEF5F2ED2
:1049300066246A94C3D386169706A806B906A8F01B
:1049400024EC39E040E050E060E080E0F1D46F3FDB
:1049500071058105910509F02CF4662319F066159F
:1049600008F4662E5A945110E5CF8FEF681203C0F9
:104970006090080102C0609208019AE09615B8F4B0
:10498000E2E1E615E0F4FCE1F61500F527E2261574
:1049900020F53BE3361548F585E9861568F580E492
:1049A000E0EC8E2EE2E19E2EA12CB12C2CC082E0F8
:1049B000812C72EC972EAA24A394B12C24C084E0FD
:1049C000812C61EE962EA12CB12C1DC086E0812C8D
:1049D00056E9952EA12CB12C16C088E040E8842E13
:1049E00040E7942EA12CB12C0EC080E1812C3BE439
:1049F000932EA12CB12C07C080E220E8822E25E264
:104A0000922EA12CB12C8093410580925F0490924C
:104A10006004A0926104B092620486EC93E0CFD56A
:104A2000C501B401DDD581E0809343045ACF1091D4
:104A3000AB0480914805833008F454C1833029F4D5
:104A400020913504309136040FC09BEF980F9430BD
:104A500048F4E82FF0E0EE0FFF1FEF5DFE4F2081DE
:104A6000318102C020E030E0A90140525340493971
:104A7000584008F037C140910601509107012417B2
:104A8000350720F43093070120930601409104017B
:104A9000509105014217530720F4309305012093EC
:104AA0000401843049F5809108059AEF980F9230FF
:104AB00008F498C09091F304981789F08093F30458
:104AC00060E070E08FEE94E00E9474119091F30426
:104AD00080910A01981303C081E0809344048FEE13
:104AE00094E00E949D14813D974008F47BC0809122
:104AF000080580930A0176C080914D0581111FC081
:104B000080910401909105014091060150910701A7
:104B100060918A054217530758F4241B350B841BF8
:104B2000950B70E00E949F32C9010E949F3201C024
:104B300060E0161709F456C06093AB0453C060914F
:104B4000430562FF13C080910C0490910D040097FF
:104B500039F0A901481B590B81E0493C510508F483
:104B600080E030930D0420930C0411C040910401A7
:104B7000509105018091060190910701480F591F3E
:104B80005695479581E04217530708F080E060FF93
:104B900010C0882321F081E08093450423C08091D8
:104BA0004504882319F081E0809344041092450461
:104BB00019C08823B9F08090EF049090F004A09081
:104BC000F104B090F2047AD286169706A806B906C8
:104BD00048F481E08093440464EF71E08FEE94E048
:104BE0000E94741180914404882371F0109244044F
:104BF0008091AB048F5F8093AB0490918A059817E6
:104C000020F51092AB0421C08091430587FF1DC0A1
:104C100040910E0450910F046091100470911104A2
:104C2000411551056105710581F08091B4049091A1
:104C3000B504A0E0B0E0481759076A077B0728F4DD
:104C400081E080935604809344040091AB041017D4
:104C500009F448C00E94B91480914305B0905604ED
:104C600087FF09C0BB2039F080918A05882319F09D
:104C7000081709F4BBCF802F0E94AA14282F88237D
:104C800099F08091B4049091B504820F911DA0E039
:104C9000B0E080930E0490930F04A0931004B0939F
:104CA0001104B1101DC00AC0B110A0CF10920E04A3
:104CB00010920F041092100410921104A8E6B4E0B0
:104CC000EAEDF0E084918D9331968111FBCF8091D4
:104CD0006F04800F80936F0463E088E00E9480146B
:104CE0001092560480914104811105C081E08093A7
:104CF000410480933F041092400480914104882332
:104D000009F4C4C080913F048111C0C010924104D5
:104D10009091DD04992319F081E080935204209151
:104D2000470480914904222309F466C180FD0DC027
:104D300010924E048160809349041092F8041092FE
:104D4000F9041092FA041092FB0480914E04882317
:104D500009F442C180914E04882309F48EC08090EA
:104D6000CF049090D004A090D104B090D204C5019B
:104D7000B4019F7725E33AEF4EE85CE30E94A5314A
:104D80000E94EE2F2B013C012091DF043091E004C2
:104D90004091E1045091E204C501B4010E946B0A04
:104DA0004B015C012091E3043091E4044091E5045F
:104DB0005091E6046091D3047091D4048091D5049D
:104DC0009091D6040E946B0AA30192010E94A53122
:104DD0002B013C019B01AC010E94A53169837A83C0
:104DE0008B839C83A5019401C501B4010E94A53168
:104DF0009B01AC0169817A818B819C810E94242F67
:104E00000E940C320E9459306093CB047093CC0402
:104E10008093CD049093CE04C501B4019F770E9486
:104E200059307093C9046093C804C301B2019F77DD
:104E30000E9459307093C7046093C604A301920185
:104E40005058C501B4010E94972F20EE3EE245E67E
:104E500052E40E94A5310E9459306A55710980912F
:104E6000BE049091BF049B01281B390BC9010E940D
:104E700091140E94DF148093CA040E94D417C701C2
:104E8000B6010E94401B81E0809363048091040579
:104E900090910505A0910605B09107058C159D051B
:104EA000AE05BF05A8F464E170E084E095E00E94DF
:104EB0008B1180916304882359F080913F048823EB
:104EC00039F08AE394E00E949D14C39708F0A1C0D2
:104ED0008091000590910105A0910205B091030514
:104EE0008C159D05AE05BF0528F564E670E080E0F1
:104EF00095E00E948B11A6D89091500481E08927FB
:104F0000809350048823B1F080915E04882369F077
:104F10008F5F80935E04833068F08091AC048F5F74
:104F20008093AC0410925E0405C08091AC048F5F46
:104F30008093AC048091FC049091FD04A091FE0448
:104F4000B091FF048C159D05AE05BF0508F068C043
:104F500064EF71E08CEF94E00E948B1181E080930C
:104F6000400480934F049091AD049F5F9093AD04F3
:104F700090914C04982790934C04992309F450C0C5
:104F80008093460480915B04882399F08091E0032C
:104F90009091E103A091E203B091E3030196A11D7A
:104FA000B11D8093E0039093E103A093E203B093DB
:104FB000E30380913E04853050F4809142058F5F79
:104FC00080934205843028F00E94630702C010924B
:104FD000420510923E0424C0933008F4BBCE8CE00E
:104FE000EFEDF4E0AFECB4E001900D928A95E1F7BB
:104FF00081E080934E04AECE80FFA7CE20915D0469
:10500000222309F4A2CE10924E048E7F809349048D
:105010009CCE10923F040E94C8071092630458CFA0
:105020002496E0E10C9431331F920F920FB60F9249
:1050300011242F933F938F939F93AF93BF938091AE
:10504000910590919205A0919305B09194053091AE
:10505000900523E0230F2D3720F40196A11DB11DEB
:1050600005C026E8230F0296A11DB11D20939005CF
:105070008093910590939205A0939305B093940526
:105080008091950590919605A0919705B09198050E
:105090000196A11DB11D8093950590939605A0934F
:1050A0009705B0939805BF91AF919F918F913F91D4
:1050B0002F910F900FBE0F901F9018952FB7F89457
:1050C000609191057091920580919305909194055E
:1050D0002FBF08953FB7F89480919505909196055C
:1050E000A0919705B091980526B5A89B05C02F3FC4
:1050F00019F00196A11DB11D3FBFBA2FA92F982FFE
:105100008827820F911DA11DB11DBC01CD0142E078
:10511000660F771F881F991F4A95D1F708958F92C0
:105120009F92AF92BF92CF92DF92EF92FF926B016C
:105130007C01D0DF4B015C01C114D104E104F10416
:10514000F1F0F5D0C7DFDC01CB0188199909AA0974
:10515000BB09883E9340A105B10570F321E0C21A56
:10516000D108E108F10888EE880E83E0981EA11CA2
:10517000B11CC114D104E104F10421F7DDCFFF908B
:10518000EF90DF90CF90BF90AF909F908F90089559
:105190008230910538F0880F991F880F991F059765
:1051A0000197F1F70895789484B5826084BD84B541
:1051B000816084BD85B5826085BD85B5816085BD12
:1051C000EEE6F0E0808181608083EAE7F0E08081B4
:1051D000846080838081826080838081816080831D
:1051E0008081806880831092C1000895CF93DF93FF
:1051F00090E0FC01EF51F74F2491FC01EB50F74F89
:105200008491882361F190E0880F991FFC01E35E8F
:10521000F64FC591D491FC01ED5EF64FA591B49186
:10522000611109C09FB7F8948881209582238883F3
:10523000EC912E230BC0623061F49FB7F894388153
:10524000822F809583238883EC912E2B2C939FBFF4
:1052500006C08FB7F894E8812E2B28838FBFDF918B
:10526000CF91089590E0FC01EF51F74F2491FC019C
:10527000EB50F74FE491EE23A1F0F0E0EE0FFF1FAB
:10528000ED5EF64FA591B4918FB7F894611105C00A
:105290009C91E22FE095E92302C0EC91E22BEC9384
:1052A0008FBF089590E0FC01E353F74F2491FC0178
:1052B000EF51F74F3491FC01EB50F74FE491EE239F
:1052C000A1F1222339F1233091F038F42130A9F0F3
:1052D000223001F584B58F7D12C0273091F028303F
:1052E000A1F02430B9F4809180008F7D03C08091BB
:1052F00080008F77809380000DC084B58F7784BD48
:1053000009C08091B0008F7703C08091B0008F7D7D
:105310008093B000F0E0EE0FFF1FE75FF64FA5911E
:10532000B491EC913E2381E009F480E00895089562
:105330000F931F9390E0FC01EF51F74F7491FC0124
:10534000EB50F74FE491662311F0672F01C060E046
:10535000F0E0EE0FFF1FE75FF64F85919491890112
:105360009A013F70462F672F0E9440056115710515
:105370008105910549F0DC01CB010196A11DB11D0C
:10538000BC01CD019F7003C060E070E0CB011F91B4
:105390000F91089580930F0108958E3008F08E507C
:1053A000877020910F0190E4299F90011124822B96
:1053B00080937C0080917A00806480937A00809151
:1053C0007A0086FDFCCF809178002091790090E0F2
:1053D000922B0895A0E0B0E0E0EFF9E20C941D33C9
:1053E0006C017A018B01C0E0D0E0CE15DF0589F0B9
:1053F000D8016D918D01D601ED91FC910190F08164
:10540000E02DC6010995892B11F47E0102C0219679
:10541000ECCFC701CDB7DEB7E8E00C9439336115A6
:10542000710581F0FB0101900020E9F73197AF0190
:10543000461B570BDC01ED91FC910280F381E02DBE
:105440000995089580E090E00895E9CF0895DC0182
:10545000ED91FC910190F081E02D099508954F9216
:105460005F926F927F92EF92FF920F931F93CF9371
:10547000DF93CDB7DEB7A1970FB6F894DEBF0FBEAE
:10548000CDBF7C01FA01CB0119A2223008F42AE039
:105490008E010F5D1F4F422E512C612C712CBF01CC
:1054A000A30192010E94C632F901CA0101501109FB
:1054B0006A3014F4605D01C0695CD8016C93232BE1
:1054C000242B252B61F7B801C701A9DFA1960FB6E0
:1054D000F894DEBF0FBECDBFDF91CF911F910F912A
:1054E000FF90EF907F906F905F904F900895A0E0B5
:1054F000B0E0EDE7FAE20C941D338C016A017B0108
:105500002115310549F4DC01ED91FC910190F08108
:10551000E02D642F09951AC02A30310599F477FFE0
:1055200010C06DE294DFEC0144275527BA014C19F5
:105530005D096E097F092AE0C80191DF8C0F9D1F6C
:1055400005C02AE0B701A601C80189DFCDB7DEB7E3
:10555000E8E00C9439339A01AB01770F660B770BB7
:10556000C6CF2115310549F4DC01ED91FC91019084
:10557000F081E02D642F0995089571CF9A01AB0158
:1055800060E070E0EECF08950EDEFDDF0E94571F51
:1055900005D9FECF9091C100892F807194FF0EC074
:1055A00090911F0680912006981302C080E0089514
:1055B000E0912006F0E0E356FA4F80810895EFE194
:1055C000F6E081818083EDE1F6E0808181830895BA
:1055D000FC011382128227E331E031832083089596
:1055E0009B01AC018091C10084FD1092C10010921A
:1055F0001E0610921D061092200610921F0612160B
:10560000130614061506ECF4211581EE3807410542
:105610005105F1F082E08093C00060E079E08DE315
:1056200090E0D6D7CA01B901615071098109910989
:1056300022E030E040E050E0CBD73093C50020932B
:10564000C40088E98093C10086E08093C200089579
:105650001092C00020E130E0F0CF1092C100089518
:105660009091C100892F807194FF06C080911F0620
:1056700090912006891B8F770895F2CF089590911D
:10568000C100892F807194FF14C090911F068091F2
:105690002006981302C080E00895E0912006F0E013
:1056A000E356FA4F8081909120069F5F9F779093F9
:1056B00020060895E4CF08959091C10094FF15C08D
:1056C00090911D069F5F937020911E069217E1F343
:1056D000E0911D06F0E0E756FA4F808390931D0697
:1056E0008091C10080628093C1000895862FE4DF1D
:1056F00081E090E00895DC01ED91FC910190F08152
:10570000E02D099508950F931F93CF93DF938C019C
:10571000FB016491EF012196662321F0C801EBDFC4
:10572000FE01F7CFDF91CF911F910F910895A0E077
:10573000B0E0ECE9FBE287C79E01275F3F4F4F8156
:10574000588560E08D819E8112D0E2E098C7A0E08C
:10575000B0E0ECEAFBE277C79E01275F3F4F4F8145
:10576000588561E08D819E8102D0E2E088C7A4E186
:10577000B0E0ECEBFBE257C77C016C871A016901D2
:10578000CE0101964C01F1012C8520FD059120FFF1
:1057900001911F01002309F43BC3053241F420FDB0
:1057A000059120FF01911F01053261F405C00A3007
:1057B00019F46DE0C7019FDF602FC7019CDF560120
:1057C0006501E1CF10E0512C712CFFE1F715D8F005
:1057D0000B3279F038F4003279F00332A1F4F72D6E
:1057E000F0612EC00D3261F0003369F4272D216085
:1057F0002DC0872D8260782E972D9460792E2AC037
:10580000E72DE86015C077FC2EC080ED800F8A3050
:1058100088F476FE06C02AE0129F800D1124182F0E
:1058200019C09AE0599E800D1124582EE72DE06290
:105830007E2E10C00E3231F476FCEAC2F72DF064F1
:105840007F2E08C00C3621F4272D2068722E02C04E
:10585000083649F4F1012C8520FD059120FF0191C6
:105860001F010111B2CF8BEB800F833020F4872D05
:105870008061005E07C08BE9800F833008F056C15D
:10588000872D8F7E86FF16E08F73782E053611F4F4
:10589000806403C0063619F48068782E02C01111A6
:1058A000115077FE06C01C3350F444244394410E3B
:1058B00008C0183040F0412C27E017E006C04CE348
:1058C000442E27E002C0212F412C560194E0A90E5E
:1058D000B11CF6016081718182819381042DA40144
:1058E0000E94E3056C01098100FF02C003FF07C0AD
:1058F00071FC08C072FE09C030E2632E07C02DE2C1
:10590000622E04C09BE2692E01C0612C802F8C7036
:1059100019F0611044C275C277FE0FC04C0C04FF31
:1059200004C08A81813309F44A94141474F5F8E0B0
:10593000F41578F588E0482E2CC076FC2AC0812F1B
:1059400090E08C159D059CF02CEFC2162FEFD2062F
:1059500074F0872D8068782E0AC0E2E0F0E0EC0F4A
:10596000FD1FE10FF11D8081803319F411501111D9
:10597000F4CF77FE0EC044244394410E812F90E073
:10598000C816D9062CF41C1904C04424439401C041
:1059900010E077FE06C01C141D0434F4C601019605
:1059A00005C085E090E002C081E090E061100196C2
:1059B000112331F0212F30E02F5F3F4F820F931FD3
:1059C000252D30E08217930714F4581A01C0512C8A
:1059D000872D897039F4552029F060E2C7018BDEEC
:1059E0005A94F9CF662019F0662DC70184DE73FC46
:1059F00007C0552029F060E3C7017DDE5A94F9CF36
:105A000077FE54C09C2D8D2DD7FE02C090E080E023
:105A1000692E782E1E861D86F601E419F109F88B91
:105A2000EF87C601861997099A8B898B612F70E0E1
:105A3000EE27FF27E61BF70BFC8BEB8BFFEF6F16B8
:105A40007F0619F46EE2C70156DEC614D7047CF057
:105A50008F8598898615970554F4ED85FE8589898B
:105A60009A89E80FF91FE80DF91D618101C060E313
:105A700091E0691A7108ED85FE853196FE87ED8704
:105A80008B899C89681679061CF0C70134DED6CF55
:105A90006C147D0409F047C08A81863328F485336D
:105AA00009F041C004FD3FC061E33DC06A8161333C
:105AB00009F00F7EC7011FDE111104C074FC13C072
:105AC00065E612C06EE2C70116DE82E066246394CA
:105AD000680EF401E80FF11D6081C7010CDE115062
