:1000000054C500000C94AD270C94252876C500003B
:1000100074C5000072C5000070C500006EC5000008
:100020006CC500006AC5000068C5000066C5000018
:1000300064C5000062C5000060C500005EC5000028
:100040000C943C305AC500000C9465100C948B1035
:1000500054C5000052C5000050C500004EC5000048
:100060004CC500004AC50000CB1CCF1CEE1C061D71
:10007000FC1C121D1E1D351D4B1DD71CD71C084A0C
:10008000D73B3BCE016E84BCBFFDC12F3D6C7431AC
:100090009ABD56833DDA3D00C77F11BED9E4BB4C03
:1000A0003E916BAAAABE000000803F05A84CCDB2CD
:1000B000D44EB93836A9020C50B9918688083CA6AE
:1000C000AAAA2ABE000000803F0664EC1B3C04BCC8
:1000D000163E3BE5B93CC93C37C29E5A3D66049882
:1000E000083EEA69AAAA3E000000803F0302010020
:1000F00053637265656E20300052464600666F6E2F
:10010000742075706C6F6164696E672000464400EE
:1001100043440023736574757020646F6E650A0034
:10012000100E0F1142616420436F6E6669673A20BA
:100130002564206D79203739004D696E696D4F5304
:10014000442D4578747261204D41564C696E6B2088
:10015000322E34FF756E692072393234204456FFD6
:100160000001000A006400E80320284E545343298C
:1001700000202850414C290025372E3266002536B4
:100180002E3166009125372E326600A125372E329A
:10019000660078010B68F305007E018F68A60600F3
:1001A0007E011473EB05007E011D73E305007E01E3
:1001B0001268E7050084019076DB05008B01A076CC
:1001C000D705007E01BD61DF05007E015777D305AD
:1001D000007E010166A206004E6F20696E70757484
:1001E000206461746121202575FF00B8B9002534B1
:1001F000690507002534690506006F7665726C6F26
:1002000061640066726F7A656E0053747265616D29
:10021000002534690500FF20CECECECE60CECECEF6
:10022000CE00FF20202024CB7C40CB240082808184
:1002300080818084808180818083808180818085AD
:10024000808180818020C8C8C8C87EC8C8C8C8202E
:10025000FF0020202024CBB8B9CB24202020FF0091
:100260002058650025322E3066002520342E306659
:10027000002520342E3166002520342E32660052AF
:1002800025332E306605005025332E306605004894
:1002900025332E306605004225352E316605004592
:1002A00025352E3166004525342E30666D007345A8
:1002B00025352E3166007F026E69A0060087026E2A
:1002C000699E06008F026E699C0600970254699A27
:1002D00006009F024168930600A602586985060041
:1002E000AE0241738F06002090910025352E3166B5
:1002F00000432564253569FF002569002E253464F7
:10030000001F1C1F1E1F1E1F1F1E1F1E1F253032F9
:1003100069FF003A253032693A00202078202079A0
:1003200020207AFF0020B3FF20B3FF20C5FF20B3B9
:10033000FF20B300B2FFB2FFC6FFB2FFB200B0B100
:10034000B4B5B6B77B7D327C8900EDD96877000003
:1003500000590000000000000000D69FDCA818171C
:10036000AA90437327F6B968EDF4DED409FEE61CC3
:100370001C84DDE80B992927D6DF8D210F03641833
:10038000EFEE1E99B7825276941500347C00002659
:10039000149E988F0000006A31168F8C059600E736
:1003A000B73F3600000000000000AF669ED0385D09
:1003B0008A6C20B95422007CED044C80387486EDA0
:1003C000CBFA57CBDC19E2001DDF5506E5CB01C3A4
:1003D0000000000000000000009AB20086DBD0BCE4
:1003E0005416131586004E44BD7F6F1515900100FD
:1003F00000B50000000000002F0000AEE500000086
:1004000000000000000000470000000000000000A5
:1004100000000000000000000000000000000000DC
:1004200000000000000000000000000000000000CC
:10043000000000000000005A00000000000008CC8E
:1004400031AA2C532E0002060A0F141E2D3C060161
:10045000020203050A0A0B020C01155C22000103CB
:100460000D0002FC0C0003DB17BC84A6172605C791
:100470000C000715150034DD0F0335D90F04180AD9
:100480000D000617170008BC1400094C2200253B7C
:1004900013008B2E120B0AB40C0019970F000DA637
:1004A000165C11C513111645121212AC1214179EC8
:1004B0001213136B0D0214750C7F0F0118BD2E5B08
:1004C0000E571B34181D9C5511151D3713000E7B3C
:1004D00018091EE2180021F90D0020F80F00226013
:1004E000128F2472131F2B480E1F2C0B11002DE4AA
:1004F00010002FC71000A7620F00A85F0F00A95CB3
:100500000F00AA590F001FDD0E0026660E0030E90D
:100510000B0031A50D0033B20B0023971400322CD1
:1005200014009A721500000000005C050C00003EEB
:1005300005054F0B140909940B0000000000540638
:10054000680000003A066642042547066646042510
:100550001E06664A04252C06664E04250707000081
:100560000000F70642190400E80642520400DA06C9
:1005700062180410C80662170410B706621F041040
:10058000AA06622004109A06000000008C0662573A
:10059000041183066216041273065A540413650686
:1005A0007A530414D405CF05CA050000FF000100EA
:1005B000040000000300E1FF1F00F1FF0F00FCFF3B
:1005C0000400C0E0401F9CFF6400252E3366002518
:1005D0002E30660025332E316676003420285253A3
:1005E000534929204B0033202843757272656E747D
:1005F00029204B00322028563229204B0020202071
:10060000202020204100312028563129204B002075
:10061000202050696E2053656E736F727300526FA5
:100620006C6C2020696E204E5453430050697463F3
:100630006820696E204E54534300526F6C6C20202A
:10064000696E2050414C00506974636820696E20C7
:1006500050414C002020486F72697A6F6E20616EA5
:10066000676C657300566572746963616C206F66B0
:10067000667300486F72697A6F6E74616C206F6682
:10068000667300436F6E74726173740053637265B6
:10069000656E7320436F756E74002020536372651E
:1006A000656E20706172616D7300525353492077FB
:1006B00061726E696E670042617474206368617272
:1006C0006765207761726E004F766572737065653D
:1006D00064207761726E696E67005374616C6C2080
:1006E0007761726E696E67004261747420322077A0
:1006F00061726E696E670042617474657279207709
:1007000061726E696E67002020204F53442073652C
:10071000747570002E253032640043256920003B3B
:100720000794070D08F007DC073607DC07DC073104
:1007300007696E6974006D6973730061726D00946E
:1007400007F50717088F0712088A07850780077BB8
:1007500007DC070808FA07FE07DC07DC0703087652
:100760000771076C076707716C6F690071686F76B6
:10077000007173746200696E6974006174756E0053
:100780006372757A006662776200666277610074F0
:10079000726169006D616E7500170812080D080816
:1007A000080308FE07FA07F507F007EB07E607E17D
:1007B00007DC07D707D207CD07C807C407BF0774F0
:1007C0006872770062726B00686F6C640074756E9B
:1007D0006500666C69700073707274006D5F2564EB
:1007E0000064726966006F666C6F006C616E640015
:1007F000706F736800636972630072746C006C6F71
:1008000069740067756964006175746F00616C7468
:1008100068006163726F0073746162002A082408C3
:100820003708310825392E3566002531302E3666D9
:10083000002530356C64002530366C6400B808AF94
:1008400008A40897088C087F08730868085C08519A
:100850000846656E636520466172210046656E63D9
:10086000652048696768210046656E6365204C6FA6
:10087000772100426174742042206C6F7721004818
:10088000696768205653706565642100204C6F7756
:100890002052737369210042617474657279204C2F
:1008A0006F7721004F766572537065656421002073
:1008B000205374616C6C21004E6F204750532066AA
:1008C0006978210025342E30660025342E316600EB
:1008D00025342E32660025352E3266002532690019
:1008E000253369002534690025332E30660052B85F
:1008F0000E4085EB51401966BB0012800C1CA01401
:100900001E666666400000803F100CBA000A0000B8
:100910001BE8031A0F06000000000606738002257C
:10092000FD0573840227F40573000025FD0573009F
:100930000027E60573000026FD0573000027DB0590
:1009400073000026FD057300002700000008000268
:100950000100000304070000000000000000010285
:10096000040810204080010204081020010204083D
:10097000102004040404040404040202020202021B
:1009800003030303030300000000230026002900E3
:1009900000000000250028002B00000000002400BB
:1009A00027002A006E616E00696E660000407A10B2
:1009B000F35A00A0724E18090010A5D4E80000E810
:1009C0007648170000E40B54020000CA9A3B00006E
:1009D00000E1F505000080969800000040420F00FD
:1009E0000000A08601000000102700000000E803BE
:1009F000000000006400000000000A000000000089
:100A00000100000000002C76D888DC674F0823DF47
:100A1000C1DFAE59E1B1B796E5E3E453C63AE6511A
:100A2000997696E8E6C28426EB898C9B62ED407C41
:100A30006FFCEFBC9C9F40F2BAA56FA5F490055ADD
:100A40002AF75C936B6CF9676DC11BFCE0E40D4702
:100A5000FEF520E6B500D0ED902E03009435770525
:100A60000080841E080000204E0A000000C80C33DD
:100A70003333330F986E12831141EF8D2114893B6C
:100A8000E65516CFFEE6DB18D1844B381BF77C1DEC
:100A9000901DA4BBE424203284725E228100C9F13F
:100AA00024ECA1E53D279A08A22B11241FBECFEF0D
:100AB000D8E0DEBFCDBF11E0A0E0B1E0EAEBF7E7A0
:100AC00002C005900D92A234B107D9F727E0A2E445
:100AD000B1E001C01D92A634B207E1F715E0C5E50B
:100AE000D5E004C02197FE010E941B3BC335D1070E
:100AF000C9F70E94C2320C94153782CACF92DF9296
:100B0000EF92FF920F931F93E82FF92F05C001502A
:100B100011092109310961F1908196239417B9F3E4
:100B200005C0015011092109310911F19081962365
:100B30009413F7CFC12CD12CE12CF12C0AC08FEFEC
:100B4000C81AD80AE80AF80A0C151D052E053F0533
:100B500079F080818623841791F36C2D7D2D8E2D65
:100B60009F2D1F910F91FF90EF90DF90CF900895F0
:100B700060E070E080E090E01F910F91FF90EF90B7
:100B8000DF90CF900895FA01AA27283051F1203143
:100B900081F1E8946F936E7F6E5F7F4F8F4F9F4F11
:100BA000AF4FB1E03ED0B4E03CD0670F781F891F53
:100BB0009A1FA11D680F791F8A1F911DA11D6A0F21
:100BC000711D811D911DA11D20D009F468943F91D4
:100BD0002AE0269F11243019305D3193DEF6CF01D3
:100BE0000895462F4770405D4193B3E00FD0C9F799
:100BF000F6CF462F4F70405D4A3318F0495D31FD06
:100C00004052419302D0A9F7EACFB4E0A695979558
:100C1000879577956795BA95C9F70097610571052E
:100C200008959B01AC010A2E069457954795379578
:100C30002795BA95C9F7620F731F841F951FA01DD2
:100C40000895283008F027E03327DA01990F311D85
:100C500087FD916000966105710539F432602E5F61
:100C60003D9330E32A95E1F708959F3F30F08038B7
:100C70007105610509F03C5F3C5F3D93913008F0E0
:100C80008068911DDF93CF931F930F93FF92EF9294
:100C9000192F987F9695E92F96959695E90FFF273E
:100CA000EA5FF54F99273327EE24FF24A701E701D8
:100CB00005900894079428F4360FE71EF81E491F84
:100CC000511D660F771F881F991F0694A1F7059085
:100CD000079428F4E70EF81E491F561FC11D770F11
:100CE000881F991F661F0694A1F70590079428F4A2
:100CF000F80E491F561FC71FD11D880F991F661F69
:100D0000771F0694A1F70590079420F4490F561F0A
:100D1000C71FD81F990F661F771F881F0694A9F752
:100D200084911095177041F0D695C79557954795C2
:100D3000F794E7941A95C1F7ECEAF9E068941590F6
:100D4000159135916591959105907FE27395E11824
:100D5000F10A430B560BC90BD009C0F7E10CF11E89
:100D6000431F561FC91FD01D7EF4703311F48A959E
:100D7000E6CFE894015030F0080F0AF4002702177C
:100D800008F4202F2395022F7A3328F079E37D93FE
:100D90002A95E9F710C07D932A9589F606949795D0
:100DA0006795379517951794E118F10A430B560B81
:100DB000C90BD00998F023957E9173957A3308F08A
:100DC00070E37C932013B8F77E9170617D9330F0CF
:100DD000839571E37D9370E32A95E1F71124EF90F9
:100DE000FF900F911F91CF91DF91992787FD9095EB
:100DF000089580E0089580E0089580E008950895C2
:100E0000FC01138212822FE131E0318320830895A7
:100E10008EBD0DB407FEFDCF8EB56EBD0DB407FEC1
:100E2000FDCF8EB508958EBD0DB407FEFDCF8EB5F6
:100E30008FEF8EBD0DB407FEFDCF8EB508956FE028
:100E400070E080E090E00C94B730682F80E0E0CF55
:100E5000882311F080E401C080E09091240398176A
:100E600041F0809324035E98809124038C61EDDF30
:100E70005E9A08955E988091110481FD06C080916C
:100E8000100483FF19C081E018C080EACCDF80FF26
:100E900006C081E0DDDF80911004886007C081FF1B
:100EA00008C080E0D5DF80911004877F8093100414
:100EB00005C082FDE4CF02C080E0CADF5E9A0895DB
:100EC000CF93DF93E0911604E43008F0E0E0F0E027
:100ED000E451FF4FC49180E1D1E0D80F6C2F98DF2F
:100EE0008D2FD032C9F7DF91CF9108955E98E8DF5A
:100EF0006091540482E08CDF6091530483E088DFCA
:100F00005E9A08955E988CEE8EDF682F6F7E8CE679
:100F10007FDF62E18CE07CDF809124038C6395DFCE
:100F20000E94A727809124038C618FDFDFCFCF93AE
:100F3000DF935E98CFE0DFEF80EA75DF877059F4CA
:100F4000C150C15030F0DEBD0DB407FEFDCF8EB5EF
:100F5000F8CF75DFF1CF80912403826076DF6FDFF9
:100F6000D1DFDF91CF91089561E086E00E941E31CC
:100F700062E082E00E941E3161E08AE00E941E3140
:100F800061E08AE00E945A31D2DF74DFBBCF20914A
:100F900025038091260390E03EE1239F800D911D63
:100FA0001124909343018093420108958F7180939F
:100FB00026036F706093250380912403803411F021
:100FC000673008F4E4CF635060932503FBCF909122
:100FD0002503690F90912603890F9EE1699FB00157
:100FE0001124680F711D70934301609342010895AD
:100FF0002091420130914301203E91E0390758F49D
:10100000A9014F5F5F4F5093430140934201F901A3
:10101000EC5BFE4F808308958F3F31F48091250370
:101020008F5F80932503B3CFE3CF862FF5DF81E079
:1010300090E00895CF93C42FCADF8C2FEDDFCF91BE
:1010400008955E9860E085E0E3DE60E086E0E0DE43
:1010500061E084E0DDDE5E9AE4E4F1E080E25E9847
:1010600090819EBD0DB407FEFDCF9EB581935E9A23
:1010700093E0E432F90798F35E988FEF8EBD0DB4DC
:1010800007FEFDCF8EB55E9A08950F931F93CF9301
:10109000DF93182FD62FC72F5E9880E0D6DE612F02
:1010A00089E0B6DE0D2F1C2FC0E0F801D1918F0131
:1010B0006C2F8AE0ADDE6D2F8BE0AADECF5FC633EA
:1010C000A1F760EA88E0A4DE80EAADDE85FF03C018
:1010D0000E94EF1BF9CF8CE0B8DE5E9ADF91CF91D2
:1010E0001F910F910895A1E0B0E0E9E7F8E00C94BA
:1010F0009E3B1CBC8F7280658CBD8DB581608DBDA3
:101100008DB589838EB589832196E2E00C94BA3B34
:1011100061E08DE00E941E3161E08BE00E941E3193
:1011200060E08CE00E941E3161E08AE00E941E3186
:1011300080E0D9CF87E293E0EBCFFB0120818227CB
:1011400090E1899F900111242827822F90E0582F49
:1011500044279C0163E0220F331F6A95E1F7422781
:101160005327218130E02427352774E09595879512
:101170007A95E1F7822793279183808308959C01D4
:10118000862FB901DACFE82FF0E0EE0FFF1FED5800
:10119000F94F20813181662329F040E253E088E94C
:1011A00098E004C048EE53E080ED97E0241735073F
:1011B00080F0241B350B841B950B65E070E00E94CA
:1011C000B63AC9010E94B63A862F653018F084E01D
:1011D000089580E00895A3E7B6E0EAEFF5E08081A6
:1011E0009181883E934028F48D919C911197918331
:1011F00080833296129686E0E230F80781F70895F0
:1012000090E0880F991FDC01AD58B94FFC01E65002
:10121000FA4F8D919C9120813181821B930B08950F
:10122000E091F90535E0E39FF0011124E45DFA4F08
:10123000949191502091100160915A0370915B0339
:1012400087FF03C0222339F004C0882311F0291737
:1012500021F0280F03C0292F01C020E0FB0136E058
:10126000239FE00DF11D1124339645915491452B98
:1012700039F3209310010895EF92FF920F931F937B
:10128000CF93DF938C01040F151FEC017B01E81A4B
:10129000F90AC017D10739F0C7018C0F9D1F0E94B2
:1012A000C53B8993F6CFCDB7DEB7E6E00C94B63BED
:1012B000A2E0B0E0EEE5F9E00C949E3B90910A06C6
:1012C000682F70E0660F771F80E8989F600D711D92
:1012D000112442E050E0CE010196CEDF89819A814F
:1012E0002296E2E00C94BA3BA0E0B0E0EAE7F9E035
:1012F0000C94993BEB017C018B01040F151FC01767
:10130000D10771F0F701D1907F01CE010E94C53B5A
:101310008D1521F06D2DCE010E94CD3B2196EFCF92
:10132000CDB7DEB7E7E00C94B53B692F3FCECF9346
:10133000DF9388E871DEC2E1D1E088816DDE8981CA
:101340006BDE8EE869DEDF91CF910895CF93813116
:1013500010F08051FCCF811101C080E1880FCEEFE9
:10136000C80F80E98C0F58DE81E98C0F55DECF91D4
:10137000089585E251CE80E24FCE8FEF4DCEABE0A7
:10138000B0E0E5ECF9E00C948E3B809124038034CE
:1013900089F48090460490904704A0904804B0904F
:1013A0004904C0904204D0904304E0904404F0907B
:1013B000450410C080904E0490904F04A0905004BB
:1013C000B0905104C0904A04D0904B04E0904C047B
:1013D000F0904D048091EC039091ED03BC01990FC6
:1013E000880B990B0E9496389B01AC01C701B6018E
:1013F0000E94AF396B017C0180917B0380FF04C0A8
:10140000F7FAF094F7F8F094C701B6010E94633838
:10141000AB016A35710540F09B012D543F4F2935D2
:10142000310580F477FDA901473451052CF54A3187
:10143000510534F54A30510540F128E02A8713EF71
:1014400030ED27C06B3571051CF0AB01435B5109D2
:10145000CA0157FF03C09195819591098734910581
:10146000D0F48A319105E0F40A9700F148E04A8708
:1014700015EF82EE8B871FC01A861DEC91EC14C00D
:10148000E7E0EA8718EFF9ED15C029E02A871DEC9F
:1014900036EC3B8710C01A861DEC41EC4B870BC025
:1014A00087E08A871BEF9BEE9B8705C0E9E0EA8710
:1014B0001DECF6ECFB8727EA32E94BE25CEBC50159
:1014C000B4010E94AF394B015C0125E33AEF4EE8CD
:1014D0005CE3C701B6010E94AF396C837D838E83C4
:1014E0009F839CE0292E312C19822A85022E000C24
:1014F000330B398728878981C82E880FDD086091D2
:10150000EA037091EB036C0D7D1D072E000C880B18
:10151000990B0E949638A50194010E94AF390E9450
:10152000573A20E030E044EB52E40E94AF392B01FF
:101530003C0120E030E0A9010E94A43920E030E025
:1015400040E05FE387FD0BC0C301B2010E942E376C
:101550000E9463387B01EDE2EE0EF11C0AC0C3016C
:10156000B2010E942D370E9463387B01FDE2EF0E2D
:10157000F11C0DE00219222733272C193D093B836A
:101580002A83802F90E0281639060CF46FC06C81F6
:101590007D818E819F810E94573A2B013C013CE066
:1015A000039F602D11246E54062E000C770B880BC0
:1015B000990B0E9496389B01AC01C301B2010E94B5
:1015C000AF390E946338F701E60FF71FCF0101978B
:1015D0008A35910508F048C062E170E00E94CA3A7D
:1015E0003B014A85442379F031962EEE2603C00153
:1015F000279F900D1124E80FF91FF7FD3196F595FF
:10160000E7955E2E01C0512C64E066198FEF800FC4
:10161000DEDC3981332379F0053069F4B601D7FE79
:1016200002C06A817B814AE050E080E393E00E943F
:10163000BB3206E003C08B85850DEEDC5520A1F0A2
:10164000252D30E088859985281739076CF094E0BE
:101650006916710449F0E52DE10F4AEF4E0F63E082
:1016600066198FEF800FE6DC0F5F8BCFF7FE0BC0A4
:10167000E981E25EE98334E0231A310844E024166C
:10168000310449F038CFFBE5EF16F10424F029814D
:101690002E512983F0CF2B96E2E10C94AA3B66E011
:1016A00089E084DC6CCEA8E1B0E0E9E5FBE00C94D5
:1016B0009D3B182F88E1189FB001112460587D4F81
:1016C00048E150E0CE010196D7DDE12FF0E0EE0FCA
:1016D000FF1FE759FC4F6081718180E090E00E941C
:1016E000943829813A814B815C810E94AF392D81E8
:1016F0003E814F8158850E942E379F938F937F9311
:101700006F93CE0109969F938F9380E393E09F930D
:101710008F930E949E330FB6F894DEBF0FBECDBFED
:101720006896E3E00C94B93BCF936AE086E03EDC38
:10173000C0E08C2FB8DF21DECF5FC430D1F7CF916E
:1017400008957F936F939F938F9380E393E09F938C
:101750008F930E94AF330F900F900F900F900F90C8
:101760000F900895EF92FF920F931F93CF9304E38E
:1017700013E0C0E096FD1CC089E0E82EF12CF801D2
:10178000819191918F018C549440B7010E94B63A97
:1017900085E197E0D6DFC13011F4EFDD01C0EBDD6C
:1017A000CF5FC43061F70FC0E6DDCF5FC43059F0C2
:1017B000F801619171918F0184EE98E0C2DFC13030
:1017C00099F7DBDDF2CFCF911F910F91FF90EF9052
:1017D0000895A0E0B0E0EFEEFBE00C94983BD92F29
:1017E00000915203109153032091540330915503FB
:1017F00080919E03882309F473C082EBE82E87E072
:10180000F82EE4E6F0E090E9C92EDD24D394C70178
:1018100083709927892B81F4C701BF010E94B63AD2
:10182000892B31F4C701B6010E94B63A892B21F405
:1018300061E08EE691E003C060E08DE691E0A0E01B
:10184000B0E0081719072A073B0718F440E050E0FA
:1018500008C0081B190B2A0B3B0B8FEFE81AF80A7C
:10186000D6CFC42FFA01EF5FFC4FE4914130510510
:1018700011F46111EF5F8E2F90E0A0E0B0E0081747
:1018800019072A073B0750F0081B190B2A0B3B0BC3
:101890004F5F5F4F4C30510521F7CCE08D2F0F5F2C
:1018A0001F4FD0E086FF0EC0B80185E197E049DF09
:1018B000BE016F5F7F4F84E197E043DFB7018CEF9C
:1018C00092E00DC0B70184EE98E03BDFBE016F5F90
:1018D0007F4F84E197E035DFB80184E197E031DFA5
:1018E000CDB7DEB7E8E00C94B43B80910F068E30A4
:1018F000C1F42091620630E087E090E0482FB90102
:10190000082E02C0759567950A94E2F760FD03C042
:101910000197A0F748E04093620689E0EFE1F7E025
:101920000BC080911404882321F083E1E9E9F7E0FA
:1019300003C084E1EFE3F7E090916206692F70E065
:10194000981740F4CB01880F991FE80FF91F859174
:10195000949102C08CED97E0F4DE80918A03882395
:1019600011F086E859CB0895CF9380919103882395
:1019700061F0C92F80913A06E9DCC6FF06C060918C
:101980003A0670E080EE98E0DCDECF9108951F9378
:10199000CF93DF93C82F192F80914306823019F01F
:1019A00020F0DFE003C0DFE101C0DAE280918306CE
:1019B00090918406883C910520F080918F038111DD
:1019C000D0E2C095CC1FCC27CC1F11F016FF0DC064
:1019D0006091440670E08CED98E0B3DECC2341F0DA
:1019E00016FF06C08D2F18DB03C08D2F15DBF0CF3F
:1019F000DF91CF911F9108956091EC037091ED03F9
:101A000084EF91E09ECE6091EA037091EB038EEE3D
:101A100091E097CE1F93CF93DF93382F192F20910A
:101A200068062F55C0916A06263008F046C0D0E0FF
:101A300080E09C2F64E670E00E94B63ACB016138EA
:101A4000710540F029E82093120180589109E3E1E3
:101A5000F1E012C02DE8209313016231710550F4BA
:101A600020918F03222331F020E220931201209352
:101A7000130109C0E2E1F1E06AE170E00E94B63AC8
:101A80002DE8261B208337FF52DC16FF06C0BE015F
:101A90008CED98E056DE6DDC1AC06091A206709164
:101AA000A3068091A4069091A5060E94633884EE57
:101AB00098E047DE81E0B0DA0AC024E6C29FC001A8
:101AC00011246FEF70E00E94CA3AEB01B1CFDF91B1
:101AD000CF911F9108956091190670E080EE98E013
:101AE00030DE47CCEF92FF920F931F93CF93DF939B
:101AF0008C01D62FC42F6CE370E00E94B63A7C01B3
:101B000080EE98E01EDECC2341F0B70183E193E044
:101B100018DECF776C2F70E010C0DD2331F080919C
:101B20008F03882311F080E201C08AE375DAC801CF
:101B30006CE370E00E94B63ABC018DE093E001DEF8
:101B4000CDB7DEB7E6E00C94B63B0F931F93CF936F
:101B500080919E03882351F1C92F40911B04042ECC
:101B6000000C550B4451510960914E0370914F0385
:101B700080915003909151032CE3249F8001259F75
:101B8000100D11242CE330E040E050E00E94DD3ADB
:101B9000C801820F931FC5FF04C0462F406860E054
:101BA00004C0C6FB662760F940E09CDFCF911F911F
:101BB0000F91089540E060E095CFCF93C22F7F93BF
:101BC0006F935F934F939F938F9380E393E09F93E3
:101BD0008F930E94AF338DB79EB708960FB6F894D7
:101BE0009EBF0FBE8DBFCC2311F08C2F15DACF9185
:101BF0000895A0E0B0E0EFEFFDE00C94983B8091F9
:101C0000710690917206FC013A96D4913296C49175
:101C10000D96FC0105911491609165067091660620
:101C200080E090E00E9494382DEC3CEC4CEC5DE3BD
:101C30000E94AF396B017C016C2F70E080E090E076
:101C40000E9496389B01AC01C701B6010E94AF39D2
:101C50006B017C01B80180E090E00E9494389B0108
:101C6000AC01C701B6010E942E372AE037ED43E2EE
:101C70005CE30E94AF39AB01BC012D2F8BEE92E0EB
:101C80009CDFCDB7DEB7E8E00C94B43B20E095CF05
:101C9000609183067091840680E090E00E94943801
:101CA0002AE037ED43E25CE30E94AF39AB01BC01AF
:101CB00080ED98E0EBCF40910C0450910D046091C1
:101CC0000E0470910F0488EE98E0E0CF0F931F93FD
:101CD000CF93DF932091AD03222309F460C040919C
:101CE000AB035091AC0320911706309118064217B0
:101CF000530709F454C02091A903233010F4D1E212
:101D000001C0D0E0092F182F8091AA03CAE1C81B97
:101D1000C7FD10C08C2F8695692F810F47D917FDFD
:101D200002C0D1113FC06DEA73E080E393E00E94EE
:101D300020323EC017FD02C0D11137C006FD1DC0C4
:101D4000C1952C2F30E08091E8039091A803891B66
:101D500090E0B901660F771F0E94CA3A4091A10333
:101D600041110DC0009729F02150310982179307C6
:101D700031F421E02093A10302C080E090E0EC0167
:101D8000C355DC4F8E01065E1F4F8991811102C041
:101D9000F2DA0EC041D9C017D107B9F7F9CF1092C6
:101DA000AD0306C08D2F38D9BECF8D2F35D9C6CF04
:101DB000DF91CF911F910F910895292F80911706E0
:101DC000909118068F739927029710F026FF06C08E
:101DD00061E274E080E393E00C9420320895BC014A
:101DE0008CE293E00C94953389EF90E0F8CF0E9459
:101DF0002D3720EC3BE649ED57E40C94AF39CF92F8
:101E0000DF92EF92FF92CF93C42F6B017C01E89495
:101E1000F7F8C701B6010E946338072E000C880B43
:101E2000990B0E9496389B01AC01C701B6010E9434
:101E30002D379B01AC01C11105C060E074E284E75D
:101E400099E404C060E070E583EC97E40E94AF3948
:101E50000E946338CF91FF90EF90DF90CF9008956C
:101E60000F931F93CF93DF93162F082FEC018C2F26
:101E7000801B811720F489910E945A33F8CFDF919B
:101E8000CF911F910F910895982F262F30E0F901DF
:101E9000EB59FC4F87FD0BC0862F41E04083F901D1
:101EA000EF59FC4F96FB992790F99083FCCB108259
:101EB000089563E0892FE8CF62E0892FE5CF61E0E4
:101EC000892FE2CF60E0892FDFCFCF93C82F6091B9
:101ED000BD047091BE048091BF049091C0040E9423
:101EE0006338615071096F30774280F4C7FD02C0DA
:101EF00086E192D84091BD045091BE046091BF0428
:101F00007091C00421E084EC98E057DECF910895F1
:101F1000CF93C42F28EE33E040E050E00E94DD3A3A
:101F2000DA01C90140E06C2FDDDDCF91089596FB09
:101F3000442740F9609152067091530680915406EF
:101F400090915506E5CFCF93DF93282F86FB44274A
:101F500040F9E42FF0E0DB016D917D918D919C9132
:101F6000EE0FFF1F25FF1AC0E05EF74FC591D49119
:101F700046DF9F938F937F936F93DF93CF9380E39D
:101F800093E09F938F930E94AF33ADB7BEB718967F
:101F90000FB6F894BEBF0FBEADBF08C0E45EF74FEA
:101FA00025913491AB01BC01C90170DEDF91CF9165
:101FB000089560E074E0892FC6CF6CEF73E0892F3D
:101FC000C2CF7F936F939F938F9381EF92E09F9304
:101FD0008F9380E393E09F938F930E94AF338DB7ED
:101FE0009EB708960FB6F8949EBF0FBE8DBF08959A
:101FF0000F931F93CF93DF9303E716E080E090E009
:10200000F801619171918F01EC012196CE01D9DF28
:10201000CE012897A9F7DF91CF911F910F910895D5
:10202000AAE0B0E0E6E1F0E10C94953BD62EB72EA5
:10203000C42EA22E9EEF99834A833091B8043B832D
:10204000909109019C8390910A019D838E833F5F4B
:102050003093B8048FEF9FEF98878F838E010E5FC8
:102060001F4F7E0187E0E80EF11C0E151F0531F0B1
:10207000B701F80181918F0160D8F7CF8F819885E2
:102080009A8789870D2D1B2D9C2C9D0CBE01675FA7
:102090007F4F901629F0F80181918F014ED8F6CF2D
:1020A0008A2D4BD899858A859F83888766E0CE01E3
:1020B0000196D6DE6C2D8D2D9B2DD2DE62E0C70100
:1020C000CFDE2A96EBE00C94B13B1F920F920FB635
:1020D0000F9211242F938F939F93EF93FF939091DF
:1020E000C600809144078F5F8F7720914507821744
:1020F00041F0E0914407F0E0EE53F94F9083809374
:102100004407FF91EF919F918F912F910F900FBEF8
:102110000F901F9018951F920F920FB60F921124D7
:102120008F939F93EF93FF93909143078091420782
:10213000981779F0E0914307F0E0E254F94F80817D
:102140008093C600809143078F5F8370809343071D
:1021500005C08091C1008F7D8093C100FF91EF91F8
:102160009F918F910F900FBE0F901F90189595FB28
:10217000222720F994FD02C090E001C092E0922B4A
:1021800086FD02C080E001C084E0892B08951F9382
:10219000CF93DF93182FEBDF8C5FC82FD0E017FDB4
:1021A00006C0BE016F5F7F4F8AE197E0CADACC0FAD
:1021B000DD1FCD58D94F6881798184EE98E0C1DA6E
:1021C000DF91CF911F9108951F93CF93DF93182F25
:1021D000C92FCDDFD4E0D80F17FD07C06D2F70E0F9
:1021E0006F5F7F4F89EF92E0ACDAC6FB662760F93C
:1021F0008D2F0E94C308D82FC0E0CD1302C081E804
:1022000001C080E80E940C08CF5FC530B1F7DF91B4
:10221000CF911F9108951F93CF93DF93182FC92F4C
:10222000A6DFD4E0D80F17FD07C06D2F70E06F5FF9
:102230007F4F8AE197E085DAC6FB662760F98D2F2C
:102240000E94C308182FC0E0D3E0CE010E94C53B16
:102250008F3F71F0811103C0112351F01150111102
:1022600002C00E940C082196C03883E0D80769F7A5
:10227000DF91CF911F91089596FB222720F930E03E
:1022800095FD03C080E090E002C082E090E0282B42
:10229000392B215031092330310528F4F901E85E4A
:1022A000FE4F8081089580E00895CF92DF92EF92F3
:1022B000FF92CF93DF93D82FC92FDEDF80930F01DA
:1022C000C7FD46C0C4FF2AC081E08093960329E879
:1022D00038E848E85CE36091AA067091AB0680910B
:1022E000AC069091AD060E94AF396B017C010E9453
:1022F00063389B0177FF04C022273327261B370B47
:102300002A303105FCF4D6FD03C088E792E002C014
:1023100081E792E028E1B701A60112C0109296036E
:10232000E0917106F0917206729624914091AA068E
:102330005091AB066091AC067091AD068AE692E0D2
:102340003CDC06C0243631051CF38AE692E0E2CF7D
:10235000DF91CF91FF90EF90DF90CF9008950F9392
:102360001F93CF93DF93EC018B010E948630DC0139
:10237000CB01800F911FA11DB11D88839983AA8372
:10238000BB83DF91CF911F910F9108959B01FC01B9
:102390004081518162817381420F531F611D711D04
:1023A00040835183628373830895E0917106F091B5
:1023B0007206349665917591859194910895CF92A6
:1023C000DF92EF92FF92CF93DF936B017C01EDDF01
:1023D000A70196010E94AF396B017C0120E03CE32C
:1023E0004CE156E40E94F437C0917106D091720618
:1023F000FE0118163CF039962491B701A60184EC31
:1024000098E024C070966591749180E090E00E94FD
:1024100094389B01AC01C701B6010E94FB376B01E8
:102420007C010E9463386A30710534F064367105AE
:1024300034F084EC98E005C080ED98E002C08AECAE
:1024400098E0FE013F962491B701A601B6DBDF912B
:10245000CF91FF90EF90DF90CF90089596FB882763
:1024600080F98093A00380919103882369F097FD00
:102470000BC060913B0670913C0680913D069091A7
:102480003E060E9496389BCF089540918B0650914E
:102490008C0660918D0670918E0696FD08C04115E0
:1024A00051056105710519F0CB01BA0188CF409142
:1024B0003006509131066091320670913306F4CFA8
:1024C0006091A6067091A7068091A8069091A90632
:1024D00076CFE0917106F0917206659175918591C4
:1024E00094910895CF92DF92EF92FF921F93CF9332
:1024F000DF93EC016A017B01122FEBDFA70196014C
:102500000E94AF39112341F024EE38E34EE85EE338
:102510000E94AF3928E106C0E0917106F091720681
:1025200038962491AB01BC01CE0147DBDF91CF91FE
:102530001F91FF90EF90DF90CF90089596FB222798
:1025400020F9409128065091290660912A06709141
:102550002B0688EE98E0C6CF96FB222720F9409103
:102560001E0650911F06609120067091210688EE8C
:1025700098E0B8CFA0E0B0E0E0ECF2E10C94983B3A
:10258000EC01D62EFE01059114910115110509F4F7
:1025900069C0FE013296849181110E940C08FE01EF
:1025A000339684913196E590F490893691F030F429
:1025B000813609F43CC08836C1F004C08337E9F0A5
:1025C000863719F150E2C52E60E070E080E89FE3A5
:1025D00037C0F70160817181072E000C880B990BC1
:1025E0000E94963840E2C42E32C0E0917106F0910C
:1025F00072063996C490D9DE23C0E0917106F0913D
:1026000072063896C49065DF1BC0CFDE209196031A
:10261000211114C0E0917106F09172067296C49077
:1026200020E030E040E752E40E94AF3909C031E4D5
:10263000C32E6AE077ED83E29CE302C028E1C22E5C
:10264000F70120813181428153810E94AF392C2DC5
:10265000AB01BC01C801B1DA0E94BD092796DA942A
:10266000D11090CFCDB7DEB7E8E00C94B43B67E073
:1026700086EB92E07FCFCF93DF93D82FC92F0E94B4
:10268000950988E00E940C086091520670915306EB
:10269000809154069091550640E03ADC6AE082E968
:1026A00091E068DFC6FF05C06C2F8AE08D0F0E94A5
:1026B000D60783E00E940C086CEF73E080E043DCF7
:1026C0000E94BD0984E00E940C0860E074E080E094
:1026D0003ADCDF91CF9108952FE632E143E85AE3E7
:1026E0000C94AF39CF92DF92EF92FF92CF93DF93AA
:1026F000C091C104D091C20458DE6B017C012AEF65
:102700002C9FC0012D9F900D1124BC01990F880BA7
:10271000990B0E9496389B01AC01C701B6010E943B
:10272000AF39E0917106F0917206A8974CF03F9690
:10273000C491D2DFAB01BC012C2F80ED98E006C024
:1027400039962491AB01BC0184EC98E036DADF9134
:10275000CF91FF90EF90DF90CF900895CF93DF93CC
:10276000611103C0C6EDD8E002C0CAECD8E0BC01DC
:1027700080E090E00E949438AFDFAB01BC012DE017
:10278000CE011BDADF91CF9108950F931F93292F6C
:10279000207495FF15C060913006709131068091CC
:1027A000320690913306222321F120912C0630919C
:1027B0002D0640912E0650912F060E942D3719C0EC
:1027C00060910404709105048091060490910704BF
:1027D000222361F00091F8031091F9032091FA038C
:1027E0003091FB03601B710B820B930B0E94963898
:1027F00073DFE5DD1F910F91089520911706309149
:102800001806260F311D3093AC032093AB03809341
:10281000AA038091E8038093A803089597FF03C05B
:1028200088599E4F0895893621E0920714F0885602
:1028300091400895CF93DF93EC010E948630288168
:102840003981CB01821B930BDF91CF910895BC019D
:1028500080E393E00C9481331F93CF93DF93182F81
:10286000D92F87FD0FC096FF04C0C0E085E293E03A
:1028700003C0C1E084E393E0EADF812F9D2F0E9433
:10288000950901C0C0E08091AA069091AB06A09185
:10289000AC06B091AD06BC01CD0190589B01AC01D6
:1028A0000E942E370E94633880917B0382FF05C00F
:1028B000CB016CE370E00E94CA3AD5FF05C0CB01A2
:1028C0006AE070E00E94CA3AD4FF06C077FF02C0F7
:1028D0006F5F7F4F7595679516FF08C077FF02C041
:1028E0006D5F7F4F75956795759567959B01235D26
:1028F0003F4F37FF02C02F5F3F4FC9019595879526
:1029000069E070E00E94CA3A65302CF467FD06C0A9
:102910004FEC481B05C04EE764E002C040E660E0B3
:102920008C2F0E941A08DF91CF911F910895CF93A9
:10293000DF9387FD03C08AE193E089DFC2E4D3E03F
:10294000499159916991799188EE98E09FD983E0F6
:10295000CE34D807A9F70E94BD09CCE3D3E0699132
:10296000799180EE98E00E94A10B83E0C234D807F1
:10297000B1F7DF91CF910895FF920F931F93CF93FB
:10298000DF93D92F8095182F111F1127111F39F0B0
:1029900096FD05C095FF39C082E592E058DF83ECD3
:1029A0000E940C08209134063091350648E1429F80
:1029B000C001439F900D11240C9668E671E00E94BF
:1029C000CA3A64507109C62F77FF02C0C8E1C60F2A
:1029D000D5FBFF24F0F8D5FD02C009E001C00AE0F4
:1029E000EC2FF0E0E35DFD4F84910E940C08CF5F77
:1029F000C83108F0C0E0015099F787E80E940C0840
:102A0000112371F0D6FD04C00BC085E492E0C6CF5F
:102A1000F11003C086E192E002C082E292E017DF8B
:102A2000CDB7DEB7E5E00C94B73B1F93CF93DF93B0
:102A300040910004509101046091020470910304DC
:102A4000452B462B472B69F44091FC035091FD0325
:102A50006091FE037091FF03452B462B472B09F431
:102A60003DC094FD02C01FEF01C010E2EC01809157
:102A70008F038823D9F080919B038A3048F08AE045
:102A800092E0E5DE812F0E940C0883E092E00CC00A
:102A900080919C038A3050F08AE092E0D8DE812F4A
:102AA0000E940C088AEF91E0D2DE18C0C095CC1FBE
:102AB000CC27CC1F19F083E00E940C086CEF73E068
:102AC0008D2F41DA812F0E940C08CC2319F084E06D
:102AD0000E940C0860E074E08D2F35DADF91CF9111
:102AE0001F910895A0E0B0E0E8E7F5E10C94983B71
:102AF000092F80918903882309F4E8C01092890383
:102B0000C0902806D0902906E0902A06F0902B0667
:102B1000E0DCA70196010E94AF390E946338A091C2
:102B20006F06B091700680919503882349F081E08B
:102B300090E020914306223008F080E0EC0102C0D2
:102B4000C0E0D0E0E0911404E1110AC02091180423
:102B500030E06217730724F480918E0380FDC26019
:102B600020911704222329F030E0261737070CF4B0
:102B7000C46030916A06209168064091190444238C
:102B800069F0CD0164E670E00E94B63A6115710506
:102B900029F0842F90E068177907E4F040911F0432
:102BA0004423C9F054E6359FC0011124322F27FF7A
:102BB00002C031E0320F3595830F911D37FD9A9594
:102BC000622F220F770B0E94CA3A842F90E0681779
:102BD00079070CF4C86080911E0480FD0BC08091C1
:102BE000200490E02091E2033091E3032817390795
:102BF00008F4C0618091AA069091AB06A091AC0642
:102C0000B091AD06E130A1F410911804112381F0C8
:102C1000BC01CD019F770E946338CB016AE070E070
:102C20000E94CA3A812F90E0861797070CF4C06281
:102C300080916D0690916E0620915204222369F0D6
:102C400064E670E00E94B63A6115710531F0822F9A
:102C500090E0681779070CF4C06406FF0EC08091FD
:102C60000E06813011F4C0680DC0823011F4D160BD
:102C700009C0833011F4D26005C0209719F4109276
:102C8000290324C09091290381E09111890F809339
:102C90002903809129034FEF480F21E030E002C063
:102CA000220F331F4A95E2F78B3018F081E021E0C4
:102CB00030E0A9014C235D23452B21F48F5F220FC7
:102CC000331FF2CF809329038917C9F2E0912903BA
:102CD000EE2341F0F0E0EE0FFF1FE55CF74F85912A
:102CE0009491B5DDCDB7DEB7E8E00C94B43B20910C
:102CF0001C0430911D04815018F4822F8F700895A8
:102D000094E0369527959A95E1F7F5CF81E0809389
:102D1000830388E0EAEFF5E0DF011D928A95E9F789
:102D200080E00E94580990937C0380937B03089570
:102D300024E0880F991F2A95E1F78C549F4F68E68D
:102D400071E00E94CA3ACB0101960895CF92DF92BA
:102D5000EF92FF921F93CF93DF93809162068A30A8
:102D600009F05DC0C0918506D0918606C83E83E01B
:102D7000D8073CF4C9318CEFD8072CF4C9E1DCEF5B
:102D800002C0C7EED3E0E0917106F0917206399669
:102D900014916091970670E08CED98E00E94A10B71
:102DA0000E94BB09609198067091990680E090E0BE
:102DB0000E9494386B017C01F8DAA70196010E9409
:102DC000AF39AB01BC01212F84EC98E00E94DD0DEE
:102DD0000E94BD0980919A0690919B061FDD20916B
:102DE000340630913506821B930BA2DF0E94A609A0
:102DF00080E692E02CDDD9DA6B017C01BE01DD0FAB
:102E0000880B990B0E949638A70196010E94AF3952
:102E1000AB01BC01212F84EC98E00E94DD0DDF9115
:102E2000CF911F91FF90EF90DF90CF900895809108
:102E3000410690914206C29664E670E00E94B63A5E
:102E40002091340630913506CB01821B930BE6DCD2
:102E5000845B91099093400680933F0669DF885F09
:102E60000E94A60960913F067091400681E192E0C0
:102E70000C94A10BCF92DF92EF92FF92CF93DF934E
:102E8000EC016A017B019A01AB01688179818A8139
:102E90009B810E94F43787FF04C0C882D982EA82EE
:102EA000FB82DF91CF91FF90EF90DF90CF9008955C
:102EB0008F929F92AF92BF92CF92DF92EF92FF924A
:102EC0000F931F93CF938C014A015B01C22FFC012A
:102ED000C080D180E280F38020E030E0A901C7010A
:102EE000B6010E94F437882311F0C23030F4F801A3
:102EF00080829182A282B3821DC0A7019601C50182
:102F0000B4010E942D374B015C016C2F70E080E012
:102F100090E00E9496389B01AC01C501B4010E946B
:102F2000FB37A70196010E942E37F8016083718359
:102F300082839383CF911F910F91FF90EF90DF9049
:102F4000CF90BF90AF909F908F900895CF93DF93D5
:102F500097FD26C0C92F91E090939F039C2F8CD999
:102F6000D82F60916D0670916E0680E090E00E940F
:102F70009438AB01BC012D2F81EA94E099DFC29512
:102F8000C1706091A1047091A2048091A3049091FA
:102F9000A4040E946838DC01CB016C2FDFDB08C081
:102FA00081E090915204911101C080E080939F03D1
:102FB000DF91CF910895CF93DF93C92F5DD9D82F9B
:102FC00060916F067091700680E090E00E949438E6
:102FD000AB01BC012D2F8DE994E06ADFC295C17071
:102FE00060919D0470919E0480919F049091A00433
:102FF0000E946838DC01CB016C2FB0DBDF91CF91F0
:103000000895CF93DF93C92F37D9D82F60916B06DE
:1030100070916C06072E000C880B990B0E94963855
:10302000AB01BC012D2F85EA94E042DFC4FD03C053
:10303000C6EDD8E002C0CAECD8E02AE037ED43E2A2
:103040005CE36091A5047091A6048091A70490911F
:10305000A8040E94AF39AB01BC012EE0CE010E9452
:10306000DD0DDF91CF910895A0E0B0E0EAE3F8E153
:103070000C94983BD92F8091220690912306CEDBA9
:103080008C01C0902406D0902506E0902606F09092
:10309000270624E6B701A6018EEA96E009DFD6FBF3
:1030A000CC27C0F92C2FB701A60188EE98E01ADAD8
:1030B0000E94BD092091340630913506C801821B5B
:1030C000930B36DED5FD02C090E001C098E0890F79
:1030D0000E94A6094091AE065091AF066091B006DD
:1030E0007091B1062C2F84E692E0FCD9CDB7DEB703
:1030F000E8E00C94B43BCF93DF93C92FBDD8D82F11
:103100006091E2037091E30380E090E00E949438C4
:10311000AB01BC012D2F89EA94E0CADE6091A904BD
:103120007091AA048091AB049091AC040E94633822
:1031300080EE98E00E94A10B80911E0480FD03C0E8
:10314000C4FD0E94B909DF91CF9108958F929F929B
:10315000AF92BF92CF92DF92EF92FF9260916B0697
:1031600070916C06072E000C880B990B0E94963804
:103170006B017C0180901E0690901F06A090200697
:10318000B0902106A6D9A50194010E94AF399B01F8
:10319000AC01C701B6010E94FB3720E030E040E2FD
:1031A00051E40E94AF39AB01BC0124E68DEB94E001
:1031B0007FDEFF90EF90DF90CF90BF90AF909F9019
:1031C0008F900895A0E0B0E0E8EEF8E10C94943B15
:1031D00020918A03222309F42DC1C82F96FF12C023
:1031E00020E030E0A90160911E0670911F068091D9
:1031F0002006909121060E94F437882309F41AC111
:10320000A5DF20C0809114048111C7C020E030E008
:10321000A90160911E0670911F0680912006909171
:1032200021060E94F437882309F404C18FDF9091AE
:10323000190680918D03933048F0811103C081E01D
:1032400080938D038C2F0E94650FF4C0882311F1A9
:1032500080918B0690918C06A0918D06B0918E0680
:103260008093490690934A06A0934B06B0934C0670
:103270008091A6069091A706A091A806B091A906F4
:103280008093AD049093AE04A093AF04B093B004C8
:1032900010928D032DEC3CEC4CE45DEB6091450607
:1032A0007091460680914706909148060E94F43737
:1032B00087FF62C0C0908B06D0908C06E0908D0690
:1032C000F0908E062091AD043091AE044091AF0491
:1032D0005091B0046091A6067091A7068091A8064F
:1032E0009091A9060E942D374B015C01A701960120
:1032F0006091490670914A0680914B0690914C0668
:103300000E942D379B01AC01C701B6010E94FB371B
:103310009B01AC01C501B4010E94AF396B017C0176
:1033200044D89B01AC01C701B6010E94AF396B01C3
:103330007C010E946338CB016031774224F4181677
:10334000190644F077C0C12C8CE3D82E8CE1E82E0E
:1033500086E4F82EC7FD03C08EEE0E940C08E091B3
:103360007106F091720639962491B701A60184EC9A
:1033700098E00E94DD0D5EC08091EA039091EB031E
:1033800097FF58C080918F03882319F088EE92E050
:1033900002C087EE92E05BDA4DC0D0916A060D2F35
:1033A00010E080916706082E000C990B081719078A
:1033B000B1F160915206709153068091540690913C
:1033C00055060E9494386B017C016D2F70E080E0FF
:1033D00090E00E9494389B01AC01C701B6010E94A5
:1033E000AF396B017C0140916806042E000C550B2F
:1033F000401B510BBA01550F880B990B0E94963850
:103400009B01AC01C701B6010E94FB3765D90E9440
:1034100068387093640660936306D0936706C7FDAF
:1034200003C087E10E940C088091630690916406B6
:103430000E94DA0DCDB7DEB7ECE00C94B03B2AE089
:1034400037CDCF93DF93EC019A01AB01688179818D
:103450008A819B810E942E37688379838A839B832C
:10346000DF91CF910895A7E0B0E0E9E3FAE10C9491
:103470008E3B88E094E0DED91C0160E070E088E0DB
:1034800094E00E94AF11B10180E090E00E94943876
:1034900023D96A837B838C839D8360916B067091B3
:1034A0006C06072E000C880B990B0E9496386B0156
:1034B0007C0160916F067091700680E090E00E9440
:1034C0009438A70196010E94AF392CEA35EC47E207
:1034D00057E30E94AF39AB01BC018CE094E0AFDF51
:1034E00010910F018090450690904606A0904706E7
:1034F000B09048060E94D5112B013C0120E030E03D
:1035000040E752E4C501B4010E94AF39A301920122
:103510000E94AF39AB01BC01212F8AEA96E0C8DCDA
:1035200020916A0680916806082E000C990B422FA4
:1035300050E08417950714F42093680680911404D2
:10354000811120C010918E0310FD1CC060918B066C
:1035500070918C0680918D0690918E060E94633842
:10356000663071057CF0809119068F3158F011603A
:1035700010938E031092A6061092A7061092A8062A
:103580001092A90621E63BE046E35BE3C701B601E2
:103590000E94AF392A813B814C815D810E94AF3905
:1035A000AB01BC0182EA96E04CDF8091E40390918C
:1035B000E50320911E0420FD5FC020915804309146
:1035C00059043F832E8300915A0410915B04021723
:1035D00013074CF43E812F811F830E83032F122F7C
:1035E00031E0398301C019823E812F814E815F8194
:1035F0004817590714F4382F292F632F722F0617F5
:1036000017070CF4B8018E819F81681B790B80E04D
:1036100090E00E9494382B013C01B801EE81FF81BB
:103620006E1B7F0B80E090E00E9494389B01AC0100
:10363000C301B2010E94FB3720E030E048EC52E4C5
:103640000E94AF390E946338653671052CF477FF0C
:1036500005C060E070E002C064E670E0F981FF231D
:1036600031F084E690E09C01261B370BB901709382
:10367000E3036093E20304C09093E3038093E203C7
:1036800080911404811104C080918E0380FD05C0D7
:1036900080918A03882309F472C0B10182E596E023
:1036A0000E94C61180919103882399F020911E06F3
:1036B00030911F0640912006509121066A817B813E
:1036C0008C819D810E94AF39AB01BC0186EA96E0F6
:1036D000B8DE60913B0670913C0680913D0690916A
:1036E0003E060E949638AB01BC0183EF95E0C2DB39
:1036F000409128065091290660912A0670912B0668
:103700008FEE95E0B7DB40911E0650911F06609149
:103710002006709121068BEE95E0ACDB40913006DF
:1037200050913106609132067091330687EE95E034
:10373000A1DB4091240650912506609126067091E8
:10374000270683EE95E096DB40910C0450910D0422
:1037500060910E0470910F0483ED95E08BDBB7014F
:10376000A6018FED95E086DBB501A4018BED95E018
:1037700081DBB501A401705887ED95E07BDB2796CE
:10378000E2E10C94AA3BCF93DF93EC01CB01BA01A9
:103790000E94963825E93FEB46ED53E30E94AF398E
:1037A000688379838A839B83DF91CF9108950E94F8
:1037B00086306093110670931206809313069093DF
:1037C0001406809117069091180690931606809320
:1037D0001506E3E8F3E081E08083828308958AEAB6
:1037E00090E00C94F0300E942E33811101C0F7CF8D
:1037F0000895CF9390917303992309F447C0E09102
:103800005504F0E0EE0FFF1FE558F94F208131819C
:10381000CFB7882309F0F89480915C048130D9F007
:1038200018F0823011F131C0E0917103F091720310
:10383000908180917303892B8083C9010E94F030AD
:10384000E0917103F09172039081809173038095F0
:10385000892380831AC090917303E0917103F091E2
:1038600072032D3D35406CF009C090917303E091D7
:103870007103F09172032C3D35401CF48081982B2C
:1038800003C08081909598239083CFBFCF910895F6
:10389000A6E0B0E0EEE4FCE10C949B3B0EE414E007
:1038A000FF24F394F801319684916091B306662366
:1038B00039F0880F880F0E949D3A811101C081E084
:1038C000F80124913091100690E09A8389833B831C
:1038D0001C822D83FE8224E946E0BE016F5F7F4F8C
:1038E00082E40E9410100E5F1F4FF4E00A351F079C
:1038F000C9F62696E5E00C94B73BA9E0B0E0E3E812
:10390000FCE10C949E3B19821A821B821C821D8250
:103910001E821F82188683E0898722E349E0BE0168
:103920006F5F7F4F80E00E9410102996E2E00C94B8
:10393000BA3BA0E0B0E0EFE9FCE10C948E3B4424FC
:103940004394C1E0D0E0F7E02F2E312CA6E06A2EA0
:10395000712C05E010E0B4E0CB2ED12C82E0A82E33
:10396000B12C88248A94982C0E942E33882309F441
:1039700045C10E943D33582E1092B1048091B40489
:103980009091B5048B30910508F0BBC0FC01EC5C54
:10399000FF4F0C941B3B1092BC041092BB048EEFA3
:1039A000581689F0D093B504C093B404AAC0252D4D
:1039B00030E0E090C404F12C2E153F0509F492C0CC
:1039C0009EEF5912EFCFB092B504A092B4041092BA
:1039D000C6049092C4048092C30493C05092C6045B
:1039E0001092B604652D83EC94E00E94BF08D0923B
:1039F000B504C092B40485C05092C704652D83EC11
:103A000094E00E94BF0883E090E025C05092C80473
:103A1000652D83EC94E00E94BF081093B5040093D9
:103A2000B4046FC05092C904652D83EC94E00E94E9
:103A3000BF087092B5046092B40463C05092CA0487
:103A4000652D83EC94E00E94BF088091C60481112B
:103A500007C088E090E09093B5048093B40451C00F
:103A60003092B5042092B4044CC0E091B60481E0D9
:103A70008E0F8093B604F0E0E553FB4F5082652D26
:103A800083EC94E00E94BF089091B6048091C60434
:103A9000981337C0DECFE091CA04F0E0EA5BFC4F38
:103AA000649183EC94E00E94BF08252D30E0809162
:103AB000C3049091C40499272817390739F09EEF61
:103AC000591609F480CF8AE090E0C5CF89E090E0F4
:103AD0009093B5048093B404E091B604F0E0E5530C
:103AE000FB4F0EC00A9709F46BCF4092B104D093FC
:103AF000B504C093B404E091B604F0E0E453FB4F86
:103B000050822091B104222399F08091C7048093C0
:103B1000B7048091B9049091BA04009721F41092EF
:103B2000BC041092BB0401969093BA048093B9042C
:103B30001092B304222309F483C439DE8091CA04AD
:103B4000833809F04CC09091C80480910D069813F9
:103B500046C08091C904843609F041C08091CB04ED
:103B60009091CC0420910B0630910C06821793079C
:103B7000B1F190930C0680930B068091CD048E3E9C
:103B800071F58091CE048F3451F58091CF04833547
:103B900031F58091D004843411F58091D1048236BE
:103BA00099F08737E1F46091D2044091D30450E05A
:103BB00080E8689FB001112484ED94E00E947409AC
:103BC00081E0809397030BC08091D304811107C0DB
:103BD00080919703882319F0EE27FF27099480919D
:103BE000CA04882309F41DC120911006222341F044
:103BF0009091C804291721F0933311F080E023C479
:103C00008E3309F484C208F085C08D3109F42EC3C7
:103C1000A0F4823009F46CC320F4813009F455C15A
:103C200011C4883109F479C18B3109F00BC480913A
:103C3000B2068F5F8093B20605C4833209F4D1C205
:103C400008F05DC08E3109F425C2813209F0FAC353
:103C50006091DB047091DC048091DD049091DE04BE
:103C600028EE33E040E050E00E94FF3ACA01B9017B
:103C70000E94963860938B0670938C0680938D0615
:103C800090938E066091E1047091E204072E000C7F
:103C9000880B990B0E9496384B015C018091DF04E0
:103CA0009091E004BC01990F880B990B0E94963803
:103CB0006B017C01A5019401C501B4010E94AF39DB
:103CC0004B015C01A7019601C701B6010E94AF3903
:103CD0009B01AC01C501B4010E942E370E94163A27
:103CE0002AE037ED43E25CE30E94AF3960931A06A5
:103CF00070931B0680931C0690931D06A3C3843209
:103D000009F47DC38A3209F09DC38091CB0480936E
:103D1000970698C3823A09F4DCC208F052C08A348C
:103D200009F45EC108F046C0813409F08BC380916C
:103D3000CF049091D0049093740680937306809181
:103D4000D1049091D2049093760680937506809169
:103D5000D3049091D4049093780680937706809151
:103D6000D5049091D60490937A0680937906809139
:103D7000D7049091D80490937C0680937B06809121
:103D8000D9049091DA0490937E0680937D06809109
:103D9000DB049091DC049093800680937F068091F1
:103DA000DD049091DE0490938206809381068091D9
:103DB000F40459C28D3609F491C2893809F456C207
:103DC00041C3853B09F49CC028F5863A09F486C2B4
:103DD000883A09F037C36091CB047091CC0480918C
:103DE000CD049091CE040E946338709323066093B3
:103DF00022068091CF049091D004A091D104B0917B
:103E0000D2048093240690932506A0932606B093AF
:103E1000270618C3813F09F4A9C28D3F09F42FC2B8
:103E200011C38091CF04863049F48091C8048093F7
:103E30000D0610920C0610920B0604C3853009F48F
:103E400001C38A3109F4FEC28091D00480930F0629
:103E50008091D10487FB882780F980938A03809121
:103E6000CB04809362068091C804809310068091F1
:103E7000A703811121C08091B206882391F080911F
:103E80009C038A3020F48F5F80939C0319C01092AA
:103E90009A038091B3068F3798F4880F8093B30606
:103EA0000FC080919B038A3020F48F5F80939B0327
:103EB00007C010929A0304C010929C0310929B03B7
:103EC0001092A7031092B206BDC28091100484FD27
:103ED0000CC02091D9043091DA04309370062093FD
:103EE0006F069091E90490936A0686FDABC28091BB
:103EF000DB049091DC0490936C0680936B06A2C265
:103F00008091100485FD9EC28091CB049091CC04D9
:103F100090936E0680936D0695C24091D3045091A4
:103F2000D4046091D5047091D6048CEF93E02BDC1F
:103F30004091D7045091D8046091D9047091DA046B
:103F400080E094E020DC8091E70480934306909128
:103F5000E80490934406882389F08091DB049091D3
:103F6000DC04A091DD04B091DE04809304049093FE
:103F70000504A0930604B093070418C020E030E0C5
:103F80004AE754E460913006709131068091320620
:103F9000909133060E94AF390E9463386093040405
:103FA0007093050480930604909307048091E504C0
:103FB0009091E60490934206809341068091DF043D
:103FC0009091E00490938406809383068091A703E8
:103FD0008F5F8093A70310929B0310929C0332C2C1
:103FE0008091CB049091CC04A091CD04B091CE04EB
:103FF0008093280690932906A0932A06B0932B0657
:1040000080914306882349F08091CF049091D00499
:10401000A091D104B091D20408C080911A06909169
:104020001B06A0911C06B0911D0680931E0690935E
:104030001F06A0932006B09321068091DB04909187
:10404000DC0490933506809334068091DD048093E0
:1040500019068091D3049091D404A091D504B09115
:10406000D6048093300690933106A0933206B09325
:1040700033068091D7049091D804A091D904B091CF
:10408000DA048093450690934606A0934706B093C2
:104090004806D8C121EE3EE245E652E46091D304E1
:1040A0007091D4048091D5049091D6040E94AF39C8
:1040B0000E9463387093EB036093EA0321EE3EE2C3
:1040C00045E652E46091CF047091D0048091D10410
:1040D0009091D2040E94AF390E9463387093ED032F
:1040E0006093EC0321EE3EE245E652E46091D70492
:1040F0007091D8048091D9049091DA040E94AF396C
:104100000E9463387093EF036093EE039BC160914C
:10411000CB047091CC048091CD049091CE040E9488
:1041200063387093A1066093A0066091CF047091EC
:10413000D0048091D1049091D2040E94633870938E
:104140009F0660939E068091DF049091E004909317
:104150009D0680939C068091D3049091D404A091F5
:10416000D504B091D6048093930690939406A093BF
:104170009506B09396068091D7049091D804A091AB
:10418000D904B091DA0480938F0690939006A0939F
:104190009106B09392068091E1049091E20490938D
:1041A0009B0680939A068091E3049091E404909397
:1041B0009906809398066091DB047091DC048091ED
:1041C000DD049091DE040E9463387093860660934C
:1041D00085068091A7038F5F8093A70310929B03AE
:1041E00031C18091CF049091D00490937406809354
:1041F00073068091D1049091D204909376068093B7
:1042000075068091D3049091D4049093780680939E
:1042100077068091D5049091D60490937A06809386
:1042200079068091D7049091D80490937C0680936E
:104230007B068091D9049091DA0490937E06809356
:104240007D068091DB049091DC049093800680933E
:104250007F068091DD049091DE0490938206809326
:1042600081068091E0048093E703ECC08091D7043D
:104270009091D8049093660680936506E3C0809180
:10428000CB048093A903873008F0DCC082E3ECEC18
:10429000F4E0ADEAB3E001900D928A95E1F7109257
:1042A000DF03EFEDF3E022E32E1BC22FCE0F92913E
:1042B0009F7DD9F3118286E20E9458090E94B710AF
:1042C000E82FF0E0EA5BFB4F64918C2F0E94FD1316
:1042D000B9C08091D20480930E06B4C09091CF04EF
:1042E0008091D004981708F4892F8093E603AAC020
:1042F0002091CB043091CC044091CD045091CE0458
:104300006091CF047091D00480E4A82E92E4B92E7D
:10431000EFE0CE2ED12CE12CF12C00E010E08091CA
:10432000D1049091D2040E94323BB901CA0120E825
:1043300031E541E050E00E94DD3A20935203309392
:104340005303409354035093550360934E0370936B
:104350004F03809350039093510381E0232B242B30
:10436000252B09F480E080939E036CC08091D304D8
:104370009091D404A091D504B091D60480934203C7
:1043800090934303A0934403B09345038091D704D3
:104390009091D804A091D904B091DA048093460397
:1043A00090934703A0934803B09349038091DB04A3
:1043B0009091DC04A091DD04B091DE0480934A0367
:1043C00090934B03A0934C03B0934D038091DF0473
:1043D0009091E00490933D0380933C038091E3042B
:1043E0009091E40490933F0380933E038091E7040F
:1043F0009091E804909341038093400323C08091FF
:10440000CF049091D004909335038093340380912E
:10441000D1049091D2049093370380933603809116
:10442000D3049091D40490933903809338038091FE
:10443000D5049091D60490933B0380933A0302C035
:10444000D2D992CA81E0CDB7DEB7E2E10C94AA3BA3
:1044500084E20E94580996FF08C080913A0690E0D5
:104460008C549F4F0E940E1404C08091340690918A
:104470003506880F991F8D966AE570E00E94CA3A4A
:1044800077FF03C0685F7F4FFBCF67707727FB0123
:10449000E25CFC4F8491089587FD03C0D9DF0E9440
:1044A0000C08609134067091350680EE98E00E9409
:1044B000A10B85E00C940C084F925F926F927F9253
:1044C0008F929F92AF92BF92DF92EF92FF920F93E3
:1044D0001F93CF93DF937C01F6FC0CC06F2D81E01E
:1044E0008E0D0E94D60780917B0381FD1CC00E9427
:1044F000BF0919C0C5E082EB0E940C08DDE0D15075
:1045000019F00E94BB09FBCFC33011F083EB01C04F
:1045100085EC0E940C080E94BD09C150F9F2C3301D
:1045200051F786ECE9CFF4FEB1C0C0913806D091C6
:1045300039060091360610913706C80117FF04C0EE
:1045400088279927801B910B6AEF70E00E94CA3A76
:10455000E62F472FCE01D7FF04C0882799278C1B51
:104560009D0B6AEF70E00E94CA3A2E2F342F261757
:1045700037070CF49B01B9016F5F7F4F7093C20442
:104580006093C104072E000C880B990B0E9496388B
:104590004B015C01B801110F880B990B0E949638F2
:1045A0002B013C0124EE38E34EE552E4C501B40191
:1045B0000E94AF399B01AC01C301B2010E94FB37DD
:1045C0000E946338162FBE01DD0F880B990B0E94E5
:1045D00096382B013C012DE63BED4EE052E4C5013F
:1045E000B4010E94AF399B01AC01C301B2010E942A
:1045F000FB3720E030E040E05FE30E942E370E946E
:104600006338062FE6FC09C023DF62E0611B482FF8
:1046100085E0800F0E941A0839C090910206961317
:1046200004C0809103068117E1F080910606909105
:1046300007069093090680930806809104069091DE
:1046400005069093070680930606809102069091D6
:1046500003069093050680930406009302061093C8
:104660000306C0E0D0E032E0B32EFE01EE5FF94F6A
:1046700087816B2D681B868144E28B5F0E941A083C
:104680002297CA3F4FEFD40781F7BECFE7FC08C09F
:1046900062E085E00E94E7078BEE91E00E9427141C
:1046A000F5FEBBC080918A03882309F4B6C08091CF
:1046B0001404811180C060913B0670913C0680918A
:1046C0003D0690913E060E9496389B01AC01609198
:1046D0008B0670918C0680918D0690918E060E94BB
:1046E000A13721EE3EE245EE52E40E94AF390E942E
:1046F00063386A5071092DE2269FC001279F900DF3
:1047000011246AE070E00E94CA3ACB018D9697FDB1
:1047100001969595879569E070E00E94CA3AD62F78
:10472000653058F4CFECC81B4C2F8CE00E941A085F
:104730004C2F6D2F81E00E941A0880913A0690E07C
:104740002091140130911501821B930B0E940E14CD
:10475000853B910534F028E631E0A901481B590B4F
:10476000CA019C01245B310948E4429FC001439F78
:10477000900D11246AE070E00E94CA3ACB01849641
:1047800066E070E00E94CA3A67FD07C06D3044F4ED
:10479000DFEBD80FC1E0C60F05C0C1E0DCE302C00B
:1047A000CCE0DEE34D2F64E08C2F0E941A084D2FE1
:1047B00060E08C2F30C08090300690903106A09041
:1047C0003206B09033060E94D511A50194010E94D3
:1047D000AF3920E030E040EA50E40E942E372DEC63
:1047E0003CEC4CE850E40E94AF390E946338862FBD
:1047F0009FEF960F9B3238F469E00E94A93A4FEC84
:10480000491B682F07C06C321CF064E04EE202C006
:1048100060E04FEC86E00E941A08DF91CF911F9173
:104820000F91FF90EF90DF90BF90AF909F908F908F
:104830007F906F905F904F900895ABE0B0E0E3E21F
:10484000F4E20C948E3B6B017C010E943A0780914C
:10485000140410918A0381112DC0112389F18091D4
:104860008E0380FF2DC060918B0670918C06809125
:104870008D0690918E060E9463386B3071058CF422
:1048800060911E0670911F0680912006909121066E
:104890000E9463386230710524F4809119068230D9
:1048A00078F0C0928706D0928806E0928906F0924E
:1048B0008A0606C0111104C080918B038111F1CFCB
:1048C00010938B0380915704853018F084E0809317
:1048D000570481E196E00E941A14853C994080F1CA
:1048E00010921E0610921F061092200610922106AA
:1048F00062E085E00E94D607609117067091180665
:104900008091150690911606681B790B88ED91E051
:104910000E94A10B4091A2035091A3036091A403B4
:104920007091A503411551056105710531F02AE02B
:1049300030E080E393E00E94753283E094E433C07A
:104940008091110480FF36C080918A0381112EC0AE
:104950008091870690918806A0918906B0918A0679
:10496000892B8A2B8B2B11F187E896E00E941A1471
:10497000883B9B40D8F46091A6067091A706809171
:10498000A8069091A9060E9463386630710574F0FC
:1049900081E0809398030E94EB0880910A0680933F
:1049A000600381E091E00E943B13CDC280919803A7
:1049B00081118DC280915704882321F090910A06BD
:1049C000981740F50AE514E0F801B490C801019683
:1049D000FC01C590D490C114D10409F4B4C28B2D4C
:1049E0008F770E9458097C010E949509F7FC0AC044
:1049F000E7FC0AC0F80133968491882329F00E94CD
:104A00000C0802C0B7FE03C0C701F60109950C5F90
:104A10001F4FDACF80918A03811150C21D821E82FE
:104A20001F8218864091F905A42EB12CF5E04F9F06
:104A3000A0011124FA01E65DFA4F859194919093BB
:104A40005B0380935A03FA01E45DFA4FF4900E94ED
:104A5000EB08C12CD12CE12C1A861B86312C212C81
:104A60001986EF1409F4BEC0552453945E0C0091CE
:104A70005A0310915B030C0D1D1DF8018590949055
:104A8000652D81E00E94D607C4010E942714652D80
:104A900083E10E94D60780911001E81203C08EE3E3
:104AA0000E940C08F8013296E491EF77E33609F49E
:104AB00057C080F4E234B9F120F4EE2309F48DC03C
:104AC0006FC0EA3509F44AC0E23609F069C04424EF
:104AD00043942BC0E836D9F088F4E63609F060C07C
:104AE000F8013396A591B4918D919D910D90BC9153
:104AF000A02D8D839E83AF83B88752C0E33709F41E
:104B000045C0EA3709F04CC020E1298729C08091CF
:104B10002403803419F089E691E002C081E791E036
:104B20000E9427145AC06AE0462EF8013396A591D8
:104B3000B4916C9170E080E090E00E9496383B0167
:104B40004C01642D70E080E090E00E9494389B015D
:104B5000AC01C401B3010E94FB3713C080E2898716
:104B6000F8013396A591B4916C91062E000C770B49
:104B70009985691B7109072E000C880B990B0E94FF
:104B800096386D837E838F8398870AC0F8013396A9
:104B90006591749144E050E0CE0105960E943C0975
:104BA00080911001BD81AE813F812885E81203C04C
:104BB000BA87AB871901F8013596E491E295EF7059
:104BC000F0E0EE0FFF1FEC55FA4F859194914B2FBB
:104BD0005A2F632F722F0E94460EE6E0CE0ED11C94
:104BE000E52C3FCF85E08A9DF0018B9DF00D1124CF
:104BF000E35DFA4F85919491009711F0FC010995BE
:104C000080919203882309F49EC11092920311E0CF
:104C10001093830381E00E9400098739910514F005
:104C200081E004C08A369F4F24F48FEF0E94100960
:104C30008AC183E00E940009873991055CF01093D6
:104C400010018091F905823019F41092F9057BC1A9
:104C50008F5F0CC08A369F4F64F4109310018091CF
:104C6000F905811102C082E001C081508093F905ED
:104C70006AC1609110016F5F84E10E94D607809144
:104C8000100100915A0310915B03480196E0899F3F
:104C9000800C911C112480E00E9400095C0197FFA8
:104CA00006C0B194A194B108EE24E39401C0E12CB4
:104CB000F4013396C590D490F4013296249129875B
:104CC0008A859B85A32DB22D8D839E83AF83B88764
:104CD000122F1F77143640F4123680F4123461F02C
:104CE0001A3509F049C00AC0133751F11A3731F0AB
:104CF000163609F041C024C00AE001C001E08DE28F
:104D0000A81681E0B8063CF0412C512C40E2642EFC
:104D100041E4742E06C0412C512C30E8632E3FE351
:104D2000732E602F70E080E090E00E9496389B0127
:104D3000AC01C301B2010E94FB37FF24F39421C0F0
:104D4000C50164E670E00E94CA3AFB01EE0FFF1F46
:104D5000E15AFE4F6081718180E090E00E949438BA
:104D60009B01AC0160E070E080E89FE30E94FB37AC
:104D700001E024E0F22E05C060E070E080E89FE3EF
:104D800001E0E5E6AE16B1040CF446C0E11090581F
:104D9000AB01BC01CE0105960E94211AF4013596A3
:104DA000E491EF70F4E0EF9F30011124F301E65538
:104DB000FA4F65917491072E000C880B990B0E9495
:104DC00096384B015C019B01AC016D817E818F8126
:104DD00098850E94F43787FF04C08D829E82AF823F
:104DE000B886F301E455FA4F65917491072E000CD3
:104DF000880B990B0E9496384B015C019B01AC011A
:104E00006D817E818F8198850E94A439181624F4C3
:104E10008D829E82AF82B8868D809E80AF80B8845E
:104E20002A853B85432D522DC501B4010E94F437DC
:104E3000882309F488C0602F70E080E090E00E9431
:104E40009638A50194010E94AF390E946338133649
:104E5000C1F038F41A3589F01236A9F0123401F590
:104E600012C0133799F01A3751F01636C9F4F6010B
:104E700080829182A282B38213C080E203C080E16B
:104E800001C080E0680FF60160830AC089829A82BF
:104E9000AB82BC8244E050E0B601CE01019606C070
:104EA0004F2D50E0B60160517240C6010E94740956
:104EB000F985F7FF48C00E94760745C083E093E07C
:104EC0000E94950983E093E00E9472153CC0809196
:104ED000600390910A06891721F080930A061092C8
:104EE000980382E00E940009092E000CAA0BBB0B5C
:104EF000B7FF07C0B095A095909581959F4FAF4F94
:104F0000BF4F8D329140A105B105D4F483E00E94DA
:104F10000009092E000CAA0BBB0BB7FF07C0B09508
:104F2000A095909581959F4FAF4FBF4F8D32914087
:104F3000A105B1052CF480918A03882309F431CDB1
:104F4000109298032ECD2B96E2E10C94AA3B66E9D1
:104F500070E080E090E00C94B7301F920F920FB693
:104F60000F9211242F933F934F935F936F937F93EF
:104F70008F939F93AF93BF93EF93FF9381E08093C1
:104F8000280310928203809181038F5F80938103B5
:104F90000E94863060937D0370937E0380937F032D
:104FA000909380038091A603882321F00E9421081A
:104FB0001092A603FF91EF91BF91AF919F918F91B6
:104FC0007F916F915F914F913F912F910F900FBE05
:104FD0000F901F901895CF92DF92EF92FF920E9450
:104FE00092306B017C0183E00E947A31813049F478
:104FF000C0927403D0927503E0927603F092770327
:105000001FC08091740390917503A0917603B091B5
:1050100077030097A105B10599F0C81AD90AEA0AE1
:10502000FB0AD0927903C092780310927403109215
:105030007503109276031092770381E080937A03D0
:10504000FF90EF90DF90CF9008951F920F920FB6D0
:105050000F9211242F933F934F935F936F937F93FE
:105060008F939F93AF93BF93EF93FF93B4DFFF9121
:10507000EF91BF91AF919F918F917F916F915F91D0
:105080004F913F912F910F900FBE0F901F90189549
:1050900065E082E00E94D60789E391E00E94271430
:1050A0000E9486304AE050E080E393E00E94823222
:1050B00080919D03882359F061E081E00E94D6072A
:1050C00060912A0470E084E291E00E94A10B0E94AA
:1050D00021083DCFCF930FB6F894A895809160003A
:1050E000886180936000109260000FBE60E071EEF6
:1050F00080E090E00E94EE324DE450E060E072E02B
:1051000080E194E00E943C098091100481FD03C07D
:1051100081E099E002C08EEE98E090937206809351
:10512000710680912A048F3421F480912B048A31F6
:1051300019F081E080939D0384B58C7F84BD83E06A
:105140000E94C53180917A008B7F80937A00809194
:105150007A00866080937A00809169008C7F8260FB
:1051600080936900E89A80911504813059F462E0D7
:1051700083E00E941E3180916900837F8460809368
:105180006900E99A8CE293E090932B0380932A03C1
:105190005E9A0E942108789480912C04893341F40E
:1051A00080912D04823321F480912E04843389F080
:1051B00089E380932C0482E380932D0484E380931D
:1051C0002E0443E050E06CE172E08CE294E00E9437
:1051D000740980915504882339F1E0915604EE2337
:1051E00019F1F0E0E15EFE4FC4912C2F30E0F9019F
:1051F000EE58F64F9491F901E25AF64F249120931C
:105200007303E92FF0E0EE0FFF1FE057F64F859193
:105210009491909372038093710380E00E94F91B34
:1052200061E08C2F0E941E310E94B40731DF0E9482
:10523000861663E171E08CE293E00E948133CF91A6
:105240000895E0910301EF5FE0930301E770F0E060
:10525000EE0FFF1FE357FB4F9183808388E060E0F0
:1052600070E08150E82FF0E0EE0FFF1FE357FB4F97
:1052700020813181620F731F8111F3CF80E090E0B4
:105280000E94943820E030E040E05EE30C94AF39B7
:1052900097FD05C08F3F910509F01CF4089580E04B
:1052A00008958FEF0895CF92DF92EF92FF92CF9300
:1052B000DF938091100484FD05C0809165038823ED
:1052C00009F4A0C0C0910201CF5FC093020180E148
:1052D0000E94C831C770EC2FF0E0EE0FFF1FE358BB
:1052E000FB4F9183808388E0C0E0D0E08150E82FBD
:1052F000F0E0EE0FFF1FE358FB4F20813181C20F1A
:10530000D31F8111F3CF2091690330916A0347E0E5
:10531000429FC001439F900D11248C0F9D1F23E0DD
:10532000969587952A95E1F790936A038093690390
:105330008091100484FF66C029E53EEE49E050E408
:10534000609132047091330480913404909135045B
:105350000E94AF396B017C01BE0180E090E00E94A9
:1053600094389B01AC01C701B6010E94AF390E947D
:10537000683840916F06509170064115510529F427
:105380007093700660936F0612C09A01220F331F4C
:10539000240F351F2E5F3F4FA901460F571F56950B
:1053A0004795569547955093700640936F0681E058
:1053B00080938303E09119048E2F61E20E949D3A4D
:1053C000482F80916F0690917006C29664E670E057
:1053D0000E94B63AF0E09B012E1B3F0BAFEFB0E00E
:1053E0000E94213B5AE2459F900111242E1B3F0B46
:1053F000032E000C440B550B0E94FF3AC90148DFF5
:1054000080936A068091100485FF04C080919F03F9
:10541000811105C080916603882309F49CC0C09166
:105420000101CF5FC09301018EE0B2D7C770EC2FAE
:10543000F0E0EE0FFF1FE359FB4F9183808388E07C
:10544000C0E0D0E08150E82FF0E0EE0FFF1FE359FD
:10545000FB4F20813181C20FD31F8111F3CF2091E7
:105460006B0330916C0347E0429FC001439F900D56
:1054700011248C0F9D1FA3E096958795AA95E1F7BF
:1054800090936C0380936B038091100485FF63C03D
:1054900029EA3CEC48E050E460913604709137040E
:1054A00080913804909139040E94AF396B017C01DE
:1054B000BE0180E090E00E9494389B01AC01C701DE
:1054C000B6010E94AF390E94683840916D06509134
:1054D0006E064115510529F470936E0660936D06B2
:1054E00012C09A01220F331F240F351F2E5F3F4F2A
:1054F000A901460F571F56954795569547955093C6
:105500006E0640936D06E09152048E2F61E20E9478
:105510009D3A482F80916D0690916E06C29664E682
:1055200070E00E94B63AF0E09B012E1B3F0BAFEFFC
:10553000B0E00E94213B5AE2459F900111242E1BAE
:105540003F0B032E000C440B550B0E94FF3AC90180
:105550009FDE809369068091100486FD05C08091CE
:105560006703882309F480C080916303882349F08E
:1055700020E137E240E050E061E08FE0D4D6CB019B
:1055800002C08FE005D7E0910001EF5FE0930001DA
:10559000E770F0E0EE0FFF1FE35AFB4F918380832B
:1055A00088E0C0E0D0E08150E82FF0E0EE0FFF1F70
:1055B000E35AFB4F20813181C20FD31F8111F3CFFA
:1055C00020916D0330916E0347E0429FC001439FDD
:1055D000900D11248C0F9D1F33E0969587953A9579
:1055E000E1F790936E0380936D038091100486FF22
:1055F0003BC02DE032E348EC5CE360913A047091EB
:105600003B0480913C0490913D040E94AF396B01B2
:105610007C01BE0180E090E00E9494389B01AC01C7
:10562000C701B6010E94AF390E94683840916B06ED
:1056300050916C064115510529F470936C066093E6
:105640006B0612C09A01220F331F240F351F2E5FE5
:105650003F4FA901460F571F5695479556954795B9
:1056600050936C0640936B0680911E0486958130A2
:1056700041F038F1823041F0833039F58091E60312
:1056800022C081E185D608C020E23EE440E050E03F
:1056900061E081E148D6CB01D4DD20913E04309118
:1056A0003F0440914004509141040E94AF390E9450
:1056B00068387093E5036093E40381E0809383038B
:1056C00037C08091E70390E004C0809181069091FB
:1056D0008206B7DD0E9468387093E5036093E403A7
:1056E00080916803882321F180916403882341F02D
:1056F00020E137E240E050E061E081E114D603C0F0
:1057000081E146D6BC0180916F039091700347E020
:10571000489F9001499F300D1124620F731F83E051
:10572000769567958A95E1F77093700360936F03A0
:10573000DF91CF91FF90EF90DF90CF90089581E0BF
:105740000C94F91B80E393E00E9400078CE293E045
:105750003DD7E4E1F9E088E992E0968B858B8CE90E
:1057600092E0948F838F80EB92E092A381A384EBED
:1057700092E090A787A388EC92E096A785A78CEC8F
:1057800092E094AB83AB0895A4E0B0E0EAECFBE2D6
:105790000C94903BA8957894B9D46B017C0128EEC9
:1057A00033E040E050E00E94DD3A30931806209349
:1057B00017062CEDC21625E0D206E104F10428F00C
:1057C00080919D03882309F47BC048D7882309F47E
:1057D00075C053D78A3031F48091E1038F5F809395
:1057E000E10302C01092E1038091E103843068F389
:1057F0008CB583608CBD0E94F40E65E085E00E944C
:10580000D6078DEF90E00E9427140E942108F12C0A
:10581000C12CD12C00E010E0E12CA12C0F3F110590
:1058200011F00CF046C01AD78823C1F326D7B82E42
:1058300081E38B1550F090E3B91600F5EAE0BE164F
:1058400051F0FDE0BF1651F023C022E7B21220C094
:10585000015011091DC08DE0C81649F1D11003C0D7
:105860000E94F40E24C098E0E91211C0EA2DF0E085
:10587000ED53FB4FF082A394F12C09C0FF0CE1E340
:10588000BE1201C0F394E394DD24D39401C0E12C53
:10589000F0E4AF120CC063EC74E0C8010E9445084C
:1058A0000F5F1F4F80E191E00E94EF0EA12CCB2CE7
:1058B000B5CF8DE091E00E94EF0EDAC3E9DBD8C3EB
:1058C00080911006882381F080919A0381110CC089
:1058D0000E94481C3CDB0E94481C39DB0E94481C8B
:1058E00036DB81E080939A0303EC14E030E4632E0E
:1058F0007724739480918503811108C08091860379
:10590000811104C080918F03882361F00E94991C4B
:10591000809185038093860380918303882309F413
:10592000DEC175C0F801262D11922A95E9F793D6AC
:10593000EDD34B015C01E4E68E0E911CA11CB11C61
:105940002AEF422E55245A94E1D386169706A806CC
:10595000B906A8F024EC39E040E050E060E080E0D7
:10596000E2D46F3F71058105910509F02CF466239F
:1059700019F0651508F4562E4A944110E5CFFFEF53
:105980005F1203C05090080102C0509208012AE043
:10599000251590F482E1851590F49CE1951590F41D
:1059A000E7E2E51590F4FBE3F51590F425E92515FC
:1059B00090F421E040E411C028E142E00EC02CE068
:1059C00044E00BC028E046E008C026E048E005C0FF
:1059D00024E040E102C022E040E230E0A0ECB2E18D
:1059E0000E94213B4B015C014093B3066093A203EC
:1059F0007093A3038093A4039093A5038CE293E098
:105A0000DCD5C501B401EAD57092860373CF10913D
:105A10000A0680911504833008F456C1833029F4B6
:105A2000209178033091790311C09BEF980F943047
:105A300048F4E82FF0E0EE0FFF1FEF58F94F2081F8
:105A4000318104C02091810630918206A901405223
:105A500053404939584008F037C1409106015091F0
:105A600007012417350720F430930701209306011E
:105A700040910401509105014217530720F43093DF
:105A8000050120930401843049F5809162069AEF64
:105A9000980F923008F498C090915106981789F0A9
:105AA0008093510660E070E08DE496E00E94AF11B3
:105AB0009091510680911101981303C081E0809369
:105AC00087038DE496E00E941A14813D974008F404
:105AD0007BC0809162068093110176C080911A0488
