:10000000A2C500000C94941E0C94251FC4C50000CA
:10001000C2C50000C0C50000BEC50000BCC50000D0
:10002000BAC50000B8C50000B6C50000B4C50000E0
:10003000B2C50000B0C50000AEC50000ACC50000F0
:100040000C94672BA8C500000C9430100C9456102B
:10005000A2C50000A0C500009EC500009CC5000010
:100060009AC5000098C500004223422351235D2316
:1000700072238C23B423C823E623084AD73B3BCE04
:10008000016E84BCBFFDC12F3D6C74319ABD568397
:100090003DDA3D00C77F11BED9E4BB4C3E916BAA4F
:1000A000AABE000000803F05A84CCDB2D44EB9389E
:1000B00036A9020C50B9918688083CA6AAAA2ABE85
:1000C000000000803F0664EC1B3C04BC163E3BE590
:1000D000B93CC93C37C29E5A3D660498083EEA695D
:1000E000AAAA3E000000803F03020100536372652C
:1000F000656E20300046440A00434425640A0052DD
:1001000046460A00100E0F114D697373696E672F12
:100110004F6C6420436F6E6669673A202564206DDA
:1001200079203739004D696E696D4F53442D4578FC
:100130007472612055415654616C6B20322E347CB0
:10014000756E6920723838372044567C0020284E5E
:100150005453432900202850414C290025372E3282
:10016000660025362E3166009125372E326600A1B5
:1001700025372E3266005C010B68B0040062018FE7
:1001800068F3050062011473A8040062011D73A0E6
:10019000040062011268A4040068019076980400CB
:1001A0006F01A0769404006201BD619C04006201AD
:1001B0005777900400000000000000004E6F206997
:1001C0006E7075742064617461212025757C00B89F
:1001D000B900253469050700253469050600253571
:1001E0002E32660D00253269006F7665726C6F6184
:1001F000640053747265616D0066726F7A656E009B
:1002000053747265616D0025342E3066010025320D
:100210002E3066252500256325638E25342E306615
:100220000100256325638E25322E306625250025A5
:10023000346905007C20CECECECE60CECECECE2090
:100240000040CB242020207C007C20202024CB00D8
:100250008280818081808480818081808380818090
:10026000818085808180818020C8C8C8C87EC8C838
:10027000C8C8207C0020202024CBB8B9CB24202063
:10028000207C00253369050020586525342E306612
:100290000025342E306600253269200025352E30A9
:1002A000660025332E306925250025352E32660E51
:1002B0000025332E30660025332E30660025322E81
:1002C00030660025342E3066002520352E31661824
:1002D000002520352E326618005225332E30660553
:1002E000005025332E306605004825332E30660534
:1002F000004225352E316605004525352E31660034
:100300004525342E30666D00734525352E31660047
:10031000D9026E69F10500E1026E69EF0500E9029C
:100320006E69ED0500F1025469EB0500F9024168C0
:10033000E6050000035869DC050008034173E20587
:1003400000000000000000002533690025303269FC
:100350007C002533690025342E3066010020209072
:10036000910025342E30660025352E316600432558
:10037000642535697C0025342E30660025342E3105
:10038000660025342E32660025342E306600253472
:100390002E30660025342E32660025342E3266005B
:1003A0004325692000256900253464004325692020
:1003B00000B0B1B4B5B6B77B7D156E190001210A46
:1003C00000021A0A00033217BC8403172605980C92
:1003D00000078A0D0018030D00060B150008270EF4
:1003E0000009611900256513008BB0110B0A4D0B34
:1003F0000019790C000DAB145C1116141116D811EC
:100400001212C5131417B7131313140A0214FC099C
:100410007F0FD816BD2E430A571B99161D1CC20C00
:10042000151D6213000E850C091EC1150021680AF6
:100430000020880B0022A7118F24D9131F2B3D0AFF
:100440001F2CE010002DB910002F9B1000A7190CD5
:1004500000A8160C00A9130C00AA100C001F550BC5
:1004600000261C0C009AEA11000000000045050C53
:100470000000FF04052210810409B90900000000F2
:10048000003206000000000000000000000000290B
:1004900006730180020000F905C0E0401F200673CA
:1004A0000184020000F9059CFF640017067301989F
:1004B000020000F905C0E0401F200673019C020005
:1004C00000F9059CFF640009067301B0020000F901
:1004D00005C0E0401F20067301B4020000F9059C2E
:1004E000FF6400FE057301C8020000F905C0E0408A
:1004F0001F20067301CC020000F9059CFF64007701
:10050000066800000000000000000000005D0666B4
:100510000133060000F905FCFF04006A0666013796
:10052000060000F905FCFF0400410666013B0600D9
:1005300000F905FCFF04004F0666013F060000F9C4
:1005400005FCFF04002A0700000000000000000076
:100550000000001A07620A0A060000F2050000FF08
:10056000000B07620A43060000F2050000FF00FDD1
:1005700006620109060000ED050000FF00EB0662BF
:100580000108060000ED050000FF00DA0662011018
:10059000060000ED050000FF00CD06620111060017
:1005A00000ED050000FF00BD060000000000000097
:1005B0000000000000AF06620148060000ED0501E2
:1005C000000400A606620107065D09ED05000003B0
:1005D0000096065A0145065D09ED05E1FF1F0088FA
:1005E000067A0144065D09ED05F1FF0F00252E3066
:1005F000660025332E31667600252E3366003420C2
:10060000285253534929204B0033202843757272D6
:10061000656E7429204B00322028563229204B0069
:100620002020202020202041003120285631292060
:100630004B0020202050696E2053656E736F7273DB
:1006400000526F6C6C2020696E204E545343005052
:100650006974636820696E204E54534300526F6C76
:100660006C2020696E2050414C00506974636820F2
:10067000696E2050414C002020486F72697A6F6E7D
:1006800020616E676C657300566572746963616C96
:10069000206F66667300486F72697A6F6E74616C62
:1006A000206F66667300436F6E74726173740053DB
:1006B000637265656E7320436F756E7400202053FE
:1006C000637265656E20706172616D730052535381
:1006D00049207761726E696E6700426174742063AD
:1006E0006861726765207761726E004F766572731C
:1006F00070656564207761726E696E67005374611E
:100700006C6C207761726E696E6700426174742050
:1007100032207761726E696E67004261747465722F
:1007200079207761726E696E67002020204F5344F4
:100730002073657475700098078E07890784077F9A
:10074000077A077507A70772076D076A076707AC7F
:1007500007A2076407600793075B0761746F660071
:10076000706F6900707000706100686C00706F736A
:100770007200636C007374623600737462350073C8
:100780007462340073746233007374623200737481
:100790006231006372757A006D616E75006D5F2560
:1007A00064006C616E6400706F73680072746C003A
:1007B000ED07E007CF07C00727081A080B08FC075A
:1007C0000325392E356625630425392E3566000349
:1007D0002531302E36662563042531302E366600ED
:1007E00025392E3566256325392E356600253130AD
:1007F0002E366625632531302E36660003253035CA
:100800006C642563042530356C6400032530366C38
:10081000642563042530366C64002530356C64250E
:10082000632530356C64002530366C6425632530D3
:10083000366C6400B208A8089C088F088308760804
:100840006A085F085308480846656E63652046617C
:1008500072210046656E636520486967682100461D
:10086000656E6365204C6F7721004261747420428D
:10087000206C6F7721004869676820565370656562
:1008800064210020204C6F7720527373692100424D
:10089000617474657279204C6F772100204F766502
:1008A00072537065656421002020205374616C6C64
:1008B0002100204E6F2047505320666978210000A8
:1008C000070E091C1B1215383F363124232A2D70C0
:1008D000777E796C6B6265484F464154535A5DE0B0
:1008E000E7EEE9FCFBF2F5D8DFD6D1C4C3CACD9060
:1008F000979E998C8B8285A8AFA6A1B4B3BABDC7C9
:10090000C0C9CEDBDCD5D2FFF8F1F6E3E4EDEAB7FF
:10091000B0B9BEABACA5A28F88818693949D9A276F
:1009200020292E3B3C35321F18111603040D0A579F
:1009300050595E4B4C45426F68616673747D7A898D
:100940008E878095929B9CB1B6BFB8ADAAA3A4F93F
:10095000FEF7F0E5E2EBECC1C6CFC8DDDAD3D4692F
:100960006E676075727B7C51565F584D4A434419DF
:100970001E171005020B0C21262F283D3A33344E4A
:1009800049404752555C5B7671787F6A6D64633E7F
:1009900039303722252C2B0601080F1A1D1413AEEF
:1009A000A9A0A7B2B5BCBB9691989F8A8D8483DE1F
:1009B000D9D0D7C2C5CCCBE6E1E8EFFAFDF4F352CB
:1009C000B80E4085EB51401966BB0012800C1CA08C
:1009D000141E666666400000803F100CBA000A00D4
:1009E000001BE8031A0000000800020100000304D5
:1009F0000700000000000000000102040810204071
:100A000080010204081020010204081020040404DC
:100A100004040404040202020202020303030303A7
:100A2000030000000023002600290000000000252C
:100A30000028002B0000000000240027002A006E80
:100A4000616E00696E660000407A10F35A00A07271
:100A50004E18090010A5D4E80000E87648170000F9
:100A6000E40B54020000CA9A3B000000E1F50500C7
:100A70000080969800000040420F000000A0860110
:100A8000000000102700000000E8030000000064E0
:100A900000000000000A000000000001000000004B
:100AA000002C76D888DC674F0823DFC1DFAE59E120
:100AB000B1B796E5E3E453C63AE651997696E8E68F
:100AC000C28426EB898C9B62ED407C6FFCEFBC9C62
:100AD0009F40F2BAA56FA5F490055A2AF75C936B74
:100AE0006CF9676DC11BFCE0E40D47FEF520E6B52F
:100AF00000D0ED902E0300943577050080841E0809
:100B00000000204E0A000000C80C333333330F9826
:100B10006E12831141EF8D2114893BE65516CFFEED
:100B2000E6DB18D1844B381BF77C1D901DA4BBE479
:100B300024203284725E228100C9F124ECA1E53DBB
:100B40002700C0088C2211241FBECFEFD8E0DEBFE3
:100B5000CDBF11E0A0E0B1E0E8E2FDE602C0059003
:100B60000D92A233B107D9F726E0A2E3B1E001C0AC
:100B70001D92AE3DB207E1F71BE0C6E4DBE004C026
:100B80002297FE010E944836C234D107C9F70E945D
:100B9000E82D0C942A3234CACF92DF92EF92FF9262
:100BA0000F931F93E82FF92F05C001501109210958
:100BB000310961F1908196239417B9F305C0015072
:100BC00011092109310911F1908196239413F7CF6E
:100BD000C12CD12CE12CF12C0AC08FEFC81AD80AF5
:100BE000E80AF80A0C151D052E053F0579F08081ED
:100BF0008623841791F36C2D7D2D8E2D9F2D1F91B3
:100C00000F91FF90EF90DF90CF90089560E070E03B
:100C100080E090E01F910F91FF90EF90DF90CF90D8
:100C20000895FA01AA27283051F1203181F1E89482
:100C30006F936E7F6E5F7F4F8F4F9F4FAF4FB1E0CF
:100C40003ED0B4E03CD0670F781F891F9A1FA11DCA
:100C5000680F791F8A1F911DA11D6A0F711D811DCB
:100C6000911DA11D20D009F468943F912AE0269F90
:100C700011243019305D3193DEF6CF010895462FEF
:100C80004770405D4193B3E00FD0C9F7F6CF462FD0
:100C90004F70405D4A3318F0495D31FD4052419339
:100CA00002D0A9F7EACFB4E0A695979587957795F6
:100CB0006795BA95C9F700976105710508959B017D
:100CC000AC010A2E06945795479537952795BA9506
:100CD000C9F7620F731F841F951FA01D0895283048
:100CE00008F027E03327DA01990F311D87FD916065
:100CF00000966105710539F432602E5F3D9330E353
:100D00002A95E1F708959F3F30F08038710561051D
:100D100009F03C5F3C5F3D93913008F08068911D85
:100D2000DF93CF931F930F93FF92EF92192F987F2A
:100D30009695E92F96959695E90FFF27EF55F54F74
:100D400099273327EE24FF24A701E7010590089493
:100D5000079428F4360FE71EF81E491F511D660F31
:100D6000771F881F991F0694A1F70590079428F410
:100D7000E70EF81E491F561FC11D770F881F991FC8
:100D8000661F0694A1F70590079428F4F80E491FF2
:100D9000561FC71FD11D880F991F661F771F069406
:100DA000A1F70590079420F4490F561FC71FD81FBD
:100DB000990F661F771F881F0694A9F784911095D5
:100DC000177041F0D695C79557954795F794E794D6
:100DD0001A95C1F7E7E4FAE06894159015913591FA
:100DE0006591959105907FE27395E118F10A430BA7
:100DF000560BC90BD009C0F7E10CF11E431F561F5B
:100E0000C91FD01D7EF4703311F48A95E6CFE894A3
:100E1000015030F0080F0AF40027021708F4202FC1
:100E20002395022F7A3328F079E37D932A95E9F709
:100E300010C07D932A9589F6069497956795379506
:100E400017951794E118F10A430B560BC90BD009FB
:100E500098F023957E9173957A3308F070E37C9334
:100E60002013B8F77E9170617D9330F0839571E324
:100E70007D9370E32A95E1F71124EF90FF900F9195
:100E80001F91CF91DF91992787FD9095089580E07C
:100E9000089580E0089580E008950895FC0113828C
:100EA000128220E131E03183208308958EBD0DB49C
:100EB00007FEFDCF8EB56EBD0DB407FEFDCF8EB51E
:100EC00008958EBD0DB407FEFDCF8EB58FEF8EBD9C
:100ED0000DB407FEFDCF8EB508956FE070E080E0A1
:100EE00090E00C94E02B811180E49091140398170A
:100EF00049F0809314035E98609114036C6180E064
:100F0000D5DF5E9A08955E988091020681FD06C045
:100F10008091010683FF19C081E018C080EAD1DF0B
:100F200080FF06C081E0DFDF80910106886007C096
:100F300081FF08C080E0D7DF80910106877F809322
:100F4000010605C082FDE4CF02C080E0CCDF5E9ADE
:100F50000895CF93DF93E0910706E43008F0E0E0D6
:100F6000F0E0E851FF4FD49180E1C1E0C80F6D2F50
:100F70009DDFC03211F08C2FF8CFDF91CF91089513
:100F80005E98E7DF6091450682E090DF609144065D
:100F900083E08CDF5E9A0895CF935E988CEE91DFAC
:100FA000C82F60911403626080E080DF0E941F1FE1
:100FB0006C2F6F7E8CE67ADF62E18CE077DF6091E8
:100FC00014036C6380E072DF0E941F1F60911403A2
:100FD0006C6180E06BDFD4DFCF9108955E9862E0B2
:100FE00080E064DF7ADFD8CF61E086E00E94332CB6
:100FF00062E082E00E94332C86DFCECF2091150381
:101000008091160390E03EE1239F800D911D1124F5
:10101000909333018093320108958F71809316036A
:101020006F706093150380911403803411F0673062
:1010300008F4E4CF635060931503FBCF8F3F99F022
:101040002091320130913301203E91E0390758F46C
:10105000A9014F5F5F4F5093330140933201F90173
:10106000EC5CFE4F808308958C3731F4809115033A
:101070008F5F80931503C2CFE1CF862FF5DF81E02C
:1010800090E00895CF93C42FC8DF8C2FEDDFCF9170
:1010900008955E9860E085E009DF60E086E006DFA5
:1010A00061E084E003DF5E9AE4E3F1E080E25E98D1
:1010B00090819EBD0DB407FEFDCF9EB581935E9AD3
:1010C00093E0E431F90798F35E988FEF8EBD0DB48D
:1010D00007FEFDCF8EB55E9A08950F931F93CF93B1
:1010E000DF93C82F8B015E9860E080E0DFDE6C2F1D
:1010F00089E0DCDEE80110E00991612F8AE0D6DEAC
:10110000602F8BE0D3DE1F5F1633B1F760EA88E013
:10111000CDDE80EAD6DE85FF03C00E94F518F9CF48
:101120006CE080E0C3DE5E9ADF91CF911F910F915A
:101130000895A1E0B0E0EFE9F8E00C946B361CBC38
:101140008F7280658CBD8DB581608DBD8DB58983B5
:101150008EB589832196E2E00C94873661E08DE0BC
:101160000E94332C61E08BE00E94332C60E08CE025
:101170000E94332C61E08AE00E94332C80E0D9CFBA
:1011800087E193E0EBCFE82FF0E0EE0FFF1FE45391
:10119000FA4F80819181611105C028EE33E040ED66
:1011A00057E004C020E233E048E958E08217930793
:1011B00090F0FC01E21BF30BCA01821B930B65E06C
:1011C00070E00E94E135CF010E94E135862F653045
:1011D00018F084E0089580E00895ACECB5E0EDEB04
:1011E000F4E080819181883E934028F48D919C9118
:1011F0001197918380833296129684E0E53CF8073C
:1012000081F7089590E0880F991FDC01A453BA4F2D
:10121000FC01E354FB4F8D919C9120813181821B15
:10122000930B0895E091BC0425E0E29FF0011124A6
:10123000E159FB4F649161504091BA045091BB0455
:101240009091050187FF03C0992339F004C08823DA
:1012500011F0961721F0980F03C0962F01C090E06F
:10126000FA012EE0929FE00DF11D11243496259194
:101270003491232B39F39093050181E08093E804A6
:101280000895EF92FF920F931F93CF93DF937B010B
:101290008A01080F191FEC01E81AF90AC017D107D3
:1012A00039F0C7018C0F9D1F0E948C358993F6CFB2
:1012B000CDB7DEB7E6E00C94833662CE0895692F91
:1012C000ACCE8CE7D1CE80E2CFCECF93813110F07F
:1012D0008051FCCF811101C080E1C82FCC0FC250DA
:1012E00080E98C0FC1DE81E98C0FBEDECF910895BD
:1012F000A8E1B0E0EEE7F9E00C946A36182F88E137
:10130000189FB001112460587D4F48E150E0CE0194
:101310000196B7DFE12FF0E0EE0FFF1FE253FB4F26
:101320006081718180E090E00E94A93329813A8137
:101330004B815C810E94C4342D813E814F81588550
:101340000E9443329F938F937F936F93CE010996B0
:101350009F938F938CE894E09F938F930E94BD2E70
:101360000FB6F894DEBF0FBECDBF6896E3E00C94D5
:101370008636CF936AE086E050DEC0E08C2FB8DF7F
:10138000A0DFCF5FC430D1F7CF9108957F936F93E3
:101390009F938F938CE894E09F938F930E94CD2E20
:1013A0000F900F900F900F900F900F9008951F9334
:1013B000CF93DF93EC01162F6CE370E00E94E135D0
:1013C00082E593E0E3DF112331F08091F404882378
:1013D00011F080E201C08AE347DECE016CE370E0E9
:1013E0000E94E135BC018CE493E0D0DFDF91CF9126
:1013F0001F91089560E0DBCF8091B805682F70E001
:10140000823140F4FB01EE0FFF1FE95CF84F85913C
:10141000949102C08DE997E0B9DF8091EF048823B1
:1014200011F086E821CE089560915D0570E082EAB2
:1014300092E0ACCF60916E0570916F0588ED91E000
:10144000A5CF60916C0570916D0582ED91E09ECF06
:101450007F936F935F934F939F938F938CE894E068
:101460009F938F930E94CD2E8DB79EB708960FB68F
:10147000F8949EBF0FBE8DBF089540E050E0BA01C2
:101480008AE993E0E5CF4091BE055091BF05609198
:10149000C0057091C10581EB92E0DACFCF93C22FE6
:1014A0007F936F935F934F939F938F934CE854E098
:1014B0005F934F930E94CD2E8C2FD6DD8DB79EB7B4
:1014C00008960FB6F8949EBF0FBE8DBFCF910895BA
:1014D000A0E0B0E0EEE6FAE00C9465368091CA0533
:1014E0009091CB05FC013A961491329604910D9699
:1014F000FC01C591D4916091BB057091BC0580E061
:1015000090E00E94A9332DEC3CEC4CEC5DE30E9492
:10151000C4346B017C01602F70E080E090E00E9499
:10152000AB339B01AC01C701B6010E94C4346B010F
:101530007C01BE0180E090E00E94A9339B01AC01D8
:10154000C701B6010E9443322AE037ED43E25CE373
:101550000E94C434AB01BC01212F88E693E09EDFDA
:10156000CDB7DEB7E8E00C9481367F936F935F933D
:101570004F93209108011F922F93209107011F92F2
:101580002F939F938F938CE894E09F938F930E9467
:10159000CD2E8DB79EB70C960FB6F8949EBF0FBE9A
:1015A0008DBF0895EFE8F5E023812F9322812F93DB
:1015B00021812F9320812F931F926F93EBE8F5E009
:1015C00023812F9322812F9321812F9320812F9389
:1015D0009F938F938CE894E09F938F930E94CD2EDE
:1015E0008DB79EB70E960FB6F8949EBF0FBE8DBFF7
:1015F0000895EF92FF920F931F93CF93DF93EB0128
:101600008A017C01060F171FC017D10741F0F701AF
:1016100061917F01CE010E9494352196F5CFCDB71F
:10162000DEB7E6E00C9483360E94423220EC3BE6C3
:1016300049ED57E40C94C434CF92DF92EF92FF92BD
:10164000CF93C42F6B017C01E894F7F8C701B60172
:101650000E947833882777FD8095982F0E94AB33BE
:101660009B01AC01C701B6010E9442329B01AC0153
:10167000CC2329F060E070E583EC97E404C060E0DF
:1016800074E284E799E40E94C4340E947833CF91D5
:10169000FF90EF90DF90CF9008958091F60488231B
:1016A00019F08091760511CE089580915B05909197
:1016B0005C058F739927029730F462E176E08CE83D
:1016C00094E00C94562D0895CF93C42F28EE33E068
:1016D00040E050E00E9408366C2FC90168DECF91CF
:1016E00008957F936F939F938F938EE693E09F93DC
:1016F0008F938CE894E09F938F930E94CD2E8DB7AB
:101700009EB708960FB6F8949EBF0FBE8DBF089582
:101710000F931F93CF93DF930CEC15E0C1E0D0E063
:10172000F801619171918F01CE01DBDF2196C93003
:10173000D105B1F7DF91CF911F910F910895A2E0EC
:10174000B0E0E5EAFBE00C9464368C01F801B4905B
:101750003196E590F490E114F10441F18091520545
:101760006B2D6F7770E0660F771FF0E88F9F600D2D
:10177000711D112442E050E0CE01019682DDC98046
:10178000DA80C6019CDDD7FC09C0C7FC09C0F8019E
:1017900033968491882321F067DC02C0B7FE03C032
:1017A000C601F70109950C5F1F4FD0CF2296E9E0E3
:1017B0000C948036CF93C82F60916E0370916F03A5
:1017C00080917003909171030E9478336150710988
:1017D0006F30774278F4C7FD02C086E145DC409166
:1017E0006E0350916F03609170037091710386E5F1
:1017F00093E02EDECF910895262F30E0F901E653D5
:10180000FB4F87FD0BC091E09083F901EA53FB4F3A
:1018100086FB882780F98083862F6ACD1082089501
:1018200063E0892FE9CF62E0892FE6CF61E0892F5D
:10183000E3CF60E0892FE0CF0F931F93CF93DF9327
:1018400020910F05222309F44DC040910D055091C0
:101850000E0520915B0530915C054217530709F492
:1018600041C02AE130910C05231B27FD0BC02695B2
:10187000692F820FD2DB6FE075E08CE894E00E9464
:10188000562D32C096FD1CC0219530E08091530545
:1018900090910B05891B90E0B901660F771F0E949C
:1018A000F5354091050541110DC0009729F02150F3
:1018B00031098217930731F421E02093050502C016
:1018C00080E090E0EC01C15FDA4F8E01065E1F4FB1
:1018D0008991811102C0F7DC07C0C6DBC017D107B0
:1018E000B9F7F9CF10920F05DF91CF911F910F91AA
:1018F000089596FB442740F96091A8057091A905C9
:101900008091AA059091AB05DFCECF93C92F60914E
:1019100044057091450588E493E038DD80910F0619
:1019200080FD04C0C6FF02C085E29EDBCF91089512
:101930001F93CF93DF93192F90918905923019F05F
:1019400020F4CAE203C0CFE101C0CFE0D82FD09588
:10195000DD1FDD27DD1F11F016FF0DC060918A0528
:1019600070E085EE91E012DDDD2341F016FF06C048
:101970008C2F7ADB03C08C2F77DBF0CFDF91CF91F8
:101980001F910895CF92DF92EF92FF9296FF23C0AE
:1019900081E08093FB0429E838E848E85CE3609143
:1019A000F7057091F8058091F9059091FA050E946C
:1019B000C4346B017C010E947833675F7F4F6331D1
:1019C000710518F481ED92E002C089EC92E0B70154
:1019D000A6013EDD13C01092FB04E091CA05F09110
:1019E000CB05729624914091F7055091F8056091CE
:1019F000F9057091FA0583EC92E050DDFF90EF90CD
:101A0000DF90CF900895CF92DF92EF92FF921F93D5
:101A1000CF93DF93D82FC92F8091BD058F55863086
:101A200010F414E601C01FEF6091C30570E080E080
:101A300090E00E94A9336B017C01612F70E080E08F
:101A400090E00E94AB339B01AC01C701B6010E943C
:101A5000103320E030E048EC52E40E94C4346B01C3
:101A60007C01C074D7FD41C088E8FEDA2AE037ED7A
:101A700043E250E4C701B6010E94C4340E947D33A2
:101A80009B016138710548F029E8209307019B010B
:101A900020583109E8E0F1E012C08DE88093080198
:101AA0002231310550F48091F404882331F080E232
:101AB00080930701809308010AC0E7E0F1E0C901C3
:101AC0006AE170E00E94E1358DE8861B8083CC23BB
:101AD00029F0B701A60182E292E005C040E050E0A3
:101AE000BA0186E192E041DD0DC0CC2329F0AB01C3
:101AF000BC018EE092E005C040E050E0BA0187E012
:101B000092E0A6DCDF91CF911F91FF90EF90DF90E4
:101B1000CF900895A0E0B0E0E0E9FDE00C946536D8
:101B200040918F05509190056091910570919205BB
:101B3000452B462B472B69F440918B0550918C0522
:101B400060918D0570918E05452B462B472B09F42E
:101B500079C094FF02C010E201C01CE796FB002789
:101B600000F9E82FE095EE1FEE27EE1FEE0FE02BB9
:101B70008091F404882311F180910005853058F09C
:101B800060E072E08CE894E00E94A92E812F6CDA6C
:101B900069EF71E00EC080910105853078F062EF49
:101BA00071E08CE894E00E94A92E812F5DDA69EE45
:101BB00071E08CE894E00E94A92E44C0FF27E7FD65
:101BC000F095EE0FFF1F95FF37C0E854F84FC59111
:101BD000D49160918F0570919005809191059091BD
:101BE0009205402F29DDF62EE72ED82EC92E6091C2
:101BF0008B0570918C0580918D0590918E05402FFD
:101C00001BDDCF92DF92EF92FF921F921F939F9363
:101C10008F937F936F93DF93CF938CE894E09F93A0
:101C20008F930E94CD2E8DB79EB70E960FB6F89467
:101C30009EBF0FBE8DBF06C0E055F84F85919491B1
:101C4000612FB0DCCDB7DEB7E8E00C948136FF92AF
:101C50000F931F93CF93DF93D92F182F1095111F38
:101C60001127111F51F096FD08C095FF39C065E797
:101C700072E08CE894E00E94A92E83ECF5D92091C3
:101C80006A0530916B0548E1429FC001439F900D6A
:101C900011240C9668E671E00E94F53564507109D4
:101CA000C62F77FF02C0C8E1C60FD5FBFF24F0F8AE
:101CB000D5FF02C00AE001C009E0EC2FF0E0E05BD4
:101CC000FD4F8491D1D9CF5FC83108F0C0E00150F9
:101CD000A1F787E8C9D91123D1F0D6FD04C017C0F8
:101CE00068E672E0C6CFFF2079F069E472E08CE824
:101CF00094E00E94A92E8CE7A1D961E472E08CE8FF
:101D000094E00E94A92E03C064E372E0F8CFCDB73F
:101D1000DEB7E5E00C948436ADE0B0E0E2E9FEE049
:101D20000C945B36782E688780911403803489F494
:101D3000C0903706D0903806E0903906F0903A0609
:101D40008090330690903406A0903506B090360609
:101D500010C0C0903F06D0904006E0904106F09041
:101D6000420680903B0690903C06A0903D06B090C5
:101D70003E0660916E0570916F05882777FD80950E
:101D8000982F0E94AB339B01AC01C501B4010E94A6
:101D9000C4344B015C018091E00480FF04C0B7FAB9
:101DA000B094B7F8B094C501B4010E947833AB0188
:101DB0006A35710538F09B012D543F4F29353105A7
:101DC00080F4A9014734510590F54A31510518F5C1
:101DD0004A30510530F529E02C875DEC652E16EC74
:101DE00030C06B3571051CF0AB01435B5109CA0172
:101DF00057FF03C091958195910987349105B8F4F7
:101E00008A319105C8F40A9730F338E03C8745EFF2
:101E1000642E12EE16C087E08C8738EF632E19ED22
:101E200010C098E09C8723EF622E10ED0AC01C863C
:101E30009DEC692E11EC05C0E7E0EC878BEF682E76
:101E40001BEE27EA32E94BE25CEBC701B6010E94C8
:101E5000C4346C837D838E839F8325E33AEF4EE801
:101E60005CE3C501B4010E94C4344B015C010CE089
:101E7000202E312C00E07A947B822C85332727FD9D
:101E800030953A8729873AEF360D3B87C02EDD24FF
:101E9000C7FCD09480916C0590916D058C0D9D1DB3
:101EA000BC01882777FD8095982F0E94AB332C8149
:101EB0003D814E815F810E94C4340E946C3520E0D8
:101EC00030E044EB52E40E94C4342B013C0120E09A
:101ED00030E0A9010E94B93420E030E040E05FE347
:101EE00087FD0BC0C301B2010E9443320E947833C8
:101EF0007B01EDE2EE0EF11C0AC0C301B2010E94AB
:101F000042320E9478337B01FDE2EF0EF11C2DE09E
:101F100022192D87882799278C199D099A838983EF
:101F2000FD858F2F90E0281639060CF475C0C50189
:101F3000B4010E946C352B013C019D85ECE09E9F15
:101F4000602D11246E54772767FD7095872F972F8A
:101F50000E94AB339B01AC01C301B2010E94C434A7
:101F60000E947833F701E60FF71FCF0101978A35FA
:101F7000910508F04DC062E170E00E94F535662ED3
:101F80002C85222391F03EEE3603A001379F500DA1
:101F900011244E0F5F1F4F5F5F4F57FF02C04F5F0F
:101FA0005F4F55954795742E01C0712C5884561A71
:101FB00064E0650D8B819D85890F2FD8002389F002
:101FC000ED85E53071F4B601D7FE02C069817A81F2
:101FD0004AE050E08CE894E00E94CE2DF6E0FD87C8
:101FE00003C0872D810F40D8772091F0872D90E096
:101FF00029853A85821793075CF034E0631641F037
:102000004B85470D63E0650D8B819D85890F3AD81F
:10201000ED85EF5FED8784CFF7FE0AC0025E82E0B8
:10202000281A310894E02916310409F02FCF06C090
:102030002BE5E216F10414F00E51F1CF2D96E2E1FA
:102040000C94773666E089E067CEAB01BC01E09185
:10205000CA05F091CB05399624918CE992E01ECA0D
:102060001F920F920FB60F9211242F938F939F936D
:10207000EF93FF939091C6008091DC068F5F8F777E
:102080002091DD06821741F0E091DC06F0E0E65A8F
:10209000F94F90838093DC06FF91EF919F918F9190
:1020A0002F910F900FBE0F901F9018951F920F92B7
:1020B0000FB60F9211248F939F93EF93FF939091FC
:1020C000DB068091DA06981779F0E091DB06F0E004
:1020D000EA5AF94F80818093C6008091DB068F5FBA
:1020E00083708093DB0605C08091C1008F7D809353
:1020F000C100FF91EF919F918F910F900FBE0F90B4
:102100001F901895EAE7F0E080818B7F80838081C3
:1021100086608083089595FB222720F994FF02C0F2
:1021200092E001C090E0292B86FF02C084E001C04C
:1021300080E0822B08951F93CF93DF93182FEBDF5E
:102140008C5FC82FD0E017FD06C0BE016F5F7F4FC8
:102150008CEA93E01BD9FE01EE0FFF1FE453FA4F08
:102160006081718188EA93E011D9DF91CF911F914D
:1021700008951F93CF93DF93182FD92FCCDFC4E09E
:10218000C80F17FD07C06C2F70E06F5F7F4F85EAA7
:1021900093E0FCD8D6FB662760F98C2F0E94C30819
:1021A000D82FC0E0CD1711F080E801C081E80E946F
:1021B0003408CF5FC530B1F7DF91CF911F910895FB
:1021C0001F93CF93DF93182FD92FA5DFC4E0C80F3B
:1021D00017FD07C06C2F70E06F5F7F4F80EA93E0C0
:1021E000D5D8D6FB662760F98C2F0E94C308182F1C
:1021F000C0E0D3E0CE010E948C358F3F71F0811199
:1022000003C0112351F01150111102C00E94340873
:102210002196C03883E0D80769F7DF91CF911F91ED
:10222000089596FB222720F930E095FF03C082E055
:1022300090E002C080E090E0822B932B01978330E6
:10224000910540F4FC01EE0FFF1FE45EFE4F80811C
:102250009181089580E090E008950F931F93CF93AC
:10226000DF93EC018B010E94B12B600F711F811D68
:10227000911D688379838A839B83DF91CF911F911E
:102280000F9108959B01FC0140815181628173810E
:10229000420F531F611D711D4083518362837383FD
:1022A0000895E091CA05F091CB053496659175913A
:1022B000859194910895CF92DF92EF92FF92CF9300
:1022C000DF936B017C01EDDFA70196010E94C4340E
:1022D0006B017C010E947833C091CA05D091CB0577
:1022E000FE01603177423CF439962491B701A60192
:1022F00088E893E024C070966591749180E090E046
:102300000E94A9339B01AC01C701B6010E941033A2
:102310006B017C010E9478336A30710534F06436B9
:10232000710534F48CE793E005C082E893E002C0C5
:1023300086E793E0FE013F962491B701A601AED84F
:10234000DF91CF91FF90EF90DF90CF900895609153
:10235000F3057091F4058091F5059091F605ABCFEA
:1023600096FB882780F9809304058091F6048823E2
:1023700069F097FD0BC060917705709178058091A9
:10238000790590917A050E94AB3395CF0895CF924D
:10239000DF92EF92FF926B017C0183DFA701960130
:1023A0000E94C43452DEFF90EF90DF90CF900895EA
:1023B0006091660570916705809168059091690547
:1023C000E6CFE091CA05F091CB05659175918591B5
:1023D00094910895CF92DF92EF92FF928091EE0454
:1023E000882309F4E0C01092EE04C0906205D090FA
:1023F0006305E0906405F0906505E3DFA7019601B1
:102400000E94C4340E9478338091C8059091C90518
:102410002091FA04222351F031E020E04091890517
:10242000423008F030E0E32EF22E02C0E12CF12C15
:102430004091050641110CC02091090630E0621759
:10244000730734F42091F30420FF02C06894E1F88C
:1024500020910806222331F030E02617370714F4C4
:102460006894E2F8F091C305E091BD0520910A0659
:10247000222359F064E670E00E94E1356115710590
:1024800021F030E062177307ECF020911006222350
:10249000D9F034E6F39FC00111243E2FE7FF02C0BC
:1024A00031E03E0F3595830F911D37FD9A956E2FC4
:1024B000772767FD70950E94F535822F90E06817A9
:1024C000790714F46894E3F880910F0680FD0CC03E
:1024D0008091110690E02091440530914505281720
:1024E000390710F46894E4F88091F7059091F805A5
:1024F000A091F905B091FA054130A9F4D0900906F0
:10250000DD2089F0BC01CD019F770E947833CB019B
:102510006AE070E00E94F5358D2D90E086179707F0
:1025200014F46894E5F88091C6059091C705209150
:102530004306222379F064E670E00E94E1356115DC
:10254000710541F0822F90E0681779071CF46894B8
:10255000E6F803C0E114F10421F150916D0381E02C
:102560005111850F80936D0340916D032FEF240F60
:1025700081E090E002C0880F991F2A95E2F74B3066
:1025800018F041E081E090E09C012E213F21232BB7
:1025900021F4880F991F4F5FF2CF40936D034513CD
:1025A00002C010926D03E0916D03EE2359F0F0E04C
:1025B000EE0FFF1FEE5CF74F659174918CE894E08D
:1025C0000E94A92EFF90EF90DF90CF900895A0E099
:1025D000B0E0EDEEF2E10C946636EC01FE010591FF
:1025E00014910115110509F468C0FE013296849119
:1025F00081110E943408FE01339684913196E59052
:10260000F4908936D1F068F4813681F0883609F08B
:102610003AC0E091CA05F091CB053996D49041DEDD
:102620003BC08337B1F08637E1F02DC051E4D52EA1
:102630006AE077ED83E29CE32FC0F701608171814E
:10264000882777FD8095982F0E94AB3340E2D42EE7
:102650002AC0E091CA05F091CB053896D490B1DE3E
:102660001BC01FDE2091FB04211114C0E091CA059C
:10267000F091CB057296D49020E030E040E752E430
:102680000E94C43409C030E2D32E60E070E080E8DC
:102690009FE302C028E1D22EF701208131814281DF
:1026A00053810E94C4342D2DAB01BC01C8010E948E
:1026B0004E0A0E946109279691CFCDB7DEB7E7E0B9
:1026C0000C94823680E193E082CFCF93DF93D82FB2
:1026D000C92F48E0692F0E9442086091A8057091B7
:1026E000A9058091AA059091AB0540E00E94640B7A
:1026F00086E791E06CDFC6FF05C06C2F8AE08D0F86
:102700000E940D086CE78FEC97E00E94D20ADF91DF
:10271000CF910895CF92DF92EF92FF921F93CF93C4
:10272000DF93EC016A017B01122F4BDEA7019601BA
:102730000E94C434112341F024EE38E34EE85EE3F6
:102740000E94C43428E106C0E091CA05F091CB058F
:1027500038962491AB01BC01CE010E944E0ADF9154
:10276000CF911F91FF90EF90DF90CF90089596FB4F
:10277000222720F94091620550916305609164051C
:102780007091650587EB92E0C5CF96FB222720F973
:1027900040915E0550915F05609160057091610503
:1027A00087EB92E0B7CF2FE632E143E85AE30C948F
:1027B000C434CF92DF92EF92FF92CF93DF93C09118
:1027C0007203D09173036DDD6B017C018AEF8C9FE6
:1027D000B0018D9F700D1124882777FD8095982F6B
:1027E0000E94AB339B01AC01C701B6010E94C43407
:1027F000E091CA05F091CB05A8974CF03F96C491A3
:10280000D2DFAB01BC012C2F84E993E006C03996DE
:102810002491AB01BC018EE893E00E944E0ADF9147
:10282000CF91FF90EF90DF90CF9008954091930566
:1028300050919405609195057091960596FF0CC096
:102840008091830590918405A0918505B0918605BE
:10285000481B590B6A0B7B0BCB01BA010E94AB33AF
:10286000A2DF95CDBC0180E090E00E94A9339BDF00
:10287000AB01BC018EED91E00C94280A20915B0520
:1028800030915C05260F311D30930E0520930D0508
:1028900080930C058091530580930B05089597FF55
:1028A00003C088599E4F0895893621E0920714F09D
:1028B000885691400895CF93DF93EC010E94B12B8D
:1028C00028813981CB01821B930BDF91CF91089531
:1028D00020910D0630910E06815018F4822F8F70D2
:1028E000089564E0369527956A95E1F7F5CFA2E063
:1028F000B0E0EDE7F4E10C946B3681E08093E804FE
:1029000088E0EDEBF4E0DF011D928A95E9F7609134
:102910005205B0E86B9FB001112442E050E0CE01B7
:1029200001960E94410999818A819093E0048093E5
:10293000E1042296E2E00C94873674E0880F991F38
:102940007A95E1F78C549F4F68E671E00E94F53567
:10295000CB0101960895CF92DF92EF92FF920F93F1
:102960001F93CF938091B8058A3009F04CC0009135
:10297000DC051091DD05083E83E018073CF40931C1
:102980008CEF18072CF409E11CEF02C007EE13E0EE
:10299000E091CA05F091CB053996C4916091EA05A2
:1029A00070E087E992E00E94C6097BDC2C2F40E0B2
:1029B00050E0BA0181E992E00E944E0A0E9461094A
:1029C0008091EB059091EC056ADF20916A053091CA
:1029D0006B05821B930BB1DF0E94650962DC6B0102
:1029E0007C01B801882777FD8095982F0E94AB3332
:1029F000A70196010E94C434AB01BC012C2F88E8CA
:102A000092E00E944E0ACF911F910F91FF90EF909C
:102A1000DF90CF90089580916A0590916B05919514
:102A2000819591093CDF845B91099093880580939F
:102A3000870583DF885F0E94650960918705709133
:102A400088058FE292E00C94C609CF92DF92EF9254
:102A5000FF92CF93DF93EC016A017B019A01AB01F6
:102A6000688179818A819B810E94093387FF04C034
:102A7000C882D982EA82FB82DF91CF91FF90EF90EA
:102A8000DF90CF900895A0E0B0E0E9E4F5E10C9488
:102A90006136EC014A015B018901C880D980EA8076
:102AA000FB8020E030E0A901C701B6010E94093394
:102AB000882319F00115110529F488829982AA82C8
:102AC000BB821DC0A7019601C501B4010E9442321C
:102AD0004B015C01B801882777FD8095982F0E94F3
:102AE000AB339B01AC01C501B4010E941033A701B7
:102AF00096010E944332688379838A839B83CDB792
:102B0000DEB7ECE00C947D368F929F92AF92BF922D
:102B1000CF92DF92EF92FF926091C4057091C5054C
:102B2000882777FD8095982F0E94AB334B015C017D
:102B3000C0905E05D0905F05E0906005F090610563
:102B400040DCA70196010E94C4349B01AC01C50181
:102B5000B4010E94103320E030E040E251E40E94D2
:102B6000C434AB01BC0124E630E08EE693E08BDF99
:102B7000FF90EF90DF90CF90BF90AF909F908F909D
:102B80000895CF92DF92EF92FF92CF93C82F96FFD6
:102B900012C020E030E0A90160915E0570915F05F0
:102BA00080916005909161050E940933882309F4A2
:102BB000BAC0AADF20C0809105068111A5C020E01F
:102BC00030E0A90160915E0570915F05809160051C
:102BD000909161050E940933882309F4A4C094DF11
:102BE00090915D058091F204933048F0811103C00B
:102BF00081E08093F2048C2F0E94DA0B94C088232A
:102C0000D1F010929B0510929C0510929D05109298
:102C10009E054091F3055091F4056091F505709182
:102C2000F6054093640350936503609366037093C5
:102C300067031092F2042DEC3CEC4CE45DEB6091E8
:102C40009705709198058091990590919A050E9439
:102C5000093387FF45C0209164033091650340919B
:102C60006603509167036091F3057091F4058091BC
:102C7000F5059091F6050E94423220E030E0A9016E
:102C80000E94C4346B017C010CDB9B01AC01C701C9
:102C9000B6010E94C4346B017C010E94783360311C
:102CA00087E2780724F41616170644F03CC0C12CBE
:102CB000ECE3DE2EECE1EE2EE6E4FE2EC7FD03C0D3
:102CC0008EEE0E943408E091CA05F091CB0539964A
:102CD0002491B701A60182E693E00E944E0A23C028
:102CE00080916C0590916D0597FF1DC08091F40453
:102CF000811103C06DE573E002C06EE573E08CE8FE
:102D000094E00E94A92E0FC08091EF04882359F00F
:102D1000C7FD03C087E10E9434088091B9059091F6
:102D2000BA050E94FA09CF91FF90EF90DF90CF9003
:102D300008950F931F93CF93DF93092F80E090E0C6
:102D4000AEDDEC0124E630E040E050E0BA018BEF6C
:102D500095E099DE06FB112710F9212F40E050E0A5
:102D6000BA0187EB92E0D6DC0E94610980916A0586
:102D700090916B059E01281B390BC901DEDD05FF13
:102D800002C098E001C090E0890F0E94650940915F
:102D9000FB055091FC056091FD057091FE05212F0A
:102DA0008DEB92E0B7DCDF91CF911F910F910895E9
:102DB000CF93DF9336DAEC016091C4057091C505BD
:102DC000882777FD8095982F0E94AB33AB01BC011B
:102DD0009E0180E693E057DE2AE037ED43E25CE3B4
:102DE000609160037091610380916203909163032D
:102DF0000E94C434AB01BC018AEA92E00E94280A16
:102E0000DF91CF910895CF93DF9397FD20C021E00C
:102E10002093030506DAEC016091C6057091C705A1
:102E200080E090E00E94A933AB01BC019E018CE5DB
:102E300093E029DE60915C0370915D0380915E03F5
:102E400090915F030E947D33CB010CDD08C081E0CF
:102E500090914306911101C080E080930305DF91BA
:102E6000CF910895CF93DF93DCD9EC016091C80531
:102E70007091C90580E090E00E94A933AB01BC01CC
:102E80009E0188E593E0FFDD60915803709159033E
:102E900080915A0390915B030E947D33CB01E2DC69
:102EA000DF91CF9108952AE030E0EDCDCF93DF930D
:102EB000EC019A01AB01688179818A819B810E9432
:102EC0004332688379838A839B83DF91CF9108950E
:102ED000A8E0B0E0EEE6F7E10C945B3684EA95E01A
:102EE000EADC1C0160E070E084EA95E0B6D9B1014B
:102EF00080E090E00E94A93356DC6A837B838C8358
:102F00009D836091C4057091C505882777FD8095E4
:102F1000982F0E94AB336B017C016091C8057091C2
:102F2000C90580E090E00E94A933A70196010E94A4
:102F3000C4342CEA35EC47E257E30E94C434AB01B9
:102F4000BC018EEB95E0AFDF8090970590909805DF
:102F5000A0909905B0909A05A4D92B013C0120E0DE
:102F600030E040E752E4C501B4010E94C434A3013B
:102F700092010E94C434AB01BC0187EF95E093DF5E
:102F80004091C3052091BD05332727FD3095842F3F
:102F900090E02817390714F44093BD0520910506E9
:102FA0002E83809146059091470520910F0620FDC4
:102FB00070C00091490610914A0640914B0650910D
:102FC0004C0658874F834017510744F03F812885AE
:102FD00018870F83032F122F198202C051E05983E3
:102FE0003F812885EF81F885E817F90714F4382F19
:102FF000292F632F722F061717070CF4B8018827A3
:1030000077FD8095982F0E94AB332B013C012F81D7
:103010003885B901882777FD8095982F0E94AB33BA
:103020009B01AC01C301B2010E9442322B013C0161
:10303000B8014F815885641B750B882777FD8095F3
:10304000982F0E94AB339B01AC01C301B2010E94D7
:10305000103320E030E048EC52E40E94C4340E9477
:103060007833653671052CF477FF05C060E070E0B9
:1030700002C064E670E05981552331F084E690E0A7
:10308000FC01E61BF70BBF017093450560934405F7
:1030900004C09093450580934405FE81F11104C05E
:1030A0008091F30480FD05C08091EF04882309F42A
:1030B0006CC0B10188EA95E0E5D88091F6048823D8
:1030C00099F020915E0530915F0540916005509127
:1030D00061056A817B818C819D810E94C434AB0132
:1030E000BC0183EF95E0E2DE609177057091780591
:1030F0008091790590917A050E94AB33AB01BC01B8
:1031000080EB94E0A2DC40916205509163056091F0
:103110006405709165058CEA94E097DC40915E054A
:1031200050915F05609160057091610588EA94E0B7
:103130008CDC40916605509167056091680570913F
:10314000690584EA94E081DC40E050E0BA0180EA5D
:1031500094E07BDC4091BE055091BF056091C005B5
:103160007091C10580E994E070DCB701A6018CE99B
:1031700094E06BDCB501A40188E994E066DCB5015C
:10318000A401705884E994E060DC2896E2E10C9494
:103190007736CF93DF93EC01CB01BA010E94AB33BA
:1031A00025E93FEB46ED53E30E94C43468837983FD
:1031B0008A839B83DF91CF9108950E94B12B609306
:1031C0005505709356058093570590935805809147
:1031D0005B0590915C0590935A058093590581E0B9
:1031E0008093E8048093EA0408958AEA90E00C94BE
:1031F000052C0E94572E811101C0F7CF08958091B0
:10320000E904882321F09091E70481E0911180E0A6
:1032100008953091D8043323E1F0E0914606F0E0C0
:10322000EE0FFF1FEC52FA4F80819181E091D6049E
:10323000F091D7042081232B20830E94052CE0915C
:10324000D604F091D70490818091D8048095892389
:1032500080830895E0918304E827F0E0E154F74F7C
:10326000E491E0938304089520E030E048EC52E4D8
:103270000E94C4340E947D33CB01089520E030E0E9
:103280004AE754E40E94C4340C947D3380916A056B
:1032900090916B05880F991F8D966AE570E00E94EA
:1032A000F53577FF03C0685F7F4FFBCF683071054E
:1032B0001CF068507109FACFFB01EF54FC4F849168
:1032C000089587FD03C0E2DF0E94340860916A051B
:1032D00070916B0583E892E00C94C609A3E0B0E01E
:1032E000E4E7F9E10C945B36882EB92E992E96FD11
:1032F00010C033243394380C6B2D832D0E948C0E18
:1033000026E0A22EA80C32E0232E2B0CB4FEDAC04D
:1033100019C015E082EB0E9434080DE0015019F04D
:103320000E946309FBCF133011F485EC01C083EBDD
:103330000E9434080E9461091150D9F2133051F7EC
:1033400086ECE9CF20917405309175053B832A8383
:103350000091720510917305C80117FF04C08827FA
:103360009927801B910B6AEF70E00E94F535362F8C
:10337000272F8A819B8197FF03C0919581959109A1
:103380006AEF70E00E94F535CB01632F722F68174A
:1033900079070CF4BC016F5F7F4F709373036093E8
:1033A0007203882777FD8095982F0E94AB336B01BD
:1033B0007C01B801882777FD8095982F0E94AB3358
:1033C0002B013C0124EE38E34EE552E4C701B6017F
:1033D0000E94C4349B01AC01C301B2010E941033AE
:1033E0000E9478336983162F4A815B81BA0188274E
:1033F00077FD8095982F0E94AB332B013C012DE681
:103400003BED4EE052E4C701B6010E94C4349B017B
:10341000AC01C301B2010E94103320E030E040E073
:103420005FE30E9443320E947833F62E86FC0AC086
:103430002DDF622D5981651B482F8A2D8F0D0E942B
:10344000420840C090914A05961304C080914B05F4
:103450008117E9F080914E0590914F0590935105A9
:103460008093500520914C0530914D0530934F05C8
:1034700020934E0520914A0530914B0530934D0520
:1034800020934C05F0924A05898180934B0501E514
:1034900015E090E5C92E95E0D92EF8018081622DC6
:1034A000681BF601808144E28A0D0E9442080250A6
:1034B0001109F2E0CF1AD1082AE4C21625E0D2069B
:1034C00061F7B6CF87FC0AC0622D8A2D0E940D08D5
:1034D0006FEC71E08CE894E00E94A92EB5FEC2C0AA
:1034E0008091EF04882309F4BDC080910506811105
:1034F00084C06091770570917805809179059091ED
:103500007A050E94AB339B01AC0160E070E0CB0117
:103510000E94B63221EE3EE245E652E40E94C434F7
:103520000E9478336A5071092DE2269FC001279FBF
:10353000900D11246AE070E00E94F535CB014696AB
:1035400069E070E00E94F535663078F410ED181BE4
:103550000B2D060F412F602F8CE0880D0E94420832
:10356000412F602F832D0E9442088091760590E0C4
:103570002091090130910A01821B930B90D9853B60
:10358000910534F028E631E0A901481B590BCA0126
:103590009C01245B310948E4429FC001439F900D88
:1035A00011246AE070E00E94F535CB01849666E054
:1035B00070E00E94F535962F64E06B0D97FF06C012
:1035C0004CE3832D0E9442084CE314C09D3054F01C
:1035D0001CE0180D4EE3812F0E9442084EE36B2D34
:1035E000812F3EC01FEB180F390E412F832D0E94F3
:1035F0004208412F6B2D832D33C0C0906605D090BB
:103600006705E0906805F09069050E945111A701D7
:1036100096010E94C43420E030E040EA50E40E9469
:1036200043322DEC3CEC4CE850E40E94C4340E9440
:103630007833862F9FEF960F9B3240F469E00E940B
:10364000D4354FEC491B9B2C980E08C06C322CF0E3
:1036500084E0982E9B0C4EE201C04FEC692D8A2D20
:103660000E9442082396E2E10C947736ADE0B0E088
:10367000ECE3FBE10C945B366B017C010E94830759
:10368000809105061091EF04811120C0112321F1D2
:103690008091F30480FF20C060915E0570915F050A
:1036A00080916005909161050E94783362307105C8
:1036B00024F480915D05823078F0C092DE05D092CE
:1036C000DF05E092E005F092E10506C0111104C0AB
:1036D0008091F0048111F1CF1093F004809148069D
:1036E000853018F084E08093480685E595E0E3D8BE
:1036F000853C994080F110925E0510925F05109212
:1037000060051092610563E085E00E940D086091FC
:103710005B0570915C058091590590915A05681B75
:10372000790B8CEB91E00E94C609409106055091FF
:10373000070560910805709109054115510561055E
:10374000710531F02AE030E08CE894E00E94D52D3C
:1037500083E095E432C08091020680FF35C08091FD
:10376000EF0481112DC08091DE059091DF05A091BD
:10377000E005B091E105892B8A2B8B2B09F18EEDA9
:1037800095E099D8883B9B40D8F46091F3057091FF
:10379000F4058091F5059091F6050E947833663026
:1037A000710574F081E08093FD040E94ED08809122
:1037B00052058093C50481E091E00E946513B0C278
:1037C0008091FD04811170C280914806882321F008
:1037D00090915205981718F489EB93E062C280919A
:1037E000EF0481115CC21D821E821F821886E09048
:1037F000BC0485E0E89E70011124F701E359FB4FFA
:103800007F01859194919093BB048093BA04F70152
:103810003296249129870E94ED08C12CD12C812C4D
:10382000712C212C312C412C912C512C99858916ED
:1038300009F4B9C066246394680C0091BA0410912D
:10384000BB040C0D1D1DF801A590B490662D81E000
:103850000E940D08B5018CE894E00E94A92E662D07
:1038600083E10E940D0880910501881206C08EE355
:103870000E9434085090160302C00E946309F801A8
:10388000329684913196B490833609F43FC040F467
:103890008A3509F439C0823671F1811168C07EC061
:1038A0008836D9F088F4863609F061C0F80134967C
:1038B000A591B4918D919D910D90BC91A02D8D837A
:1038C0009E83AF83B88753C0833709F446C08A37D5
:1038D00009F04DC040E1942E19C08091140380344A
:1038E00019F465E571E002C06DE471E08CE894E0E4
:1038F0000E94A92E53C0F8013496A591B4916C9101
:1039000070E080E090E010C050E2952EF80134960F
:10391000A591B4916C91772767FD7095691971092C
:10392000882777FD8095982F0E94AB336A877B8725
:103930008C879D876B2D70E080E090E00E94A9331A
:103940009B01AC016A857B858C859D850E94103327
:103950006D837E838F8398870AC0F80134966591C2
:10396000749144E050E0CE0105960E944109809197
:103970000501BD81AE813F812885881204C07B2E60
:103980002A2E332E422E085F1F4FF8018591949105
:103990004B2F5A2F632F722F0E94280A8EE0C80ED9
:1039A000D11C862C43CFE3E0EE0EF11CF70185918C
:1039B0009491009711F0FC0109958091F7048823F8
:1039C00009F4AEC11092F70411E01093E80481E00D
:1039D0000E9402098739910514F081E004C08A36FB
:1039E0009F4F24F48FEF0E9412099AC183E00E9436
:1039F0000209873991055CF0109305018091BC04A0
:103A0000823019F41092BC048BC18F5F0CC08A36CF
:103A10009F4F64F4109305018091BC04811102C092
:103A200082E001C081508093BC047AC1609105019D
:103A30006F5F852D0E940D0880910501E090BA040A
:103A4000F090BB049EE0899FE00CF11C112480E003
:103A50000E9402098C0197FF06C01195019511097A
:103A60008824839401C0812CF7013496C590D490AA
:103A7000F7013296549031966490872D922DA32DA4
:103A8000B42D8D839E83AF83B887E3E6E51538F0C8
:103A9000F2E65F1670F42AE5521248C00AC083E7C6
:103AA000581671F19AE7591621F0E6E65E123EC00B
:103AB00027C00D32F1E01F078CF0662D70E080E02A
:103AC00090E00E94A9339B01AC0160E070E080E2CD
:103AD00091E40E94103321E029874AC0073911057B
:103AE0004CF1662D70E080E090E00E94A9339B01CC
:103AF000AC0160E070E080E89FE30E9410331DC0DD
:103B00000139F1E01F0774F50D3221E01207C4F40A
:103B1000093C1105E4F484E08987053611050CF4AD
:103B200063C06FE672E183E89AE322C060E070E070
:103B3000CB0113C060E070E0CB01E1E0E9870DC08C
:103B40006DEC7CEC8CEC9DE3F4E0F98706C06AE058
:103B500077ED83E29CE324E02987053611050CF418
:103B600043C006C060E070E080E89FE3F4E0F987BE
:103B700081109058AB01BC01CE01059697D9F70191
:103B80003A9665917491F7013C96059114918827B6
:103B900077FD8095982F0E94AB334B015C019B0110
:103BA000AC016D817E818F8198850E94093387FFEA
:103BB00004C08D829E82AF82B886B801882777FDC7
:103BC0008095982F0E94AB334B015C019B01AC01A7
:103BD0006D817E818F8198850E94B934181624F4F6
:103BE0008D829E82AF82B8868D809E80AF80B884A1
:103BF000272D322D432D542DC501B4010E940933C8
:103C0000882309F48DC0662D70E080E090E00E946A
:103C1000AB33A50194010E94C4340E94783393E62B
:103C20005916D9F0951538F0EAE55E1699F0F2E6E6
:103C30005F1699F01FC023E7521691F08AE75816D5
:103C400059F096E6591216C0F60180829182A2823E
:103C5000B38210C0605E01C0605FF60160830AC07D
:103C600089829A82AB82BC8244E050E0B601CE01E8
:103C7000019607C0F9854F2F50E0B601615074409E
:103C8000C6010E94F90A26E0E20EF11CF7018591B7
:103C90009491009709F444C0FC01099541C085E660
:103CA00094E00E949F0B3CC08091C5049091520506
:103CB000891721F0809352051092FD0482E00E9442
:103CC0000209AA2797FDA095BA2FB7FF07C0B095A4
:103CD000A095909581959F4FAF4FBF4F8D329140EA
:103CE000A105B105D4F483E00E940209AA2797FD3B
:103CF000A095BA2FB7FF07C0B095A0959095819574
:103D00009F4FAF4FBF4F8D329140A105B1052CF4AD
:103D10008091EF04882309F44ECD1092FD044BCD21
:103D20002D96E2E10C9477361F920F920FB60F9208
:103D300011242F933F934F935F936F937F938F93B0
:103D40009F93AF93BF93CF93EF93FF931092E704AA
:103D50008091E6048F5F8093E6040E94B12B60930C
:103D6000E2047093E3048093E4049093E50480916B
:103D70006C03811118C0CFB780910A05882379F0B0
:103D800080916C038F5F80936C0378940E94490844
:103D900010920A0580916C03815080936C03789493
:103DA00080E037DACFBFFF91EF91CF91BF91AF9114
:103DB0009F918F917F916F915F914F913F912F9143
:103DC0000F900FBE0F901F901895CF92DF92EF9239
:103DD000FF920E94BD2B6B017C0183E00E948A2C24
:103DE000813049F4C092D904D092DA04E092DB0425
:103DF000F092DC041FC08091D9049091DA04A09164
:103E0000DB04B091DC040097A105B10599F0C81A54
:103E1000D90AEA0AFB0AD092DE04C092DD041092AD
:103E2000D9041092DA041092DB041092DC0481E0D1
:103E30008093DF04FF90EF90DF90CF90089566E9C4
:103E400070E080E090E00C94E02B1F920F920FB690
:103E50000F9211242F933F934F935F936F937F9310
:103E60008F939F93AF93BF93EF93FF93AEDFFF9139
:103E7000EF91BF91AF919F918F917F916F915F91E2
:103E80004F913F912F910F900FBE0F901F9018955B
:103E900065E085E00E940D0865E271E08CE894E041
:103EA0000E94A92E0E94B12B4AE050E08CE894E0D9
:103EB0000E94E22D80911B068F3421F480911C0614
:103EC0008A3171F061E081E00E940D0860911B066B
:103ED00070E088E091E00E94C60981E080930205CD
:103EE0000E944908ACCFCF9388E10FB6F894809335
:103EF0006000109260000FBE60E071EE80E090E024
:103F00000E94172E4CE450E060E072E081E096E001
:103F10000E9441098091010681FF03C08FEB99E067
:103F200002C082ED99E09093CB058093CA0584B5D9
:103F30008C7F84BD83E00E94FD2C0E9482108091C2
:103F400069008C7F826080936900E89A8091060600
:103F5000813059F462E083E00E94332C8091690043
:103F6000837F846080936900E99A5E9A0E94490881
:103F7000789480911D06883341F480911E06883321
:103F800021F480911F06873381F088E380931D061A
:103F900080931E0687E380931F0643E050E06CE1A8
:103FA00072E08DE196E00E94F90A8091460688232E
:103FB00041F1E0914706EE2321F1F0E0ED5FFE4F85
:103FC000C49161E08C2F0E94332C60E08C2F0E9402
:103FD0006C2C8C2F90E0FC01E35FF54F2491FC01E9
:103FE000E750F64F84918093D804E22FF0E0EE0F73
:103FF000FF1FE55DF54F859194919093D7048093D1
:10400000D6040E94F40744DF0E947714CF910895EC
:10401000E0910301EF5FE0930301E770F0E0EE0F42
:10402000FF1FE85BFC4F9183808328E060E070E035
:104030002150E22FF0E0EE0FFF1FE85BFC4F808184
:104040009181680F791F2111F3CF80E090E00E94E9
:10405000A93320E030E040E05EE30C94C43497FDE7
:1040600005C08F3F910509F01CF4089580E0089584
:104070008FEF0895CF92DF92EF92FF92CF93DF936D
:104080008091010684FD05C08091CA04882309F44B
:10409000A0C0C0910201CF5FC093020180E10E94E5
:1040A000002DC770EC2FF0E0EE0FFF1FE85CFC4F17
:1040B0009183808328E0C0E0D0E02150E22FF0E03F
:1040C000EE0FFF1FE85CFC4F80819181C80FD91F64
:1040D0002111F3CF2091CE043091CF0447E0429FCD
:1040E000C001439F900D11248C0F9D1F23E09695D6
:1040F00087952A95E1F79093CF048093CE04809121
:10410000010684FF66C029E53EEE49E050E4609177
:1041100023067091240680912506909126060E9420
:10412000C4346B017C01BE0180E090E00E94A933A1
:104130009B01AC01C701B6010E94C4340E947D33CB
:104140004091C8055091C9054115510529F4709356
:10415000C9056093C80511C09A01220F331F240FAF
:10416000351F2E5F3F4F260F371F36952795369503
:1041700027953093C9052093C80581E08093E80412
:1041800030910A06832F61E20E94C835E82F8091A2
:10419000C8059091C905C29664E670E00E94E135B9
:1041A000432F50E0641B750B9B01AFEFB0E00E9402
:1041B0004C36FAE2EF9F90011124241B350B442763
:1041C00037FD4095542F0E942A36C90148DF80935D
:1041D000C3058091010685FF04C08091030581110C
:1041E00005C08091CB04882309F49DC0C0910101D2
:1041F000CF5FC09301018EE00E94002DC770EC2FAD
:10420000F0E0EE0FFF1FE85DFC4F9183808328E014
:10421000C0E0D0E02150E22FF0E0EE0FFF1FE85D9C
:10422000FC4F80819181C80FD91F2111F3CF2091BC
:10423000D0043091D10447E0429FC001439F900DCC
:1042400011248C0F9D1FA3E096958795AA95E1F701
:104250009093D1048093D0048091010685FF63C0C0
:1042600029EA3CEC48E050E460912706709128066A
:104270008091290690912A060E94C4346B017C012A
:10428000BE0180E090E00E94A9339B01AC01C70110
:10429000B6010E94C4340E947D334091C6055091FE
:1042A000C7054115510529F47093C7056093C605EC
:1042B00011C09A01220F331F240F351F2E5F3F4F6D
:1042C000260F371F36952795369527953093C705C6
:1042D0002093C60530914306832F61E20E94C835C2
:1042E000E82F8091C6059091C705C29664E670E0FC
:1042F0000E94E135432F50E0641B750B9B01AFEF2B
:10430000B0E00E944C36FAE2EF9F90011124241B8A
:10431000350B442737FD4095542F0E942A36C9019A
:104320009EDE8093C2058091010686FD05C08091C6
:10433000CC04882309F481C08091C804882351F0FB
:1043400020E137E240E050E061E08FE00E94D12CB4
:10435000CB0103C08FE00E94002DE0910001EF5FD0
:10436000E0930001E770F0E0EE0FFF1FE85EFC4F06
:104370009183808328E0C0E0D0E02150E22FF0E07C
:10438000EE0FFF1FE85EFC4F80819181C80FD91F9F
:104390002111F3CF2091D2043091D30447E0429F02
:1043A000C001439F900D11248C0F9D1F23E0969513
:1043B00087952A95E1F79093D3048093D204809156
:1043C000010686FF3AC02DE032E348EC5CE36091E1
:1043D0002B0670912C0680912D0690912E060E943E
:1043E000C4346B017C01BE0180E090E00E94A933DF
:1043F0009B01AC01C701B6010E94C4340E947D3309
:104400004091C4055091C5054115510529F470939B
:10441000C5056093C40511C09A01220F331F240FF4
:10442000351F2E5F3F4F260F371F36952795369540
:1044300027953093C5052093C40580910F06869576
:10444000813041F048F1823049F0833049F5809164
:10445000480524C081E10E94002D09C020E23EE40D
:1044600040E050E061E081E10E94D12CCB01D0DD41
:1044700020912F063091300640913106509132063E
:104480000E94C4340E947D337093470560934605B3
:1044900081E08093E80439C08091490590E004C030
:1044A0008091DA059091DB05B3DD0E947D33709336
:1044B0004705609346058091CD04882331F18091B2
:1044C000C904882349F020E137E240E050E061E090
:1044D00081E10E94D12C04C081E10E94002DBC0129
:1044E0008091D4049091D50447E0489F9001499F62
:1044F000300D1124260F371FC3E036952795CA9536
:10450000E1F73093D5042093D404DF91CF91FF904D
:10451000EF90DF90CF9008958CE894E00E944E07D2
:1045200088E894E00C940F2EA0E0B0E0EAE9F2E213
:104530000C9464368C016CE388E894E00E949B2E16
:10454000EBEFF8E0E491780186EFE81A8EEFF80AD5
:10455000D701EC93F801D180DA94B02EC02FD12F7F
:1045600087018C2F8B198D1580F4C9906C2D88E8EC
:1045700094E00E949B2ED701EC91EC25F0E0E154F1
:10458000F74FE491D801EC93ECCFF701608188E814
:1045900094E00E949B2ECDB7DEB7E9E00C94803604
:1045A000609379032AE030E030937B0320937A0311
:1045B00090E0A0E0B0E080937C0390937D03A09313
:1045C0007E03B0937F0389E793E0AECF82E28093CE
:1045D00079038FE290E090937B0380937A038AE0E3
:1045E0009CEDA1EDBAEC80937C0390937D03A093A6
:1045F0007E03B0937F03E4E8F3E0119283E0E93AAD
:10460000F807D9F7809174038093A80389E793E0B2
:104610008BDF0E94B12B60937503709376038093B8
:104620007703909378030895A0E0B0E0EAE1F3E225
:104630000C946336AA24A39453E0B52ECAE0D0E0CC
:104640000E94572E882309F400C40E94662E182F5A
:1046500000918404402F50E04930510508F0C1C05A
:10466000FA01EC5CFF4F0C94463610937B032091CB
:104670007A0330917B03409186045091870424177C
:10468000350738F51C3311F001E0ABC010928304FC
:104690008CE30E942A19D0938704C093860402E019
:1046A000A0C00E942A19812F887F803259F7109369
:1046B00079031092850403E094C00E942A19809126
:1046C00085048F5F80938504823078F610937A0397
:1046D00088C041505F4F42175307A0F210928504E3
:1046E00004E07FC00E942A19E0918504EF5FE09307
:1046F0008504E13008F475C0E43048F0E43009F096
:1047000070C010937F031092850405E06AC0F0E04A
:10471000E558FC4F108365C00E942A1980918504DA
:104720008F5F80938504813019F0823021F059C069
:104730001093800356C01093810320917A03309127
:104740007B0380918604909187042817390741F0F4
:10475000009179030095001F0027001F0A5F01C028
:1047600008E0109285043DC00E942A1980918504BA
:104770008F5F80938504813041F0823091F51093F2
:1047800083031092850407E02CC01093820329C094
:104790000E942A19E091850421E02E0F20938504C0
:1047A000F0E0E758FC4F138730E080917A03909156
:1047B0007B034091860450918704841B950B281736
:1047C000390778F01092850408E00BC080918304CB
:1047D000181358CFA092840480917A03811104C0E9
:1047E00031C3009384042EC30E94DD1880917C03A2
:1047F00090917D03A0917E03B0917F03863E26EACF
:10480000920726E2A2072DE7B20709F401C208F0D9
:1048100082C08C3921EB920725EAA2072EE1B2076C
:1048200009F4E9C2E0F588392CE292072AE1A207EF
:1048300026E1B20709F44CC1C8F4843524E7920795
:1048400025ECA2072BE0B20709F43EC284302AE926
:10485000920727EDA2072EE0B20709F42CC186319A
:104860009A4AA743BB4009F0E1C225C184372BEE29
:1048700092072AE7A2072BE1B20709F41CC1823D87
:1048800022EC920722E8A2072EE1B20709F420C128
:104890008E3C9844A745BA4109F0C8C2B9C18A39CB
:1048A0002FE592072DE8A20723E4B20709F4A8C276
:1048B000C8F4823029E292072EE7A2072FE2B2075E
:1048C00009F4AAC0863E25ED92072AEDA20723E34C
:1048D000B20709F4B3C082359342A649B64209F043
:1048E000A5C204C2823E25E592072CE9A20726E66E
:1048F000B20709F47BC28A352BEB920727E3A207A4
:1049000027E6B20709F488C0863A9E40A241B8441F
:1049100009F08CC22DC280322EE4920729EAA20748
:1049200021EBB20709F462C2E0F582352AEE920764
:1049300020E8A2072AE8B20709F4BDC0C8F4803312
:1049400020E2920721E9A20724E8B20709F4FFC197
:10495000843E2CE2920725E0A20726E8B20709F47C
:10496000AAC080389C4DA544B24809F05FC2ACC1D2
:104970008E3722E192072AE6A2072BE9B20709F453
:104980009AC08A3726EF920721EFA2072DE9B207D6
:1049900009F43EC18A369E42A246B94909F046C290
:1049A000E7C184352DE292072FEFA20725ECB2076D
:1049B00009F481C0C8F48A3B24E8920725E2A207E3
:1049C0002EEBB20709F412C2803824E7920720E1E7
:1049D000A20724ECB20709F4C9C08A38974FA74C44
:1049E000B84B09F023C274C0843629ED920720EE3B
:1049F000A20727EDB20711F1863B23E2920723EAD3
:104A0000A20722EEB20709F403C186399543A840F4
:104A1000B24D09F46BC10AC28091A803823039F00B
:104A2000833049F0811102C2A092740302C0B09297
:104A30007403CCDDFBC180937403F8C160919403CF
:104A40007091950380919603909197030E9478331B
:104A500070936F0560936E05609198037091990350
:104A600080919A0390919B030E94783370936D0517
:104A700060936C0560919C0370919D0380919E03EF
:104A800090919F030E947833709371056093700535
:104A9000C0908B05D0908C05E0908D05F0908E0530
:104AA000C114D104E104F10409F0C0C170936B0595
:104AB00060936A05BBC181E090918403911101C0AC
:104AC00080E08093EF04809185038093B805AEC1A8
:104AD0006091840370918503809186039091870390
:104AE0000E943419893C18F480935D0502C010922D
:104AF0005D0580919E0390919F039093D1058093D3
:104B0000D0058091A0039091A1039093CD0580934F
:104B1000CC058091A2039091A3039093CF0580933D
:104B2000CE058091A4039091A5039093D305809323
:104B3000D2058091A6039091A7039093D505809309
:104B4000D4058091A8039091A9039093D7058093F1
:104B5000D6058091AA039091AB039093D9058093D9
:104B6000D8058091AC039091AD034DC06091840352
:104B70007091850380918603909187030E94341978
:104B8000893C18F480935D0502C010925D05809108
:104B90009C0390919D039093D1058093D0058091C3
:104BA0009E0390919F039093CD058093CC058091B7
:104BB000A0039091A1039093CF058093CE0580919F
:104BC000A2039091A3039093D3058093D205809183
:104BD000A4039091A5039093D5058093D40580916B
:104BE000A6039091A7039093D7058093D605809153
:104BF000A8039091A9039093D9058093D80580913B
:104C0000AA039091AB039093DB058093DA050EC164
:104C100040918403509185036091860370918703CE
:104C20008BE895E00E94C918409188035091890350
:104C300060918A0370918B038FE895E00E94C918F8
:104C40008091A90380938A05F090A803F0928905CA
:104C500060919403709195038091960390919703CE
:104C60000E94783370936B0560936A058091980376
:104C700090919903A0919A03B0919B0380935E0554
:104C800090935F05A0936005B0936105FF2049F004
:104C900060918C0370918D0380918E0390918F03AE
:104CA00008C06091660570916705809168059091D4
:104CB00069050E943E196093930570939405809353
:104CC000950590939605B2C080918C0390918D03C9
:104CD000A0918E03B0918F03B05880939705909365
:104CE0009805A0939905B0939A05A0C0F09001068D
:104CF000F4FC0EC06091840370918503809186035B
:104D0000909187030E943E197093C9056093C8056E
:104D1000F6FC0EC0609188037091890380918A032C
:104D200090918B030E9434199093C5058093C4051C
:104D300060919C0370919D0380919E0390919F03CD
:104D40000E9478337093BA056093B9056FC0809163
:104D5000840390918503A0918603B091870380938B
:104D6000680390936903A0936A03B0936B035EC0DA
:104D700060918403709185038091860390918703ED
:104D80000E9478336B01EE24D7FCE094FE2CC7011F
:104D9000B6010E94AB3360936605709367058093FC
:104DA00068059093690560918803709189038091EB
:104DB0008A0390918B030E9434199093BC058093D1
:104DC000BB058091930590919405A0919505B091B4
:104DD0009605892B8A2B8B2B49F5C0929305D0928F
:104DE0009405E0929505F092960520C08091E40329
:104DF000809349051BC0809184038093EA0516C007
:104E000080919803882391F06091900370919103B1
:104E1000882777FD8095982F0E94AB3360936205B9
:104E20007093630580936405909365058091790381
:104E3000823221F463E280917C03B2DB0E94FF188E
:104E4000811121C00E94F918FBCB8BD461317742CC
:104E50008105910510F010927403C0907503D090F5
:104E60007603E0907703F090780388EEC80E83E035
:104E7000D81EE11CF11C75D4C616D706E806F90643
:104E800020F4A4DB02C081E001C080E0CDB7DEB732
:104E9000EAE00C947F36A4E0B0E0E1E5F7E20C94A0
:104EA0005D36A8955ED46B017C0128EE33E040E0CE
:104EB00050E00E94083630935C0520935B052CED92
:104EC000C21625E0D206E104F10428F08091020523
:104ED000882309F480C0EBD6882309F479C0F6D67C
:104EE0008A3031F4809143058F5F8093430502C07F
:104EF0001092430580914305843068F38CB583603C
:104F00008CBD6FEF70E088E894E023D7B12C812C42
:104F1000912CC12CD12C09EF10E058E8E52E54E07B
:104F2000F52E8FEF8816910411F00CF04BC0BFD610
:104F30008823E9F3CBD6823338F48033D8F48A302F
:104F4000B1F38D3039F023C0823709F551E0851A6D
:104F500091081DC038E0C31219C0ED2DF0E0E758EC
:104F6000FC4F8081B826D394ED2DF0E0E758FC4F3C
:104F700010820CC0ED2DF0E0E758FC4F9081990FA6
:104F8000813309F49F5F9083C39401C0C12C60E416
:104F9000D612C7CF69E773E0C4010E946D087FEFA6
:104FA000871A970A1F92BF921F930F93FF92EF9257
:104FB000F4D60F900F900F900F900F900F90B12C90
:104FC000D12CAFCF65EF70E088E894E0C2D67BC308
:104FD0000E94481F78C3789449E7442E43E0542E3A
:104FE00010E48091EA04811108C08091EB048111E2
:104FF00004C08091F404882359F016DB8091EA0400
:105000008093EB048091E804882309F4C6C186C02C
:10501000F201212F11922A95E9F746D6A2D34B012E
:105020005C0134E6830E911CA11CB11C3AEF732E77
:105030000FEF97D386169706A806B906A0F024ECC2
:1050400039E040E050E060E080E0ABD46F3F7105B4
:105050008105910509F02CF4662319F0601708F416
:10506000062F7A9431F70F3F19F40091040102C022
:10507000009304010B3090F00331C0F00D31E8F0E3
:10508000083210F10C3340F1063968F580E220E86F
:10509000822E25E2922EA12CB12C2CC082E0812CF4
:1050A00092EC992EAA24A394B12C24C084E0812CE4
:1050B000B1EE9B2EA12CB12C1DC086E0812CA6E95F
:1050C0009A2EA12CB12C16C088E0F0E88F2EF0E7C4
:1050D0009F2EA12CB12C0EC080E1812CEBE49E2EE2
:1050E000A12CB12C07C080E470EC872E72E1972EC2
:1050F000A12CB12C8093FF058092060590920705A4
:10510000A0920805B092090588E894E07FD5C50112
:10511000B4018DD581E08093EB0463CF00915205FB
:1051200040910606433008F42DC1433029F48091A4
:10513000DD049091DE0411C08BEF840F843048F4BD
:10514000E42FF0E0EE0FFF1FE653FA4F80819181CC
:1051500004C08091DA059091DB059C01285E334004
:10516000213D374008F00EC1443049F58091B80523
:105170009AEF980F923008F487C09091A305981782
:1051800089F08093A30560E070E08FE995E00E94CC
:105190002D119091A30580910601981303C081E021
:1051A0008093EC048FE995E00E945B14813D974069
:1051B00008F46AC08091B8058093060165C020910B
:1051C0000B06211119C0609148068D3474E09707D1
:1051D00060F09C012C54344070E080E293E00E9427
:1051E000F535C9010E94E13501C060E0061709F4F8
:1051F0004BC06093520548C05091010652FF14C045
:105200002091B4043091B5042115310539F0FC0129
:10521000E21BF30B41E0E93CF10508F440E0909318
:10522000B5048093B40405C041E08D3D954008F479
:1052300040E050FF10C0442321F081E08093ED0452
:1052400023C08091ED04882319F081E08093EC0461
:105250001092ED0419C04423B9F080909F059090FE
:10526000A005A090A105B090A2057BD28616970656
:10527000A806B90648F481E08093EC0464EF71E07D
:105280008FE995E00E942D118091EC04882371F044
:105290001092EC04809152058F5F8093520590919B
:1052A0004806981718F51092520520C08091010603
:1052B00087FF1CC08091B6049091B704A091B804F8
:1052C000B091B9040097A105B10581F040915B054B
:1052D00050915C0560E070E084179507A607B7075A
:1052E00028F481E08093FE048093EC04B090520592
:1052F0000B1509F447C00E947714809101061091A4
:10530000FE0487FF09C0112339F0809148068823E5
:1053100019F0B81609F4BCCF8B2D0E9468148823AD
:1053200099F040915B0550915C05480F511D60E07C
:1053300070E04093B6045093B7046093B804709340
:10534000B90411111DC00AC01111A2CF1092B604E8
:105350001092B7041092B8041092B904AFE0B5E00F
:10536000ECEEF0E084918D9331968111FBCF80912A
:1053700016058B0D8093160563E088E00E943E14AD
:105380001092FE048091E904811105C081E08093B0
:10539000E9048093E7041092E8048091E9048823EB
:1053A00009F4C7C08091E7048111C3C01092E904D9
:1053B00020918905222319F081E08093FA048091DD
:1053C0000506882309F445C19091EF048091F1040A
:1053D000992309F464C180FD0DC01092F604816028
:1053E0008093F1041092A8051092A9051092AA05C5
:1053F0001092AB058091F604882309F440C1809196
:10540000F604882309F48CC080907B0590907C057D
:10541000A0907D05B0907E05C501B4019F7725E37E
:105420003AEF4EE85CE30E94C4340E940D332B0136
:105430003C0120918B0530918C0540918D05509158
:105440008E05C501B4010E94140B4B015C01209133
:105450008F05309190054091910550919205609192
:105460007F057091800580918105909182050E9451
:10547000140BA30192010E94C4342B013C019B0137
:10548000AC010E94C43469837A838B839C83A50119
:105490009401C501B4010E94C4349B01AC0169812F
:1054A0007A818B819C81EFD70E942B350E947833C3
:1054B00060937705709378058093790590937A05CA
:1054C000C501B4019F770E9478337093750560938E
:1054D0007405C301B2019F770E94783370937305FE
:1054E00060937205A30192015058C501B4010E9456
:1054F000B63220EE3EE245E652E40E94C4340E94F9
:105500007833CB018A55910920916A0530916B055A
:10551000821B930B0E944F140E949D14809376056A
:105520000E946817C701B6010E94361B81E0809374
:105530000A058091B4059091B505A091B605B0918A
:10554000B7058C159D05AE05BF05A8F464E170E0B4
:1055500084EB95E00E94421180910A05882359F05E
:105560008091E704882339F082EE94E00E945B1476
:10557000C39708F0A1C08091B0059091B105A091AA
:10558000B205B091B3058C159D05AE05BF0530F58C
:1055900064E670E080EB95E00E9442110E943A20A0
:1055A0008091F80491E089278093F8048823B1F072
:1055B00080910505882369F08F5F8093050583300E
:1055C00068F0809153058F5F809353051092050515
:1055D00005C0809153058F5F809353058091AC0582
:1055E0009091AD05A091AE05B091AF058C159D05CC
:1055F000AE05BF0508F067C064EF71E08CEA95E086
:105600000E94421181E08093E8048093F704909116
:1056100054059F5F909354059091F40498279093BC
:10562000F404992309F44FC08093EE048091E604BA
:10563000853050F4809100068F5F8093000684309F
:1056400028F00E94EE0702C0109200061092E604B5
:105650003AC080915D05833308F4B6CE809109018C
:1056600090910A0180379E4F09F0AECE80916A0575
:1056700090916B0590930A0180930901A5CE233088
:1056800008F4BDCE8CE0EBE8F5E0ABE7B5E00190C7
:105690000D928A95E1F781E08093F604B0CE80FF09
:1056A000A9CE90910405992309F4A4CE1092F60492
:1056B0008E7F8093F1049ECE1092E7040E944908E9
:1056C00010920A0558CF2496E0E10C9479361F9287
:1056D0000F920FB60F9211242F933F938F939F93A6
:1056E000AF93BF9380914E0690914F06A0915006C4
:1056F000B091510630914D0623E0230F2D3720F451
:105700000196A11DB11D05C026E8230F0296A11D1B
:10571000B11D20934D0680934E0690934F06A093A3
:105720005006B09351068091520690915306A09175
:105730005406B09155060196A11DB11D80935206E5
:1057400090935306A0935406B0935506BF91AF9122
:105750009F918F913F912F910F900FBE0F901F90AF
:1057600018952FB7F89460914E0670914F0680916E
:105770005006909151062FBF08953FB7F89480913D
:10578000520690915306A0915406B091550626B545
:10579000A89B05C02F3F19F00196A11DB11D3FBF69
:1057A0006627782F892F9A2F620F711D811D911DF9
:1057B00042E0660F771F881F991F4A95D1F7089519
:1057C000CF92DF92EF92FF92CF93DF936B017C0138
:1057D000D4DFEB01C114D104E104F10479F0E0D08D
:1057E000CCDF6C1B7D0B683E7340A0F381E0C81AD0
:1057F000D108E108F108C851DC4FECCFDF91CF911F
:10580000FF90EF90DF90CF9008958230910538F0AF
:10581000880F991F880F991F05970197F1F7089531
:10582000789484B5826084BD84B5816084BD85B57B
:10583000826085BD85B5816085BDEEE6F0E0808142
:1058400081608083EAE7F0E08081846080838081EA
:105850008260808380818160808380818068808392
:105860001092C1000895CF93DF9390E0FC01E750C0
:10587000F64F2491FC01E35FF54F8491882349F1B1
:1058800090E0880F991FFC01EB5CF54FA591B49156
:10589000855D954FFC01C591D4919FB7611108C0FA
:1058A000F8948C91209582238C93888182230AC05E
:1058B000623051F4F8948C91322F309583238C937D
:1058C0008881822B888304C0F8948C91822B8C93DE
:1058D0009FBFDF91CF91089590E0FC01E750F64F14
:1058E0002491FC01E35FF54FE491EE2391F0F0E0A9
:1058F000EE0FFF1FE55DF54FA591B4919FB7F894AA
:105900008C91611103C02095822301C0822B8C935E
:105910009FBF089590E0FC01EB51F64F2491FC01EC
:10592000E750F64F3491FC01E35FF54F84918823F3
:10593000A9F1222339F1233091F038F42130A9F074
:10594000223001F594B59F7D12C0273091F02830A8
:10595000A1F02430B9F4909180009F7D03C0909114
:1059600080009F77909380000DC094B59F7794BD81
:1059700009C09091B0009F7703C09091B0009F7DC7
:105980009093B000E82FF0E0EE0FFF1FEF5DF54FB2
:10599000A591B4919C91932381E009F480E008954E
:1059A00008950F931F93762F90E0FC01E750F64F78
:1059B0006491FC01E35FF54FE4917111762FF0E003
:1059C000EE0FFF1FEF5DF54F8591949189019A01CC
:1059D0003F70472F0E94CC05611571058105910527
:1059E00031F06F5F7F4F8F4F9F4F9F7003C060E01C
:1059F00070E0CB011F910F91089580930B010895E2
:105A00008E3008F08E50877020910B0190E4299F12
:105A100090011124822B80937C0080917A00806415
:105A200080937A0080917A0086FDFCCF8091780087
:105A30002091790090E0922B0895A0E0B0E0E3E29D
:105A4000FDE20C9465367C016A01EB0100E010E098
:105A50000C151D0571F06991D701ED91FC91019034
:105A6000F081E02DC7010995892B19F00F5F1F4FB9
:105A7000EFCFC801CDB7DEB7E8E00C9481366115F1
:105A8000710589F0DB010D900020E9F7AD0141506F
:105A90005109461B570BDC01ED91FC910280F3810B
:105AA000E02D0995089580E090E00895E8CF0895ED
:105AB000DC01ED91FC910190F081E02D09950895B4
:105AC000A1E2B0E0E6E6FDE20C9461367C01C42E72
:105AD000E52FCB01D22E19A221E02D1510F02AE0DE
