:10000000AAC500000C94B11E0C94421FCCC5000080
:10001000CAC50000C8C50000C6C50000C4C50000B0
:10002000C2C50000C0C50000BEC50000BCC50000C0
:10003000BAC50000B8C50000B6C50000B4C50000D0
:100040000C94832BB0C500000C9438100C945E10F7
:10005000AAC50000A8C50000A6C50000A4C50000F0
:10006000A2C50000A0C500005E235E236D23792396
:100070008E23A823D023E4230224084AD73B3BCE77
:10008000016E84BCBFFDC12F3D6C74319ABD568397
:100090003DDA3D00C77F11BED9E4BB4C3E916BAA4F
:1000A000AABE000000803F05A84CCDB2D44EB9389E
:1000B00036A9020C50B9918688083CA6AAAA2ABE85
:1000C000000000803F0664EC1B3C04BC163E3BE590
:1000D000B93CC93C37C29E5A3D660498083EEA695D
:1000E000AAAA3E000000803F03020100536372652C
:1000F000656E20300046440A00434425640A0052DD
:1001000046460A00100E0F114D697373696E672F12
:100110004F6C6420436F6E6669673A202564206DDA
:1001200079203739004D696E696D4F53442D4578FC
:100130007472612055415654616C6B20322E347CB0
:10014000756E6920723838382044567C0020284E5D
:100150005453432900202850414C290025372E3282
:10016000660025362E3166009125372E326600A1B5
:1001700025372E3266005C010B68AE040062018FE9
:1001800068F1050062011473A6040062011D739EEC
:10019000040062011268A2040068019076960400CF
:1001A0006F01A0769204006201BD619A04006201B1
:1001B00057778E0400000000000000004E6F206999
:1001C0006E7075742064617461212025757C00B89F
:1001D000B900253469050700253469050600253571
:1001E0002E32660D0025342E31660D002532690051
:1001F0006F7665726C6F61640053747265616D0037
:1002000066726F7A656E0053747265616D00253495
:100210002E3066010025322E306625250025632507
:10022000638E25342E30660100256325638E2532CA
:100230002E306625250025346905007C20CECECEE3
:10024000CE60CECECECE200040CB242020207C001D
:100250007C20202024CB008280818081808480814A
:1002600080818083808180818085808180818020E1
:10027000C8C8C8C87EC8C8C8C8207C0020202024A0
:10028000CBB8B9CB242020207C0025336905002081
:10029000586525342E30660025342E306600253210
:1002A00069200025332E306925250025352E32663C
:1002B0000E0025342E31660E0025332E30660025C3
:1002C000332E30660025322E30660025342E3066FF
:1002D000002520342E306618002520342E31661873
:1002E000002520342E326618005225332E30660544
:1002F000005025332E306605004825332E30660524
:10030000004225352E316605004525352E31660023
:100310004525342E30666D00734525352E31660037
:10032000E9026E69EF0500F1026E69ED0500F90260
:100330006E69EB050001035469E905000903416892
:10034000E4050010035869DA050018034173E0055D
:1003500000000000000000002533690025303269EC
:100360007C002533690025342E3066010020209062
:10037000910025342E30660025352E316600432548
:10038000642535697C0025342E30660025342E31F5
:10039000660025342E32660025342E306600253462
:1003A0002E30660025342E32660025342E3266004B
:1003B0004325692000256900253464004325692010
:1003C00000B0B1B4B5B6B77B7D158B190001290A11
:1003D0000002220A00034817BC8411172605040CEA
:1003E0000007020E00187A0C0006101500089D0D7B
:1003F00000097E1900255F13008BC4110B0A550BF1
:1004000000197E0D000DB0145C1110141116BB11F3
:100410001212BF131417B11313131C0A0214040A87
:100420007F0FDD16BD2E4B0A571B9E161D1C2E0C72
:10043000151D5C13000E8A0D091EC6150021700AD9
:100440000020900B0022B2118F24D3131F2B450ADA
:100450001F2CE810002DC110002FA31000A71E0DA7
:1004600000A81B0D00A9180D00AA150D001F5D0B9B
:100470000026210D009AE411000000000055050C33
:1004800000000F05053510910409C10900000000A6
:1004900000420600000000000000000000000039DB
:1004A000067301800200000906C0E0401F30067399
:1004B000018402000009069CFF640027067301986E
:1004C0000200000906C0E0401F300673019C0200D4
:1004D0000009069CFF640019067301B002000009C0
:1004E00006C0E0401F30067301B402000009069CFC
:1004F000FF64000E067301C80200000906C0E04058
:100500001F30067301CC02000009069CFF640087BF
:10051000066800000000000000000000006D066694
:1005200001310600000906FCFF04007A0666013569
:100530000600000906FCFF040051066601390600AA
:10054000000906FCFF04005F0666013D0600000985
:1005500006FCFF04003A0700000000000000000055
:100560000000002A07620A0806000002060000FFD9
:10057000001B07620A4106000002060000FF000D92
:1005800007620107060000FD050000FF00FB066290
:100590000106060000FD050000FF00EA0662010EEC
:1005A000060000FD050000FF00DD0662010F0600E9
:1005B00000FD050000FF00CD060000000000000067
:1005C0000000000000BF06620146060000FD0501B4
:1005D000000400B606620105066509FD050000037A
:1005E00000A6065A0143066509FD05E1FF1F0098B4
:1005F000067A0142066509FD05F1FF0F00252E3040
:10060000660025332E31667600252E3366003420B1
:10061000285253534929204B0033202843757272C6
:10062000656E7429204B00322028563229204B0059
:100630002020202020202041003120285631292050
:100640004B0020202050696E2053656E736F7273CB
:1006500000526F6C6C2020696E204E545343005042
:100660006974636820696E204E54534300526F6C66
:100670006C2020696E2050414C00506974636820E2
:10068000696E2050414C002020486F72697A6F6E6D
:1006900020616E676C657300566572746963616C86
:1006A000206F66667300486F72697A6F6E74616C52
:1006B000206F66667300436F6E74726173740053CB
:1006C000637265656E7320436F756E7400202053EE
:1006D000637265656E20706172616D730052535371
:1006E00049207761726E696E67004261747420639D
:1006F0006861726765207761726E004F766572730C
:1007000070656564207761726E696E67005374610D
:100710006C6C207761726E696E6700426174742040
:1007200032207761726E696E67004261747465721F
:1007300079207761726E696E67002020204F5344E4
:1007400020736574757000A8079E07990794078F3A
:10075000078A078507B70782077D077A077707BCEF
:1007600007B20774077007A3076B0761746F660011
:10077000706F6900707000706100686C00706F735A
:100780007200636C007374623600737462350073B8
:100790007462340073746233007374623200737471
:1007A0006231006372757A006D616E75006D5F2550
:1007B00064006C616E6400706F73680072746C002A
:1007C000FD07F007DF07D00737082A081B080C08C9
:1007D0000325392E356625630425392E3566000339
:1007E0002531302E36662563042531302E366600DD
:1007F00025392E3566256325392E3566002531309D
:100800002E366625632531302E36660003253035B9
:100810006C642563042530356C6400032530366C28
:10082000642563042530366C64002530356C6425FE
:10083000632530356C64002530366C6425632530C3
:10084000366C6400C208B808AC089F089308860894
:100850007A086F086308580846656E63652046612C
:1008600072210046656E636520486967682100460D
:10087000656E6365204C6F7721004261747420427D
:10088000206C6F7721004869676820565370656552
:1008900064210020204C6F7720527373692100423D
:1008A000617474657279204C6F772100204F7665F2
:1008B00072537065656421002020205374616C6C54
:1008C0002100204E6F204750532066697821000098
:1008D000070E091C1B1215383F363124232A2D70B0
:1008E000777E796C6B6265484F464154535A5DE0A0
:1008F000E7EEE9FCFBF2F5D8DFD6D1C4C3CACD9050
:10090000979E998C8B8285A8AFA6A1B4B3BABDC7B8
:10091000C0C9CEDBDCD5D2FFF8F1F6E3E4EDEAB7EF
:10092000B0B9BEABACA5A28F88818693949D9A275F
:1009300020292E3B3C35321F18111603040D0A578F
:1009400050595E4B4C45426F68616673747D7A897D
:100950008E878095929B9CB1B6BFB8ADAAA3A4F92F
:10096000FEF7F0E5E2EBECC1C6CFC8DDDAD3D4691F
:100970006E676075727B7C51565F584D4A434419CF
:100980001E171005020B0C21262F283D3A33344E3A
:1009900049404752555C5B7671787F6A6D64633E6F
:1009A00039303722252C2B0601080F1A1D1413AEDF
:1009B000A9A0A7B2B5BCBB9691989F8A8D8483DE0F
:1009C000D9D0D7C2C5CCCBE6E1E8EFFAFDF4F352BB
:1009D000B80E4085EB51401966BB0012800C1CA07C
:1009E000141E666666400000803F100CBA000A00C4
:1009F000001BE8031A0000000800020100000304C5
:100A00000700000000000000000102040810204060
:100A100080010204081020010204081020040404CC
:100A20000404040404020202020202030303030397
:100A3000030000000023002600290000000000251C
:100A40000028002B0000000000240027002A006E70
:100A5000616E00696E660000407A10F35A00A07261
:100A60004E18090010A5D4E80000E87648170000E9
:100A7000E40B54020000CA9A3B000000E1F50500B7
:100A80000080969800000040420F000000A0860100
:100A9000000000102700000000E8030000000064D0
:100AA00000000000000A000000000001000000003B
:100AB000002C76D888DC674F0823DFC1DFAE59E110
:100AC000B1B796E5E3E453C63AE651997696E8E67F
:100AD000C28426EB898C9B62ED407C6FFCEFBC9C52
:100AE0009F40F2BAA56FA5F490055A2AF75C936B64
:100AF0006CF9676DC11BFCE0E40D47FEF520E6B51F
:100B000000D0ED902E0300943577050080841E08F8
:100B10000000204E0A000000C80C333333330F9816
:100B20006E12831141EF8D2114893BE65516CFFEDD
:100B3000E6DB18D1844B381BF77C1D901DA4BBE469
:100B400024203284725E228100C9F124ECA1E53DAB
:100B50002700C808A82211241FBECFEFD8E0DEBFAF
:100B6000CDBF11E0A0E0B1E0E0E6FDE602C00590F7
:100B70000D92A033B107D9F726E0A0E3B1E001C0A0
:100B80001D92AC3DB207E1F71BE0C6E5DBE004C017
:100B90002297FE010E946436C235D107C9F70E9430
:100BA000042E0C9446322CCACF92DF92EF92FF9221
:100BB0000F931F93E82FF92F05C001501109210948
:100BC000310961F1908196239417B9F305C0015062
:100BD00011092109310911F1908196239413F7CF5E
:100BE000C12CD12CE12CF12C0AC08FEFC81AD80AE5
:100BF000E80AF80A0C151D052E053F0579F08081DD
:100C00008623841791F36C2D7D2D8E2D9F2D1F91A2
:100C10000F91FF90EF90DF90CF90089560E070E02B
:100C200080E090E01F910F91FF90EF90DF90CF90C8
:100C30000895FA01AA27283051F1203181F1E89472
:100C40006F936E7F6E5F7F4F8F4F9F4FAF4FB1E0BF
:100C50003ED0B4E03CD0670F781F891F9A1FA11DBA
:100C6000680F791F8A1F911DA11D6A0F711D811DBB
:100C7000911DA11D20D009F468943F912AE0269F80
:100C800011243019305D3193DEF6CF010895462FDF
:100C90004770405D4193B3E00FD0C9F7F6CF462FC0
:100CA0004F70405D4A3318F0495D31FD4052419329
:100CB00002D0A9F7EACFB4E0A695979587957795E6
:100CC0006795BA95C9F700976105710508959B016D
:100CD000AC010A2E06945795479537952795BA95F6
:100CE000C9F7620F731F841F951FA01D0895283038
:100CF00008F027E03327DA01990F311D87FD916055
:100D000000966105710539F432602E5F3D9330E342
:100D10002A95E1F708959F3F30F08038710561050D
:100D200009F03C5F3C5F3D93913008F08068911D75
:100D3000DF93CF931F930F93FF92EF92192F987F1A
:100D40009695E92F96959695E90FFF27EF54F54F65
:100D500099273327EE24FF24A701E7010590089483
:100D6000079428F4360FE71EF81E491F511D660F21
:100D7000771F881F991F0694A1F70590079428F400
:100D8000E70EF81E491F561FC11D770F881F991FB8
:100D9000661F0694A1F70590079428F4F80E491FE2
:100DA000561FC71FD11D880F991F661F771F0694F6
:100DB000A1F70590079420F4490F561FC71FD81FAD
:100DC000990F661F771F881F0694A9F784911095C5
:100DD000177041F0D695C79557954795F794E794C6
:100DE0001A95C1F7E7E5FAE06894159015913591E9
:100DF0006591959105907FE27395E118F10A430B97
:100E0000560BC90BD009C0F7E10CF11E431F561F4A
:100E1000C91FD01D7EF4703311F48A95E6CFE89493
:100E2000015030F0080F0AF40027021708F4202FB1
:100E30002395022F7A3328F079E37D932A95E9F7F9
:100E400010C07D932A9589F60694979567953795F6
:100E500017951794E118F10A430B560BC90BD009EB
:100E600098F023957E9173957A3308F070E37C9324
:100E70002013B8F77E9170617D9330F0839571E314
:100E80007D9370E32A95E1F71124EF90FF900F9185
:100E90001F91CF91DF91992787FD9095089580E06C
:100EA000089580E0089580E008950895FC0113827C
:100EB000128220E131E03183208308958EBD0DB48C
:100EC00007FEFDCF8EB56EBD0DB407FEFDCF8EB50E
:100ED00008958EBD0DB407FEFDCF8EB58FEF8EBD8C
:100EE0000DB407FEFDCF8EB508956FE070E080E091
:100EF00090E00C94FC2B811180E4909112039817E0
:100F000049F0809312035E98609112036C6180E057
:100F1000D5DF5E9A08955E988091000681FD06C037
:100F20008091FF0583FF19C081E018C080EAD1DFFE
:100F300080FF06C081E0DFDF8091FF05886007C089
:100F400081FF08C080E0D7DF8091FF05877F809315
:100F5000FF0505C082FDE4CF02C080E0CCDF5E9AD1
:100F60000895CF93DF93E0910506E43008F0E0E0C8
:100F7000F0E0E851FF4FD49180E1C1E0C80F6D2F40
:100F80009DDFC03211F08C2FF8CFDF91CF91089503
:100F90005E98E7DF6091430682E090DF6091420651
:100FA00083E08CDF5E9A0895CF935E988CEE91DF9C
:100FB000C82F60911203626080E080DF0E943C1FB6
:100FC0006C2F6F7E8CE67ADF62E18CE077DF6091D8
:100FD00012036C6380E072DF0E943C1F6091120379
:100FE0006C6180E06BDFD4DFCF9108955E9862E0A2
:100FF00080E064DF7ADFD8CF61E086E00E944F2C8A
:1010000062E082E00E944F2C86DFCECF2091130356
:101010008091140390E03EE1239F800D911D1124E7
:10102000909331018093300108958F718093140360
:101030006F706093130380911203803411F0673056
:1010400008F4E4CF635060931303FBCF8F3F99F014
:101050002091300130913101203E91E0390758F460
:10106000A9014F5F5F4F5093310140933001F90167
:10107000EE5CFE4F808308958C3731F4809113032A
:101080008F5F80931303C2CFE1CF862FF5DF81E01E
:1010900090E00895CF93C42FC8DF8C2FEDDFCF9160
:1010A00008955E9860E085E009DF60E086E006DF95
:1010B00061E084E003DF5E9AE2E3F1E080E25E98C3
:1010C00090819EBD0DB407FEFDCF9EB581935E9AC3
:1010D00093E0E231F90798F35E988FEF8EBD0DB47F
:1010E00007FEFDCF8EB55E9A08950F931F93CF93A1
:1010F000DF93C82F8B015E9860E080E0DFDE6C2F0D
:1011000089E0DCDEE80110E00991612F8AE0D6DE9B
:10111000602F8BE0D3DE1F5F1633B1F760EA88E003
:10112000CDDE80EAD6DE85FF03C00E941219F9CF1A
:101130006CE080E0C3DE5E9ADF91CF911F910F914A
:101140000895A1E0B0E0E7EAF8E00C9487361CBC13
:101150008F7280658CBD8DB581608DBD8DB58983A5
:101160008EB589832196E2E00C94A33661E08DE090
:101170000E944F2C61E08BE00E944F2C60E08CE0DD
:101180000E944F2C61E08AE00E944F2C80E0D9CF72
:1011900085E193E0EBCFE82FF0E0EE0FFF1FE65381
:1011A000FA4F80819181611105C028EE33E040ED56
:1011B00057E004C020E233E048E958E08217930783
:1011C00090F0FC01E21BF30BCA01821B930B65E05C
:1011D00070E00E94FD35CF010E94FD35862F6530FD
:1011E00018F084E0089580E00895AAECB5E0EBEBF8
:1011F000F4E080819181883E934028F48D919C9108
:101200001197918380833296129684E0E33CF8072D
:1012100081F7089590E0880F991FDC01A653BA4F1B
:10122000FC01E554FB4F8D919C9120813181821B03
:10123000930B0895E091BA0425E0E29FF001112498
:10124000E158FB4F649161504091B8045091B9044A
:101250009091050187FF03C0992339F004C08823CA
:1012600011F0961721F0980F03C0962F01C090E05F
:10127000FA012EE0929FE00DF11D11243496259184
:101280003491232B39F39093050181E08093E60498
:101290000895EF92FF920F931F93CF93DF937B01FB
:1012A0008A01080F191FEC01E81AF90AC017D107C3
:1012B00039F0C7018C0F9D1F0E94A8358993F6CF86
:1012C000CDB7DEB7E6E00C949F3662CE0895692F65
:1012D000ACCE8CE7D1CE80E2CFCECF93813110F06F
:1012E0008051FCCF811101C080E1C82FCC0FC250CA
:1012F00080E98C0FC1DE81E98C0FBEDECF910895AD
:10130000A8E1B0E0E6E8F9E00C948636182F88E111
:10131000189FB001112460587D4F48E150E0CE0184
:101320000196B7DFE12FF0E0EE0FFF1FE453FB4F14
:101330006081718180E090E00E94C53329813A810B
:101340004B815C810E94E0342D813E814F81588524
:101350000E945F329F938F937F936F93CE01099684
:101360009F938F938AE894E09F938F930E94D92E46
:101370000FB6F894DEBF0FBECDBF6896E3E00C94C5
:10138000A236CF936AE086E050DEC0E08C2FB8DF53
:10139000A0DFCF5FC430D1F7CF9108957F936F93D3
:1013A0009F938F938AE894E09F938F930E94E92EF6
:1013B0000F900F900F900F900F900F9008951F9324
:1013C000CF93DF93EC01162F6CE370E00E94FD35A4
:1013D00082E693E0E3DF112331F08091F204882369
:1013E00011F080E201C08AE347DECE016CE370E0D9
:1013F0000E94FD35BC018CE593E0D0DFDF91CF91F9
:101400001F91089560E0DBCF8091B605682F70E0F2
:10141000823140F4FB01EE0FFF1FE95BF84F85912D
:10142000949102C08DEA97E0B9DF8091ED048823A2
:1014300011F086E821CE089560915B0570E083EAA3
:1014400092E0ACCF60916C0570916D0588ED91E0F4
:10145000A5CF60916A0570916B0582ED91E09ECFFA
:101460007F936F935F934F939F938F938AE894E05A
:101470009F938F930E94E92E8DB79EB708960FB663
:10148000F8949EBF0FBE8DBF089540E050E0BA01B2
:101490008AEA93E0E5CF4091BC055091BD0560918B
:1014A000BE057091BF0589EB92E0DACFCF93C22FD2
:1014B0007F936F935F934F939F938F934AE854E08A
:1014C0005F934F930E94E92E8C2FD6DD8DB79EB788
:1014D00008960FB6F8949EBF0FBE8DBFCF910895AA
:1014E000A0E0B0E0E6E7FAE00C9481368091C80510
:1014F0009091C905FC013A961491329604910D968B
:10150000FC01C591D4916091B9057091BA0580E054
:1015100090E00E94C5332DEC3CEC4CEC5DE30E9466
:10152000E0346B017C01602F70E080E090E00E946D
:10153000C7339B01AC01C701B6010E94E0346B01C7
:101540007C01BE0180E090E00E94C5339B01AC01AC
:10155000C701B6010E945F322AE037ED43E25CE347
:101560000E94E034AB01BC01212F88E793E09EDFAD
:10157000CDB7DEB7E8E00C949D367F936F935F9311
:101580004F93209108011F922F93209107011F92E2
:101590002F939F938F938AE894E09F938F930E9459
:1015A000E92E8DB79EB70C960FB6F8949EBF0FBE6E
:1015B0008DBF0895EDE8F5E023812F9322812F93CD
:1015C00021812F9320812F931F926F93E9E8F5E0FB
:1015D00023812F9322812F9321812F9320812F9379
:1015E0009F938F938AE894E09F938F930E94E92EB4
:1015F0008DB79EB70E960FB6F8949EBF0FBE8DBFE7
:101600000895EF92FF920F931F93CF93DF93EB0117
:101610008A017C01060F171FC017D10741F0F7019F
:1016200061917F01CE010E94B0352196F5CFCDB7F3
:10163000DEB7E6E00C949F360E945E3220EC3BE67B
:1016400049ED57E40C94E034CF92DF92EF92FF9291
:10165000CF93C42F6B017C01E894F7F8C701B60162
:101660000E949433882777FD8095982F0E94C73376
:101670009B01AC01C701B6010E945E329B01AC0127
:10168000CC2329F060E070E583EC97E404C060E0CF
:1016900074E284E799E40E94E0340E949433CF918D
:1016A000FF90EF90DF90CF9008958091F40488230D
:1016B00019F08091740511CE08958091590590918B
:1016C0005A058F739927029730F460E176E08AE833
:1016D00094E00C94722D0895CF93C42F28EE33E03C
:1016E00040E050E00E9424366C2FC90168DECF91A3
:1016F00008957F936F939F938F938EE793E09F93CB
:101700008F938AE894E09F938F930E94E92E8DB780
:101710009EB708960FB6F8949EBF0FBE8DBF089572
:101720000F931F93CF93DF930AEC15E0C1E0D0E055
:10173000F801619171918F01CE01DBDF2196C930F3
:10174000D105B1F7DF91CF911F910F910895A2E0DC
:10175000B0E0EDEAFBE00C9480368C01F801B49027
:101760003196E590F490E114F10441F18091500537
:101770006B2D6F7770E0660F771FF0E88F9F600D1D
:10178000711D112442E050E0CE01019682DDC98036
:10179000DA80C6019CDDD7FC09C0C7FC09C0F8018E
:1017A00033968491882321F067DC02C0B7FE03C022
:1017B000C601F70109950C5F1F4FD0CF2296E9E0D3
:1017C0000C949C36CF93C82F60916C0370916D037D
:1017D00080916E0390916F030E9494336150710960
:1017E0006F30774278F4C7FD02C086E145DC409156
:1017F0006C0350916D0360916E0370916F0386E6E8
:1018000093E02EDECF9108951F93CF93DF93192F8E
:1018100090918705923019F020F4CAE203C0CFE11D
:1018200001C0CFE0D82FD095DD1FDD27DD1F11F0DF
:1018300016FF0DC06091880570E08CEE91E0AEDD82
:10184000DD2341F016FF06C08C2F16DC03C08C2F61
:1018500013DCF0CFDF91CF911F910895CF92DF92EB
:10186000EF92FF9296FF2EC081E08093F90429E861
:1018700038E848E85CE36091F5057091F6058091E1
:10188000F7059091F8050E94E0346B017C010E94FD
:1018900094339B0177FF04C022273327261B370B85
:1018A0002A30310534F02436310534F489ED92E0E4
:1018B00005C081EE92E002C081ED92E0B701A60181
:1018C000CFDD13C01092F904E091C805F091C9056D
:1018D000729624914091F5055091F6056091F705B7
:1018E0007091F8058BEC92E0E1DDFF90EF90DF90D6
:1018F000CF900895CF92DF92EF92FF921F93CF93F4
:10190000DF93D82FC92F8091BB058F55863010F4F7
:1019100014E601C01FEF6091C10570E080E090E027
:101920000E94C5336B017C01612F70E080E090E084
:101930000E94C7339B01AC01C701B6010E942C3342
:1019400020E030E048EC52E40E94E0346B017C017E
:10195000C074D7FD41C088E88FDB2AE037ED43E251
:1019600050E4C701B6010E94E0340E9499339B0104
:101970006138710548F029E8209307019B01205840
:101980003109E8E0F1E012C08DE8809308012231CE
:10199000310550F48091F204882331F080E2809385
:1019A0000701809308010AC0E7E0F1E0C9016AE19C
:1019B00070E00E94FD358DE8861B8083CC2329F0E2
:1019C000B701A60189E292E005C040E050E0BA010B
:1019D0008DE192E0D2DD0DC0CC2329F0AB01BC013A
:1019E00085E192E005C040E050E0BA018EE092E06F
:1019F00037DDDF91CF911F91FF90EF90DF90CF9077
:101A00000895262F30E0F901E853FB4F87FD0BC006
:101A100091E09083F901EC53FB4F86FB882780F916
:101A20008083862F6DCC1082089563E0892FE9CFE3
:101A300062E0892FE6CF61E0892FE3CF60E0892F54
:101A4000E0CF0F931F93CF93DF9320910D052223B7
:101A500009F44DC040910B0550910C05209159059A
:101A600030915A054217530709F441C02AE13091D9
:101A70000A05231B27FD0BC02695692F820FD5DA97
:101A80006DE075E08AE894E00E94722D32C096FD08
:101A90001CC0219530E08091510590910905891B6A
:101AA00090E0B901660F771F0E941136409103053F
:101AB00041110DC0009729F0215031098217930779
:101AC00031F421E02093030502C080E090E0EC01B6
:101AD000C35FDA4F8E01065E1F4F8991811102C0EC
:101AE000FADB07C0C9DAC017D107B9F7F9CF1092EE
:101AF0000D05DF91CF911F910F91089596FB44271B
:101B000040F96091A6057091A7058091A805909174
:101B1000A905E2CDCF93C92F60914205709143058D
:101B200088E593E03BDC80910D0680FD04C0C6FF94
:101B300002C085E2A1DACF910895FF920F931F931F
:101B4000CF93DF93D92F182F1095111F1127111F35
:101B500051F096FD08C095FF39C06CE772E08AE845
:101B600094E00E94C52E83EC87DA209168053091BD
:101B7000690548E1429FC001439F900D11240C96D6
:101B800068E671E00E94113664507109C62F77FF34
:101B900002C0C8E1C60FD5FBFF24F0F8D5FF02C094
:101BA0000AE001C009E0EC2FF0E0E95AFD4F849112
:101BB00063DACF5FC83108F0C0E00150A1F787E8D1
:101BC0005BDA1123D1F0D6FD04C017C06FE672E0D6
:101BD000C6CFFF2079F060E572E08AE894E00E94C9
:101BE000C52E8CE733DA68E472E08AE894E00E945C
:101BF000C52E03C06BE372E0F8CFCDB7DEB7E5E0EA
:101C00000C94A036A0E0B0E0E8E0FEE00C94813651
:101C100040918D0550918E0560918F0570919005D2
:101C2000452B462B472B69F44091890550918A0535
:101C300060918B0570918C05452B462B472B09F441
:101C400079C094FF02C010E201C01CE796FB002798
:101C500000F9E82FE095EE1FEE27EE1FEE0FE02BC8
:101C60008091F204882311F18091FE04853058F0B0
:101C700067E072E08AE894E00E94C52E812FFCD9CB
:101C800060E072E00EC08091FF04853078F069EF6B
:101C900071E08AE894E00E94C52E812FEDD960EFB3
:101CA00071E08AE894E00E94C52E44C0FF27E7FD5A
:101CB000F095EE0FFF1F95FF37C0E853F84FC59121
:101CC000D49160918D0570918E0580918F059091D2
:101CD0009005402FB9DCF62EE72ED82EC92E609144
:101CE000890570918A0580918B0590918C05402F14
:101CF000ABDCCF92DF92EF92FF921F921F939F93E4
:101D00008F937F936F93DF93CF938AE894E09F93B1
:101D10008F930E94E92E8DB79EB70E960FB6F8945A
:101D20009EBF0FBE8DBF06C0E054F84F85919491C1
:101D3000612F40DCCDB7DEB7E8E00C949D36ADE016
:101D4000B0E0E5EAFEE00C947736782E6887809163
:101D50001203803489F4C0903506D0903606E090A6
:101D60003706F09038068090310690903206A090A9
:101D70003306B090340610C0C0903D06D0903E06A9
:101D8000E0903F06F09040068090390690903A0629
:101D9000A0903B06B0903C0660916C0570916D057B
:101DA000882777FD8095982F0E94C7339B01AC014F
:101DB000C501B4010E94E0344B015C018091DE0456
:101DC00080FF04C0B7FAB094B7F8B094C501B4016D
:101DD0000E949433AB016A35710538F09B012D5494
:101DE0003F4F2935310580F4A9014734510590F55D
:101DF0004A31510518F54A30510530F529E02C8754
:101E00005DEC652E16EC30C06B3571051CF0AB0136
:101E1000435B5109CA0157FF03C091958195910910
:101E200087349105B8F48A319105C8F40A9730F3E4
:101E300038E03C8745EF642E12EE16C087E08C87B1
:101E400038EF632E19ED10C098E09C8723EF622EC7
:101E500010ED0AC01C869DEC692E11EC05C0E7E070
:101E6000EC878BEF682E1BEE27EA32E94BE25CEB46
:101E7000C701B6010E94E0346C837D838E839F830B
:101E800025E33AEF4EE85CE3C501B4010E94E0347B
:101E90004B015C010CE0202E312C00E07A947B8217
:101EA0002C85332727FD30953A8729873AEF360D61
:101EB0003B87C02EDD24C7FCD09480916A059091A9
:101EC0006B058C0D9D1DBC01882777FD8095982F93
:101ED0000E94C7332C813D814E815F810E94E03496
:101EE0000E94883520E030E044EB52E40E94E03468
:101EF0002B013C0120E030E0A9010E94D53420E014
:101F000030E040E05FE387FD0BC0C301B2010E94F7
:101F10005F320E9494337B01EDE2EE0EF11C0AC0A9
:101F2000C301B2010E945E320E9494337B01FDE244
:101F3000EF0EF11C2DE022192D87882799278C1987
:101F40009D099A838983FD858F2F90E02816390695
:101F50000CF475C0C501B4010E9488352B013C0109
:101F60009D85ECE09E9F602D11246E54772767FDC0
:101F70007095872F972F0E94C7339B01AC01C30137
:101F8000B2010E94E0340E949433F701E60FF71F7C
:101F9000CF0101978A35910508F04DC062E170E0EC
:101FA0000E941136662E2C85222391F03EEE3603D8
:101FB000A001379F500D11244E0F5F1F4F5F5F4FE1
:101FC00057FF02C04F5F5F4F55954795742E01C074
:101FD000712C5884561A64E0650D8B819D85890F9C
:101FE00024D8002389F0ED85E53071F4B601D7FEE1
:101FF00002C069817A814AE050E08AE894E00E9458
:10200000EA2DF6E0FD8703C0872D810F35D87720B4
:1020100091F0872D90E029853A85821793075CF02F
:1020200034E0631641F04B85470D63E0650D8B810D
:102030009D85890F2FD8ED85EF5FED8784CFF7FE63
:102040000AC0025E82E0281A310894E029163104A1
:1020500009F02FCF06C02BE5E216F10414F00E5163
:10206000F1CF2D96E2E10C94933666E089E067CEDD
:102070001F920F920FB60F9211242F938F939F935D
:10208000EF93FF939091C6008091DA068F5F8F7770
:102090002091DB06821741F0E091DA06F0E0E85A81
:1020A000F94F90838093DA06FF91EF919F918F9182
:1020B0002F910F900FBE0F901F9018951F920F92A7
:1020C0000FB60F9211248F939F93EF93FF939091EC
:1020D000D9068091D806981779F0E091D906F0E0FA
:1020E000EC5AF94F80818093C6008091D9068F5FAA
:1020F00083708093D90605C08091C1008F7D809345
:10210000C100FF91EF919F918F910F900FBE0F90A3
:102110001F901895EAE7F0E080818B7F80838081B3
:1021200086608083089595FB222720F994FF02C0E2
:1021300092E001C090E0292B86FF02C084E001C03C
:1021400080E0822B08951F93CF93DF93182FEBDF4E
:102150008C5FC82FD0E017FD06C0BE016F5F7F4FB8
:102160008CEB93E01BD9FE01EE0FFF1FE653FA4FF5
:102170006081718188EB93E011D9DF91CF911F913C
:1021800008951F93CF93DF93182FD92FCCDFC4E08E
:10219000C80F17FD07C06C2F70E06F5F7F4F85EB96
:1021A00093E0FCD8D6FB662760F98C2F0E94CB0801
:1021B000D82FC0E0CD1711F080E801C081E80E945F
:1021C0003C08CF5FC530B1F7DF91CF911F910895E3
:1021D0001F93CF93DF93182FD92FA5DFC4E0C80F2B
:1021E00017FD07C06C2F70E06F5F7F4F80EB93E0AF
:1021F000D5D8D6FB662760F98C2F0E94CB08182F04
:10220000C0E0D3E0CE010E94A8358F3F71F081116C
:1022100003C0112351F01150111102C00E943C085B
:102220002196C03883E0D80769F7DF91CF911F91DD
:10223000089596FB222720F930E095FF03C082E045
:1022400090E002C080E090E0822B932B01978330D6
:10225000910540F4FC01E45EFE4F8081992787FDE3
:102260009095089580E090E008950F931F93CF9389
:10227000DF93EC018B010E94CD2B600F711F811D3C
:10228000911D688379838A839B83DF91CF911F910E
:102290000F9108959B01FC014081518162817381FE
:1022A000420F531F611D711D4083518362837383ED
:1022B0000895E091C805F091C9053496659175912E
:1022C000859194910895CF92DF92EF92FF92CF93F0
:1022D000DF936B017C01EDDFA70196010E94E034E2
:1022E0006B017C0120E03CE34CE156E40E94253385
:1022F000C091C805D091C905FE0118163CF0399669
:102300002491B701A60188E993E024C070966591F5
:10231000749180E090E00E94C5339B01AC01C7013D
:10232000B6010E942C336B017C010E9494336A3009
:10233000710534F06436710534F48CE893E005C01F
:1023400082E993E002C086E893E0FE013F96249183
:10235000B701A601ABD8DF91CF91FF90EF90DF904E
:10236000CF9008956091F1057091F2058091F30589
:102370009091F405A8CF60916405709165058091F6
:102380006605909167059FCF96FB882780F980931B
:1023900002058091F404882369F097FD0BC06091D9
:1023A00075057091760580917705909178050E946A
:1023B000C73389CF0895E091C805F091C9056591AB
:1023C0007591859194910895CF92DF92EF92FF924B
:1023D0008091EC04882309F4E0C01092EC04C090D2
:1023E0006005D0906105E0906205F0906305E3DF41
:1023F000A70196010E94E0340E9494338091C605A3
:102400009091C7052091F804222351F031E020E09B
:1024100040918705423008F030E0E32EF22E02C0F2
:10242000E12CF12C4091030641110CC020910706CC
:1024300030E06217730734F42091F10420FF02C0EA
:102440006894E1F820910606222331F030E0261747
:10245000370714F46894E2F8F091C105E091BB05E8
:1024600020910806222359F064E670E00E94FD35B1
:102470006115710521F030E062177307ECF02091CF
:102480000E062223D9F034E6F39FC00111243E2F1B
:10249000E7FF02C031E03E0F3595830F911D37FDF8
:1024A0009A956E2F772767FD70950E941136822FBF
:1024B00090E06817790714F46894E3F880910D06AA
:1024C00080FD0CC080910F0690E020914205309174
:1024D00043052817390710F46894E4F88091F5054E
:1024E0009091F605A091F705B091F8054130A9F457
:1024F000D0900706DD2089F0BC01CD019F770E94B6
:102500009433CB016AE070E00E9411368D2D90E08B
:102510008617970714F46894E5F88091C4059091A4
:10252000C50520914106222379F064E670E00E94FF
:10253000FD356115710541F0822F90E0681779072C
:102540001CF46894E6F803C0E114F10421F1509101
:102550006B0381E05111850F80936B0340916B03F6
:102560002FEF240F81E090E002C0880F991F2A9579
:10257000E2F74B3018F041E081E090E09C012E2121
:102580003F21232B21F4880F991F4F5FF2CF4093F7
:102590006B03451302C010926B03E0916B03EE23B3
:1025A00059F0F0E0EE0FFF1FEE5BF74F659174916D
:1025B0008AE894E00E94C52EFF90EF90DF90CF90C4
:1025C0000895A0E0B0E0E7EEF2E10C948236EC0171
:1025D000FE01059114910115110509F468C0FE0171
:1025E0003296849181110E943C08FE0133968491B9
:1025F0003196E590F4908936D1F068F4813681F017
:10260000883609F03AC0E091C805F091C9053996BD
:10261000D4904FDE3BC08337B1F08637E1F02DC058
:1026200051E4D52E6AE077ED83E29CE32FC0F701F9
:1026300060817181882777FD8095982F0E94C7332C
:1026400040E2D42E2AC0E091C805F091C905389621
:10265000D490B1DE1BC02DDE2091F904211114C0ED
:10266000E091C805F091C9057296D49020E030E061
:1026700040E752E40E94E03409C030E2D32E60E02B
:1026800070E080E89FE302C028E1D22EF7012081AC
:102690003181428153810E94E0342D2DAB01BC0178
:1026A000C8010E94560A0E946909279691CFCDB7AA
:1026B000DEB7E7E00C949E3680E293E082CFCF93C2
:1026C000DF93D82FC92F48E0692F0E944A086091F4
:1026D000A6057091A7058091A8059091A90540E0F5
:1026E0000E946C0B86E791E06CDFC6FF05C06C2F83
:1026F0008AE08D0F0E9415086CE78FED97E00E942D
:10270000DA0ADF91CF910895CF92DF92EF92FF9294
:102710001F93CF93DF93EC016A017B01122F4BDEF5
:10272000A70196010E94E034112341F024EE38E322
:102730004EE85EE30E94E03428E106C0E091C8055F
:10274000F091C90538962491AB01BC01CE010E94DD
:10275000560ADF91CF911F91FF90EF90DF90CF90BD
:10276000089596FB222720F940916005509161055C
:1027700060916205709163058FEB92E0C5CF96FB87
:10278000222720F940915C0550915D0560915E051E
:1027900070915F058FEB92E0B7CF2FE632E143E80F
:1027A0005AE30C94E034CF92DF92EF92FF92CF93F2
:1027B000DF93C0917003D09171037BDD6B017C01CD
:1027C0008AEF8C9FB0018D9F700D1124882777FDB3
:1027D0008095982F0E94C7339B01AC01C701B601B9
:1027E0000E94E034E091C805F091C905A8974CF02B
:1027F0003F96C491D2DFAB01BC012C2F84EA93E059
:1028000006C039962491AB01BC018EE993E00E9489
:10281000560ADF91CF91FF90EF90DF90CF9008950F
:1028200040919105509192056091930570919405A6
:1028300096FF0CC08091810590918205A09183053F
:10284000B0918405481B590B6A0B7B0BCB01BA0175
:102850000E94C733A2DF37CDCF93DF93662319F0F1
:10286000C5EED1E002C0CEEDD1E0BC0180E090E049
:102870000E94C53392DFAB01BC01CE010E94300A39
:10288000DF91CF9108952091590530915A05260F77
:10289000311D30930C0520930B0580930A05809120
:1028A000510580930905089597FF03C088599E4FED
:1028B0000895893621E0920714F0885691400895D2
:1028C000CF93DF93EC010E94CD2B28813981CB017E
:1028D000821B930BDF91CF91089520910B063091CD
:1028E0000C06815018F4822F8F70089564E036959D
:1028F00027956A95E1F7F5CFA2E0B0E0E2E8F4E1D0
:102900000C94873681E08093E60488E0EBEBF4E0FA
:10291000DF011D928A95E9F760915005B0E86B9F41
:10292000B001112442E050E0CE0101960E94490915
:1029300099818A819093DE048093DF042296E2E0FD
:102940000C94A33674E0880F991F7A95E1F78C54A4
:102950009F4F68E671E00E941136CB010196089501
:10296000CF92DF92EF92FF920F931F93CF938091BC
:10297000B6058A3009F04CC00091DA051091DB05EC
:10298000083E83E018073CF409318CEF18072CF45B
:1029900009E11CEF02C007EE13E0E091C805F091D9
:1029A000C9053996C4916091E80570E08EE992E01E
:1029B0000E94CE097EDC2C2F40E050E0BA0188E96D
:1029C00092E00E94560A0E9469098091E90590915F
:1029D000EA056ADF2091680530916905821B930B37
:1029E000B1DF0E946D0965DC6B017C01B8018827AD
:1029F00077FD8095982F0E94C733A70196010E940A
:102A0000E034AB01BC012C2F8FE892E00E94560A03
:102A1000CF911F910F91FF90EF90DF90CF9008958D
:102A200080916805909169059195819591093CDFA8
:102A3000845B9109909386058093850583DF885F89
:102A40000E946D09609185057091860586E392E08C
:102A50000C94CE09CF92DF92EF92FF92CF93DF9347
:102A6000EC016A017B019A01AB01688179818A815D
:102A70009B810E94253387FF04C0C882D982EA82E5
:102A8000FB82DF91CF91FF90EF90DF90CF90089580
:102A9000A0E0B0E0EEE4F5E10C947D36EC014A01F3
:102AA0005B018901C880D980EA80FB8020E030E0AA
:102AB000A901C701B6010E942533882319F0011529
:102AC000110529F488829982AA82BB821DC0A701C0
:102AD0009601C501B4010E945E324B015C01B80150
:102AE000882777FD8095982F0E94C7339B01AC0102
:102AF000C501B4010E942C33A70196010E945F32E8
:102B0000688379838A839B83CDB7DEB7ECE00C942E
:102B100099368F929F92AF92BF92CF92DF92EF92AF
:102B2000FF926091C2057091C305882777FD80955B
:102B3000982F0E94C7334B015C01C0905C05D09078
:102B40005D05E0905E05F0905F0535DCA70196011C
:102B50000E94E0349B01AC01C501B4010E942C33FA
:102B600020E030E040E251E40E94E034AB01BC01DF
:102B700024E630E08CE693E08BDFFF90EF90DF906F
:102B8000CF90BF90AF909F908F900895CF92DF929B
:102B9000EF92FF92CF93C82F96FF12C020E030E053
:102BA000A90160915C0570915D0580915E05909131
:102BB0005F050E942533882309F4BAC0AADF20C02C
:102BC000809103068111A5C020E030E0A901609149
:102BD0005C0570915D0580915E0590915F050E9496
:102BE0002533882309F4A4C094DF90915B0580917C
:102BF000F004933048F0811103C081E08093F00429
:102C00008C2F0E94E20B94C08823D1F0109299057A
:102C100010929A0510929B0510929C054091F10527
:102C20005091F2056091F3057091F40540936203B1
:102C30005093630360936403709365031092F004F0
:102C40002DEC3CEC4CE45DEB6091950570919605A4
:102C500080919705909198050E94253387FF45C084
:102C600020916203309163034091640350916503A6
:102C70006091F1057091F2058091F3059091F40552
:102C80000E945E3220E030E0A9010E94E0346B0136
:102C90007C010FDB9B01AC01C701B6010E94E0344F
:102CA0006B017C010E949433603187E2780724F441
:102CB0001616170644F03CC0C12CECE3DE2EECE106
:102CC000EE2EE6E4FE2EC7FD03C08EEE0E943C0809
:102CD000E091C805F091C90539962491B701A60184
:102CE00082E793E00E94560A23C080916A05909182
:102CF0006B0597FF1DC08091F204811103C06DE642
:102D000073E002C06EE673E08AE894E00E94C52E8C
:102D10000FC08091ED04882359F0C7FD03C087E1FF
:102D20000E943C088091B7059091B8050E94020A64
:102D3000CF91FF90EF90DF90CF9008950F931F9366
:102D4000CF93DF93092F80E090E0AEDDEC0124E625
:102D500030E040E050E0BA0189EF95E099DE06FBF3
:102D6000112710F9212F40E050E0BA018FEB92E0DB
:102D7000CBDC0E94690980916805909169059E01EC
:102D8000281B390BC901DEDD05FF02C098E001C038
:102D900090E0890F0E946D094091F9055091FA0564
:102DA0006091FB057091FC05212F85EC92E0ACDC75
:102DB000DF91CF911F910F9108951F93CF93DF93D0
:102DC000192F37DAEC016091C2057091C30588278D
:102DD00077FD8095982F0E94C733AB01BC019E01FF
:102DE0008EE593E055DE14FF03C0C2EBD2E002C0D3
:102DF000CBEAD2E02AE037ED43E25CE360915E0388
:102E000070915F0380916003909161030E94E034B0
:102E1000AB01BC01CE010E94300ADF91CF911F911E
:102E200008951F93CF93DF93192F97FD25C091E04D
:102E300090930105912FFDD9EC016091C40570912B
:102E4000C50580E090E00E94C533AB01BC019E0146
:102E50008AE593E01DDE1295117060915A0370911E
:102E60005B0380915C0390915D030E949933DC01C8
:102E7000CB01612FF1DC08C081E0909141069111F6
:102E800001C080E080930105DF91CF911F910895EB
:102E90001F93CF93DF93192FCCD9EC016091C60516
:102EA0007091C70580E090E00E94C533AB01BC0182
:102EB0009E0186E593E0ECDD12951170609156035A
:102EC0007091570380915803909159030E94993350
:102ED000DC01CB01612FC0DCDF91CF911F91089500
:102EE0002AE030E0D5CDCF93DF93EC019A01AB011E
:102EF000688179818A819B810E945F3268837983AE
:102F00008A839B83DF91CF910895A8E0B0E0EBE83E
:102F1000F7E10C94773682EA95E0D2DC1C0160E0A0
:102F200070E082EA95E0A1D9B10180E090E00E94D2
:102F3000C53333DC6A837B838C839D836091C205B8
:102F40007091C305882777FD8095982F0E94C7331D
:102F50006B017C016091C6057091C70580E090E02F
:102F60000E94C533A70196010E94E0342CEA35EC9B
:102F700047E257E30E94E034AB01BC018CEB95E0E3
:102F8000AFDF8090950590909605A0909705B09042
:102F900098058FD92B013C0120E030E040E752E456
:102FA000C501B4010E94E034A30192010E94E03403
:102FB000AB01BC0185EF95E093DF4091C105209105
:102FC000BB05332727FD3095842F90E0281739075C
:102FD00014F44093BB05209103062E838091440591
:102FE0009091450520910D0620FD70C00091470687
:102FF000109148064091490650914A0658874F83E0
:103000004017510744F03F81288518870F83032F0D
:10301000122F198202C051E059833F812885EF8128
:10302000F885E817F90714F4382F292F632F722F2A
:10303000061717070CF4B801882777FD8095982F9D
:103040000E94C7332B013C012F813885B9018827A5
:1030500077FD8095982F0E94C7339B01AC01C30177
:10306000B2010E945E322B013C01B8014F815885AC
:10307000641B750B882777FD8095982F0E94C733B6
:103080009B01AC01C301B2010E942C3320E030E06F
:1030900048EC52E40E94E0340E9494336536710596
:1030A0002CF477FF05C060E070E002C064E670E0D9
:1030B0005981552331F084E690E0FC01E61BF70BC3
:1030C000BF01709343056093420504C0909343058C
:1030D00080934205FE81F11104C08091F10480FDCE
:1030E00005C08091ED04882309F46CC0B10186EA23
:1030F00095E0D0D88091F404882399F020915C0564
:1031000030915D0540915E0550915F056A817B813C
:103110008C819D810E94E034AB01BC0181EF95E080
:10312000E2DE60917505709176058091770590914A
:1031300078050E94C733AB01BC018EEA94E08ADCBB
:103140004091600550916105609162057091630541
:103150008AEA94E07FDC40915C0550915D056091C6
:103160005E0570915F0586EA94E074DC4091640529
:1031700050916505609166057091670582EA94E05B
:1031800069DC40E050E0BA018EE994E063DC4091F4
:10319000BC055091BD056091BE057091BF058EE8DC
:1031A00094E058DCB701A6018AE994E053DCB5014C
:1031B000A40186E994E04EDCB501A401705882E9CF
:1031C00094E048DC2896E2E10C949336CF93DF93A9
:1031D000EC01CB01BA010E94C73325E93FEB46ED74
:1031E00053E30E94E034688379838A839B83DF9171
:1031F000CF9108950E94CD2B609353057093540591
:1032000080935505909356058091590590915A05E4
:10321000909358058093570581E08093E60480934E
:10322000E80408958AEA90E00C94212C0E94732E01
:10323000811101C0F7CF08958091E704882321F020
:103240009091E50481E0911180E008953091D604D9
:103250003323E1F0E0914406F0E0EE0FFF1FEE5261
:10326000FA4F80819181E091D404F091D5042081BE
:10327000232B20830E94212CE091D404F091D504CB
:1032800090818091D6048095892380830895E09170
:103290008104E827F0E0E153F74FE491E0938104E3
:1032A000089520E030E048EC52E40E94E0340E94AF
:1032B0009933CB01089520E030E04AE754E40E94BE
:1032C000E0340C9499338091680590916905880FDA
:1032D000991F8D966AE570E00E94113677FF03C052
:1032E000685F7F4FFBCF683071051CF06850710933
:1032F000FACFFB01EF53FC4F8491089587FD03C083
:10330000E2DF0E943C0860916805709169058AE8D7
:1033100092E00C94CE09A3E0B0E0E1E9F9E10C946D
:103320007736882EB92E992E96FD10C0332433940B
:10333000380C6B2D832D0E949F0E26E0A22EA80C28
:1033400032E0232E2B0CB4FEDAC019C015E082EB5C
:103350000E943C080DE0015019F00E946B09FBCF60
:10336000133011F485EC01C083EB0E943C080E94ED
:1033700069091150D9F2133051F786ECE9CF209149
:103380007205309173053B832A830091700510917B
:103390007105C80117FF04C088279927801B910B6E
:1033A0006AEF70E00E941136362F272F8A819B81A9
:1033B00097FF03C09195819591096AEF70E00E9493
:1033C0001136CB01632F722F681779070CF4BC01FB
:1033D0006F5F7F4F7093710360937003882777FD51
:1033E0008095982F0E94C7336B017C01B801882714
:1033F00077FD8095982F0E94C7332B013C0124EE66
:1034000038E34EE552E4C701B6010E94E0349B0167
:10341000AC01C301B2010E942C330E949433698332
:10342000162F4A815B81BA01882777FD8095982FF6
:103430000E94C7332B013C012DE63BED4EE052E4E8
:10344000C701B6010E94E0349B01AC01C301B20187
:103450000E942C3320E030E040E05FE30E945F32C6
:103460000E949433F62E86FC0AC02DDF622D59810E
:10347000651B482F8A2D8F0D0E944A0840C09091ED
:103480004805961304C0809149058117E9F08091A1
:103490004C0590914D0590934F0580934E052091DA
:1034A0004A0530914B0530934D0520934C052091F2
:1034B00048053091490530934B0520934A05F09219
:1034C00048058981809349050FE415E09EE4C92EE3
:1034D00095E0D92EF8018081622D681BF60180816C
:1034E00044E28A0D0E944A0802501109F2E0CF1A04
:1034F000D10828E4C21625E0D20661F7B6CF87FCD2
:103500000AC0622D8A2D0E9415086FEC71E08AE8CE
:1035100094E00E94C52EB5FEC2C08091ED048823C0
:1035200009F4BDC080910306811184C060917505C6
:103530007091760580917705909178050E94C73348
:103540009B01AC0160E070E0CB010E94D23221EE21
:103550003EE245E652E40E94E0340E9494336A5011
:1035600071092DE2269FC001279F900D11246AE06A
:1035700070E00E941136CB01469669E070E00E942F
:103580001136663078F410ED181B0B2D060F412F05
:10359000602F8CE0880D0E944A08412F602F832DF8
:1035A0000E944A088091740590E0209109013091B1
:1035B0000A01821B930B78D9853B910534F028E6EC
:1035C00031E0A901481B590BCA019C01245B310958
:1035D00048E4429FC001439F900D11246AE070E0CF
:1035E0000E941136CB01849666E070E00E9411368D
:1035F000962F64E06B0D97FF06C04CE3832D0E946D
:103600004A084CE314C09D3054F01CE0180D4EE302
:10361000812F0E944A084EE36B2D812F3EC01FEB85
:10362000180F390E412F832D0E944A08412F6B2D10
:10363000832D33C0C0906405D0906505E090660589
:10364000F09067050E945911A70196010E94E0348D
:1036500020E030E040EA50E40E945F322DEC3CEC88
:103660004CE850E40E94E0340E949433862F9FEF90
:10367000960F9B3240F469E00E94F0354FEC491BF5
:103680009B2C980E08C06C322CF084E0982E9B0C7A
:103690004EE201C04FEC692D8A2D0E944A08239604
:1036A000E2E10C949336ADE0B0E0E9E5FBE10C9487
:1036B00077366B017C010E948B0780910306109185
:1036C000ED04811120C0112321F18091F10480FFCC
:1036D00020C060915C0570915D0580915E059091C0
:1036E0005F050E9494336230710524F480915B057C
:1036F000823078F0C092DC05D092DD05E092DE05E4
:10370000F092DF0506C0111104C08091EE04811112
:10371000F1CF1093EE0480914606853018F084E0D6
:103720008093460683E595E0CBD8853C994080F1AF
:1037300010925C0510925D0510925E0510925F0577
:1037400063E085E00E9415086091590570915A0563
:103750008091570590915805681B790B8CEB91E08F
:103760000E94CE094091040550910505609106051F
:1037700070910705411551056105710531F02AE089
:1037800030E08AE894E00E94F12D83E095E432C0B5
:103790008091000680FF35C08091ED0481112DC01D
:1037A0008091DC059091DD05A091DE05B091DF05EB
:1037B000892B8A2B8B2B09F18CED95E081D8883BE6
:1037C0009B40D8F46091F1057091F2058091F3056A
:1037D0009091F4050E9494336630710574F081E095
:1037E0008093FB040E94F508809150058093C304E8
:1037F00081E091E00E945F13B0C28091FB048111CF
:1038000070C280914606882321F090915005981748
:1038100018F489EC93E062C28091ED0481115CC2DE
:103820001D821E821F821886E090BA0485E0E89E01
:1038300070011124F701E358FB4F7F0185919491AA
:103840009093B9048093B804F701329624912987A4
:103850000E94F508C12CD12C812C712C212C312CEB
:10386000412C912C512C9985891609F4B9C06624F4
:103870006394680C0091B8041091B9040C0D1D1DDF
:10388000F801A590B490662D81E00E941508B5015D
:103890008AE894E00E94C52E662D83E10E941508F7
:1038A00080910501881206C08EE30E943C0850906A
:1038B000140302C00E946B09F8013296849131967C
:1038C000B490833609F43FC040F48A3509F439C016
:1038D000823671F1811168C07EC08836D9F088F4D3
:1038E000863609F061C0F8013496A591B4918D91A6
:1038F0009D910D90BC91A02D8D839E83AF83B88741
:1039000053C0833709F446C08A3709F04DC040E1FF
:10391000942E19C080911203803419F465E571E08A
:1039200002C06DE471E08AE894E00E94C52E53C0A5
:10393000F8013496A591B4916C9170E080E090E02C
:1039400010C050E2952EF8013496A591B4916C9177
:10395000772767FD709569197109882777FD80952C
:10396000982F0E94C7336A877B878C879D876B2D32
:1039700070E080E090E00E94C5339B01AC016A8555
:103980007B858C859D850E942C336D837E838F8300
:1039900098870AC0F80134966591749144E050E02C
:1039A000CE0105960E94490980910501BD81AE8135
:1039B0003F812885881204C07B2E2A2E332E422E6A
:1039C000085F1F4FF801859194914B2F5A2F632F59
:1039D000722F0E94300A8EE0C80ED11C862C43CF75
:1039E000E3E0EE0EF11CF70185919491009711F040
:1039F000FC0109958091F504882309F4AEC1109269
:103A0000F50411E01093E60481E00E940A09873969
:103A1000910514F081E004C08A369F4F24F48FEFA3
:103A20000E941A099AC183E00E940A098739910508
:103A30005CF0109305018091BA04823019F4109261
:103A4000BA048BC18F5F0CC08A369F4F64F4109309
:103A500005018091BA04811102C082E001C0815049
:103A60008093BA047AC1609105016F5F852D0E9431
:103A7000150880910501E090B804F090B9049EE02B
:103A8000899FE00CF11C112480E00E940A098C013E
:103A900097FF06C01195019511098824839401C0F0
:103AA000812CF7013496C590D490F701329654904A
:103AB00031966490872D922DA32DB42D8D839E83F6
:103AC000AF83B887E3E6E51538F0F2E65F1670F4E9
:103AD0002AE5521248C00AC083E7581671F19AE7E6
:103AE000591621F0E6E65E123EC027C00D32F1E025
:103AF0001F078CF0662D70E080E090E00E94C533D7
:103B00009B01AC0160E070E080E291E40E942C3304
:103B100021E029874AC0073911054CF1662D70E074
:103B200080E090E00E94C5339B01AC0160E070E052
:103B300080E89FE30E942C331DC00139F1E01F078C
:103B400074F50D3221E01207C4F4093C1105E4F4C8
:103B500084E08987053611050CF463C06FE672E1D5
:103B600083E89AE322C060E070E0CB0113C060E01C
:103B700070E0CB01E1E0E9870DC06DEC7CEC8CECF2
:103B80009DE3F4E0F98706C06AE077ED83E29CE309
:103B900024E02987053611050CF443C006C060E017
:103BA00070E080E89FE3F4E0F98781109058AB0162
:103BB000BC01CE01059697D9F7013A9665917491AB
:103BC000F7013C9605911491882777FD8095982FF1
:103BD0000E94C7334B015C019B01AC016D817E816A
:103BE0008F8198850E94253387FF04C08D829E8235
:103BF000AF82B886B801882777FD8095982F0E94FC
:103C0000C7334B015C019B01AC016D817E818F81CB
:103C100098850E94D534181624F48D829E82AF8236
:103C2000B8868D809E80AF80B884272D322D432D9D
:103C3000542DC501B4010E942533882309F48DC099
:103C4000662D70E080E090E00E94C733A5019401EA
:103C50000E94E0340E94943393E65916D9F09515EA
:103C600038F0EAE55E1699F0F2E65F1699F01FC0AB
:103C700023E7521691F08AE7581659F096E6591242
:103C800016C0F60180829182A282B38210C0605E6B
:103C900001C0605FF60160830AC089829A82AB82AC
:103CA000BC8244E050E0B601CE01019607C0F98520
:103CB0004F2F50E0B6016F5F7340C6010E94010BA9
:103CC00026E0E20EF11CF70185919491009709F42A
:103CD00044C0FC01099541C085E794E00E94A70B10
:103CE0003CC08091C30490915005891721F08093C6
:103CF00050051092FB0482E00E940A09AA2797FD52
:103D0000A095BA2FB7FF07C0B095A0959095819563
:103D10009F4FAF4FBF4F8D329140A105B105D4F4F5
:103D200083E00E940A09AA2797FDA095BA2FB7FF42
:103D300007C0B095A095909581959F4FAF4FBF4F0D
:103D40008D329140A105B1052CF48091ED048823BA
:103D500009F44ECD1092FB044BCD2D96E2E10C946C
:103D600093361F920F920FB60F9211242F933F9309
:103D70004F935F936F937F938F939F93AF93BF9373
:103D8000CF93EF93FF931092E5048091E4048F5F4B
:103D90008093E4040E94CD2B6093E0047093E104CF
:103DA0008093E2049093E30480916A03811118C028
:103DB000CFB780910805882379F080916A038F5FDF
:103DC00080936A0378940E945108109208058091AC
:103DD0006A03815080936A03789480E037DACFBF1A
:103DE000FF91EF91CF91BF91AF919F918F917F9173
:103DF0006F915F914F913F912F910F900FBE0F9058
:103E00001F901895CF92DF92EF92FF920E94D92BCC
:103E10006B017C0183E00E94A62C813049F4C092A2
:103E2000D704D092D804E092D904F092DA041FC0EB
:103E30008091D7049091D804A091D904B091DA046C
:103E40000097A105B10599F0C81AD90AEA0AFB0A38
:103E5000D092DC04C092DB041092D7041092D804F4
:103E60001092D9041092DA0481E08093DD04FF906F
:103E7000EF90DF90CF90089566E970E080E090E0E9
:103E80000C94FC2B1F920F920FB60F9211242F93BC
:103E90003F934F935F936F937F938F939F93AF93D2
:103EA000BF93EF93FF93AEDFFF91EF91BF91AF917F
:103EB0009F918F917F916F915F914F913F912F9142
:103EC0000F900FBE0F901F90189565E085E00E943F
:103ED000150865E271E08AE894E00E94C52E0E9410
:103EE000CD2B4AE050E08AE894E00E94FE2D8091BC
:103EF00019068F3421F480911A068A3171F061E03D
:103F000081E00E9415086091190670E088E091E058
:103F10000E94CE0981E0809300050E945108ACCF39
:103F2000CF9388E10FB6F894809360001092600000
:103F30000FBE60E071EE80E090E00E94332E4CE412
:103F400050E060E072E08FEF95E00E9449098091B7
:103F5000FF0581FF03C08FEC99E002C082EE99E07B
:103F60009093C9058093C80584B58C7F84BD83E098
:103F70000E94192D0E948A10809169008C7F8260B6
:103F800080936900E89A80910406813059F462E0D8
:103F900083E00E944F2C80916900837F846080932E
:103FA0006900E99A5E9A0E945108789480911B06F4
:103FB000883341F480911C06883321F480911D06DA
:103FC000883379F088E380931B0680931C068093E6
:103FD0001D0643E050E06CE172E08BE196E00E9448
:103FE000010B80914406882341F1E0914506EE23C0
:103FF00021F1F0E0ED5FFE4FC49161E08C2F0E9453
:104000004F2C60E08C2F0E94882C8C2F90E0FC01BC
:10401000E35EF54F2491FC01E75FF54F84918093B7
:10402000D604E22FF0E0EE0FFF1FE55CF54F85911F
:1040300094919093D5048093D4040E94FC0745DFAB
:104040000E947C14CF910895E0910301EF5FE0930B
:104050000301E770F0E0EE0FFF1FEA5BFC4F918376
:10406000808328E060E070E02150E22FF0E0EE0F66
:10407000FF1FEA5BFC4F80819181680F791F21113E
:10408000F3CF80E090E00E94C53320E030E040E0D4
:104090005EE30C94E03497FD05C08F3F910509F075
:1040A0001CF4089580E008958FEF0895CF92DF9279
:1040B000EF92FF92CF93DF938091FF0584FD05C0BF
:1040C0008091C804882309F4A0C0C0910201CF5F89
:1040D000C093020180E10E941C2DC770EC2FF0E01C
:1040E000EE0FFF1FEA5CFC4F9183808328E0C0E065
:1040F000D0E02150E22FF0E0EE0FFF1FEA5CFC4F12
:1041000080819181C80FD91F2111F3CF2091CC0458
:104110003091CD0447E0429FC001439F900D112490
:104120008C0F9D1F23E0969587952A95E1F7909334
:10413000CD048093CC048091FF0584FF66C029E5FF
:104140003EEE49E050E46091210670912206809194
:104150002306909124060E94E0346B017C01BE018D
:1041600080E090E00E94C5339B01AC01C701B6011D
:104170000E94E0340E9499334091C6055091C705D2
:104180004115510529F47093C7056093C60511C008
:104190009A01220F331F240F351F2E5F3F4F260F2A
:1041A000371F36952795369527953093C705209369
:1041B000C60581E08093E60430910806832F61E212
:1041C0000E94E435E82F8091C6059091C705C296FC
:1041D00064E670E00E94FD35432F50E0641B750BD0
:1041E0009B01AFEFB0E00E946836FAE2EF9F9001CA
:1041F0001124241B350B442737FD4095542F0E9472
:104200004636C90148DF8093C1058091FF0585FFCF
:1042100004C080910105811105C08091C9048823E3
:1042200009F49DC0C0910101CF5FC09301018EE0F0
:104230000E941C2DC770EC2FF0E0EE0FFF1FEA5D0F
:10424000FC4F9183808328E0C0E0D0E02150E22F32
:10425000F0E0EE0FFF1FEA5DFC4F80819181C80FF7
:10426000D91F2111F3CF2091CE043091CF0447E024
:10427000429FC001439F900D11248C0F9D1FA3E00E
:1042800096958795AA95E1F79093CF048093CE04F5
:104290008091FF0585FF63C029EA3CEC48E050E4CB
:1042A0006091250670912606809127069091280638
:1042B0000E94E0346B017C01BE0180E090E00E942E
:1042C000C5339B01AC01C701B6010E94E0340E94D6
:1042D00099334091C4055091C5054115510529F404
:1042E0007093C5056093C40511C09A01220F331F56
:1042F000240F351F2E5F3F4F260F371F369527950A
:10430000369527953093C5052093C4053091410615
:10431000832F61E20E94E435E82F8091C4059091DB
:10432000C505C29664E670E00E94FD35432F50E05B
:10433000641B750B9B01AFEFB0E00E946836FAE298
:10434000EF9F90011124241B350B442737FD409526
:10435000542F0E944636C9019EDE8093C00580918D
:10436000FF0586FD05C08091CA04882309F481C039
:104370008091C604882351F020E137E240E050E00C
:1043800061E08FE00E94ED2CCB0103C08FE00E9422
:104390001C2DE0910001EF5FE0930001E770F0E079
:1043A000EE0FFF1FEA5EFC4F9183808328E0C0E0A0
:1043B000D0E02150E22FF0E0EE0FFF1FEA5EFC4F4D
:1043C00080819181C80FD91F2111F3CF2091D00492
:1043D0003091D10447E0429FC001439F900D1124CA
:1043E0008C0F9D1F23E0969587952A95E1F7909372
:1043F000D1048093D0048091FF0586FF3AC02DE060
:1044000032E348EC5CE36091290670912A068091C2
:104410002B0690912C060E94E0346B017C01BE01BA
:1044200080E090E00E94C5339B01AC01C701B6015A
:104430000E94E0340E9499334091C2055091C30517
:104440004115510529F47093C3056093C20511C04D
:104450009A01220F331F240F351F2E5F3F4F260F67
:10446000371F36952795369527953093C3052093AA
:10447000C20580910D068695813041F048F1823069
:1044800049F0833049F58091460524C081E10E94BE
:104490001C2D09C020E23EE440E050E061E081E1F3
:1044A0000E94ED2CCB01D0DD20912D0630912E06FF
:1044B00040912F06509130060E94E0340E949933BB
:1044C000709345056093440581E08093E60439C00C
:1044D0008091470590E004C08091D8059091D9055E
:1044E000B3DD0E9499337093450560934405809134
:1044F000CB04882331F18091C704882349F020E15F
:1045000037E240E050E061E081E10E94ED2C04C020
:1045100081E10E941C2DBC018091D2049091D304B2
:1045200047E0489F9001499F300D1124260F371F07
:10453000C3E036952795CA95E1F73093D3042093CD
:10454000D204DF91CF91FF90EF90DF90CF9008954C
:104550008AE894E00E94560786E894E00C942B2E9B
:10456000A0E0B0E0E6EBF2E20C9480368C016CE364
:1045700086E894E00E94B72EEBE0F9E0E491780140
:1045800086EFE81A8EEFF80AD701EC93F801D18094
:10459000DA94B02EC02FD12F87018C2F8B198D1557
:1045A00080F4C9906C2D86E894E00E94B72ED70164
:1045B000EC91EC25F0E0E153F74FE491D801EC9356
:1045C000ECCFF701608186E894E00E94B72ECDB76A
:1045D000DEB7E9E00C949C36609377032AE030E084
:1045E000309379032093780390E0A0E0B0E08093CB
:1045F0007A0390937B03A0937C03B0937D0387E7BA
:1046000093E0AECF82E2809377038FE290E09093C5
:104610007903809378038AE09CEDA1EDBAEC809356
:104620007A0390937B03A0937C03B0937D03E2E82D
:10463000F3E0119283E0E73AF807D9F7809172032B
:104640008093A60387E793E08BDF0E94CD2B6093D6
:1046500073037093740380937503909376030895A6
:10466000A0E0B0E0E6E3F3E20C947F36AA24A39442
:1046700053E0B52ECAE0D0E00E94732E882309F4DF
:1046800000C40E94822E182F00918204402F50E017
:104690004930510508F0C1C0FA01EC5CFF4F0C94A1
:1046A0006236109379032091780330917903409119
:1046B0008404509185042417350738F51C3311F014
:1046C00001E0ABC0109281048CE30E944719D093A3
:1046D0008504C093840402E0A0C00E944719812F82
:1046E000887F803259F7109377031092830403E098
:1046F00094C00E944719809183048F5F8093830444
:10470000823078F61093780388C041505F4F42178B
:104710005307A0F21092830404E07FC00E9447195F
:10472000E0918304EF5FE0938304E13008F475C007
:10473000E43048F0E43009F070C010937D0310922B
:10474000830405E06AC0F0E0E758FC4F108365C0C1
:104750000E944719809183048F5F80938304813086
:1047600019F0823021F059C010937E0356C0109387
:104770007F03209178033091790380918404909194
:1047800085042817390741F0009177030095001F31
:104790000027001F0A5F01C008E0109283043DC09B
:1047A0000E944719809183048F5F80938304813036
:1047B00041F0823091F5109381031092830407E059
:1047C0002CC01093800329C00E944719E0918304F4
:1047D00021E02E0F20938304F0E0E958FC4F13876B
:1047E00030E0809178039091790340918404509156
:1047F0008504841B950B2817390778F010928304E1
:1048000008E00BC080918104181358CFA092820455
:1048100080917803811104C031C3009382042EC3B8
:104820000E94FA1880917A0390917B03A0917C03F7
:10483000B0917D03863E26EA920726E2A2072DE785
:10484000B20709F401C208F082C08C3921EB92074B
:1048500025EAA2072EE1B20709F4E9C2E0F588399A
:104860002CE292072AE1A20726E1B20709F44CC123
:10487000C8F4843524E7920725ECA2072BE0B207A1
:1048800009F43EC284302AE9920727EDA2072EE000
:10489000B20709F42CC186319A4AA743BB4009F0FC
:1048A000E1C225C184372BEE92072AE7A2072BE14C
:1048B000B20709F41CC1823D22EC920722E8A2074C
:1048C0002EE1B20709F420C18E3C9844A745BA41B5
:1048D00009F0C8C2B9C18A392FE592072DE8A207AD
:1048E00023E4B20709F4A8C2C8F4823029E292078F
:1048F0002EE7A2072FE2B20709F4AAC0863E25EDF3
:1049000092072AEDA20723E3B20709F4B3C0823568
:104910009342A649B64209F0A5C204C2823E25E5EB
:1049200092072CE9A20726E6B20709F47BC28A3572
:104930002BEB920727E3A20727E6B20709F488C00A
:10494000863A9E40A241B84409F08CC22DC2803202
:104950002EE4920729EAA20721EBB20709F462C20A
:10496000E0F582352AEE920720E8A2072AE8B2078E
:1049700009F4BDC0C8F4803320E2920721E9A20700
:1049800024E8B20709F4FFC1843E2CE2920725E037
:10499000A20726E8B20709F4AAC080389C4DA544B6
:1049A000B24809F05FC2ACC18E3722E192072AE615
:1049B000A2072BE9B20709F49AC08A3726EF9207BB
:1049C00021EFA2072DE9B20709F43EC18A369E42C3
:1049D000A246B94909F046C2E7C184352DE29207E3
:1049E0002FEFA20725ECB20709F481C0C8F48A3B77
:1049F00024E8920725E2A2072EEBB20709F412C2BF
:104A0000803824E7920720E1A20724ECB20709F4DA
:104A1000C9C08A38974FA74CB84B09F023C274C05D
:104A2000843629ED920720EEA20727EDB20711F197
:104A3000863B23E2920723EAA20722EEB20709F49B
:104A400003C186399543A840B24D09F46BC10AC22F
:104A50008091A603823039F0833049F0811102C27F
:104A6000A092720302C0B0927203CCDDFBC18093AE
:104A70007203F8C160919203709193038091940343
:104A8000909195030E94943370936D0560936C052B
:104A90006091960370919703809198039091990388
:104AA0000E94943370936B0560936A0560919A033A
:104AB00070919B0380919C0390919D030E9494337D
:104AC00070936F0560936E05C0908905D0908A053C
:104AD000E0908B05F0908C05C114D104E104F10441
:104AE00009F0C0C17093690560936805BBC181E09E
:104AF00090918203911101C080E08093ED04809138
:104B000083038093B605AEC16091820370918303E5
:104B100080918403909185030E945119893C18F477
:104B200080935B0502C010925B0580919C0390917D
:104B30009D039093CF058093CE0580919E03909125
:104B40009F039093CB058093CA058091A003909119
:104B5000A1039093CD058093CC058091A203909101
:104B6000A3039093D1058093D0058091A4039091E5
:104B7000A5039093D3058093D2058091A6039091CD
:104B8000A7039093D5058093D4058091A8039091B5
:104B9000A9039093D7058093D6058091AA0390919D
:104BA000AB034DC0609182037091830380918403B5
:104BB000909185030E945119893C18F480935B05FC
:104BC00002C010925B0580919A0390919B03909391
:104BD000CF058093CE0580919C0390919D03909387
:104BE000CB058093CA0580919E0390919F0390937B
:104BF000CD058093CC058091A0039091A103909363
:104C0000D1058093D0058091A2039091A303909346
:104C1000D3058093D2058091A4039091A50390932E
:104C2000D5058093D4058091A6039091A703909316
:104C3000D7058093D6058091A8039091A9039093FE
:104C4000D9058093D8050EC140918203509183030A
:104C5000609184037091850389E895E00E94E618CD
:104C60004091860350918703609188037091890376
:104C70008DE895E00E94E6188091A703809388054F
:104C8000F090A603F09287056091920370919303D0
:104C900080919403909195030E94943370936905D9
:104CA000609368058091960390919703A091980373
:104CB000B091990380935C0590935D05A0935E0588
:104CC000B0935F05FF2049F060918A0370918B03D8
:104CD00080918C0390918D0308C060916405709160
:104CE000650580916605909167050E945B19609348
:104CF0009105709392058093930590939405B2C0AB
:104D000080918A0390918B03A0918C03B0918D03C5
:104D1000B0588093950590939605A0939705B0930E
:104D20009805A0C0F090FF05F4FC0EC060918203CE
:104D30007091830380918403909185030E945B1995
:104D40007093C7056093C605F6FC0EC0609186039C
:104D50007091870380918803909189030E94511973
:104D60009093C3058093C20560919A0370919B0351
:104D700080919C0390919D030E9494337093B80599
:104D80006093B7056FC08091820390918303A091D7
:104D90008403B09185038093660390936703A09387
:104DA0006803B09369035EC06091820370918303CE
:104DB00080918403909185030E9494336B01EE24CB
:104DC000D7FCE094FE2CC701B6010E94C733609364
:104DD00064057093650580936605909367056091FF
:104DE00086037091870380918803909189030E94C4
:104DF00051199093BA058093B905809191059091CE
:104E00009205A0919305B0919405892B8A2B8B2B49
:104E100049F5C0929105D0929205E0929305F092E7
:104E2000940520C08091E203809347051BC08091C8
:104E300082038093E80516C080919603882391F041
:104E400060918E0370918F03882777FD8095982F4E
:104E50000E94C7336093600570936105809362057B
:104E60009093630580917703823221F463E280910D
:104E70007A03B2DB0E941C19811121C00E9416190D
:104E8000FBCB8BD4613177428105910510F01092F4
:104E90007203C0907303D0907403E0907503F09098
:104EA000760388EEC80E83E0D81EE11CF11C75D491
:104EB000C616D706E806F90620F4A4DB02C081E096
:104EC00001C080E0CDB7DEB7EAE00C949B36A4E0E9
:104ED000B0E0EDE6F7E20C947936A8955ED46B016C
:104EE0007C0128EE33E040E050E00E94243630930D
:104EF0005A05209359052CEDC21625E0D206E1048F
:104F0000F10428F080910005882309F480C0EBD6D5
:104F1000882309F479C0F6D68A3031F480914105AE
:104F20008F5F8093410502C0109241058091410539
:104F3000843068F38CB583608CBD6FEF70E086E8D9
:104F400094E023D7B12C812C912CC12CD12C09EFCA
:104F500010E056E8E52E54E0F52E8FEF8816910408
:104F600011F00CF04BC0BFD68823E9F3CBD68233C7
:104F700038F48033D8F48A30B1F38D3039F023C05F
:104F8000823709F551E0851A91081DC038E0C31237
:104F900019C0ED2DF0E0E958FC4F8081B826D3947C
:104FA000ED2DF0E0E958FC4F10820CC0ED2DF0E043
:104FB000E958FC4F9081990F813309F49F5F9083EA
:104FC000C39401C0C12C60E4D612C7CF67E773E079
:104FD000C4010E9475087FEF871A970A1F92BF923B
:104FE0001F930F93FF92EF92F4D60F900F900F90B4
:104FF0000F900F900F90B12CD12CAFCF65EF70E0D8
:1050000086E894E0C2D67BC30E94651F78C378947B
:1050100047E7442E43E0542E10E48091E8048111C8
:1050200008C08091E904811104C08091F2048823B2
:1050300059F016DB8091E8048093E9048091E6043E
:10504000882309F4C6C186C0F201212F11922A9546
:10505000E9F746D6A2D34B015C0134E6830E911CDE
:10506000A11CB11C3AEF732E0FEF97D3861697064B
:10507000A806B906A0F024EC39E040E050E060E07A
:1050800080E0ABD46F3F71058105910509F02CF4E8
:10509000662319F0601708F4062F7A9431F70F3F52
:1050A00019F40091040102C0009304010B3090F048
:1050B0000331C0F00D31E8F0083210F10C3340F14B
:1050C000063968F580E220E8822E25E2922EA12C96
:1050D000B12C2CC082E0812C92EC992EAA24A394AE
:1050E000B12C24C084E0812CB1EE9B2EA12CB12CDC
:1050F0001DC086E0812CA6E99A2EA12CB12C16C0E9
:1051000088E0F0E88F2EF0E79F2EA12CB12C0EC086
:1051100080E1812CEBE49E2EA12CB12C07C080E411
:1051200070EC872E72E1972EA12CB12C8093FD0597
:105130008092040590920505A0920605B09207059D
:1051400086E894E07FD5C501B4018DD581E08093D8
:10515000E90463CF0091500540910406433008F400
:105160002DC1433029F48091DB049091DC0411C0FF
:105170008BEF840F843048F4E42FF0E0EE0FFF1F34
:10518000E853FA4F8081918104C08091D8059091B5
:10519000D9059C01285E3340213D374008F00EC1FF
:1051A000443049F58091B6059AEF980F923008F493
:1051B00087C09091A105981789F08093A10560E0C0
:1051C00070E08DE995E00E9435119091A1058091E4
:1051D0000601981303C081E08093EA048DE995E00D
:1051E0000E946014813D974008F46AC08091B60522
:1051F0008093060165C020910906211119C06091B4
:1052000046068D3474E0970760F09C012C543440BE
:1052100070E080E293E00E941136C9010E94FD35E2
:1052200001C060E0061709F44BC06093500548C008
:105230005091FF0552FF14C02091B2043091B30485
:105240002115310539F0FC01E21BF30B41E0E93C8B
:10525000F10508F440E09093B3048093B20405C0D4
:1052600041E08D3D954008F440E050FF10C04423DC
:1052700021F081E08093EB0423C08091EB0488232C
:1052800019F081E08093EA041092EB0419C04423E2
:10529000B9F080909D0590909E05A0909F05B090DC
:1052A000A0057BD286169706A806B90648F481E0C9
:1052B0008093EA0464EF71E08DE995E00E94351176
:1052C0008091EA04882371F01092EA0480915005DD
:1052D0008F5F8093500590914606981718F51092AD
:1052E000500520C08091FF0587FF1CC08091B40449
:1052F0009091B504A091B604B091B7040097A105B0
:10530000B10581F04091590550915A0560E070E077
:1053100084179507A607B70728F481E08093FC045B
:105320008093EA04B09050050B1509F447C00E9421
:105330007C148091FF051091FC0487FF09C01123A4
:1053400039F080914606882319F0B81609F4BCCFCD
:105350008B2D0E946D14882399F04091590550912E
:105360005A05480F511D60E070E04093B40450931B
:10537000B5046093B6047093B70411111DC00AC040
:105380001111A2CF1092B4041092B5041092B60479
:105390001092B704ADE0B5E0ECEEF0E084918D93AF
:1053A00031968111FBCF809114058B0D80931405EC
:1053B00063E088E00E9443141092FC048091E704AB
:1053C000811105C081E08093E7048093E504109289
:1053D000E6048091E704882309F4C7C08091E504BE
:1053E0008111C3C01092E70420918705222319F090
:1053F00081E08093F80480910306882309F445C175
:105400009091ED048091EF04992309F464C180FD2B
:105410000DC01092F40481608093EF041092A605F1
:105420001092A7051092A8051092A9058091F40486
:10543000882309F440C18091F404882309F48CC0C6
:105440008090790590907A05A0907B05B0907C05BE
:10545000C501B4019F7725E33AEF4EE85CE30E9473
:10546000E0340E9429332B013C01209189053091C1
:105470008A0540918B0550918C05C501B4010E94AD
:105480001C0B4B015C0120918D0530918E054091E4
:105490008F055091900560917D0570917E058091FA
:1054A0007F05909180050E941C0BA30192010E9430
:1054B000E0342B013C019B01AC010E94E034698384
:1054C0007A838B839C83A5019401C501B4010E945A
:1054D000E0349B01AC0169817A818B819C81EFD79B
:1054E0000E9447350E94943360937505709376054A
:1054F0008093770590937805C501B4019F770E944A
:1055000094337093730560937205C301B2019F7762
:105510000E9494337093710560937005A30192010A
:105520005058C501B4010E94D23220EE3EE245E659
:1055300052E40E94E0340E949433CB018A559109D1
:105540002091680530916905821B930B0E945414C9
:105550000E94A214809374050E948517C701B601AA
:105560000E94531B81E0809308058091B2059091C1
:10557000B305A091B405B091B5058C159D05AE0598
:10558000BF05A8F464E170E082EB95E00E944A1147
:1055900080910805882359F08091E504882339F02B
:1055A00080EE94E00E946014C39708F0A1C080913F
:1055B000AE059091AF05A091B005B091B1058C15E5
:1055C0009D05AE05BF0530F564E670E08EEA95E016
:1055D0000E944A110E9456208091F60491E089278A
:1055E0008093F6048823B1F080910305882369F045
:1055F0008F5F80930305833068F0809151058F5F42
:10560000809351051092030505C0809151058F5F6D
:10561000809351058091AA059091AB05A091AC05AE
:10562000B091AD058C159D05AE05BF0508F067C0AE
:1056300064EF71E08AEA95E00E944A1181E080936C
:10564000E6048093F504909152059F5F9093520574
:105650009091F20498279093F204992309F44FC093
:105660008093EC048091E404853050F48091FE0531
:105670008F5F8093FE05843028F00E94F60702C0F9
:105680001092FE051092E4043AC080915B058333CA
:1056900008F4B6CE8091090190910A0180379E4F9F
:1056A00009F0AECE809168059091690590930A014A
:1056B00080930901A5CE233008F4BDCE8CE0E9E843
:1056C000F5E0A9E7B5E001900D928A95E1F781E058
:1056D0008093F404B0CE80FFA9CE90910205992367
:1056E00009F4A4CE1092F4048E7F8093EF049ECE32
:1056F0001092E5040E9451081092080558CF249694
:10570000E0E10C9495361F920F920FB60F92112480
:105710002F933F938F939F93AF93BF9380914C06AA
:1057200090914D06A0914E06B0914F0630914B06D8
:1057300023E0230F2D3720F40196A11DB11D05C0D4
:1057400026E8230F0296A11DB11D20934B068093DE
:105750004C0690934D06A0934E06B0934F06809151
:10576000500690915106A0915206B09153060196B1
:10577000A11DB11D8093500690935106A09352062F
:10578000B0935306BF91AF919F918F913F912F910D
:105790000F900FBE0F901F9018952FB7F89460913F
:1057A0004C0670914D0680914E0690914F062FBF8A
:1057B00008953FB7F8948091500690915106A091BA
:1057C0005206B091530626B5A89B05C02F3F19F08D
:1057D0000196A11DB11D3FBF6627782F892F9A2FF3
:1057E000620F711D811D911D42E0660F771F881F9A
:1057F000991F4A95D1F70895CF92DF92EF92FF92C9
:10580000CF93DF936B017C01D4DFEB01C114D10492
:10581000E104F10479F0E0D0CCDF6C1B7D0B683E35
:105820007340A0F381E0C81AD108E108F108C8511B
:10583000DC4FECCFDF91CF91FF90EF90DF90CF90D6
:1058400008958230910538F0880F991F880F991FAD
:1058500005970197F1F70895789484B5826084BD27
:1058600084B5816084BD85B5826085BD85B5816064
:1058700085BDEEE6F0E0808181608083EAE7F0E0BC
:105880008081846080838081826080838081816068
:1058900080838081806880831092C1000895CF93B7
:1058A000DF9390E0FC01E75FF54F2491FC01E35E9C
:1058B000F54F8491882349F190E0880F991FFC01EE
:1058C000EB5BF54FA591B491855C954FFC01C591BB
:1058D000D4919FB7611108C0F8948C9120958223D0
:1058E0008C93888182230AC0623051F4F8948C91A1
:1058F000322F309583238C938881822B888304C038
:10590000F8948C91822B8C939FBFDF91CF91089557
:1059100090E0FC01E75FF54F2491FC01E35EF54F59
:10592000E491EE2391F0F0E0EE0FFF1FE55CF54F00
:10593000A591B4919FB7F8948C91611103C0209503
:10594000822301C0822B8C939FBF089590E0FC01BD
:10595000EB50F64F2491FC01E75FF54F3491FC01C9
:10596000E35EF54F84918823A9F1222339F1233096
:1059700091F038F42130A9F0223001F594B59F7DE3
:1059800012C0273091F02830A1F02430B9F4909162
:1059900080009F7D03C0909180009F77909380004E
:1059A0000DC094B59F7794BD09C09091B0009F77CA
:1059B00003C09091B0009F7D9093B000E82FF0E07D
:1059C000EE0FFF1FEF5CF54FA591B4919C919323CF
:1059D00081E009F480E0089508950F931F93762FD6
:1059E00090E0FC01E75FF54F6491FC01E35EF54F49
:1059F000E4917111762FF0E0EE0FFF1FEF5CF54F91
:105A00008591949189019A013F70472F0E94D40596
:105A1000611571058105910531F06F5F7F4F8F4FE3
:105A20009F4F9F7003C060E070E0CB011F910F910A
:105A3000089580930B0108958E3008F08E50877082
:105A400020910B0190E4299F90011124822B8093D7
:105A50007C0080917A00806480937A0080917A0043
:105A600086FDFCCF809178002091790090E0922B08
:105A70000895A0E0B0E0EFE3FDE20C9481367C01F4
:105A80006A01EB0100E010E00C151D0571F0699151
:105A9000D701ED91FC910190F081E02DC7010995AE
:105AA000892B19F00F5F1F4FEFCFC801CDB7DEB7BD
:105AB000E8E00C949D366115710589F0DB010D90CD
:105AC0000020E9F7AD0141505109461B570BDC019D
:105AD000ED91FC910280F381E02D0995089580E01D
