:100000004CC500000C94611E0C94071F6EC50000C7
:100010006CC500006AC5000068C5000066C5000028
:1000200064C5000062C5000060C500005EC5000038
:100030005CC500005AC5000058C5000056C5000048
:100040000C94D32552C500000C94700F0C94960F9D
:100050004CC500004AC5000048C5000046C5000068
:1000600044C5000042C50000B617C5171C191C196D
:100070001C19EB17F4173D18541867188E18B81888
:10008000C2181C191C191C191C191C191C19CC1874
:10009000084AD73B3BCE016E84BCBFFDC12F3D6CEF
:1000A00074319ABD56833DDA3D00C77F11BED9E455
:1000B000BB4C3E916BAAAABE000000803F05A84C35
:1000C000CDB2D44EB93836A9020C50B99186880801
:1000D0003CA6AAAA2ABE000000803F0664EC1B3C96
:1000E00004BC163E3BE5B93CC93C37C29E5A3D664E
:1000F0000498083EEA69AAAA3E000000803F030275
:10010000010053637265656E20300046440A004367
:100110004425640A005246460A004D697373696EAD
:10012000672F4F6C6420436F6E6669673A202564C1
:10013000206D79203739004D696E696D4F53442D1C
:10014000457874726120322E347C756E6920722578
:10015000642044567C00100E0F1120284E54534347
:100160002900202850414C290025372E32660025D1
:10017000362E3166009125372E326600A125372EA6
:1001800032660069010B685D05006F018F683505F7
:10019000006F0114735505006F011D734D05006F4D
:1001A000011268510500750190764505007C01A09B
:1001B000764105006F01BD614905000000000000A7
:1001C00000004E6F20696E70757420646174612147
:1001D0002025757C00B8B900253469050700253451
:1001E0006905060025352E32660D00253269006F3F
:1001F0007665726C6F61640053747265616D006640
:10020000726F7A656E0025342E3066010025322E1D
:100210003066252500256325638E25342E30660142
:1002200000256325638E25322E3066252500253472
:100230006905007C20CECECECE60CECECECE2000C4
:1002400040CB242020207C007C20202024CB008256
:100250008081808180848081808180838081808191
:100260008085808180818020C8C8C8C87EC8C8C8F1
:10027000C8207C0020202024CBB8B9CB242020200B
:100280007C00253369050020586525342E30660032
:1002900025342E306600253269200025352E306643
:1002A0000025332E306925250025352E32660E00B7
:1002B00025332E30660025322E3066002520352E5F
:1002C000316618002520352E326618005225332E4F
:1002D000306605005025332E306605004825332E44
:1002E000306605004225352E316605004525352E40
:1002F0003166004525342E30666D00734525352E58
:10030000316600CC026E692F0500D4026E692D059E
:1003100000DC026E692B0500E4025469290500EC3B
:10032000024168250500F30258691B0500FB0241E4
:10033000732105000000000000000025336900253E
:1003400030326900202090910025352E316600431F
:1003500025642535697C0025342E31660025342E30
:10036000326600432569200025690025346400B009
:10037000B1B4B5B6B77B7D1562190001560B00020A
:100380004F0B00035E14BC8447142605A60D00071E
:10039000CD0D0018850E00065E150008ED0C000955
:1003A000551900257212000BD6100B0A600C0019AB
:1003B000150F000DF0145C111F141116FE1012120F
:1003C000C4121417D21213134A0B02141F0B7F0FFF
:1003D000780BBD1B9B141D1C210F151D6F12000EE9
:1003E000180B091E20130021AC0B00209B0C0022CF
:1003F000CD108F24E1121F2B720B1F2C1E10002D0D
:10040000F80F002FDB0F00A7820E00A87F0E00A9B7
:100410007C0E00AA790E001F680C0026490D009A78
:1004200010110000000000FF040C0000B904055C7E
:100430000A3B0409C00A0000000000EC05000000AF
:10044000000000000000000000E3057301800200CE
:1004500000B305C0E0401FDA05730184020000B359
:10046000059CFF6400D105730100000000B305C0C6
:10047000E0401FDA05730100000000B3059CFF6433
:1004800000C305730100000000B305C0E0401FDA9F
:1004900005730100000000B3059CFF6400B80573FC
:1004A0000100000000B305C0E0401FDA0573010041
:1004B000000000B3059CFF640031066800000000E6
:1004C000000000000000001706660190050000B360
:1004D00005FCFF04002406660194050000B305FC3A
:1004E000FF0400FB05660198050000B305FCFF044E
:1004F00000090666019C050000B305FCFF0400E44A
:1005000006000000000000000000000000D40662A9
:100510000A67050000AC050000FF00C506620AA0DE
:10052000050000AC050000FF00B70662016605008B
:1005300000A7050000FF00A506620165050000A7F1
:10054000050000FF00940662016D050000A705008C
:1005500000FF00870662016E050000A7050000FF8E
:1005600000770600000000000000000000000069A5
:10057000066201A5050000A70501000400600662EF
:10058000016405DB08A7050000030050065A01A21C
:1005900005DB08A705E1FF1F0042067A01A105DB84
:1005A00008A705F1FF0F00252E30660025332E31F8
:1005B000667600252E33660034202852535349298D
:1005C000204B0033202843757272656E7429204BCE
:1005D00000322028563229204B00202020202020C5
:1005E000204100312028563129204B002020205066
:1005F000696E2053656E736F727300526F6C6C205E
:1006000020696E204E54534300506974636820691A
:100610006E204E54534300526F6C6C2020696E2044
:1006200050414C00506974636820696E2050414C01
:10063000002020486F72697A6F6E20616E676C656A
:100640007300566572746963616C206F666673002F
:10065000486F72697A6F6E74616C206F66667300A2
:10066000436F6E74726173740053637265656E7369
:1006700020436F756E7400202053637265656E2091
:10068000706172616D730052535349207761726ECD
:10069000696E6700426174742063686172676520E7
:1006A0007761726E004F766572737065656420774E
:1006B00061726E696E67005374616C6C2077617251
:1006C0006E696E6700426174742032207761726EC9
:1006D000696E670042617474657279207761726E29
:1006E000696E67002020204F534420736574757035
:1006F00000DA070207FD06D507C207B807686F7260
:100700006900616E676C00696E6974005C07BD0703
:10071000DF075707DA0752074D0748074307A407C3
:10072000D007C207C607A407A407CB0707073E07E1
:1007300039073407716C6F690071686F76007173E7
:100740007462006174756E006372757A0066627718
:100750006200666277610074726169006D616E7536
:1007600000DF07DA07D507D007CB07C607C207BDEA
:1007700007B807B307AE07A907A4079F079A07950D
:100780000790078C078707746872770062726B00A6
:10079000686F6C640074756E6500666C69700073D8
:1007A000707274006D5F25640064726966006F6624
:1007B0006C6F006C616E6400706F736800636972C7
:1007C000630072746C006C6F697400677569640013
:1007D0006175746F00616C7468006163726F00739F
:1007E00074616200210814080308F4075B084E08CE
:1007F0003F0830080325392E356625630425392E38
:10080000356600032531302E3666256304253130E8
:100810002E36660025392E3566256325392E356638
:10082000002531302E366625632531302E366600A0
:10083000032530356C642563042530356C64000372
:100840002530366C642563042530366C6400253011
:10085000356C6425632530356C64002530366C6456
:1008600025632530366C6400E608DC08D008C30830
:10087000B708AA089E08930887087C0846656E6337
:100880006520466172210046656E63652048696790
:1008900068210046656E6365204C6F7721004261D8
:1008A00074742042206C6F77210048696768205675
:1008B0005370656564210020204C6F77205273735C
:1008C00069210042617474657279204C6F77210050
:1008D000204F766572537065656421002020205397
:1008E00074616C6C2100204E6F2047505320666964
:1008F0007821000001F1030102F5030203F903036B
:1009000004FD03050001040A0605040B070904138E
:10091000000D0452B80E4085EB51401966BB001221
:10092000800C1CA0141E666666400000803F100C00
:10093000BA000A00001BE8031A00000008000201C8
:100940000000030407000000000000000001020492
:100950000810204080010204081020010204081041
:100960002004040404040404040202020202020338
:1009700003030303030000000023002600290000F6
:10098000000000250028002B0000000000240027A4
:10099000002A006E616E00696E660000407A10F3F6
:1009A0005A00A0724E18090010A5D4E80000E8769D
:1009B00048170000E40B54020000CA9A3B000000F4
:1009C000E1F505000080969800000040420F00000D
:1009D00000A08601000000102700000000E80300CE
:1009E0000000006400000000000A00000000000198
:1009F00000000000002C76D888DC674F0823DFC198
:100A0000DFAE59E1B1B796E5E3E453C63AE6519952
:100A10007696E8E6C28426EB898C9B62ED407C6F7B
:100A2000FCEFBC9C9F40F2BAA56FA5F490055A2A32
:100A3000F75C936B6CF9676DC11BFCE0E40D47FE3E
:100A4000F520E6B500D0ED902E0300943577050033
:100A500080841E080000204E0A000000C80C3333BA
:100A600033330F986E12831141EF8D2114893BE6C9
:100A70005516CFFEE6DB18D1844B381BF77C1D9052
:100A80001DA4BBE424203284725E228100C9F124BB
:100A9000ECA1E53D27005C08402211241FBECFEFEA
:100AA000D8E0DEBFCDBF11E0A0E0B1E0ECE7F1E6B9
:100AB00002C005900D92A033B107D9F726E0A0E35C
:100AC000B1E001C01D92AD33B207E1F715E0CDE40E
:100AD000D5E004C02197FE010E945A30CB34D107E3
:100AE000C9F70E941C280C94542C8ACACF92DF921A
:100AF000EF92FF920F931F93E82FF92F05C001503B
:100B000011092109310961F1908196239417B9F3F4
:100B100005C0015011092109310911F19081962375
:100B20009413F7CFC12CD12CE12CF12C0AC08FEFFC
:100B3000C81AD80AE80AF80A0C151D052E053F0543
:100B400079F080818623841791F36C2D7D2D8E2D75
:100B50009F2D1F910F91FF90EF90DF90CF90089500
:100B600060E070E080E090E01F910F91FF90EF90C7
:100B7000DF90CF900895FA01AA27283051F1203153
:100B800081F1E8946F936E7F6E5F7F4F8F4F9F4F21
:100B9000AF4FB1E03ED0B4E03CD0670F781F891F63
:100BA0009A1FA11D680F791F8A1F911DA11D6A0F31
:100BB000711D811D911DA11D20D009F468943F91E4
:100BC0002AE0269F11243019305D3193DEF6CF01E3
:100BD0000895462F4770405D4193B3E00FD0C9F7A9
:100BE000F6CF462F4F70405D4A3318F0495D31FD16
:100BF0004052419302D0A9F7EACFB4E0A695979569
:100C0000879577956795BA95C9F70097610571053E
:100C100008959B01AC010A2E069457954795379588
:100C20002795BA95C9F7620F731F841F951FA01DE2
:100C30000895283008F027E03327DA01990F311D95
:100C400087FD916000966105710539F432602E5F71
:100C50003D9330E32A95E1F708959F3F30F08038C7
:100C60007105610509F03C5F3C5F3D93913008F0F0
:100C70008068911DDF93CF931F930F93FF92EF92A4
:100C8000192F987F9695E92F96959695E90FFF274E
:100C9000EB50F64F99273327EE24FF24A701E701F5
:100CA00005900894079428F4360FE71EF81E491F94
:100CB000511D660F771F881F991F0694A1F7059095
:100CC000079428F4E70EF81E491F561FC11D770F21
:100CD000881F991F661F0694A1F70590079428F4B2
:100CE000F80E491F561FC71FD11D880F991F661F79
:100CF000771F0694A1F70590079420F4490F561F1B
:100D0000C71FD81F990F661F771F881F0694A9F762
:100D100084911095177041F0D695C79557954795D2
:100D2000F794E7941A95C1F7EBE9F9E06894159008
:100D3000159135916591959105907FE27395E11834
:100D4000F10A430B560BC90BD009C0F7E10CF11E99
:100D5000431F561FC91FD01D7EF4703311F48A95AE
:100D6000E6CFE894015030F0080F0AF4002702178C
:100D700008F4202F2395022F7A3328F079E37D930E
:100D80002A95E9F710C07D932A9589F606949795E0
:100D90006795379517951794E118F10A430B560B91
:100DA000C90BD00998F023957E9173957A3308F09A
:100DB00070E37C932013B8F77E9170617D9330F0DF
:100DC000839571E37D9370E32A95E1F71124EF9009
:100DD000FF900F911F91CF91DF91992787FD9095FB
:100DE000089580E008950895FC011382128224E1A1
:100DF00031E03183208308958EBD0DB407FEFDCF11
:100E00008EB56EBD0DB407FEFDCF8EB508958EBDB7
:100E10000DB407FEFDCF8EB58FEF8EBD0DB407FE6E
:100E2000FDCF8EB50895882311F080E401C080E0E5
:100E300090911203891749F0809312035E98609194
:100E400012036C6180E0D8DF5E9A08955E9880910D
:100E5000AB0581FD06C08091AA0583FF19C081E022
:100E600018C080EAD4DF80FF06C081E0DCDF80911B
:100E7000AA05886007C081FF08C080E0D4DF8091A8
:100E8000AA05877F8093AA0505C082FDE4CF02C032
:100E900080E0C9DF5E9A0895CF93DF93E091640507
:100EA000E43008F0E0E0F0E0E250FF4FC49180E170
:100EB000D1E0D80F6C2FA0DF8D2FD032C9F7DF9192
:100EC000CF9108955E98E8DF6091A20582E094DFFB
:100ED0006091A10583E090DF5E9A0895CF935E98BC
:100EE0008CEE95DFC82F60911203626080E084DF92
:100EF0000E94DB1E6C2F6F7E8CE67EDF62E18CE051
:100F00007BDF609112036C6380E076DF0E94DB1E62
:100F1000609112036C6180E06FDFD4DFCF910895A0
:100F200061E086E00E94A12662E082E00E94A126A4
:100F30008DDFD4CF209113038091140390E03EE124
:100F4000239F800D911D11249093310180933001D6
:100F500008958F73809314036F70609313038091CF
:100F60001203803411F0673008F4E4CF63506093CB
:100F70001303FBCF8F3F79F0209130013091310185
:100F8000A9014F5F5F4F5093310140933001F90148
:100F9000EE5CFE4F808308958C3731F4809113030B
:100FA0008F5F80931303C6CFE5CF862FF5DF81E0F7
:100FB00090E00895A1E0B0E0E0EEF7E00C947F301F
:100FC0004983C7DF4981842FE7DF2196E2E00C9453
:100FD0009B305E9860E085E00FDF60E086E00CDF2C
:100FE00061E084E009DF5E9AE2E3F1E080E25E988E
:100FF00090819EBD0DB407FEFDCF9EB581935E9A94
:1010000093E0E231F90799F75E988FEF8EBD0DB44A
:1010100007FEFDCF8EB55E9A0895A1E0B0E0E3E152
:10102000F8E00C947B30182FF62E5E9860E080E09C
:101030007983E2DE612F89E0DFDE0F2D7981172FC2
:10104000E12CF801F1908F016E2D8AE0D5DE6F2D35
:101050008BE0D2DEE394F6E3EF12F3CF60EA88E0B0
:10106000CBDE80EAD4DE85FF03C00E943A17F9CFB9
:101070006CE080E0C1DE5E9A2196E6E00C94973049
:101080001CBC8F7280658CBD8DB581608DBD8DB5AA
:101090008EB5089561E08DE00E94A12661E08BE0AD
:1010A0000E94A12660E08CE00E94A12661E08AE017
:1010B0000E94A12680E0E4CF85E193E0EBCFE82F0A
:1010C000F0E0EE0FFF1FE55FFA4F208131816623CC
:1010D00029F040E253E088E998E004C048EE53E08C
:1010E00080ED97E02417350780F0241B350B841B17
:1010F000950B65E070E00E94F52FC9010E94F52F65
:10110000862F653018F084E0089580E00895E0911E
:10111000260435E0E39FF0011124E75DFB4F949135
:1011200091502091050160911C0470911D0487FF6E
:1011300003C0222339F004C0882311F0921721F054
:10114000280F03C0292F01C020E0FB013EE0239FB0
:10115000E00DF11D1124349645915491452B39F33E
:101160002093050181E0809342040895ABE0B5E04F
:10117000EEE1F4E080819181883E934028F48D91E6
:101180009C911197918380833296129684E0E63287
:10119000F80781F7089590E0880F991FDC01A55F9B
:1011A000BA4FFC01E25EFB4F8D919C912081318111
:1011B000821B930B089586CE0895AAE0B0E0E3EE7B
:1011C000F8E00C946F30C82EE62E8091120327EAC7
:1011D00032E94BE25CE38034C9F46091940570918C
:1011E000950580919605909197050E94EE2E4B01F2
:1011F0005C0125E33AEF4EE85CE360919005709165
:101200009105809192059091930518C060919C057D
:1012100070919D0580919E0590919F050E94EE2EF4
:101220004B015C0125E33AEF4EE85CE360919805E1
:101230007091990580919A0590919B050E94EE2EE0
:101240002B013C018091B1049091B2042091AA0538
:1012500027FF03C09195819591098A35910538F052
:101260009C012D543F4F2935310570F4C901873455
:10127000910534F58A31910544F50A9758F118E043
:1012800073EFD72E00ED2AC08B35910514F0835BE8
:10129000910997FF03C09195819591098734910534
:1012A0007CF48A3191053CF40A97A0F018E065EFD0
:1012B000D62E02EE13C017E05BEFD52E0BEE0EC05C
:1012C00010E04DECD42E01EC09C017E038EFD32E1E
:1012D00009ED04C019E02DECD22E06EC6091AF04AC
:1012E0007091B004072E000C880B990B0E94D52D2D
:1012F000A501940150580E94EE2E0E94962F20E0E6
:1013000030E044EB52E40E94EE2E4B015C0120E001
:1013100030E0A9010E94E32E20E030E040E05FE3EE
:1013200087FD0CC0C501B4010E946D2C0E94A22D46
:101330009B01235D3F4F3A8729870BC0C501B4014C
:101340000E946C2C0E94A22DAB01435D5F4F5A8717
:10135000498789859A8597FF05C0885A9F4F9A8744
:10136000898709C029853A852B35310534F0285AFB
:101370003F4F3A87298782E001C080E0FF24F39441
:10138000F80E9CE0899F902D112419822CE030E00A
:101390001901281A310892549A8392E1892E912CCE
:1013A000CA94CB82A12E012E000CBB083AEF3D0D52
:1013B0003C838F2D90E0281639060CF479C0DA8032
:1013C0004981D40E6091B1047091B2048091AA0554
:1013D00087FF03C0719561957109072E000C880B7A
:1013E000990B0E94D52DA30192010E94EE2E0E941E
:1013F000962F9B01AC016D2D0D2C000C770B880BEB
:10140000990B2E833F834D8358870E94D52D2E81C3
:101410003F814D8158850E94EE2E0E94A22D298584
:101420003A85260F371FC90101978A359105D8F5EE
:10143000B4010E9409306B01112399F05EEE56034E
:10144000C001579F900D1124BC01620F731F6F5F85
:101450007F4F77FF02C06F5F7F4F75956795262F8F
:1014600001C020E05E2D5C193B813F0D64E0650FFB
:10147000402F420F832F2E833F8358879BDD2E8181
:101480003F815885222379F0822F90E08A159B05B1
:1014900054F064E0C616D10431F04C81420F63E091
:1014A000650F832F87DDF3948981845F898381CFE2
:1014B0002A96E2E10C948B3066E089E07ECE692FBB
:1014C00048CDEF92FF920F931F93CF93DF937C0150
:1014D000E40EF51EEC018B01081B190BCE15DF0580
:1014E00039F0C8018C0F9D1F0E94A6308993F6CF5A
:1014F000CDB7DEB7E6E00C949730A8E1B0E0E3E8C2
:10150000FAE00C947E30182F88E1189FB001112466
:1015100060587D4F48E150E0CE010196D2DFE12FC7
:10152000F0E0EE0FFF1FE05DFB4F6081718180E016
:1015300090E00E94D32D29813A814B815C810E94E9
:10154000EE2E2D813E814F8158850E946D2C9F93F8
:101550008F937F936F93CE0109969F938F9388E12A
:1015600094E09F938F930E94F3280FB6F894DEBF08
:101570000FBECDBF6896E3E00C949A308CE70CCD9B
:10158000CF936AE086E0E5DCC0E08C2FB6DFF6DFC3
:10159000CF5FC430D1F7CF91089580E2FDCCCF93D7
:1015A000813110F08051FCCF811101C080E1880FA2
:1015B000CEEFC80F80E98C0FEFDC81E98C0FECDCFB
:1015C000CF9108957F936F939F938F9388E194E0D9
:1015D0009F938F930E9403290F900F900F900F906D
:1015E0000F900F9008951F93CF93DF93EC01162F68
:1015F0006CE370E00E94F52F8BE393E0E3DF1123AF
:1016000031F080914B04882311F080E201C08AE31D
:10161000C3DCCE016CE370E00E94F52FBC018FE3C8
:1016200093E0D0DFDF91CF911F91089560E0DBCF91
:1016300060918D0470918E048BE393E0C3CF809111
:10164000430483FD08C080916205882341F083E153
:10165000E1E6F7E007C086E0E1EFF6E003C084E1F1
:10166000ECE0F7E09091FD04692F70E0981740F4EA
:10167000CB01880F991FE80FF91F8591949102C043
:1016800084EA97E09FDF80914804882311F086E880
:1016900083CC089560E070E081EA92E093CF60919E
:1016A000B1047091B2048EED91E08CCF6091AF04E3
:1016B0007091B00488ED91E085CF7F936F935F9335
:1016C0004F939F938F9388E194E09F938F930E9411
:1016D00003298DB79EB708960FB6F8949EBF0FBE2C
:1016E0008DBF089540E050E0BA018DE593E0E5CF6D
:1016F0006091030570910405072E000C880B990B6F
:101700000E94D52D2AE037ED43E25CE30E94EE2EE5
:10171000AB01BC0189EA92E0D0CFA1E0B0E0E3E9FF
:10172000FBE00C947F307F936F935F934F939F9375
:101730008F9388E194E09F938F9329830E940329DC
:101740002981822F29DC0FB6F894DEBF0FBECDBFF2
:101750002196E2E00C949B30CF9380910905909103
:101760000A05FC013A96C4913296E491FC013D963B
:101770006591749180E090E00E94D32D2AE037EDCE
:1017800043E25CE30E94EE2EAB01BC012C2F89E406
:1017900093E0C3DFCF9108957F936F935F934F934F
:1017A000EBE0F1E021811F922F9320811F922F9374
:1017B0009F938F9388E194E09F938F930E940329D6
:1017C0008DB79EB70C960FB6F8949EBF0FBE8DBF17
:1017D0000895E0EDF4E027812F9326812F93258152
:1017E0002F9324812F931F926F9323812F93228114
:1017F0002F9321812F9320812F939F938F9388E1A3
:1018000094E09F938F930E9403298DB79EB70E9605
:101810000FB6F8949EBF0FBE8DBF0895EF92FF9252
:101820000F931F93CF93DF93EB017C018B01040F88
:10183000151FC017D10741F0F70161917F01CE015B
:101840000E94AE302196F5CFCDB7DEB7E6E00C941E
:1018500097300E946C2C20EC3BE649ED57E40C9449
:10186000EE2ECF92DF92EF92FF92CF93C42F6B01B7
:101870007C01E894F7F8C701B6010E94A22D072E5B
:10188000000C880B990B0E94D52D9B01AC01C70160
:10189000B6010E946C2CC11105C020E034E244E77F
:1018A00059E404C020E030E543EC57E40E94EE2EFA
:1018B0000E94A22DCF91FF90EF90DF90CF900895DE
:1018C00080914C0482FF03C08091B90468CE0895D2
:1018D0008091A3049091A4048F739927029730F408
:1018E0006FE675E088E194E00C94CF270895CF93DC
:1018F000C42F28EE33E040E050E00E941C306C2FF3
:10190000C90171DECF9108957F936F939F938F9359
:101910008FE493E09F938F9388E194E09F938F935C
:101920000E9403298DB79EB708960FB6F8949EBF04
:101930000FBE8DBF08950F931F93CF93DF930BE0DE
:1019400015E0C1E0D0E0F801619171918F01CE0105
:10195000DBDF2196C930D105B1F7DF91CF911F911F
:101960000F910895A2E0B0E0E8EBFCE00C94783031
:101970008C01F801B4903196E590F490E114F104F3
:1019800041F180919A046B2D6F7770E0660F771F9D
:10199000F0E88F9F600D711D112442E050E0CE01F0
:1019A00001968FDDC980DA80C60189DDD7FC09C0C8
:1019B000C7FC09C0F80133968491882321F0ECDA42
:1019C00002C0B7FE03C0C601F70109950C5F1F4FA7
:1019D000D0CF2296E9E00C949430FF920F931F939E
:1019E000CF93DF93F82E092F192F107287FD0AC0AD
:1019F00096FD08C0112389F164E772E088E194E064
:101A00000E94D92883ECC8DA2091AD043091AE044D
:101A100048E1429FC001439F900D11240C9668E657
:101A200071E00E940930CCEFC60F111102C0D9E05D
:101A300001C0DAE0EC2FF0E0E15BFD4F8491ACDA1D
:101A4000CF5FC83108F0C0E0D150A1F787E8A4DA31
:101A5000F7FC1AC006FD04C017C067E672E0CECFDF
:101A6000112379F068E472E088E194E00E94D928BB
:101A70008CE780DA60E472E088E194E00E94D92883
:101A800003C063E372E0F8CFCDB7DEB7E5E00C94B6
:101A900098300F931F93CF93DF9320915804222304
:101AA00009F44DC040915604509157042091A3046D
:101AB0003091A4044217530709F441C030915504F2
:101AC0002AE1231B27FD0BC02695692F820F41DADF
:101AD00068E574E088E194E00E94CF2732C096FD6B
:101AE0001CC0219530E080919B0490915404891B87
:101AF00090E0B901660F771F0E94093040915204AF
:101B000041110DC0009729F0215031098217930728
:101B100031F421E02093520402C080E090E0EC0117
:101B2000C85ADB4F8E01065E1F4F8991811102C09A
:101B300034DD07C031DAC017D107B9F7F9CF1092F9
:101B40005804DF91CF911F910F9108951F93CF9368
:101B5000DF93D82F192F8091CE04823019F020F016
:101B6000CFE003C0CFE101C0CAE2D7FD02C016FF3B
:101B70000DC06091CF0470E08BEE91E023DDD7FDC6
:101B800008C016FF06C08C2F07DA03C08C2F04DABA
:101B9000F0CFDF91CF911F910895A0E0B0E0E3ED89
:101BA000FDE00C947930C090D404D090D504E0903E
:101BB000D604F090D704C114D104E104F10469F40F
:101BC0004091D0045091D1046091D2047091D3041B
:101BD000452B462B472B09F473C094FD02C0CCE77C
:101BE00001C0C0E296FBDD27D0F9E82FE095EE1F9B
:101BF000EE27EE1FEE0FED2B80914B04882311F1A1
:101C000080915004853058F068EF71E088E194E0ED
:101C10000E94D9288C2FC0D96FEF71E00EC080913F
:101C20005104853078F068EF71E088E194E00E941B
:101C3000D9288C2FB1D96FEE71E088E194E00E9431
:101C4000D9283EC00E2E000CFF0BEE0FFF1F95FF94
:101C500031C0E451F84F059114914D2FC701B601E1
:101C600000DEF62EE72ED82EC92E6091D00470919A
:101C7000D1048091D2049091D3044D2FF2DDCF9204
:101C8000DF92EF92FF921F92CF939F938F937F9358
:101C90006F931F930F9388E194E09F938F930E941B
:101CA00003298DB79EB70E960FB6F8949EBF0FBE50
:101CB0008DBF06C0EC51F84F859194916C2F89DD52
:101CC000CDB7DEB7E8E00C949530262F30E0F9016F
:101CD000E45DFB4F87FD0BC091E09083F901E85D67
:101CE000FB4F86FB992790F99083862F06CC1082B4
:101CF000089563E0892FE9CF62E0892FE6CF61E0A4
:101D0000892FE3CF60E0892FE0CFCF92DF92EF926F
:101D1000FF921F93CF93DF93182FC92F8091010556
:101D20008F55863010F0DFEF01C0D4E660910205D8
:101D300070E080E090E00E94D32D6B017C016D2F5C
:101D400070E080E090E00E94D52D9B01AC01C701BE
:101D5000B6010E943A2D20E030E048EC52E40E94A7
:101D6000EE2E6B017C01C07417FD45C088E814D9C4
:101D70002AE037ED43E250E4C701B6010E94EE2E9F
:101D80000E94A72DAB016138710540F029E820932E
:101D90000B0140585109ECE0F1E012C02DE820930E
:101DA0000C016231710550F420914B04222331F073
:101DB00080E280930B0180930C010AC0EBE0F1E01C
:101DC000CA016AE170E00E94F52F8DE8861B8083CE
:101DD000CC2329F0B701A60181E292E00AC040912C
:101DE000310550913205609133057091340585E1DC
:101DF00092E0D2DC12C0CC2329F0AB01BC018DE013
:101E000092E00AC04091310550913205609133054E
:101E10007091340586E092E050DCDF91CF911F9104
:101E2000FF90EF90DF90CF90089596FB442740F904
:101E30006091ED047091EE048091EF049091F004B4
:101E400056CDCF92DF92EF92FF9280914D0496FF94
:101E500023C0846080934D0429E838E848E85CE3B7
:101E60006091390570913A0580913B0590913C0550
:101E70000E94EE2E6B017C010E94A22D675F7F4FB6
:101E80006331710518F08CEB92E002C084EC92E0B3
:101E9000B701A60112DC14C08B7F80934D04E09142
:101EA0000905F0910A0572962491409139055091E7
:101EB0003A0560913B0570913C0580E992E02DDC8C
:101EC000FF90EF90DF90CF900895AB01BC01E091BF
:101ED0000905F0910A05399624918BE992E01DCC11
:101EE0001F920F920FB60F9211242F938F939F93EF
:101EF000EF93FF939091C60080913B068F5F8F77A1
:101F000020913C06821741F0E0913B06F0E0E75457
:101F1000FA4F908380933B06FF91EF919F918F91B1
:101F20002F910F900FBE0F901F9018951F920F9238
:101F30000FB60F9211248F939F93EF93FF9390917D
:101F40003A0680913906981779F0E0913A06F0E068
:101F5000EB54FA4F80818093C60080913A068F5FE0
:101F6000837080933A0605C08091C1008F7D809375
:101F7000C100FF91EF919F918F910F900FBE0F9035
:101F80001F901895EAE7F0E080818B7F8083808145
:101F900086608083089595FB222720F994FD02C076
:101FA00090E001C092E0922B86FD02C080E001C06B
:101FB00084E0892B08951F93CF93DF93182FEBDFD5
:101FC0008C5FC82FD0E017FD06C0BE016F5F7F4F4A
:101FD00083E693E0F7DACC0FDD1FC55FDA4F688147
:101FE00079818BE693E0EEDADF91CF911F9108952E
:101FF0001F93CF93DF93182FC92FCDDFD4E0D80FD5
:1020000017FD07C06D2F70E06F5F7F4F88E693E08C
:10201000D9DAC6FB662760F98D2F51D8D82FC0E0DA
:10202000DC1302C081E801C080E80E94CC07CF5FCA
:10203000C530B1F7DF91CF911F9108951F93CF93D2
:10204000DF93182FC92FA7DFD4E0D80F17FD07C0E3
:102050006D2F70E06F5F7F4F83E693E0B3DAC6FBCE
:10206000662760F98D2F2BD8182FC0E0D3E0CE0162
:102070000E94A6308F3F71F0811103C0112351F0EF
:102080001150111102C00E94CC072196C03883E084
:10209000D80769F7DF91CF911F9108950F931F9390
:1020A000CF93DF93EC018B010E941D26DC01CB0155
:1020B000800F911FA11DB11D88839983AA83BB83C3
:1020C000DF91CF911F910F9108959B01FC014081F9
:1020D000518162817381420F531F611D711D4083C5
:1020E0005183628373830895E0910905F0910A0595
:1020F000349665917591859194910895A4E0B0E02E
:10210000E4E8F0E10C9479309B01AC0169833A83F7
:102110004B835C83E9DF29813A814B815C810E949A
:10212000EE2E6B017C010E94A22D009109051091F9
:102130000A05F801603177423CF439962491B701E1
:10214000A60180E992E024C070966591749180E0C8
:1021500090E00E94D32D9B01AC01C701B6010E9403
:102160003A2D6B017C010E94A22D6A30710534F07A
:102170006436710534F080E992E005C08DE593E0A6
:1021800002C087E593E0F8013F962491B701A601CC
:10219000C4DA2496E8E00C9495306091350570918E
:1021A00036058091370590913805A8CF80914C0471
:1021B00082FF0BC06091BA047091BB048091BC0493
:1021C0009091BD040E94D52D99CF0895A4E0B0E070
:1021D000ECEEF0E10C947F309B01AC0169833A8313
:1021E0004B835C8381DF29813A814B815C810E9432
:1021F000EE2E6BDE2496E2E00C949B306091A904F5
:102200007091AA048091AB049091AC04DFCFE0916F
:102210000905F0910A05659175918591949108954C
:102220000F931F93CF93DF9380914704182F117062
:1022300080FFC8C08E7F80934704E9DF6091070567
:102240007091080580914D0481FF0AC021E090E063
:102250008091CE04823008F020E0C22FD92F02C036
:10226000C0E0D0E0E0916205E11108C08091660510
:10227000882321F080914A0482FDC26030910205DA
:102280002091010540916705442369F0CB0164E684
:1022900070E00E94F52F6115710529F0842F90E000
:1022A00068177907E4F040916D054423C9F054E6BE
:1022B000359FC0011124322F27FF02C031E0320FB9
:1022C0003595830F911D37FD9A95622F220F770B5D
:1022D0000E940930842F90E0681779070CF4C860D9
:1022E00080916C0580FD0BC080916E0590E020917F
:1022F0008D0430918E042817390708F4C061E1304D
:10230000E1F48091390590913A05A0913B05B09197
:102310003C0500916605002381F0BC01CD019F774B
:102320000E94A22DCB016AE070E00E940930802F4C
:1023300090E0861797070CF4C06280910505909194
:1023400006052091A005222371F064E670E00E944A
:10235000F52F6115710539F0822F90E06817790724
:1023600014F4C06405C0209719F410925B032AC0CE
:1023700090915B0381E09111890F80935B038091C1
:102380005B034FEF480F21E030E002C0220F331F04
:102390004A95E2F740E08B3020F0412F81E021E0C8
:1023A00030E0B9016C237D23672B29F48F5F220F66
:1023B000331F412FF0CF411180935B0380915B036A
:1023C000981799F2E0915B03EE2359F0F0E0EE0FDD
:1023D000FF1FEA59F74F6591749188E194E00E94DC
:1023E000D928DF91CF911F910F910895A0E0B0E01F
:1023F000ECEFF1E10C947A30EC01FE0105911491BF
:102400000115110509F466C0FE013296849181110F
:102410000E94CC07FE01339684913196E590F490AA
:10242000893691F030F4813609F43CC08836C1F029
:1024300004C08337E9F0863719F150E2D52E60E009
:1024400070E080E89FE337C0F70160817181072E5B
:10245000000C880B990B0E94D52D40E2D42E32C07F
:10246000E0910905F0910A053996D4903DDE23C02C
:10247000E0910905F0910A053896D490C8DE1BC09A
:1024800033DE20914D0422FD14C0E0910905F09146
:102490000A057296D49020E030E040E752E40E94B2
:1024A000EE2E09C031E4D32E6AE077ED83E29CE39F
:1024B00002C028E1D22EF70120813181428153816F
:1024C0000E94EE2E2D2DAB01BC01C80126D956D895
:1024D000279693CFCDB7DEB7E7E00C94963083E034
:1024E00093E084CFCF93DF93EC0148E06D2F0E94FF
:1024F000DA076091ED047091EE048091EF04909101
:10250000F00440E0F4D93AD883E891E06FDF6D2F12
:102510008BE08C0F0E94A9076CE783E098E059D903
:10252000DF91CF910895CF92DF92EF92FF920F93B8
:102530001F93CF938C016A017B01C22F68DEA70134
:1025400096010E94EE2EC1110BC0E0910905F09199
:102550000A053896C49120E030E040E85FE305C00A
:10256000C8E126E636E646E650E40E943A2DAB0185
:10257000BC012C2FC801D1D8CF911F910F91FF9092
:10258000EF90DF90CF90089596FB222720F940919D
:10259000A5045091A6046091A7047091A80480EB53
:1025A00092E0C1CF96FB222720F940E050E0BA012B
:1025B00080EB92E0B8CF2FE632E143E85AE30C9487
:1025C000EE2EA4E0B0E0E7EEF2E10C947D30009155
:1025D0005C0310915D0388DD9B01AC018AEF809F55
:1025E000B001819F700D1124072E000C880B990BF0
:1025F0002C8339834A835B830E94D52D2C813981BA
:102600004A815B810E94EE2EE0910905F0910A0556
:102610000832110554F03F9624912C83CCDFAB0196
:10262000BC012C818DE593E006C039962491AB0165
:10263000BC0180E992E071D82496E4E00C949930D2
:10264000A0E0B0E0E6E2F3E10C947930C82F80918D
:102650006205811199C020E030E0A9016091A504D4
:102660007091A6048091A7049091A8040E94332D34
:10267000882309F4DFC0CBDD80914A0481FF1BC0B1
:102680001092E0041092E1041092E2041092E3042C
:1026900040913505509136056091370570913805A8
:1026A0004093560350935703609358037093590314
:1026B0008D7F80934A042DEC3CEC4CE45DEB609103
:1026C000DC047091DD048091DE049091DF040E94AF
:1026D000332D87FF45C02091560330915703409119
:1026E00058035091590360913505709136058091DA
:1026F0003705909138050E946C2C20E030E0A9014C
:102700000E94EE2E6B017C01EFDC9B01AC01C70146
:10271000B6010E94EE2E6B017C010E94A22D603159
:1027200087E2780724F41616170644F083C0C12CFC
:102730008CE3D82E8CE1E82E86E4F82EC7FD03C08A
:102740008EEE0E94CC07E0910905F0910A053996BA
:102750002491B701A60180E992E00E948D0B6AC026
:102760008091AF049091B00497FF64C080914B04B6
:10277000882319F065E473E002C064E473E088E143
:1027800094E00E94D92856C080914804882309F417
:1027900051C0D09102050D2F10E080910005082E48
:1027A000000C990B08171907D1F18091430482FDA1
:1027B00036C06091ED047091EE048091EF04909129
:1027C000F0040E94D32D6B017C016D2F70E080E03E
:1027D00090E00E94D32D9B01AC01C701B6010E947D
:1027E000EE2E6B017C0160910105062E000C770B2B
:1027F000601B710B072E000C880B990B0E94D52DC6
:102800009B01AC01C701B6010E943A2DD4DE0E94A3
:10281000A72D7093FF046093FE04D0930005C7FDBD
:1028200003C087E10E94CC078091FE049091FF04D1
:102830000E94160BCDB7DEB7E8E00C9495304091BE
:10284000D8045091D9046091DA047091DB0496FFAA
:102850000CC08091C6049091C704A091C804B091A7
:10286000C904481B590B6A0B7B0BCB01BA010E94B0
:10287000D52DA1DEABCCBC0180E090E00E94D32D31
:102880009ADEAB01BC0184EE91E00C945D0B80916B
:10289000AA0597FD08C080628093AA05809105056E
:1028A00090910605E8CF91E02091A005211101C08B
:1028B00090E090FB85F98093AA0508958091070523
:1028C00090910805D8CF2091A3043091A404260F3D
:1028D000311D309357042093560480935504809102
:1028E0009B0480935404089597FF03C088599E4F1A
:1028F0000895893621E0920714F088569140089592
:10290000CF93DF93EC010E941D2628813981CB01F2
:10291000821B930BDF91CF91089524E0880F991FBC
:102920002A95E1F78C549F4F68E671E00E940930C8
:10293000CB0101960895A0E0B0E0E1EAF4E10C9447
:102940007930C92F80E090E0CFDF8C01C0903D0549
:10295000D0903E05E0903F05F0904005C701B601DC
:1029600090582AE037ED43E25CE30E94EE2EA70187
:1029700096010E946D2C60933D0570933E058093F7
:102980003F0590934005C6FBDD27D0F92D2F40E091
:1029900050E0BA0180EB92E0C6DD0E94BE0A809151
:1029A000AD049091AE049801281B390BC901B5DF25
:1029B0009C2F9072C5FD98E0890F0E94CF0A40912C
:1029C0003D0550913E0560913F05709140052D2FCA
:1029D00086EB92E0A8DDCDB7DEB7E8E00C94953049
:1029E000EF92FF921F93CF93DF9300D000D0CDB72B
:1029F000DEB78091FD048A3009F056C0E0901B05D7
:102A0000F0901C0588EEE81683E0F80654F489E19E
:102A1000E8168CEFF8064CF489E1E82E8CEFF82EDE
:102A200004C097EEE92E93E0F92EE0910905F091AC
:102A30000A053996149160E070E086E992E00E9400
:102A4000E20A52DB212F40E050E0BA0180E992E037
:102A50000E948D0B0E94BE0A8091290590912A0543
:102A600043DF2091AD043091AE04821B930B55DF00
:102A70000E94CF0A39DB9B01AC01B701FF0C880B28
:102A8000990B29833A834B835C830E94D52D29813E
:102A90003A814B815C810E94EE2EAB01BC01212F5B
:102AA00087E892E00E948D0B0F900F900F900F908F
:102AB000DF91CF911F91FF90EF9008958091CC040A
:102AC0009091CD04C29664E670E00E94F52F2091AB
:102AD000AD043091AE04CB01821B930B05DF845B08
:102AE00091099093CB048093CA0417DF885F0E94FA
:102AF000CF0A6091CA047091CB048EE292E00C94EC
:102B0000E20ACF92DF92EF92FF92CF93DF93EC0134
:102B10006A017B019A01AB01688179818A819B817D
:102B20000E94332D87FF04C0C882D982EA82FB82CB
:102B3000DF91CF91FF90EF90DF90CF900895CF93EA
:102B4000DF93EC019A01AB01688179818A819B81D5
:102B50000E946D2C688379838A839B83DF91CF9158
:102B60000895A0E0B0E0E7EBF5E10C94713089EE58
:102B700094E0C6DEEC0160E070E089EE94E08EDA6D
:102B8000BE018DEE94E0A1DABE0180E090E00E94EB
:102B9000D32D11DD6B017C01A7DA2B013C01809064
:102BA000390590903A05A0903B05B0903C0520E097
:102BB00030E040E752E46091DC047091DD048091E4
:102BC000DE049091DF040E94EE2EA30192010E9488
:102BD000EE2EA50194010E946C2C2DEC3CEC4CECEB
:102BE0005DE30E94EE2EA50194010E946D2C60937E
:102BF000390570933A0580933B0590933C052091ED
:102C0000020580910105082E000C990B422F50E01F
:102C10008417950714F42093010580914C0482FFDA
:102C200015C080914804882389F02091A504309133
:102C3000A6044091A7045091A804C701B6010E94C0
:102C4000EE2EAB01BC0185E395E079DF60910305D1
:102C500070910405072E000C880B990B0E94D52D4E
:102C600021E63BE046E35BE30E94EE2EA7019601DE
:102C70000E94EE2EAB01BC0181E395E060DF809104
:102C80008F049091900420916C0520FD5EC000910E
:102C9000A6051091A705C091A805D091A905C01758
:102CA000D10740F4302F212F8E01C32FD22FFF24C4
:102CB000F39401C0F12C98010817190708F49C013E
:102CC000BE012C173D0708F4B90180E090E00E9496
:102CD000D32D4B015C01B80180E090E00E94D32D20
:102CE0009B01AC01C501B4010E946C2C4B015C013D
:102CF000BE01601B710B80E090E00E94D32D9B0110
:102D0000AC01C501B4010E943A2D20E030E048EC4E
:102D100052E40E94EE2E0E94A22D6536710528F421
:102D200070938E0460938D0406C084E690E09093C7
:102D30008E0480938D04FF2061F020918D043091EA
:102D40008E0484E690E0821B930B90938E04809314
:102D50008D0480916205811104C080914A0482FD36
:102D600005C080914804882309F453C06091BA04D7
:102D70007091BB048091BC049091BD040E94D52D3C
:102D8000AB01BC018DE595E0BCDE40E050E0BA014E
:102D900089E595E0B6DE4091A5045091A6046091C6
:102DA000A7047091A80485E595E0ABDE4091A904E5
:102DB0005091AA046091AB047091AC0481E595E058
:102DC000A0DE40E050E0BA018DE495E09ADE60912B
:102DD000030570910405072E000C880B990B0E94C7
:102DE000D52DAB01BC0189E495E08BDEC090DC04FD
:102DF000D090DD04E090DE04F090DF04B701A6017E
:102E000085E495E07EDEB701A601705881E495E087
:102E100078DECDB7DEB7E0E10C948D30CF93DF9351
:102E2000EC01CB01BA010E94D52D25E93FEB46ED1F
:102E300053E30E94EE2E688379838A839B83DF911C
:102E4000CF9108950E941D2660939D0470939E0467
:102E500080939F049093A0048091A3049091A40474
:102E60009093A2048093A104E2E4F4E081E08083E3
:102E7000828308958AEA90E00C9473260E948D283C
:102E8000811101C0F7CF089590914304892F81707B
:102E900090FF05C09091410481E0911180E0089578
:102EA0008F929F92AF92BF92EF92FF921F93CF9318
:102EB000DF93C1EFD3E010E20E948D28882309F44C
:102EC000D2C10E949C289091E1039230A1F028F495
:102ED000992351F0913051F005C09430C1F078F051
:102EE000953001F19F5FBBC191E0ABC18D3409F416
:102EF000B5C190E0B4C18E33E1F793E0B0C1813841
:102F0000C0F78093E0038093DF0394E0A8C180932F
:102F1000E2039091DF0389278093DF031092DE03A1
:102F200095E09DC12091DF0328272093DF03E091E6
:102F3000DE033091E003E31388C1211182C11092B6
:102F4000E303809143048860809343047BDFE09136
:102F5000E2038E2F90E0FC01E456F109E431F10523
:102F600008F06AC1EC5CFF4F0C945A308091E30387
:102F70008F5F8093E3038091E5039091E603A09136
:102F8000E703B091E8038E7F4FC1E091E303F0E0E7
:102F9000E25AFC4F46815781608571854093ED036D
:102FA0005093EE036093EF037093F0038091F1036D
:102FB0009091F203A091F303B091F403842395233D
:102FC000A623B72321E0892B8A2B8B2B09F420E041
:102FD0002093480431C1E091E303F0E0E25AFC4F52
:102FE00080E1ABE0B5E06EC0E091E303F0E0E25ACF
:102FF000FC4F80818093CE0481818093CF044281F5
:1030000053816481758180ED94E008DFE091E303F2
:10301000F0E0E25AFC4F468157816085718584ED6E
:1030200094E0FCDEE090E3038E2D90E09C01225AB8
:103030003C4F7901F90182859385A0E0B0E080934F
:10304000D8049093D904A093DA04B093DB04648588
:10305000758580E090E00E94D32D6093A504709365
:10306000A6048093A7049093A804F701868597850A
:103070009093CD048093CC04DFC0E091E303F0E0B3
:10308000E25AFC4F80819181A0E0B0E08093BA04C5
:103090009093BB04A093BC04B093BD048281938140
:1030A0003CDC8093B904C8C0E091E303F0E0E25A4D
:1030B000FC4F848195819093AE048093AD0486E0AB
:1030C000AFEAB4E001900D928A95E1F7B5C0E090C7
:1030D000E3038E2D90E09C01225A3C4F7901F901C7
:1030E00060817181828193810E94D32D6093A904B4
:1030F0007093AA048093AB049093AC04F7016481AD
:10310000758180E090E00E94D32D6093DC04709381
:10311000DD048093DE049093DF048EC08091AA05C5
:10312000E091E30384FD0FC0AE2FB0E0A25ABC4F84
:103130002D913C9111973093080520930705119626
:103140009C919093020586FD0CC0AE2FB0E0A25A70
:10315000BC4F15968D919C91169790930405809382
:103160000305F0E0E25AFC4F83818093910464C030
:103170008091E5039091E603A091E703B091E80305
:103180009D7F52C08091E5039091E603A091E703F3
:10319000B091E8039B7F48C02091E003FE01312FEE
:1031A00011923A95E9F741E050E060E070E02223A7
:1031B00091F1E091E30381E08E0F8093E303F0E06F
:1031C000E25AFC4FA08183EF98E00A2E000CBB0B63
:1031D000FC013491E32FF0E0AE17BF0789F4FC0146
:1031E0003296E590F490F70180809180A280B380C0
:1031F000842A952AA62AB72A80829182A282B38243
:103200000496F9E083319F0719F7440F551F661F95
:10321000771F2150CCCF8091E5039091E603A091D8
:10322000E703B091E803977F8093E5039093E6036B
:10323000A093E703B093E80327DE882309F459CE6F
:1032400013C0843209F055CE0AC021E02E0F20931E
:10325000DE03F0E0E25AFC4F808301C092E09093DD
:10326000E1030CDE29CE80E0DF91CF911F91FF902A
:10327000EF90BF90AF909F908F9008958091AD0494
:103280009091AE04880F991F8D966AE570E00E94B8
:10329000093077FF03C0685F7F4FFBCF67707727E8
:1032A000FB01E159FC4F8491089587FD03C0E6DFDF
:1032B0000E94CC076091AD047091AE0482E892E068
:1032C0000C94E20AA4E0B0E0E8E6F9E10C94713075
:1032D0004C01D92C96FE0BC015E019C0133001F536
:1032E00085EC0E94CC070E94BE0A1150D9F4CC2470
:1032F000C394C80C692D8C2D0E94DD0826E0B22EE7
:10330000B80C32E0A32EA90C94FECBC00FC082EB08
:103310000E94CC070DE0015009F30E94CD0AFBCFBB
:1033200083EBDFCF133099F786ECF2CF0091B7042F
:103330001091B804E090B504F090B604C80117FFEE
:1033400004C088279927801B910B6AEF70E00E94C8
:103350000930362F272FC701F7FE04C08827992789
:103360008E199F096AEF70E00E940930832F922F17
:10337000861797070CF4CB01BC016F5F7F4F7093EA
:103380005D0360935C03072E000C880B990B0E9471
:10339000D52D2B013C01B701FF0C880B990B0E9426
:1033A000D52D69837A838B839C8324EE38E34EE5A5
:1033B00052E4C301B2010E94EE2E9B01AC0169816F
:1033C0007A818B819C810E943A2D0E94A22DF62E3B
:1033D000E62EB801012E000C880B990B0E94D52D0A
:1033E00069837A838B839C832DE63BED4EE052E428
:1033F000C301B2010E94EE2E9B01AC0169817A816A
:103400008B819C810E943A2D20E030E040E05FE318
:103410000E946D2C0E94A22D562E86FC09C02EDF24
:103420006A2D6F19482F8B2D850D0E94DA0739C040
:1034300080919204681304C080919304F816E1F01F
:1034400080919604909197049093990480939804A6
:10345000809194049091950490939704809396049E
:103460008091920490919304909395048093940496
:1034700050929204F092930408E914E092E9692EC4
:1034800094E0792EF80181816A2D681B808144E2E5
:103490008B0D0E94DA07025011096016710691F730
:1034A000BECF87FC0AC06A2D8B2D0E94A90765ED4F
:1034B00071E088E194E00E94D92895FEC0C0809117
:1034C0004804882309F4BBC080916205811184C03F
:1034D0006091BA047091BB048091BC049091BD04CA
:1034E0000E94D52D9B01AC0160E070E0CB010E94F1
:1034F000E02C21EE3EE245E652E40E94EE2E0E94D0
:10350000A22D6A5071092DE2269FC001279F900DC0
:1035100011246AE070E00E940930CB01469669E010
:1035200070E00E940930663078F400ED081B192D18
:10353000160F402F612F8CE0880D0E94DA07402F74
:10354000612F8C2D0E94DA078091B90490E02091C0
:103550000D0130910E01821B930BC6D9853B91055D
:1035600034F028E631E0A901481B590BCA019C013F
:10357000245B310948E4429FC001439F900D112410
:103580006AE070E00E940930CB01849666E070E04A
:103590000E940930962F64E0690D97FF06C04CE346
:1035A0008C2D0E94DA074CE314C09D3054F01CE0CF
:1035B000180D4EE3812F0E94DA074EE3692D812F0B
:1035C0003CC01FEB180FC90E412F8C2D0E94DA074B
:1035D000412F692D8C2D31C00E9474102091A904B7
:1035E0003091AA044091AB045091AC040E94EE2E9D
:1035F00020E030E040EA50E40E946D2C2DEC3CECE1
:103600004CE850E40E94EE2E0E94A22D862F9FEFE0
:10361000960F9B3240F469E00E94E82F4FEC491B63
:10362000D92CD80E08C06C322CF084E0D82ED90CDE
:103630004EE201C04FEC6D2D8B2D0E94DA072496CF
:10364000E0E10C948D30ACE0B0E0E9E2FBE10C94F9
:103650006F300E9426070E941D266B017C0180911D
:10366000620510914804811114C0112301F1809169
:103670004A0482FF1CC06091A5047091A604809149
:10368000A7049091A8040E94A22D623071053CF419
:103690000EC011110CC080914904882341F0C092E2
:1036A0001D05D0921E05E0921F05F0922005109393
:1036B00049048091A505853018F084E08093A50524
:1036C0008DE994E01DD9853C994018F163E085E0CF
:1036D0000E94A9076091A3047091A4048091A104A1
:1036E0009091A204681B790B82EC91E00E94E20A9F
:1036F0004091060150910701609108017091090104
:103700002AE030E088E194E00E94092883E095E017
:1037100065C080914804811120C080911D05909161
:103720001E05A0911F05B0912005892B8A2B8B2B9C
:10373000A1F08DE195E0E4D8883B9B4070F4609166
:1037400035057091360580913705909138050E94B6
:10375000A22D663071050CF0A3C280914E0488231F
:1037600009F43FC08091270490919A04891721F0B1
:1037700080939A0410924E0482E00E94CB08092E96
:10378000000CAA0BBB0BB7FF07C0B095A095909596
:1037900081959F4FAF4FBF4F8D329140A105B1052D
:1037A0000CF088C283E00E94CB08092E000CAA0B03
:1037B000BB0BB7FF07C0B095A095909581959F4F23
:1037C000AF4FBF4F8D329140A105B1050CF072C2D1
:1037D0008091480481116EC281E091E00E947212D2
:1037E0006CC28091A505882321F090919A049817C6
:1037F00018F487E793E051C28091480481114BC2CD
:103800001D821E821F82188640912604842E912CD0
:1038100085E0489FA0011124FA01E95DFB4F8591E5
:10382000949190931D0480931C04FA01E75DFB4F73
:1038300014910E94B608A12CB12C00E0712C1A86BC
:103840001B86612C1986C12C101709F4B6C0DD2423
:10385000D394D00EE0901C04F0901D04EA0CFB1CE5
:10386000F701459054906D2D81E00E94A907B201A7
:1038700088E194E00E94D9286D2D83E10E94A90778
:1038800080910501081306C08EE30E94CC07C0900A
:10389000140302C00E94CD0AF7013296849131963A
:1038A00024912C87833609F442C060F48A3509F4E8
:1038B0003CC0823689F1811169C09EE0A90EB11C1D
:1038C0000D2DC2CF8836D1F088F4863609F05EC05F
:1038D000F7013496A591B4918D919D910D90BC9175
:1038E000A02D8D839E83AF83B88750C0833709F4A2
:1038F00043C08A3709F04AC080E118C080911203A2
:10390000803419F462E671E002C06AE571E088E192
:1039100094E00E94D928D1CFF7013496A591B491B3
:103920006C9170E080E090E011C080E28987F7013F
:103930003496A591B4916C91062E000C770B998565
:10394000691B7109072E000C880B990B0E94D52D5D
:103950001B012C012C85622F70E080E090E00E941A
:10396000D32D9B01AC01C201B1010E943A2D6D83A0
:103970007E838F8398870AC0F7013496659174918E
:1039800044E050E0CE0105960E94610A8091050155
:10399000BD81AE813F812885081304C07B2EAA8794
:1039A0003B87622EF7013896859194914B2F5A2FC1
:1039B000632F722F0E945D0B80CF85E0889DF00100
:1039C000899DF00D1124E65DFB4F85919491009740
:1039D00011F0FC01099580914C0483FF6EC1877F33
:1039E00080934C0401E00093420481E00E94CB08E4
:1039F0008739910514F081E004C08A369F4F24F482
:103A00008FEF0E94870859C183E00E94CB08873955
:103A100091055CF00093050180912604823019F431
:103A2000109226044AC18F5F0CC08A369F4F64F4FF
:103A30000093050180912604811102C082E001C03B
:103A400081508093260439C1609105016F5F8C2DF0
:103A50000E94A90780910501E0901C04F0901D04CC
:103A60009EE0899FE00CF11C112480E00E94CB08AD
:103A70006C0197FF06C0D194C194D1088824839427
:103A800001C0812CF7013496A590B490F7013296CD
:103A9000049131969490872D9A85AB85B62D8D83B0
:103AA0009E83AF83B887043630F4023660F40A355B
:103AB00009F04AC008C0033771F10A3721F0063611
:103AC00009F042C028C0EDE2CE16E1E0DE0684F047
:103AD000692D70E080E090E00E94D32D9B01AC0145
:103AE00060E070E080E291E40E943A2D11E04AC06B
:103AF000F7E9CF16D10464F1692D70E080E090E021
:103B00000E94D32D9B01AC0160E070E080E89FE350
:103B10000E943A2D20C021E9C21621E0D2066CF5A0
:103B20008DE2C81681E0D806C4F499ECC916D10418
:103B3000CCF414E0E5E6CE16D1040CF45CC06FE6DC
:103B400072E183E89AE31EC060E070E0CB010FC031
:103B500060E070E0CB0111E00AC06DEC7CEC8CEC15
:103B60009DE304C06AE077ED83E29CE314E0F5E6B0
:103B7000CF16D1040CF43FC005C060E070E080E8CF
:103B80009FE314E081109058AB01BC01CE01059673
:103B90000E949F15F7013A9665917491F7013C9642
:103BA000C590D490072E000C880B990B0E94D52D40
:103BB0001B012C012D813E814F8158850E94E32EEF
:103BC000181624F42D823E824F825886B6010D2CA1
:103BD000000C880B990B0E94D52D1B012C012D8107
:103BE0003E814F8158850E94332D87FF04C02D826E
:103BF0003E824F8258862D803E804F805884A2019D
:103C00009101672D7A858B85962D0E94332D88230F
:103C100009F453C0692D70E080E090E00E94D52D3A
:103C2000A20191010E94EE2E0E94A22D0336A9F05E
:103C300028F40A3579F0023681F01CC0033781F090
:103C40000A3751F00636B1F4F50120823182428202
:103C5000538210C0605E01C0605FF50160830AC0DE
:103C600029823A824B825C8244E050E0B501CE0169
:103C7000019606C0412F50E0B5016E557340C50155
:103C80000E940E0CF7013696859194910097A9F049
:103C9000FC01099512C08FE194E00E94B20C0DC0A6
:103CA00081E080934E040E94B60880919A0480932C
:103CB000270492CD10924E048FCD2C96E2E10C9405
:103CC0008B301F920F920FB60F9211242F933F93B8
:103CD0004F935F936F937F938F939F93AF93BF9314
:103CE000EF93FF9310924104809140048F5F809383
:103CF000400480915A03811114C080915304882399
:103D000081F080915A038F5F80935A0378940E94C8
:103D1000E907F8941092530480915A0381508093DC
:103D20005A03FF91EF91BF91AF919F918F917F9136
:103D30006F915F914F913F912F910F900FBE0F9018
:103D40001F901895CF92DF92EF92FF9282D76B016E
:103D50007C0183E00E94FD26813049F4C092390441
:103D6000D0923A04E0923B04F0923C041FC0809150
:103D7000390490913A04A0913B04B0913C0400971F
:103D8000A105B10599F0C81AD90AEA0AFB0AD0922E
:103D90003E04C0923D041092390410923A041092ED
:103DA0003B0410923C0481E080933F04FF90EF902D
:103DB000DF90CF90089566E970E080E090E06EC7F4
:103DC00065E085E00E94A90768E673E087E391E07B
:103DD0000E94E20A32D74AE050E088E194E00E9473
:103DE0001628809178058F3421F4809179058A31E5
:103DF00059F061E081E00E94A9076091780570E0C8
:103E00008AE191E00E94E20AD6DF0C94E9071F9252
:103E10000F920FB60F9211242F933F934F935F93FE
:103E20006F937F938F939F93AF93BF93EF93FF9382
:103E300089DFFF91EF91BF91AF919F918F917F911A
:103E40006F915F914F913F912F910F900FBE0F9007
:103E50001F9018950FB6F894A8958091600088611E
:103E600080936000109260000FBE60E071EE80E011
:103E700090E00E944D2842E050E060E072E08AEA63
:103E800095E00E94610A48E450E064E072E082E656
:103E900095E00E94610A8091AA0581FD03C086E237
:103EA00099E002C083E199E090930A0580930905A7
:103EB00084B58C7F84BD83E00E9475270E94C20F69
:103EC000809169008C7F826080936900E89A80917C
:103ED0006305813051F462E083E033D7809169005B
:103EE000837F846080936900E99A5E9A0E94E90763
:103EF000789480917A05883341F480917B058733EB
:103F000021F480917C05823389F088E380937A05DF
:103F100087E380937B0582E380937C0543E050E058
:103F20006CE172E08AE795E00E940E0C8091A30597
:103F3000882391F0E091A405EE2371F0F0E0EB5AB4
:103F4000FE4F849180933804882331F061E0F9D6E4
:103F500060E08091380431D70E94900731DF1092E1
:103F60008C041092ED041092EE041092EF04109263
:103F7000F0040895E0910301EF5FE0930301E7701F
:103F8000F0E0EE0FFF1FEA5BFC4F9183808388E037
:103F900060E070E08150E82FF0E0EE0FFF1FEA5B79
:103FA000FC4F20813181620F731F8111F3CF80E0BC
:103FB00090E00E94D32D20E030E040E05EE30C94DE
:103FC000EE2ECF92DF92EF92FF92CF93DF9380910C
:103FD000AA0584FD05C080912C04882309F4AAC099
:103FE000C0910201CF5FC093020180E181D7C77009
:103FF000EC2FF0E0EE0FFF1FEA5CFC4F9183808313
:1040000088E0C0E0D0E08150E82FF0E0EE0FFF1F25
:10401000EA5CFC4F20813181C20FD31F8111F3CFA5
:10402000209130043091310447E0429FC001439F0A
:10403000900D11248C0F9D1F23E0969587952A954E
:10404000E1F790933104809330048091AA0584FFB6
:1040500071C029E53EEE49E050E460918005709121
:10406000810580918205909183050E94EE2E6B015F
:104070007C01BE0180E090E00E94D32D9B01AC0149
:10408000C701B6010E94EE2E0E94A72D40910705A0
:10409000509108054115510529F470930805609366
:1040A000070512C09A01220F331F240F351F2E5F00
:1040B0003F4FA901460F571F56954795569547956F
:1040C000509308054093070581E080934204E091F6
:1040D00067058E2F61E20E94DC2F482F8091070533
:1040E00090910805C29664E670E00E94F52FF0E01A
:1040F0009B012E1B3F0BAFEFB0E00E9460305AE2F5
:10410000459F900111242E1B3F0B032E000C440BE6
:10411000550B0E943E3037FF03C0109202050AC0C3
:104120002F3F310529F024F08FEF8093020502C064
:10413000209302058091AA0585FD05C080912D047C
:10414000882309F474C0C0910101CF5FC0930101BD
:104150008EE0CED6C770EC2FF0E0EE0FFF1FEA5DC9
:10416000FC4F9183808388E0C0E0D0E08150E82F4D
:10417000F0E0EE0FFF1FEA5DFC4F20813181C20F9E
:10418000D31F8111F3CF209132043091330447E0E3
:10419000429FC001439F900D11248C0F9D1FA3E0EF
:1041A00096958795AA95E1F790933304809332040E
:1041B0008091AA0585FF3BC029EA3CEC48E050E429
:1041C00060918405709185058091860590918705A1
:1041D0000E94EE2E6B017C01BE0180E090E00E9407
:1041E000D32D9B01AC01C701B6010E94EE2E0E94A7
:1041F000A72D40910505509106054115510529F45B
:10420000709306056093050512C09A01220F331FB3
:10421000240F351F2E5F3F4FA901460F571F56959C
:10422000479556954795509306054093050580910F
:10423000AA0586FD05C080912E04882309F480C05C
:1042400080912A04882349F020E137E240E050E0E1
:1042500061E08FE018D6CB0102C08FE049D6E09133
:104260000001EF5FE0930001E770F0E0EE0FFF1F49
:10427000EA5EFC4F9183808388E0C0E0D0E081500B
:10428000E82FF0E0EE0FFF1FEA5EFC4F2081318146
:10429000C20FD31F8111F3CF209134043091350424
:1042A00047E0429FC001439F900D11248C0F9D1F3A
:1042B00033E0969587953A95E1F79093350480938E
:1042C00034048091AA0586FF3BC02DE032E348EC20
:1042D0005CE3609188057091890580918A059091D1
:1042E0008B050E94EE2E6B017C01BE0180E090E008
:1042F0000E94D32D9B01AC01C701B6010E94EE2E96
:104300000E94A72D409103055091040541155105C8
:1043100029F4709304056093030512C09A01220FDB
:10432000331F240F351F2E5F3F4FA901460F571F24
:104330005695479556954795509304054093030528
:1043400080916C058695823099F040F4882369F15C
:10435000813009F05FC081E1CBD512C0833049F1D3
:10436000843009F057C08091190590911A0523C037
:1043700020E23EE440E050E061E081E184D5CB0101
:10438000F9DD20918C0530918D0540918E0550917D
:104390008F050E94EE2E0E94A72D709390046093CB
:1043A0008F0481E08093420435C08091910490E0B5
:1043B00002C080E090E0DEDD0E94A72D70939004A3
:1043C00060938F0480912F04882321F180912B0426
:1043D000882341F020E137E240E050E061E081E1F4
:1043E00052D503C081E184D5BC01209136043091BF
:1043F000370447E0429FC001439F900D1124680F8E
:10440000791F83E0769567958A95E1F77093370475
:1044100060933604DF91CF91FF90EF90DF90CF90C3
:1044200008951F93CF93DF9320913804222321F125
:10443000E091A305F0E0EE0FFF1FED5EFA4F8081E3
:10444000918130E0F901E35BF64F1491F901EF59E6
:10445000F64FE491F0E0EE0FFF1FE158F64FC591E3
:10446000D491F8942881212B28833DD48881E12F91
:10447000E095E823E8837894DF91CF911F91089528
:1044800088E194E00E94F40684E194E0FED5EBE339
:10449000F4E088E992E097A786A78CE992E095AFCF
:1044A00084AF80EB92E0909386048093850484EB44
:1044B00092E0909394048093930488EC92E090931C
:1044C000A2048093A1048CEC92E09093B0048093BA
:1044D000AF040895A4E0B0E0E0E7F2E20C9471309C
:1044E000A895ABD36B017C0128EE33E040E050E0AF
:1044F0000E941C303093A4042093A30424E1C2162C
:1045000025E0D206E104F10408F07FC006D6882336
:1045100009F479C011D68A3031F480918C048F5F10
:1045200080938C0402C010928C0480918C0484309F
:1045300068F38CB583608CBD65E171E084E194E043
:1045400038D6B12CE12CF12C912CA12CEFE0CE2E01
:10455000E1E0DE2E04E114E03FEFE316F10411F098
:104560000CF04BC0DAD58823B9F3E6D5823338F4A2
:104570008033D8F48A3081F38D3039F023C082370C
:1045800009F5A1E0EA1AF1081DC088E0981219C0E7
:10459000EA2DF0E0E25AFC4F8081B826A394EA2D80
:1045A000F0E0E25AFC4F10820CC0EA2DF0E0E25A33
:1045B000FC4F9081990F813309F49F5F908393940E
:1045C00001C0912CB0E4AB12C7CF6EE573E0C70118
:1045D0000E940D08EFEFEE1AFE0A1F92BF92DF92C3
:1045E000CF921F930F930FD60F900F900F900F90B5
:1045F0000F900F90B12CA12CAFCF6BE071E084E154
:1046000094E0D7D5CCC2DCDBCAC28091430483FDE1
:1046100086C080E4EEE5F3E0DF011D928A95E9F7BC
:1046200080919C0465E00E94DC2F913021F0933052
:1046300009F475C076C06ED500D34B015C01B4E6B9
:104640008B0E911CA11CB11C0AEF1FEFF6D286162F
:104650009706A806B906A0F024EC39E040E050E047
:1046600060E080E010D46F3F71058105910509F08D
:104670002CF4662319F0611708F4162F015031F756
:104680001F3F19F41091040102C0109304011B3064
:1046900088F01331B0F01D31D0F01832F0F01C3337
:1046A00018F1163938F570E8872E75E2972EA12C8F
:1046B000B12C26C0812C62EC962EAA24A394B12C96
:1046C0001FC0812C51EE952EA12CB12C19C0812C2C
:1046D00046E9942EA12CB12C13C030E8832E30E78C
:1046E000932EA12CB12C0CC0812C2BE4922EA12C4A
:1046F000B12C06C090EC892E92E1992EA12CB12C00
:104700008092060190920701A0920801B0920901DF
:1047100084E194E0B1D4C501B401BFD402C00E94C9
:10472000501780914204882309F4DEC0E0916305AC
:10473000E33008F4CDC0B0909A04E33029F48091BE
:104740003D0490913E043BC08BEF8E0F843040F4CB
:10475000F0E0EE0FFF1FE75FFA4F808191812FC0DD
:104760008091190590911A05E43049F58091FD0476
:104770009AEF980F923008F471C09091E80489176D
:1047800089F08093E80460E070E084EE94E00E9499
:104790004E109091E80480910A01981303C081E0C3
:1047A0008093450484EE94E00E948014813D9740FC
:1047B00008F454C08091FD0480930A014FC02091F9
:1047C0006805211118C06091A5058D34F4E09F079C
:1047D00060F09C012C54344070E080E293E00E9431
:1047E0000930C9010E94F52F01C060E0B616B1F191
:1047F00060939A0433C02091AA0520FF13C0815B07
:1048000094408730974020F481E08093460426C08E
:1048100080914604882319F081E08093450410922A
:1048200046041CC08D5D95408B3D9540B8F405D283
:104830000091E4041091E5042091E6043091E7042E
:10484000061717072807390748F481E080934504C5
:1048500064EF71E084EE94E00E944E108091450474
:10486000882369F01092450480919A048F5F8093A9
:104870009A049091A505981710F410929A048091CB
:104880009A04B81629F191E09093420498E0EEE181
:10489000F4E0DF011D929A95E9F790914F0490FDA5
:1048A00012C0A8E5B4E0E2E0F1E094919D93319666
:1048B0009111FBCF90915F04890F80935F0463E0B7
:1048C00088E00E94631480914F048E7F80934F0490
:1048D0008091430480FD06C081608093430481E0A1
:1048E00080934104109242048091430480FF2FC0C2
:1048F0009091410491112BC08E7F8093430490913D
:10490000CE04992329F080914D04826080934D0458
:10491000809148048111A9C080914C0482FDB2C0ED
:10492000933070F08CE0E0EDF4E0AEEBB4E0019099
:104930000D928A95E1F780914C04846080934C0439
:104940000E94B1150E94231B81E080935304809143
:10495000F9049091FA04A091FB04B091FC048C1529
:104960009D05AE05BF0538F464E170E089EF94E081
:104970000E94651056DD8091F5049091F604A09197
:10498000F704B091F8048C159D05AE05BF0550F5F0
:1049900064E670E085EF94E00E94651012DB809180
:1049A0004C0484FB222720F991E0922790FB84F9A4
:1049B00080934C049923B1F080915204882369F0CC
:1049C0008F5F80935204833068F080919B048F5FE7
:1049D00080939B041092520405C080919B048F5FCA
:1049E00080939B048091F1049091F204A091F304D0
:1049F000B091F4048C159D05AE05BF0508F0CFC03D
:104A000064EF71E081EF94E00E94651081E0809393
:104A1000420490914C04986090934C0490919C04B3
:104A20009F5F90939C0490914B04892780934B0443
:104A3000882309F4B4C080914704816080934704BF
:104A400080914004853060F4809161058F5F809390
:104A50006105843038F00E946E070E94E90702C0A9
:104A600010926105109240049AC080914A0480FD22
:104A700053CF20914C042B7F20934C048160809372
:104A80004A044ACF8090BE049090BF04A090C00416
:104A9000B090C104C501B4019F7725E33AEF4EE819
:104AA0005CE30E94EE2EE3D72B013C012091D00461
:104AB0003091D1044091D2045091D304C501B40186
:104AC0000E94290C4B015C012091D4043091D50443
:104AD0004091D6045091D7046091C2047091C304F0
:104AE0008091C4049091C5040E94290C9B01AC01E3
:104AF000C301B2010E94EE2E2B013C01A5019401DD
:104B0000C501B4010E94EE2E69837A838B839C8356
:104B1000A3019201C301B2010E94EE2E9B01AC01E0
:104B200069817A818B819C81D8D60E94552F0E9401
:104B3000A22D6093BA047093BB048093BC0490933D
:104B4000BD04C501B4019F77FDD77093B80460938D
:104B5000B704C301B2019F77F5D77093B604609391
:104B6000B504A30192015058C501B40129D720EE24
:104B70003EE245E652E40E94EE2EE4D76A55710902
:104B80008091AD049091AE04FB01E81BF90BCF01BD
:104B90000E9474140E948D148093B904D1CE24967F
:104BA000E0E10C948D301F920F920FB60F921124FA
:104BB0002F933F938F939F93AF93BF938091AD05B6
:104BC0009091AE05A091AF05B091B0053091AC05C4
:104BD00023E0230F2D3720F40196A11DB11D05C040
:104BE00026E8230F0296A11DB11D2093AC058093EA
:104BF000AD059093AE05A093AF05B093B00580913D
:104C0000B1059091B205A091B305B091B40501969C
:104C1000A11DB11D8093B1059093B205A093B3057A
:104C2000B093B405BF91AF919F918F913F912F9118
:104C30000F900FBE0F901F9018952FB7F8946091AA
:104C4000AD057091AE058091AF059091B0052FBF75
:104C500008953FB7F8948091B1059091B205A09165
:104C6000B305B091B40526B5A89B05C02F3F19F038
:104C70000196A11DB11D3FBFBA2FA92F982F8827DC
:104C8000820F911DA11DB11DBC01CD0142E0660F37
:104C9000771F881F991F4A95D1F70895CF92DF9209
:104CA000EF92FF92CF93DF936B017C01D2DFEB0198
:104CB000C114D104E104F10479F0E4D0CADF6C1B23
:104CC0007D0B683E7340A0F381E0C81AD108E1086B
:104CD000F108C851DC4FECCFDF91CF91FF90EF90FE
:104CE000DF90CF9008958230910538F0880F991F9A
:104CF000880F991F05970197F1F70895789484B567
:104D0000826084BD84B5816084BD85B5826085BDC7
:104D100085B5816085BDEEE6F0E0808181608083AD
:104D2000EAE7F0E080818460808380818260808314
:104D30008081816080838081806880831092C1003F
:104D40000895CF93DF9390E0FC01E35BF64F24914D
:104D5000FC01EF59F64F8491882361F190E0880FB0
:104D6000991FFC01E757F64FC591D491FC01E1581A
:104D7000F64FA591B491611109C09FB7F89488814D
:104D8000209582238883EC912E230BC0623061F43E
:104D90009FB7F8948881322F309583238883EC91D4
:104DA0002E2B2C939FBF06C08FB7F894E8812E2B33
:104DB00028838FBFDF91CF91089590E0FC01E35BE2
:104DC000F64F2491FC01EF59F64FE491EE23A1F048
:104DD000F0E0EE0FFF1FE158F64FA591B4919FB799
:104DE000F894611105C08C91E22FE095E82302C090
:104DF000EC91E22BEC939FBF089590E0FC01E75CFF
:104E0000F64F2491FC01E35BF64F3491FC01EF591E
:104E1000F64FE491EE23A1F1222339F1233091F0F2
:104E200038F42130A9F0223001F584B58F7D12C00D
:104E3000273091F02830A1F02430B9F4809180001F
:104E40008F7D03C0809180008F77809380000DC09C
:104E500084B58F7784BD09C08091B0008F7703C07F
:104E60008091B0008F7D8093B000F0E0EE0FFF1FC7
:104E7000EB58F64FA591B491EC91E32381E009F44E
:104E800080E0089508950F931F9390E0FC01E35B89
:104E9000F64F7491FC01EF59F64FE491662311F03F
:104EA000672F01C060E0F0E0EE0FFF1FEB58F64FF8
:104EB0008591949189019A013F70462F672F0E9436
:104EC0007605611571058105910549F0DC01CB017D
:104ED0000196A11DB11DBC01CD019F7003C060E012
:104EE00070E0CB011F910F91089580930F010895F9
:104EF0008E3008F08E5020910F0190E4299F900190
:104F000011248770822B80937C0080917A008064CA
:104F100080937A0080917A0086FDFCCF80917800A2
:104F20002091790090E0922B0895A0E0B0E0EBE9A9
:104F3000F7E20C9479306C017A018B01C0E0D0E08B
:104F4000CE15DF0581F0D8016D918D01D601ED916F
:104F5000FC910190F081E02DC6010995892B11F09B
:104F60002196EECF7E01C701CDB7DEB7E8E00C9405
:104F700095306115710581F0FB0101900020E9F782
:104F80003197AF01461B570BDC01ED91FC9102807C
:104F9000F381E02D0995089580E090E00895E9CF30
:104FA0000895A1E2B0E0E7EDF7E20C9475306C01F2
:104FB000142FE52FCB01022F19A2223008F40AE0AA
:104FC0007E0121E2E20EF11C802E912CA12CB12C4D
:104FD000612F7E2FA50194010E941C30029F1019A1
:104FE000112481E0E81AF1081A3014F4105D01C0B0
:104FF000195CF7011083122FE32FCA01232B242BF6
:10500000252B31F7B701C601B4DFA196ECE00C9473
:1050100091302115310549F4DC01ED91FC910190AD
:10502000F081E02D642F09950895BBCF9A01AB0163
:1050300060E070E0EECF089561DEFDDF0E942A1F80
:10504000C8EDD8E247DA2097E9F3B2D0FBCF9091D0
:10505000C100892F807194FF0EC090913B06809112
:105060003C06981302C080E00895E0913C06F0E011
:10507000E754FA4F80810895EBE3F6E08181808365
:10508000E9E3F6E0808181830895FC0113821282B6
:1050900024E231E03183208308959B01AC018091AB
:1050A000C10084FD1092C10010923A061092390698
:1050B00010923C0610923B061216130614061506B3
:1050C000ECF4211581EE380741055105F1F082E03D
:1050D0008093C00060E079E08DE390E0CFD7CA0113
:1050E000B901615071098109910922E030E040E085
:1050F00050E0C4D73093C5002093C40088E9809362
:10510000C10086E08093C20008951092C00020E1A3
:1051100030E0F0CF1092C10008959091C100892F26
:10512000807194FF06C080913B0690913C06891BDC
:105130008F770895F2CF08959091C100892F8071E3
:1051400094FF14C090913B0680913C06981302C0D6
:1051500080E00895E0913C06F0E0E754FA4F80814A
:1051600090913C069F5F9F7790933C060895E4CF13
:1051700008959091C10094FF15C0909139069F5FEA
:10518000937020913A069217E1F3E0913906F0E02E
:10519000EB54FA4F8083909339068091C10080626E
:1051A0008093C1000895862FE4DF81E090E00895A8
:1051B00008950F931F93CF93DF938C01FB016491AC
:1051C000EF012196662351F0D801ED91FC910190F9
:1051D000F081E02DC8010995FE01F1CFDF91CF915B
:1051E0001F910F910895A0E0B0E0E8EFF8E287C7C3
:1051F0009E01275F3F4F4F81588560E08D819E81E2
:105200001AD0E2E098C7A0E0B0E0E8E0F9E277C7A2
:105210009E01275F3F4F4F81588561E08D819E81C0
:105220000AD0E2E088C7DC01ED91FC910190F081A9
:10523000E02D09950895A1E1B0E0E0E2F9E24FC761
:105240007C016C876A013901AE014F5F5F4F4A01F3
:10525000F6015C8550FD059150FF01916F0100231F
:1052600009F41FC3053241F450FD059150FF01912F
:105270006F01053261F405C00A3019F46DE0C70111
:10528000D2DF602FC701CFDF53013501E1CF10E03E
:10529000312C20E02032A0F40B3269F030F40032DF
:1052A00059F0033269F420612CC00D3239F000331B
:1052B00039F4216026C02260246023C0286021C008
:1052C00027FD28C080ED800F8A3078F426FF06C0C5
:1052D0009AE0199F800D1124182F13C0EAE03E9E1A
:1052E000800D1124382E20620CC00E3221F426FDD0
:1052F000D8C2206406C00C3611F4206802C00836FB
:1053000049F4F6014C8540FD059140FF01916F0184
:105310000111C0CF8BEB800F833018F42061005E49
:1053200006C08BE9800F833008F04DC12F7E26FF29
:1053300016E02F73522E053619F42064522E08C041
:10534000063621F4522F5068552E02C0111111500B
:1053500057FE05C01C3348F431E0310F07C0183048
:1053600038F030E027E017E005C03CE327E002C05A
:10537000212F30E0530184E0A80EB11CF3016081BD
:10538000718182819381032FA401398B0E941906B8
:105390003C012980398920FE02C023FE06C051FC51
:1053A00006C052FE06C000E205C00DE203C00BE2DB
:1053B00001C000E0822D8C7019F0011142C246C27A
:1053C00057FE0DC0360D24FE04C08A81813309F4D6
:1053D000315013165CF5393060F138E02AC056FCC4
:1053E00028C0812F90E08615970544F0FCEF6F16DA
:1053F000FFEF7F061CF0252D2068522E112359F057
:10540000E2E0F0E0EC0FFD1FE10FF11D8081803341
:1054100011F41150F3CF57FE0CC031E0310F812F42
:1054200090E06816790624F4161903C031E001C033
:1054300010E057FE06C01614170434F4C301019699
:1054400005C085E090E002C081E090E00111019686
:10545000112331F0412F50E04F5F5F4F840F951FB4
:10546000432D50E08417950714F4381A01C0312CED
:10547000852D897049F4332039F060E2C701398BFA
:10548000D2DE3A943989F7CF002329F0602FC70183
:10549000398BC9DE398953FC09C0332039F060E308
:1054A000C701398BC0DE3A943989F7CF57FE49C01E
:1054B000230177FE02C0412C512CC30101968419AF
:1054C0009509A401480F591F5E874D87A301431B0F
:1054D0005109588B4F87012F10E011950195110943
:1054E0005FEF4516550619F46EE2C7019CDE6414A1
:1054F00075044CF04F8558894415550524F4ED8505
:10550000FE85608101C060E3F1E04F1A51084D85CE
:105510005E854F5F5F4F5E874D87401651061CF0DA
:10552000C70181DEDDCF6414750409F049C08A81AA
:10553000863328F4853309F043C024FC41C061E37D
:105540003FC06A81613319F0522D5F7E252EC7015D
:105550006ADE111104C054FC13C065E612C06EE28D
:10556000C70161DE1E5F82E001E0080FF401E80F71
:10557000F11D6081C70157DE802F0113F5CFEBCFFE
:1055800065E4C70150DE77FC05C06114710439F48D
:1055900024FE05C07194619471086DE201C06BE254
:1055A000C70141DE60E38AE0681671042CF06F5F8A
:1055B0009AE0691A7108F7CFC70135DE60E3660D1E
:1055C000C70131DE36C1033631F0033779F00335D8
:1055D00009F052C020C05301E2E0AE0EB11CF3014D
:1055E0008081898301E010E0340113C05301F2E0AF
:1055F000AF0EB11CF3016080718026FF03C0612FE4
:1056000070E002C06FEF7FEFC301298B5AD18C018C
:1056100029892F7714C05301F2E0AF0EB11CF301BA
:105620006080718026FF03C0612F70E002C06FEFC1
:105630007FEFC301298B3AD18C0129892068522E32
:1056400023FD16C0832D90E00817190788F460E247
:10565000C701E9DD3A94F6CFF30157FC659157FE97
:1056600061913F01C701DFDD31103A94015011090A
:105670000115110589F7DDC0043611F0093659F519
:10568000530127FF09C0F4E0AF0EB11CF3016081A4
:105690007181828193810AC0F2E0AF0EB11CF301E7
:1056A00060817181072E000C880B990B2F76522E8A
:1056B00097FF09C090958095709561957F4F8F4FAA
:1056C0009F4F2068522E2AE030E0A4010E94BB05C3
:1056D000682E681848C0053729F42F7E522E2AE01C
:1056E00030E025C0F22FF97F5F2E0F36C1F018F49D
:1056F000083579F0D6C0003719F0083721F0D1C04D
:105700002F2F2061522E54FE0DC0452D4460542E83
:1057100009C024FF0AC05F2F5660552E06C028E03E
:1057200030E005C020E130E002C020E132E053016A
:1057300057FE09C084E0A80EB11CF301608171819D
:105740008281938108C0F2E0AF0EB11CF301608149
:10575000718180E090E0A4010E94BB05682E68186A
:10576000F52DFF775F2E56FE0BC0052D0E7F6116BF
:1057700050F454FE0AC052FC08C0052D0E7E05C030
:10578000762C052D03C0762C01C0712E04FF0DC0B0
:10579000FE01E60DF11D8081803311F4097E09C000
:1057A00002FF06C07394739404C0802F867809F0BA
:1057B000739403FD0FC000FF06C0731478F4360C19
:1057C000132D17190CC0731450F460E2C7012BDDC0
:1057D0007394F9CF731418F4371802C0162D312CB6
:1057E00004FF0BC060E3C7011EDD02FF12C001FD14
:1057F00002C068E70CC068E50AC0802F867849F0CF
:1058000001FF02C06BE201C060E207FD6DE2C7016B
:105810000ADD611628F460E3C70105DD1150F9CFF8
:105820006A94F401E60DF11D6081C701FCDC611092
:10583000F7CF332009F429CD60E2C701F4DC3A94B4
:10584000F8CF24E0231548F584E004C043E0431575
:1058500030F583E0381A53FC06C060E2C701E3DC90
:105860003A943110FACF002319F0602FC701DBDC26
:1058700023FE03C003E919E002C007E919E0F52D92
:10588000F0715F2EF8016491662399F25110605215
:10589000C701C9DC0F5F1F4FF5CF312CE6CF312C8C
:1058A000E7CF6196E2E137C4F89466C4FC01059045
:1058B000615070400110D8F7809590958E0F9F1F12
:1058C0000895FC016150704001900110D8F7809557
:1058D00090958E0F9F1F08955058BB27AA270ED072
:1058E00027C2F0D130F0F5D120F031F49F3F11F410
:1058F0001EF4C0C10EF4E095E7FBB6C1E92F3AD221
:1059000080F3BA17620773078407950718F071F4DC
:105910009EF552C20EF4E0950B2EBA2FA02D0B016E
:10592000B90190010C01CA01A0011124FF27591BE4
:1059300099F0593F50F4503E68F11A16F040A22FEA
:10594000232F342F4427585FF3CF4695379527955B
:10595000A795F0405395C9F77EF41F16BA0B620B5A
:10596000730B840BBAF09150A1F0FF0FBB1F661FA1
:10597000771F881FC2F70EC0BA0F621F731F841FE4
:1059800048F4879577956795B795F7959E3F08F00A
:10599000B3CF9395880F08F09927EE0F97958795C9
:1059A000089590D158F080E891E009F49EEF91D1EC
:1059B00028F040E851E059F45EEF09C05BC1FCC13A
:1059C000E92FE078D7D168F3092E052AC1F326170D
:1059D00037074807590738F00E2E07F8E02569F019
:1059E000E025E0640AC0EF6307F8009407FADB01E2
:1059F000B9019D01DC01CA01AD01EF934AD098D1F4
:105A00000AD05F91552331F02BED3FE049E450FD82
:105A100049EC63CF0895DF93DD27B92FBF7740E8C6
:105A20005FE31616170648075B0710F4D92FCFD18E
:105A30009F938F937F936F9376D2E0E9F0E01DD12F
:105A400077D12F913F914F915F91D4D1DD2349F0D0
:105A50009058A2EA2AED3FE049EC5FE3D0785D2759
:105A60004DDFDF9165C1DCD008F481E0089539D1C4
:105A7000E3956FC10CD05CC12CD140F023D130F044
:105A800021F45F3F19F0F0C0511197C1F3C072D1FA
:105A900098F39923C9F35523B1F3951B550BBB27F5
:105AA000AA2762177307840738F09F5F5F4F220FA2
:105AB000331F441FAA1FA9F333D00E2E3AF0E0E89B
:105AC00030D091505040E695001CCAF729D0FE2FE7
:105AD00027D0660F771F881FBB1F26173707480779
