:10000000D7C300000C94EE1E0C94781FF9C30000B7
:10001000F7C30000F5C30000F3C30000F1C3000004
:10002000EFC30000EDC30000EBC30000E9C3000014
:10003000E7C30000E5C30000E3C30000E1C3000024
:100040000C940826DDC300000C94040B0C942A0BBE
:10005000D7C30000D5C30000D3C30000D1C3000044
:10006000CFC30000CDC3000027173D17C418C41824
:10007000C41863177017BF17DA170F1835185F18F1
:100080006918C418C418C418C418C418C41873183C
:10009000084AD73B3BCE016E84BCBFFDC12F3D6CEF
:1000A00074319ABD56833DDA3D00C77F11BED9E455
:1000B000BB4C3E916BAAAABE000000803F05A84C35
:1000C000CDB2D44EB93836A9020C50B99186880801
:1000D0003CA6AAAA2ABE000000803F0664EC1B3C96
:1000E00004BC163E3BE5B93CC93C37C29E5A3D664E
:1000F0000498083EEA69AAAA3E000000803F74699D
:100100006D653D256C640A003A2000636E7400033F
:1001100002010053637265656E2030007374616381
:100120006B20626F74746F6D203D2025780A006C1F
:100130006F6F702074696D65203D2025646D73209C
:100140006C6F73742062797465733D25640A007264
:10015000657374617274204D415821207673796EF5
:10016000635F636F756E743D25640A0074696D6525
:100170003D256C640A002320756E706C7567536CA6
:10018000617665730074696D653D256C640A0023B2
:10019000317A7A7A7A7A0A0023626F6F7400FF707C
:1001A000673D25752070733D2575006372633D259D
:1001B0007520623D256C6420626C3D2575002537F5
:1001C0002E32660025362E3166009125372E326696
:1001D00000A125372E326600BE010B68970500C4CA
:1001E000018F682B0600C40114738F0500C4011D24
:1001F00073870500C40112688B0500CA0190767FE1
:100200000500D101A0767B0500C401BD6183050016
:10021000C4015777770500C4010166270600FF7304
:100220007461636B20626F74746F6D203D2025785C
:1002300000FF7061636B65747320676F743D257593
:1002400020736B69703D2575006C6F6F7020746949
:100250006D653D25646D73206372632064726F70F9
:10026000733D2575FF2062797465733D256C6420AC
:100270006C6F73743D2575004E6F20696E707574D8
:10028000206461746121202575FF00B8B900253410
:10029000690507002534690506006F7665726C6F85
:1002A00061640066726F7A656E0053747265616D89
:1002B000002534690500FF20CECECECE60CECECE56
:1002C000CE00FF20202024CB7C40CB2400828081E4
:1002D000808180848081808180838081808180850D
:1002E000808180818020C8C8C8C87EC8C8C8C8208E
:1002F000FF0020202024CBB8B9CB24202020FF00F1
:100300002058650025322E3066002520342E3066B8
:10031000002520342E3166002520342E326600520E
:1003200025332E306605005025332E3066050048F3
:1003300025332E306605004225352E3166050045F1
:1003400025352E3166004525342E30666D00734507
:1003500025352E3166001F036E6925060027036EC2
:10036000692306002F036E69210600370354691FB5
:1003700006003F0341681B0600460358691106004A
:100380004E0341731706002090910025352E3166EB
:1003900000432564253569FF002569002E25346456
:1003A000001F1C1F1E1F1E1F1F1E1F1E1F25303259
:1003B00069FF003A253032693A0020207820207900
:1003C00020207AFF0020B3FF20B3FF20C5FF20B319
:1003D000FF20B300B2FFB2FFC6FFB2FFB200B0B160
:1003E000B4B5B6B77B7D676F74206174746974753A
:1003F000646520726F6C6C3D25642070697463685D
:100400003D256420686561643D25640A004261649D
:1004100020436F6E6669673A202564206D79203726
:1004200039004D696E696D4F53442D457874726182
:10043000204D535020322E34FF756E6920723933AF
:1004400036204456FF0015181A0001640800025DAA
:100450000800036D12BC8438122605330800077BA0
:100460000C0034D10A0335CD0A04186B080006A924
:10047000110008250C0009081A0025670F008B7170
:100480000E0B0A20080019680A000D4B115C11CAF6
:10049000101116880E1212D80E1417CF0E1313CC8B
:1004A00008021412087F0F9312BD2E6F09571BC646
:1004B000121D9C7C0D151D630F000E0313091E6A8F
:1004C00013002147090020EC0A0022910E8F2477A7
:1004D000101F2B69091F2C460D002D210D002F0424
:1004E0000D001FD70900267A090030860700310564
:1004F0000900334F070023020C0032990B009A9831
:100500000F00000000002E253032640043256920D2
:1005100000350522051D0530052C052705686F727D
:100520006900616E676C00706F73680072746C00B4
:10053000616C7468006163726F004805420555057F
:100540004F0525392E3566002531302E36660025BB
:1005500030356C64002530366C6400D605CD05C29C
:1005600005B505AA059D05910586057A056F054621
:10057000656E636520466172210046656E63652085
:1005800048696768210046656E6365204C6F772176
:1005900000426174742042206C6F772100486967C3
:1005A00068205653706565642100204C6F77205297
:1005B000737369210042617474657279204C6F779E
:1005C00021004F76657253706565642100202053C9
:1005D00074616C6C21004E6F20475053206669781F
:1005E000210025342E30660025342E316600253456
:1005F0002E32660025352E326600253269002533FD
:1006000069002534690025332E3066000001540549
:100610000102580502035C0503046005050064053A
:100620000A0668050B076C051300700552B80E40EA
:1006300085EB51401966BB0012800C1CA0141E668D
:100640006666400000803F100CBA000A00001BE8FC
:10065000031A000000080002010000030407000064
:100660000000000000000102040810204080010288
:1006700004081020010204081020040404040404E7
:100680000404020202020202030303030303000044
:10069000000023002600290000000000250028009B
:1006A0002B0000000000240027002A006E616E006D
:1006B000696E660000407A10F35A00A0724E180965
:1006C0000010A5D4E80000E87648170000E40B54B9
:1006D000020000CA9A3B000000E1F5050000809688
:1006E0009800000040420F000000A08601000000BA
:1006F000102700000000E803000000006400000074
:1007000000000A00000000000100000000002C763C
:10071000D888DC674F0823DFC1DFAE59E1B1B79657
:10072000E5E3E453C63AE651997696E8E6C28426B4
:10073000EB898C9B62ED407C6FFCEFBC9C9F40F290
:10074000BAA56FA5F490055A2AF75C936B6CF9670C
:100750006DC11BFCE0E40D47FEF520E6B500D0EDD1
:10076000902E0300943577050080841E0800002039
:100770004E0A000000C80C333333330F986E1283D7
:100780001141EF8D2114893BE65516CFFEE6DB18AB
:10079000D1844B381BF77C1D901DA4BBE424203270
:1007A00084725E228100C9F124ECA1E53D27FD257C
:1007B00011241FBECFEFD8E0DEBFCDBF11E0A0E017
:1007C000B1E0E2EDF2E602C005900D92AC33B10764
:1007D000D9F726E0ACE3B1E001C01D92A93CB20715
:1007E000E1F713E0C8EDD3E004C02197FE010E94B9
:1007F0001331C73DD107C9F70E949E280C94052DDF
:10080000FFCBCF92DF92EF92FF920F931F93E82FCF
:10081000F92F05C0015011092109310961F19081B9
:1008200096239417B9F305C0015011092109310924
:1008300011F1908196239413F7CFC12CD12CE12C88
:10084000F12C0AC08FEFC81AD80AE80AF80A0C156A
:100850001D052E053F0579F080818623841791F3CD
:100860006C2D7D2D8E2D9F2D1F910F91FF90EF9060
:10087000DF90CF90089560E070E080E090E01F91FD
:100880000F91FF90EF90DF90CF900895FA01AA2783
:10089000283051F1203181F1E8946F936E7F6E5FC3
:1008A0007F4F8F4F9F4FAF4FB1E03ED0B4E03CD071
:1008B000670F781F891F9A1FA11D680F791F8A1F54
:1008C000911DA11D6A0F711D811D911DA11D20D0BB
:1008D00009F468943F912AE0269F11243019305D75
:1008E0003193DEF6CF010895462F4770405D419366
:1008F000B3E00FD0C9F7F6CF462F4F70405D4A33B3
:1009000018F0495D31FD4052419302D0A9F7EACF7A
:10091000B4E0A6959795879577956795BA95C9F7A9
:1009200000976105710508959B01AC010A2E06949C
:100930005795479537952795BA95C9F7620F731F55
:10094000841F951FA01D0895283008F027E0332745
:10095000DA01990F311D87FD9160009661057105DF
:1009600039F432602E5F3D9330E32A95E1F7089524
:100970009F3F30F080387105610509F03C5F3C5FB6
:100980003D93913008F08068911DDF93CF931F93C2
:100990000F93FF92EF92192F987F9695E92F9695D6
:1009A0009695E90FFF27E25FF84F99273327EE244A
:1009B000FF24A701E70105900894079428F4360F57
:1009C000E71EF81E491F511D660F771F881F991FCC
:1009D0000694A1F70590079428F4E70EF81E491F26
:1009E000561FC11D770F881F991F661F0694A1F718
:1009F0000590079428F4F80E491F561FC71FD11DF4
:100A0000880F991F661F771F0694A1F7059007941A
:100A100020F4490F561FC71FD81F990F661F771F55
:100A2000881F0694A9F784911095177041F0D69508
:100A3000C79557954795F794E7941A95C1F7E4EB56
:100A4000F6E0689415901591359165919591059012
:100A50007FE27395E118F10A430B560BC90BD009DD
:100A6000C0F7E10CF11E431F561FC91FD01D7EF4B5
:100A7000703311F48A95E6CFE894015030F0080FF6
:100A80000AF40027021708F4202F2395022F7A3347
:100A900028F079E37D932A95E9F710C07D932A9594
:100AA00089F6069497956795379517951794E118E9
:100AB000F10A430B560BC90BD00998F023957E9190
:100AC00073957A3308F070E37C932013B8F77E9126
:100AD00070617D9330F0839571E37D9370E32A9587
:100AE000E1F71124EF90FF900F911F91CF91DF91CB
:100AF000992787FD9095089580E0089580E00895F6
:100B000080E0089508955E9A08956FE070E080E0B7
:100B100090E00C948326682F80E045C7882311F06D
:100B200080E401C080E090911F03981741F080930A
:100B30001F035E9880911F038C61EDDF5E9A08951C
:100B40005E988091180481FD06C08091170483FF90
:100B500019C081E018C080EA31D780FF06C081E06B
:100B6000DDDF80911704886007C081FF08C080E046
:100B7000D5DF80911704877F8093170405C082FD1D
:100B8000E4CF02C080E0CADF5E9A0895CF93DF937E
:100B9000E0911D04E43008F0E0E0F0E0E15FFE4F9A
:100BA000C49180E1D1E0D80F6C2FFDD68D2FD032CB
:100BB000C9F7DF91CF9108955E98E8DF60915B04FB
:100BC00082E0F1D660915A0483E0EDD65E9A0895F2
:100BD0005E988CEEF3D6682F6F7E8CE6E4D662E1E9
:100BE0008CE0E1D680911F038C6395DF0E947A161A
:100BF00080911F038C618FDFDFCFCF93DF935E98EF
:100C0000C0E1DFEFC15049F480911F03826083DFB0
:100C10007CDFDEDFDF91CF91089580EACFD6877049
:100C200099F784E0815031F0DEBD0DB407FEFDCFB1
:100C30009EB5F8CF6ADFE6CF209120038091210393
:100C400090E03EE1239F800D911D112490933D0182
:100C500080933C0108958F71809321036F7060939E
:100C6000200380911F03803411F0673008F4E4CF33
:100C7000635060932003FBCF90912003690F909104
:100C80002103890F9EE1699FB0011124680F711D36
:100C900070933D0160933C01089520913C01309197
:100CA0003D01213E91E0390758F4A9014F5F5F4FA4
:100CB00050933D0140933C01F901E25CFE4F80837B
:100CC00008958F3F31F4809120038F5F809320033C
:100CD000B3CFE3CF862FF5DF81E090E00895CF9387
:100CE000C42FCADF8C2FEDDFCF9108958FEF809353
:100CF0001E035E9860E085E056D660E086E053D63D
:100D000061E084E050D65E9AEEE3F1E080E25E9826
:100D100090819EBD0DB407FEFDCF9EB581935E9A76
:100D200093E0EF31F90798F36BE071E089E293E02B
:100D30000E94A42868E071E089E293E00E94A42860
:100D40002AE030E041EE51E060E070E089E293E0BB
:100D50000E944E280E9464290E9452269F938F93DE
:100D60007F936F938EEF90E09F938F9389E293E050
:100D70009F938F930E94BE280E9464298DB79EB7CF
:100D800008960FB6F8949EBF0FBE8DBF0895E82F4A
:100D9000F0E0EE0FFF1FEF5FF94F208131816623F6
:100DA00029F040E253E088E998E004C048EE53E0BF
:100DB00080ED97E02417350780F0241B350B841B4A
:100DC000950B65E070E00E94AE30C9010E94AE3024
:100DD000862F653018F084E0089580E00895A1E042
:100DE000B6E0EFE9F5E080819181883E934028F4F8
:100DF0008D919C911197918380833296129685E014
:100E0000E73AF80781F7089590E0880F991FDC0111
:100E1000AF5FB94FFC01E156FA4F8D919C91208153
:100E20003181821B930B0895CF93DF9388E849DFCC
:100E3000CCE0D1E0888145DF898143DF8EE841DF66
:100E4000DF91CF910895CF93813110F08051FCCF85
:100E5000811101C080E1880FCEEFC80F80E98C0FAF
:100E600030DF81E98C0F2DDFCF91089585E229CF06
:100E700080E227CF8FEF25CF692FEDCE7F936F9341
:100E80009F938F938DE293E09F938F930E94BE2850
:100E90000F900F900F900F900F900F900895EF927A
:100EA000FF920F931F93CF9301E313E0C0E096FDF1
:100EB0001CC089E0E82EF12CF801819191918F01FD
:100EC0008C549440B7010E94AE3087E095E0D6DFA5
:100ED000C13011F4CFDF01C0CBDFCF5FC43061F789
:100EE0000FC0C6DFCF5FC43059F0F8016191719136
:100EF0008F0182E096E0C2DFC13099F7BBDFF2CF0D
:100F0000CF911F910F91FF90EF900895A0E0B0E076
:100F1000ECE8F7E00C943231D92F00914F03109197
:100F20005003209151033091520380919103882303
:100F300009F473C082EBE82E87E0F82EE4E6F0E0D7
:100F400090E9C92EDD24D394C70183709927892B9A
:100F500081F4C701BF010E94AE30892B31F4C70173
:100F6000B6010E94AE30892B21F461E08EE691E05B
:100F700003C060E08DE691E0A0E0B0E0081719073B
:100F80002A073B0718F440E050E008C0081B190B83
:100F90002A0B3B0B8FEFE81AF80AD6CFC42FFA01C1
:100FA000EF55FC4FE4914130510511F46111EF5FB1
:100FB0008E2F90E0A0E0B0E0081719072A073B0742
:100FC00050F0081B190B2A0B3B0B4F5F5F4F4C3047
:100FD000510521F7CCE08D2F0F5F1F4FD0E086FF2A
:100FE0000EC0B80187E095E049DFBE016F5F7F4F1B
:100FF00086E095E043DFB7018CE993E00DC0B701CF
:1010000082E096E03BDFBE016F5F7F4F86E095E0B8
:1010100035DFB80186E095E031DFCDB7DEB7E8E037
:101020000C944E31E1E1F5E08591949160E070E03F
:1010300025DF80917D03882311F086E842CE089554
:10104000CF9380918403882361F0C92F8091CB05D1
:10105000FADEC6FF06C06091CB0570E08EEF95E02A
:101060000DDFCF9108951F93CF93DF93C82F192FD2
:101070008091D405823019F020F0DFE003C0DFE179
:1010800001C0DAE2C095CC1FCC27CC1F11F016FFAF
:101090000DC06091D50570E08AEF95E0EFDECC23BE
:1010A00041F016FF06C08D2F0CDE03C08D2F09DE28
:1010B000F0CFDF91CF911F9108956091F30370916C
:1010C000F40384E992E0DACE6091F1037091F203C7
:1010D0008EE892E0D3CE1F93CF93DF93382F192F52
:1010E0002091F6052F55C091F805263008F046C02E
:1010F000D0E080E09C2F64E670E00E94AE30CB012F
:101100006138710540F029E820930C01805891095D
:10111000EDE0F1E012C02DE820930D016231710580
:1011200050F420918203222331F020E220930C011D
:1011300020930D0109C0ECE0F1E06AE170E00E944B
:10114000AE302DE8261B208337FF6EDE16FF06C06B
:10115000BE018AEF95E092DE89DE1AC06091270613
:10116000709128068091290690912A060E945B2E94
:1011700082E096E083DE81E0A4DD0AC024E6C29F1F
:10118000C00111246FEF70E00E94C230EB01B1CFBB
:10119000DF91CF911F91089560E070E08EEF95E0B0
:1011A0006DDE64CEEF92FF920F931F93CF93DF9388
:1011B0008C01D62FC42F6CE370E00E94AE307C010E
:1011C0008EEF95E05BDECC2341F0B70183EB93E03B
:1011D00055DECF776C2F70E010C0DD2331F08091A9
:1011E0008203882311F080E201C08AE36ADDC8012E
:1011F0006CE370E00E94AE30BC018DEA93E03EDE0D
:10120000CDB7DEB7E6E00C945031CF9380919103D7
:101210008823E1F0C92F60914B0370914C038091BA
:101220004D0390914E032CE330E040E050E00E94EB
:10123000D530DA01C901C5FF04C0462F406860E01F
:1012400004C0C6FB662760F940E0ACDFCF9108958B
:1012500040E060E0A7CFCF93C22F7F936F935F935F
:101260004F939F938F938DE293E09F938F930E9470
:10127000BE288DB79EB708960FB6F8949EBF0FBED6
:101280008DBFCC2311F08C2F1CDDCF910895CF930F
:101290008091FF0590910006FC013A96C491329628
:1012A000E491FC013D966591749180E090E00E948C
:1012B0008C2E2AE037ED43E25CE30E94A72FAB01BE
:1012C000BC012C2F8BE893E0C6DFCF91089520E07E
:1012D000C2CF40E050E0BA018EEE95E0F8CF4091E9
:1012E000130450911404609115047091160486E063
:1012F00096E0EDCF0F931F93CF93DF932091B4032C
:10130000222309F44DC04091B2035091B3032091C0
:10131000B7053091B8054217530709F441C0692F4A
:101320009091B1032AE1291B27FD0AC02695820F5F
:1013300092DC64EB73E08DE293E00E94EC2732C014
:1013400066FD1CC0219530E08091EF039091AF03C2
:10135000891B90E0B901660F771F0E94C23040914F
:10136000940341110DC0009729F0215031098217D3
:10137000930731F421E02093940302C080E090E0D1
:10138000EC01CC54DC4F8E01065E1F4F8991811118
:1013900002C06EDD07C095DCC017D107B9F7F9CFE1
:1013A0001092B403DF91CF911F910F910895292FCF
:1013B0008091B7059091B8058F739927029710F027
:1013C00026FF06C068E274E08DE293E00C94EC27FF
:1013D0000895CF92DF92EF92FF920F931F930E9496
:1013E000522600912203109123032091240330916F
:1013F00025036B017C01C01AD10AE20AF30A45EF0A
:10140000C41641E0D406E104F10498F0609322038D
:1014100070932303809324039093250380912603E4
:101420000E94462761E0811160E0809126030E94BE
:1014300026271F910F91FF90EF90DF90CF90089596
:101440000E94252D20EC3BE649ED57E40C94A72F94
:10145000CF92DF92EF92FF92CF93C42F6B017C016A
:10146000E894F7F8C701B6010E945B2E072E000C26
:10147000880B990B0E948E2E9B01AC01C701B6010F
:101480000E94252D9B01AC01C11105C060E074E2F2
:1014900084E799E404C060E070E583EC97E40E947F
:1014A000A72F0E94602ECF91FF90EF90DF90CF90FA
:1014B0000895CF93C42F28EE33E040E050E00E941F
:1014C000D530DA01C90140E06C2F6CDECF91089570
:1014D00096FB442740F96091E3057091E405809103
:1014E000E5059091E605E5CFCF93C82F6091BB0449
:1014F0007091BC048091BD049091BE040E945B2E4B
:10150000615071096F30774280F4C7FD02C086E1F7
:10151000D8DB4091BB045091BC046091BD04709134
:10152000BE0421E082EE95E096DECF910895CF9340
:10153000DF93282F86FB442740F9E42FF0E0DB01FE
:101540006D917D918D919C91EE0FFF1F25FF1AC02B
:10155000E25CFA4FC591D4917BDF9F938F937F9389
:101560006F93DF93CF938DE293E09F938F930E94CD
:10157000BE28ADB7BEB718960FB6F894BEBF0FBE63
:10158000ADBF08C0E65CFA4F25913491AB01BC01B8
:10159000C9019DDEDF91CF91089567E074E0892F46
:1015A000C6CF63E074E0892FC2CF7F936F939F9380
:1015B0008F9381E993E09F938F938DE293E09F93C4
:1015C0008F930E94BE288DB79EB708960FB6F894E9
:1015D0009EBF0FBE8DBF08950F931F93CF93DF93D0
:1015E00001E016E080E090E0F801619171918F01D7
:1015F000EC012196CE01D9DFCE012897A9F7DF9122
:10160000CF911F910F9108951F920F920FB60F92D5
:1016100011242F938F939F93EF93FF939091C60084
:101620008091C7068F5F8F772091C806821741F09F
:10163000E091C706F0E0EB5BF94F90838093C7061B
:10164000FF91EF919F918F912F910F900FBE0F906F
:101650001F9018951F920F920FB60F9211248F931F
:101660009F93EF93FF939091C6068091C5069817BC
:1016700079F0E091C606F0E0EF5BF94F808180934E
:10168000C6008091C6068F5F83708093C60605C032
:101690008091C1008F7D8093C100FF91EF919F9158
:1016A0008F910F900FBE0F901F901895EF92FF92A1
:1016B0000F931F93CF93DF938C01040F151FEC0141
:1016C0007B01E81AF90AC017D10739F0C7018C0F5E
:1016D0009D1F0E945F318993F6CFCDB7DEB7E6E05C
:1016E0000C945031EF92FF921F93CF93DF93182FFA
:1016F0007B01C0E0D3E0CE010E945F318F3F71F0EB
:10170000811103C0112351F01150111102C0F701D2
:1017100009952196C038F3E0DF0769F7DF91CF9193
:101720001F91FF90EF900895BC018DE293E00C941F
:10173000A4281F93CF93DF93182FD92F87FD0EC0B6
:1017400096FF04C0C0E085EC93E003C0C1E084EDE7
:1017500093E0EADF812F9D2F8FDB01C0C0E08091F5
:101760002F0690913006A0913106B0913206BC014F
:10177000CD0190589B01AC010E94262D0E945B2E4A
:1017800080916E0382FF05C0CB016CE370E00E9484
:10179000C230D5FF05C0CB016AE070E00E94C230C4
:1017A000D4FF06C077FF02C06F5F7F4F75956795C6
:1017B00016FF08C077FF02C06D5F7F4F7595679574
:1017C000759567959B01235D3F4F37FF02C02F5FE3
:1017D0003F4FC9019595879569E070E00E94C2303E
:1017E00065302CF467FD06C04FEC481B05C04EE782
:1017F00064E002C040E660E08C2F71DADF91CF91A7
:101800001F910895CF93DF9387FD03C08AEB93E088
:101810008BDFCFE3D3E0499159916991799186E0CB
:1018200096E055DD83E0CB34D807A9F723DBC9E385
:10183000D3E0699179918EEF95E020DB83E0CF339F
:10184000D807B9F7DF91CF910895FF920F931F93B7
:10185000CF93DF93D92F8095182F111F1127111FB8
:1018600039F096FD05C095FF36C082EF92E05CDF4F
:1018700083EC27DA2091C5053091C60548E1429FE7
:10188000C001439F900D11240C9668E671E00E9400
:10189000C23064507109C62F77FF02C0C8E1C60F7D
:1018A000D5FBFF24F0F8D5FD02C009E001C00AE035
:1018B000EC2FF0E0E353FD4F849103DACF5FC831A2
:1018C00008F0C0E00150A1F787E8FBD9112371F0BF
:1018D000D6FD04C00BC085EE92E0C9CFF11003C065
:1018E00086EB92E002C082EC92E01EDFCDB7DEB75D
:1018F000E5E00C9451311F93CF93DF93409107049F
:10190000509108046091090470910A04452B462BFC
:10191000472B69F44091030450910404609105043D
:1019200070910604452B462B472B09F438C094FDD3
:1019300002C01FEF01C010E2EC01809182038823F6
:10194000C9F080918E038A3040F08AEA92E0ECDEA2
:10195000812FB7D983EA92E00BC080918F038A3040
:1019600048F08AEA92E0E0DE812FABD98AE992E082
:10197000DBDE15C0C095CC1FCC27CC1F11F083E057
:10198000A0D963E074E08D2FD2DD812F9AD9CC23CA
:1019900011F084E096D967E074E08D2FC8DDDF9107
:1019A000CF911F9108958EBD0DB407FEFDCF8EB56A
:1019B0006EBD0DB407FEFDCF8EB508958EBD0DB47E
:1019C00007FEFDCF8EB58FEF8EBD0DB407FEFDCFA8
:1019D0008EB508958AEA90E00C94BC260E943829BE
:1019E000811101C0F7CF089595FB222720F994FDBE
:1019F00002C090E001C092E0922B86FD02C080E020
:101A000001C084E0892B08951F93CF93DF93182F93
:101A1000EBDF8C5FC82FD0E017FD06C0BE016F5F03
:101A20007F4F8CE095E02ADACC0FDD1FCF5FD94FD6
:101A30006881798182E096E021DADF91CF911F9170
:101A400008951F93CF93DF93182FC92FCDDFD4E0D4
:101A5000D80F17FD07C06D2F70E06F5F7F4F89E9CA
:101A600093E00CDAC6FB662760F98D2F90D9D82F4A
:101A7000C0E0CD1302C081E801C080E822D9CF5F69
:101A8000C530B9F7DF91CF911F9108951F93CF9380
:101A9000DF93182FC92FA8DFD4E0D80F17FD07C098
:101AA0006D2F70E06F5F7F4F8CE095E0E7D9C6FB4C
:101AB000662760F98D2F6BD961E676E013DEDF9142
:101AC000CF911F91089596FB222720F930E095FDD4
:101AD00003C080E090E002C082E090E0282B392B28
:101AE000215031092330310528F4F901EE5EFE4F13
:101AF0008081089580E00895CF92DF92EF92FF9267
:101B0000CF93DF93D82FC92FDEDF80930801C7FD65
:101B100046C0C4FF2AC081E08093890329E838E8E1
:101B200048E85CE360912F067091300680913106A1
:101B3000909132060E94A72F6B017C010E945B2EC0
:101B40009B0177FF04C022273327261B370B2A303F
:101B50003105FCF4D6FD03C088E193E002C081E1C9
:101B600093E028E1B701A60112C010928903E09129
:101B7000FF05F09100067296249140912F06509136
:101B8000300660913106709132068AE093E063DBA3
:101B900006C0243631051CF38AE093E0E2CFDF91E2
:101BA000CF91FF90EF90DF90CF900895A2E0B0E04A
:101BB000ECEDFDE00C9438319091AF05682F70E0AA
:101BC000660F771F80E8989F600D711D112442E019
:101BD00050E0CE0101966ADD89819A812296E2E089
:101BE0000C9454310F931F93CF93DF93EC018B012F
:101BF0000E945226DC01CB01800F911FA11DB11D57
:101C000088839983AA83BB83DF91CF911F910F9122
:101C100008959B01FC014081518162817381420FD3
:101C2000531F611D711D4083518362837383089527
:101C3000E091FF05F09100063496659175918591CC
:101C400094910895CF92DF92EF92FF92CF93DF931A
:101C50006B017C01EDDFA70196010E94A72F6B01AC
:101C60007C0120E03CE34CE156E40E94EC2DC09165
:101C7000FF05D0910006FE0118163CF0399624911C
:101C8000B701A60182EE95E024C07096659174912B
:101C900080E090E00E948C2E9B01AC01C701B60150
:101CA0000E94F32D6B017C010E945B2E6A3071054E
:101CB00034F06436710534F082EE95E005C08EEEA6
:101CC00095E002C088EE95E0FE013F962491B701B1
:101CD000A601C1DADF91CF91FF90EF90DF90CF9016
:101CE000089596FB882780F980939303809184035D
:101CF000882369F097FD0BC06091CC057091CD05EC
:101D00008091CE059091CF050E948E2E9BCF089595
:101D10006091C1057091C2058091C3059091C40581
:101D200091CF60912B0670912C0680912D06909199
:101D30002E0688CFE091FF05F09100066591759120
:101D4000859194910895CF92DF92EF92FF921F9325
:101D5000CF93DF93EC016A017B01122FEBDFA70128
:101D600096010E94A72F112341F024EE38E34EE89C
:101D70005EE30E94A72F28E106C0E091FF05F091E5
:101D8000000638962491AB01BC01CE0164DADF91E4
:101D9000CF911F91FF90EF90DF90CF90089596FB29
:101DA000222720F940E050E0BA0186E096E0CBCF50
:101DB00096FB222720F94091B9055091BA05609110
:101DC000BB057091BC0586E096E0BDCFA0E0B0E019
:101DD000ECEEFEE00C943231EC01D62EFE010591C2
:101DE00014910115110509F469C0FE013296849120
:101DF00081110E946106FE01339684913196E5902F
:101E0000F490893691F030F4813609F43CC088367C
:101E1000C1F004C08337E9F0863719F150E2C52ECE
:101E200060E070E080E89FE337C0F7016081718176
:101E3000072E000C880B990B0E948E2E40E2C42EB8
:101E400032C0E091FF05F09100063996C490F0DEB3
:101E500023C0E091FF05F09100063896C4906ADF38
:101E60001BC0E6DE20918903211114C0E091FF051B
:101E7000F09100067296C49020E030E040E752E412
:101E80000E94A72F09C031E4C32E6AE077ED83E2F8
:101E90009CE302C028E1C22EF701208131814281FA
:101EA00053810E94A72F2C2DAB01BC01C801D3D9AF
:101EB0000E943A072796DA94D11090CFCDB7DEB7BB
:101EC000E8E00C944E3167E086E593E07FCFCF9356
:101ED000DF93D82FC92F0E943C0788E00E9461063B
:101EE0006091E3057091E4058091E5059091E60528
:101EF00040E0DFDA6AE088ED91E068DFC6FF05C008
:101F00006C2F8AE08D0F0E942B0683E00E946106F1
:101F100063E074E080E00BDB0E943A0784E00E94FB
:101F2000610667E074E080E002DBDF91CF91089505
:101F30001F93CF93DF9380917C03882309F4C1C062
:101F400010927C03F7DE6091FD057091FE05809193
:101F50008803882351F021E090E08091D4058230FD
:101F600008F020E0C22FD92F02C0C0E0D0E0E091FD
:101F70001B04E11108C080911F04882321F0809187
:101F8000810380FDC2603091F8052091F6054091F3
:101F90002004442369F0CB0164E670E00E94AE3077
:101FA0006115710529F0842F90E068177907E4F036
:101FB000409126044423C9F054E6359FC001112402
:101FC000322F27FF02C031E0320F3595830F911D6C
:101FD00037FD9A95622F220F770B0E94C230842F13
:101FE00090E0681779070CF4C8608091250480FDA3
:101FF0000BC08091270490E02091E9033091EA031F
:102000002817390708F4C06180912F069091300697
:10201000A0913106B0913206E130A1F410911F0475
:10202000112381F0BC01CD019F770E945B2ECB0173
:102030006AE070E00E94C230812F90E08617970717
:102040000CF4C0628091FB059091FC05209159042D
:10205000222371F064E670E00E94AE3061157105D4
:1020600039F0822F90E06817790714F4C06405C036
:10207000209719F41092280324C09091280381E03E
:102080009111890F80932803809128034FEF480F07
:1020900021E030E002C0220F331F4A95E2F78B3077
:1020A00018F081E021E030E0A9014C235D23452BAD
:1020B00021F48F5F220F331FF2CF809328038917FB
:1020C000C9F2E0912803EE2341F0F0E0EE0FFF1F8C
:1020D000E75AFA4F8591949127DBDF91CF911F91B9
:1020E00008952FE632E143E85AE30C94A72FCF92EC
:1020F000DF92EF92FF92CF93DF93C091BF04D09114
:10210000C00496DD6B017C012AEF2C9FC0012D9F3E
:10211000900D1124BC01990F880B990B0E948E2EF3
:102120009B01AC01C701B6010E94A72FE091FF05FA
:10213000F0910006A8974CF03F96C491D2DFAB0116
:10214000BC012C2F8EEE95E006C039962491AB0190
:10215000BC0182EE95E07FD8DF91CF91FF90EF90A8
:10216000DF90CF900895CF93DF93611103C0C4EF48
:10217000D5E002C0C8EED5E0BC0180E090E00E944E
:102180008C2EAFDFAB01BC012DE0CE0164D8DF9116
:10219000CF9108950F931F93292F207495FF15C099
:1021A0006091C1057091C2058091C3059091C405ED
:1021B000222321F12091BD053091BE054091BF053C
:1021C0005091C0050E94252D19C060910B0470919B
:1021D0000C0480910D0490910E04222361F0009173
:1021E000FF03109100042091010430910204601B50
:1021F000710B820B930B0E948E2E73DF23DD1F91D8
:102200000F9108952091B7053091B805260F311D23
:102210003093B3032093B2038093B1038091EF0313
:102220008093AF03089597FF03C088599E4F089588
:10223000893621E0920714F0885691400895CF9393
:10224000DF93EC010E94522628813981CB01821B49
:10225000930BDF91CF91089581E08093760388E01E
:10226000EFE9F5E0DF011D928A95E9F780E09EDC59
:1022700090936F0380936E03089524E0880F991F55
:102280002A95E1F78C549F4F68E671E00E94C230B6
:10229000CB0101960895CF92DF92EF92FF921F93A8
:1022A000CF93DF93C0911106D0911206C83E83E010
:1022B000D8073CF4C9318CEFD8072CF4C9E1DCEF26
:1022C00002C0C7EED3E0E091FF05F0910006399619
:1022D000149160E070E08AEF95E00E943E070E9452
:1022E0003807A6DC212F40E050E0BA0182EE95E0ED
:1022F0000E942B090E943A0780911F0690912006A8
:1023000092DF2091C5053091C605821B930BB5DF86
:102310000E94230780E093E007DA8ADC6B017C01EE
:10232000BE01DD0F880B990B0E948E2EA70196012E
:102330000E94A72FAB01BC01212F82EE95E00E94E5
:102340002B09DF91CF911F91FF90EF90DF90CF90FD
:1023500008958091D2059091D305C29664E670E00D
:102360000E94AE302091C5053091C605CB01821B7D
:10237000930B59DF845B91099093D1058093D0052D
:102380007CDF885F0E9423076091D0057091D105A2
:1023900081EB92E00C943E07CF92DF92EF92FF9296
:1023A000CF93DF93EC016A017B019A01AB01688155
:1023B00079818A819B810E94EC2D87FF04C0C882AD
:1023C000D982EA82FB82DF91CF91FF90EF90DF907C
:1023D000CF9008958F929F92AF92BF92CF92DF924B
:1023E000EF92FF920F931F93CF938C014A015B01F1
:1023F000C22FFC01C080D180E280F38020E030E079
:10240000A901C701B6010E94EC2D882311F0C2304A
:1024100030F4F80180829182A282B3821DC0A701AC
:102420009601C501B4010E94252D4B015C016C2F62
:1024300070E080E090E00E948E2E9B01AC01C5010F
:10244000B4010E94F32DA70196010E94262DF801E8
:102450006083718382839383CF911F910F91FF904B
:10246000EF90DF90CF90BF90AF909F908F900895A6
:10247000CF93DF9397FD26C0C92F91E090939203ED
:102480009C2F21DBD82F6091FB057091FC0580E02B
:1024900090E00E948C2EAB01BC012D2F89EA94E0C4
:1024A00099DFC295C1706091A9047091AA048091CE
:1024B000AB049091AC040E94602EDC01CB016C2F28
:1024C00052DE08C081E090915904911101C080E072
:1024D00080939203DF91CF910895CF93DF93C92F1B
:1024E000F2DAD82F6091FD057091FE0580E090E052
:1024F0000E948C2EAB01BC012D2F85EA94E06ADF8F
:10250000C295C1706091A5047091A6048091A70442
:102510009091A8040E94602EDC01CB016C2F23DE79
:10252000DF91CF910895CF93DF93C92FCCDAD82FC5
:102530006091F9057091FA05072E000C880B990B34
:102540000E948E2EAB01BC012D2F8DEA94E042DF5C
:10255000C4FD03C0C4EFD5E002C0C8EED5E02AE058
:1025600037ED43E25CE36091AD047091AE0480917D
:10257000AF049091B0040E94A72FAB01BC012EE0E4
:10258000CE010E942B09DF91CF9108950F931F93E5
:10259000CF93DF93D92F80E090E045DE8C0124E6D5
:1025A00040E050E0BA0183E396E014DFD6FBCC278D
:1025B000C0F92C2F40E050E0BA0186E096E0C3DB82
:1025C0000E943A072091C5053091C605C801821BBB
:1025D000930B53DED5FD02C090E001C098E0890F57
:1025E0000E942307409133065091340660913506CE
:1025F000709136062C2F84E093E0A5DBDF91CF911C
:102600001F910F910895CF93DF93C92F5CDAD82FD4
:102610006091E9037091EA0380E090E00E948C2EC3
:10262000AB01BC012D2F81EB94E0D4DE6091B104AD
:102630007091B2048091B3049091B4040E945B2E17
:102640008EEF95E00E943E078091250480FD03C037
:10265000C4FD0E943607DF91CF9108958F929F921B
:10266000AF92BF92CF92DF92EF92FF926091F90505
:102670007091FA05072E000C880B990B0E948E2E84
:102680006B017C018090B9059090BA05A090BB05C4
:10269000B090BC054FDBA50194010E94A72F9B01C0
:1026A000AC01C701B6010E94F32D20E030E040E20A
:1026B00051E40E94A72FAB01BC0124E68BEB94E010
:1026C00089DEFF90EF90DF90CF90BF90AF909F900A
:1026D0008F900895A0E0B0E0E0E7F3E10C94323190
:1026E00020917D03222309F4FFC0C82F96FF15C057
:1026F00020E030E0A9016091B9057091BA058091A0
:10270000BB059091BC050E94EC2D882309F4ECC018
:10271000A5DF8C2F0E94740AE7C080911B048111F1
:1027200096C020E030E0A9016091B9057091BA052A
:102730008091BB059091BC050E94EC2D882309F483
:10274000D3C08CDF809180038823D1F01092DA050A
:102750001092DB051092DC051092DD0580912B06AE
:1027600090912C06A0912D06B0912E068093B50471
:102770009093B604A093B704B093B804109280036A
:102780002DEC3CEC4CE45DEB6091D6057091D705E7
:102790008091D8059091D9050E94EC2D87FF45C006
:1027A0002091B5043091B6044091B7045091B8041B
:1027B00060912B0670912C0680912D0690912E062B
:1027C0000E94252D20E030E0A9010E94A72F6B0177
:1027D0007C012EDA9B01AC01C701B6010E94A72F34
:1027E0006B017C010E945B2ECB016031774224F4A7
:1027F0001816190644F078C0C12C8CE3D82E8CE151
:10280000E82E86E4F82EC7FD03C08EEE0E94610616
:10281000E091FF05F091000639962491B701A601D9
:1028200082EE95E00E942B095FC08091F1039091A8
:10283000F20397FF59C080918203882319F088E83A
:1028400093E002C087E893E00E94940B4DC0D091C2
:10285000F8050D2F10E08091F505082E000C990B5E
:1028600008171907B1F16091E3057091E4058091B3
:10287000E5059091E6050E948C2E6B017C016D2F81
:1028800070E080E090E00E948C2E9B01AC01C701BB
:10289000B6010E94A72F6B017C014091F605042E22
:1028A000000C550B401B510BBA01550F880B990BAF
:1028B0000E948E2E9B01AC01C701B6010E94F32D30
:1028C00010DC0E94602E7093F4056093F305D093A2
:1028D000F505C7FD03C087E10E9461068091F305FD
:1028E0009091F4050E942809CDB7DEB7E8E00C947A
:1028F0004E312AE06FCDCF93DF93EC019A01AB010B
:10290000688179818A819B810E94262D68837983E1
:102910008A839B83DF91CF910895A7E0B0E0E3E93C
:10292000F4E10C9428318FE094E089DC1C0160E034
:1029300070E08FE094E056D9B10180E090E00E9411
:102940008C2ECFDB6A837B838C839D836091F9051A
:102950007091FA05072E000C880B990B0E948E2EA1
:102960006B017C016091FD057091FE0580E090E0B7
:102970000E948C2EA70196010E94A72F2CEA35EC0D
:1029800047E257E30E94A72FAB01BC0183E194E02B
:10299000B0DF109108018090D6059090D705A090E7
:1029A000D805B090D90544D92B013C0120E030E096
:1029B00040E752E4C501B4010E94A72FA301920190
:1029C0000E94A72FAB01BC01212F8FE296E002DD10
:1029D0002091F8058091F605082E000C990B422FE6
:1029E00050E08417950714F42093F60521E63BE0A8
:1029F00046E35BE3C701B6010E94A72F2A813B8112
:102A00004C815D810E94A72FAB01BC0187E296E05B
:102A100072DF8091EB039091EC032091250420FD5F
:102A20005FC020915F04309160043F832E8300914A
:102A3000610410916204021713074CF43E812F8148
:102A40001F830E83032F122F31E0398301C01982B7
:102A50003E812F814E815F814817590714F4382F2A
:102A6000292F632F722F061717070CF4B8018E81D8
:102A70009F81681B790B80E090E00E948C2E2B01D7
:102A80003C01B801EE81FF816E1B7F0B80E090E07E
:102A90000E948C2E9B01AC01C301B2010E94F32D58
:102AA00020E030E048EC52E40E94A72F0E945B2E09
:102AB000653671052CF477FF05C060E070E002C058
:102AC00064E670E0F981FF2331F084E690E09C0138
:102AD000261B370BB9017093EA036093E90304C026
:102AE0009093EA038093E90380911B04811104C051
:102AF0008091810380FD05C080917D03882309F4C6
:102B000067C0B10183EE95E084D880918403882367
:102B100099F02091B9053091BA054091BB055091CB
:102B2000BC056A817B818C819D810E94A72FAB01AE
:102B3000BC018BE296E0DFDE6091CC057091CD05A3
:102B40008091CE059091CF050E948E2EAB01BC01E5
:102B500087E995E021DC40E050E0BA0183E995E0A7
:102B60001BDC4091B9055091BA056091BB0570918D
:102B7000BC058FE895E010DC4091C1055091C2057D
:102B80006091C3057091C4058BE895E005DC40E0D9
:102B900050E0BA0187E895E0FFDB409113045091C3
:102BA0001404609115047091160487E795E0F4DB36
:102BB000B701A60183E895E0EFDBB501A4018FE73B
:102BC00095E0EADBB501A40170588BE795E0E4DB02
:102BD0002796E2E10C944431CF93DF93EC01CB01D3
:102BE000BA010E948E2E25E93FEB46ED53E30E9489
:102BF000A72F688379838A839B83DF91CF91089580
:102C00000E9452266093B1057093B2058093B3057C
:102C10009093B4058091B7059091B8059093B6054F
:102C20008093B50581E080937603809178038111CC
:102C300004C01092A2031092A10381E08093780354
:102C4000089580917703882329F09091750381E09E
:102C5000911180E00895CF9390916603992309F430
:102C600047C0E0915C04F0E0EE0FFF1FE75FF94F13
:102C700020813181CFB7882309F0F89480916304D3
:102C80008130D9F018F0823011F131C0E091640345
:102C9000F0916503908180916603892B8083C9013F
:102CA0000E94BC26E0916403F091650390818091BD
:102CB00066038095892380831AC090916603E09112
:102CC0006403F09165032D3D35406CF009C090918F
:102CD0006603E0916403F09165032C3D35401CF4DC
:102CE0008081982B03C08081909598239083CFBFDB
:102CF000CF91089566E970E080E090E00C9483261F
:102D000065E082E00E942B0682E294E00E94940B30
:102D10000E9452264AE050E08DE293E00E945E2835
:102D200080919003882359F061E081E00E942B0696
:102D30006091310470E08DE094E00E943E070E94B3
:102D40007606D8CF4F925F926F927F92AF92BF92EA
:102D5000CF92DF92EF92FF920F931F93CF93DF9367
:102D600094E5E92E95E0F92E20E2D22EC6EED3E0CE
:102D700009E213E030E1C32E0E943829882309F4C8
:102D800023C20E9447294091A3035091A40360915C
:102D9000A5037091A6034F5F5F4F6F4F7F4F409326
:102DA000A3035093A4036093A5037093A60390918B
:102DB00044059230A1F028F4992351F0913051F05C
:102DC00005C09430D1F080F0953011F19F5FF7C1CC
:102DD00091E0E8C18D3409F0F1C192E0F0C18E3389
:102DE00009F0ECC193E0EBC1813808F0E7C18093B2
:102DF00043058093420594E0E2C18093450590919C
:102E000042058927809342051092410595E0D7C17C
:102E100020914205282720934205E09141053091F9
:102E20004305E313C2C12111B3C110924605E8DE88
:102E3000E09145058E2F90E0FC01E456F109E43164
:102E4000F10508F0A1C1EC5CFF4F0C941331E09147
:102E5000460581E08E0F80934605F0E0EF53FB4F6F
:102E600080818093B0058091480590914905A0919B
:102E70004A05B0914B058E7F7FC1E0914605F0E099
:102E8000E953FB4F4081518162817381409350052A
:102E900050935105609352057093530580915405EA
:102EA00090915505A0915605B0915705842395231F
:102EB000A623B72321E0892B8A2B8B2B09F420E052
:102EC00020937D0361C1E0914605F0E0EF53FB4F95
:102ED000A1E0B6E08C2D01900D928A95E1F754C1E6
:102EE0008091460590E0FC01EF53FB4F2081209339
:102EF000D40521812093D505FC01ED53FB4F408182
:102F000051816281738183E094E066DEE091460541
:102F1000F0E0E953FB4F408151816281738187E08A
:102F200094E05ADEA0904605B12CF501E553FB4F25
:102F300080819181A0E0B0E080930B0490930C0419
:102F4000A0930D04B0930E04F501E353FB4F608191
:102F5000718180E090E00E948C2E6093B90570939F
:102F6000BA058093BB059093BC05F501E153FB4F77
:102F7000808191819093D3058093D20505C1809182
:102F8000460590E0FC01EF53FB4F4081518160E02A
:102F900070E04093CC055093CD056093CE057093BF
:102FA000CF05FC01ED53FB4F8081918166D9809361
:102FB000CB05EAC08091460590E0FC01EB53FB4F46
:102FC000208131812093C5053093C605FC01EF5364
:102FD000FB4F408151814093F3035093F403FC0174
:102FE000ED53FB4F808191818093F1039093F20325
:102FF0009F938F935F934F933F932F93DF93CF9341
:103000001F930F930E94BE280E946429EDB7FEB75C
:103010003A960FB6F894FEBF0FBEEDBFB5C0A090B4
:103020004605B12CF501EF53FB4F60817181828120
:1030300093810E948C2E6093C1057093C20580938A
:10304000C3059093C405F501EB53FB4F608171817B
:1030500080E090E00E948C2E6093D6057093D70597
:103060008093D8059093D9058FC020911704E091E3
:10307000460524FD11C08E2F90E0DC01AF53BB4FFD
:103080004D915C915093FE054093FD05DC01AE53DC
:10309000BB4F8C918093F80526FD0AC0AE2FB0E09F
:1030A000AA53BB4F8D919C919093FA058093F9059B
:1030B000F0E0EC53FB4F80818093EE0365C080917C
:1030C000480590914905A0914A05B0914B059D7F17
:1030D00053C08091480590914905A0914A05B0914F
:1030E0004B059B7F49C0B0904305F7018D2D119290
:1030F0008A95E9F741E050E060E070E0BB2099F18B
:10310000E091460581E08E0F80934605F0E0EF5395
:10311000FB4F20818CE096E0022E000C330BFC016B
:10312000A491EA2FF0E02E173F0791F4FC013296AC
:10313000A591B4914D905D906D907C901397442A29
:10314000552A662A772A4D925D926D927C9213974A
:103150000496F6E08C329F0711F7440F551F661F47
:10316000771FBA94CBCF8091480590914905A091E3
:103170004A05B0914B05977F809348059093490588
:10318000A0934A05B0934B055CDD8823B9F01CC0C1
:103190002091AB033091AC032F5F3F4F3093AC03D2
:1031A0002093AB03843251F40AC021E02E0F209308
:1031B0004105F0E0EF53FB4F808301C090E0909316
:1031C00044050E94EE0CD8CDDF91CF911F910F9155
:1031D000FF90EF90DF90CF90BF90AF907F906F9077
:1031E0005F904F900895CF93C82F84E20E946B297F
:1031F0008DE40E946B298CE30E946B2980E00E9481
:103200006B298C2F0E946B298C2F0E946B29CF91E8
:1032100008958FEF91E0A0E0B0E08093480590938F
:103220004905A0934A05B0934B05ECE4F5E0808195
:103230009181A281B3819170AA27BB27808391835A
:10324000A283B38308950F931F938091BA048111D1
:103250000BC00E94352960E072EC81E090E00E9492
:10326000F62881E08093BA049091B90481E089271F
:103270008093B9048111A5C0CCDF80914C05909159
:103280004D05A0914E05B0914F05892B8A2B8B2BB4
:1032900081F48091480590914905A0914A05B0912B
:1032A0004B0580934C0590934D05A0934E05B0932C
:1032B0004F0540914C0550914D0560914E05709120
:1032C0004F0588279927DC01841B950BA60BB70BAC
:1032D00084239523A623B7238C019D010095109587
:1032E00020953095402351236223732340934C054E
:1032F00050934D0560934E0570934F0580349105B2
:10330000A105B10509F44FC020F584309105A10550
:10331000B10509F454C068F481309105A105B105E7
:1033200009F44BC00297A105B10509F04AC085E632
:1033300047C080319105A105B10589F18032910521
:10334000A105B10571F10897A105B105D1F589E68F
:1033500037C0811522E09207A105B10541F160F463
:1033600080389105A105B10501F181159140A105B4
:10337000B10539F58EE624C0811528E09207A10534
:10338000B105B9F0811520E19207A105B10599F0C9
:1033900081159440A105B105A1F480E711C08AE62A
:1033A0000FC08BE60DC08CE60BC08DE609C08FE622
:1033B00007C087E705C08CED03C084E601C086E640
:1033C00012DF1F910F91089584E20E94D60D96FF9F
:1033D00008C08091CB0590E08C549F4F0E94131140
:1033E00004C08091C5059091C605880F991F8D96E0
:1033F0006AE570E00E94C23077FF03C0685F7F4FCC
:10340000FBCF67707727FB01E252FC4F8491089550
:1034100087FD03C0D9DF0E9461066091C5057091E8
:10342000C6058EEF95E00E943E0785E00C9461068C
:10343000ADE0B0E0EEE1FAE10C942831382E292E0F
:1034400096FD0AC0622D81E0830D0E942B0610912B
:103450006E0311FDA2C119C015E082EB0E94610646
:103460000DE0015019F00E943807FBCF133011F026
:1034700083EB01C085EC0E9461060E943A0711505F
:1034800009F3133051F786ECE9CF80911F038034A4
:1034900089F480904D0490904E04A0904F04B09019
:1034A0005004C0904904D0904A04E0904B04F0903E
:1034B0004C0410C08090550490905604A09057047E
:1034C000B0905804C0905104D0905204E09053043E
:1034D000F09054048091F3039091F403BC01990F90
:1034E000880B990B0E948E2E9B01AC01C701B6017F
:1034F0000E94A72F6B017C0110FF04C0F7FAF09423
:10350000F7F8F094C701B6010E945B2EAB016A3553
:10351000710540F09B012D543F4F2935310580F452
:1035200077FDA9014734510524F54A31510534F599
:103530004A30510548F128E02C8713EF30ED2DC0BB
:103540006B3571051CF0AB01435B5109CA0157FF94
:1035500003C091958195910987349105D8F48A31FA
:103560009105E8F40A9708F148E04C8715EF52EE10
:103570001AC01C861DEC81EC8D871CC097E09C87CF
:1035800018EFE9EDED8716C0F9E0FC871DEC26EC9D
:103590002D8710C01C861DEC31EC3D870BC047E029
:1035A0004C871BEF5BEE5D8705C089E08C871DECC7
:1035B00096EC9D8727EA32E94BE25CEBC501B4014A
:1035C0000E94A72F6E837F838887998725E33AEF30
:1035D0004EE85CE3C701B6010E94A72F6A837B8394
:1035E0008C839D835CE0E52EF12C1982EC850E2EF8
:1035F000000CFF0BFB87EA873981A32E330FBB0832
:103600006091F1037091F2036A0D7B1D072E000C8F
:10361000880B990B0E948E2E2E813F8148855985FB
:103620000E94A72F0E944F3020E030E044EB52E48C
:103630000E94A72F2B013C0120E030E0A9010E944D
:103640009C2F20E030E040E05FE387FD0BC0C3012A
:10365000B2010E94262D0E945B2E6B014DE2C40E2A
:10366000D11C0AC0C301B2010E94252D0E945B2E0D
:103670006B015DE2C50ED11C0DE00E198824992462
:103680008A189B08802F90E0E816F9060CF470C0A9
:103690006A817B818C819D810E944F302B013C018E
:1036A0008CE0089F602D11246E54062E000C770BC1
:1036B000880B990B0E948E2E9B01AC01C301B201B5
:1036C0000E94A72F0E945B2EF601E60FF71FCF0185
:1036D00001978A35910508F049C062E170E00E94C7
:1036E000C2302B019C85992379F031962EEE26036A
:1036F000C001279F900D1124E80FF91FF7FD3196A7
:10370000F595E7957E2E01C0712C64E064198FEF6A
:10371000800F0E943C063981332369F0053059F44B
:10372000B501B7FCB4014AE050E08DE293E00E949D
:10373000972806E004C08D85870D0E9461067720DA
:10374000A9F0272D30E04A855B852417350774F0F2
:1037500054E04516510451F0E72DE10F4AEF4E0FAA
:1037600063E064198FEF800F0E946F060F5F8ACFAE
:10377000D7FE0BC08981825E8983F4E0EF1AF108DD
:1037800024E0E216F10449F037CF9BE5C916D104D5
:1037900024F0E981EE51E983F0CF24FEB5C06090BA
:1037A000C9057090CA050091C7051091C805C801E8
:1037B00017FF04C088279927801B910B6AEF70E0E0
:1037C0000E94C230E62F472FC30177FE04C088272E
:1037D0009927861997096AEF70E00E94C2308E2FF0
:1037E000942F861797070CF4CB01BC016F5F7F4FB6
:1037F0007093C0046093BF04072E000C880B990BD4
:103800000E948E2E6B017C01B801110F880B990B61
:103810000E948E2E4B015C0124EE38E34EE552E40B
:10382000C701B6010E94A72F9B01AC01C501B401DD
:103830000E94F32D0E945B2E162FB62EB301770C3B
:10384000880B990B0E948E2E2B013C012DE63BED3F
:103850004EE052E4C701B6010E94A72F9B01AC01C4
:10386000C301B2010E94F32D20E030E040E05FE3AD
:103870000E94262D0E945B2E062F36FC09C0A4DD77
:1038800062E0611B482F85E0800F0E946F063CC0FC
:103890009091A705961304C08091A8058117E1F0C7
:1038A0008091AB059091AC059093AE058093AD05EA
:1038B0008091A9059091AA059093AC058093AB05E2
:1038C0008091A7059091A8059093AA058093A905DA
:1038D0000093A7051093A805C12CD12C32E0F32E3C
:1038E000F601E955FA4F87816F2D681B868144E206
:1038F0008B5F0E946F06F2E0CF1AD1082AEFC21642
:103900002FEFD20669F7BBCF37FC08C062E085E035
:103910000E943C068BE892E00E94940B25FEB6C004
:1039200080917D03882309F4B1C080911B0481112B
:103930007BC06091CC057091CD058091CE059091B2
:10394000CF050E948E2E9B01AC0160E070E0CB01A0
:103950000E94992D21EE3EE245EE52E40E94A72FEF
:103960000E945B2E6A5071092DE2269FC001279F9D
:10397000900D11246AE070E00E94C230CB018D9658
:1039800097FD01969595879569E070E00E94C23099
:10399000062F653058F41FEC181B412F8CE00E9455
:1039A0006F06412F602F81E00E946F068091CB054A
:1039B00090E020910E0130910F01821B930B0E9429
:1039C0001311853B910534F028E631E0A901481B2D
:1039D000590BCA019C01245B310948E4429FC00194
:1039E000439F900D11246AE070E00E94C230CB0129
:1039F000849666E070E00E94C23067FD07C06D30BB
:103A000044F40FEB080F11E0160F05C011E00CE3B2
:103A100002C01CE00EE3402F64E0812F0E946F067D
:103A2000402F60E0812F30C0C090C105D090C2050A
:103A3000E090C305F090C4050E94180EA7019601FE
:103A40000E94A72F20E030E040EA50E40E94262D9B
:103A50002DEC3CEC4CE850E40E94A72F0E945B2E1A
:103A6000862F9FEF960F9B3238F469E00E94A130B9
:103A70004FEC491B682F07C06C321CF064E04EE22B
:103A800002C060E04FEC86E00E946F062D96E2E1F6
:103A90000C944431A0E0B0E0E0E5FDE10C9432315B
:103AA0006B017C010E94A00580911B04C0917D03E5
:103AB00081111CC0CC2301F18091810380FF1CC0C7
:103AC0006091B9057091BA058091BB059091BC05D4
:103AD0000E945B2E623071057CF0C0921306D0927A
:103AE0001406E0921506F092160606C0C11104C035
:103AF00080917E038111F1CFC0937E0380915E049B
:103B0000853018F084E080935E0481EB95E00E949C
:103B10001F11853C994008F473C01092B9051092AA
:103B2000BA051092BB051092BC0562E085E00E94C8
:103B30002B066091B7057091B8058091B5059091FD
:103B4000B605681B790B88E792E00E943E0765E0A6
:103B500081E00E942B0680919F039091A0039F9388
:103B60008F938091A6038F938091A5038F9380916B
:103B7000A4038F938091A3038F938091AC038F93C1
:103B80008091AB038F938091A2038F938091A103C7
:103B90008F9389E492E09F938F93CDE2D3E0DF93FC
:103BA000CF930E94BE288091AA038F938091A9038E
:103BB0008F938091A8038F938091A7038F9381E3C4
:103BC00092E09F938F93DF93CF930E94BE288091C2
:103BD000090190910A019F938F938EE192E09F9348
:103BE0008F93DF93CF930E94BE2810927803EDB796
:103BF000FEB77C960FB6F894FEBF0FBEEDBFE9C0CE
:103C00008091180480FF68C0C0917D03C11123C05A
:103C10008091130690911406A0911506B091160696
:103C2000892B8A2B8B2BB9F060912B0670912C0677
:103C300080912D0690912E060E945B2E66307105B4
:103C400054F081E080938B030E94EF068091AF05D2
:103C500080935B033CC080918B038823E9F18091C2
:103C60005B039091AF05891721F08093AF05109207
:103C70008B0382E00E940407092E000CAA0BBB0BE9
:103C8000B7FF07C0B095A095909581959F4FAF4F16
:103C9000BF4F8D329140A105B1050CF097C083E074
:103CA0000E940407092E000CAA0BBB0BB7FF07C02C
:103CB000B095A095909581959F4FAF4FBF4F8D3296
:103CC0009140A105B1050CF081C0C1117FC081E018
:103CD00091E00E94670F7DC080915E04882329F0E7
:103CE0009091AF05981708F068C060E080E00E94EE
:103CF0002B0680919F039091A0039F938F938091B7
:103D0000A6038F938091A5038F938091A4038F9333
:103D10008091A3038F938091AC038F938091AB0329
:103D20008F938BEA91E09F938F93CDE2D3E0DF9363
:103D3000CF930E94BE288091AA038F938091A903FC
:103D40008F938091A8038F938091A7038F938EE91F
:103D500091E09F938F93DF93CF930E94BE288DB7FE
:103D60009EB744960FB6F8949EBF0FBE8DBFC6E4B3
:103D7000D4E0FE01D490CE010196FC01E590F490D0
:103D8000E114F10431F18D2D8F770E94D60D8C0155
:103D90000E943C0717FD0AC007FD0AC0FE013396CA
:103DA0008491882329F00E94610602C0D7FE03C0D7
:103DB000C801F70109952496DCCF83E093E00E94C7
:103DC0003C0783E093E00E94980F03C010928B039E
:103DD0007ECFCDB7DEB7E8E00C944E311F920F9244
:103DE0000FB60F9211242F933F934F935F936F93CE
:103DF0007F938F939F93AF93BF93EF93FF93CF9353
:103E0000DF931F92CDB7DEB781E080932703109236
:103E10007503809174038F5F8093740343D760931D
:103E20007003709371038093720390937303809176
:103E3000AD03882321F00E9476061092AD03CE01D7
:103E400001962091090130910A018217930720F40D
:103E500090930A01809309010F90DF91CF91FF9118
:103E6000EF91BF91AF919F918F917F916F915F91F2
:103E70004F913F912F910F900FBE0F901F9018956B
:103E8000CF92DF92EF92FF9219D76B017C0183E012
:103E9000FDD7813049F4C0926703D0926803E09265
:103EA0006903F0926A031FC08091670390916803D1
:103EB000A0916903B0916A030097A105B10599F03B
:103EC000C81AD90AEA0AFB0AD0926C03C0926B03A3
:103ED00010926703109268031092690310926A03AC
:103EE00081E080936D03FF90EF90DF90CF90089575
:103EF0001F920F920FB60F9211242F933F934F935F
:103F00005F936F937F938F939F93AF93BF93EF9341
:103F1000FF93B6DFFF91EF91BF91AF919F918F918A
:103F20007F916F915F914F913F912F910F900FBEB5
:103F30000F901F901895EF92FF920F931F93CF93BE
:103F40008C017B01C0E00E943829811106C0E11478
:103F5000F104C9F3F7010995F6CF0E9447298D3086
:103F600051F4F801EC0FF11D1082CF911F910F91C8
:103F7000FF90EF900895CC2319F08A3019F4F1CF17
:103F80008A3009F3F801EC0FF11D8083C035D8F6B3
:103F9000CF5FD9CFA0E5B0E0E0EDFFE10C94363182
:103FA0000FB6F894A89580916000886180936000B6
:103FB000109260000FBE60E071EE80E090E00E9421
:103FC000F62868E971E089E293E00E94A42889E27A
:103FD00093E00E94F6270E9464294EE450E060E0DE
:103FE00072E087E194E00E94560B8091170481FDF6
:103FF00003C08FE396E002C08CE296E09093000647
:104000008093FF05809131048F3421F48091320434
:104010008A3119F081E08093900384B58C7F84BD50
:104020008091180484FF02C081E001C083E079D749
:1040300080917A008B7F80937A0080917A008660ED
:1040400080937A00809169008C7F82608093690000
:10405000E89A80911C04813051F462E083E0BAD682
:1040600080916900837F846080936900E99A6FE89A
:1040700071E089E293E00E94A42814D69F938F9365
:104080007F936F9385E891E09F938F9309E213E00C
:104090001F930F930E94BE280E9464290E948305EB
:1040A00066E771E0C8010E94A428C8019FD70E945A
:1040B0006429F8D59F938F937F936F938CE691E05B
:1040C0009F938F931F930F930E94BE280E94642991
:1040D0000FB6F894DEBF0FBECDBF69EE79E0CE011A
:1040E000019629DFCE0101960E94E82C80932603D9
:1040F000F4CFE0910301EF5FE0930301E770F0E09C
:10410000EE0FFF1FEB56FB4F9183808388E060E04A
:1041100070E08150E82FF0E0EE0FFF1FEB56FB4FF1
:1041200020813181620F731F8111F3CF80E090E015
:104130000E948C2E20E030E040E05EE30C94A72F3C
:1041400097FD05C08F3F910509F01CF4089580E0AC
:1041500008958FEF0895CF92DF92EF92FF92CF9361
:10416000DF938091170484FF8AC0C0910201CF5F62
:10417000C093020180E1D8D6C770EC2FF0E0EE0FBB
:10418000FF1FEB57FB4F9183808388E0C0E0D0E0B6
:104190008150E82FF0E0EE0FFF1FEB57FB4F20811F
:1041A0003181C20FD31F8111F3CF8091170484FF97
:1041B00066C029E53EEE49E050E460913904709113
:1041C0003A0480913B0490913C040E94A72F6B011C
:1041D0007C01BE0180E090E00E948C2E9B01AC012E
:1041E000C701B6010E94A72F0E94602E4091FD05D5
:1041F0005091FE054115510529F47093FE05609319
:10420000FD0512C09A01220F331F240F351F2E5FA8
:104210003F4FA901460F571F56954795569547950D
:104220005093FE054093FD0581E080937603E09175
:1042300020048E2F61E20E949530482F8091FD0569
:104240009091FE05C29664E670E00E94AE30F0E008
:104250009B012E1B3F0BAFEFB0E00E9419315AE2D9
:10426000459F900111242E1B3F0B032E000C440B85
:10427000550B0E94F730C90163DF8093F8058091E8
:10428000170485FF8CC080919203882309F487C0AE
:10429000C0910101CF5FC09301018EE045D6C77088
:1042A000EC2FF0E0EE0FFF1FEB58FB4F9183808364
:1042B00088E0C0E0D0E08150E82FF0E0EE0FFF1F73
:1042C000EB58FB4F20813181C20FD31F8111F3CFF7
:1042D0008091170485FF63C029EA3CEC48E050E474
:1042E00060913D0470913E0480913F0490914004A0
:1042F0000E94A72F6B017C01BE0180E090E00E942C
:104300008C2E9B01AC01C701B6010E94A72F0E9411
:10431000602E4091FB055091FC054115510529F493
:104320007093FC056093FB0512C09A01220F331FA6
:10433000240F351F2E5F3F4FA901460F571F56957B
:104340004795569547955093FC054093FB05E091A2
:1043500059048E2F61E20E949530482F8091FB0511
:104360009091FC05C29664E670E00E94AE30F0E0E9
:104370009B012E1B3F0BAFEFB0E00E9419315AE2B8
:10438000459F900111242E1B3F0B032E000C440B64
:10439000550B0E94F730C901D3DE8093F705809159
:1043A000170486FF5EC08FE0BFD5E0910001EF5F8C
:1043B000E0930001E770F0E0EE0FFF1FEB59FB4FB9
:1043C0009183808388E0C0E0D0E08150E82FF0E066
:1043D000EE0FFF1FEB59FB4F20813181C20FD31F1E
:1043E0008111F3CF8091170486FF3BC02DE032E3AB
:1043F00048EC5CE360914104709142048091430475
:10440000909144040E94A72F6B017C01BE0180E0C3
:1044100090E00E948C2E9B01AC01C701B6010E9466
:10442000A72F0E94602E4091F9055091FA05411581
:10443000510529F47093FA056093F90512C09A01A9
:10444000220F331F240F351F2E5F3F4FA901460F48
:10445000571F56954795569547955093FA054093A3
:10446000F905809125048695813041F038F182303C
:1044700041F0833039F58091ED0322C081E154D5BC
:1044800008C020E23EE440E050E061E081E117D561
:10449000CB012FDE20914504309146044091470422
:1044A000509148040E94A72F0E94602E7093EC0345
:1044B0006093EB0381E0809376030FC08091EE035D
:1044C00090E004C080910F069091100612DE0E94C9
:1044D000602E7093EC036093EB03DF91CF91FF901C
:1044E000EF90DF90CF90089581E00E942B160C94FE
:1044F0002319A4E0B0E0EFE7F2E20C942A31A8958A
:104500007894D0D36B017C0128EE33E040E050E09A
:104510000E94D5303093B8052093B7052CEDC21614
:1045200025E0D206E104F10448F080919003811166
:1045300005C0E1ECF4E090E481E012C00E94801636
:1045400058C32091790321110FC0209182032111BA
:104550000BC0DF01292F1D922A95E9F7809379037B
:1045600020917803222369F30E94A2168091780398
:104570008093790380917603882309F43DC190905C
:10458000AF0580911C04833008F42BC1833029F4DB
:10459000A0906B03B0906C0311C09BEF980F943008
:1045A00048F4E82FF0E0EE0FFF1FE150FA4FA08033
:1045B000B18004C0A0900F06B09010069501205263
:1045C00033402939384008F00CC120910601309160
:1045D0000701A216B30620F4B0920701A0920601CB
:1045E00020910401309105012A153B0520F4B09279
:1045F0000501A0920401843001F58091E205882331
:1046000089F01092E20560E070E08EED95E00E9486
:10461000F20D9091E20580910B01981303C081E0A7
:1046200080937A038EED95E00E941F11813D9740A3
:1046300008F4A8C010920B01A5C08091210481113B
:1046400021C02091040130910501809106019091D3
:10465000070160915E048A159B0568F4A81AB90ADF
:10466000D901A81BB90BCD0170E00E94AE30C50185
:104670000E94AE3001C060E0961609F483C06093DA
:10468000AF0580C08091170482FF3EC080919D05D8
:1046900090919E05A816B90609F446C0F501E81BDD
:1046A000F90BE93CF10508F43FC080919B0590911E
:1046B0009C05A816B90631F09501281B390B283C3A
:1046C000310578F48EED95E00E941F11893E9340EC
:1046D00018F081E080937A0310929C0510929B055C
:1046E00023C060E070E08EED95E00E94F20D8091B5
:1046F0009D0590919E0590939C0580939B05B0929B
:104700009E05A0929D0510C02091040130910501E5
:104710008091060190910701280F391F3695279542
:1047200081E02A153B0508F080E09091170490FF86
:1047300010C0882321F081E080937B0323C0809107
:104740007B03882319F081E080937A0310927B0326
:1047500019C08823B9F04090DE055090DF056090C5
:10476000E0057090E1059ED2461657066806790668
:1047700048F481E080937A0364EF71E08EED95E078
:104780000E94F20D80917A03882369F010927A03D7
:104790008091AF058F5F8093AF0590915E0498176D
:1047A00010F41092AF051091AF059116D1F00E9450
:1047B0002C1180918C03811112C0A4EBB3E0E3E1D2
:1047C000F1E084918D9331968111FBCF8091BB03F1
:1047D000810F8093BB0363E088E00E940211109276
:1047E0008C0380917703811105C081E0809377036A
:1047F000809375031092760380917703882309F4E0
:10480000C5C0809175038111C1C01092770390914A
:10481000D405992319F081E08093880320917D03CA
:1048200080917F03222309F4CDC180FD0DC0109239
:104830008403816080937F031092E3051092E40566
:104840001092E5051092E60580918403882309F40F
:1048500099C180918403882309F490C08090F70364
:104860009090F803A090F903B090FA03C501B40149
:104870009F7725E33AEF4EE85CE30E94A72F0E9462
:10488000F02D2B013C012091030430910404409150
:10489000050450910604C501B4010E94200A4B0191
:1048A0005C01209107043091080440910904509163
:1048B0000A046091FB037091FC038091FD039091C9
:1048C000FE030E94200AA30192010E94A72F2B0140
:1048D0003C019B01AC010E94A72F69837A838B83E3
:1048E0009C83A5019401C501B4010E94A72F9B01DF
:1048F000AC0169817A818B819C810E94262D0E9466
:104900000E300E945B2E6093CC057093CD05809392
:10491000CE059093CF05C501B4019F770E945B2E11
:104920007093CA056093C905C301B2019F770E94C5
:104930005B2E7093C8056093C705A3019201505880
:10494000C501B4010E94992D2091C5053091C6057D
:1049500046EA5FEF5A01A21AB30A20EE3EE245E6AC
:1049600052E40E94A72F0E945B2EC501860F971F5D
:104970000E9413110E943D118093CB050E948D145B
:10498000C701B60187D881E08093AD038091EF0520
:104990009091F005A091F105B091F2058C159D055F
:1049A000AE05BF05B0F464E170E08FEE95E00E94C3
:1049B000090E9ADD8091AD03882359F0809175032B
:1049C000882339F080E793E00E941F11C39708F015
:1049D00006C18091EB059091EC05A091ED05B09199
:1049E000EE058C159D05AE05BF0528F564E670E063
:1049F0008BEE95E00E94090EAEDB9091860381E07C
:104A00008927809386038823B1F0809194038823BB
:104A100069F08F5F80939403833068F08091EF0397
:104A20008F5F8093EF031092940305C08091EF0392
:104A30008F5F8093EF038091E7059091E805A09147
:104A4000E905B091EA058C159D05AE05BF0508F096
:104A50008AC064EF71E087EE95E00E94090E81E064
:104A600080937603809385039091F0039F5F9093EA
:104A7000F00390918203982790938203992309F47D
:104A800072C080937C0380919103882399F0809178
:104A90004B0390914C03A0914D03B0914E030196AE
:104AA000A11DB11D80934B0390934C03A0934D0324
:104AB000B0934E0380912703882309F497C0809117
:104AC0007403853008F092C0809137068F5F809321
:104AD00037068430A8F0809174031F928F938FE47F
:104AE00091E09F938F9389E293E09F938F9346D3B6
:104AF0000E94FD050F900F900F900F900F900F9058
:104B0000109274038091B7059091B8056EE170E042
:104B10000E94AE30892B39F580919F039091A003BC
:104B20009F938F938091A2038F938091A1038F9382
:104B30008FE291E09F938F9309E213E01F930F930D
:104B40001DD38091090190910A019F938F938CE16D
:104B500091E09F938F931F930F9310D30FB6F89408
:104B6000DEBF0FBECDBF9ED06C197D098091A10321
:104B70009091A20386179707E0F57093A2036093C4
:104B8000A10337C0933008F464CE8CE0E3E0F4E096
:104B9000A7EFB3E001900D928A95E1F781E0809351
:104BA00084038091C1059091C205A091C305B09185
:104BB000C4058093BD059093BE05A093BF05B09337
:104BC000C00547CE80FF40CE20919303222309F4F5
:104BD0003BCE109284038E7F80937F0335CE10925C
:104BE00075030E9476061092AD03F3CE109237063D
:104BF00087CF2496E0E10C944631EDE2F3E0138296
:104C0000128289E191E09183808389E293E0E6C298
:104C10001F920F920FB60F9211242F933F938F93F1
:104C20009F93AF93BF938091380690913906A091DE
:104C30003A06B0913B063091400623E0230F2D3712
:104C400020F40196A11DB11D05C026E8230F029690
:104C5000A11DB11D2093400680933806909339061C
:104C6000A0933A06B0933B0680913C0690913D0696
:104C7000A0913E06B0913F060196A11DB11D809303
:104C80003C0690933D06A0933E06B0933F06BF912D
:104C9000AF919F918F913F912F910F900FBE0F90E9
:104CA0001F9018952FB7F8946091380670913906C7
:104CB00080913A0690913B062FBF08953FB7F89434
:104CC00080913C0690913D06A0913E06B0913F0632
:104CD00026B5A89B05C02F3F19F00196A11DB11D57
:104CE0003FBFBA2FA92F982F8827820F911DA11D92
:104CF000B11DBC01CD0142E0660F771F881F991FCF
:104D00004A95D1F708958F929F92AF92BF92CF921A
:104D1000DF92EF92FF926B017C01D0DF4B015C01CF
:104D2000C114D104E104F104F1F0C8D0C7DFDC0103
:104D3000CB0188199909AA09BB09883E9340A105AE
:104D4000B10570F321E0C21AD108E108F10888EE3C
:104D5000880E83E0981EA11CB11CC114D104E1048B
:104D6000F10421F7DDCFFF90EF90DF90CF90BF905F
:104D7000AF909F908F9008958230910538F0880F02
:104D8000991F880F991F05970197F1F70895789457
:104D900084B5826084BD84B5816084BD85B5826040
:104DA00085BD85B5816085BDEEE6F0E080818160DE
:104DB0008083EAE7F0E08081846080838081826084
:104DC000808380818160808380818068808310926D
:104DD000C1000895CF93DF9390E0FC01EA59F94FA9
:104DE0002491FC01E658F94F8491882361F190E009
:104DF000880F991FFC01EE55F94FC591D491FC0124
:104E0000E856F94FA591B491611109C09FB7F89484
:104E10008881209582238883EC912E230BC06230F9
:104E200061F49FB7F8943881822F8095832388831B
:104E3000EC912E2B2C939FBF06C08FB7F894E8817E
:104E40002E2B28838FBFDF91CF91089590E0FC0136
:104E5000EA59F94F2491FC01E658F94FE491EE2309
:104E6000A1F0F0E0EE0FFF1FE856F94FA591B491C5
:104E70008FB7F894611105C09C91E22FE095E9236A
:104E800002C0EC91E22BEC938FBF089590E0FC01FF
:104E9000EA59F94F2491FC01E658F94FE491EE23C9
:104EA00059F0F0E0EE0FFF1FE257F94FA591B491D2
:104EB000EC91E22381E009F480E0089508950F93D6
:104EC0001F9390E0FC01EA59F94F7491FC01E658F8
:104ED000F94FE491662311F0672F01C060E0F0E024
:104EE000EE0FFF1FE257F94F8591949189019A01C6
:104EF0003F70462F672F0E940104611571058105DF
:104F0000910549F0DC01CB010196A11DB11DBC0149
:104F1000CD019F7003C060E070E0CB011F910F9145
:104F200008958093110108958E3008F08E50877097
:104F30002091110190E4299F90011124822B8093EC
:104F40007C0080917A00806480937A0080917A005E
:104F500086FDFCCF809178002091790090E0922B23
:104F60000895A0E0B0E0E7EBF7E20C9432316C0179
:104F70007A018B01C0E0D0E0CE15DF0589F0D801C1
:104F80006D918D01D601ED91FC910190F081E02DA4
:104F9000C6010995892B11F47E0102C02196ECCF40
:104FA000C701CDB7DEB7E8E00C944E31611571054D
:104FB00081F0FB0101900020E9F73197AF01461B1A
:104FC000570BDC01ED91FC910280F381E02D0995F6
:104FD000089580E090E00895E9CF0895DC01ED9117
:104FE000FC910190F081E02D0995089565E271E052
:104FF000DDCF4F925F926F927F92EF92FF920F936D
:105000001F93CF93DF93CDB7DEB7A1970FB6F89478
:10501000DEBF0FBECDBF7C01FA01CB0119A2223049
:1050200008F42AE08E010F5D1F4F422E512C612C97
:10503000712CBF01A30192010E94D530F901CA0170
:10504000015011096A3014F4605D01C0695CD80137
:105050006C93232B242B252B61F7B801C701A6DF06
:10506000A1960FB6F894DEBF0FBECDBFDF91CF91F2
:105070001F910F91FF90EF907F906F905F904F90F6
:1050800008952115310549F4DC01ED91FC91019061
:10509000F081E02D642F09950895ABCF0F931F93F6
:1050A000CF93DF93EC01EDDF8C01CE019FDF800F0A
:1050B000911FDF91CF911F910F9108959A01AB013C
:1050C00060E070E0DECFA0E0B0E0E9E6F8E20C944A
:1050D00032318C016A017B012115310549F4DC0173
:1050E000ED91FC910190F081E02D642F09951AC09B
:1050F0002A30310599F477FF10C06DE26FDFEC01C3
:1051000044275527BA014C195D096E097F092AE029
:10511000C8016FDF8C0F9D1F05C02AE0B701A601F3
:10512000C80167DFCDB7DEB7E8E00C944E319A01D5
:10513000AB01770F660B770BC6CF089528DEFDDF36
:105140000E94CA1FD6D9FECF0F931F93CF93DF9330
:105150008C01FB016491EF012196662351F0D80187
:10516000ED91FC910190F081E02DC8010995FE01BF
:10517000F1CFDF91CF911F910F910895A0E0B0E0A2
:10518000E4ECF8E20C9438319E01275F3F4F4F81E9
:10519000588561E08D819E81C5D0E2E00C94543148
:1051A0009091C100892F807194FF0EC09091C70625
:1051B0008091C806981302C080E00895E091C80667
:1051C000F0E0EB5BF94F80810895E7ECF6E0818138
:1051D0008083E5ECF6E0808181830895FC011382F1
:1051E000128220E331E03183208308959B01AC01DA
:1051F0008091C10084FD1092C1001092C6061092E9
:10520000C5061092C8061092C70621153105410542
:105210005105F9F0211581EE38074105510501F1DD
:1052200082E08093C00060E079E08DE390E0BDD73C
:10523000DA01C9010197A109B109AC01BD01769557
:10524000679557954795942F852F8093C500909328
:10525000C40088E98093C10086E08093C20008956D
:105260001092C00090E180E0F0CF1092C10008954C
:105270009091C100892F807194FF06C08091C7066C
:105280009091C806891B8F770895F2CF0895909169
:10529000C100892F807194FF14C09091C70680913E
:1052A000C806981302C080E00895E091C806F0E0B7
:1052B000EB5BF94F80819091C8069F5F9F77909339
:1052C000C8060895E4CF08959091C6068091C5065A
:1052D0009813FACF08959091C10094FF15C0909152
:1052E000C5069F5F93702091C6069217E1F3E09187
:1052F000C506F0E0EF5BF94F80839093C50680917F
:10530000C10080628093C1000895862FE4DF81E0B0
:1053100090E00895DC01ED91FC910190F081E02D89
:1053200009950895A4E1B0E0E7E9F9E291C77C01AD
:105330006C871A016901CE0101964C01F1012C859F
:1053400020FD059120FF01911F01002309F43DC3B9
:10535000053241F420FD059120FF01911F01053226
:1053600061F405C00A3019F46DE0C701D3DF602F86
:10537000C701D0DF56016501E1CF10E0512C712C3F
:10538000FFE1F715D8F00B3279F038F4003279F0FC
:105390000332A1F4F72DF0612EC00D3261F000331D
:1053A00069F4272D21602DC0872D8260782E972DDE
:1053B0009460792E2AC0E72DE86015C077FC2EC0D6
:1053C00080ED800F8A3088F476FE06C02AE0129FB6
:1053D000800D1124182F19C09AE0599E800D1124B8
:1053E000582EE72DE0627E2E10C00E3231F476FC8E
:1053F000ECC2F72DF0647F2E08C00C3621F4272D67
:105400002068722E02C0083649F4F1012C8520FD77
:10541000059120FF01911F010111B2CF8BEB800F8D
:10542000833020F4872D8061005E07C08BE9800FF8
:10543000833008F056C1872D8F7E86FF16E08F736C
:10544000782E053611F4806403C0063619F480689E
:10545000782E02C01111115077FE06C01C3350F493
:1054600044244394410E08C0183040F0412C27E0FA
:1054700017E006C04CE3442E27E002C0212F412C48
:10548000560194E0A90EB11CF60160817181828100
:105490009381042DA4010E94A4046C01098100FFE2
:1054A00002C003FF07C071FC08C072FE09C030E2F1
:1054B000632E07C02DE2622E04C09BE2692E01C05C
:1054C000612C802F8C7019F0611046C277C277FE74
:1054D0000FC04C0C04FF04C08A81813309F44A9444
:1054E000141474F5F8E0F41578F588E0482E2CC013
:1054F00076FC2AC0812F90E08C159D059CF02CEF46
:10550000C2162FEFD20674F0872D8068782E0AC05D
:10551000E2E0F0E0EC0FFD1FE10FF11D8081803330
:1055200019F411501111F4CF77FE0EC044244394A6
:10553000410E812F90E0C816D9062CF41C1904C026
:105540004424439401C010E077FE06C01C141D04DF
:1055500034F4C601019605C085E090E002C081E008
:1055600090E061100196112331F0212F30E02F5F80
:105570003F4F820F931F252D30E08217930714F4BD
:10558000581A01C0512C872D897039F4552029F003
:1055900060E2C701BFDE5A94F9CF662019F0662D8C
:1055A000C701B8DE73FC07C0552029F060E3C701CE
:1055B000B1DE5A94F9CF77FE54C09C2D8D2DD7FEC5
:1055C00002C090E080E0692E782E1E861D86F601CE
:1055D000E419F109F88BEF87C601861997099A8BB0
:1055E000898B612F70E0EE27FF27E61BF70BFC8B02
:1055F000EB8BFFEF6F167F0619F46EE2C7018ADEB0
:10560000C614D7047CF08F8598898615970554F4C5
:10561000ED85FE8589899A89E80FF91FE80DF91D46
:10562000618101C060E391E0691A7108ED85FE8532
:105630003196FE87ED878B899C89681679061CF068
:10564000C70168DED6CF6C147D0409F047C08A819B
:10565000863328F4853309F041C004FD3FC061E37F
:105660003DC06A81613309F00F7EC70153DE11111D
:1056700004C074FC13C065E612C06EE2C7014ADEC6
:1056800082E066246394680EF401E80FF11D6081E6
:10569000C70140DE1150862DA1F7EBCF65E4C701AD
:1056A00039DED7FC05C0C114D10439F404FF05C0AC
:1056B000D194C194D1086DE201C06BE2C7012ADE2A
:1056C00060E3EAE0CE16D1042CF06F5F9AE0C91ACD
:1056D000D108F7CFC7011EDE60E36C0DC7011ADEEB
:1056E0004FC1033631F0033779F0033509F050C06C
:1056F0001FC05601F2E0AF0EB11CF6018081898314
:1057000001E010E0640111C05601F2E0AF0EB11CDF
:10571000F601C080D18076FE03C0612F70E002C028
:105720006FEF7FEFC6017ED18C01F72DFF7713C09D
:10573000560122E0A20EB11CF601C080D18076FE97
:1057400003C0612F70E002C06FEF7FEFC6015FD131
:105750008C01F72DF0687F2EF3FD16C0852D90E0AB
:105760000817190788F460E2C701D4DD5A94F6CF10
:10577000F60177FC659177FE61916F01C701CADD83
:1057800051105A94015011090115110589F7F8C0FB
:10579000043611F0093661F5560177FE09C0F4E0D0
:1057A000AF0EB11CF60160817181828193810AC0C4
:1057B000F2E0AF0EB11CF60160817181072E000C82
:1057C000880B990BF72DFF767F2E97FF09C09095D8
:1057D0008095709561957F4F8F4F9F4FF0687F2E1A
:1057E0002AE030E0A4010E944604C82EC81849C02F
:1057F000053731F4272D2F7E622E2AE030E025C0B8
:10580000872D897F682E0F36C1F018F4083579F09E
:10581000DCC0003719F0083721F0D7C0982F90610D
:10582000692E64FE0DC0E62DE4606E2E09C074FE84
:105830000AC0F82FF6606F2E06C028E030E005C0E1
:1058400020E130E002C020E132E0560167FE09C0ED
:1058500084E0A80EB11CF601608171818281938180
:1058600008C0F2E0AF0EB11CF6016081718180E0EA
:1058700090E0A4010E944604C82EC818F62DFF77B8
:105880007F2E76FE0DC0272D2E7FD22EC11658F406
:1058900074FE0BC072FC09C0872D8E7ED82E05C009
:1058A0000C2DD72C03C00C2D01C0012FD4FE0EC02F
:1058B000FE01EC0DF11D8081803321F49D2D997E38
:1058C000D92E08C0D2FE05C00E5F04C08D2D86788B
:1058D00009F00F5FD3FC11C0D0FE08C0051528F4F5
:1058E000152D101B1C0D052D01C01C2D051548F490
:1058F00060E2C7010FDD0F5FF9CF051510F4501AF4
:1059000001C0512CD4FE0BC060E3C70103DDD2FE01
:1059100012C0D1FC02C068E70CC068E50AC08D2D3A
:10592000867849F0D1FE02C06BE201C060E2D7FC8C
:105930006DE2C701EFDCC11628F460E3C701EADCC1
:105940001150F9CFCA94F401EC0DF11D6081C7012B
:10595000E1DCC110F7CF14C0E4E0E51500F584E008
:10596000581A73FE15C061101BC003FF1DC00CEA5E
:1059700016E0F72DF0717F2EF8016491611117C0C8
:10598000552009F4F8CC60E2C701C4DC5A94F8CF82
:1059900060E2C701BFDC5A945110FACFE4CF512C1A
:1059A000662DC701B7DCE1CF00EB16E0E2CF711046
:1059B0006052C701AFDC0F5F1F4FDECFF3E0F5157C
:1059C00010F483E0CDCF512CD0CF6496E2E15CC4DB
:1059D000FC0188279927E89421912032E9F32930A6
:1059E00010F02E30C8F32B3239F02D3231F4689498
:1059F00003C023D0820F911D219120532A30C8F378
:105A00001EF4909581959F4F0895F89460C4FC0111
:105A10000590615070400110D8F7809590958E0FD9
:105A20009F1F0895FC016150704001900110D8F74C
:105A3000809590958E0F9F1F08957AE0979F902DE7
:105A4000879F802D910D112408955058BB27AA27B8
:105A50000ED027C2F0D130F0F5D120F031F49F3FC5
:105A600011F41EF4C0C10EF4E095E7FBB6C1E92FB6
:105A70003AD280F3BA17620773078407950718F0C4
:105A800071F49EF552C20EF4E0950B2EBA2FA02DA4
:105A90000B01B90190010C01CA01A0011124FF27DB
:105AA000591B99F0593F50F4503E68F11A16F040D6
:105AB000A22F232F342F4427585FF3CF46953795D5
:105AC0002795A795F0405395C9F77EF41F16BA0B9A
:105AD000620B730B840BBAF09150A1F0FF0FBB1F48
