:100000000C940D050C94C51D0C94771E0C943505AD
:100010000C9435050C9435050C9435050C94350578
:100020000C9435050C9435050C9435050C94350568
:100030000C9435050C9435050C9435050C94350558
:100040000C9496260C9435050C94DF0F0C94051037
:100050000C9435050C9435050C9435050C94350538
:100060000C9435050C943505084AD73B3BCE016E00
:1000700084BCBFFDC12F3D6C74319ABD56833DDAFF
:100080003D00C77F11BED9E4BB4C3E916BAAAABE0E
:10009000000000803F05A84CCDB2D44EB93836A937
:1000A000020C50B9918688083CA6AAAA2ABE000074
:1000B00000803F0664EC1B3C04BC163E3BE5B93CAB
:1000C000C93C37C29E5A3D660498083EEA69AAAA0E
:1000D0003E000000803F0302010053637265656EBD
:1000E00020300046440A00434425640A0052464634
:1000F0000A004D697373696E672F4F6C6420436FFC
:100100006E6669673A202564206D79203739004D85
:10011000696E696D4F53442D457874726120322E9B
:10012000347C756E69207225642044567C00100072
:100130000E000F00110020284E54534329002028A0
:1001400050414C290025372E32660025362E316667
:10015000009125372E326600A125372E32660045E4
:10016000010B68E304004B018F68BB04004B0114D2
:1001700073DB04004B011D73D304004B011268D7DD
:10018000040051019076CB04005801A076C704000A
:100190004B01BD61CF0400000000000000004E6F65
:1001A00020696E707574206461746121202575006A
:1001B000B8B900253469050700253469050600250E
:1001C000352E32660D002532690025342E30660149
:1001D0000025322E3066252500256325638E2534C3
:1001E0002E30660100256325638E25322E3066256C
:1001F000250025346905007C20CECECECE60CECE43
:10020000CECE200040CB242020207C007C2020204B
:1002100024CB008280818081808480818081808362
:10022000808180818085808180818020C8C8C8C805
:100230007EC8C8C8C8207C0020202024CBB8B9CBF9
:10024000242020207C0025336905002058652534B2
:100250002E30660025342E306600253269200025B8
:10026000352E30660025332E306925250025352EA4
:1002700032660E0025332E30660025322E306600A1
:100280002520352E316618002520352E32661800BF
:100290005225332E306605005025332E306605007A
:1002A0004825332E306605004225352E316605007F
:1002B0004525352E3166004525342E30666D007398
:1002C0004525352E31660090026E69B5040098020E
:1002D0006E69B30400A0026E69B10400A8025469FB
:1002E000AF0400B0024168AB0400B7025869A10432
:1002F00000BF024173A704000000000000000025B9
:100300003369002530326900202090910025352E78
:100310003166004325642535697C0025342E31661D
:100320000025342E3266004325692000256900250A
:10033000346400B0B1B4B5B6B77B7D158B1800013D
:10034000860B00027D0B00033315BC841A152605AD
:10035000590D0007830D0018F90E00065516000808
:10036000120E00097C1800252713000B61110B0ADF
:10037000B70C0019EB0E000D72155C11ED1411167F
:100380008F1112128513141775131313760B0214A1
:10039000590B7F0FAC0BBD1BE4151D1C8C0F151DDD
:1003A0002213000E500B091EE5130021E20B002062
:1003B000D70C002256118F249C131F2BA40B1F2C2B
:1003C0009310002D6A10002F4A1000A73B0D00A8C3
:1003D0004A0D00A9730E00AAFE0D001F9A0C0026FC
:1003E0008B0E009AA3110000000000C3040C000053
:1003F0007D0405740AFF0309EC0A0000000000B048
:1004000005000000000000000000000000A70573C8
:1004100001800200007705C0E0401F9E0573018443
:1004200002000077059CFF64009505730100000041
:10043000007705C0E0401F9E0573010000000077B3
:10044000059CFF640087057301000000007705C06C
:10045000E0401F9E0573010000000077059CFF64CB
:10046000007C057301000000007705C0E0401F9E7E
:100470000573010000000077059CFF6400F5056826
:100480000000000000000000000000DB056601160F
:100490000500007705FCFF0400E80566011A050069
:1004A000007705FCFF0400BF0566011E050000770C
:1004B00005FCFF0400CD056601220500007705FC60
:1004C000FF0400A80600000000000000000000007B
:1004D000009806620AED04000070050000FF008924
:1004E00006620A2605000070050000FF007B066218
:1004F00001EC0400006B050000FF0069066201EBDF
:100500000400006B050000FF0058066201F30400C0
:10051000006B050000FF004B066201F40400006B55
:10052000050000FF003B0600000000000000000086
:100530000000002D0662012B0500006B0501000480
:100540000024066201EA04D6086B050000030014CB
:10055000065A012805D6086B05E1FF1F0006067A3A
:10056000012705D6086B05F1FF0F00252E30660028
:1005700025332E31667600252E336600342028522E
:1005800053534929204B0033202843757272656EFE
:100590007429204B00322028563229204B0020207D
:1005A00020202020204100312028563129204B00D6
:1005B00020202050696E2053656E736F7273005255
:1005C0006F6C6C2020696E204E5453430050697448
:1005D000636820696E204E54534300526F6C6C2048
:1005E00020696E2050414C00506974636820696E28
:1005F0002050414C002020486F72697A6F6E206154
:100600006E676C657300566572746963616C206F08
:1006100066667300486F72697A6F6E74616C206FE2
:1006200066667300436F6E74726173740053637215
:1006300065656E7320436F756E740020205363727E
:1006400065656E20706172616D730052535349206D
:100650007761726E696E67004261747420636861CD
:10066000726765207761726E004F76657273706590
:100670006564207761726E696E67005374616C6C9B
:10068000207761726E696E67004261747420322057
:100690007761726E696E6700426174746572792069
:1006A0007761726E696E67002020204F534420737B
:1006B0006574757000696E6974000A075E078007CB
:1006C00005077B070007FB06F606F10645077107DD
:1006D00063076707450745076C07B506EC06E7069D
:1006E000E206716C6F690071686F760071737462F5
:1006F000006174756E006372757A006662776200DD
:10070000666277610074726169006D616E75008068
:10071000077B07760771076C07670763075E075952
:100720000754074F074A07450740073B073607317D
:1007300007686F6C640074756E6500666C697000A4
:1007400073707274006D5F25640064726966006F77
:10075000666C6F006C616E6400706F736800636933
:1007600072630072746C006C6F6974006775696401
:10077000006175746F00616C7468006163726F0072
:100780007374616200C207B507A4079507FC07EF01
:1007900007E007D1070325392E356625630425397F
:1007A0002E356600032531302E366625630425314B
:1007B000302E36660025392E3566256325392E35CF
:1007C00066002531302E366625632531302E36669B
:1007D00000032530356C642563042530356C6400D6
:1007E000032530366C642563042530366C6400259F
:1007F00030356C6425632530356C64002530366CEB
:100800006425632530366C640087087D08710864B0
:100810000858084B083F08340828081D0846656E2C
:10082000636520466172210046656E6365204869F4
:100830006768210046656E6365204C6F7721004232
:100840006174742042206C6F7721004869676820CA
:10085000565370656564210020204C6F77205273D9
:100860007369210042617474657279204C6F77213D
:1008700000204F766572537065656421002020204A
:100880005374616C6C2100204E6F204750532066DA
:100890006978210052B80E4085EB51401966BB00C3
:1008A00012800C1CA0141E666666400000803F107B
:1008B0000CBA000A00001BE8031A0000000800023E
:1008C0000100000304070000000000000000010216
:1008D00004081020408001020408102001020408CE
:1008E00010200404040404040404020202020202AC
:1008F0000303030303030000000023002600290074
:1009000000000000250028002B000000000024004B
:1009100027002A006E616E00696E660000407A1042
:10092000F35A00A0724E18090010A5D4E80000E8A0
:100930007648170000E40B54020000CA9A3B0000FE
:1009400000E1F505000080969800000040420F008D
:100950000000A08601000000102700000000E8034E
:10096000000000006400000000000A000000000019
:100970000100000000002C76D888DC674F0823DFD8
:10098000C1DFAE59E1B1B796E5E3E453C63AE651AB
:10099000997696E8E6C28426EB898C9B62ED407CD2
:1009A0006FFCEFBC9C9F40F2BAA56FA5F490055A6E
:1009B0002AF75C936B6CF9676DC11BFCE0E40D4793
:1009C000FEF520E6B500D0ED902E030094357705B6
:1009D0000080841E080000204E0A000000C80C336E
:1009E0003333330F986E12831141EF8D2114893BFD
:1009F000E65516CFFEE6DB18D1844B381BF77C1D7D
:100A0000901DA4BBE424203284725E228100C9F1CF
:100A100024ECA1E53D275508AF2111241FBECFEFDF
:100A2000D8E0DEBFCDBF11E0A0E0B1E0E0E3F4E646
:100A300002C005900D92AC33B107D9F725E0ACE3C5
:100A4000B1E001C01D92A33CB207E1F715E0CDE093
:100A5000D5E004C02197FE010E94FA31CB30D107C6
:100A6000C9F70E940B290C94942D0C940000CF928E
:100A7000DF92EF92FF920F931F93E82FF92F05C09B
:100A8000015011092109310961F1908196239417D0
:100A9000B9F305C0015011092109310911F1908103
:100AA00096239413F7CFC12CD12CE12CF12C0AC042
:100AB0008FEFC81AD80AE80AF80A0C151D052E058A
:100AC0003F0579F080818623841791F36C2D7D2D6D
:100AD0008E2D9F2D1F910F91FF90EF90DF90CF9063
:100AE000089560E070E080E090E01F910F91FF902A
:100AF000EF90DF90CF900895FA01AA27283051F1A6
:100B0000203181F1E8946F936E7F6E5F7F4F8F4F3E
:100B10009F4FAF4FB1E03ED0B4E03CD0670F781F9D
:100B2000891F9A1FA11D680F791F8A1F911DA11D82
:100B30006A0F711D811D911DA11D20D009F46894BB
:100B40003F912AE0269F11243019305D3193DEF663
:100B5000CF010895462F4770405D4193B3E00FD019
:100B6000C9F7F6CF462F4F70405D4A3318F0495D04
:100B700031FD4052419302D0A9F7EACFB4E0A695E7
:100B80009795879577956795BA95C9F70097610509
:100B9000710508959B01AC010A2E0694579547955F
:100BA00037952795BA95C9F7620F731F841F951F54
:100BB000A01D0895283008F027E03327DA01990FA7
:100BC000311D87FD916000966105710539F4326031
:100BD0002E5F3D9330E32A95E1F708959F3F30F073
:100BE00080387105610509F03C5F3C5F3D939130B1
:100BF00008F08068911DDF93CF931F930F93FF92AE
:100C0000EF92192F987F9695E92F96959695E90F73
:100C1000FF27EA58F64F99273327EE24FF24A70130
:100C2000E70105900894079428F4360FE71EF81E94
:100C3000491F511D660F771F881F991F0694A1F742
:100C40000590079428F4E70EF81E491F561FC11D92
:100C5000770F881F991F661F0694A1F705900794C8
:100C600028F4F80E491F561FC71FD11D880F991F62
:100C7000661F771F0694A1F70590079420F4490F8B
:100C8000561FC71FD81F990F661F771F881F06940E
:100C9000A9F784911095177041F0D695C79557958F
:100CA0004795F794E7941A95C1F7ECE1F9E0689459
:100CB0001590159135916591959105907FE2739509
:100CC000E118F10A430B560BC90BD009C0F7E10C30
:100CD000F11E431F561FC91FD01D7EF4703311F43F
:100CE0008A95E6CFE894015030F0080F0AF4002707
:100CF000021708F4202F2395022F7A3328F079E386
:100D00007D932A95E9F710C07D932A9589F606947C
:100D100097956795379517951794E118F10A430B46
:100D2000560BC90BD00998F023957E9173957A33B1
:100D300008F070E37C932013B8F77E9170617D9387
:100D400030F0839571E37D9370E32A95E1F71124E8
:100D5000EF90FF900F911F91CF91DF91992787FD21
:100D60009095089580E008950895FC011382128201
:100D700020E131E03183208308958EBD0DB407FE5C
:100D8000FDCF8EB56EBD0DB407FEFDCF8EB50895B7
:100D90008EBD0DB407FEFDCF8EB58FEF8EBD0DB4A9
:100DA00007FEFDCF8EB50895882311F080E401C0C1
:100DB00080E090911E03891751F080931E035E9886
:100DC00060911E036C6180E00E94BD065E9A0895EA
:100DD0005E988091310581FD06C08091300583FFCA
:100DE0001CC081E01BC080EA0E94C80680FF07C0CB
:100DF00081E00E94D40680913005886008C081FFA0
:100E000009C080E00E94D40680913005877F8093DE
:100E1000300506C082FDE1CF03C080E00E94D40609
:100E20005E9A0895CF93DF93E091EA04E43008F0EE
:100E3000E0E0F0E0EA52FF4FC49180E1D1E0D80F4A
:100E40006C2F0E94BD068D2FD032C1F7DF91CF915C
:100E500008955E980E9412076091280582E00E9422
:100E6000BD066091270583E00E94BD065E9A089545
:100E7000CF935E988CEE0E94C806C82F60911E0327
:100E8000626080E00E94BD060E94461E6C2F6F7E4D
:100E90008CE60E94BD0662E18CE00E94BD06609176
:100EA0001E036C6380E00E94BD060E94461E609196
:100EB0001E036C6180E00E94BD060E942907CF914D
:100EC000089561E086E00E94672762E082E00E9468
:100ED00067270E94E8060E943807089520911F03A3
:100EE0008091200390E03EE1239F800D911D11240D
:100EF00090933D0180933C0108958F73809320036C
:100F00006F7060931F0380911E03803411F067306F
:100F100018F40E946E070895635060931F03F9CF81
:100F20008F3F79F020913C0130913D01A9014F5F45
:100F30005F4F50933D0140933C01F901E25CFE4F4D
:100F4000808308958C3741F480911F038F5F8093D5
:100F50001F030E946E0708950E9490070895862F30
:100F60000E94A20781E090E00895CF93DF931F9243
:100F7000CDB7DEB749830E947D074981842F0E9447
:100F8000A2070F90DF91CF9108955E9860E085E011
:100F90000E94BD0660E086E00E94BD0661E084E03C
:100FA0000E94BD065E9AEEE3F1E080E25E989081D9
:100FB0009EBD0DB407FEFDCF9EB581935E9A93E072
:100FC000EE31F90799F75E988FEF8EBD0DB407FEED
:100FD000FDCF8EB55E9A0895EF92FF920F931F9307
:100FE000CF93DF931F92CDB7DEB7182FF62E5E9802
:100FF00060E080E079830E94BD06612F89E00E9455
:10100000BD060F2D7981172FE12CF801F1908F018A
:101010006E2D8AE00E94BD066F2D8BE00E94BD06FA
:10102000E394F6E3EF12F1CF60EA88E00E94BD0698
:1010300080EA0E94C80685FF03C00E945618F8CFB8
:101040006CE080E00E94BD065E9A0F90DF91CF9128
:101050001F910F91FF90EF900895CF93DF931F9210
:10106000CDB7DEB71CBC8F7280658CBD8DB581603D
:101070008DBD8DB589838EB589830F90DF91CF911A
:10108000089561E08DE00E94672761E08BE00E9497
:10109000672760E08CE00E94672761E08AE00E9499
:1010A000672780E00E942D08089581E293E00E9466
:1010B00041080895E82FF0E0EE0FFF1FE45EFE4FB9
:1010C00020813181662329F040E253E088E998E0ED
:1010D00004C048EE53E080ED97E02417350780F018
:1010E000241B350B841B950B65E070E00E94823158
:1010F000C9010E948231862F653018F084E008957E
:1011000080E00895E091BD0335E0E39FF0011124F4
:10111000E351FC4F94919150209105016091B303EC
:101120007091B40387FF03C0222339F004C08823E1
:1011300011F0921721F0280F03C0292F01C020E0E1
:10114000FB013EE0239FE00DF11D112434964591F3
:101150005491452B39F32093050181E08093D1030D
:101160000895E5EBF3E0ACE1B1E080819181883E48
:10117000934028F48D919C911197918380833296AE
:10118000129683E0ED3BF80781F7089590E0880F11
:10119000991FDC01A45EBE4FFC01EB54FC4F8D9106
:1011A0009C9120813181821B930B08950E94290715
:1011B00008952F923F924F925F926F927F928F92FB
:1011C0009F92AF92BF92CF92DF92EF92FF920F93D6
:1011D0001F93CF93DF93CDB7DEB72A970FB6F8945E
:1011E000DEBF0FBECDBFC82EE62E80911E0327EABC
:1011F00032E94BE25CE38034C9F460911A057091E6
:101200001B0580911C0590911D050E9463304B01C8
:101210005C0125E33AEF4EE85CE3609116057091BE
:101220001705809118059091190518C06091220545
:101230007091230580912405909125050E946330CB
:101240004B015C0125E33AEF4EE85CE360911E053B
:1012500070911F0580912005909121050E946330B7
:101260002B013C018091490490914A048A359105F3
:1012700038F09C012D543F4F2935310570F4C901D8
:101280008734910534F58A31910544F50A9758F170
:1012900018E073EFD72E00ED2AC08B35910514F0BE
:1012A000835B910997FF03C09195819591098734DC
:1012B00091057CF48A3191053CF40A97A0F018E07E
:1012C00065EFD62E02EE13C017E05BEFD52E0BEEC6
:1012D0000EC010E04DECD42E01EC09C017E038EF41
:1012E000D32E09ED04C019E02DECD22E06EC60914E
:1012F000470470914804072E000C880B990B0E943C
:10130000402FA501940150580E9463300E941A3169
:1013100020E030E044EB52E40E9463304B015C017A
:1013200020E030E0A9010E94563020E030E040E0AB
:101330005FE387FD0CC0C501B4010E94AE2D0E9481
:10134000082F9B01235D3F4F3A8729870BC0C501BA
:10135000B4010E94AD2D0E94082FAB01435D5F4F89
:101360005A87498789859A8597FF05C0885A9F4F74
:101370009A87898709C029853A852B35310534F04C
:10138000285A3F4F3A87298782E001C080E0FF2436
:10139000F394F80E9CE0899F902D112419822CE083
:1013A00030E01901281A310892549A8392E1892E6B
:1013B000912CCA94CB82A12E012E000CBB083AEFCF
:1013C0003D0D3C838F2D90E0281639060CF473C038
:1013D0006091490470914A04072E000C880B990B08
:1013E0000E94402FA30192010E9463300E941A3193
:1013F0009B01AC016A818981680F062E000C770B76
:10140000880B990B2E833F834D8358870E94402F72
:101410002E813F814D8158850E9463300E94082FA4
:1014200029853A85260F371FC90101978A3591050D
:10143000E8F5B4010E9496316B01112399F04EEE4C
:101440004603C001479F900D1124BC01620F731F1A
:101450006F5F7F4F77FF02C06F5F7F4F7595679516
:10146000262F01C020E05E2D5C193B813F0D64E01A
:10147000650F402F420F832F2E833F8358870E9492
:10148000B5072E813F815885222381F0822F90E07D
:101490008A159B055CF064E0C616D10439F04C81D6
:1014A000420F63E0650F832F0E94B507F394898193
:1014B000845F898387CF2A960FB6F894DEBF0FBE6C
:1014C000CDBFDF91CF911F910F91FF90EF90DF90F3
:1014D000CF90BF90AF909F908F907F906F905F90D4
:1014E0004F903F902F90089566E089E00E94D908C0
:1014F0000895692F0E947D070895EF92FF920F9340
:101500001F93CF93DF937C01E40EF51EEC018B015A
:10151000081B190BCE15DF0539F0C8018C0F9D1F74
:101520000E9400328993F6CFDF91CF911F910F91E6
:10153000FF90EF9008951F93CF93DF93CDB7DEB761
:1015400068970FB6F894DEBF0FBECDBF182F88E1A5
:10155000189FB001112460587D4F48E150E0CE0142
:1015600001960E947D0AE12FF0E0EE0FFF1FE1548B
:10157000FC4F6081718180E090E00E943E2F2981C4
:101580003A814B815C810E9463302D813E814F8185
:1015900058850E94AE2D9F938F937F936F93CE01BA
:1015A00009969F938F938FEA93E09F938F930E9466
:1015B000EB290FB6F894DEBF0FBECDBF68960FB60D
:1015C000F894DEBF0FBECDBFDF91CF911F9108957C
:1015D0008CE70E94A2070895CF936AE086E00E94FC
:1015E0007D07C0E08C2F0E949B0A0E94E80ACF5F13
:1015F000C430C1F7CF91089580E20E94A2070895F8
:10160000CF93813110F08051FCCF811101C080E176
:10161000880FCEEFC80F80E98C0F0E94A20781E9E6
:101620008C0F0E94A207CF9108957F936F939F9391
:101630008F938FEA93E09F938F930E94FC290F90E2
:101640000F900F900F900F900F9008951F93CF93CE
:10165000DF93EC01162F6CE370E00E9482318FEF74
:1016600092E00E94150B112331F08091DA03882358
:1016700011F080E201C08AE30E94A207CE016CE370
:1016800070E00E948231BC0183E093E00E94150B60
:10169000DF91CF911F91089560E00E94260B08957D
:1016A00060911D0470911E048FEF92E00E94150B53
:1016B00008958091E804882319F0EFE0F7E002C074
:1016C000EAEBF6E06091930470E0CB01880F991F7C
:1016D000E80FF91F859194910E94150B8091D70313
:1016E000882319F086E80E94A207089560E070E060
:1016F00085E692E00E94150B08956091490470916F
:101700004A0489EB91E00E94150B0895609147040B
:101710007091480483EB91E00E94150B08957F932C
:101720006F935F934F939F938F938FEA93E09F9371
:101730008F930E94FC298DB79EB708960FB6F89438
:101740009EBF0FBE8DBF089540E050E0BA0181E218
:1017500093E00E948F0B08956091990470919A0410
:10176000072E000C880B990B0E94402F2AE037EDC2
:1017700043E25CE30E946330AB01BC018DE692E082
:101780000E948F0B0895CF93DF931F92CDB7DEB7E2
:101790007F936F935F934F939F938F938FEA93E021
:1017A0009F938F9329830E94FC292981822F0E9475
:1017B000A2070FB6F894DEBF0FBECDBF0F90DF912A
:1017C000CF910895CF9380919F049091A004FC0144
:1017D0003A96C4913296E491FC013D9665917491DC
:1017E00080E090E00E943E2F2AE037ED43E25CE388
:1017F0000E946330AB01BC012C2F8DE093E00E946E
:10180000C30BCF9108957F936F935F934F93E7E05E
:10181000F1E021811F922F9320811F922F939F939C
:101820008F938FEA93E09F938F930E94FC298DB74B
:101830009EB70C960FB6F8949EBF0FBE8DBF08954D
:10184000E6E6F4E027812F9326812F9325812F93BD
:1018500024812F931F926F9323812F9322812F93A3
:1018600021812F9320812F939F938F938FEA93E071
:101870009F938F930E94FC298DB79EB70E960FB64B
:10188000F8949EBF0FBE8DBF0895EF92FF920F9305
:101890001F93CF93DF93EB017C018B01040F151F86
:1018A000C017D10741F0F70161917F01CE010E947D
:1018B00008322196F5CFDF91CF911F910F91FF90C4
:1018C000EF9008950E94AD2D20EC3BE649ED57E4E2
:1018D0000E9463300895CF92DF92EF92FF92CF93F0
:1018E000C42F6B017C01E894F7F8C701B6010E9490
:1018F000082F072E000C880B990B0E94402F9B018C
:10190000AC01C701B6010E94AD2DC11105C020E098
:1019100034E244E759E404C020E030E543EC57E406
:101920000E9463300E94082FCF91FF90EF90DF90CC
:10193000CF90089580913304909134048F73992748
:10194000029730F465EF74E08FEA93E00E949B28E1
:101950000895CF93C42F28EE33E040E050E00E947A
:10196000AA316C2FC9010E94260BCF910895809156
:10197000DB0382FF04C0809151040E94000B089594
:101980007F936F939F938F9383E193E09F938F93C4
:101990008FEA93E09F938F930E94FC298DB79EB7A7
:1019A00008960FB6F8949EBF0FBE8DBF08950F9393
:1019B0001F93CF93DF930CE111E0C1E0D0E0F80179
:1019C000619171918F01CE010E94C00C2196C930A6
:1019D000D105A9F7DF91CF911F910F910895BF9283
:1019E000CF92DF92EF92FF920F931F93CF93DF93EB
:1019F00000D0CDB7DEB78C01F801B4903196E590F8
:101A0000F490E114F10459F180912A046B2D6F7761
:101A100070E0660F771FF0E88F9F600D711D112435
:101A200042E050E0CE0101960E947D0AC980DA8032
:101A3000C6010E94790AD7FC0AC0C7FC0AC0F80197
:101A400033968491882329F00E94A20702C0B7FE32
:101A500003C0C601F70109950C5F1F4FCDCF0F9052
:101A60000F90DF91CF911F910F91FF90EF90DF903A
:101A7000CF90BF9008958091DB0397FD07C08062EF
:101A80008093DB0380E00E949B0A08958F7D809302
:101A9000DB0308958091DB0397FD07C0806480938A
:101AA000DB0381E00E949B0A08958F7B8093DB0318
:101AB00008951F93CF93DF93D82F192F809164043B
:101AC000823019F020F0CFE003C0CFE101C0CAE2BC
:101AD000D7FD02C016FF0FC06091650470E086EC70
:101AE00091E00E94150BD7FD0AC016FF08C08C2F8D
:101AF0000E94A20704C08C2F0E94A207EDCFDF91A5
:101B0000CF911F910895CF92DF92EF92FF920F93A2
:101B10001F93CF93DF93C0906A04D0906B04E09042
:101B20006C04F0906D04C114D104E104F10469F473
:101B30004091660450916704609168047091690453
:101B4000452B462B472B09F450C094FD02C0CCE72F
:101B500001C0C0E296FBDD27D0F9E82FE095EE1F2B
:101B6000EE27EE1FEE0FED2B0E2E000CFF0BEE0FEF
:101B7000FF1F95FF33C0E357F84F059114914D2F88
:101B8000C701B6010E946B0CF62EE72ED82EC92E87
:101B90006091660470916704809168049091690473
:101BA0004D2F0E946B0CCF92DF92EF92FF921F920B
:101BB000CF939F938F937F936F931F930F938FEA8E
:101BC00093E09F938F930E94FC298DB79EB70E964A
:101BD0000FB6F8949EBF0FBE8DBF07C0EB57F84FEE
:101BE000859194916C2F0E94200CDF91CF911F91D1
:101BF0000F91FF90EF90DF90CF9008958091DC03DC
:101C000097FD0CC096FB992790F9816090FB82F9B3
:101C10008093DC0383E00E949B0A08958E7F80936B
:101C2000DC030895FF920F931F93CF93DF93F82E59
:101C3000092F192F107287FD0AC096FD08C01123C5
:101C4000A1F168E372E08FEA93E00E94D12983EC6E
:101C50000E94A207209145043091460448E1429F2A
:101C6000C001439F900D11240C9668E671E00E941C
:101C70009631CCEFC60F111102C0D9E001C0DAE0F5
:101C8000EC2FF0E0ED5EFD4F84910E94A207CF5F44
:101C9000C83108F0C0E0D15099F787E80E94A20748
:101CA000F7FC1BC006FD04C018C06BE272E0CBCF8E
:101CB000112381F06CE072E08FEA93E00E94D12959
:101CC0008CE70E94900764E072E08FEA93E00E9444
:101CD000D12903C067EF71E0F8CFDF91CF911F9159
:101CE0000F91FF9008958091DB0397FD10C08068ED
:101CF0008093DB0396FB992790F98091DC0390FB9E
:101D000081F98093DC0382E00E949B0A08958F771B
:101D10008093DB0308950F931F93CF93DF9320915C
:101D2000E803222309F450C04091E6035091E703F1
:101D300020913304309134044217530709F444C00E
:101D40003091E5032AE1231B27FD0CC02695692F5E
:101D5000820F0E947D0768EE73E08FEA93E00E9495
:101D60009B2834C096FD1CC0219530E080912B0447
:101D70009091E403891B90E0B901660F771F0E94E0
:101D800096314091E20341110DC0009729F0215096
:101D900031098217930731F421E02093E20302C056
:101DA00080E090E0EC01C851DC4F8E01065E1F4FD1
:101DB0008991811103C00E94FC0A08C00E94A207F9
:101DC000C017D107A9F7F7CF1092E803DF91CF91A1
:101DD0001F910F91089596FB442740F96091830469
:101DE0007091840480918504909186040E94A90CCE
:101DF0000895CF92DF92EF92FF921F93CF93DF93DC
:101E0000182FC92F809197048F55863010F0DFEF7F
:101E100001C0D4E66091980470E080E090E00E94F8
:101E20003E2F6B017C016D2F70E080E090E00E94FE
:101E3000402F9B01AC01C701B6010E94962E20E005
:101E400030E048EC52E40E9463306B017C01C074C6
:101E500017FD47C088E80E94A2072AE037ED43E259
:101E600050E4C701B6010E9463300E940F2FAB01FE
:101E70006138710540F029E8209307014058510965
:101E8000E8E0F1E012C02DE820930801623171050D
:101E900050F42091DA03222331F080E2809307018D
:101EA000809308010AC0E7E0F1E0CA016AE170E04E
:101EB0000E9482318DE8861B8083CC2329F0B701F4
:101EC000A60185EE91E00AC04091B7045091B80494
:101ED0006091B9047091BA0489ED91E00E94030CFD
:101EE00013C0CC2329F0AB01BC0181ED91E00AC005
:101EF0004091B7045091B8046091B9047091BA044C
:101F00008AEC91E00E948F0BDF91CF911F91FF909F
:101F1000EF90DF90CF900895CF92DF92EF92FF92F3
:101F20008091DD0396FF24C081608093DD0329E862
:101F300038E848E85CE36091BF047091C004809188
:101F4000C1049091C2040E9463306B017C010E9425
:101F5000082F675F7F4F6331710518F080E892E0CA
:101F600002C088E892E0B701A6010E948F0B15C05D
:101F70008E7F8093DD03E0919F04F091A004729620
:101F800024914091BF045091C0046091C1047091AC
:101F9000C20484E592E00E94C30BFF90EF90DF90B3
:101FA000CF900895AB01BC01E0919F04F091A00493
:101FB000399624918FE592E00E94C30B08951F92F9
:101FC0000F920FB60F9211242F938F939F93EF933D
:101FD000FF939091C6008091C1058F5F8F7720910C
:101FE000C205821741F0E091C105F0E0E15CFA4FD3
:101FF00090838093C105FF91EF919F918F912F91D5
:102000000F900FBE0F901F9018951F920F920FB652
:102010000F9211248F939F93EF93FF939091C0059C
:102020008091BF05981779F0E091C005F0E0E55C7C
:10203000FA4F80818093C6008091C0058F5F8370C6
:102040008093C00505C08091C1008F7D8093C10041
:10205000FF91EF919F918F910F900FBE0F901F9066
:102060001895EAE7F0E080818B7F8083808186602D
:102070008083089595FB222720F994FD02C090E00B
:1020800001C092E0922B86FD02C080E001C084E096
:10209000892B08951F93CF93DF93182F0E943A1036
:1020A0008C5FC82FD0E017FD07C0BE016F5F7F4F68
:1020B00087E293E00E94150BCC0FDD1FC45EDE4F5C
:1020C000688179818FE293E00E94150BDF91CF91B7
:1020D0001F9108951F93CF93DF93182FC92F0E944C
:1020E0003A10D4E0D80F17FD08C06D2F70E06F5F75
:1020F0007F4F8CE293E00E94150BC6FB662760F9C8
:102100008D2F0E945A08D82FC0E0DC1302C081E84E
:1021100001C080E80E94A207CF5FC530B1F7DF9110
:10212000CF911F9108951F93CF93DF93182FC92F3D
:102130000E943A10D4E0D80F17FD08C06D2F70E050
:102140006F5F7F4F87E293E00E94150BC6FB662707
:1021500060F98D2F0E945A08182FC0E0D3E0CE01FD
:102160000E9400328F3F71F0811103C0112351F0A2
:102170001150111102C00E94A2072196C03883E0BD
:10218000D80769F7DF91CF911F9108950F931F939F
:10219000CF93DF93EC018B010E94E026DC01CB01A1
:1021A000800F911FA11DB11D88839983AA83BB83D2
:1021B000DF91CF911F910F9108959B01FC01408108
:1021C000518162817381420F531F611D711D4083D4
:1021D0005183628373830895E0919F04F091A0047A
:1021E000349665917591859194910895CF92DF927F
:1021F000EF92FF920F931F93CF93DF9300D000D005
:10220000CDB7DEB79B01AC0169833A834B835C8316
:102210000E94EC1029813A814B815C810E946330DD
:102220006B017C010E94082F00919F041091A00473
:10223000F801603177423CF439962491B701A60148
:1022400084E592E024C070966591749180E090E0FE
:102250000E943E2F9B01AC01C701B6010E94962E41
:102260006B017C010E94082F6A30710534F06436DE
:10227000710534F084E592E005C081E293E002C08C
:102280008BE193E0F8013F962491B701A6010E94EB
:10229000C30B0F900F900F900F90DF91CF911F9174
:1022A0000F91FF90EF90DF90CF9008956091BB0465
:1022B0007091BC048091BD049091BE040E94F61000
:1022C00008958091DB0382FF0CC0609152047091ED
:1022D000530480915404909155040E94402F0E9411
:1022E000F6100895CF93DF9300D000D0CDB7DEB7BE
:1022F0009B01AC0169833A834B835C830E94EC10A1
:1023000029813A814B815C810E9463300E94D20F07
:102310000F900F900F900F90DF91CF9108956091E3
:1023200041047091420480914304909144040E94BE
:1023300072110895E0919F04F091A0046591759148
:102340008591949108950F931F93CF93DF9380917C
:10235000D603182F117080FFDFC08E7F8093D603C5
:102360000E949A1120913D0430913E0440913F0417
:10237000509140040E9463300E94082FA0919D0458
:10238000B0919E048091DC0387FF09C081E090E05A
:1023900020916404223008F080E0EC0102C0C0E02B
:1023A000D0E0E091E804E1110AC02091EC0430E0B3
:1023B0006217730724F48091D90382FDC2602091D3
:1023C000EB04222329F030E0261737070CF4C46011
:1023D00030919804209197044091ED04442369F0D2
:1023E000CD0164E670E00E9482316115710529F02B
:1023F000842F90E068177907E4F04091F3044423B8
:10240000C9F054E6359FC0011124322F27FF02C0C6
:1024100031E0320F3595830F911D37FD9A95622F6C
:10242000220F770B0E949631842F90E0681779076E
:102430000CF4C8608091F20480FD0BC08091F4041C
:1024400090E020911D0430911E042817390708F4EC
:10245000C061E130E1F48091BF049091C004A0918B
:10246000C104B091C2040091EC04002381F0BC01CE
:10247000CD019F770E94082FCB016AE070E00E9497
:102480009631802F90E0861797070CF4C0628091F8
:102490009B0490919C0420912605222371F064E610
:1024A00070E00E9482316115710539F0822F90E051
:1024B0006817790714F4C06405C0209719F41092C6
:1024C00068032AC09091680381E09111890F80937D
:1024D0006803809168034FEF480F21E030E002C0AD
:1024E000220F331F4A95E2F740E08B3020F0412F56
:1024F00081E021E030E0B9016C237D23672B29F4D2
:102500008F5F220F331F412FF0CF4111809368035B
:1025100080916803981799F2E0916803EE2359F0CF
:10252000F0E0EE0FFF1FE95FF74F659174918FEABE
:1025300093E00E94D129DF91CF911F910F910895CF
:10254000DF92EF92FF920F931F93CF93DF93EC01F3
:10255000FE01059114910115110509F46BC0FE01EE
:102560003296849181110E94A207FE0133968491D4
:102570003196E590F490893691F030F4813609F483
:102580003FC08836C1F004C08337F1F0863729F1A7
:1025900050E2D52E60E070E080E89FE33AC0F7019A
:1025A00060817181072E000C880B990B0E94402FCF
:1025B00040E2D42E35C0E0919F04F091A0043996FA
:1025C000D4900E94EC1025C0E0919F04F091A004EB
:1025D0003896D4900E949A111CC00E94EC10209151
:1025E000DD0320FD14C0E0919F04F091A0047296D9
:1025F000D49020E030E040E752E40E94633009C00C
:1026000031E4D32E6AE077ED83E29CE302C028E157
:10261000D22EF70120813181428153810E946330A3
:102620002D2DAB01BC01C8010E94C30B0E94E80A1A
:1026300027968ECFDF91CF911F910F91FF90EF9052
:10264000DF90089587EC92E00E94A012089548E080
:10265000692F0E94B5076091830470918404809172
:1026600085049091860440E00E94A90C0E94E80A2B
:102670008FE591E00E94A0126CE784EA97E00E9447
:10268000200C0895CF92DF92EF92FF920F931F9349
:10269000CF938C016A017B01C22F0E949A11A7017E
:1026A00096010E946330C1110BC0E0919F04F0912C
:1026B000A0043896C49120E030E040E85FE305C014
:1026C000C8E126E636E646E650E40E94962EAB01C7
:1026D000BC012C2FC8010E94C30BCF911F910F91F9
:1026E000FF90EF90DF90CF90089596FB222720F97E
:1026F00040913D0450913E0460913F04709140042C
:1027000084E792E00E944213089596FB222720F965
:10271000409135045091360460913704709138042B
:1027200084E792E00E94421308952FE632E143E8E5
:102730005AE30E94633008950F931F93CF93DF9362
:1027400000D000D0CDB7DEB70091690310916A03C5
:102750000E94EC109B01AC018AEF809FB001819F29
:10276000700D1124072E000C880B990B2C833983D4
:102770004A835B830E94402F2C8139814A815B818F
:102780000E946330E0919F04F091A004083211058B
:102790005CF03F9624912C830E949513AB01BC0101
:1027A0002C8181E293E006C039962491AB01BC01F3
:1027B00084E592E00E94C30B0F900F900F900F9052
:1027C000DF91CF911F910F910895CF92DF92EF92F9
:1027D000FF920F931F93CF93DF93C82F8091E8044C
:1027E00081119BC020E030E0A90160913504709117
:1027F000360480913704909138040E948C2E8823EF
:1028000009F4E2C00E949A118091D90381FF1BC094
:102810001092760410927704109278041092790442
:102820004091BB045091BC046091BD047091BE0402
:102830004093620350936303609364037093650352
:102840008D7F8093D9032DEC3CEC4CE45DEB6091E3
:1028500072047091730480917404909175040E94C5
:102860008C2E87FF46C02091620330916303409114
:102870006403509165036091BB047091BC04809126
:10288000BD049091BE040E94AD2D20E030E0A9016E
:102890000E9463306B017C010E94EC109B01AC0133
:1028A000C701B6010E9463306B017C010E94082FB2
:1028B000603187E2780724F41616170644F084C0C6
:1028C000C12C8CE3D82E8CE1E82E86E4F82EC7FDCF
:1028D00003C08EEE0E94A207E0919F04F091A00435
:1028E00039962491B701A60184E592E00E94C30BBA
:1028F0006BC0809147049091480497FF65C0809118
:10290000DA03882319F069E073E002C068E073E03D
:102910008FEA93E00E94D12957C08091D703882382
:1029200009F452C0D09198040D2F10E080919604C4
:10293000082E000C990B08171907D9F18091D203C2
:1029400082FD37C060918304709184048091850476
:10295000909186040E943E2F6B017C016D2F70E0E8
:1029600080E090E00E943E2F9B01AC01C701B601C0
:102970000E9463306B017C0160919704062E000C6D
:10298000770B601B710B072E000C880B990B0E94B4
:10299000402F9B01AC01C701B6010E94962E0E94F8
:1029A00095130E940F2F7093950460939404D09315
:1029B0009604C7FD03C087E10E94A207809194049A
:1029C000909195040E944C0BDF91CF911F910F9134
:1029D000FF90EF90DF90CF90089540916E0450915A
:1029E0006F04609170047091710496FF0CC0809127
:1029F0005E0490915F04A0916004B0916104481B53
:102A0000590B6A0B7B0BCB01BA010E94402F0E942D
:102A100095130E9472110895BC0180E090E00E941D
:102A20003E2F0E949513AB01BC018FEB91E00E94F9
:102A30008F0B08958091300597FD0AC080628093C6
:102A4000300580919B0490919C040E940C15089580
:102A500091E020912605211101C090E090FB85F9BD
:102A600080933005089580919D0490919E040E946A
:102A70000C1508952091330430913404260F311D34
:102A80003093E7032093E6038093E50380912B04C2
:102A90008093E403089597FF03C088599E4F0895DB
:102AA000893621E0920714F0885691400895CF931B
:102AB000DF93EC010E94E02628813981CB01821B43
:102AC000930BDF91CF91089524E0880F991F2A95E9
:102AD000E1F78C549F4F68E671E00E949631CB017C
:102AE00001960895EF92FF921F93CF93DF9300D04A
:102AF00000D0CDB7DEB7809193048A3009F05AC078
:102B0000E090A104F090A20488EEE81683E0F806B5
:102B100054F489E1E8168CEFF8064CF489E1E82ECC
:102B20008CEFF82E04C097EEE92E93E0F92EE09199
:102B30009F04F091A0043996149160E070E08AE55A
:102B400092E00E94150B0E94EC10212F40E050E013
:102B5000BA0184E592E00E94C30B0E94E80A8091CA
:102B6000AF049091B0040E944B1520914504309120
:102B70004604821B930B0E9464150E94000B0E9466
:102B8000EC109B01AC01B701FF0C880B990B29835A
:102B90003A834B835C830E94402F29813A814B8189
:102BA0005C810E946330AB01BC01212F8BE492E079
:102BB0000E94C30B0F900F900F900F90DF91CF9159
:102BC0001F91FF90EF9008958F929F92AF92BF92C6
:102BD000CF92DF92EF92FF920F931F93CF93DF93E9
:102BE000C92F80E090E00E944B158C01C090390401
:102BF000D0903A04E0903B04F0903C048090C304F1
:102C00009090C404A090C504B090C604A50194019E
:102C1000C701B6010E94AD2D2AE037ED43E25CE327
:102C20000E946330A50194010E94AE2D6093C304FD
:102C30007093C4048093C5049093C604C6FBDD273B
:102C4000D0F92D2FB701A60184E792E00E9442132C
:102C50000E94E80A80914504909146049801281B3F
:102C6000390BC9010E9464159C2F9072C5FD98E034
:102C7000890F0E94000B4091C3045091C4046091DD
:102C8000C5047091C6042D2F8AE792E00E9442137A
:102C9000DF91CF911F910F91FF90EF90DF90CF9038
:102CA000BF90AF909F908F90089580914504909130
:102CB00046049195819591090E944B15845B910979
:102CC00090936304809362040E946415885F0E945D
:102CD000000B609162047091630482EF91E00E94A6
:102CE000150B0895CF92DF92EF92FF92CF93DF936F
:102CF000EC01FB01C080D180E280F380A701960146
:102D0000688179818A819B810E948C2E87FF04C013
:102D1000C882D982EA82FB82DF91CF91FF90EF9047
:102D2000DF90CF900895CF93DF93EC019A01AB0130
:102D3000688179818A819B810E94AE2D6883798325
:102D40008A839B83DF91CF9108954F925F926F9218
:102D50007F92BF92CF92DF92EF92FF920F931F93D9
:102D6000CF93DF9300D000D0CDB7DEB78FE794E0EC
:102D70000E9457156C0160E070E08FE794E00E94BC
:102D8000C6100E94EC102B013C0120E030E040EC2A
:102D900050E4609172047091730480917404909176
:102DA00075040E946330A30192010E9463302B01DD
:102DB0003C0126E636E646E65FE36091BF0470918B
:102DC000C0048091C1049091C2040E9463309B01B1
:102DD000AC01C301B2010E94AE2D6093BF04709399
:102DE000C0048093C1049093C20420919804809100
:102DF0009704082E000C990B422F50E0841795077A
:102E000014F420939704B60180E090E00E943E2FD6
:102E10000E9495132B013C018091DB0382FF16C0B9
:102E20008091D703882391F02091350430913604A6
:102E30004091370450913804C301B2010E946330BD
:102E4000AB01BC018BEB94E00E9493166091990456
:102E500070919A04072E000C880B990B0E94402F4A
:102E600021E63BE046E35BE30E946330A30192016D
:102E70000E946330AB01BC0187EB94E00E94931683
:102E800080911F04909120042091F20420FD5EC0E7
:102E9000E0902C05F0902D0500912E0510912F0546
:102EA0000E151F0540F43E2D2F2D7801032F122FF4
:102EB000BB24B39401C0B12C9701E816F90608F4BD
:102EC0009C01B8012017310708F4B90180E090E0B7
:102ED0000E943E2F2B013C01B70180E090E00E9450
:102EE0003E2F9B01AC01C301B2010E94AD2D2B010D
:102EF0003C01B8016E197F0980E090E00E943E2FEE
:102F00009B01AC01C301B2010E94962E20E030E08B
:102F100048EC52E40E9463300E94082F6536710528
:102F200028F470931E0460931D0406C084E690E0AC
:102F300090931E0480931D04BB2061F020911D041A
:102F400030911E0484E690E0821B930B90931E0444
:102F500080931D048091E804811104C08091D903FD
:102F600082FD05C08091D703882309F461C0B601B2
:102F700083E894E00E94DD10609152047091530444
:102F800080915404909155040E94402F69837A8364
:102F90008B839C83BE016F5F7F4F83EE94E00E9422
:102FA00072166DE374E08FED94E00E94721665E393
:102FB00074E08BED94E00E94721661E474E087ED9A
:102FC00094E00E94721669E374E083ED94E00E943D
:102FD00072166091990470919A04072E000C880B68
:102FE000990B0E94402F69837A838B839C83BE0157
:102FF0006F5F7F4F8FEC94E00E94721662E774E07F
:103000008BEC94E00E94721680917204909173048C
:10301000A0917404B0917504B05889839A83AB83EE
:10302000BC83BE016F5F7F4F87EC94E00E947216F5
:103030000F900F900F900F90DF91CF911F910F91F4
:10304000FF90EF90DF90CF90BF907F906F905F9058
:103050004F900895CF93DF93EC01CB01BA010E940A
:10306000402F25E93FEB46ED53E30E946330688330
:1030700079838A839B83DF91CF9108950E94E02614
:1030800060932D0470932E0480932F04909330044A
:1030900080913304909134049093320480933104EE
:1030A000E1EDF3E081E08083828308958AEA90E095
:1030B0000E94392708959091D203892F817090FF43
:1030C00005C09091D00381E0911180E00895809136
:1030D000450490914604880F991F8D966AE570E02B
:1030E0000E9496316830710514F060E070E0FB01D9
:1030F000ED5CFC4F8491089587FD04C00E94671821
:103100000E94A207609145047091460486E492E013
:103110000E94150B08954F925F926F927F928F924B
:103120009F92AF92BF92CF92DF92EF92FF920F9356
:103130001F93CF93DF9300D000D0CDB7DEB74C0103
:10314000D92C96FE0BC015E019C0133001F585ECA3
:103150000E94A2070E94E80A1150D9F4CC24C3941B
:10316000C80C692D8C2D0E94D90826E0B22EB80C0F
:1031700032E0A32EA90C94FECAC00FC082EB0E94BD
:10318000A2070DE0015009F30E94FC0AFBCF83EB7C
:10319000DFCF133099F786ECF2CF00914F041091F6
:1031A0005004E0904D04F0904E04C80117FF04C095
:1031B00088279927801B910B6AEF70E00E94963157
:1031C000362F272FC701F7FE04C0882799278E19AD
:1031D0009F096AEF70E00E949631832F922F861725
:1031E00097070CF4CB01BC016F5F7F4F70936A03AC
:1031F00060936903072E000C880B990B0E94402FE7
:103200002B013C01B701FF0C880B990B0E94402F4A
:1032100069837A838B839C8324EE38E34EE552E402
:10322000C301B2010E9463309B01AC0169817A81C4
:103230008B819C810E94962E0E94082FF62EB80149
:10324000110F880B990B0E94402F69837A838B831F
:103250009C832DE63BED4EE052E4C301B2010E9497
:1032600063309B01AC0169817A818B819C810E94D2
:10327000962E20E030E040E05FE30E94AE2D0E94F9
:10328000082F562E86FC0AC00E9467186A2D6F19F7
:10329000482F8B2D850D0E94B50739C080912204DF
:1032A000681304C080912304F816E1F0809126048D
:1032B00090912704909329048093280480912404FA
:1032C00090912504909327048093260480912204F2
:1032D0009091230490932504809324045092220417
:1032E000F092230408E214E092E2692E94E0792E31
:1032F000F80181816A2D681B808144E28B0D0E9458
:10330000B507025011096016710691F7BDCF87FC11
:103310000AC06A2D8B2D0E947D0760EB71E08FEA59
:1033200093E00E94D12995FEC1C08091D7038823E4
:1033300009F4BCC08091E804811185C060915204F9
:103340007091530480915404909155040E94402F31
:103350009B01AC0160E070E0CB010E942D2E21EEBC
:103360003EE245E652E40E9463300E94082F6A5014
:1033700071092DE2269FC001279F900D11246AE05C
:1033800070E00E949631CB01469669E070E00E94A1
:103390009631663078F400ED081B192D160F402F7A
:1033A000612F8CE0880D0E94B507402F612F8C2D76
:1033B0000E94B5078091510490E02091090130915D
:1033C0000A01821B930B0E944B15853B910534F03B
:1033D00028E631E0A901481B590BCA019C01245B76
:1033E000310948E4429FC001439F900D11246AE0D7
:1033F00070E00E949631CB01849666E070E00E94F6
:103400009631962F64E0690D97FF06C04CE38C2D32
:103410000E94B5074CE314C09D3054F01CE0180D19
:103420004EE3812F0E94B5074EE3692D812F3CC0EA
:103430001FEB180FC90E412F8C2D0E94B507412F8D
:10344000692D8C2D31C00E94EC10209141043091E7
:10345000420440914304509144040E94633020E0B0
:1034600030E040EA50E40E94AE2D2DEC3CEC4CE8FC
:1034700050E40E9463300E94082F862F9FEF960F22
:103480009B3240F469E00E9474314FEC491BD92C07
:10349000D80E08C06C322CF084E0D82ED90C4EE245
:1034A00001C04FEC6D2D8B2D0E94B5070F900F9032
:1034B0000F900F90DF91CF911F910F91FF90EF90A0
:1034C000DF90CF90BF90AF909F908F907F906F9044
:1034D0005F904F9008952F923F924F925F926F921C
:1034E0007F928F929F92AF92BF92CF92DF92EF9294
:1034F000FF920F931F93CF93DF93CDB7DEB72C9737
:103500000FB6F894DEBF0FBECDBF0E94E8060E9442
:10351000E0266B017C018091E8041091D7038111B2
:1035200014C0112301F18091D90382FF1CC0609166
:1035300035047091360480913704909138040E94CC
:10354000082F623071053CF40EC011110CC080913F
:10355000D803882341F0C092A304D092A404E0923F
:10356000A504F092A6041093D80380912B05853012
:1035700018F084E080932B058DE294E00E945715AB
:10358000853C9940A8F063E085E00E947D0760914A
:103590003304709134048091310490913204681B9B
:1035A000790B8EE991E00E94150B83E095E066C0EF
:1035B0008091D703811121C08091A3049091A4042C
:1035C000A091A504B091A604892B8A2B8B2BA9F07E
:1035D00083EA94E00E945715883B9B4070F4609109
:1035E000BB047091BC048091BD049091BE040E9404
:1035F000082F663071050CF0A2C28091DE0388238B
:1036000009F43FC08091BE0390912A04891721F0EC
:1036100080932A041092DE0382E00E94C608092EDD
:10362000000CAA0BBB0BB7FF07C0B095A0959095F7
:1036300081959F4FAF4FBF4F8D329140A105B1058E
:103640000CF087C283E00E94C608092E000CAA0B6A
:10365000BB0BB7FF07C0B095A095909581959F4F84
:10366000AF4FBF4F8D329140A105B1050CF071C233
:103670008091D70381116DC281E091E00E942713F0
:103680006BC280912B05882321F090912A04981712
:1036900018F48BE393E050C28091D70381114AC2A2
:1036A0001D821E821F8218864091BD03842E912C9C
:1036B00085E0489FA0011124FA01E551FC4F859156
:1036C00094919093B4038093B303FA01E351FC4FB8
:1036D00014910E94B108A12CB12C00E0712C1A8623
:1036E0001B86612C1986C12C101709F4B6C0DD2485
:1036F000D394D00EE090B303F090B403EA0CFB1C1B
:10370000F701459054906D2D81E00E947D07B20134
:103710008FEA93E00E94D1296D2D83E10E947D07FD
:1037200080910501081306C08EE30E94A207C09095
:10373000200302C00E94FC0AF70132968491319660
:1037400024912C87833609F442C060F48A3509F449
:103750003CC0823689F1811169C09EE0A90EB11C7E
:103760000D2DC2CF8836D1F088F4863609F05EC0C0
:10377000F7013496A591B4918D919D910D90BC91D6
:10378000A02D8D839E83AF83B88750C0833709F403
:1037900043C08A3709F04AC080E118C080911E03F7
:1037A000803419F46EE371E002C066E371E08FEAE1
:1037B00093E00E94D129D1CFF7013496A591B4911D
:1037C0006C9170E080E090E011C080E28987F701A1
:1037D0003496A591B4916C91062E000C770B9985C7
:1037E000691B7109072E000C880B990B0E94402F52
:1037F0001B012C012C85622F70E080E090E00E947C
:103800003E2F9B01AC01C201B1010E94962E6D8337
:103810007E838F8398870AC0F701349665917491EF
:1038200044E050E0CE0105960E947D0A809105019A
:10383000BD81AE813F812885081304C07B2EAA87F5
:103840003B87622EF7013896859194914B2F5A2F22
:10385000632F722F0E948F0B80CF85E0889DF0012F
:10386000899DF00D1124E251FC4F859194910097B0
:1038700011F0FC0109958091DB0383FF6DC1877F07
:103880008093DB0301E00093D10381E00E94C6082E
:103890008739910514F081E004C08A369F4F24F4E3
:1038A0008FEF0E94820858C183E00E94C6088739C2
:1038B00091055CF0009305018091BD03823019F4FD
:1038C0001092BD0349C18F5F0CC08A369F4F64F4CC
:1038D000009305018091BD03811102C082E001C007
:1038E00081508093BD0338C1609105016F5F8C2DBD
:1038F0000E947D0780910501E090B303F090B4032E
:103900009EE0899FE00CF11C112480E00E94C60813
:103910006C0197FF06C0D194C194D1088824839488
:1039200001C0812CF7013496A590B490F70132962E
:10393000049131969490872D9A85AB85B62D8D8311
:103940009E83AF83B887043630F4023660F40A35BC
:1039500009F04AC008C0033771F10A3721F0063672
:1039600009F042C028C0EDE2CE16E1E0DE0684F0A8
:10397000692D70E080E090E00E943E2F9B01AC0139
:1039800060E070E080E291E40E94962E11E04AC06F
:10399000F7E9CF16D10464F1692D70E080E090E082
:1039A0000E943E2F9B01AC0160E070E080E89FE345
:1039B0000E94962E20C021E9C21621E0D2066CF5A5
:1039C0008DE2C81681E0D806C4F499ECC916D1047A
:1039D000CCF414E0E5E6CE16D1040CF45BC06FE63F
:1039E00072E183E89AE31EC060E070E0CB010FC093
:1039F00060E070E0CB0111E00AC06DEC7CEC8CEC77
:103A00009DE304C06AE077ED83E29CE314E0F5E611
:103A1000CF16D1040CF43EC005C060E070E080E831
:103A20009FE314E081109058AB01BC01CE010596D4
:103A30000E949316F7013A9665917491F7013C96AE
:103A4000C590D490072E000C880B990B0E94402F34
:103A50001B012C012D813E814F8158850E945630DB
:103A6000181624F42D823E824F825886B601DD0C52
:103A7000880B990B0E94402F1B012C012D813E8148
:103A80004F8158850E948C2E87FF04C02D823E8274
:103A90004F8258862D803E804F805884A20191012C
:103AA000672D7A858B85962D0E948C2E882309F4AC
:103AB00053C0692D70E080E090E00E94402FA20189
:103AC00091010E9463300E94082F0336A9F028F468
:103AD0000A3579F0023681F01CC0033781F00A37CD
:103AE00051F00636B1F4F5012082318242825382D0
:103AF00010C0605E01C0605FF50160830AC029826A
:103B00003A824B825C8244E050E0B501CE010196DE
:103B100006C0412F50E0B501645E7240C5010E94AD
:103B2000450CF7013696859194910097A9F0FC0118
:103B3000099512C083EE93E00E94EF0C0DC081E066
:103B40008093DE030E94B10880912A048093BE0313
:103B500093CD1092DE0390CD2C960FB6F894DEBF75
:103B60000FBECDBFDF91CF911F910F91FF90EF90CE
:103B7000DF90CF90BF90AF909F908F907F906F908D
:103B80005F904F903F902F9008951F920F920FB625
:103B90000F9211242F933F934F935F936F937F93D3
:103BA0008F939F93AF93BF93EF93FF931092D003A4
:103BB0008091CF038F5F8093CF0380916703882329
:103BC00031F0809166038F5F8093660314C080910B
:103BD000E303882381F0809167038F5F80936703FD
:103BE00078940E94C507F8941092E30380916703CC
:103BF000815080936703FF91EF91BF91AF919F91A7
:103C00008F917F916F915F914F913F912F910F9085
:103C10000FBE0F901F901895CF92DF92EF92FF92F8
:103C20000E94EC266B017C0183E00E94C327813057
:103C300049F4C092C803D092C903E092CA03F0923B
:103C4000CB031FC08091C8039091C903A091CA0300
:103C5000B091CB030097A105B10599F0C81AD90A14
:103C6000EA0AFB0AD092CD03C092CC031092C8039B
:103C70001092C9031092CA031092CB0381E0809383
:103C8000CE03FF90EF90DF90CF90089566E970E04B
:103C900080E090E00E941127089565E085E00E9491
:103CA0007D0762E673E08FE091E00E94150B0E94B1
:103CB000E0264AE050E08FEA93E00E9403298091D9
:103CC000FE048F3421F48091FF048A3159F061E0C1
:103CD00081E00E947D076091FE0470E082EF90E039
:103CE0000E94150B0E94461E0E94C50708951F9250
:103CF0000F920FB60F9211242F933F934F935F9320
:103D00006F937F938F939F93AF93BF93EF93FF93A3
:103D10000E940C1EFF91EF91BF91AF919F918F91E7
:103D20007F916F915F914F913F912F910F900FBEB7
:103D30000F901F9018950FB6F894A8958091600089
:103D4000886180936000109260000FBE60E071EEA9
:103D500080E090E00E94402942E050E060E072E0A4
:103D600080E395E00E947D0A48E450E064E072E060
:103D700088EE94E00E947D0A8091300581FD03C0A9
:103D800087EA98E002C084E998E09093A0048093C9
:103D90009F0484B58C7F84BD83E00E943B280E94F1
:103DA0003110809169008C7F826080936900E89A6D
:103DB0008091E904813059F462E083E00E94672732
:103DC00080916900837F846080936900E99A5E9A9C
:103DD0000E94C507789480910005883341F4809152
:103DE0000105863321F480910205863381F088E352
:103DF0008093000586E3809301058093020543E0EC
:103E000050E06CE172E080E095E00E94450C80910A
:103E100029058823B9F0E0912A05EE2399F0F0E016
:103E2000EE0FFF1FE45DFE4F859194918093C703D1
:103E3000882341F061E00E94672760E08091C7031A
:103E40000E94A3270E9461070E944D1E10921C042D
:103E50000895E0910301EF5FE0930301E770F0E064
:103E6000EE0FFF1FEE5AFC4F9183808388E060E0E5
:103E700070E08150E82FF0E0EE0FFF1FEE5AFC4F8C
:103E800020813181620F731F8111F3CF80E090E0B8
:103E90000E943E2F20E030E040E05EE30E9463306D
:103EA0000895CF92DF92EF92FF92CF93DF938091AC
:103EB000300584FD04C08091DB0385FFABC0C09159
:103EC0000201CF5FC093020180E10E943E28C770CB
:103ED000EC2FF0E0EE0FFF1FEE5BFC4F9183808331
:103EE00088E0C0E0D0E08150E82FF0E0EE0FFF1F47
:103EF000EE5BFC4F20813181C20FD31F8111F3CFC4
:103F00002091BF033091C00347E0429FC001439F0F
:103F1000900D11248C0F9D1F23E0969587952A956F
:103F2000E1F79093C0038093BF038091300584FF35
:103F300071C029E53EEE49E050E4609106057091BC
:103F4000070580910805909109050E9463306B0177
:103F50007C01BE0180E090E00E943E2F9B01AC01FD
:103F6000C701B6010E9463300E940F2F40919D044B
:103F700050919E044115510529F470939E0460935D
:103F80009D0412C09A01220F331F240F351F2E5F8C
:103F90003F4FA901460F571F569547955695479590
:103FA00050939E0440939D0481E08093D103E0915F
:103FB000ED048E2F61E20E946831482F80919D04AC
:103FC00090919E04C29664E670E00E948231F0E017
:103FD0009B012E1B3F0BAFEFB0E00E94EB315AE28A
:103FE000459F900111242E1B3F0B032E000C440B08
:103FF000550B0E94CC3137FF03C0109298040AC0C1
:104000002F3F310529F024F08FEF8093980402C0F0
:10401000209398048091300585FD04C08091DB03D6
:1040200086FF75C0C0910101CF5FC09301018EE092
:104030000E943E28C770EC2FF0E0EE0FFF1FEE5CF1
:10404000FC4F9183808388E0C0E0D0E08150E82F6E
:10405000F0E0EE0FFF1FEE5CFC4F20813181C20FBC
:10406000D31F8111F3CF2091C1033091C20347E0E8
:10407000429FC001439F900D11248C0F9D1FA3E010
:1040800096958795AA95E1F79093C2038093C10313
:104090008091300585FF3BC029EA3CEC48E050E4C4
:1040A00060910A0570910B0580910C0590910D05AA
:1040B0000E9463306B017C01BE0180E090E00E94B1
:1040C0003E2F9B01AC01C701B6010E9463300E94E4
:1040D0000F2F40919B0450919C044115510529F4E8
:1040E00070939C0460939B0412C09A01220F331FAB
:1040F000240F351F2E5F3F4FA901460F571F5695BE
:1041000047955695479550939C0440939B04809106
:10411000300586FD04C08091DB0387FF82C080915B
:10412000DC0381FF0AC020E137E240E050E061E0BB
:104130008FE00E940928CB0103C08FE00E943E2837
:10414000E0910001EF5FE0930001E770F0E0EE0F17
:10415000FF1FEE5DFC4F9183808388E0C0E0D0E0DC
:104160008150E82FF0E0EE0FFF1FEE5DFC4F208145
:104170003181C20FD31F8111F3CF2091C30330913E
:10418000C40347E0429FC001439F900D11248C0F50
:104190009D1F33E0969587953A95E1F79093C40378
:1041A0008093C3038091300586FF3BC02DE032E34E
:1041B00048EC5CE360910E0570910F05809110054D
:1041C000909111050E9463306B017C01BE0180E07B
:1041D00090E00E943E2F9B01AC01C701B6010E94F6
:1041E00063300E940F2F4091990450919A04411519
:1041F000510529F470939A046093990412C09A01AE
:10420000220F331F240F351F2E5F3F4FA901460F8A
:10421000571F569547955695479550939A04409346
:1042200099048091F2048695823081F048F48823C5
:1042300061F1813009F05CC081E10E943E280FC02D
:10424000853008F055C080E090E022C020E23EE4D6
:1042500040E050E061E081E10E940928CB010E942A
:10426000291F20911205309113054091140550919A
:1042700015050E9463300E940F2F709320046093F5
:104280001F0481E08093D10333C08091210490E02A
:104290000E94291F0E940F2F7093200460931F0417
:1042A0008091DC0380FF24C082FF09C020E137E257
:1042B00040E050E061E081E10E94092804C081E112
:1042C0000E943E28BC012091C5033091C60347E0FF
:1042D000429FC001439F900D1124680F791F83E016
:1042E000769567958A95E1F77093C6036093C50349
:1042F000DF91CF91FF90EF90DF90CF9008951F93C3
:10430000CF93DF932091C703222329F1E091290560
:10431000F0E0EE0FFF1FEC5DFE4F8081918130E0F9
:10432000F901E253F74F1491F901EE51F74FE4917F
:10433000F0E0EE0FFF1FE050F74FC591D491F894D5
:104340002881212B28830E9439278881E12FE0953D
:10435000E823E8837894DF91CF911F9108958FEA45
:1043600093E00E94B5068BEA93E00E943829EFEFB4
:10437000F3E088E992E097A786A78CE992E095AFF1
:1043800084AF80EB92E090934A048093490484EBDD
:1043900092E0909358048093570488EC92E09093B5
:1043A0006604809365048CEC92E09093740480938F
:1043B000730408951F93CF93DF931AE08BEA93E081
:1043C0000E948F29882309F41AC1C0917E03D091DD
:1043D0007F038BEA93E00E94AD29C130D105B9F08B
:1043E00070F0C230D10521F0C330D10549F1E6CFDC
:1043F0008E34C1F088F48134A9F08734A9F021E02B
:1044000090E0843209F020E0C22FD92FD7CF843535
:10441000B1F7C2E0D0E0D2CF8F3431F0833579F7F5
:104420009BE003C09AE001C092E190937D038093EA
:104430007A031092790310927B03C3E0D0E0BECFE1
:1044400060917B03682760937B0390917903492FE8
:1044500050E020917D0330E024503109421753078A
:1044600009F0C5C06111CBCF8091D20380618093E8
:10447000D2030E943E1880917A03873439F0833545
:1044800009F482C0813409F0ACC047C040916B038D
:1044900050916C0360916D0370916E0386E694E019
:1044A0000E942A184091A3035091A4036091A50390
:1044B0007091A6038AE694E00E942A188091E9038D
:1044C0009091EA03A091EB03B091EC0380936E040A
:1044D00090936F04A0937004B09371046091730380
:1044E00084E6689FB0011124072E000C880B990BFD
:1044F0000E94402F609335047093360480933704F4
:104500009093380480917803982F96959695909380
:10451000650483708093640464C020916D033091BE
:104520006E03129FC001139F900D112490934A04B3
:104530008093490420916B0330916C03129FC0015A
:10454000139F900D11249093480480934704809109
:104550006F03909170038C549F4F0E944B15909362
:104560004C0480934B044091660450916704609121
:10457000680470916904452B462B472B91F5909365
:104580004604809345042DC08091300584FD0CC005
:1045900080916B0390916C0390939E0480939D0493
:1045A00080916D038093980480916F038093210420
:1045B0006091700370E080E090E00E943E2F609375
:1045C0003D0470933E0480933F0490934004809197
:1045D0007103982F91709093D70386958695809359
:1045E00093040E945B18882309F4E8CE0CC09F5FF7
:1045F00090937903FA01E559FC4F8083DFCED09385
:104600007F03C0937E03DF91CF911F9108954F9256
:104610005F926F927F928F929F92AF92BF92CF9252
:10462000DF92EF92FF920F931F93CF93DF9300D00F
:1046300000D0CDB7DEB7A8950E94E0266B017C01C3
:1046400028EE33E040E050E00E94AA313093340479
:104650002093330424E1C21625E0D206E104F104DC
:1046600008F087C00E948229882309F47FC00E9435
:1046700092298A3031F480911C048F5F80931C044E
:1046800002C010921C0480911C04843058F38CB535
:1046900083608CBD6DEE70E08BEA93E00E94D129BF
:1046A000B12CE12CF12C912CA12CE7EECE2EE0E0E8
:1046B000DE2E0BEA13E03FEFE316F10411F00CF0ED
:1046C0004EC00E9482298823B1F30E94922982332E
:1046D00038F48033D8F48A3071F38D3039F023C048
:1046E000823709F5A1E0EA1AF1081DC088E09812A6
:1046F00019C0EA2DF0E0E559FC4F8081B826A3945B
:10470000EA2DF0E0E559FC4F10820CC0EA2DF0E0F4
:10471000E559FC4F9081990F813309F49F5F908395
:10472000939401C0912CB0E4AB12C5CF6BE673E05B
:10473000C7010E94EC07EFEFEE1AFE0A1F92BF922C
:10474000DF92CF921F930F930E94FC290F900F903E
:104750000F900F900F900F90B12CA12CACCF63EE67
:1047600070E08BEA93E00E94D129CBC20E944D1EDB
:10477000C8C28091D20384FD7DC080912C0465E085
:104780000E946831913021F0943009F473C074C0F4
:104790000E947F290E94E0264B015C01F4E68F0E07
:1047A000911CA11CB11C0AEF1FEF0E94E026861687
:1047B0009706A806B906A8F024EC39E040E050E0DE
:1047C00060E080E00E9409286F3F71058105910536
:1047D00009F02CF4662319F0611708F4162F015024
:1047E00021F71F3F19F41091040102C01093040136
:1047F0001B3088F01331B0F01D31D0F01832F0F0DA
:104800001C3318F1163938F570E8872E75E2972EAB
:10481000A12CB12C26C0812C62EC962EAA24A39444
:10482000B12C1FC0812C51EE952EA12CB12C19C09A
:10483000812C46E9942EA12CB12C13C030E8832E94
:1048400030E7932EA12CB12C0CC0812C2BE4922E9E
:10485000A12CB12C06C090EC892E92E1992EA12CAE
:10486000B12C8BEA93E00E942F29C501B4010E946C
:10487000402902C00E94DA218091D103882309F4E3
:10488000DDC0E091E904E33008F4CCC0B0902A0424
:10489000E33029F48091CC039091CD0339C08BEFA4
:1048A0008E0F843040F4F0E0EE0FFF1FE65EFE4F07
:1048B000808191812DC0E43049F5809193049AEF75
:1048C000980F923008F474C090917E04891789F093
:1048D00080937E0460E070E08AE794E00E94C61056
:1048E00090917E0480910601981303C081E080932B
:1048F000D4038AE794E00E945715813D974008F45D
:1049000057C0809193048093060152C080E090E0EC
:104910002091EE04211118C060912B058D3434E0F4
:10492000930760F09C012C54344070E080E293E0E7
:104930000E949631C9010E94823101C060E0B61622
:10494000B9F160932A0434C02091300520FF13C0D0
:10495000815B94408730974020F481E08093D503B9
:1049600027C08091D503882319F081E08093D40378
:104970001092D5031DC08D5D95408B3D9540C0F4D0
:104980000E94E02600917A0410917B0420917C041F
:1049900030917D04061717072807390748F481E08E
:1049A0008093D40364EF71E08AE794E00E94C6101C
:1049B0008091D403882369F01092D40380912A0453
:1049C0008F5F80932A0490912B05981710F4109212
:1049D0002A0480912A04B81629F191E09093D1031A
:1049E00098E0E5EBF3E0DF011D929A95E9F79091ED
:1049F000DF0390FD12C0A8EEB3E0EAEDF0E0949181
:104A00009D9331969111FBCF9091EF03890F809385
:104A1000EF0363E088E00E943A158091DF038E7F08
:104A20008093DF038091D20380FD06C08160809374
:104A3000D20381E08093D0031092D1038091D203FE
:104A400080FF2FC09091D00391112BC08E7F809357
:104A5000D20390916404992329F08091DC0380684B
:104A60008093DC038091D7038111ABC08091DB037D
:104A700082FDB4C0933070F08CE0E6E6F4E0A6E589
:104A8000B4E001900D928A95E1F78091DB03846098
:104A90008093DB030E94A5160E946B1A81E080932D
:104AA000E30380918F0490919004A0919104B091C0
:104AB00092048C159D05AE05BF0540F464E170E0DD
:104AC0008FE894E00E94DD100E947F2180918B048A
:104AD00090918C04A0918D04B0918E048C159D054D
:104AE000AE05BF0558F564E670E08BE894E00E94DF
:104AF000DD100E94511F8091DB0384FB222720F9E7
:104B000091E0922790FB84F98093DB039923B1F025
:104B10008091E203882369F08F5F8093E203833002
:104B200068F080912B048F5F80932B041092E20336
:104B300005C080912B048F5F80932B0480918704A4
:104B400090918804A0918904B0918A048C159D05E8
:104B5000AE05BF0508F0D5C064EF71E087E894E0CA
:104B60000E94DD1081E08093D1039091DB03986077
:104B70009093DB0390912C049F5F90932C04909171
:104B8000DA0389278093DA03882309F4BAC0809175
:104B9000D60381608093D6038091CF03853060F483
:104BA0008091E7048F5F8093E704843038F00E949F
:104BB000C5070E94380702C01092E7041092CF0385
:104BC000A0C08091D90380FD51CF2091DB032B7FC2
:104BD0002093DB0381608093D90348CF80905604F3
:104BE00090905704A0905804B0905904C501B401A6
:104BF0009F7725E33AEF4EE85CE30E9463300E9422
:104C0000912E2B013C012091660430916704409164
:104C1000680450916904C501B4010E94620C4B0103
:104C20005C0120916A0430916B0440916C045091B6
:104C30006D0460915A0470915B0480915C049091C2
:104C40005D040E94620C9B01AC01C301B2010E9491
:104C500063302B013C01A5019401C501B4010E9400
:104C6000633069837A838B839C83A3019201C301A0
:104C7000B2010E9463309B01AC0169817A818B8112
:104C80009C810E94AE2D0E94D6300E94082F609316
:104C90005204709353048093540490935504C501B7
:104CA000B4019F770E94082F7093500460934F04C3
:104CB000C301B2019F770E94082F70934E04609346
:104CC0004D04A30192015058C501B4010E942D2E3C
:104CD00020EE3EE245E652E40E9463300E94082F37
:104CE0006A5571098091450490914604FB01E81BC7
:104CF000F90BCF010E944B150E946415809351045B
:104D0000C9CE0F900F900F900F90DF91CF911F9110
:104D10000F91FF90EF90DF90CF90BF90AF909F905A
:104D20008F907F906F905F904F9008951F920F9299
:104D30000FB60F9211242F933F938F939F93AF93AE
:104D4000BF938091330590913405A0913505B091C2
:104D500036053091320523E0230F2D3720F40196DC
:104D6000A11DB11D05C026E8230F0296A11DB11D8E
:104D7000209332058093330590933405A093350535
:104D8000B09336058091370590913805A09139058B
:104D9000B0913A050196A11DB11D809337059093FE
:104DA0003805A0933905B0933A05BF91AF919F9113
:104DB0008F913F912F910F900FBE0F901F901895DC
:104DC0002FB7F894609133057091340580913505C3
:104DD000909136052FBF08953FB7F894809137051D
:104DE00090913805A0913905B0913A0526B5A89B58
:104DF00005C02F3F19F00196A11DB11D3FBFBA2F6D
:104E0000A92F982F8827820F911DA11DB11DBC01CC
:104E1000CD0142E0660F771F881F991F4A95D1F791
:104E20000895CF92DF92EF92FF92CF93DF936B01C1
:104E30007C010E94EC26EB01C114D104E104F104D1
:104E400089F00E9408280E94EC266C1B7D0B683EAE
:104E5000734090F381E0C81AD108E108F108C85105
:104E6000DC4FEACFDF91CF91FF90EF90DF90CF90B2
:104E700008958230910538F0880F991F880F991F87
:104E800005970197F1F70895789484B5826084BD01
:104E900084B5816084BD85B5826085BD85B581603E
:104EA00085BDEEE6F0E0808181608083EAE7F0E096
:104EB0008081846080838081826080838081816042
:104EC00080838081806880831092C1000895CF9391
:104ED000DF9390E0FC01E253F74F2491FC01EE5187
:104EE000F74F8491882361F190E0880F991FFC01AE
:104EF000E65FF64FC591D491FC01E050F74FA591C4
:104F0000B491611109C09FB7F894888120958223DC
:104F10008883EC912E230BC0623061F49FB7F89424
:104F20008881322F309583238883EC912E2B2C930C
:104F30009FBF06C08FB7F894E8812E2B28838FBFC0
:104F4000DF91CF91089590E0FC01E253F74F249157
:104F5000FC01EE51F74FE491EE23A1F0F0E0EE0FEB
:104F6000FF1FE050F74FA591B4919FB7F8946111DE
:104F700005C08C91E22FE095E82302C0EC91E22B72
:104F8000EC939FBF089590E0FC01E654F74F249105
:104F9000FC01E253F74F3491FC01EE51F74FE491DD
:104FA000EE23A1F1222339F1233091F038F421309E
:104FB000A9F0223001F584B58F7D12C0273091F021
:104FC0002830A1F02430B9F4809180008F7D03C097
:104FD000809180008F77809380000DC084B58F779B
:104FE00084BD09C08091B0008F7703C08091B0006C
:104FF0008F7D8093B000F0E0EE0FFF1FEA50F74F77
:10500000A591B491EC91E32381E009F480E0089547
:1050100008950F931F9390E0FC01E253F74F7491B2
:10502000FC01EE51F74FE491662311F0672F01C0A8
:1050300060E0F0E0EE0FFF1FEA50F74F859194918A
:1050400089019A013F70462F672F0E94370561152D
:1050500071058105910549F0DC01CB010196A11D87
:10506000B11DBC01CD019F7003C060E070E0CB01B9
:105070001F910F91089580930B0108958E3008F0D1
:105080008E5020910B0190E4299F9001112487708C
:10509000822B80937C0080917A00806480937A00D8
:1050A00080917A0086FDFCCF809178002091790074
:1050B00090E0922B0895CF92DF92EF92FF920F93A0
:1050C0001F93CF93DF936C017A018B01C0E0D0E096
:1050D000CE15DF0581F0D8016D918D01D601ED91DE
:1050E000FC910190F081E02DC6010995892B11F00A
:1050F0002196EECF7E01C701DF91CF911F910F91D5
:10510000FF90EF90DF90CF9008956115710581F0C9
:10511000FB0101900020E9F73197AF01461B570BC7
:10512000DC01ED91FC910280F381E02D0995089559
:1051300080E090E008950E94852808958F929F92C4
:10514000AF92BF92CF92DF92EF92FF920F931F9395
:10515000CF93DF93CDB7DEB7A1970FB6F894DEBF3C
:105160000FBECDBF6C01142FE52FCB01022F19A26A
:10517000223008F40AE07E0121E2E20EF11C802ECA
:10518000912CA12CB12C612F7E2FA50194010E949E
:10519000AA31029F1019112481E0E81AF1081A308F
:1051A00014F4105D01C0195CF7011083122FE32F76
:1051B000CA01232B242B252B31F7B701C6010E94EE
:1051C0008528A1960FB6F894DEBF0FBECDBFDF9144
:1051D000CF911F910F91FF90EF90DF90CF90BF90F4
:1051E000AF909F908F9008952115310549F4DC010F
:1051F000ED91FC910190F081E02D642F09950895C7
:105200000E949E2808959A01AB0160E070E00E9420
:10521000F428089508950E9444270E940A290E94B4
:105220009B1EC0EDD9E20E9407232097E1F30E9464
:10523000D029F9CF9091C100892F807194FF0EC0C1
:105240009091C1058091C205981302C080E0089535
:10525000E091C205F0E0E15CFA4F80810895E1EC55
:10526000F5E081818083EFEBF5E080818183089513
:10527000FC011382128220E331E031832083089500
:105280009B01AC018091C10084FD1092C10010927D
:10529000C0051092BF051092C2051092C1051216EA
:1052A000130614061506FCF4211581EE3807410596
:1052B000510501F182E08093C00060E079E08DE368
:1052C00090E00E94CC31CA01B90161507109810995
:1052D000910922E030E040E050E00E94CC31309370
:1052E000C5002093C40088E98093C10086E08093C4
:1052F000C20008951092C00020E130E0F0CF10927B
:10530000C10008959091C100892F807194FF06C05B
:105310008091C1059091C205891B8F7708950E94E5
:10532000822908959091C100892F807194FF14C043
:105330009091C1058091C205981302C080E0089544
:10534000E091C205F0E0E15CFA4F80819091C205E6
:105350009F5F9F779093C20508950E9492290895B8
:105360009091C10094FF15C09091BF059F5F93700D
:105370002091C0059217E1F3E091BF05F0E0E55CF4
:10538000FA4F80839093BF058091C1008062809323
:10539000C1000895862F0E94B02981E090E0089511
:1053A00008950F931F93CF93DF938C01FB016491BA
:1053B000EF012196662351F0D801ED91FC91019007
:1053C000F081E02DC8010995FE01F1CFDF91CF9169
:1053D0001F910F910895CF93DF93CDB7DEB79E0154
:1053E000275F3F4F4F81588560E08D819E810E94ED
:1053F000152ADF91CF910895CF93DF93CDB7DEB714
:105400009E01275F3F4F4F81588561E08D819E81CE
:105410000E94152ADF91CF910895DC01ED91FC9156
:105420000190F081E02D099508952F923F924F92BF
:105430005F926F927F928F929F92AF92BF92CF9224
:10544000DF92EF92FF920F931F93CF93DF93CDB72D
:10545000DEB761970FB6F894DEBF0FBECDBF7C01FB
:105460006C876A013901AE014F5F5F4F4A01F60157
:105470005C8550FD059150FF01916F01002309F4F7
:105480003AC3053241F450FD059150FF01916F017F
:10549000053271F406C00A3021F46DE0C7010E94A4
:1054A0000D2A602FC7010E940D2A53013501DFCF5D
:1054B00010E0312C20E02032A0F40B3269F030F4FF
:1054C000003259F0033269F420612CC00D3239F0FA
:1054D000003339F4216026C02260246023C0286094
:1054E00021C027FD28C080ED800F8A3078F426FF88
:1054F00006C09AE0199F800D1124182F13C0EAE00E
:105500003E9E800D1124382E20620CC00E3221F4F4
:1055100026FDF1C2206406C00C3611F4206802C0DA
:10552000083649F4F6014C8540FD059140FF019194
:105530006F010111C0CF8BEB800F833018F4206115
:10554000005E06C08BE9800F833008F059C12F7EC2
:1055500026FF16E02F73522E053619F42064522EC2
:1055600008C0063621F4522F5068552E02C0111182
:10557000115057FE05C01C3348F431E0310F07C00D
:10558000183038F030E027E017E005C03CE327E0B2
:1055900002C0212F30E0530184E0A80EB11CF301BA
:1055A0006081718182819381032FA401398B0E94D4
:1055B000DA053C012980398920FE02C023FE06C09D
:1055C00051FC06C052FE06C000E205C00DE203C059
:1055D0000BE201C000E0822D8C7019F0011158C25D
:1055E0005CC257FE0DC0360D24FE04C08A81813393
:1055F00009F4315013165CF5393060F138E02AC0F7
:1056000056FC28C0812F90E08615970544F0FCEFEA
:105610006F16FFEF7F061CF0252D2068522E1123F8
:1056200059F0E2E0F0E0EC0FFD1FE10FF11D808189
:10563000803311F41150F3CF57FE0CC031E0310F1D
:10564000812F90E06816790624F4161903C031E022
:1056500001C010E057FE06C01614170434F4C3014D
:10566000019605C085E090E002C081E090E0011164
:105670000196112331F0412F50E04F5F5F4F840FAF
:10568000951F432D50E08417950714F4381A01C074
:10569000312C852D897051F4332041F060E2C7012F
:1056A000398B0E940D2A3A943989F6CF002331F0C4
:1056B000602FC701398B0E940D2A398953FC0AC01B
:1056C000332041F060E3C701398B0E940D2A3A94E0
:1056D0003989F6CF57FE4BC0230177FE02C0412C1B
:1056E000512CC301019684199509A401480F591F33
:1056F0005E874D87A301431B5109588B4F87012FAC
:1057000010E01195019511095FEF4516550621F43A
:105710006EE2C7010E940D2A641475044CF04F8597
:1057200058894415550524F4ED85FE85608101C036
:1057300060E3F1E04F1A51084D855E854F5F5F4F82
:105740005E874D874016510624F0C7010E940D2A3E
:10575000DBCF6414750409F04FC08A81863328F4C6
:10576000853309F049C024FC47C061E345C06A8124
:10577000613319F0522D5F7E252EC7010E940D2A3C
:10578000111104C054FC15C065E614C06EE2C701D7
:105790000E940D2A1E5F82E001E0080FF401E80F6D
:1057A000F11D6081C7010E940D2A802F0113F4CFE3
:1057B000E9CF65E4C7010E940D2A77FC05C061149A
:1057C000710439F424FE05C07194619471086DE28E
:1057D00001C06BE2C7010E940D2A60E38AE06816EF
:1057E00071042CF06F5F9AE0691A7108F7CFC70156
:1057F0000E940D2A60E3660DC7010E940D2A3FC179
:10580000033631F0033779F0033509F056C021C073
:105810005301E2E0AE0EB11CF3018081898301E007
:1058200010E0340114C05301F2E0AF0EB11CF301DB
:105830006080718026FF03C0612F70E002C06FEFAF
:105840007FEFC301298B0E94A22D8C0129892F771C
:1058500015C05301F2E0AF0EB11CF30160807180FE
:1058600026FF03C0612F70E002C06FEF7FEFC3011E
:10587000298B0E94972D8C0129892068522E23FDA7
:1058800018C0832D90E00817190798F460E2C7014B
:105890000E940D2A3A94F5CFF30157FC659157FE0B
:1058A00061913F01C7010E940D2A31103A940150C5
:1058B00011090115110581F7E2C0043611F009360E
:1058C00059F5530127FF09C0F4E0AF0EB11CF301F5
:1058D00060817181828193810AC0F2E0AF0EB11CB8
:1058E000F30160817181072E000C880B990B2F76D4
:1058F000522E97FF09C090958095709561957F4FC6
:105900008F4F9F4F2068522E2AE030E0A4010E9462
:105910007C05682E681848C0053729F42F7E522E62
:105920002AE030E025C0F22FF97F5F2E0F36C1F05C
:1059300018F4083579F0DFC0003719F0083721F086
:10594000DAC02F2F2061522E54FE0DC0452D446029
:10595000542E09C024FF0AC05F2F5660552E06C082
:1059600028E030E005C020E130E002C020E132E074
:10597000530157FE09C084E0A80EB11CF3016081F9
:1059800071818281938108C0F2E0AF0EB11CF301F6
:105990006081718180E090E0A4010E947C05682E06
:1059A0006818F52DFF775F2E56FE0BC0052D0E7F74
:1059B000611650F454FE0AC052FC08C0052D0E7E3C
:1059C00005C0762C052D03C0762C01C0712E04FF76
:1059D0000DC0FE01E60DF11D8081803311F4097EBA
:1059E00009C002FF06C07394739404C0802F8678A8
:1059F00009F0739403FD10C000FF06C0731480F417
:105A0000360C132D17190DC0731458F460E2C7013A
:105A10000E940D2A7394F8CF731418F4371802C03B
:105A2000162D312C04FF0CC060E3C7010E940D2A23
:105A300002FF13C001FD02C068E70CC068E50AC0A0
:105A4000802F867851F001FF02C06BE201C060E256
:105A500007FD6DE2C7010E940D2A611630F460E374
:105A6000C7010E940D2A1150F8CF6A94F401E60D87
:105A7000F11D6081C7010E940D2A6110F6CF33200D
:105A800009F414CD60E2C7010E940D2A3A94F7CFC1
:105A900024E0231560F584E004C043E0431548F595
:105AA00083E0381A53FC07C060E2C7010E940D2A48
:105AB0003A943110F9CF002321F0602FC7010E94E2
:105AC0000D2A23FE03C004E119E002C008E119E039
:105AD000F52DF0715F2EF8016491662381F251106B
