:1000000009C500000C9467200C94F7202BC5000054
:1000100029C5000027C5000025C5000023C5000034
:1000200021C500001FC500001DC500001BC5000044
:1000300019C5000017C5000015C5000013C5000054
:100040000C9451280FC500000C94690F0C948F0F6D
:1000500009C5000007C5000005C5000003C5000074
:1000600001C50000FFC4000088189E180D1A0D1A63
:100070000D1AC418D11820193B195A198019AA1938
:10008000B4190D1A0D1A0D1A0D1A0D1A0D1ABE19E2
:10009000084AD73B3BCE016E84BCBFFDC12F3D6CEF
:1000A00074319ABD56833DDA3D00C77F11BED9E455
:1000B000BB4C3E916BAAAABE000000803F05A84C35
:1000C000CDB2D44EB93836A9020C50B99186880801
:1000D0003CA6AAAA2ABE000000803F0664EC1B3C96
:1000E00004BC163E3BE5B93CC93C37C29E5A3D664E
:1000F0000498083EEA69AAAA3E000000803F030275
:10010000010053637265656E20300046440A004367
:100110004425640A005246460A00100E0F114D692C
:100120007373696E672F4F6C6420436F6E666967E7
:100130003A202564206D79203739004D696E696D4C
:100140004F53442D4578747261204D535020322E08
:10015000347C756E6920723838372044567C002014
:10016000284E5453432900202850414C290025375C
:100170002E32660025362E3166009125372E3266E6
:1001800000A125372E3266006E010B685004007402
:10019000018F689205007401147348040074011DF6
:1001A00073400400740112684404007A01907638A8
:1001B00004008101A0763404007401BD613C040098
:1001C00074015777300400000000000000004E6FFB
:1001D00020696E7075742064617461212025757CBE
:1001E00000B8B90025346905070025346905060003
:1001F00025352E32660D00253269006F7665726CEA
:100200006F61640053747265616D0066726F7A6528
:100210006E0053747265616D0025342E30660100E6
:1002200025322E3066252500256325638E25342E44
:1002300030660100256325638E25322E3066252524
:100240000025346905007C20CECECECE60CECECE49
:10025000CE200040CB242020207C007C20202024A5
:10026000CB008280818081808480818081808380B6
:100270008180818085808180818020C8C8C8C87EB7
:10028000C8C8C8C8207C0020202024CBB8B9CB2403
:100290002020207C00253369050025352E3066009E
:1002A00025332E306925250025352E32660E002592
:1002B000332E30660025332E30660025322E306610
:1002C0000025342E3066002520352E316618002595
:1002D00020352E326618005225332E306605005028
:1002E00025332E306605004825332E306605004242
:1002F00025352E316605004525352E31660045250C
:10030000342E30666D00734525352E316600D702D8
:100310006E698C0500DF026E698A0500E7026E696E
:10032000880500EF025469860500F70241688205DE
:1003300000FE025869780500060341737E0500003F
:1003400000000000000025336900253032697C0080
:100350002533690025342E3066010020209091005D
:1003600025342E30660025352E3166004325642560
:1003700035697C0025342E30660025342E31660028
:1003800025342E32660025342E30660025342E307A
:10039000660025342E32660025342E326600432551
:1003A000692000256900253464004325692000B0D8
:1003B000B1B4B5B6B77B7D15411B00017D090002C4
:1003C000760900032416BC84F5152605C70B000723
:1003D000C30C0018320C0006BB130008600D0009A6
:1003E000341B00257A12008BE8100B0A7C0A0019D6
:1003F000A80B000DBA135C1125131116101112125F
:10040000D4121417CB1213137109021463097F0F4E
:10041000CA15BD2E9F09571B8B151D1CF10B151DF1
:100420007712000EB40B091E7A140021C4090020B3
:10043000B70A0022DF108F24E8121F2B99091F2C06
:100440001810002DF20F002FD40F00A7480B00A8A2
:10045000450B00A9420B00AA3F0B001F840A00268F
:100460004B0B009A2211000000000043050C000015
:10047000FD04055B0F7F0409200900000000003027
:1004800006000000000000000000000000270673C6
:100490000180020000F705C0E0401F1E06730184C2
:1004A000020000F7059CFF64001506730198020026
:1004B00000F705C0E0401F1E0673019C020000F714
:1004C000059CFF640007067301B0020000F705C039
:1004D000E0401F1E067301B4020000F7059CFF6494
:1004E00000FC057301C8020000F705C0E0401F1EB4
:1004F000067301CC020000F7059CFF6400750668D6
:1005000000000000000000000000005B066601D251
:10051000050000F705FCFF040068066601D605002B
:1005200000F705FCFF04003F066601DA050000F74E
:1005300005FCFF04004D066601DE050000F705FC22
:10054000FF04002807000000000000000000000079
:10055000001807620AA9050000F0050000FF000965
:1005600007620AE2050000F0050000FF00FB0662DA
:1005700001A8050000EB050000FF00E9066201A7E5
:10058000050000EB050000FF00D8066201AF050082
:1005900000EB050000FF00CB066201B0050000EB98
:1005A000050000FF00BB0600000000000000000086
:1005B000000000AD066201E7050000EB0501000444
:1005C00000A4066201A605C408EB05000003009420
:1005D000065A01E405C408EB05E1FF1F0086067A10
:1005E00001E305C408EB05F1FF0F00252E3066007E
:1005F00025332E31667600252E33660034202852AE
:1006000053534929204B0033202843757272656E7D
:100610007429204B00322028563229204B002020FC
:1006200020202020204100312028563129204B0055
:1006300020202050696E2053656E736F72730052D4
:100640006F6C6C2020696E204E54534300506974C7
:10065000636820696E204E54534300526F6C6C20C7
:1006600020696E2050414C00506974636820696EA7
:100670002050414C002020486F72697A6F6E2061D3
:100680006E676C657300566572746963616C206F88
:1006900066667300486F72697A6F6E74616C206F62
:1006A00066667300436F6E74726173740053637295
:1006B00065656E7320436F756E74002020536372FE
:1006C00065656E20706172616D73005253534920ED
:1006D0007761726E696E670042617474206368614D
:1006E000726765207761726E004F76657273706510
:1006F0006564207761726E696E67005374616C6C1B
:10070000207761726E696E670042617474203220D6
:100710007761726E696E67004261747465727920E8
:100720007761726E696E67002020204F53442073FA
:100730006574757000590746074107540750074B09
:1007400007686F726900616E676C00706F73680094
:1007500072746C00616C7468006163726F009B0757
:100760008E077D076E07D507C807B907AA070325B7
:10077000392E356625630425392E3566000325316B
:10078000302E36662563042531302E366600253935
:100790002E3566256325392E3566002531302E36F7
:1007A0006625632531302E366600032530356C64AE
:1007B0002563042530356C6400032530366C6425D0
:1007C00063042530366C64002530356C6425632560
:1007D00030356C64002530366C6425632530366C0A
:1007E0006400600856084A083D08310824081808C3
:1007F0000D080108F60746656E63652046617221A3
:100800000046656E63652048696768210046656E2D
:100810006365204C6F772100426174742042206C24
:100820006F772100486967682056537065656421B9
:100830000020204C6F77205273736921004261744D
:1008400074657279204C6F772100204F7665725362
:100850007065656421002020205374616C6C210058
:10086000204E6F2047505320666978210000010513
:10087000040102090402030D040304110405001518
:10088000040A0619040B071D041300210452B80EB4
:100890004085EB51401966BB0012800C1CA0141E51
:1008A000666666400000803F100CBA000A00001B1C
:1008B000E8031A000000080002010000030407001A
:1008C0000000000000000001020408102040800128
:1008D0000204081020010204081020040404040487
:1008E00004040402020202020203030303030300DE
:1008F0000000002300260029000000000025002839
:10090000002B0000000000240027002A006E616E0A
:1009100000696E660000407A10F35A00A0724E180B
:10092000090010A5D4E80000E87648170000E40BA1
:1009300054020000CA9A3B000000E1F50500008067
:10094000969800000040420F000000A086010000C1
:1009500000102700000000E8030000000064000011
:100960000000000A00000000000100000000002C50
:1009700076D888DC674F0823DFC1DFAE59E1B1B715
:1009800096E5E3E453C63AE651997696E8E6C284E2
:1009900026EB898C9B62ED407C6FFCEFBC9C9F40FA
:1009A000F2BAA56FA5F490055A2AF75C936B6CF91F
:1009B000676DC11BFCE0E40D47FEF520E6B500D0F5
:1009C000ED902E0300943577050080841E0800000A
:1009D000204E0A000000C80C333333330F986E12D8
:1009E000831141EF8D2114893BE65516CFFEE6DBDE
:1009F00018D1844B381BF77C1D901DA4BBE4242028
:100A00003284725E228100C9F124ECA1E53D270009
:100A10002708522411241FBECFEFD8E0DEBFCDBF80
:100A200011E0A0E0B1E0ECEFF6E602C005900D9217
:100A3000A233B107D9F726E0A2E3B1E001C01D92CD
:100A4000AD37B207E1F71AE0C4E1DAE004C022975B
:100A5000FE010E943233C031D107C9F70E94D22A69
:100A60000C94142FCDCACF92DF92EF92FF920F9386
:100A70001F93E82FF92F05C00150110921093109F1
:100A800061F1908196239417B9F305C001501109C3
:100A90002109310911F1908196239413F7CFC12CCC
:100AA000D12CE12CF12C0AC08FEFC81AD80AE80A21
:100AB000F80A0C151D052E053F0579F08081862367
:100AC000841791F36C2D7D2D8E2D9F2D1F910F91ED
:100AD000FF90EF90DF90CF90089560E070E080E0AD
:100AE00090E01F910F91FF90EF90DF90CF900895CD
:100AF000FA01AA27283051F1203181F1E8946F934F
:100B00006E7F6E5F7F4F8F4F9F4FAF4FB1E03ED0F4
:100B1000B4E03CD0670F781F891F9A1FA11D680F92
:100B2000791F8A1F911DA11D6A0F711D811D911DC5
:100B3000A11D20D009F468943F912AE0269F11243A
:100B40003019305D3193DEF6CF010895462F47709E
:100B5000405D4193B3E00FD0C9F7F6CF462F4F70F9
:100B6000405D4A3318F0495D31FD4052419302D057
:100B7000A9F7EACFB4E0A6959795879577956795FD
:100B8000BA95C9F700976105710508959B01AC01FD
:100B90000A2E06945795479537952795BA95C9F724
:100BA000620F731F841F951FA01D0895283008F041
:100BB00027E03327DA01990F311D87FD91600096F8
:100BC0006105710539F432602E5F3D9330E32A955B
:100BD000E1F708959F3F30F080387105610509F015
:100BE0003C5F3C5F3D93913008F08068911DDF933E
:100BF000CF931F930F93FF92EF92192F987F9695A3
:100C0000E92F96959695E90FFF27E159F64F992719
:100C10003327EE24FF24A701E701059008940794E9
:100C200028F4360FE71EF81E491F511D660F771F67
:100C3000881F991F0694A1F70590079428F4E70EE2
:100C4000F81E491F561FC11D770F881F991F661F69
:100C50000694A1F70590079428F4F80E491F561F33
:100C6000C71FD11D880F991F661F771F0694A1F714
:100C70000590079420F4490F561FC71FD81F990FDE
:100C8000661F771F881F0694A9F784911095177027
:100C900041F0D695C79557954795F794E7941A95DF
:100CA000C1F7E5E1F9E068941590159135916591EA
:100CB000959105907FE27395E118F10A430B560B6D
:100CC000C90BD009C0F7E10CF11E431F561FC91F05
:100CD000D01D7EF4703311F48A95E6CFE89401506C
:100CE00030F0080F0AF40027021708F4202F23958C
:100CF000022F7A3328F079E37D932A95E9F710C023
:100D00007D932A9589F6069497956795379517955B
:100D10001794E118F10A430B560BC90BD00998F050
:100D200023957E9173957A3308F070E37C932013BA
:100D3000B8F77E9170617D9330F0839571E37D9378
:100D400070E32A95E1F71124EF90FF900F911F9126
:100D5000CF91DF91992787FD9095089580E00895C0
:100D600080E0089580E008950895FC0113821282C6
:100D700020E131E03183208308958EBD0DB407FE5C
:100D8000FDCF8EB56EBD0DB407FEFDCF8EB50895B7
:100D90008EBD0DB407FEFDCF8EB58FEF8EBD0DB4A9
:100DA00007FEFDCF8EB508956FE070E080E090E023
:100DB0000C94CA28811180E490911403981749F08B
:100DC000809314035E98609114036C6180E0D5DF1A
:100DD0005E9A08955E988091A10581FD06C080917C
:100DE000A00583FF19C081E018C080EAD1DF80FF31
:100DF00006C081E0DFDF8091A005886007C081FF29
:100E000008C080E0D7DF8091A005877F8093A00590
:100E100005C082FDE4CF02C080E0CCDF5E9A089579
:100E2000CF93DF93E091A605E43008F0E0E0F0E036
:100E3000E250FF4FD49180E1C1E0C80F6D2F9DDFDC
:100E4000C03211F08C2FF8CFDF91CF9108955E98CA
:100E5000E7DF6091E40582E090DF6091E30583E0E5
:100E60008CDF5E9A0895CF935E988CEE91DFC82F49
:100E700060911403626080E080DF0E94F2206C2F9A
:100E80006F7E8CE67ADF62E18CE077DF609114039D
:100E90006C6380E072DF0E94F220609114036C6149
:100EA00080E06BDFD4DFCF9108955E9862E080E050
:100EB00064DF7ADFD8CF61E086E00E941D2962E01E
:100EC00082E00E941D2986DFCECF209115038091FC
:100ED000160390E03EE1239F800D911D1124909315
:100EE00033018093320108958F71809316036F70E0
:100EF0006093150380911403803411F0673008F477
:100F0000E4CF635060931503FBCF8F3F99F020919E
:100F1000320130913301203E91E0390758F4A901A4
:100F20004F5F5F4F5093330140933201F901EC5C06
:100F3000FE4F808308958C3731F4809115038F5FC5
:100F400080931503C2CFE1CF862FF5DF81E090E0DB
:100F50000895CF93C42FC8DF8C2FEDDFCF91089574
:100F60005E9860E085E009DF60E086E006DF61E032
:100F700084E003DF5E9AE4E3F1E080E25E98908132
:100F80009EBD0DB407FEFDCF9EB581935E9A93E0A2
:100F9000E431F90798F35E988FEF8EBD0DB407FE2C
:100FA000FDCF8EB55E9A08950F931F93CF93DF9375
:100FB000C82F8B015E9860E080E0DFDE6C2F89E057
:100FC000DCDEE80110E00991612F8AE0D6DE602FB7
:100FD0008BE0D3DE1F5F1633B1F760EA88E0CDDE29
:100FE00080EAD6DE85FF03C00E94F317F9CF6CE0DC
:100FF00080E0C3DE5E9ADF91CF911F910F9108953B
:10100000A1E0B0E0E6E0F8E00C9455331CBC8F7230
:1010100080658CBD8DB581608DBD8DB589838EB5A4
:1010200089832196E2E00C94713361E08DE00E94A7
:101030001D2961E08BE00E941D2960E08CE00E9488
:101040001D2961E08AE00E941D2980E0D9CF87E157
:1010500093E0EBCFE82FF0E0EE0FFF1FE859FA4FD7
:1010600080819181611105C028EE33E040ED57E0A9
:1010700004C020E233E048E958E08217930790F07B
:10108000FC01E21BF30BCA01821B930B65E070E0CD
:101090000E94CB32CF010E94CB32862F653018F0F0
:1010A00084E0089580E00895A8E6B5E0EDE5F4E079
:1010B00080819181883E934028F48D919C91119775
:1010C000918380833296129684E0E536F80781F7A3
:1010D000089590E0880F991FDC01A859BA4FFC01D0
:1010E000E35AFB4F8D919C9120813181821B930BA0
:1010F0000895E0915C0425E0E29FF0011124E3599A
:10110000FB4F6491615040915A0450915B0490915F
:10111000050187FF03C0992339F004C0882311F02B
:10112000961721F0980F03C0962F01C090E0FA01A6
:101130002EE0929FE00DF11D1124349625913491FB
:10114000232B39F39093050181E08093880408955F
:10115000EF92FF920F931F93CF93DF937B018A014E
:10116000080F191FEC01E81AF90AC017D10739F066
:10117000C7018C0F9D1F0E9476328993F6CFCDB7A1
:10118000DEB7E6E00C946D3362CE0895692FACCEE5
:101190008CE7D1CE80E2CFCECF93813110F0805159
:1011A000FCCF811101C080E1C82FCC0FC25080E973
:1011B0008C0FC1DE81E98C0FBEDECF910895A8E1CE
:1011C000B0E0E5EEF8E00C945433182F88E1189F56
:1011D000B001112460587D4F48E150E0CE010196E6
:1011E000B7DFE12FF0E0EE0FFF1FE259FB4F608108
:1011F000718180E090E00E94933029813A814B8197
:101200005C810E94AE312D813E814F8158850E94C4
:101210002D2F9F938F937F936F93CE0109969F936A
:101220008F938CE294E09F938F930E94A72B0FB62D
:10123000F894DEBF0FBECDBF6896E3E00C94703328
:10124000CF936AE086E050DEC0E08C2FB8DFA0DFED
:10125000CF5FC430D1F7CF9108957F936F939F9361
:101260008F938CE294E09F938F930E94B72B0F9003
:101270000F900F900F900F900F9008951F93CF93A2
:10128000DF93EC01162F6CE370E00E94CB3280E517
:1012900093E0E3DF112331F080919404882311F06F
:1012A00080E201C08AE347DECE016CE370E00E9479
:1012B000CB32BC018AE493E0D0DFDF91CF911F9164
:1012C000089560E0DBCFE5E3F7E08591949160E07D
:1012D00070E0C3DF80918F04882311F086E82BCE65
:1012E000089560E070E080EA92E0B7CF60910A056F
:1012F00070910B058AEE91E0B0CF60910805709176
:10130000090584EE91E0A9CF7F936F935F934F938C
:101310009F938F938CE294E09F938F930E94B72BBF
:101320008DB79EB708960FB6F8949EBF0FBE8DBFBF
:10133000089540E050E0BA0188E993E0E5CF40919C
:101340005A0550915B0560915C0570915D058FEACF
:1013500092E0DACFCF93C22F7F936F935F934F9337
:101360009F938F934CE254E05F934F930E94B72B6F
:101370008C2FE1DD8DB79EB708960FB6F8949EBF0F
:101380000FBE8DBFCF910895CF9380916605909148
:101390006705FC013A96C4913296E4910D96FC01E2
:1013A0006591749180E090E00E9493302AE037EDDF
:1013B00043E25CE30E94AE31AB01BC012C2F86E618
:1013C00093E0C8DFCF9108957F936F935F934F931E
:1013D000209108011F922F93209107011F922F93B4
:1013E0009F938F938CE294E09F938F930E94B72BEF
:1013F0008DB79EB70C960FB6F8949EBF0FBE8DBFEB
:101400000895EDE2F5E023812F9322812F9321812E
:101410002F9320812F931F926F93E9E2F5E02381B0
:101420002F9322812F9321812F9320812F939F939C
:101430008F938CE294E09F938F930E94B72B8DB78C
:101440009EB70E960FB6F8949EBF0FBE8DBF08953F
:10145000EF92FF920F931F93CF93DF93EB018A01DB
:101460007C01060F171FC017D10741F0F7016191EA
:101470007F01CE010E947E322196F5CFCDB7DEB737
:10148000E6E00C946D330E942C2F20EC3BE649EDF6
:1014900057E40C94AE31CF92DF92EF92FF92CF934C
:1014A000C42F6B017C01E894F7F8C701B6010E94D4
:1014B0006230882777FD8095982F0E9495309B0198
:1014C000AC01C701B6010E942C2F9B01AC01CC23BB
:1014D00029F060E070E583EC97E404C060E074E21A
:1014E00084E799E40E94AE310E946230CF91FF9070
:1014F000EF90DF90CF90089580919604882319F0A3
:101500008091120549CE08958091FC049091FD04CC
:101510008F739927029730F461EB75E08CE294E0C9
:101520000C94402A0895CF93C42F28EE33E040E076
:1015300050E00E94F2326C2FC901A0DECF910895D5
:101540007F936F939F938F938CE693E09F938F93FA
:101550008CE294E09F938F930E94B72B8DB79EB738
:1015600008960FB6F8949EBF0FBE8DBF08950F93D7
:101570001F93CF93DF9308E615E0C1E0D0E0F801B8
:10158000619171918F01CE01DBDF2196C930D105C8
:10159000B1F7DF91CF911F910F910895A2E0B0E0D4
:1015A000E4EDFAE00C944E338C01F801B4903196DE
:1015B000E590F490E114F10441F18091F2046B2D77
:1015C0006F7770E0660F771FF0E88F9F600D711DD9
:1015D000112442E050E0CE010196BADDC980DA80E4
:1015E000C601D4DDD7FC09C0C7FC09C0F801339699
:1015F0008491882321F09FDC02C0B7FE03C0C6019E
:10160000F70109950C5F1F4FD0CF2296E9E00C94AB
:101610006A33CF93C82F60916C0370916D038091F2
:101620006E0390916F030E946230615071096F30B8
:10163000774278F4C7FD02C086E17DDC40916C03FF
:1016400050916D0360916E0370916F0384E593E098
:101650005BDECF910895262F30E0F901E659FB4F6C
:1016600087FD0BC091E09083F901EA59FB4F86FB9F
:10167000882780F98083862FA2CD1082089563E0A9
:10168000892FE9CF62E0892FE6CF61E0892FE3CF90
:1016900060E0892FE0CF0F931F93CF93DF932091CA
:1016A000AF04222309F44DC04091AD045091AE0423
:1016B0002091FC043091FD044217530709F441C006
:1016C0002AE13091AC04231B27FD0BC02695692F1E
:1016D000820F0ADC6FEA74E08CE294E00E94402AF8
:1016E00032C096FD1CC0219530E08091F3049091AA
:1016F000AB04891B90E0B901660F771F0E94DF32AF
:101700004091A50441110DC0009729F021503109E5
:101710008217930731F421E02093A50402C080E0F2
:1017200090E0EC01C155DB4F8E01065E1F4F8991A1
:10173000811102C02FDD07C0FEDBC017D107B9F74A
:10174000F9CF1092AF04DF91CF911F910F910895BF
:1017500096FB442740F960914605709147058091BA
:10176000480590914905DFCECF93C92F6091E404DD
:101770007091E50486E493E070DD8091AE0580FD14
:1017800004C0C6FF02C085E2D6DBCF9108951F9347
:10179000CF93DF93192F90912705923019F020F401
:1017A000CAE203C0CFE101C0CFE0D82FD095DD1F42
:1017B000DD27DD1F11F016FF0DC06091280570E0D8
:1017C00087EF91E04ADDDD2341F016FF06C08C2F44
:1017D000B2DB03C08C2FAFDBF0CFDF91CF911F9135
:1017E0000895CF92DF92EF92FF9296FF23C081E09F
:1017F00080939B0429E838E848E85CE3609196050B
:101800007091970580919805909199050E94AE314D
:101810006B017C010E946230675F7F4F633171050D
:1018200018F48FEC92E002C087EC92E0B701A601B9
:101830006BDD13C010929B04E0916605F091670583
:101840007296249140919605509197056091980564
:101850007091990581EC92E07DDDFF90EF90DF9033
:10186000CF900895CF92DF92EF92FF921F93CF9384
:10187000DF93D82FC92F809159058F55863010F4EA
:1018800014E601C01FEF60915F0570E080E090E01A
:101890000E9493306B017C01612F70E080E090E04A
:1018A0000E9495309B01AC01C701B6010E94FA2F3E
:1018B00020E030E048EC52E40E94AE316B017C0144
:1018C000C074D7FD46C088E836DB2AE037ED43E236
:1018D00050E4C701B6010E94AE310E9467309B01FF
:1018E0006138710548F029E8209307019B012058D1
:1018F0003109E8E0F1E012C08DE88093080122315F
:10190000310550F480919404882331F080E2809373
:101910000701809308010AC0E7E0F1E0C9016AE12C
:1019200070E00E94CB328DE8861B8083CC2329F0A7
:10193000B701A60184E392E00AC040918E05509160
:101940008F05609190057091910588E292E03CDDF1
:1019500012C0CC2329F0AB01BC0180E292E00AC0A6
:1019600040918E0550918F05609190057091910581
:1019700089E192E0C9DCDF91CF911F91FF90EF9058
:10198000DF90CF900895A0E0B0E0E9ECFCE00C948B
:101990004F3340912D0550912E0560912F05709188
:1019A0003005452B462B472B69F440912905509172
:1019B0002A0560912B0570912C05452B462B472B52
:1019C00009F479C094FF02C010E201C01CE796FB45
:1019D000002700F9E82FE095EE1FEE27EE1FEE0F2F
:1019E000E02B80919404882311F18091A00485302C
:1019F00058F062E172E08CE294E00E94932B812F18
:101A00009ADA6BE072E00EC08091A104853078F024
:101A100064E072E08CE294E00E94932B812F8BDAD9
:101A20006BEF71E08CE294E00E94932B44C0FF279F
:101A3000E7FDF095EE0FFF1F95FF37C0EA59F84F0D
:101A4000C591D49160912D0570912E0580912F053F
:101A500090913005402F1FDDF62EE72ED82EC92E8F
:101A60006091290570912A0580912B0590912C0594
:101A7000402F11DDCF92DF92EF92FF921F921F93C2
:101A80009F938F937F936F93DF93CF938CE294E038
:101A90009F938F930E94B72B8DB79EB70E960FB66C
:101AA000F8949EBF0FBE8DBF06C0E25AF84F8591D5
:101AB0009491612FA6DCCDB7DEB7E8E00C946B33D0
:101AC000FF920F931F93CF93DF93D92F182F109569
:101AD000111F1127111F51F096FD08C095FF39C045
:101AE00067E872E08CE294E00E94932B83EC23DAA7
:101AF000209106053091070548E1429FC001439FB0
:101B0000900D11240C9668E671E00E94DF3264505B
:101B10007109C62F77FF02C0C8E1C60FD5FBFF24AD
:101B2000F0F8D5FF02C00AE001C009E0EC2FF0E0B8
:101B3000EE59FD4F8491FFD9CF5FC83108F0C0E066
:101B40000150A1F787E8F7D91123D1F0D6FD04C0E1
:101B500017C06AE772E0C6CFFF2079F06BE572E04C
:101B60008CE294E00E94932B8CE7CFD963E572E07E
:101B70008CE294E00E94932B03C066E472E0F8CFFD
:101B8000CDB7DEB7E5E00C946E33ADE0B0E0EBEC42
:101B9000FDE00C944533782E6887809114038034DF
:101BA00089F4C090D605D090D705E090D805F09084
:101BB000D9058090D2059090D305A090D405B0901F
:101BC000D50510C0C090DE05D090DF05E090E0059F
:101BD000F090E1058090DA059090DB05A090DC059F
:101BE000B090DD0560910A0570910B05882777FD9F
:101BF0008095982F0E9495309B01AC01C501B401DE
:101C00000E94AE314B015C018091800480FF04C0D2
:101C1000B7FAB094B7F8B094C501B4010E9462302D
:101C2000AB016A35710538F09B012D543F4F2935C2
:101C3000310580F4A9014734510590F54A31510529
:101C400018F54A30510530F529E02C878DEC682EC7
:101C500016EC30C06B3571051CF0AB01435B5109CC
:101C6000CA0157FF03C09195819591098734910569
:101C7000B8F48A319105C8F40A9730F338E03C870C
:101C800005EF602E12EE16C087E08C8718EF612EEC
:101C900019ED10C098E09C87B3EF6B2E10ED0AC0D1
:101CA0001C86ADEC6A2E11EC05C0E7E0EC87FBEF7B
:101CB0006F2E1BEE27EA32E94BE25CEBC701B6015F
:101CC0000E94AE316C837D838E839F8325E33AEF40
:101CD0004EE85CE3C501B4010E94AE314B015C01EA
:101CE000ECE02E2E312C00E07A947B822C85332779
:101CF00027FD30953A8729873AEF360D3B87C02E6E
:101D0000DD24C7FCD09480910805909109058C0DC5
:101D10009D1DBC01882777FD8095982F0E949530E6
:101D20002C813D814E815F810E94AE310E945632EE
:101D300020E030E044EB52E40E94AE312B013C0144
:101D400020E030E0A9010E94A33120E030E040E033
:101D50005FE387FD0BC0C301B2010E942D2F0E94DB
:101D600062307B01EDE2EE0EF11C0AC0C301B2014C
:101D70000E942C2F0E9462307B01FDE2EF0EF11CCD
:101D80002DE022192D87882799278C199D099A8380
:101D90008983FD858F2F90E0281639060CF475C0D5
:101DA000C501B4010E9456322B013C019D85ECE037
:101DB0009E9F602D11246E54772767FD7095872FA5
:101DC000972F0E9495309B01AC01C301B2010E9484
:101DD000AE310E946230F701E60FF71FCF01019785
:101DE0008A35910508F04DC062E170E00E94DF3253
:101DF000662E2C85222391F03EEE3603A001379FFC
:101E0000500D11244E0F5F1F4F5F5F4F57FF02C0F1
:101E10004F5F5F4F55954795742E01C0712C5884C4
:101E2000561A64E0650D8B819D85890F5DD800236E
:101E300089F0ED85E53071F4B601D7FE02C0698105
:101E40007A814AE050E08CE294E00E94B82AF6E001
:101E5000FD8703C0872D810F6ED8772091F0872DE5
:101E600090E029853A85821793075CF034E0631689
:101E700041F04B85470D63E0650D8B819D85890F92
:101E800068D8ED85EF5FED8784CFF7FE0AC0025E6C
:101E900082E0281A310894E02916310409F02FCF86
:101EA00006C02BE5E216F10414F00E51F1CF2D9689
:101EB000E2E10C94613366E089E067CEAB01BC01DE
:101EC000E0916605F0916705399624918AE992E0E0
:101ED00041CA1F920F920FB60F9211242F938F9326
:101EE0009F93EF93FF939091C60080917B068F5F45
:101EF0008F7720917C06821741F0E0917B06F0E01D
:101F0000E750FA4F908380937B06FF91EF919F916A
:101F10008F912F910F900FBE0F901F9018951F92C9
:101F20000F920FB60F9211248F939F93EF93FF930D
:101F300090917A0680917906981779F0E0917A0667
:101F4000F0E0EB50FA4F80818093C60080917A06D2
:101F50008F5F837080937A0605C08091C1008F7D6A
:101F60008093C100FF91EF919F918F910F900FBED1
:101F70000F901F901895EAE7F0E080818B7F8083B7
:101F8000808186608083089595FB222720F994FF45
:101F900002C092E001C090E0292B86FF02C084E0DD
:101FA00001C080E0822B08951F93CF93DF93182FF9
:101FB000EBDF8C5FC82FD0E017FD06C0BE016F5F5E
:101FC0007F4F8AEA93E049D9FE01EE0FFF1FE859DF
:101FD000FA4F6081718186EA93E03FD9DF91CF911A
:101FE0001F9108951F93CF93DF93182FD92FCCDF24
:101FF000C4E0C80F17FD07C06C2F70E06F5F7F4F04
:1020000083EA93E02AD9D6FB662760F98C2F22D881
:10201000D82FC0E0CD1711F080E801C081E80E9400
:102020009B07CF5FC530B1F7DF91CF911F91089526
:102030001F93CF93DF93182FD92FA6DFC4E0C80FCB
:1020400017FD07C06C2F70E06F5F7F4F8EE993E044
:1020500004D9D6FB662760F98C2F0E942A08182F16
:10206000C0E0D3E0CE010E9476328F3F71F0811143
:1020700003C0112351F01150111102C00E949B079F
:102080002196C03883E0D80769F7DF91CF911F917F
:10209000089596FB222720F930E095FF03C082E0E7
:1020A00090E002C080E090E0822B932B0197833078
:1020B000910540F4FC01EE0FFF1FE45EFE4F8081AE
:1020C0009181089580E090E008950F931F93CF933E
:1020D000DF93EC018B010E949B28600F711F811D13
:1020E000911D688379838A839B83DF91CF911F91B0
:1020F0000F9108959B01FC014081518162817381A0
:10210000420F531F611D711D40835183628373838E
:102110000895E0916605F091670534966591759193
:10212000859194910895CF92DF92EF92FF92CF9391
:10213000DF936B017C01EDDFA70196010E94AE31B8
:102140006B017C010E946230C0916605D0916705E9
:10215000FE01603177423CF439962491B701A60123
:1021600086E893E024C070966591749180E090E0D9
:102170000E9493309B01AC01C701B6010E94FA2F67
:102180006B017C010E9462306A30710534F0643664
:10219000710534F48AE793E005C080E893E002C05B
:1021A00084E793E0FE013F962491B701A601D2D8BF
:1021B000DF91CF91FF90EF90DF90CF9008956091E5
:1021C0009205709193058091940590919505ABCF00
:1021D00096FB882780F98093A40480919604882335
:1021E00069F097FD0BC06091130570911405809103
:1021F0001505909116050E94953095CF0895CF92C0
:10220000DF92EF92FF926B017C0183DFA7019601C1
:102210000E94AE3153DEFF90EF90DF90CF90089593
:102220006091020570910305809104059091050568
:10223000E6CFE0916605F09167056591759185910E
:10224000949108951F93CF93DF9380918E048823F8
:1022500009F4BFC010928E04ECDF80916405909168
:10226000650520919A04222351F031E020E040914D
:102270002705423008F030E0C32FD22F02C0C0E063
:10228000D0E04091A405411108C02091A805222367
:1022900021F02091930420FDC260F0915F05E09150
:1022A00059052091A905222359F064E670E00E94A7
:1022B000CB326115710521F030E062177307ECF045
:1022C0002091AF052223D1F034E6F39FC001112401
:1022D0003E2FE7FF02C031E03E0F3595830F911D81
:1022E00037FD9A956E2F772767FD70950E94DF3234
:1022F000822F90E0681779070CF4C8608091AE05D2
:1023000080FD0BC08091B00590E02091E4043091F5
:10231000E5042817390708F4C0618091960590916B
:102320009705A0919805B09199054130A1F41091BD
:10233000A805112381F0BC01CD019F770E94623076
:10234000CB016AE070E00E94DF32812F90E08617B7
:1023500097070CF4C062809162059091630520910B
:10236000E205222371F064E670E00E94CB32611531
:10237000710539F0822F90E06817790714F4C06472
:1023800002C0209721F150916B0381E05111850F1C
:1023900080936B0340916B032FEF240F81E090E05B
:1023A00002C0880F991F2A95E2F74B3018F041E0E0
:1023B00081E090E09C012C233D23232B21F4880F06
:1023C000991F4F5FF2CF40936B03451302C01092E9
:1023D0006B03E0916B03EE2359F0F0E0EE0FFF1F6B
:1023E000E052F84F659174918CE294E00E94932B37
:1023F000DF91CF911F910895A0E0B0E0E2E0F2E11B
:102400000C945033EC01FE01059114910115110556
:1024100009F468C0FE013296849181110E949B07E5
:10242000FE01339684913196E590F4908936D1F08F
:1024300068F4813681F0883609F03AC0E09166058B
:10244000F09167053996D49064DE3BC08337B1F0D4
:102450008637E1F02DC0B1E4DB2E6AE077ED83E250
:102460009CE32FC0F70160817181882777FD8095FB
:10247000982F0E949530A0E2DA2E2AC0E0916605DE
:10248000F09167053896D490D4DE1BC042DE2091CF
:102490009B04211114C0E0916605F09167057296C6
:1024A000D49020E030E040E752E40E94AE3109C011
:1024B000F0E2DF2E60E070E080E89FE302C0E8E138
:1024C000DE2EF70120813181428153810E94AE319D
:1024D0002D2DAB01BC01C8010E94AA090E94C808A9
:1024E000279691CFCDB7DEB7E7E00C946C338EE042
:1024F00093E082CFCF93DF93D82FC92F48E0692F85
:102500000E94A90760914605709147058091480592
:102510009091490540E007D888E891E06DDFC6FF5B
:1025200005C06C2F8AE08D0F0E9474076CE78DE761
:1025300097E00E94010ADF91CF910895CF92DF9238
:10254000EF92FF921F93CF93DF93EC016A017B011F
:10255000122F6FDEA70196010E94AE31112341F0C8
:1025600024EE38E34EE85EE30E94AE3128E106C077
:10257000E0916605F091670538962491AB01BC01A6
:10258000CE010E94AA09DF91CF911F91FF90EF9099
:10259000DF90CF90089596FB222720F940E050E08D
:1025A000BA0185EB92E0CACF96FB222720F9409131
:1025B000FE045091FF04609100057091010585EBC8
:1025C00092E0BCCF2FE632E143E85AE30C94AE31FF
:1025D000CF92DF92EF92FF92CF93DF93C09170037F
:1025E000D091710396DD6B017C018AEF8C9FB00165
:1025F0008D9F700D1124882777FD8095982F0E945C
:1026000095309B01AC01C701B6010E94AE31E0914B
:102610006605F0916705A8974CF03F96C491D2DF0C
:10262000AB01BC012C2F82E993E006C039962491BE
:10263000AB01BC018CE893E00E94AA09DF91CF9125
:10264000FF90EF90DF90CF90089540913105509129
:102650003205609133057091340596FF0CC080916E
:102660001F0590912005A0912105B0912205481BDE
:10267000590B6A0B7B0BCB01BA010E949530A2DF8C
:10268000BECDBC0180E090E00E9493309BDFAB01A7
:10269000BC0180EF91E00C9484092091FC043091FE
:1026A000FD04260F311D3093AE042093AD048093BA
:1026B000AC048091F3048093AB04089597FF03C0AA
:1026C00088599E4F0895893621E0920714F0885664
:1026D00091400895CF93DF93EC010E949B282881BD
:1026E0003981CB01821B930BDF91CF91089520910B
:1026F000AC053091AD05815018F4822F8F7008958C
:1027000094E0369527959A95E1F7F5CFA2E0B0E0F1
:10271000ECE8F3E10C94553381E08093880488E081
:10272000EDE5F4E0DF011D928A95E9F76091F2048E
:10273000B0E86B9FB001112442E050E0CE01019659
:102740000E94A80899818A819093800480938104D3
:102750002296E2E00C94713324E0880F991F2A95A9
:10276000E1F78C549F4F68E671E00E94DF32CB01A5
:102770000196089508958091250590912605C296A9
:1027800064E670E00E94CB32209106053091070587
:10279000CB01821B930B92DF845B910990932405FC
:1027A00080932305D9DF885F0E94CC0860912305C0
:1027B0007091240581E492E00C942D09CF92DF9270
:1027C000EF92FF92CF93DF93EC016A017B019A01B4
:1027D000AB01688179818A819B810E94F32F87FFF9
:1027E00004C0C882D982EA82FB82DF91CF91FF9038
:1027F000EF90DF90CF900895A0E0B0E0E2E0F4E148
:102800000C944B33EC014A015B018901C880D980EB
:10281000EA80FB8020E030E0A901C701B6010E94F8
:10282000F32F882319F00115110529F48882998264
:10283000AA82BB821DC0A7019601C501B4010E94F6
:102840002C2F4B015C01B801882777FD8095982FCC
:102850000E9495309B01AC01C501B4010E94FA2F82
:10286000A70196010E942D2F688379838A839B8319
:10287000CDB7DEB7ECE00C9467338F929F92AF92A6
:10288000BF92CF92DF92EF92FF92609160057091BC
:102890006105882777FD8095982F0E9495304B0120
:1028A0005C01C090FE04D090FF04E0900005F09021
:1028B0000105BFDCA70196010E94AE319B01AC016E
:1028C000C501B4010E94FA2F20E030E040E251E45B
:1028D0000E94AE31AB01BC0124E630E08CE693E00F
:1028E0008BDFFF90EF90DF90CF90BF90AF909F90E5
:1028F0008F900895A0E0B0E0E0E8F4E10C944F334D
:10290000182F96FF15C020E030E0A9016091FE0469
:102910007091FF0480910005909101050E94F32FB2
:10292000882309F4F3C0A9DF812F0E94090BEEC0B0
:102930008091A405811198C020E030E0A901609148
:10294000FE047091FF0480910005909101050E94A2
:10295000F32F882309F4DAC090DF80919204882352
:10296000D1F01092390510923A0510923B05109261
:102970003C058091920590919305A0919405B091AA
:1029800095058093640390936503A0936603B093C9
:102990006703109292042DEC3CEC4CE45DEB6091EB
:1029A00035057091360580913705909138050E9464
:1029B000F32F87FF45C02091640330916503409158
:1029C0006603509167036091920570919305809121
:1029D0009405909195050E942C2F20E030E0A901EC
:1029E0000E94AE316B017C0194DB9B01AC01C701FD
:1029F000B6010E94AE316B017C010E9462306031F1
:102A000087E2780724F41616170644F07FC0C12C1D
:102A10003CE3D32E3CE1E32E36E4F32E17FD03C056
:102A20008EEE0E949B07E0916605F091670539964E
:102A30002491B701A60180E693E00E94AA0966C02E
:102A4000809108059091090597FF60C080919404DA
:102A5000811103C06BE573E002C06CE573E08CE2AA
:102A600094E00E94932B52C080918F04882309F434
:102A70004DC000915F05C02FD0E080915805992787
:102A800087FD9095C817D907B1F1609146057091FF
:102A9000470580914805909149050E9493306B014C
:102AA0007C01602F70E080E090E00E9493309B01F9
:102AB000AC01C701B6010E94AE316B017C0160918F
:102AC0005905772767FD70956C1B7D0B882777FD6F
:102AD0008095982F0E9495309B01AC01C701B601EB
:102AE0000E94FA2F6FDD0E94673070935705609344
:102AF00056050093580517FD03C087E10E949B0708
:102B000080915605909157050E946109CDB7DEB7B7
:102B1000E8E00C946B330F931F93CF93DF93092F4F
:102B200080E090E0CBDDEC0124E630E040E050E0D6
:102B3000BA018AE995E060DE06FB112710F9212F22
:102B400040E050E0BA0185EB92E0F8DC0E94C80852
:102B500080910605909107059E01281B390BC9013C
:102B6000FBDD05FF02C098E001C090E0890F0E94E4
:102B7000CC0840919A0550919B0560919C057091FD
:102B80009D05212F8BEB92E0D9DCDF91CF911F9136
:102B90000F910895CF93DF937CDAEC01609160058B
:102BA00070916105882777FD8095982F0E94953058
:102BB000AB01BC019E0180E693E01EDE2AE037ED0A
:102BC00043E25CE360916003709161038091620372
:102BD000909163030E94AE31AB01BC0188EA92E0A0
:102BE0000E948409DF91CF910895CF93DF9397FDE1
:102BF00020C021E02093A3044CDAEC01609162052F
:102C00007091630580E090E00E949330AB01BC01BD
:102C10009E018CE593E0F0DD60915C0370915D03B3
:102C200080915E0390915F030E946730CB0129DDA4
:102C300008C081E09091E205911101C080E080938D
:102C4000A304DF91CF910895CF93DF9322DAEC01B3
:102C5000609164057091650580E090E00E9493307A
:102C6000AB01BC019E0188E593E0C6DD609158038D
:102C70007091590380915A0390915B030E946730D1
:102C8000CB01FFDCDF91CF9108952AE030E0B4CD95
:102C9000CF93DF93EC019A01AB01688179818A813E
:102CA0009B810E942D2F688379838A839B83DF9188
:102CB000CF910895A7E0B0E0E0E6F6E10C9445334B
:102CC00082E495E007DD1C0160E070E082E495E0BD
:102CD000FCD9B10180E090E00E94933073DC6A83FC
:102CE0007B838C839D83609160057091610588274B
:102CF00077FD8095982F0E9495306B017C01609143
:102D000064057091650580E090E00E949330A70112
:102D100096010E94AE312CEA35EC47E257E30E945F
:102D2000AE31AB01BC018AE595E0AFDF809035059F
:102D300090903605A0903705B0903805EAD92B0160
:102D40003C0120E030E040E752E4C501B4010E94BC
:102D5000AE31A30192010E94AE31AB01BC0186E904
:102D600095E093DF40915F0520915905332727FDBA
:102D70003095842F90E02817390714F440935905B3
:102D800021E63BE046E35BE3C701B6010E94AE31BA
:102D90002A813B814C815D810E94AE31AB01BC0137
:102DA0008EE895E075DF8091E6049091E70420912C
:102DB000AE0520FD70C00091E8051091E905209155
:102DC000EA053091EB053F832E832017310744F04D
:102DD0003E812F811F830E83032F122F198202C081
:102DE00031E039833E812F814E815F814817590739
:102DF00014F4382F292F632F722F061717070CF49E
:102E0000B801882777FD8095982F0E9495302B0177
:102E10003C01EE81FF81BF01882777FD8095982FC7
:102E20000E9495309B01AC01C301B2010E942C2F7E
:102E30002B013C01B8012E813F81621B730B882757
:102E400077FD8095982F0E9495309B01AC01C301BE
:102E5000B2010E94FA2F20E030E048EC52E40E94D8
:102E6000AE310E946230653671052CF477FF05C0E3
:102E700060E070E002C064E670E03981332331F035
:102E800084E690E0AC01461B570BBA017093E50451
:102E90006093E40404C09093E5048093E40480917B
:102EA000A405811104C08091930480FD05C0809128
:102EB0008F04882309F467C0B10186E495E01AD92C
:102EC00080919604882399F02091FE043091FF04AC
:102ED00040910005509101056A817B818C819D8123
:102EE0000E94AE31AB01BC0182E995E0D1DE609178
:102EF00013057091140580911505909116050E9497
:102F00009530AB01BC0180E594E058DC40E050E036
:102F1000BA018CE494E052DC4091FE045091FF042D
:102F2000609100057091010588E494E047DC4091D0
:102F3000020550910305609104057091050584E434
:102F400094E03CDC40E050E0BA0180E494E036DC00
:102F500040915A0550915B0560915C0570915D054B
:102F600080E394E02BDCB701A6018CE394E026DC3F
:102F7000B501A40188E394E021DCB501A4017058F7
:102F800084E394E01BDC2796E2E10C946133CF9359
:102F9000DF93EC01CB01BA010E94953025E93FEBAC
:102FA00046ED53E30E94AE31688379838A839B8325
:102FB000DF91CF9108950E949B286093F60470934F
:102FC000F7048093F8049093F9048091FC049091A5
:102FD000FD049093FB048093FA0481E080938804BD
:102FE00080938A0408958AEA90E00C94EF280E9466
:102FF000412B811101C0F7CF089580918904882366
:1030000021F09091870481E0911180E00895309142
:1030100078043323E1F0E091E505F0E0EE0FFF1FC7
:10302000E059FA4F80819181E0917604F091770424
:103030002081232B20830E94EF28E0917604F091D9
:103040007704908180917804809589238083089506
:10305000A0E0B0E0EEE2F8E10C944E33C5E0D4E03D
:1030600010E200E10E94412B882309F4ECC10E9488
:10307000502B9091F5039230A1F028F4992351F050
:10308000913051F005C09430D1F080F0953011F1BD
:103090009F5FD4C191E0C5C18D3409F0CEC192E0EB
:1030A000CDC18E3309F0C9C193E0C8C1813808F0A1
:1030B000C4C18093F4038093F30394E0BFC1809371
:1030C000F6039091F30398279093F3031092F20381
:1030D00095E0B4C12091F30328272093F303E091F6
:1030E000F2033091F403E3139FC121119AC11092AE
:1030F000F70361DF8091F60390E0FC01E456F109EB
:10310000E431F10508F089C1EC5CFF4F0C943033D9
:10311000E091F70381E08E0F8093F703F0E0EE5823
:10312000FC4F80818093F5048091F9039091FA031C
:10313000A091FB03B091FC038E7F67C1E091F70380
:10314000F0E0E858FC4F40815181628173814093E7
:10315000010450930204609303047093040480916B
:10316000050490910604A0910704B09108048423FB
:103170009523A623B72321E0892B8A2B8B2B09F4D7
:1031800020E020938F0449C1E091F703F0E0EE586E
:10319000FC4FA8E6B5E0802F01900D928A95E1F7EB
:1031A0003CC18091F70390E0FC01EE58FC4F208178
:1031B00020932705218120932805FC01EC58FC4F22
:1031C000408151816281738189E295E0E0DEE09186
:1031D000F703F0E0E858FC4F408151816281738130
:1031E0008DE295E0D4DEE090F703F12CF701E4588E
:1031F000FC4F80819181A0E0B0E0809331059093F5
:103200003205A0933305B0933405F701E258FC4F23
:103210006081718180E090E00E9493306093FE04B1
:103220007093FF048093000590930105F701E05827
:10323000FC4F808191819093260580932505EDC0F8
:103240002091F70330E0F901EE58FC4F8081918125
:10325000A0E0B0E08093130590931405A0931505AA
:10326000B0931605F901EC58FC4F8081918174DA16
:1032700080931205D2C08091F70390E0FC01EA58D8
:10328000FC4F208131813093070520930605FC0116
:10329000EE58FC4F2081318130930B0520930A05B5
:1032A000FC01EC58FC4F808191819093090580933B
:1032B0000805B3C0E090F703F12CF701EE58FC4F7E
:1032C00060817181828193810E94933060930205B5
:1032D000709303058093040590930505F701EA5860
:1032E000FC4F6081718180E090E00E949330609398
:1032F00035057093360580933705909338058DC05A
:103300004091A005E091F70344FD11C08E2F90E09D
:10331000DC01AE58BC4F2D913C9130936505209354
:103320006405DC01AD58BC4F8C9180935F0546FD70
:103330000AC0AE2FB0E0A958BC4F8D919C919093DC
:10334000610580936005F0E0EB58FC4F808180932D
:10335000E90463C08091F9039091FA03A091FB0303
:10336000B091FC039D7F51C08091F9039091FA03C5
:10337000A091FB03B091FC039B7F47C0B090F40386
:10338000FE01412F11924A95E9F781E090E0A0E01B
:10339000B0E0BB2089F1E091F70321E02E0F2093EC
:1033A000F703F0E0EE58FC4F60812DE638E0772718
:1033B00067FD7095F901449150E06417750781F439
:1033C000329645915491FA01C080D180E280F38019
:1033D000C82AD92AEA2AFB2AC082D182E282F38251
:1033E0002C5F3F4FF8E02D383F0721F7880F991FDA
:1033F000AA1FBB1FBA94CDCF8091F9039091FA0315
:10340000A091FB03B091FC03977F8093F903909305
:10341000FA03A093FB03B093FC03EFDD882369F06C
:1034200011C0843251F40AC021E02E0F2093F20320
:10343000F0E0EE58FC4F808301C090E09093F503DC
:10344000D6DD10CE81E0CDB7DEB7E9E00C946A336B
:10345000CF93C82F84E20E946B2B8DE40E946B2BCC
:103460008CE30E946B2B80E00E946B2B8C2F0E94C0
:103470006B2B8C2F0E946B2BCF9108958FEF91E0D7
:10348000A0E0B0E08093F9039093FA03A093FB03CC
:10349000B093FC03EDEFF3E080819181A281B381D1
:1034A0009170AA27BB2780839183A283B383089559
:1034B0000F931F938091690381110BC00E943E2BD3
:1034C00060E072EC81E090E00E94012B81E080934B
:1034D00069038091680391E08927809368038111D3
:1034E000A5C0CCDF8091FD039091FE03A091FF0366
:1034F000B0910004892B8A2B8B2B81F48091F903E6
:103500009091FA03A091FB03B091FC038093FD031B
:103510009093FE03A093FF03B09300040091FD037A
:103520001091FE032091FF03309100048827992712
:10353000DC01801B910BA20BB30B80239123A223F0
:10354000B323AC01BD014095509560957095402323
:103550005123622373234093FD035093FE03609332
:10356000FF037093000480349105A105B10509F4AF
:1035700051C020F584309105A105B10509F444C07E
:1035800068F481309105A105B10509F44DC0029799
:10359000A105B10509F04AC085E647C08031910513
:1035A000A105B10599F180329105A105B10581F11F
:1035B0000897A105B105D1F589E637C0811522E04C
:1035C0009207A105B10551F160F480389105A1057C
:1035D000B10511F181159140A105B10539F58EE6CE
:1035E00024C0811528E09207A105B105C9F0811515
:1035F00020E19207A105B105A9F081159440A1052C
:10360000B105A1F480E711C086E60FC08AE60DC0BF
:103610008BE60BC08CE609C08DE607C08FE605C0BF
:1036200087E703C08CED01C084E612DF1F910F9184
:1036300008958091060590910705880F991F8D9632
:103640006AE570E00E94DF3277FF03C0685F7F4F5A
:10365000FBCF683071051CF068507109FACFFB018F
:10366000E155FC4F8491089587FD03C0E2DF0E947D
:103670009B07609106057091070585E992E00C941F
:103680002D09A3E0B0E0E7E4FBE10C944533882E7C
:10369000B92E992E96FD10C033243394380C6B2D1F
:1036A000832D0E94C50DF6E0AF2EA80CA2E02A2EB5
:1036B0002B0CB4FEDAC019C015E082EB0E949B0708
:1036C0000DE0015019F00E94CA08FBCF133011F42D
:1036D00085EC01C083EB0E949B070E94C808115033
:1036E000D9F2133051F786ECE9CF209110053091D3
:1036F00011053B832A8300910E0510910F05C80127
:1037000017FF04C088279927801B910B6AEF70E090
:103710000E94DF32362F272F8A819B8197FF03C0BB
:103720009195819591096AEF70E00E94DF32CB019B
:10373000632F722F681779070CF4BC016F5F7F4FFE
:103740007093710360937003882777FD8095982F9D
:103750000E9495306B017C01B801882777FD809528
:10376000982F0E9495302B013C0124EE38E34EE562
:1037700052E4C701B6010E94AE319B01AC01C30106
:10378000B2010E94FA2F0E9462306983162F4A818B
:103790005B81BA01882777FD8095982F0E9495302C
:1037A0002B013C012DE63BED4EE052E4C701B60192
:1037B0000E94AE319B01AC01C301B2010E94FA2FFD
:1037C00020E030E040E05FE30E942D2F0E94623055
:1037D000F62E86FC0AC02DDF622D5981651B482F0D
:1037E0008A2D8F0D0E94A90740C09091EA0496137C
:1037F00004C08091EB048117E9F08091EE04909170
:10380000EF049093F1048093F0042091EC04309144
:10381000ED043093EF042093EE042091EA043091FC
:10382000EB043093ED042093EC04F092EA048981D8
:103830008093EB0401EF14E0E0EFCE2EE4E0DE2E07
:10384000F8018081622D681BF601808144E28A0DB7
:103850000E94A90702501109F2E0CF1AD1082AEEFE
:10386000C21624E0D20661F7B6CF87FC0AC0622DEB
:103870008A2D0E94740761EE71E08CE294E00E9450
:10388000932BB5FEC3C080918F04882309F4BEC07A
:103890008091A405811185C0609113057091140574
:1038A00080911505909116050E9495309B01AC0101
:1038B00060E070E0CB010E94A02F21EE3EE245E6E1
:1038C00052E40E94AE310E9462306A5071092DE2CA
:1038D000269FC001279F900D11246AE070E00E948E
:1038E000DF32CB01469669E070E00E94DF3266303D
:1038F00078F410ED181B0B2D060F412F602F8CE074
:10390000880D0E94A907412F602F832D0E94A907CF
:103910008091120590E02091090130910A01821BEB
:10392000930B0E945E13853B910534F028E631E04D
:10393000A901481B590BCA019C01245B310948E4C9
:10394000429FC001439F900D11246AE070E00E94E5
:10395000DF32CB01849666E070E00E94DF32962F62
:1039600064E06B0D97FF06C04CE3832D0E94A9070E
:103970004CE314C09D3054F01CE0180D4EE3812F31
:103980000E94A9074EE36B2D812F3EC01FEB180F3D
:10399000390E412F832D0E94A907412F6B2D832DB6
:1039A00033C0C0900205D0900305E0900405F0906C
:1039B00005050E948910A70196010E94AE3120E002
:1039C00030E040EA50E40E942D2F2DEC3CEC4CE816
:1039D00050E40E94AE310E946230862F9FEF960F16
:1039E0009B3240F469E00E94BE324FEC491B9B2C95
:1039F000980E08C06C322CF074E0972E9B0C4EE2AF
:103A000001C04FEC692D8A2D0E94A9072396E2E19F
:103A10000C946133ADE0B0E0E0E1FDE10C9445339E
:103A20006B017C010E94EA068091A40510918F042D
:103A300081111CC0112301F18091930480FF1CC0EF
:103A40006091FE047091FF04809100059091010542
:103A50000E946230623071057CF0C0927A05D0928B
:103A60007B05E0927C05F0927D0506C0111104C033
:103A7000809190048111F1CF109390048091E7051B
:103A8000853018F084E08093E70586EF94E00E948B
:103A90006A13853C994080F11092FE041092FF0455
:103AA000109200051092010563E085E00E94740702
:103AB0006091FC047091FD048091FA049091FB04E4
:103AC000681B790B8EEC91E00E942D094091A604B1
:103AD0005091A7046091A8047091A9044115510563
:103AE0006105710531F02AE030E08CE294E00E943B
:103AF000BF2A83E095E433C08091A10580FF36C0E2
:103B000080918F0481112EC080917A0590917B0560
:103B1000A0917C05B0917D05892B8A2B8B2B11F10F
:103B20008AE795E00E946A13883B9B40D8F4609135
:103B300092057091930580919405909195050E944E
:103B400062306630710574F081E080939D040E94BC
:103B500054088091F2048093650481E091E00E9412
:103B60007A12B1C280919D04811171C28091E705E2
:103B7000882321F09091F204981718F487EB93E0D2
:103B800063C280918F0481115DC21D821E821F82DB
:103B90001886E0905C0485E0E89E70011124F7012E
:103BA000E559FB4F7F018591949190935B0480933D
:103BB0005A04F7013296249129870E945408C12C97
:103BC000D12C812C712C212C312C412C912C512C5D
:103BD0009985891609F4B9C066246394680C00912C
:103BE0005A0410915B040C0D1D1DF801A590B490B2
:103BF000662D81E00E947407B5018CE294E00E947A
:103C0000932B662D83E10E94740780910501881231
:103C100006C08EE30E949B075090160302C00E94CC
:103C2000CA08F801329684913196B490833609F42B
:103C30003FC040F48A3509F439C0823671F18111F0
:103C400068C07EC08836D9F088F4863609F061C035
:103C5000F8013496A591B4918D919D910D90BC91F0
:103C6000A02D8D839E83AF83B88753C0833709F41B
:103C700046C08A3709F04DC0B0E19B2E19C0809133
:103C80001403803419F467E671E002C06FE571E057
:103C90008CE294E00E94932B53C0F8013496A591D6
:103CA000B4916C9170E080E090E010C080E2982EBA
:103CB000F8013496A591B4916C91772767FD7095C2
:103CC00069197109882777FD8095982F0E94953092
:103CD0006A877B878C879D876B2D70E080E090E002
:103CE0000E9493309B01AC016A857B858C859D8504
:103CF0000E94FA2F6D837E838F8398870AC0F80114
:103D000034966591749144E050E0CE0105960E948E
:103D1000A80880910501BD81AE813F812885881268
:103D200004C07B2E2A2E332E422E085F1F4FF8012F
:103D3000859194914B2F5A2F632F722F0E948409E3
:103D40008EE0C80ED11C862C43CFE3E0EE0EF11CB2
:103D5000F70185919491009711F0FC0109958091EC
:103D60009704882309F4AFC11092970411E01093CF
:103D7000880481E00E9469088739910514F081E088
:103D800004C08A369F4F24F48FEF0E9479089BC1AC
:103D900083E00E946908873991055CF01093050162
:103DA00080915C04823019F410925C048CC18F5FA6
:103DB0000CC08A369F4F64F41093050180915C0417
:103DC000811102C082E001C0815080935C047BC1FC
:103DD000609105016F5F852D0E9474078091050138
:103DE000E0905A04F0905B049EE0899FE00CF11C87
:103DF000112480E00E9469088C0197FF06C011958C
:103E0000019511098824839401C0812CF70134960F
:103E1000C590D490F7013296549031966490872DD6
:103E2000922DA32DB42D8D839E83AF83B887E3E6B7
:103E3000E51538F0F2E65F1670F42AE5521248C034
:103E40000AC083E7581671F19AE7591621F0E6E6A1
:103E50005E123EC027C00D32F1E01F078CF0662DC8
:103E600070E080E090E00E9493309B01AC0160E044
:103E700070E080E291E40E94FA2F21E029874AC095
:103E8000073911054CF1662D70E080E090E00E944A
:103E900093309B01AC0160E070E080E89FE30E94FA
:103EA000FA2F1DC00139F1E01F0774F50D3221E032
:103EB0001207C4F4093C1105E4F484E0898705364F
:103EC00011050CF464C06FE672E183E89AE322C046
:103ED00060E070E0CB0113C060E070E0CB01E1E096
:103EE000E9870DC06DEC7CEC8CEC9DE3F4E0F98788
:103EF00006C06AE077ED83E29CE324E0298705367B
:103F000011050CF444C006C060E070E080E89FE357
:103F1000F4E0F98781109058AB01BC01CE01059601
:103F20000E944816F7013A9665917491F7013C9604
:103F300005911491882777FD8095982F0E949530E0
:103F40004B015C019B01AC016D817E818F81988565
:103F50000E94F32F87FF04C08D829E82AF82B886B5
:103F6000B801882777FD8095982F0E9495304B01E6
:103F70005C019B01AC016D817E818F8198850E94DF
:103F8000A331181624F48D829E82AF82B8868D806C
:103F90009E80AF80B884272D322D432D542DC5012E
:103FA000B4010E94F32F882309F48DC0662D70E0C0
:103FB00080E090E00E949530A50194010E94AE310E
:103FC0000E94623093E65916D9F0951538F0EAE56B
:103FD0005E1699F0F2E65F1699F01FC023E75216BD
:103FE00091F08AE7581659F096E6591216C0F60174
:103FF00080829182A282B38210C0605E01C0605F45
:10400000F60160830AC089829A82AB82BC8244E056
:1040100050E0B601CE01019607C0F9854F2F50E060
:10402000B601605A7340C6010E94280A26E0E20EDB
:10403000F11CF70185919491009709F444C0FC01AB
:10404000099541C083E694E00E94CE0A3CC080916D
:1040500065049091F204891721F08093F204109284
:104060009D0482E00E946908AA2797FDA095BA2FB7
:10407000B7FF07C0B095A095909581959F4FAF4F22
:10408000BF4F8D329140A105B105D4F483E00E9469
:104090006908AA2797FDA095BA2FB7FF07C0B0956A
:1040A000A095909581959F4FAF4FBF4F8D32914016
:1040B000A105B1052CF480918F04882309F44DCD1E
:1040C00010929D044ACD2D96E2E10C9461331F922B
:1040D0000F920FB60F9211242F933F934F935F933C
:1040E0006F937F938F939F93AF93BF93CF93EF93F0
:1040F000FF9310928704809186048F5F80938604DB
:104100000E949B28609382047093830480938404AC
:104110009093850480916A03811119C0CFB7809173
:10412000AA04882379F080916A038F5F80936A03E1
:1041300078940E94B0071092AA0480916A0381507B
:1041400080936A03789480E00E940718CFBFFF91A4
:10415000EF91CF91BF91AF919F918F917F916F918F
:104160005F914F913F912F910F900FBE0F901F9035
:104170001895CF92DF92EF92FF92E9D76B017C0105
:1041800083E00E947429813049F4C0927904D0926E
:104190007A04E0927B04F0927C041FC08091790441
:1041A00090917A04A0917B04B0917C040097A105C2
:1041B000B10599F0C81AD90AEA0AFB0AD0927E041E
:1041C000C0927D041092790410927A0410927B04BC
:1041D00010927C0481E080937F04FF90EF90DF9049
:1041E000CF90089566E970E080E090E0D3C71F9219
:1041F0000F920FB60F9211242F933F934F935F931B
:104200006F937F938F939F93AF93BF93EF93FF939E
:10421000B0DFFF91EF91BF91AF919F918F917F910F
:104220006F915F914F913F912F910F900FBE0F9023
:104230001F90189565E085E00E9474076BE371E0BC
:104240008CE294E00E94932B76D74AE050E08CE217
:1042500094E00E94CC2A8091BA058F3421F4809199
:10426000BB058A3171F061E081E00E9474076091C2
:10427000BA0570E08EE191E00E942D0981E0809303
:10428000A2040E94B007AECFCF9388E10FB6F89496
:1042900080936000109260000FBE60E071EE80E0DD
:1042A00090E00E94012B4CE450E060E072E080EA74
:1042B00095E00E94A8088091A00581FF03C08DE8C9
:1042C00098E002C080EA98E09093670580936605C5
:1042D00084B58C7F84BD83E00E94E7290E94BB0FD8
:1042E000809169008C7F826080936900E89A809158
:1042F000A505813051F462E083E09FD78091690089
:10430000837F846080936900E99A5E9A0E94B00777
:1043100078948091BC05883341F48091BD05883341
:1043200021F48091BE05873381F088E38093BC053A
:104330008093BD0587E38093BE0543E050E06CE1C8
:1043400072E08CEB95E00E94280A8091E5058823B5
:1043500031F1E091E605EE2311F1F0E0E75EFE4F6A
:10436000C49161E08C2F69D760E08C2F9FD78C2F90
:1043700090E0FC01E552F74F2491FC01E953F74F1F
:10438000849180937804E22FF0E0EE0FFF1FE75056
:10439000F74F8591949190937704809376040E94CF
:1043A0005B0748DF0E948613CF910895E0910301D7
:1043B000EF5FE0930301E770F0E0EE0FFF1FE85BB3
:1043C000FC4F9183808328E060E070E02150E22F71
:1043D000F0E0EE0FFF1FE85BFC4F80819181680FDA
:1043E000791F2111F3CF80E090E00E94933020E00C
:1043F00030E040E05EE30C94AE3197FD05C08F3FA6
:10440000910509F01CF4089580E008958FEF089558
:10441000CF92DF92EF92FF92CF93DF938091A0052E
:1044200084FD05C080916A04882309F49FC0C0916F
:104430000201CF5FC093020180E1CCD7C770EC2F9F
:10444000F0E0EE0FFF1FE85CFC4F9183808328E0D3
:10445000C0E0D0E02150E22FF0E0EE0FFF1FE85C5B
:10446000FC4F80819181C80FD91F2111F3CF20917A
:104470006E0430916F0447E0429FC001439F900D4E
:1044800011248C0F9D1FA3E096958795AA95E1F7BF
:1044900090936F0480936E048091A00584FF66C0A2
:1044A00029E53EEE49E050E46091C2057091C305F4
:1044B0008091C4059091C5050E94AE316B017C01CD
:1044C000BE0180E090E00E9493309B01AC01C701E7
:1044D000B6010E94AE310E94673040916405509150
:1044E00065054115510529F47093650560936405D0
:1044F00011C09A01220F331F240F351F2E5F3F4F2B
:10450000260F371F369527953695279530936505E5
:104510002093640581E0809388043091A905832F5E
:1045200061E20E94B232E82F8091640590916505A6
:10453000C29664E670E00E94CB32432F50E0641BC9
:10454000750B9B01AFEFB0E00E943633FAE2EF9FAC
:1045500090011124241B350B442737FD4095542F1F
:104560000E941433C90149DF80935F058091A00543
:1045700085FF04C08091A304811105C080916B0464
:10458000882309F49CC0C0910101CF5FC093010151
:104590008EE020D7C770EC2FF0E0EE0FFF1FE85D34
:1045A000FC4F9183808328E0C0E0D0E02150E22FCF
:1045B000F0E0EE0FFF1FE85DFC4F80819181C80F96
:1045C000D91F2111F3CF209170043091710447E07D
:1045D000429FC001439F900D11248C0F9D1F23E02B
:1045E000969587952A95E1F79093710480937004CE
:1045F0008091A00585FF63C029EA3CEC48E050E4C7
:104600006091C6057091C7058091C8059091C90554
:104610000E94AE316B017C01BE0180E090E00E94FF
:1046200093309B01AC01C701B6010E94AE310E94DC
:10463000673040916205509163054115510529F499
:10464000709363056093620511C09A01220F331FB6
:10465000240F351F2E5F3F4F260F371F36952795A6
:104660003695279530936305209362053091E205D6
:10467000832F61E20E94B232E82F8091620590910F
:104680006305C29664E670E00E94CB32432F50E08F
:10469000641B750B9B01AFEFB0E00E943633FAE26A
:1046A000EF9F90011124241B350B442737FD4095C3
:1046B000542F0E941433C901A0DE80935E058091BF
:1046C000A00586FD05C080916C04882309F47FC095
:1046D00080916804882349F020E137E240E050E00F
:1046E00061E08FE048D6CB0102C08FE073D6E09145
:1046F0000001EF5FE0930001E770F0E0EE0FFF1FB5
:10470000E85EFC4F9183808328E0C0E0D0E0215038
:10471000E22FF0E0EE0FFF1FE85EFC4F80819181F9
:10472000C80FD91F2111F3CF209172043091730467
:1047300047E0429FC001439F900D11248C0F9D1FA5
:10474000A3E096958795AA95E1F7909373048093DB
:1047500072048091A00586FF3AC02DE032E348EC58
:104760005CE36091CA057091CB058091CC05909176
:10477000CD050E94AE316B017C01BE0180E090E06E
:104780000E9493309B01AC01C701B6010E94AE317B
:104790000E946730409160055091610541155105B7
:1047A00029F4709361056093600511C09A01220F8E
:1047B000331F240F351F2E5F3F4F260F371F3695AF
:1047C0002795369527953093610520936005809154
:1047D000AE058695813041F038F1823041F083306A
:1047E00039F58091E80422C081E1F4D508C020E2C7
:1047F0003EE440E050E061E081E1BDD5CB01D6DD93
:104800002091CE053091CF054091D0055091D10532
:104810000E94AE310E9467307093E7046093E60413
:1048200081E08093880437C08091E90490E004C05F
:104830008091760590917705B9DD0E94673070937D
:10484000E7046093E60480916D04882321F1809150
:104850006904882341F020E137E240E050E061E064
:1048600081E189D503C081E1B5D5BC018091740493
:104870009091750447E0489F9001499F300D1124A5
:10488000260F371F53E0369527955A95E1F7309359
:10489000750420937404DF91CF91FF90EF90DF9027
:1048A000CF9008958CE294E00E94B50688E294E0EF
:1048B000A0C6A4E0B0E0EFE5F4E20C944733A8957D
:1048C0003AD46B017C0128EE33E040E050E00E94D6
:1048D000F2323093FD042093FC042CEDC21625E047
:1048E000D206E104F10428F08091A204882309F49F
:1048F0007FC0C7D6882309F479C0D2D68A3031F474
:104900008091E3048F5F8093E30402C01092E3047C
:104910008091E304843068F38CB583608CBD65E1DD
:1049200071E088E294E0FFD6B12C812C912CC12C4F
:10493000D12C0FE011E0A8E2EA2EA4E0FA2EEFEF6E
:104940008E16910411F00CF04BC09BD68823E9F32E
:10495000A7D6823338F48033D8F48A30B1F38D305F
:1049600039F023C0823709F561E0861A91081DC02D
:1049700058E0C51219C0ED2DF0E0EE58FC4F8081D3
:10498000B826D394ED2DF0E0EE58FC4F10820CC009
:10499000ED2DF0E0EE58FC4F9081990F813309F432
:1049A0009F5F9083C39401C0C12C70E4D712C7CF1E
:1049B00062E773E0C4010E94D4078FEF881A980A57
:1049C0001F92BF921F930F93FF92EF92D0D60F903A
:1049D0000F900F900F900F900F90B12CD12CAFCF64
:1049E0006BE071E088E294E09ED657C323DC55C3A8
:1049F0007894F2E74F2EF3E05F2E10E480918A0462
:104A0000811108C080918B04811104C080919404AD
:104A1000882361F00E94281880918A0480938B0477
:104A200080918804882309F4BDC186C0F201212F3A
:104A300011922A95E9F722D67ED34B015C0154E608
:104A4000850E911CA11CB11CEAEF7E2E0FEF73D3D3
:104A500086169706A806B906A0F024EC39E040E0D7
:104A600050E060E080E087D46F3F710581059105DB
:104A700009F02CF4662319F0601708F4062F7A94D5
:104A800031F70F3F19F40091040102C000930401B3
:104A90000B3090F00331C0F00D31E8F0083210F126
:104AA0000C3340F1063968F580E270E8872E75E234
:104AB000972EA12CB12C2CC082E0812C62EC962E7A
:104AC000AA24A394B12C24C084E0812C51EE952E0D
:104AD000A12CB12C1DC086E0812C46E9942EA12C7E
:104AE000B12C16C088E030E8832E30E7932EA12C3D
:104AF000B12C0EC080E1812C2BE4922EA12CB12C84
:104B000007C080E490EC892E92E1992EA12CB12C63
:104B100080939E058092A6049092A704A092A80478
:104B2000B092A90488E294E05BD5C501B40169D5CF
:104B300081E080938B0462CF0091F2044091A5053F
:104B4000433008F424C1433029F480917D049091CE
:104B50007E0411C08BEF840F843048F4E42FF0E022
:104B6000EE0FFF1FEA59FA4F8081918104C08091B6
:104B70007605909177059C01285E3340213D3740B2
:104B800008F005C1443001F580914105882389F082
:104B90001092410560E070E08DE395E00E946510A1
:104BA0009091410580910601981303C081E08093A4
:104BB0008C048DE395E00E946A13813D974008F4D0
:104BC00068C01092060165C02091AA05211119C084
:104BD0006091E7058D34E4E09E0760F09C012C5461
:104BE000344070E080E293E00E94DF32C9010E940D
:104BF000CB3201C060E0061709F44BC06093F204A9
:104C000048C05091A00552FF14C020915404309127
:104C100055042115310539F0BC01621B730B41E0CD
:104C2000693C710508F440E0909355048093540466
:104C300005C041E08D3D954008F440E050FF10C0B4
:104C4000442321F081E080938D0423C080918D0462
:104C5000882319F081E080938C0410928D0419C090
:104C60004423B9F080903D0590903E05A0903F050B
:104C7000B090400560D286169706A806B90648F49B
:104C800081E080938C0464EF71E08DE395E00E94F5
:104C9000651080918C04882371F010928C048091AF
:104CA000F2048F5F8093F2049091E705981718F54E
:104CB0001092F20420C08091A00587FF1CC0809153
:104CC000560490915704A0915804B091590400974C
:104CD000A105B10581F04091FC045091FD0460E014
:104CE00070E084179507A607B70728F481E0809342
:104CF0009E0480938C04B090F2040B1509F447C015
:104D00000E9486138091A00510919E0487FF09C020
:104D1000112339F08091E705882319F0B81609F4BA
:104D2000BCCF8B2D0E947713882399F04091FC040F
:104D30005091FD04480F511D60E070E0409356040F
:104D400050935704609358047093590411111DC077
:104D50000AC01111A2CF109256041092570410925B
:104D6000580410925904AFEAB4E0E2E0F1E0849113
:104D70008D9331968111FBCF8091B6048B0D80937A
:104D8000B60463E088E00E944D1310929E04809167
:104D90008904811105C081E0809389048093870490
:104DA0001092880480918904882309F4C2C08091FC
:104DB00087048111BEC01092890490912705992320
:104DC00019F081E080939A0420918F0480919104DE
:104DD000222309F44EC180FD0DC01092960481601B
:104DE0008093910410924605109247051092480551
:104DF0001092490580919604882309F42AC1809174
:104E00009604882309F48CC08090170590901805AB
:104E1000A0901905B0901A05C501B4019F7725E34C
:104E20003AEF4EE85CE30E94AE310E94F72F2B016F
:104E30003C012091290530912A0540912B05509184
:104E40002C05C501B4010E94430A4B015C0120916D
:104E50002D0530912E0540912F0550913005609120
:104E60001B0570911C0580911D0590911E050E94E7
:104E7000430AA30192010E94AE312B013C019B0128
:104E8000AC010E94AE3169837A838B839C83A50138
:104E90009401C501B4010E94AE319B01AC0169814E
:104EA0007A818B819C81D9D70E9415320E94623011
:104EB0006093130570931405809315059093160560
:104EC000C501B4019F770E94623070931105609311
:104ED0001005C301B2019F770E94623070930F05E5
:104EE00060930E05A30192015058C501B4010E94C0
:104EF000A02F20EE3EE245E652E40E94AE310E9431
:104F00006230CB018A559109209106053091070541
:104F1000821B930B0E945E130E94AC1380931205B8
:104F20000E945A16C701B6010E940A1D81E08093B3
:104F3000AA048091520590915305A0915405B09117
:104F400055058C159D05AE05BF05B8F464E170E00C
:104F500082E595E00E947A100E94581A8091AA0476
:104F6000882359F080918704882339F082E894E0FF
:104F70000E946A13C39708F089C080914E059091F2
:104F80004F05A0915005B09151058C159D05AE05BA
:104F9000BF0528F564E670E08EE495E00E947A1083
:104FA00037DA8091980491E08927809398048823C8
:104FB000B1F08091A504882369F08F5F8093A504E8
:104FC000833068F08091F3048F5F8093F304109234
:104FD000A50405C08091F3048F5F8093F304809152
:104FE0004A0590914B05A0914C05B0914D058C154B
:104FF0009D05AE05BF0508F050C064EF71E08AE47E
:1050000095E00E947A1081E0809388048093970451
:105010009091F4049F5F9093F404909194049827E6
:10502000909394049923C9F180938E04809186040F
:10503000853050F480919F058F5F80939F05843069
:1050400028F00E94550702C010929F051092860416
:1050500024C0933008F4D3CE8CE0E9E2F5E0A7E178
:10506000B5E001900D928A95E1F781E08093960476
:10507000C6CE80FFBFCE2091A404222309F4BACE6D
:10508000109296048E7F80939104B4CE1092870480
:105090000E94B0071092AA0470CF2496E0E10C940D
:1050A00063331F920F920FB60F9211242F933F93E9
:1050B0008F939F93AF93BF938091ED059091EE05F1
:1050C000A091EF05B091F0053091EC0523E0230F9E
:1050D0002D3720F40196A11DB11D05C026E8230F30
:1050E0000296A11DB11D2093EC058093ED059093D0
:1050F000EE05A093EF05B093F0058091F105909136
:10510000F205A091F305B091F4050196A11DB11D22
:105110008093F1059093F205A093F305B093F40505
:10512000BF91AF919F918F913F912F910F900FBEA3
:105130000F901F9018952FB7F8946091ED0570911E
:10514000EE058091EF059091F0052FBF08953FB7D0
:10515000F8948091F1059091F205A091F305B0913A
:10516000F40526B5A89B05C02F3F19F00196A11D97
:10517000B11D3FBF6627782F892F9A2F620F711DAF
:10518000811D911D42E0660F771F881F991F4A9568
:10519000D1F70895CF92DF92EF92FF92CF93DF93F2
:1051A0006B017C01D4DFEB01C114D104E104F104F3
:1051B00079F0E0D0CCDF6C1B7D0B683E7340A0F330
:1051C00081E0C81AD108E108F108C851DC4FECCFE2
:1051D000DF91CF91FF90EF90DF90CF9008958230D4
:1051E000910538F0880F991F880F991F059701972F
:1051F000F1F70895789484B5826084BD84B58160A8
:1052000084BD85B5826085BD85B5816085BDEEE6CE
:10521000F0E0808181608083EAE7F0E08081846053
:1052200080838081826080838081816080838081AF
:10523000806880831092C1000895CF93DF9390E03F
:10524000FC01E953F74F2491FC01E552F74F84919B
:10525000882349F190E0880F991FFC01ED5FF64F1C
:10526000A591B4918750974FFC01C591D4919FB7F8
:10527000611108C0F8948C91209582238C938881C9
:1052800082230AC0623051F4F8948C91322F309509
:1052900083238C938881822B888304C0F8948C911B
:1052A000822B8C939FBFDF91CF91089590E0FC01FA
:1052B000E953F74F2491FC01E552F74FE491EE23B7
:1052C00091F0F0E0EE0FFF1FE750F74FA591B4917A
:1052D0009FB7F8948C91611103C02095822301C07F
:1052E000822B8C939FBF089590E0FC01ED54F74F03
:1052F0002491FC01E953F74F3491FC01E552F74F3B
:1053000084918823A9F1222339F1233091F038F4D4
:105310002130A9F0223001F594B59F7D12C02730CD
:1053200091F02830A1F02430B9F4909180009F7D55
:1053300003C0909180009F77909380000DC094B53A
:105340009F7794BD09C09091B0009F7703C0909162
:10535000B0009F7D9093B000E82FF0E0EE0FFF1FAC
:10536000E151F74FA591B4919C91932381E009F409
:1053700080E0089508950F931F93762F90E0FC012D
:10538000E953F74F6491FC01E552F74FE491711135
:10539000762FF0E0EE0FFF1FE151F74F85919491CA
:1053A00089019A013F70472F0E94330561157105ED
:1053B0008105910531F06F5F7F4F8F4F9F4F9F7039
:1053C00003C060E070E0CB011F910F9108958093BE
:1053D0000B0108958E3008F08E50877020910B01DC
:1053E00090E4299F90011124822B80937C0080916E
:1053F0007A00806480937A0080917A0086FDFCCFE9
:10540000809178002091790090E0922B0895A0E09F
:10541000B0E0EDE0FAE20C944F337C016A01EB015D
:1054200000E010E00C151D0571F06991D701ED91B8
:10543000FC910190F081E02DC7010995892B19F0AD
:105440000F5F1F4FEFCFC801CDB7DEB7E8E00C9478
:105450006B336115710589F0DB010D900020E9F7D0
:10546000AD0141505109461B570BDC01ED91FC91F8
:105470000280F381E02D0995089580E090E0089581
:10548000E8CF0895DC01ED91FC910190F081E02DD1
:1054900009950895A1E2B0E0E0E5FAE20C944B33FF
:1054A0007C01C42EE52FCB01D22E19A221E02D15AF
:1054B00010F02AE0D22E8E010F5D1F4F8D2C912C03
:1054C000A12CB12C6C2D7E2FA50194010E94F232EB
:1054D0008C2DD29E80191124015011098A3014F4A8
:1054E000805D01C0895CF80180832115310541058B
:1054F000510521F0C22EE32FCA01E4CFB801C70144
:10550000A8DFA196ECE00C946733A0E0B0E0EBE8F4
:10551000FAE20C944F33EC016A017B01211531054D
:1055200041F4E881F9810190F081E02D642F099523
:105530001AC02A30310599F477FF10C06DE2A2DF5E
:105540008C0144275527BA014C195D096E097F0962
:105550002AE0CE019FDF800F911F05C02AE0B7012E
:10556000A601CE0197DFCDB7DEB7E8E00C946B3330
:105570009A01AB01662757FD6095762FC6CF21159E
:10558000310549F4DC01ED91FC910190F081E02DB1
:10559000642F099508957ECF9A01AB0160E070E019
:1055A000EECF089527DEFDDF0E944421CAE8DBE24A
:1055B00080D92097E9F3AED0FBCF8091C10084FF62
:1055C00006C090917B0680917C06981302C080E013
:1055D0000895E0917C06F0E0E750FA4F808108954D
:1055E00080917C0680937B068091790680937A0671
:1055F0000895FC011382128226E231E03183208378
:1056000008959B01AC018091C10084FD1092C100FE
:1056100010927A061092790610927C0610927B0600
:105620001216130614061506ECF4211581EE380740
:1056300041055105F1F082E08093C00060E079E01F
:105640008DE390E0F1D72150310941095109CA0198
:10565000B90122E030E040E050E0E6D73093C500E9
:105660002093C40088E98093C10086E08093C20043
:1056700008951092C00020E130E0F0CF1092C100F8
:1056800008958091C10084FF07C080917B069091AE
:105690007C06891B8F77089580E00895F2CF0895E6
:1056A0008091C10084FF06C090917B0680917C06AA
:1056B000981302C080E00895E0917C06F0E0E75086
:1056C000FA4F808190917C069F5F9F7790937C0634
:1056D0000895E6CF08959091C10094FF15C0909170
:1056E00079069F5F937020917A069217E1F3E0911B
:1056F0007906F0E0EB50FA4F808390937906809121
:10570000C10080628093C1000895862FE4DF81E0AC
:1057100090E008950895DC01ED91FC910190F081F5
:10572000E02D099508950F931F93CF93DF938C017C
:10573000FB016491EF012196662321F0C801EBDFA4
:10574000FE01F7CFDF91CF911F910F910895A0E057
:10575000B0E0ECEAFBE2A9C79E01275F3F4F4F8113
:10576000588560E08D819E8112D0E2E0BAC7A0E04A
:10577000B0E0ECEBFBE299C79E01275F3F4F4F8102
:10578000588561E08D819E8102D0E2E0AAC7A4E144
:10579000B0E0ECECFBE279C77C016C871A0169018F
:1057A0009E012F5F3F4F4901F1012C8520FD05919E
:1057B00020FF01911F01002309F433C3053241F496
:1057C00020FD059120FF01911F01053261F405C004
:1057D0000A3019F46DE0C7019EDF602FC7019BDF1F
:1057E00056016501E1CF10E0512C712CFFE1F71556
:1057F000E0F00B3289F040F4003289F00332A9F472
:10580000E72DE0617E2E38C00D3261F0003369F47F
:10581000272D2160722E30C0372D3260732E872DD8
:10582000846020C0972D986023C077FC2EC080ED47
:10583000800F8A3088F476FE06C0FAE01F9F800D44
:105840001124182F19C02AE0529E800D1124582EC1
:10585000372D3062732E10C00E3231F476FCE1C267
:10586000872D8064782E08C00C3621F4972D90681F
:10587000792E02C0083649F4F1012C8520FD0591EE
:1058800020FF01911F010111B1CF8BEB800F8330FD
:1058900020F4872D8061005E07C08BE9800F833084
:1058A00008F082C1872D8F7E86FF16E08F73782ED9
:1058B000053619F48064782E08C0063621F4382F96
:1058C0003068732E02C01111115077FE06C01C33D0
:1058D00048F444244394410E07C0183038F4212F73
:1058E000412C07C04CE3442E27E003C0412C27E0A5
:1058F00017E0560184E0A80EB11CF60160817181A9
:1059000082819381042DA4010E94D6056C01098136
:1059100000FF02C003FF06C071FC07C072FC08C094
:10592000612C08C03DE2632E05C02BE2622E02C04E
:1059300090E2692E802F8C7069F1662011F084E06E
:1059400001C083E0851510F0512C09C0581A73FC72
:1059500006C060E2C701DFDE5A94D9F7F5CF6620B2
:1059600019F0662DC701D7DE03FD03C001E119E080
:1059700002C00DE019E0F72DF0717F2EF80164915F
:10598000662309F446C271106052C701C4DE0F5F7E
:105990001F4FF4CF77FE0FC04C0C04FF04C08A8168
:1059A000813309F44A94141474F5F8E0F41578F589
:1059B00088E0482E2CC076FC2AC0812F90E08C1500
:1059C0009D059CF02CEFC2162FEFD20674F0372DF8
:1059D0003068732E0AC0E2E0F0E0EC0FFD1FE10F2B
:1059E000F11D8081803319F411501111F4CF77FE2D
:1059F0000EC044244394410E812F90E0C816D9066E
:105A00002CF41C1904C04424439401C010E077FE18
:105A100006C01C141D0434F4C601019605C085E0BF
:105A200090E002C081E090E061100196112331F016
:105A3000212F30E02F5F3F4F820F931F252D30E045
:105A40008217930714F4581A01C0512C872D8970BE
:105A500039F4552029F060E2C7015DDE5A94F9CF90
:105A6000662019F0662DC70156DE73FC07C055206D
:105A700029F060E3C7014FDE5A94F9CF77FE54C096
:105A80009C2D8D2DD7FE02C090E080E0692E782EEF
:105A90001E861D86C601841991099A8B898BF60191
:105AA000E619F709E80DF91DF88BEF87812F90E0D3
:105AB00022273327281B390B3C8B2B8B3FEF631698
:105AC000730619F46EE2C70126DEC614D7046CF023
:105AD00089899A898615970544F4EF85F8892D857B
