:10000000A1C500000C948C1E0C941D1FC3C50000DC
:10001000C1C50000BFC50000BDC50000BBC50000D4
:10002000B9C50000B7C50000B5C50000B3C50000E4
:10003000B1C50000AFC50000ADC50000ABC50000F4
:100040000C94492BA7C500000C942F100C9455104C
:10005000A1C500009FC500009DC500009BC5000014
:1000600099C5000097C500003A233A234923552338
:100070006A238423AC23C023DE23084AD73B3BCE2C
:10008000016E84BCBFFDC12F3D6C74319ABD568397
:100090003DDA3D00C77F11BED9E4BB4C3E916BAA4F
:1000A000AABE000000803F05A84CCDB2D44EB9389E
:1000B00036A9020C50B9918688083CA6AAAA2ABE85
:1000C000000000803F0664EC1B3C04BC163E3BE590
:1000D000B93CC93C37C29E5A3D660498083EEA695D
:1000E000AAAA3E000000803F03020100536372652C
:1000F000656E20300046440A00434425640A0052DD
:1001000046460A00100E0F114D697373696E672F12
:100110004F6C6420436F6E6669673A202564206DDA
:1001200079203739004D696E696D4F53442D4578FC
:100130007472612055415654616C6B20322E347CB0
:10014000756E69207225642044567C0020284E5428
:1001500053432900202850414C290025372E326670
:100160000025362E3166009125372E326600A125F6
:10017000372E3266005B010B68B0040061018F68A6
:10018000F2050061011473A8040061011D73A0044D
:100190000061011268A40400670190769804006E63
:1001A00001A0769404006101BD619C0400610157C7
:1001B00077900400000000000000004E6F20696E80
:1001C0007075742064617461212025757C00B8B954
:1001D0000025346905070025346905060025352EFC
:1001E00032660D00253269006F7665726C6F61644E
:1001F0000053747265616D0066726F7A656E0053AC
:10020000747265616D0025342E3066010025322E32
:100210003066252500256325638E25342E30660142
:1002200000256325638E25322E3066252500253472
:100230006905007C20CECECECE60CECECECE2000C4
:1002400040CB242020207C007C20202024CB008256
:100250008081808180848081808180838081808191
:100260008085808180818020C8C8C8C87EC8C8C8F1
:10027000C8207C0020202024CBB8B9CB242020200B
:100280007C00253369050020586525342E30660032
:1002900025342E306600253269200025352E306643
:1002A0000025332E306925250025352E32660E00B7
:1002B00025332E30660025332E30660025322E3051
:1002C000660025342E3066002520352E3166180054
:1002D0002520352E326618005225332E3066050053
:1002E0005025332E306605004825332E3066050034
:1002F0004225352E316605004525352E31660045EF
:1003000025342E30666D00734525352E316600D8B4
:10031000026E69F00500E0026E69EE0500E8026E0B
:1003200069EC0500F0025469EA0500F8024168E54D
:100330000500FF025869DB050007034173E1050072
:100340000000000000000025336900253032697C80
:10035000002533690025342E30660100202090915D
:100360000025342E30660025352E31660043256485
:100370002535697C0025342E30660025342E316603
:100380000025342E32660025342E30660025342EAA
:1003900030660025342E32660025342E3266004346
:1003A0002569200025690025346400432569200063
:1003B000B0B1B4B5B6B77B7D1566190001200A004F
:1003C00002190A00032A17BC84FB162605970C00A5
:1003D00007EE0D0018020D000603150008890D0038
:1003E00009591900255D13000BAF110B0A4C0B00C6
:1003F00019780C000DA3145C110E141116D01112F3
:1004000012BD131417AF131313130A0214FB097F41
:100410000FD016BD2E420A571B91161D1CC10C157C
:100420001D5A13000E840C091EB9150021670A001D
:1004300020870B0022A6118F24D1131F2B3C0A1FEB
:100440002CDF10002DB810002F9A1000A7180C00F8
:10045000A8150C00A9120C00AA0F0C001F540B00C9
:10046000261B0C009AE211000000000044050C005D
:1004700000FE04052110800409B8090000000000F6
:100480003106000000000000000000000000280607
:10049000730180020000F805C0E0401F1F067301D1
:1004A00084020000F8059CFF6400160673019802A0
:1004B0000000F805C0E0401F1F0673019C02000009
:1004C000F8059CFF640008067301B0020000F805FF
:1004D000C0E0401F1F067301B4020000F8059CFF36
:1004E0006400FD057301C8020000F805C0E0401F6C
:1004F0001F067301CC020000F8059CFF640076061D
:100500006800000000000000000000005C066601BA
:1005100032060000F805FCFF040069066601360695
:100520000000F805FCFF0400400666013A060000E2
:10053000F805FCFF04004E0666013E060000F805C3
:10054000FCFF04002907000000000000000000007C
:1005500000001907620A09060000F1050000FF000B
:100560000A07620A42060000F1050000FF00FC06CF
:10057000620108060000EC050000FF00EA066201C7
:1005800007060000EC050000FF00D90662010F0617
:100590000000EC050000FF00CC0662011006000020
:1005A000EC050000FF00BC06000000000000000099
:1005B00000000000AE06620147060000EC050100E5
:1005C0000400A506620106065C09EC0500000300B4
:1005D00095065A0144065C09EC05E1FF1F008706F9
:1005E0007A0143065C09EC05F1FF0F00252E306609
:1005F0000025332E31667600252E33660034202800
:100600005253534929204B00332028437572726599
:100610006E7429204B00322028563229204B0020AE
:100620002020202020204100312028563129204B35
:100630000020202050696E2053656E736F72730026
:10064000526F6C6C2020696E204E545343005069E9
:1006500074636820696E204E54534300526F6C6C73
:100660002020696E2050414C0050697463682069F5
:100670006E2050414C002020486F72697A6F6E20C6
:10068000616E676C657300566572746963616C2096
:100690006F66667300486F72697A6F6E74616C2062
:1006A0006F66667300436F6E747261737400536398
:1006B0007265656E7320436F756E740020205363FE
:1006C0007265656E20706172616D7300525353499B
:1006D000207761726E696E6700426174742063688E
:1006E00061726765207761726E004F766572737014
:1006F000656564207761726E696E67005374616C22
:100700006C207761726E696E67004261747420328A
:10071000207761726E696E670042617474657279E8
:10072000207761726E696E67002020204F5344204D
:1007300073657475700097078D07880783077E07B8
:1007400079077407A60771076C0769076607AB0787
:10075000A10763075F0792075A0761746F6600700D
:100760006F6900707000706100686C00706F737268
:1007700000636C00737462360073746235007374C6
:100780006234007374623300737462320073746293
:1007900031006372757A006D616E75006D5F25645E
:1007A000006C616E6400706F73680072746C00ECB2
:1007B00007DF07CE07BF07260819080A08FB07034B
:1007C00025392E356625630425392E356600032527
:1007D00031302E36662563042531302E36660025ED
:1007E000392E3566256325392E3566002531302EA4
:1007F000366625632531302E366600032530356C8C
:10080000642563042530356C6400032530366C6440
:100810002563042530366C64002530356C6425630F
:100820002530356C64002530366C64256325303600
:100830006C6400B108A7089B088E088208750869D7
:10084000085E085208470846656E63652046617277
:10085000210046656E63652048696768210046652A
:100860006E6365204C6F77210042617474204220D2
:100870006C6F77210048696768205653706565641E
:10088000210020204C6F7720527373692100426150
:100890007474657279204C6F772100204F766572F1
:1008A000537065656421002020205374616C6C21B5
:1008B00000204E6F204750532066697821000007C2
:1008C0000E091C1B1215383F363124232A2D707750
:1008D0007E796C6B6265484F464154535A5DE0E740
:1008E000EEE9FCFBF2F5D8DFD6D1C4C3CACD9097B0
:1008F0009E998C8B8285A8AFA6A1B4B3BABDC7C0A0
:10090000C9CEDBDCD5D2FFF8F1F6E3E4EDEAB7B00F
:10091000B9BEABACA5A28F88818693949D9A2720FF
:10092000292E3B3C35321F18111603040D0A57506F
:10093000595E4B4C45426F68616673747D7A898E4F
:10094000878095929B9CB1B6BFB8ADAAA3A4F9FECF
:10095000F7F0E5E2EBECC1C6CFC8DDDAD3D4696EBF
:10096000676075727B7C51565F584D4A4344191E2F
:10097000171005020B0C21262F283D3A33344E491F
:10098000404752555C5B7671787F6A6D64633E398F
:10099000303722252C2B0601080F1A1D1413AEA97F
:1009A000A0A7B2B5BCBB9691989F8A8D8483DED9EF
:1009B000D0D7C2C5CCCBE6E1E8EFFAFDF4F352B8EC
:1009C0000E4085EB51401966BB0012800C1CA01430
:1009D0001E666666400000803F100CBA000A0000E8
:1009E0001BE8031A000000080002010000030407CE
:1009F00000000000000000000102040810204080F8
:100A00000102040810200102040810200404040458
:100A100004040404020202020202030303030303A8
:100A2000000000002300260029000000000025002F
:100A300028002B0000000000240027002A006E611F
:100A40006E00696E660000407A10F35A00A0724E84
:100A500018090010A5D4E80000E87648170000E463
:100A60000B54020000CA9A3B000000E1F5050000AB
:100A700080969800000040420F000000A086010010
:100A80000000102700000000E803000000006400E0
:100A9000000000000A00000000000100000000004B
:100AA0002C76D888DC674F0823DFC1DFAE59E1B16F
:100AB000B796E5E3E453C63AE651997696E8E6C27E
:100AC0008426EB898C9B62ED407C6FFCEFBC9C9F85
:100AD00040F2BAA56FA5F490055A2AF75C936B6CA7
:100AE000F9676DC11BFCE0E40D47FEF520E6B5009B
:100AF000D0ED902E0300943577050080841E080009
:100B000000204E0A000000C80C333333330F986EB8
:100B100012831141EF8D2114893BE65516CFFEE675
:100B2000DB18D1844B381BF77C1D901DA4BBE4243B
:100B3000203284725E228100C9F124ECA1E53D27B8
:100B4000BF08842211241FBECFEFD8E0DEBFCDBF87
:100B500011E0A0E0B1E0ECEEFCE602C005900D92E1
:100B6000A233B107D9F726E0A2E3B1E001C01D929C
:100B7000AD3DB207E1F71BE0C4E4DBE004C022971F
:100B8000FE010E942A36C034D107C9F70E94CA2D3F
:100B90000C940C3235CACF92DF92EF92FF920F93F2
:100BA0001F93E82FF92F05C00150110921093109C0
:100BB00061F1908196239417B9F305C00150110992
:100BC0002109310911F1908196239413F7CFC12C9B
:100BD000D12CE12CF12C0AC08FEFC81AD80AE80AF0
:100BE000F80A0C151D052E053F0579F08081862336
:100BF000841791F36C2D7D2D8E2D9F2D1F910F91BC
:100C0000FF90EF90DF90CF90089560E070E080E07B
:100C100090E01F910F91FF90EF90DF90CF9008959B
:100C2000FA01AA27283051F1203181F1E8946F931D
:100C30006E7F6E5F7F4F8F4F9F4FAF4FB1E03ED0C3
:100C4000B4E03CD0670F781F891F9A1FA11D680F61
:100C5000791F8A1F911DA11D6A0F711D811D911D94
:100C6000A11D20D009F468943F912AE0269F112409
:100C70003019305D3193DEF6CF010895462F47706D
:100C8000405D4193B3E00FD0C9F7F6CF462F4F70C8
:100C9000405D4A3318F0495D31FD4052419302D026
:100CA000A9F7EACFB4E0A6959795879577956795CC
:100CB000BA95C9F700976105710508959B01AC01CC
:100CC0000A2E06945795479537952795BA95C9F7F3
:100CD000620F731F841F951FA01D0895283008F010
:100CE00027E03327DA01990F311D87FD91600096C7
:100CF0006105710539F432602E5F3D9330E32A952A
:100D0000E1F708959F3F30F080387105610509F0E3
:100D10003C5F3C5F3D93913008F08068911DDF930C
:100D2000CF931F930F93FF92EF92192F987F969571
:100D3000E92F96959695E90FFF27E056F54F9927ED
:100D40003327EE24FF24A701E701059008940794B8
:100D500028F4360FE71EF81E491F511D660F771F36
:100D6000881F991F0694A1F70590079428F4E70EB1
:100D7000F81E491F561FC11D770F881F991F661F38
:100D80000694A1F70590079428F4F80E491F561F02
:100D9000C71FD11D880F991F661F771F0694A1F7E3
:100DA0000590079420F4490F561FC71FD81F990FAD
:100DB000661F771F881F0694A9F7849110951770F6
:100DC00041F0D695C79557954795F794E7941A95AE
:100DD000C1F7E6E4FAE068941590159135916591B4
:100DE000959105907FE27395E118F10A430B560B3C
:100DF000C90BD009C0F7E10CF11E431F561FC91FD4
:100E0000D01D7EF4703311F48A95E6CFE89401503A
:100E100030F0080F0AF40027021708F4202F23955A
:100E2000022F7A3328F079E37D932A95E9F710C0F1
:100E30007D932A9589F6069497956795379517952A
:100E40001794E118F10A430B560BC90BD00998F01F
:100E500023957E9173957A3308F070E37C93201389
:100E6000B8F77E9170617D9330F0839571E37D9347
:100E700070E32A95E1F71124EF90FF900F911F91F5
:100E8000CF91DF91992787FD9095089580E008958F
:100E900080E0089580E008950895FC011382128295
:100EA00020E131E03183208308958EBD0DB407FE2B
:100EB000FDCF8EB56EBD0DB407FEFDCF8EB5089586
:100EC0008EBD0DB407FEFDCF8EB58FEF8EBD0DB478
:100ED00007FEFDCF8EB508956FE070E080E090E0F2
:100EE0000C94C22B811180E490911403981749F05F
:100EF000809314035E98609114036C6180E0D5DFE9
:100F00005E9A08955E988091010681FD06C08091E9
:100F1000000683FF19C081E018C080EAD1DF80FF9E
:100F200006C081E0DFDF80910006886007C081FF96
:100F300008C080E0D7DF80910006877F809300069D
:100F400005C082FDE4CF02C080E0CCDF5E9A089548
:100F5000CF93DF93E0910606E43008F0E0E0F0E0A4
:100F6000E851FF4FD49180E1C1E0C80F6D2F9DDFA4
:100F7000C03211F08C2FF8CFDF91CF9108955E9899
:100F8000E7DF6091440682E090DF6091430683E0F2
:100F90008CDF5E9A0895CF935E988CEE91DFC82F18
:100FA00060911403626080E080DF0E94171F6C2F45
:100FB0006F7E8CE67ADF62E18CE077DF609114036C
:100FC0006C6380E072DF0E94171F609114036C61F4
:100FD00080E06BDFD4DFCF9108955E9862E080E01F
:100FE00064DF7ADFD8CF61E086E00E94152C62E0F2
:100FF00082E00E94152C86DFCECF209115038091D0
:10100000160390E03EE1239F800D911D11249093E3
:1010100033018093320108958F71809316036F70AE
:101020006093150380911403803411F0673008F445
:10103000E4CF635060931503FBCF8F3F99F020916D
:10104000320130913301203E91E0390758F4A90173
:101050004F5F5F4F5093330140933201F901EC5CD5
:10106000FE4F808308958C3731F4809115038F5F94
:1010700080931503C2CFE1CF862FF5DF81E090E0AA
:101080000895CF93C42FC8DF8C2FEDDFCF91089543
:101090005E9860E085E009DF60E086E006DF61E001
:1010A00084E003DF5E9AE4E3F1E080E25E98908101
:1010B0009EBD0DB407FEFDCF9EB581935E9A93E071
:1010C000E431F90798F35E988FEF8EBD0DB407FEFB
:1010D000FDCF8EB55E9A08950F931F93CF93DF9344
:1010E000C82F8B015E9860E080E0DFDE6C2F89E026
:1010F000DCDEE80110E00991612F8AE0D6DE602F86
:101100008BE0D3DE1F5F1633B1F760EA88E0CDDEF7
:1011100080EAD6DE85FF03C00E94ED18F9CF6CE0AF
:1011200080E0C3DE5E9ADF91CF911F910F91089509
:10113000A1E0B0E0EEE9F8E00C944D361CBC8F72F3
:1011400080658CBD8DB581608DBD8DB589838EB573
:1011500089832196E2E00C94693661E08DE00E947B
:10116000152C61E08BE00E94152C60E08CE00E9461
:10117000152C61E08AE00E94152C80E0D9CF87E130
:1011800093E0EBCFE82FF0E0EE0FFF1FE553FA4FAF
:1011900080819181611105C028EE33E040ED57E078
:1011A00004C020E233E048E958E08217930790F04A
:1011B000FC01E21BF30BCA01821B930B65E070E09C
:1011C0000E94C335CF010E94C335862F653018F0C9
:1011D00084E0089580E00895ABECB5E0EDEBF4E039
:1011E00080819181883E934028F48D919C91119744
:1011F000918380833296129684E0E53CF80781F76C
:10120000089590E0880F991FDC01A553BA4FFC01A7
:10121000E354FB4F8D919C9120813181821B930B74
:101220000895E091BC0425E0E29FF0011124E25909
:10123000FB4F649161504091BA045091BB0490916E
:10124000050187FF03C0992339F004C0882311F0FA
:10125000961721F0980F03C0962F01C090E0FA0175
:101260002EE0929FE00DF11D1124349625913491CA
:10127000232B39F39093050181E08093E8040895CE
:10128000EF92FF920F931F93CF93DF937B018A011D
:10129000080F191FEC01E81AF90AC017D10739F035
:1012A000C7018C0F9D1F0E946E358993F6CFCDB775
:1012B000DEB7E6E00C94653662CE0895692FACCEB9
:1012C0008CE7D1CE80E2CFCECF93813110F0805128
:1012D000FCCF811101C080E1C82FCC0FC25080E942
:1012E0008C0FC1DE81E98C0FBEDECF910895A8E19D
:1012F000B0E0EDE7F9E00C944C36182F88E1189F28
:10130000B001112460587D4F48E150E0CE010196B4
:10131000B7DFE12FF0E0EE0FFF1FE253FB4F6081DC
:10132000718180E090E00E948B3329813A814B816A
:101330005C810E94A6342D813E814F8158850E9498
:1013400025329F938F937F936F93CE0109969F933E
:101350008F938CE894E09F938F930E949F2E0FB6FB
:10136000F894DEBF0FBECDBF6896E3E00C946836FC
:10137000CF936AE086E050DEC0E08C2FB8DFA0DFBC
:10138000CF5FC430D1F7CF9108957F936F939F9330
:101390008F938CE894E09F938F930E94AF2E0F90D1
:1013A0000F900F900F900F900F9008951F93CF9371
:1013B000DF93EC01162F6CE370E00E94C33581E5EA
:1013C00093E0E3DF112331F08091F404882311F0DE
:1013D00080E201C08AE347DECE016CE370E00E9448
:1013E000C335BC018BE493E0D0DFDF91CF911F9137
:1013F000089560E0DBCF8091B705682F70E08231FF
:1014000040F4FB01EE0FFF1FEA5CF84F85919491C9
:1014100002C08CE997E0B9DF8091EF04882311F0D6
:1014200086E821CE089560915C0570E081EA92E043
:10143000ACCF60916D0570916E0587ED91E0A5CF01
:1014400060916B0570916C0581ED91E09ECF7F936B
:101450006F935F934F939F938F938CE894E09F9348
:101460008F930E94AF2E8DB79EB708960FB6F89453
:101470009EBF0FBE8DBF089540E050E0BA0189E9DC
:1014800093E0E5CF4091BD055091BE056091BF0549
:101490007091C00580EB92E0DACFCF93C22F7F939B
:1014A0006F935F934F939F938F934CE854E05F93B8
:1014B0004F930E94AF2E8C2FD6DD8DB79EB7089626
:1014C0000FB6F8949EBF0FBE8DBFCF910895A0E0D8
:1014D000B0E0EDE6FAE00C9447368091C9059091B2
:1014E000CA05FC013A961491329604910D96FC01BE
:1014F000C591D4916091BA057091BB0580E090E0F0
:101500000E948B332DEC3CEC4CEC5DE30E94A63446
:101510006B017C01602F70E080E090E00E948D33D1
:101520009B01AC01C701B6010E94A6346B017C018E
:10153000BE0180E090E00E948B339B01AC01C701AB
:10154000B6010E9425322AE037ED43E25CE30E94B7
:10155000A634AB01BC01212F87E693E09EDFCDB717
:10156000DEB7E8E00C9463367F936F935F934F93FD
:10157000209108011F922F93209107011F922F9312
:101580009F938F938CE894E09F938F930E94AF2E4C
:101590008DB79EB70C960FB6F8949EBF0FBE8DBF49
:1015A0000895EEE8F5E023812F9322812F93218186
:1015B0002F9320812F931F926F93EAE8F5E0238108
:1015C0002F9322812F9321812F9320812F939F93FB
:1015D0008F938CE894E09F938F930E94AF2E8DB7EA
:1015E0009EB70E960FB6F8949EBF0FBE8DBF08959E
:1015F000EF92FF920F931F93CF93DF93EB018A013A
:101600007C01060F171FC017D10741F0F701619148
:101610007F01CE010E9476352196F5CFCDB7DEB79A
:10162000E6E00C9465360E94243220EC3BE649ED5E
:1016300057E40C94A634CF92DF92EF92FF92CF93AF
:10164000C42F6B017C01E894F7F8C701B6010E9432
:101650005A33882777FD8095982F0E948D339B0100
:10166000AC01C701B6010E9424329B01AC01CC231E
:1016700029F060E070E583EC97E404C060E074E278
:1016800084E799E40E94A6340E945A33CF91FF90D8
:10169000EF90DF90CF9008958091F604882319F0A1
:1016A0008091750511CE089580915A0590915B0542
:1016B0008F739927029730F461E176E08CE894E02B
:1016C0000C94382D0895CF93C42F28EE33E040E0DA
:1016D00050E00E94EA356C2FC90168DECF91089571
:1016E0007F936F939F938F938DE693E09F938F9358
:1016F0008CE894E09F938F930E94AF2E8DB79EB796
:1017000008960FB6F8949EBF0FBE8DBF08950F9335
:101710001F93CF93DF930BEC15E0C1E0D0E0F8010D
:10172000619171918F01CE01DBDF2196C930D10526
:10173000B1F7DF91CF911F910F910895A2E0B0E032
:10174000E4EAFBE00C9446368C01F801B490319643
:10175000E590F490E114F10441F1809151056B2D75
:101760006F7770E0660F771FF0E88F9F600D711D37
:10177000112442E050E0CE01019682DDC980DA807A
:10178000C6019CDDD7FC09C0C7FC09C0F80133962F
:101790008491882321F067DC02C0B7FE03C0C60134
:1017A000F70109950C5F1F4FD0CF2296E9E00C940A
:1017B0006236CF93C82F60916E0370916F03809152
:1017C0007003909171030E945A33615071096F3018
:1017D000774278F4C7FD02C086E145DC40916E0394
:1017E00050916F03609170037091710385E593E0F0
:1017F0002EDECF910895262F30E0F901E653FB4FFE
:1018000087FD0BC091E09083F901EA53FB4F86FB03
:10181000882780F98083862F6ACD1082089563E03F
:10182000892FE9CF62E0892FE6CF61E0892FE3CFEE
:1018300060E0892FE0CF0F931F93CF93DF93209128
:101840000E05222309F44DC040910C0550910D0561
:1018500020915A0530915B054217530709F441C0A6
:101860002AE130910B05231B27FD0BC02695692F1C
:10187000820FD2DB6EE075E08CE894E00E94382D98
:1018800032C096FD1CC0219530E0809152059091A8
:101890000A05891B90E0B901660F771F0E94D735B2
:1018A0004091040541110DC0009729F021503109E4
:1018B0008217930731F421E02093040502C080E0F1
:1018C00090E0EC01C25FDA4F8E01065E1F4F8991F6
:1018D000811102C0F7DC07C0C6DBC017D107B9F71A
:1018E000F9CF10920E05DF91CF911F910F910895BE
:1018F00096FB442740F96091A7057091A805809157
:10190000A9059091AA05DFCECF93C92F6091430519
:101910007091440587E493E038DD80910E0680FDE8
:1019200004C0C6FF02C085E29EDBCF9108951F93DD
:10193000CF93DF93192F90918805923019F020F4FE
:10194000CAE203C0CFE101C0CFE0D82FD095DD1FA0
:10195000DD27DD1F11F016FF0DC06091890570E0D5
:1019600084EE91E012DDDD2341F016FF06C08C2FDE
:101970007ADB03C08C2F77DBF0CFDF91CF911F9103
:101980000895CF92DF92EF92FF9296FF23C081E0FD
:101990008093FB0429E838E848E85CE36091F605A9
:1019A0007091F7058091F8059091F9050E94A63491
:1019B0006B017C010E945A33675F7F4F6331710571
:1019C00018F480ED92E002C088EC92E0B701A60125
:1019D0003EDD13C01092FB04E091C905F091CA05E9
:1019E000729624914091F6055091F7056091F805A3
:1019F0007091F90582EC92E050DDFF90EF90DF905E
:101A0000CF900895CF92DF92EF92FF921F93CF93E2
:101A1000DF93D82FC92F8091BC058F55863010F4E5
:101A200014E601C01FEF6091C20570E080E090E015
:101A30000E948B336B017C01612F70E080E090E0AD
:101A40000E948D339B01AC01C701B6010E94F232A6
:101A500020E030E048EC52E40E94A6346B017C01A7
:101A6000C074D7FD41C088E8FEDA2AE037ED43E2D2
:101A700050E4C701B6010E94A6340E945F339B0167
:101A80006138710548F029E8209307019B0120582F
:101A90003109E8E0F1E012C08DE8809308012231BD
:101AA000310550F48091F404882331F080E2809372
:101AB0000701809308010AC0E7E0F1E0C9016AE18B
:101AC00070E00E94C3358DE8861B8083CC2329F00B
:101AD000B701A60181E292E005C040E050E0BA0102
:101AE00085E192E041DD0DC0CC2329F0AB01BC01C2
:101AF0008DE092E005C040E050E0BA0186E092E05F
:101B0000A6DCDF91CF911F91FF90EF90DF90CF90F7
:101B10000895FF920F931F93CF93DF93D92F182F20
:101B20001095111F1127111F51F096FD08C095FF48
:101B300039C064E772E08CE894E00E948B2E83EC5D
:101B400092DA2091690530916A0548E1429FC0010F
:101B5000439F900D11240C9668E671E00E94D735E2
:101B600064507109C62F77FF02C0C8E1C60FD5FBCC
:101B7000FF24F0F8D5FF02C00AE001C009E0EC2F15
:101B8000F0E0E15BFD4F84916EDACF5FC83108F081
:101B9000C0E00150A1F787E866DA1123D1F0D6FD45
:101BA00004C017C067E672E0C6CFFF2079F068E492
:101BB00072E08CE894E00E948B2E8CE73EDA60E4C1
:101BC00072E08CE894E00E948B2E03C063E372E025
:101BD000F8CFCDB7DEB7E5E00C946636A0E0B0E014
:101BE000E4EFFDE00C94473640918E0550918F054F
:101BF0006091900570919105452B462B472B69F418
:101C000040918A0550918B0560918C0570918D05EE
:101C1000452B462B472B09F479C094FF02C010E2F4
:101C200001C01CE796FB002700F9E82FE095EE1FA6
:101C3000EE27EE1FEE0FE02B8091F404882311F1C4
:101C400080910005853058F06FEF71E08CE894E0EA
:101C50000E948B2E812F07DA68EF71E00EC0809111
:101C60000105853078F061EF71E08CE894E00E9426
:101C70008B2E812FF8D968EE71E08CE894E00E94F9
:101C80008B2E44C0FF27E7FDF095EE0FFF1F95FF59
:101C900037C0E954F84FC591D49160918E05709189
:101CA0008F058091900590919105402FC4DCF62E10
:101CB000E72ED82EC92E60918A0570918B058091F0
:101CC0008C0590918D05402FB6DCCF92DF92EF927C
:101CD000FF921F921F939F938F937F936F93DF9336
:101CE000CF938CE894E09F938F930E94AF2E8DB793
:101CF0009EB70E960FB6F8949EBF0FBE8DBF06C05E
:101D0000E155F84F85919491612F4BDCCDB7DEB74B
:101D1000E8E00C946336ADE0B0E0E1E9FEE00C945D
:101D20003D36782E688780911403803489F4C09002
:101D30003606D0903706E0903806F090390680904D
:101D4000320690903306A0903406B090350610C04D
:101D5000C0903E06D0903F06E0904006F0904106CD
:101D600080903A0690903B06A0903C06B0903D06CD
:101D700060916D0570916E05882777FD8095982F8D
:101D80000E948D339B01AC01C501B4010E94A634B1
:101D90004B015C018091E00480FF04C0B7FAB0946D
:101DA000B7F8B094C501B4010E945A33AB016A354B
:101DB000710538F09B012D543F4F2935310580F4D2
:101DC000A9014734510590F54A31510518F54A30BB
:101DD000510530F529E02C875DEC652E16EC30C0FE
:101DE0006B3571051CF0AB01435B5109CA0157FF0C
:101DF00003C091958195910987349105B8F48A3192
:101E00009105C8F40A9730F338E03C8745EF642E1B
:101E100012EE16C087E08C8738EF632E19ED10C0E4
:101E200098E09C8723EF622E10ED0AC01C869DEC83
:101E3000692E11EC05C0E7E0EC878BEF682E1BEEF6
:101E400027EA32E94BE25CEBC701B6010E94A634F7
:101E50006C837D838E839F8325E33AEF4EE85CE3BA
:101E6000C501B4010E94A6344B015C010CE0202E98
:101E7000312C00E07A947B822C85332727FD309526
:101E80003A8729873AEF360D3B87C02EDD24C7FC01
:101E9000D09480916B0590916C058C0D9D1DBC01BB
:101EA000882777FD8095982F0E948D332C813D8166
:101EB0004E815F810E94A6340E944E3520E030E0C2
:101EC00044EB52E40E94A6342B013C0120E030E0B8
:101ED000A9010E949B3420E030E040E05FE387FDF1
:101EE0000BC0C301B2010E9425320E945A337B010C
:101EF000EDE2EE0EF11C0AC0C301B2010E942432D1
:101F00000E945A337B01FDE2EF0EF11C2DE02219F5
:101F10002D87882799278C199D099A838983FD85A8
:101F20008F2F90E0281639060CF475C0C501B40156
:101F30000E944E352B013C019D85ECE09E9F602D5B
:101F400011246E54772767FD7095872F972F0E9475
:101F50008D339B01AC01C301B2010E94A6340E94E3
:101F60005A33F701E60FF71FCF0101978A35910524
:101F700008F04DC062E170E00E94D735662E2C85D6
:101F8000222391F03EEE3603A001379F500D11241D
:101F90004E0F5F1F4F5F5F4F57FF02C04F5F5F4F96
:101FA00055954795742E01C0712C5884561A64E0DB
:101FB000650D8B819D85890F2FD8002389F0ED85D4
:101FC000E53071F4B601D7FE02C069817A814AE03A
:101FD00050E08CE894E00E94B02DF6E0FD8703C04D
:101FE000872D810F40D8772091F0872D90E02985AB
:101FF0003A85821793075CF034E0631641F04B8515
:10200000470D63E0650D8B819D85890F3AD8ED857D
:10201000EF5FED8784CFF7FE0AC0025E82E0281AE8
:10202000310894E02916310409F02FCF06C02BE5C2
:10203000E216F10414F00E51F1CF2D96E2E10C946A
:10204000593666E089E067CEAB01BC01E091C90575
:10205000F091CA05399624918BE992E01ECA1F922D
:102060000F920FB60F9211242F938F939F93EF939C
:10207000FF939091C6008091DB068F5F8F77209150
:10208000DC06821741F0E091DB06F0E0E75AF94FF9
:1020900090838093DB06FF91EF919F918F912F9119
:1020A0000F900FBE0F901F9018951F920F920FB6B2
:1020B0000F9211248F939F93EF93FF939091DA06E1
:1020C0008091D906981779F0E091DA06F0E0EB5AA2
:1020D000F94F80818093C6008091DA068F5F83700C
:1020E0008093DA0605C08091C1008F7D8093C10086
:1020F000FF91EF919F918F910F900FBE0F901F90C6
:102100001895EAE7F0E080818B7F8083808186608C
:102110008083089595FB222720F994FF02C092E066
:1021200001C090E0292B86FF02C084E001C080E05E
:10213000822B08951F93CF93DF93182FEBDF8C5FD3
:10214000C82FD0E017FD06C0BE016F5F7F4F8BEA3E
:1021500093E01BD9FE01EE0FFF1FE553FA4F60819C
:10216000718187EA93E011D9DF91CF911F91089592
:102170001F93CF93DF93182FD92FCCDFC4E0C80F64
:1021800017FD07C06C2F70E06F5F7F4F84EA93E00C
:10219000FCD8D6FB662760F98C2F0E94C208D82F86
:1021A000C0E0CD1711F080E801C081E80E9433083B
:1021B000CF5FC530B1F7DF91CF911F9108951F9385
:1021C000CF93DF93182FD92FA5DFC4E0C80F17FDD9
:1021D00007C06C2F70E06F5F7F4F8FE993E0D5D819
:1021E000D6FB662760F98C2F0E94C208182FC0E02A
:1021F000D3E0CE010E946E358F3F71F0811103C094
:10220000112351F01150111102C00E943308219680
:10221000C03883E0D80769F7DF91CF911F91089507
:1022200096FB222720F930E095FF03C082E090E082
:1022300002C080E090E0822B932B019783309105C0
:1022400040F4FC01EE0FFF1FE45EFE4F80819181A0
:10225000089580E090E008950F931F93CF93DF934C
:10226000EC018B010E94932B600F711F811D911D4A
:10227000688379838A839B83DF91CF911F910F912C
:1022800008959B01FC014081518162817381420F5D
:10229000531F611D711D40835183628373830895B1
:1022A000E091C905F091CA053496659175918591C3
:1022B00094910895CF92DF92EF92FF92CF93DF93A4
:1022C0006B017C01EDDFA70196010E94A6346B0132
:1022D0007C010E945A33C091C905D091CA05FE0104
:1022E000603177423CF439962491B701A60187E822
:1022F00093E024C070966591749180E090E00E9414
:102300008B339B01AC01C701B6010E94F2326B0115
:102310007C010E945A336A30710534F064367105CD
:1023200034F48BE793E005C081E893E002C085E7D1
:1023300093E0FE013F962491B701A601AED8DF914C
:10234000CF91FF90EF90DF90CF9008956091F205CC
:102350007091F3058091F4059091F505ABCF8091D4
:10236000F604882359F06091760570917705809185
:102370007805909179050E948D339CCF0895CF9276
:10238000DF92EF92FF926B017C018ADFA701960139
:102390000E94A63459DEFF90EF90DF90CF90089511
:1023A000609165057091660580916705909168055B
:1023B000E6CFE091C905F091CA05659175918591C7
:1023C00094910895CF92DF92EF92FF928091EE0464
:1023D000882309F4E0C01092EE04C0906105D0900B
:1023E0006205E0906305F0906405E3DFA7019601C4
:1023F0000E94A6340E945A338091C7059091C80567
:102400002091FA04222351F031E020E04091880528
:10241000423008F030E0E32EF22E02C0E12CF12C25
:102420004091040641110CC02091080630E062176B
:10243000730734F42091F30420FF02C06894E1F89C
:1024400020910706222331F030E02617370714F4D5
:102450006894E2F8F091C205E091BC05209109066C
:10246000222359F064E670E00E94C33561157105BE
:1024700021F030E062177307ECF020910F06222361
:10248000D9F034E6F39FC00111243E2FE7FF02C0CC
:1024900031E03E0F3595830F911D37FD9A956E2FD4
:1024A000772767FD70950E94D735822F90E06817D7
:1024B000790714F46894E3F880910E0680FD0CC04F
:1024C0008091100690E02091430530914405281733
:1024D000390710F46894E4F88091F6059091F705B7
:1024E000A091F805B091F9054130A9F4D090080603
:1024F000DD2089F0BC01CD019F770E945A33CB01CA
:102500006AE070E00E94D7358D2D90E0861797071E
:1025100014F46894E5F88091C5059091C605209162
:102520004206222379F064E670E00E94C33561150B
:10253000710541F0822F90E0681779071CF46894C8
:10254000E6F803C0E114F10421F150916D0381E03C
:102550005111850F80936D0340916D032FEF240F70
:1025600081E090E002C0880F991F2A95E2F74B3076
:1025700018F041E081E090E09C012E213F21232BC7
:1025800021F4880F991F4F5FF2CF40936D034513DD
:1025900002C010926D03E0916D03EE2359F0F0E05C
:1025A000EE0FFF1FEF5CF74F659174918CE894E09C
:1025B0000E948B2EFF90EF90DF90CF900895A0E0C7
:1025C000B0E0E5EEF2E10C944836EC01FE01059135
:1025D00014910115110509F468C0FE013296849129
:1025E00081110E943308FE01339684913196E59063
:1025F000F4908936D1F068F4813681F0883609F09C
:102600003AC0E091C905F091CA053996D49048DEE8
:102610003BC08337B1F08637E1F02DC051E4D52EB1
:102620006AE077ED83E29CE32FC0F701608171815E
:10263000882777FD8095982F0E948D3340E2D42E15
:102640002AC0E091C905F091CA053896D490B1DE50
:102650001BC026DE2091FB04211114C0E091C905A6
:10266000F091CA057296D49020E030E040E752E441
:102670000E94A63409C030E2D32E60E070E080E80A
:102680009FE302C028E1D22EF701208131814281EF
:1026900053810E94A6342D2DAB01BC01C8010E94BC
:1026A0004D0A0E946009279691CFCDB7DEB7E7E0CB
:1026B0000C9464368FE093E082CFCF93DF93D82FD2
:1026C000C92F48E0692F0E9441086091A7057091C9
:1026D000A8058091A9059091AA0540E00E94630B8E
:1026E00085E791E06CDFC6FF05C06C2F8AE08D0F97
:1026F0000E940C086CE78EEC97E00E94D10ADF91F3
:10270000CF910895CF92DF92EF92FF921F93CF93D4
:10271000DF93EC016A017B01122F4BDEA7019601CA
:102720000E94A634112341F024EE38E34EE85EE324
:102730000E94A63428E106C0E091C905F091CA05BF
:1027400038962491AB01BC01CE010E944D0ADF9165
:10275000CF911F91FF90EF90DF90CF90089596FB5F
:10276000222720F94091610550916205609163052F
:102770007091640586EB92E0C5CF96FB222720F985
:1027800040915D0550915E0560915F057091600517
:1027900086EB92E0B7CF2FE632E143E85AE30C94A0
:1027A000A634CF92DF92EF92FF92CF93DF93C09146
:1027B0007203D091730374DD6B017C018AEF8C9FEF
:1027C000B0018D9F700D1124882777FD8095982F7B
:1027D0000E948D339B01AC01C701B6010E94A63453
:1027E000E091C905F091CA05A8974CF03F96C491B5
:1027F000D2DFAB01BC012C2F83E993E006C03996F0
:102800002491AB01BC018DE893E00E944D0ADF9159
:10281000CF91FF90EF90DF90CF9008954091920577
:1028200050919305609194057091950596FF0CC0A9
:102830008091820590918305A0918405B0918505D2
:10284000481B590B6A0B7B0BCB01BA010E948D33DD
:10285000A2DF95CDBC0180E090E00E948B339BDF2E
:10286000AB01BC018DED91E00C94270A20915A0533
:1028700030915B05260F311D30930D0520930C051B
:1028800080930B058091520580930A05089597FF68
:1028900003C088599E4F0895893621E0920714F0AD
:1028A000885691400895CF93DF93EC010E94932BBB
:1028B00028813981CB01821B930BDF91CF91089541
:1028C00020910C0630910D06815018F4822F8F70E4
:1028D000089564E0369527956A95E1F7F5CFA2E073
:1028E000B0E0E5E7F4E10C944D3681E08093E80434
:1028F00088E0EDEBF4E0DF011D928A95E9F7609145
:102900005105B0E86B9FB001112442E050E0CE01C8
:1029100001960E94400999818A819093E0048093F6
:10292000E1042296E2E00C94693674E0880F991F66
:102930007A95E1F78C549F4F68E671E00E94D73595
:10294000CB0101960895CF92DF92EF92FF920F9301
:102950001F93CF938091B7058A3009F04CC0009146
:10296000DB051091DC05083E83E018073CF40931D3
:102970008CEF18072CF409E11CEF02C007EE13E0FE
:10298000E091C905F091CA053996C4916091E905B5
:1029900070E086E992E00E94C50982DC2C2F40E0BD
:1029A00050E0BA0180E992E00E944D0A0E9460095D
:1029B0008091EA059091EB056ADF209169053091DD
:1029C0006A05821B930BB1DF0E94640969DC6B010D
:1029D0007C01B801882777FD8095982F0E948D3360
:1029E000A70196010E94A634AB01BC012C2F87E8F9
:1029F00092E00E944D0ACF911F910F91FF90EF90AE
:102A0000DF90CF9008958091690590916A05919526
:102A1000819591093CDF845B9109909387058093B0
:102A2000860583DF885F0E94640960918605709146
:102A300087058EE292E00C94C509CF92DF92EF9267
:102A4000FF92CF93DF93EC016A017B019A01AB0106
:102A5000688179818A819B810E94EB3287FF04C063
:102A6000C882D982EA82FB82DF91CF91FF90EF90FA
:102A7000DF90CF900895A0E0B0E0E1E4F5E10C94A0
:102A80004336EC014A015B018901C880D980EA80A4
:102A9000FB8020E030E0A901C701B6010E94EB32C3
:102AA000882319F00115110529F488829982AA82D8
:102AB000BB821DC0A7019601C501B4010E9424324A
:102AC0004B015C01B801882777FD8095982F0E9403
:102AD0008D339B01AC01C501B4010E94F232A70104
:102AE00096010E942532688379838A839B83CDB7C0
:102AF000DEB7ECE00C945F368F929F92AF92BF925C
:102B0000CF92DF92EF92FF926091C3057091C4055E
:102B1000882777FD8095982F0E948D334B015C01AB
:102B2000C0905D05D0905E05E0905F05F090600577
:102B300040DCA70196010E94A6349B01AC01C501AF
:102B4000B4010E94F23220E030E040E251E40E9401
:102B5000A634AB01BC0124E630E08EE693E08BDFC7
:102B6000FF90EF90DF90CF90BF90AF909F908F90AD
:102B70000895CF92DF92EF92FF92CF93C82F96FFE6
:102B800012C020E030E0A90160915D0570915E0502
:102B900080915F05909160050E94EB32882309F4D3
:102BA000BAC0AADF20C0809104068111A5C020E030
:102BB00030E0A90160915D0570915E0580915F052F
:102BC000909160050E94EB32882309F4A4C094DF41
:102BD00090915C058091F204933048F0811103C01C
:102BE00081E08093F2048C2F0E94D90B94C088233B
:102BF000D1F010929A0510929B0510929C051092AC
:102C00009D054091F2055091F3056091F405709196
:102C1000F5054093640350936503609366037093D6
:102C200067031092F2042DEC3CEC4CE45DEB6091F8
:102C300096057091970580919805909199050E944D
:102C4000EB3287FF45C020916403309165034091CA
:102C50006603509167036091F2057091F3058091CE
:102C6000F4059091F5050E94243220E030E0A9019E
:102C70000E94A6346B017C0113DB9B01AC01C701F0
:102C8000B6010E94A6346B017C010E945A33603168
:102C900087E2780724F41616170644F03CC0C12CCE
:102CA000ECE3DE2EECE1EE2EE6E4FE2EC7FD03C0E3
:102CB0008EEE0E943308E091C905F091CA0539965D
:102CC0002491B701A60181E693E00E944D0A23C03A
:102CD00080916B0590916C0597FF1DC08091F40465
:102CE000811103C06CE573E002C06DE573E08CE810
:102CF00094E00E948B2E0FC08091EF04882359F03E
:102D0000C7FD03C087E10E9433088091B805909108
:102D1000B9050E94F909CF91FF90EF90DF90CF9015
:102D200008950F931F93CF93DF93092F80E090E0D6
:102D3000AEDDEC0124E630E040E050E0BA018AEF7D
:102D400095E099DE06FB112710F9212F40E050E0B5
:102D5000BA0186EB92E0D6DC0E9460098091690599
:102D600090916A059E01281B390BC901DEDD05FF24
:102D700002C098E001C090E0890F0E946409409170
:102D8000FA055091FB056091FC057091FD05212F1E
:102D90008CEB92E0B7DCDF91CF911F910F910895FA
:102DA000CF93DF933DDAEC016091C3057091C405C8
:102DB000882777FD8095982F0E948D33AB01BC0149
:102DC0009E0180E693E057DE2AE037ED43E25CE3C4
:102DD000609160037091610380916203909163033D
:102DE0000E94A634AB01BC0189EA92E00E94270A46
:102DF000DF91CF910895CF93DF9397FD20C021E01D
:102E0000209303050DDAEC016091C5057091C605AC
:102E100080E090E00E948B33AB01BC019E018CE509
:102E200093E029DE60915C0370915D0380915E0305
:102E300090915F030E945F33CB010CDD08C081E0FD
:102E400090914206911101C080E080930305DF91CB
:102E5000CF910895CF93DF93E3D9EC016091C7053B
:102E60007091C80580E090E00E948B33AB01BC01FB
:102E70009E0188E593E0FFDD60915803709159034E
:102E800080915A0390915B030E945F33CB01E2DC97
:102E9000DF91CF9108952AE030E0EDCDCF93DF931D
:102EA000EC019A01AB01688179818A819B810E9442
:102EB0002532688379838A839B83DF91CF9108953C
:102EC000A8E0B0E0E6E6F7E10C943D3683EA95E051
:102ED000EADC1C0160E070E083EA95E0BDD9B10155
:102EE00080E090E00E948B3356DC6A837B838C8386
:102EF0009D836091C3057091C405882777FD8095F7
:102F0000982F0E948D336B017C016091C7057091F1
:102F1000C80580E090E00E948B33A70196010E94D3
:102F2000A6342CEA35EC47E257E30E94A634AB0105
:102F3000BC018DEB95E0AFDF8090960590909705F2
:102F4000A0909805B0909905ABD92B013C0120E0E9
:102F500030E040E752E4C501B4010E94A634A30169
:102F600092010E94A634AB01BC0186EF95E093DF8D
:102F70004091C2052091BC05332727FD3095842F51
:102F800090E02817390714F44093BC0520910406FB
:102F90002E83809145059091460520910E0620FDD7
:102FA00070C0009148061091490640914A06509120
:102FB0004B0658874F834017510744F03F812885BF
:102FC00018870F83032F122F198202C051E05983F3
:102FD0003F812885EF81F885E817F90714F4382F29
:102FE000292F632F722F061717070CF4B8018827B3
:102FF00077FD8095982F0E948D332B013C012F8106
:103000003885B901882777FD8095982F0E948D33E8
:103010009B01AC01C301B2010E9424322B013C018F
:10302000B8014F815885641B750B882777FD809503
:10303000982F0E948D339B01AC01C301B2010E9405
:10304000F23220E030E048EC52E40E94A6340E94C4
:103050005A33653671052CF477FF05C060E070E0E7
:1030600002C064E670E05981552331F084E690E0B7
:10307000FC01E61BF70BBF01709344056093430509
:1030800004C09093440580934305FE81F11104C070
:103090008091F30480FD05C08091EF04882309F43A
:1030A0006CC0B10187EA95E0ECD88091F6048823E2
:1030B00099F020915D0530915E0540915F0550913A
:1030C00060056A817B818C819D810E94A634AB0161
:1030D000BC0182EF95E0E2DE6091760570917705A4
:1030E00080917805909179050E948D33AB01BC01E8
:1030F00080EB94E0A2DC4091610550916205609103
:103100006305709164058CEA94E097DC40915D055D
:1031100050915E0560915F057091600588EA94E0CA
:103120008CDC409165055091660560916705709152
:10313000680584EA94E081DC40E050E0BA0180EA6E
:1031400094E07BDC4091BD055091BE056091BF05C8
:103150007091C00580E994E070DCB701A6018CE9AC
:1031600094E06BDCB501A40188E994E066DCB5016C
:10317000A401705884E994E060DC2896E2E10C94A4
:103180005936CF93DF93EC01CB01BA010E948D3306
:1031900025E93FEB46ED53E30E94A634688379832B
:1031A0008A839B83DF91CF9108950E94932B609334
:1031B000540570935505809356059093570580915B
:1031C0005A0590915B05909359058093580581E0CD
:1031D0008093E8048093EA0408958AEA90E00C94CE
:1031E000E72B0E94392E811101C0F7CF08958091FD
:1031F000E904882321F09091E70481E0911180E0B7
:1032000008953091D8043323E1F0E0914506F0E0D1
:10321000EE0FFF1FED52FA4F80819181E091D604AD
:10322000F091D7042081232B20830E94E72BE0918B
:10323000D604F091D70490818091D8048095892399
:1032400080830895E0918304E827F0E0E254F74F8B
:10325000E491E0938304089520E030E048EC52E4E8
:103260000E94A6340E945F33CB01089520E030E035
:103270004AE754E40E94A6340C945F3380916905B8
:1032800090916A05880F991F8D966AE570E00E94FB
:10329000D73577FF03C0685F7F4FFBCF683071057C
:1032A0001CF068507109FACFFB01E055FC4F849186
:1032B000089587FD03C0E2DF0E943308609169052D
:1032C00070916A0582E892E00C94C509A3E0B0E031
:1032D000ECE6F9E10C943D36882EB92E992E96FD38
:1032E00010C033243394380C6B2D832D0E948B0E29
:1032F00026E0A22EA80C32E0232E2B0CB4FEDAC05E
:1033000019C015E082EB0E9433080DE0015019F05E
:103310000E946209FBCF133011F485EC01C083EBEE
:103320000E9433080E9460091150D9F2133051F7FE
:1033300086ECE9CF20917305309174053B832A8395
:103340000091710510917205C80117FF04C088270C
:103350009927801B910B6AEF70E00E94D735362FBA
:10336000272F8A819B8197FF03C0919581959109B1
:103370006AEF70E00E94D735CB01632F722F681778
:1033800079070CF4BC016F5F7F4F709373036093F8
:103390007203882777FD8095982F0E948D336B01EB
:1033A0007C01B801882777FD8095982F0E948D3386
:1033B0002B013C0124EE38E34EE552E4C701B6018F
:1033C0000E94A6349B01AC01C301B2010E94F232FB
:1033D0000E945A336983162F4A815B81BA0188277C
:1033E00077FD8095982F0E948D332B013C012DE6AF
:1033F0003BED4EE052E4C701B6010E94A6349B01AA
:10340000AC01C301B2010E94F23220E030E040E0A2
:103410005FE30E9425320E945A33F62E86FC0AC0D2
:103420002DDF622D5981651B482F8A2D8F0D0E943B
:10343000410840C090914905961304C080914A0507
:103440008117E9F080914D0590914E0590935005BC
:1034500080934F0520914B0530914C0530934E05DC
:1034600020934D052091490530914A0530934C0534
:1034700020934B05F0924905898180934A0500E528
:1034800015E09FE4C92E95E0D92EF8018081622DC8
:10349000681BF601808144E28A0D0E9441080250B7
:1034A0001109F2E0CF1AD10829E4C21625E0D206AC
:1034B00061F7B6CF87FC0AC0622D8A2D0E940C08E6
:1034C0006EEC71E08CE894E00E948B2EB5FEC2C0D9
:1034D0008091EF04882309F4BDC080910406811116
:1034E00084C0609176057091770580917805909100
:1034F00079050E948D339B01AC0160E070E0CB0147
:103500000E94983221EE3EE245E652E40E94A63443
:103510000E945A336A5071092DE2269FC001279FED
:10352000900D11246AE070E00E94D735CB014696D9
:1035300069E070E00E94D735663078F410ED181B12
:103540000B2D060F412F602F8CE0880D0E94410843
:10355000412F602F832D0E9441088091750590E0D6
:103560002091090130910A01821B930B90D9853B70
:10357000910534F028E631E0A901481B590BCA0136
:103580009C01245B310948E4429FC001439F900D98
:1035900011246AE070E00E94D735CB01849666E082
:1035A00070E00E94D735962F64E06B0D97FF06C040
:1035B0004CE3832D0E9441084CE314C09D3054F02D
:1035C0001CE0180D4EE3812F0E9441084EE36B2D45
:1035D000812F3EC01FEB180F390E412F832D0E9403
:1035E0004108412F6B2D832D33C0C0906505D090CD
:1035F0006605E0906705F09068050E945011A701EC
:1036000096010E94A63420E030E040EA50E40E9497
:1036100025322DEC3CEC4CE850E40E94A6340E948C
:103620005A33862F9FEF960F9B3240F469E00E9439
:10363000B6354FEC491B9B2C980E08C06C322CF011
:1036400084E0982E9B0C4EE201C04FEC692D8A2D30
:103650000E9441082396E2E10C945936ADE0B0E0B7
:10366000E4E3FBE10C943D366B017C010E94820790
:10367000809104061091EF04811120C0112321F1E3
:103680008091F30480FF20C060915D0570915E051C
:1036900080915F05909160050E945A3362307105F8
:1036A00024F480915C05823078F0C092DD05D092E0
:1036B000DE05E092DF05F092E00506C0111104C0BE
:1036C0008091F0048111F1CF1093F00480914706AE
:1036D000853018F084E08093470684E595E0E3D8D0
:1036E000853C994080F110925D0510925E05109224
:1036F0005F051092600563E085E00E940C08609110
:103700005A0570915B058091580590915905681B89
:10371000790B8BEB91E00E94C50940910505509112
:103720000605609107057091080541155105610571
:10373000710531F02AE030E08CE894E00E94B72D6A
:1037400083E095E432C08091010680FF35C080910E
:10375000EF0481112DC08091DD059091DE05A091CF
:10376000DF05B091E005892B8A2B8B2B09F18DEDBC
:1037700095E099D8883B9B40D8F46091F205709110
:10378000F3058091F4059091F5050E945A33663057
:10379000710574F081E08093FD040E94EC08809133
:1037A00051058093C50481E091E00E945D13B0C291
:1037B0008091FD04811170C280914706882321F019
:1037C00090915105981718F488EB93E062C28091AC
:1037D000EF0481115CC21D821E821F821886E09058
:1037E000BC0485E0E89E70011124F701E459FB4F09
:1037F0007F01859194919093BB048093BA04F70163
:103800003296249129870E94EC08C12CD12C812C5E
:10381000712C212C312C412C912C512C99858916FD
:1038200009F4B9C066246394680C0091BA0410913D
:10383000BB040C0D1D1DF801A590B490662D81E010
:103840000E940C08B5018CE894E00E948B2E662D36
:1038500083E10E940C0880910501881206C08EE366
:103860000E9433085090160302C00E946209F801BA
:10387000329684913196B490833609F43FC040F477
:103880008A3509F439C0823671F1811168C07EC071
:103890008836D9F088F4863609F061C0F80134968C
:1038A000A591B4918D919D910D90BC91A02D8D838A
:1038B0009E83AF83B88753C0833709F446C08A37E5
:1038C00009F04DC040E1942E19C08091140380345A
:1038D00019F464E571E002C06CE471E08CE894E0F6
:1038E0000E948B2E53C0F8013496A591B4916C912F
:1038F00070E080E090E010C050E2952EF801349620
:10390000A591B4916C91772767FD7095691971093C
:10391000882777FD8095982F0E948D336A877B8753
:103920008C879D876B2D70E080E090E00E948B3348
:103930009B01AC016A857B858C859D850E94F23256
:103940006D837E838F8398870AC0F80134966591D2
:10395000749144E050E0CE0105960E9440098091A8
:103960000501BD81AE813F812885881204C07B2E70
:103970002A2E332E422E085F1F4FF8018591949115
:103980004B2F5A2F632F722F0E94270A8EE0C80EEA
:10399000D11C862C43CFE3E0EE0EF11CF70185919C
:1039A0009491009711F0FC0109958091F704882308
:1039B00009F4AEC11092F70411E01093E80481E01D
:1039C0000E9401098739910514F081E004C08A360C
:1039D0009F4F24F48FEF0E9411099AC183E00E9447
:1039E0000109873991055CF0109305018091BC04B1
:1039F000823019F41092BC048BC18F5F0CC08A36E0
:103A00009F4F64F4109305018091BC04811102C0A2
:103A100082E001C081508093BC047AC160910501AD
:103A20006F5F852D0E940C0880910501E090BA041B
:103A3000F090BB049EE0899FE00CF11C112480E013
:103A40000E9401098C0197FF06C01195019511098B
:103A50008824839401C0812CF7013496C590D490BA
:103A6000F7013296549031966490872D922DA32DB4
:103A7000B42D8D839E83AF83B887E3E6E51538F0D8
:103A8000F2E65F1670F42AE5521248C00AC083E7D6
:103A9000581671F19AE7591621F0E6E65E123EC01B
:103AA00027C00D32F1E01F078CF0662D70E080E03A
:103AB00090E00E948B339B01AC0160E070E080E2FB
:103AC00091E40E94F23221E029874AC007391105AA
:103AD0004CF1662D70E080E090E00E948B339B01FA
:103AE000AC0160E070E080E89FE30E94F2321DC00C
:103AF0000139F1E01F0774F50D3221E01207C4F41B
:103B0000093C1105E4F484E08987053611050CF4BD
:103B100063C06FE672E183E89AE322C060E070E080
:103B2000CB0113C060E070E0CB01E1E0E9870DC09C
:103B30006DEC7CEC8CEC9DE3F4E0F98706C06AE068
:103B400077ED83E29CE324E02987053611050CF428
:103B500043C006C060E070E080E89FE3F4E0F987CE
:103B600081109058AB01BC01CE01059697D9F701A1
:103B70003A9665917491F7013C96059114918827C6
:103B800077FD8095982F0E948D334B015C019B013E
:103B9000AC016D817E818F8198850E94EB3287FF19
:103BA00004C08D829E82AF82B886B801882777FDD7
:103BB0008095982F0E948D334B015C019B01AC01D5
:103BC0006D817E818F8198850E949B34181624F424
:103BD0008D829E82AF82B8868D809E80AF80B884B1
:103BE000272D322D432D542DC501B4010E94EB32F7
:103BF000882309F48DC0662D70E080E090E00E947B
:103C00008D33A50194010E94A6340E945A3393E695
:103C10005916D9F0951538F0EAE55E1699F0F2E6F6
:103C20005F1699F01FC023E7521691F08AE75816E5
:103C300059F096E6591216C0F60180829182A2824E
:103C4000B38210C0605E01C0605FF60160830AC08D
:103C500089829A82AB82BC8244E050E0B601CE01F8
:103C6000019607C0F9854F2F50E0B60160507440AF
:103C7000C6010E94F80A26E0E20EF11CF7018591C8
:103C80009491009709F444C0FC01099541C084E671
:103C900094E00E949E0B3CC08091C5049091510518
:103CA000891721F0809351051092FD0482E00E9453
:103CB0000109AA2797FDA095BA2FB7FF07C0B095B5
:103CC000A095909581959F4FAF4FBF4F8D329140FA
:103CD000A105B105D4F483E00E940109AA2797FD4C
:103CE000A095BA2FB7FF07C0B095A0959095819584
:103CF0009F4FAF4FBF4F8D329140A105B1052CF4BE
:103D00008091EF04882309F44ECD1092FD044BCD31
:103D10002D96E2E10C9459361F920F920FB60F9236
:103D200011242F933F934F935F936F937F938F93C0
:103D30009F93AF93BF93CF93EF93FF931092E704BA
:103D40008091E6048F5F8093E6040E94932B60933A
:103D5000E2047093E3048093E4049093E50480917B
:103D60006C03811118C0CFB780910905882379F0C1
:103D700080916C038F5F80936C0378940E94480855
:103D80001092090580916C03815080936C037894A4
:103D900080E037DACFBFFF91EF91CF91BF91AF9124
:103DA0009F918F917F916F915F914F913F912F9153
:103DB0000F900FBE0F901F901895CF92DF92EF9249
:103DC000FF920E949F2B6B017C0183E00E946C2C70
:103DD000813049F4C092D904D092DA04E092DB0435
:103DE000F092DC041FC08091D9049091DA04A09174
:103DF000DB04B091DC040097A105B10599F0C81A65
:103E0000D90AEA0AFB0AD092DE04C092DD041092BD
:103E1000D9041092DA041092DB041092DC0481E0E1
:103E20008093DF04FF90EF90DF90CF90089566E9D4
:103E300070E080E090E00C94C22B1F920F920FB6BE
:103E40000F9211242F933F934F935F936F937F9320
:103E50008F939F93AF93BF93EF93FF93AEDFFF9149
:103E6000EF91BF91AF919F918F917F916F915F91F2
:103E70004F913F912F910F900FBE0F901F9018956B
:103E800065E085E00E940C0866E773E085E291E05A
:103E90000E94C5090E94932B4AE050E08CE894E010
:103EA0000E94C42D80911A068F3421F480911B0644
:103EB0008A3171F061E081E00E940C0860911A067D
:103EC00070E088E091E00E94C50981E080930205DE
:103ED000AEDF0C944808CF9388E10FB6F894809336
:103EE0006000109260000FBE60E071EE80E090E034
:103EF0000E94F92D4CE450E060E072E080E096E032
:103F00000E9440098091000681FF03C08EEB99E07A
:103F100002C081ED99E09093CA058093C90584B5EC
:103F20008C7F84BD83E00E94DF2C0E9481108091F1
:103F300069008C7F826080936900E89A8091050611
:103F4000813059F462E083E00E94152C8091690071
:103F5000837F846080936900E99A5E9A0E94480892
:103F6000789480911C06883341F480911D06883333
:103F700021F480911E06863381F088E380931C062D
:103F800080931D0686E380931E0643E050E06CE1BB
:103F900072E08CE196E00E94F80A80914506882341
:103FA00041F1E0914606EE2321F1F0E0ED5FFE4F96
:103FB000C49161E08C2F0E94152C60E08C2F0E9430
:103FC0004E2C8C2F90E0FC01E45FF54F2491FC0116
:103FD000E850F64F84918093D804E22FF0E0EE0F82
:103FE000FF1FE65DF54F859194919093D7048093E0
:103FF000D6040E94F30744DF0E946F14CF91089506
:10400000E0910301EF5FE0930301E770F0E0EE0F52
:10401000FF1FE85BFC4F9183808328E060E070E045
:104020002150E22FF0E0EE0FFF1FE85BFC4F808194
:104030009181680F791F2111F3CF80E090E00E94F9
:104040008B3320E030E040E05EE30C94A63497FD33
:1040500005C08F3F910509F01CF4089580E0089594
:104060008FEF0895CF92DF92EF92FF92CF93DF937D
:104070008091000684FD05C08091CA04882309F45C
:10408000A0C0C0910201CF5FC093020180E10E94F5
:10409000E22CC770EC2FF0E0EE0FFF1FE85CFC4F46
:1040A0009183808328E0C0E0D0E02150E22FF0E04F
:1040B000EE0FFF1FE85CFC4F80819181C80FD91F74
:1040C0002111F3CF2091CE043091CF0447E0429FDD
:1040D000C001439F900D11248C0F9D1F23E09695E6
:1040E00087952A95E1F79093CF048093CE04809131
:1040F000000684FF66C029E53EEE49E050E4609189
:1041000022067091230680912406909125060E9434
:10411000A6346B017C01BE0180E090E00E948B33ED
:104120009B01AC01C701B6010E94A6340E945F3317
:104130004091C7055091C8054115510529F4709368
:10414000C8056093C70511C09A01220F331F240FC1
:10415000351F2E5F3F4F260F371F36952795369513
:1041600027953093C8052093C70581E08093E80424
:1041700030910906832F61E20E94AA35E82F8091D1
:10418000C7059091C805C29664E670E00E94C335E9
:10419000432F50E0641B750B9B01AFEFB0E00E9412
:1041A0002E36FAE2EF9F90011124241B350B442791
:1041B00037FD4095542F0E940C36C90148DF80938B
:1041C000C2058091000685FF04C08091030581111E
:1041D00005C08091CB04882309F49DC0C0910101E2
:1041E000CF5FC09301018EE00E94E22CC770EC2FDC
:1041F000F0E0EE0FFF1FE85DFC4F9183808328E025
:10420000C0E0D0E02150E22FF0E0EE0FFF1FE85DAC
:10421000FC4F80819181C80FD91F2111F3CF2091CC
:10422000D0043091D10447E0429FC001439F900DDC
:1042300011248C0F9D1FA3E096958795AA95E1F711
:104240009093D1048093D0048091000685FF63C0D1
:1042500029EA3CEC48E050E460912606709127067C
:1042600080912806909129060E94A6346B017C015A
:10427000BE0180E090E00E948B339B01AC01C7013E
:10428000B6010E94A6340E945F334091C50550914B
:10429000C6054115510529F47093C6056093C505FF
:1042A00011C09A01220F331F240F351F2E5F3F4F7D
:1042B000260F371F36952795369527953093C605D7
:1042C0002093C50530914206832F61E20E94AA35F2
:1042D000E82F8091C5059091C605C29664E670E00E
:1042E0000E94C335432F50E0641B750B9B01AFEF59
:1042F000B0E00E942E36FAE2EF9F90011124241BB9
:10430000350B442737FD4095542F0E940C36C901C8
:104310009EDE8093C1058091000686FD05C08091D8
:10432000CC04882309F481C08091C804882351F00B
:1043300020E137E240E050E061E08FE00E94B32CE2
:10434000CB0103C08FE00E94E22CE0910001EF5FFF
:10435000E0930001E770F0E0EE0FFF1FE85EFC4F16
:104360009183808328E0C0E0D0E02150E22FF0E08C
:10437000EE0FFF1FE85EFC4F80819181C80FD91FAF
:104380002111F3CF2091D2043091D30447E0429F12
:10439000C001439F900D11248C0F9D1F23E0969523
:1043A00087952A95E1F79093D3048093D204809166
:1043B000000686FF3AC02DE032E348EC5CE36091F2
:1043C0002A0670912B0680912C0690912D060E9452
:1043D000A6346B017C01BE0180E090E00E948B332B
:1043E0009B01AC01C701B6010E94A6340E945F3355
:1043F0004091C3055091C4054115510529F47093AE
:10440000C4056093C30511C09A01220F331F240F06
:10441000351F2E5F3F4F260F371F36952795369550
:1044200027953093C4052093C30580910E06869589
:10443000813041F048F1823049F0833049F5809174
:10444000470524C081E10E94E22C09C020E23EE43D
:1044500040E050E061E081E10E94B32CCB01D0DD6F
:1044600020912E0630912F06409130065091310652
:104470000E94A6340E945F33709346056093450501
:1044800081E08093E80439C08091480590E004C041
:104490008091D9059091DA05B3DD0E945F33709366
:1044A0004605609345058091CD04882331F18091C4
:1044B000C904882349F020E137E240E050E061E0A0
:1044C00081E10E94B32C04C081E10E94E22CBC0176
:1044D0008091D4049091D50447E0489F9001499F72
:1044E000300D1124260F371FC3E036952795CA9546
:1044F000E1F73093D5042093D404DF91CF91FF905E
:10450000EF90DF90CF9008958CE894E00E944D07E3
:1045100088E894E00C94F12DA0E0B0E0E2E9F2E24A
:104520000C9446368C016CE388E894E00E947D2E62
:10453000EAEFF8E0E491780186EFE81A8EEFF80AE6
:10454000D701EC93F801D180DA94B02EC02FD12F8F
:1045500087018C2F8B198D1580F4C9906C2D88E8FC
:1045600094E00E947D2ED701EC91EC25F0E0E2541E
:10457000F74FE491D801EC93ECCFF701608188E824
:1045800094E00E947D2ECDB7DEB7E9E00C94623650
:10459000609379032AE030E030937B0320937A0321
:1045A00090E0A0E0B0E080937C0390937D03A09323
:1045B0007E03B0937F0389E793E0AECF82E28093DE
:1045C00079038FE290E090937B0380937A038AE0F3
:1045D0009CEDA1EDBAEC80937C0390937D03A093B6
:1045E0007E03B0937F03E4E8F3E0119283E0E93ABD
:1045F000F807D9F7809174038093A80389E793E0C3
:104600008BDF0E94932B60937503709376038093E6
:104610007703909378030895A0E0B0E0E2E1F3E23D
:104620000C944536AA24A39453E0B52ECAE0D0E0FA
:104630000E94392E882309F400C40E94482E182FA6
:1046400000918404402F50E04930510508F0C1C06A
:10465000FA01EC5CFF4F0C94283610937B032091F9
:104660007A0330917B03409186045091870424178C
:10467000350738F51C3311F001E0ABC0109283040C
:104680008CE30E942219D0938704C093860402E031
:10469000A0C00E942219812F887F803259F7109381
:1046A00079031092850403E094C00E94221980913E
:1046B00085048F5F80938504823078F610937A03A7
:1046C00088C041505F4F42175307A0F210928504F3
:1046D00004E07FC00E942219E0918504EF5FE0931F
:1046E0008504E13008F475C0E43048F0E43009F0A6
:1046F00070C010937F031092850405E06AC0F0E05B
:10470000E558FC4F108365C00E94221980918504F2
:104710008F5F80938504813019F0823021F059C079
:104720001093800356C01093810320917A03309137
:104730007B0380918604909187042817390741F004
:10474000009179030095001F0027001F0A5F01C038
:1047500008E0109285043DC00E94221980918504D2
:104760008F5F80938504813041F0823091F5109302
:1047700083031092850407E02CC01093820329C0A4
:104780000E942219E091850421E02E0F20938504D8
:10479000F0E0E758FC4F138730E080917A03909166
:1047A0007B034091860450918704841B950B281746
:1047B000390778F01092850408E00BC080918304DB
:1047C000181358CFA092840480917A03811104C0F9
:1047D00031C3009384042EC30E94D51880917C03BA
:1047E00090917D03A0917E03B0917F03863E26EADF
:1047F000920726E2A2072DE7B20709F401C208F0EA
:1048000082C08C3921EB920725EAA2072EE1B2077C
:1048100009F4E9C2E0F588392CE292072AE1A207FF
:1048200026E1B20709F44CC1C8F4843524E79207A5
:1048300025ECA2072BE0B20709F43EC284302AE936
:10484000920727EDA2072EE0B20709F42CC18631AA
:104850009A4AA743BB4009F0E1C225C184372BEE39
:1048600092072AE7A2072BE1B20709F41CC1823D97
:1048700022EC920722E8A2072EE1B20709F420C138
:104880008E3C9844A745BA4109F0C8C2B9C18A39DB
:104890002FE592072DE8A20723E4B20709F4A8C286
:1048A000C8F4823029E292072EE7A2072FE2B2076E
:1048B00009F4AAC0863E25ED92072AEDA20723E35C
:1048C000B20709F4B3C082359342A649B64209F053
:1048D000A5C204C2823E25E592072CE9A20726E67E
:1048E000B20709F47BC28A352BEB920727E3A207B4
:1048F00027E6B20709F488C0863A9E40A241B84430
:1049000009F08CC22DC280322EE4920729EAA20758
:1049100021EBB20709F462C2E0F582352AEE920774
:1049200020E8A2072AE8B20709F4BDC0C8F4803322
:1049300020E2920721E9A20724E8B20709F4FFC1A7
:10494000843E2CE2920725E0A20726E8B20709F48C
:10495000AAC080389C4DA544B24809F05FC2ACC1E2
:104960008E3722E192072AE6A2072BE9B20709F463
:104970009AC08A3726EF920721EFA2072DE9B207E6
:1049800009F43EC18A369E42A246B94909F046C2A0
:10499000E7C184352DE292072FEFA20725ECB2077D
:1049A00009F481C0C8F48A3B24E8920725E2A207F3
:1049B0002EEBB20709F412C2803824E7920720E1F7
:1049C000A20724ECB20709F4C9C08A38974FA74C54
:1049D000B84B09F023C274C0843629ED920720EE4B
:1049E000A20727EDB20711F1863B23E2920723EAE3
:1049F000A20722EEB20709F403C186399543A84005
:104A0000B24D09F46BC10AC28091A803823039F01B
:104A1000833049F0811102C2A092740302C0B092A7
:104A20007403CCDDFBC180937403F8C160919403DF
:104A30007091950380919603909197030E945A3349
:104A400070936E0560936D05609198037091990362
:104A500080919A0390919B030E945A3370936C0546
:104A600060936B0560919C0370919D0380919E0300
:104A700090919F030E945A337093700560936F0565
:104A8000C0908A05D0908B05E0908C05F0908D0544
:104A9000C114D104E104F10409F0C0C170936A05A6
:104AA00060936905BBC181E090918403911101C0BD
:104AB00080E08093EF04809185038093B705AEC1B9
:104AC00060918403709185038091860390918703A0
:104AD0000E942C19893C18F480935C0502C0109246
:104AE0005C0580919E0390919F039093D0058093E5
:104AF000CF058091A0039091A1039093CC05809362
:104B0000CB058091A2039091A3039093CE0580934F
:104B1000CD058091A4039091A5039093D205809335
:104B2000D1058091A6039091A7039093D40580931B
:104B3000D3058091A8039091A9039093D605809303
:104B4000D5058091AA039091AB039093D8058093EB
:104B5000D7058091AC039091AD034DC06091840363
:104B60007091850380918603909187030E942C1990
:104B7000893C18F480935C0502C010925C0580911A
:104B80009C0390919D039093D0058093CF058091D5
:104B90009E0390919F039093CC058093CB058091C9
:104BA000A0039091A1039093CE058093CD058091B1
:104BB000A2039091A3039093D2058093D105809195
:104BC000A4039091A5039093D4058093D30580917D
:104BD000A6039091A7039093D6058093D505809165
:104BE000A8039091A9039093D8058093D70580914D
:104BF000AA039091AB039093DA058093D9050EC177
:104C000040918403509185036091860370918703DE
:104C10008AE895E00E94C118409188035091890369
:104C200060918A0370918B038EE895E00E94C11811
:104C30008091A90380938905F090A803F0928805DC
:104C400060919403709195038091960390919703DE
:104C50000E945A3370936A056093690580919803A6
:104C600090919903A0919A03B0919B0380935D0565
:104C700090935E05A0935F05B0936005FF2049F017
:104C800060918C0370918D0380918E0390918F03BE
:104C900008C06091650570916605809167059091E7
:104CA00068050E943619609392057093930580936E
:104CB000940590939505B2C080918C0390918D03DB
:104CC000A0918E03B0918F03B05880939605909376
:104CD0009705A0939805B0939905A0C0F0900006A1
:104CE000F4FC0EC06091840370918503809186036B
:104CF000909187030E9436197093C8056093C70589
:104D0000F6FC0EC0609188037091890380918A033C
:104D100090918B030E942C199093C4058093C30536
:104D200060919C0370919D0380919E0390919F03DD
:104D30000E945A337093B9056093B8056FC0809193
:104D4000840390918503A0918603B091870380939B
:104D5000680390936903A0936A03B0936B035EC0EA
:104D600060918403709185038091860390918703FD
:104D70000E945A336B01EE24D7FCE094FE2CC7014D
:104D8000B6010E948D33609365057093660580932C
:104D900067059093680560918803709189038091FD
:104DA0008A0390918B030E942C199093BB058093EA
:104DB000BA058091920590919305A0919405B091C8
:104DC0009505892B8A2B8B2B49F5C0929205D092A1
:104DD0009305E0929405F092950520C08091E4033C
:104DE000809348051BC0809184038093E90516C019
:104DF00080919803882391F06091900370919103C2
:104E0000882777FD8095982F0E948D3360936105E8
:104E10007093620580936305909364058091790394
:104E2000823221F463E280917C03B2DB0E94F718A6
:104E3000811121C00E94F118FBCB75D461317742FA
:104E40008105910510F010927403C0907503D09005
:104E50007603E0907703F090780388EEC80E83E045
:104E6000D81EE11CF11C5FD4C616D706E806F90669
:104E700020F4A4DB02C081E001C080E0CDB7DEB742
:104E8000EAE00C946136A4E0B0E0E9E4F7E20C94C7
:104E90003F36A89548D46B017C0128EE33E040E012
:104EA00050E00E94EA3530935B0520935A052CEDC3
:104EB000C21625E0D206E104F10428F08091020533
:104EC000882309F480C0D5D6882309F479C0E0D6B8
:104ED0008A3031F4809142058F5F8093420502C091
:104EE0001092420580914205843068F38CB583604E
:104EF0008CBD6FEF70E088E894E00DD7B12C812C69
:104F0000912CC12CD12C09EF10E058E8E52E54E08B
:104F1000F52E8FEF8816910411F00CF04BC0A9D636
:104F20008823E9F3B5D6823338F48033D8F48A3055
:104F3000B1F38D3039F023C0823709F551E0851A7D
:104F400091081DC038E0C31219C0ED2DF0E0E758FC
:104F5000FC4F8081B826D394ED2DF0E0E758FC4F4C
:104F600010820CC0ED2DF0E0E758FC4F9081990FB6
:104F7000813309F49F5F9083C39401C0C12C60E426
:104F8000D612C7CF69E773E0C4010E946C087FEFB7
:104F9000871A970A1F92BF921F930F93FF92EF9267
:104FA000DED60F900F900F900F900F900F90B12CB6
:104FB000D12CAFCF65EF70E088E894E0ACD665C344
:104FC0000E94401F62C3789449E7442E43E0542E68
:104FD00010E48091EA04811108C08091EB048111F2
:104FE00004C08091F404882359F016DB8091EA0410
:104FF0008093EB048091E804882309F4C6C186C03D
:10500000F201212F11922A95E9F730D68CD34B016A
:105010005C0134E6830E911CA11CB11C3AEF732E87
:105020000FEF81D386169706A806B906A0F024ECE8
:1050300039E040E050E060E080E095D46F3F7105DA
:105040008105910509F02CF4662319F0601708F426
:10505000062F7A9431F70F3F19F40091040102C032
:10506000009304010B3090F00331C0F00D31E8F0F3
:10507000083210F10C3340F1063968F580E220E87F
:10508000822E25E2922EA12CB12C2CC082E0812C04
:1050900092EC992EAA24A394B12C24C084E0812CF4
:1050A000B1EE9B2EA12CB12C1DC086E0812CA6E96F
:1050B0009A2EA12CB12C16C088E0F0E88F2EF0E7D4
:1050C0009F2EA12CB12C0EC080E1812CEBE49E2EF2
:1050D000A12CB12C07C080E470EC872E72E1972ED2
:1050E000A12CB12C8093FE058092050590920605B7
:1050F000A0920705B092080588E894E069D5C5013B
:10510000B40177D581E08093EB0463CF0091510522
:1051100040910506433008F42DC1433029F48091B5
:10512000DD049091DE0411C08BEF840F843048F4CD
:10513000E42FF0E0EE0FFF1FE753FA4F80819181DB
:1051400004C08091D9059091DA059C01285E334016
:10515000213D374008F00EC1443049F58091B70534
:105160009AEF980F923008F487C09091A205981793
:1051700089F08093A20560E070E08EE995E00E94DE
:105180002C119091A20580910601981303C081E033
:105190008093EC048EE995E00E945314813D974082
:1051A00008F46AC08091B7058093060165C020911C
:1051B0000A06211119C0609147068D3474E09707E3
:1051C00060F09C012C54344070E080E293E00E9437
:1051D000D735C9010E94C33501C060E0061709F444
:1051E0004BC06093510548C05091000652FF14C057
:1051F0002091B4043091B5042115310539F0FC013A
:10520000E21BF30B41E0E93CF10508F440E0909328
:10521000B5048093B40405C041E08D3D954008F489
:1052200040E050FF10C0442321F081E08093ED0462
:1052300023C08091ED04882319F081E08093EC0471
:105240001092ED0419C04423B9F080909E0590900F
:105250009F05A090A005B090A10565D2861697067F
:10526000A806B90648F481E08093EC0464EF71E08D
:105270008EE995E00E942C118091EC04882371F056
:105280001092EC04809151058F5F809351059091AD
:105290004706981718F51092510520C08091000616
:1052A00087FF1CC08091B6049091B704A091B80408
:1052B000B091B9040097A105B10581F040915A055C
:1052C00050915B0560E070E084179507A607B7076B
:1052D00028F481E08093FE048093EC04B0905105A3
:1052E0000B1509F447C00E946F14809100061091BD
:1052F000FE0487FF09C0112339F0809147068823F7
:1053000019F0B81609F4BCCF8B2D0E9460148823C5
:1053100099F040915A0550915B05480F511D60E08E
:1053200070E04093B6045093B7046093B804709350
:10533000B90411111DC00AC01111A2CF1092B604F8
:105340001092B7041092B8041092B904AEE0B5E020
:10535000ECEEF0E084918D9331968111FBCF80913A
:1053600015058B0D8093150563E088E00E943614C7
:105370001092FE048091E904811105C081E08093C0
:10538000E9048093E7041092E8048091E9048823FB
:1053900089F18091E70481112DC01092E9042091D8
:1053A0008805222319F081E08093FA048091040695
:1053B000882309F4AFC08091EF048111C1C08091AE
:1053C000F6048111CFC0233060F08CE0EAE8F5E00C
:1053D000AAE7B5E001900D928A95E1F781E080930C
:1053E000F6040E946017C701B6010E942E1B81E0DF
:1053F000809309058091B3059091B405A091B505FE
:10540000B091B6058C159D05AE05BF05A8F464E105
:1054100070E083EB95E00E9441118091090588239B
:1054200059F08091E704882339F082EE94E00E94DD
:105430005314C39708F022C18091AF059091B00535
:10544000A091B105B091B2058C159D05AE05BF05C3
:1054500030F564E670E08FEA95E00E9441110E9409
:1054600032208091F80491E089278093F804882302
:10547000B1F080910405882369F08F5F8093040563
:10548000833068F0809152058F5F809352051092AF
:10549000040505C0809152058F5F8093520580916D
:1054A000AB059091AC05A091AD05B091AE058C1502
:1054B0009D05AE05BF0508F0E8C064EF71E08BEA1A
:1054C00095E00E94411181E08093E8048093F70405
:1054D000909153059F5F909353059091F404982702
:1054E0009093F404992309F4D0C08093EE04809142
:1054F000E604853050F48091FF058F5F8093FF05AF
:10550000843028F00E94ED0702C01092FF0510922F
:10551000E604BBC080915C05833308F44CCF8091D6
:10552000090190910A0180379E4F09F044CF809184
:10553000690590916A0590930A01809309013BCF18
:105540008091F10480FD3BCF1092F604816080933E
:10555000F1041092A7051092A8051092A9051092C7
:10556000AA052DCF80907A0590907B05A0907C05B0
:10557000B0907D05C501B4019F7725E33AEF4EE871
:105580005CE30E94A6340E94EF322B013C01209183
:105590008A0530918B0540918C0550918D05C50190
:1055A000B4010E94130B4B015C0120918E053091D8
:1055B0008F05409190055091910560917E05709105
:1055C0007F0580918005909181050E94130BA301B6
:1055D00092010E94A6342B013C019B01AC010E9468
:1055E000A63469837A838B839C83A5019401C501CA
:1055F000B4010E94A6349B01AC0169817A818B8140
:105600009C8123D70E940D350E945A336093760502
:10561000709377058093780590937905C501B4015F
:105620009F770E945A337093740560937305C3018A
:10563000B2019F770E945A3370937205609371058F
:10564000A30192015058C501B40172D720EE3EE289
:1056500045E652E40E94A6340E945A33CB018A5593
:1056600091092091690530916A05821B930B0E9474
:1056700047140E94951480937505B3CE1092E704E9
:105680000E94480810920905D7CE2496E0E10C94B8
:105690005B361F920F920FB60F9211242F933F93F8
:1056A0008F939F93AF93BF9380914D0690914E0639
:1056B000A0914F06B091500630914C0623E0230F85
:1056C0002D3720F40196A11DB11D05C026E8230F3A
:1056D0000296A11DB11D20934C0680934D06909318
:1056E0004E06A0934F06B0935006809151069091BC
:1056F0005206A0915306B09154060196A11DB11D0A
:105700008093510690935206A0935306B09354068B
:10571000BF91AF919F918F913F912F910F900FBEAD
:105720000F901F9018952FB7F89460914D067091C7
:105730004E0680914F06909150062FBF08953FB7B7
:10574000F8948091510690915206A0915306B09121
:10575000540626B5A89B05C02F3F19F00196A11D40
:10576000B11D3FBF6627782F892F9A2F620F711DB9
:10577000811D911D42E0660F771F881F991F4A9572
:10578000D1F70895CF92DF92EF92FF92CF93DF93FC
:105790006B017C01D4DFEB01C114D104E104F104FD
:1057A00079F0E0D0CCDF6C1B7D0B683E7340A0F33A
:1057B00081E0C81AD108E108F108C851DC4FECCFEC
:1057C000DF91CF91FF90EF90DF90CF9008958230DE
:1057D000910538F0880F991F880F991F0597019739
:1057E000F1F70895789484B5826084BD84B58160B2
:1057F00084BD85B5826085BD85B5816085BDEEE6D9
:10580000F0E0808181608083EAE7F0E0808184605D
:1058100080838081826080838081816080838081B9
:10582000806880831092C1000895CF93DF9390E049
:10583000FC01E850F64F2491FC01E45FF54F8491A0
:10584000882349F190E0880F991FFC01EC5CF54F2B
:10585000A591B491865D954FFC01C591D4919FB7F8
:10586000611108C0F8948C91209582238C938881D3
:1058700082230AC0623051F4F8948C91322F309513
:1058800083238C938881822B888304C0F8948C9125
:10589000822B8C939FBFDF91CF91089590E0FC0104
:1058A000E850F64F2491FC01E45FF54FE491EE23BC
:1058B00091F0F0E0EE0FFF1FE65DF54FA591B4917A
:1058C0009FB7F8948C91611103C02095822301C089
:1058D000822B8C939FBF089590E0FC01EC51F64F12
:1058E0002491FC01E850F64F3491FC01E45FF54F40
:1058F00084918823A9F1222339F1233091F038F4DF
:105900002130A9F0223001F594B59F7D12C02730D7
:1059100091F02830A1F02430B9F4909180009F7D5F
:1059200003C0909180009F77909380000DC094B544
:105930009F7794BD09C09091B0009F7703C090916C
:10594000B0009F7D9093B000E82FF0E0EE0FFF1FB6
:10595000E05EF54FA591B4919C91932381E009F409
:1059600080E0089508950F931F93762F90E0FC0137
:10597000E850F64F6491FC01E45FF54FE49171113A
:10598000762FF0E0EE0FFF1FE05EF54F85919491CA
:1059900089019A013F70472F0E94CB05611571055F
:1059A0008105910531F06F5F7F4F8F4F9F4F9F7043
:1059B00003C060E070E0CB011F910F9108958093C8
:1059C0000B0108958E3008F08E50877020910B01E6
:1059D00090E4299F90011124822B80937C00809178
:1059E0007A00806480937A0080917A0086FDFCCFF3
:1059F000809178002091790090E0922B0895A0E0AA
:105A0000B0E0E5E0FDE20C9447367C016A01EB0171
:105A100000E010E00C151D0571F06991D701ED91C2
:105A2000FC910190F081E02DC7010995892B19F0B7
:105A30000F5F1F4FEFCFC801CDB7DEB7E8E00C9482
:105A400063366115710589F0DB010D900020E9F7DF
:105A5000AD0141505109461B570BDC01ED91FC9102
:105A60000280F381E02D0995089580E090E008958B
:105A7000E8CF0895DC01ED91FC910190F081E02DDB
:105A800009950895A1E2B0E0E8E4FDE20C94433604
:105A90007C01C42EE52FCB01D22E19A221E02D15B9
:105AA00010F02AE0D22E8E010F5D1F4F8D2C912C0D
:105AB000A12CB12C6C2D7E2FA50194010E94EA35FA
:105AC0008C2DD29E80191124015011098A3014F4B2
:105AD000805D01C0895CF801808321153105410595
