:10000000D4C500000C942D210C94D321F6C500001A
:10001000F4C50000F2C50000F0C50000EEC5000008
:10002000ECC50000EAC50000E8C50000E6C5000018
:10003000E4C50000E2C50000E0C50000DEC5000028
:100040000C94BA28DAC500000C94F90F0C941F1018
:10005000D4C50000D2C50000D0C50000CEC5000048
:10006000CCC50000CAC500007B187B1889189518FC
:10007000AA18C418ED1801191F19084AD73B3BCE1E
:10008000016E84BCBFFDC12F3D6C74319ABD568397
:100090003DDA3D00C77F11BED9E4BB4C3E916BAA4F
:1000A000AABE000000803F05A84CCDB2D44EB9389E
:1000B00036A9020C50B9918688083CA6AAAA2ABE85
:1000C000000000803F0664EC1B3C04BC163E3BE590
:1000D000B93CC93C37C29E5A3D660498083EEA695D
:1000E000AAAA3E000000803F03020100536372652C
:1000F000656E20300046440A00434425640A0052DD
:1001000046460A004D697373696E672F4F6C642011
:10011000436F6E6669673A202564206D7920373910
:10012000004D696E696D4F53442D4578747261209E
:10013000322E347C756E69207225642044567C0012
:10014000100E0F1120284E545343290020285041EF
:100150004C290025372E32660025362E3166009157
:1001600025372E326600A125372E32660053010B4B
:1001700068BA050059018F6892050059011473B2DD
:10018000050059011D73AA050059011268AE05004A
:100190005F019076A205006601A0769E05005901D8
:1001A000BD61A60500000000000000004E6F206940
:1001B0006E7075742064617461212025757C00B8AF
:1001C000B900253469050700253469050600253581
:1001D0002E32660D00253269006F7665726C6F6194
:1001E000640053747265616D0066726F7A656E00AB
:1001F00025342E3066010025322E30662525002557
:100200006325638E25342E30660100256325638EB9
:1002100025322E306625250025346905007C20CE48
:10022000CECECE60CECECECE200040CB242020201D
:100230007C007C20202024CB0082808180818084EF
:1002400080818081808380818081808580818081A0
:100250008020C8C8C8C87EC8C8C8C8207C00202064
:100260002024CBB8B9CB242020207C00253369057D
:100270000020586525342E30660025342E30660067
:10028000253269200025352E30660025332E306951
:1002900025250025352E32660E0025332E306600CA
:1002A00025322E3066002520352E31661800252097
:1002B000352E326618005225332E30660500502543
:1002C000332E306605004825332E30660500422562
:1002D000352E316605004525352E3166004525341D
:1002E0002E30666D00734525352E316600B6026EE0
:1002F000698C0500BE026E698A0500C6026E6988B7
:100300000500CE025469860500D6024168810500C9
:10031000DD025869770500E50241737D05000000A4
:1003200000000000002533690025303269002020DC
:1003300090910025352E3166004325642535697C72
:100340000025342E31660025342E3266004325699F
:10035000200025690025346400B0B1B4B5B6B77B80
:100360007D15291C00015D0A0002560A00034F1585
:10037000BC8438152605510C0007780C00188C0D2C
:10038000000650160008100D00091C1C0025131350
:10039000000B5F110B0A670B00191C0E000DE11515
:1003A0005C111015111687111212761314176813A9
:1003B0001313500A0214250A7F0F7F0ABD1B8C15E8
:1003C0001D1C280E151D1013000E1E0A091ECA132F
:1003D0000021B30A0020A20B002256118F248A1399
:1003E0001F2B790A1F2CA710002D8110002F6410DD
:1003F00000A7890D00A8860D00A9830D00AA800D15
:10040000001F6F0B0026F40B009A991100000000EA
:1004100000E9040C0000A30405EB0F250409C6093C
:100420000000000000D605000000000000000000F1
:10043000000000CD057301800200009D05C0E04072
:100440001FC4057301840200009D059CFF6400BB6E
:10045000057301000000009D05C0E0401FC4057346
:1004600001000000009D059CFF6400AD05730100C4
:100470000000009D05C0E0401FC40573010000009E
:10048000009D059CFF6400A2057301000000009D13
:1004900005C0E0401FC4057301000000009D059CDD
:1004A000FF64001B06680000000000000000000060
:1004B0000001066601ED0500009D05FCFF04000E2D
:1004C000066601F10500009D05FCFF0400E50566D8
:1004D00001F50500009D05FCFF0400F3056601F928
:1004E0000500009D05FCFF0400CE06000000000092
:1004F00000000000000000BE06620AC4050000966D
:10050000050000FF00AF06620AFD05000096050029
:1005100000FF00A1066201C305000091050000FF75
:10052000008F066201C205000091050000FF007EF9
:10053000066201CA05000091050000FF0071066215
:1005400001CB05000091050000FF006106000000DE
:1005500000000000000000000053066201020600D7
:10056000009105010004004A066201C1056309917A
:1005700005000003003A065A01FF0563099105E1F1
:10058000FF1F002C067A01FE0563099105F1FF0F9C
:1005900000252E30660025332E31667600252E3359
:1005A00066003420285253534929204B0033202819
:1005B00043757272656E7429204B003220285632C2
:1005C00029204B00202020202020204100312028FD
:1005D000563129204B0020202050696E2053656E33
:1005E000736F727300526F6C6C2020696E204E54D2
:1005F000534300506974636820696E204E5453431E
:1006000000526F6C6C2020696E2050414C00506984
:1006100074636820696E2050414C002020486F723E
:10062000697A6F6E20616E676C65730056657274CF
:100630006963616C206F66667300486F72697A6FD8
:100640006E74616C206F66667300436F6E747261C6
:1006500073740053637265656E7320436F756E74B7
:1006600000202053637265656E20706172616D7346
:100670000052535349207761726E696E6700426180
:10068000747420636861726765207761726E004FD1
:100690007665727370656564207761726E696E67E6
:1006A000005374616C6C207761726E696E670042F2
:1006B0006174742032207761726E696E67004261E6
:1006C0007474657279207761726E696E670020209C
:1006D000204F534420736574757000696E6974000F
:1006E0008C07370732072D07280723071E07E8075F
:1006F0001B07160713071007F207E3070D07090783
:100700007807040761746F6600706F69007070008D
:10071000706100686C00706F737200636C007374BA
:1007200062360073746235007374623400737462ED
:100730003300737462320073746231008C07ED070A
:100740000F0887070A0882077D0778077307D40711
:100750000008F207F607D407D407FB07DB066E078D
:1007600069076407716C6F690071686F7600717357
:100770007462006174756E006372757A00666277E8
:100780006200666277610074726169006D616E7506
:10079000000F080A0805080008FB07F607F207ED36
:1007A00007E807E307DE07D907D407CF07CA07C55D
:1007B00007C007BC07B707746872770062726B00E6
:1007C000686F6C640074756E6500666C69700073A8
:1007D000707274006D5F25640064726966006F66F4
:1007E0006C6F006C616E6400706F73680063697297
:1007F000630072746C006C6F6974006775696400E3
:100800006175746F00616C7468006163726F00736E
:100810007461620051084408330824088B087E087C
:100820006F0860080325392E356625630425392EA7
:10083000356600032531302E3666256304253130B8
:100840002E36660025392E3566256325392E356608
:10085000002531302E366625632531302E36660070
:10086000032530356C642563042530356C64000342
:100870002530366C642563042530366C64002530E1
:10088000356C6425632530356C64002530366C6426
:1008900025632530366C640016090C090009F3083D
:1008A000E708DA08CE08C308B708AC0846656E63E7
:1008B0006520466172210046656E63652048696760
:1008C00068210046656E6365204C6F7721004261A8
:1008D00074742042206C6F77210048696768205645
:1008E0005370656564210020204C6F77205273732C
:1008F00069210042617474657279204C6F77210020
:10090000204F766572537065656421002020205366
:1009100074616C6C2100204E6F2047505320666933
:1009200078210000070E091C1B1215383F363124B0
:10093000232A2D70777E796C6B6265484F4641544F
:10094000535A5DE0E7EEE9FCFBF2F5D8DFD6D1C4FF
:10095000C3CACD90979E998C8B8285A8AFA6A1B46F
:10096000B3BABDC7C0C9CEDBDCD5D2FFF8F1F6E320
:10097000E4EDEAB7B0B9BEABACA5A28F888186938F
:10098000949D9A2720292E3B3C35321F18111603BF
:10099000040D0A5750595E4B4C45426F68616673AF
:1009A000747D7A898E878095929B9CB1B6BFB8ADD5
:1009B000AAA3A4F9FEF7F0E5E2EBECC1C6CFC8DDCF
:1009C000DAD3D4696E676075727B7C51565F584D7F
:1009D0004A4344191E171005020B0C21262F283DEF
:1009E0003A33344E49404752555C5B7671787F6AA2
:1009F0006D64633E39303722252C2B0601080F1A0F
:100A00001D1413AEA9A0A7B2B5BCBB9691989F8A3E
:100A10008D8483DED9D0D7C2C5CCCBE6E1E8EFFA2E
:100A2000FDF4F352B80E4085EB51401966BB00123D
:100A3000800C1CA0141E666666400000803F100CEF
:100A4000BA000A00001BE8031A00000008000201B7
:100A50000000030407000000000000000001020481
:100A60000810204080010204081020010204081030
:100A70002004040404040404040202020202020327
:100A800003030303030000000023002600290000E5
:100A9000000000250028002B000000000024002793
:100AA000002A006E616E00696E660000407A10F3E5
:100AB0005A00A0724E18090010A5D4E80000E8768C
:100AC00048170000E40B54020000CA9A3B000000E3
:100AD000E1F505000080969800000040420F0000FC
:100AE00000A08601000000102700000000E80300BD
:100AF0000000006400000000000A00000000000187
:100B000000000000002C76D888DC674F0823DFC186
:100B1000DFAE59E1B1B796E5E3E453C63AE6519941
:100B20007696E8E6C28426EB898C9B62ED407C6F6A
:100B3000FCEFBC9C9F40F2BAA56FA5F490055A2A21
:100B4000F75C936B6CF9676DC11BFCE0E40D47FE2D
:100B5000F520E6B500D0ED902E0300943577050022
:100B600080841E080000204E0A000000C80C3333A9
:100B700033330F986E12831141EF8D2114893BE6B8
:100B80005516CFFEE6DB18D1844B381BF77C1D9041
:100B90001DA4BBE424203284725E228100C9F124AA
:100BA000ECA1E53D2700E4080C2511241FBECFEF82
:100BB000D8E0DEBFCDBF11E0A0E0B1E0EAE4F7E6A7
:100BC00002C005900D92A033B107D9F726E0A0E34B
:100BD000B1E001C01D92AA39B207E1F715E0C5EDF9
:100BE000D5E004C02197FE010E944133C33DD107E7
:100BF000C9F70E94032B0C943B2F02CACF92DF92BD
:100C0000EF92FF920F931F93E82FF92F05C0015029
:100C100011092109310961F1908196239417B9F3E3
:100C200005C0015011092109310911F19081962364
:100C30009413F7CFC12CD12CE12CF12C0AC08FEFEB
:100C4000C81AD80AE80AF80A0C151D052E053F0532
:100C500079F080818623841791F36C2D7D2D8E2D64
:100C60009F2D1F910F91FF90EF90DF90CF900895EF
:100C700060E070E080E090E01F910F91FF90EF90B6
:100C8000DF90CF900895FA01AA27283051F1203142
:100C900081F1E8946F936E7F6E5F7F4F8F4F9F4F10
:100CA000AF4FB1E03ED0B4E03CD0670F781F891F52
:100CB0009A1FA11D680F791F8A1F911DA11D6A0F20
:100CC000711D811D911DA11D20D009F468943F91D3
:100CD0002AE0269F11243019305D3193DEF6CF01D2
:100CE0000895462F4770405D4193B3E00FD0C9F798
:100CF000F6CF462F4F70405D4A3318F0495D31FD05
:100D00004052419302D0A9F7EACFB4E0A695979557
:100D1000879577956795BA95C9F70097610571052D
:100D200008959B01AC010A2E069457954795379577
:100D30002795BA95C9F7620F731F841F951FA01DD1
:100D40000895283008F027E03327DA01990F311D84
:100D500087FD916000966105710539F432602E5F60
:100D60003D9330E32A95E1F708959F3F30F08038B6
:100D70007105610509F03C5F3C5F3D93913008F0DF
:100D80008068911DDF93CF931F930F93FF92EF9293
:100D9000192F987F9695E92F96959695E90FFF273D
:100DA000EB5FF44F99273327EE24FF24A701E701D7
:100DB00005900894079428F4360FE71EF81E491F83
:100DC000511D660F771F881F991F0694A1F7059084
:100DD000079428F4E70EF81E491F561FC11D770F10
:100DE000881F991F661F0694A1F70590079428F4A1
:100DF000F80E491F561FC71FD11D880F991F661F68
:100E0000771F0694A1F70590079420F4490F561F09
:100E1000C71FD81F990F661F771F881F0694A9F751
:100E200084911095177041F0D695C79557954795C1
:100E3000F794E7941A95C1F7EBEAFAE068941590F5
:100E4000159135916591959105907FE27395E11823
:100E5000F10A430B560BC90BD009C0F7E10CF11E88
:100E6000431F561FC91FD01D7EF4703311F48A959D
:100E7000E6CFE894015030F0080F0AF4002702177B
:100E800008F4202F2395022F7A3328F079E37D93FD
:100E90002A95E9F710C07D932A9589F606949795CF
:100EA0006795379517951794E118F10A430B560B80
:100EB000C90BD00998F023957E9173957A3308F089
:100EC00070E37C932013B8F77E9170617D9330F0CE
:100ED000839571E37D9370E32A95E1F71124EF90F8
:100EE000FF900F911F91CF91DF91992787FD9095EA
:100EF000089580E008950895FC011382128224E190
:100F000031E03183208308958EBD0DB407FEFDCFFF
:100F10008EB56EBD0DB407FEFDCF8EB508958EBDA6
:100F20000DB407FEFDCF8EB58FEF8EBD0DB407FE5D
:100F3000FDCF8EB50895882311F080E401C080E0D4
:100F400090911203891749F0809312035E98609183
:100F500012036C6180E0D8DF5E9A08955E988091FC
:100F6000080681FD06C08091070683FF19C081E055
:100F700018C080EAD4DF80FF06C081E0DCDF80910A
:100F80000706886007C081FF08C080E0D4DF809139
:100F90000706877F8093070605C082FDE4CF02C065
:100FA00080E0C9DF5E9A0895CF93DF93E091C10599
:100FB000E43008F0E0E0F0E0E851FF4FC49180E158
:100FC000D1E0D80F6C2FA0DF8D2FD032C9F7DF9181
:100FD000CF9108955E98E8DF6091FF0582E094DF8D
:100FE0006091FE0583E090DF5E9A0895CF935E984E
:100FF0008CEE95DFC82F60911203626080E084DF81
:101000000E94A7216C2F6F7E8CE67EDF62E18CE070
:101010007BDF609112036C6380E076DF0E94A72182
:10102000609112036C6180E06FDFD4DFCF9108958F
:1010300061E086E00E94882962E082E00E948829BF
:101040008DDFD4CF209113038091140390E03EE113
:10105000239F800D911D11249093310180933001C5
:1010600008958F73809314036F70609313038091BE
:101070001203803411F0673008F4E4CF63506093BA
:101080001303FBCF8F3F79F0209130013091310174
:10109000A9014F5F5F4F5093310140933001F90137
:1010A000EE5CFE4F808308958C3731F480911303FA
:1010B0008F5F80931303C6CFE5CF862FF5DF81E0E6
:1010C00090E00895A1E0B0E0E8E6F8E00C94663323
:1010D0004983C7DF4981842FE7DF2196E2E00C9442
:1010E00082335E9860E085E00FDF60E086E00CDF31
:1010F00061E084E009DF5E9AE2E3F1E080E25E987D
:1011000090819EBD0DB407FEFDCF9EB581935E9A82
:1011100093E0E231F90799F75E988FEF8EBD0DB439
:1011200007FEFDCF8EB55E9A0895A1E0B0E0EBE931
:10113000F8E00C946233182FF62E5E9860E080E0A1
:101140007983E2DE612F89E0DFDE0F2D7981172FB1
:10115000E12CF801F1908F016E2D8AE0D5DE6F2D24
:101160008BE0D2DEE394F6E3EF12F3CF60EA88E09F
:10117000CBDE80EAD4DE85FF03C00E942818F9CFB9
:101180006CE080E0C1DE5E9A2196E6E00C947E334E
:101190001CBC8F7280658CBD8DB581608DBD8DB599
:1011A0008EB5089561E08DE00E94882961E08BE0B2
:1011B0000E94882960E08CE00E94882961E08AE032
:1011C0000E94882980E0E4CF85E193E0EBCFE82F0F
:1011D000F0E0EE0FFF1FE959FA4F208131816623BD
:1011E00029F040E253E088E998E004C048EE53E07B
:1011F00080ED97E02417350780F0241B350B841B06
:10120000950B65E070E00E94DC32C9010E94DC327F
:10121000862F653018F084E0089580E00895E0910D
:101220007F0435E0E39FF0011124ED5EFB4F9491C4
:10123000915020910501609175047091760487FFAB
:1012400003C0222339F004C0882311F0921721F043
:10125000280F03C0292F01C020E0FB013EE0239F9F
:10126000E00DF11D1124349645915491452B39F32D
:101270002093050181E080939B040895A7E6B5E0E3
:10128000E7E7F4E080819181883E934028F48D91D6
:101290009C911197918380833296129684E0EF3768
:1012A000F80781F7089590E0880F991FDC01A9598C
:1012B000BA4FFC01E958FB4F8D919C9120813181FF
:1012C000821B930B089586CE0895692FCACEEF92A4
:1012D000FF920F931F93CF93DF937C01E40EF51ED3
:1012E000EC018B01081B190BCE15DF0539F0C80185
:1012F0008C0F9D1F0E948D338993F6CFCDB7DEB73B
:10130000E6E00C947E33A8E1B0E0E9E8F9E00C9463
:101310006533182F88E1189FB001112460587D4F64
:1013200048E150E0CE010196D2DFE12FF0E0EE0F70
:10133000FF1FE757FB4F6081718180E090E00E94C2
:10134000BA3029813A814B815C810E94D5312D814F
:101350003E814F8158850E94542F9F938F937F9396
:101360006F93CE0109969F938F9381E794E09F93AB
:101370008F930E94DA2B0FB6F894DEBF0FBECDBF5D
:101380006896E3E00C9481338CE78ECECF936AE0CD
:1013900086E067DEC0E08C2FB6DFF6DFCF5FC430BB
:1013A000D1F7CF91089580E27FCECF93813110F0B5
:1013B0008051FCCF811101C080E1880FCEEFC80FB2
:1013C00080E98C0F71DE81E98C0F6EDECF9108957C
:1013D0007F936F939F938F9381E794E09F938F9375
:1013E0000E94EA2B0F900F900F900F900F900F908C
:1013F00008951F93CF93DF93EC01162F6CE370E0F9
:101400000E94DC3285E293E0E3DF112331F080912A
:10141000A404882311F080E201C08AE345DECE01F6
:101420006CE370E00E94DC32BC0189E293E0D0DF23
:10143000DF91CF911F91089560E0DBCF6091E604CA
:101440007091E70485E293E0C3CF80919C0482FD14
:1014500008C08091BF05882341F083E1E1E9F7E00E
:1014600007C082E1E0EEF6E003C084E1ECE3F7E0E0
:1014700090915905692F70E0981740F4CB01880FBF
:10148000991FE80FF91F8591949102C084ED97E0B0
:101490009FDF8091A104882311F086E805CE08958E
:1014A0006091FE0470E08BE892E092CF60910F05AE
:1014B0007091100588EC91E08BCF60910D057091D3
:1014C0000E0582EC91E084CF7F936F935F934F93EF
:1014D0009F938F9381E794E09F938F930E94EA2BD1
:1014E0008DB79EB708960FB6F8949EBF0FBE8DBFFE
:1014F000089540E050E0BA0187E493E0E5CF6091C1
:101500005F0570916005072E000C880B990B0E94F7
:10151000BC302AE037ED43E25CE30E94D531AB01F9
:10152000BC0183E992E0D0CFA1E0B0E0EAE9FAE0C3
:101530000C9466337F936F935F934F939F938F9336
:1015400081E794E09F938F9329830E94EA2B29815E
:10155000822FAADD0FB6F894DEBF0FBECDBF219655
:10156000E2E00C948233CF938091650590916605FB
:10157000FC013A96C4913296E491FC013D96659146
:10158000749180E090E00E94BA302AE037ED43E2A7
:101590005CE30E94D531AB01BC012C2F83E393E0C7
:1015A000C3DFCF9108957F936F935F934F93EBE0E9
:1015B000F1E021811F922F9320811F922F939F93FF
:1015C0008F9381E794E09F938F930E94EA2B8DB7CE
:1015D0009EB70C960FB6F8949EBF0FBE8DBF0895B0
:1015E000ECE2F5E027812F9326812F9325812F931D
:1015F00024812F931F926F9323812F9322812F9306
:1016000021812F9320812F939F938F9381E794E0E3
:101610009F938F930E94EA2B8DB79EB70E960FB6BD
:10162000F8949EBF0FBE8DBF0895EF92FF920F9367
:101630001F93CF93DF93EB017C018B01040F151FE8
:10164000C017D10741F0F70161917F01CE010E94DF
:1016500095332196F5CFCDB7DEB7E6E00C947E3317
:101660000E94532F20EC3BE649ED57E40C94D53112
:10167000CF92DF92EF92FF92CF93C42F6B017C0148
:10168000E894F7F8C701B6010E948930072E000CD4
:10169000880B990B0E94BC309B01AC01C701B601BD
:1016A0000E94532FC11105C020E034E244E759E401
:1016B00004C020E030E543EC57E40E94D5310E949D
:1016C0008930CF91FF90EF90DF90CF900895809177
:1016D000A50482FF03C08091170567CE089580910D
:1016E000FC049091FD048F739927029730F46CEC01
:1016F00075E081E794E00C94B62A0895CF93C42F47
:1017000028EE33E040E050E00E9403336C2FC90123
:1017100070DECF9108957F936F939F938F9389E3AA
:1017200093E09F938F9381E794E09F938F930E9420
:10173000EA2B8DB79EB708960FB6F8949EBF0FBEE2
:101740008DBF08950F931F93CF93DF9307E615E0A6
:10175000C1E0D0E0F801619171918F01CE01DBDF32
:101760002196C930D105B1F7DF91CF911F910F912B
:101770000895A2E0B0E0EFEBFBE00C945F338C0146
:10178000F801B4903196E590F490E114F10441F140
:101790008091F3046B2D6F7770E0660F771FF0E890
:1017A0008F9F600D711D112442E050E0CE01019623
:1017B0008EDDC980DA80C60188DDD7FC09C0C7FC90
:1017C00009C0F80133968491882321F06DDC02C0B2
:1017D000B7FE03C0C601F70109950C5F1F4FD0CFBC
:1017E0002296E9E00C947B330F931F93CF93DF9302
:1017F0002091B104222309F44DC04091AF045091CF
:10180000B0042091FC043091FD044217530709F401
:1018100041C03091AE042AE1231B27FD0BC0269561
:10182000692F820F1EDC61EB74E081E794E00E9477
:10183000B62A32C096FD1CC0219530E08091F40498
:101840009091AD04891B90E0B901660F771F0E944B
:10185000F0324091AB0441110DC0009729F02150A6
:1018600031098217930731F421E02093AB0402C0C1
:1018700080E090E0EC01CF54DB4F8E01065E1F4FFD
:101880008991811102C08FDD07C00EDCC017D1071E
:10189000B9F7F9CF1092B104DF91CF911F910F9159
:1018A00008951F93CF93DF93D82F192F80912A0586
:1018B000823019F020F0CFE003C0CFE101C0CAE2CE
:1018C000D7FD02C016FF0DC060912B0570E085EDBD
:1018D00091E07EDDD7FD08C016FF06C08C2FE4DB4B
:1018E00003C08C2FE1DBF0CFDF91CF911F910895E2
:1018F000A0E0B0E0EEE7FCE00C946033C09030056F
:10190000D0903105E0903205F0903305C114D10438
:10191000E104F10469F440912C0550912D0560918A
:101920002E0570912F05452B462B472B09F473C0CC
:1019300094FD02C0CCE701C0C0E296FBDD27D0F9E0
:10194000E82FE095EE1FEE27EE1FEE0FED2B8091B6
:10195000A404882311F18091A904853058F062EE27
:1019600071E081E794E00E94C02B8C2F9DDB69EE33
:1019700071E00EC08091AA04853078F062EE71E0CB
:1019800081E794E00E94C02B8C2F8EDB69ED71E023
:1019900081E794E00E94C02B3EC00E2E000CFF0B8E
:1019A000EE0FFF1F95FF31C0E45EF74F05911491D4
:1019B0004D2FC701B6015CDEF62EE72ED82EC92EBC
:1019C00060912C0570912D0580912E0590912F0529
:1019D0004D2F4EDECF92DF92EF92FF921F92CF9368
:1019E0009F938F937F936F931F930F9381E794E05F
:1019F0009F938F930E94EA2B8DB79EB70E960FB6DA
:101A0000F8949EBF0FBE8DBF06C0EC5EF74F859168
:101A100094916C2FE5DDCDB7DEB7E8E00C947C3314
:101A2000FF920F931F93CF93DF93F82E092F192F57
:101A3000107287FD0AC096FD08C0112389F16EE57A
:101A400072E081E794E00E94C02B83EC2DDB2091B3
:101A50000B0530910C0548E1429FC001439F900D5A
:101A600011240C9668E671E00E94F032CCEFC60FAC
:101A7000111102C0D9E001C0DAE0EC2FF0E0E75C20
:101A8000FD4F849111DBCF5FC83108F0C0E0D15029
:101A9000A1F787E809DBF7FC1AC006FD04C017C0F0
:101AA00061E572E0CECF112379F062E372E081E765
:101AB00094E00E94C02B8CE7E5DA6AE272E081E7ED
:101AC00094E00E94C02B03C06DE172E0F8CFCDB767
:101AD000DEB7E5E00C947F33262F30E0F901EB57B9
:101AE000FB4F87FD0BC091E09083F901EF57FB4F4F
:101AF00086FB992790F99083862F05CC1082089554
:101B000063E0892FE9CF62E0892FE6CF61E0892F7A
:101B1000E3CF60E0892FE0CFCF92DF92EF92FF9288
:101B20001F93CF93DF93182FC92F80915D058F5599
:101B3000863010F0DFEF01C0D4E660915E0570E002
:101B400080E090E00E94BA306B017C016D2F70E064
:101B500080E090E00E94BC309B01AC01C701B6015F
:101B60000E94213020E030E048EC52E40E94D53160
:101B70006B017C01C07417FD45C088E895DA2AE046
:101B800037ED43E250E4C701B6010E94D5310E940F
:101B90008E30AB016138710540F029E820930B01CC
:101BA00040585109ECE0F1E012C02DE820930C01FF
:101BB0006231710550F42091A404222331F080E2B7
:101BC00080930B0180930C010AC0EBE0F1E0CA01A5
:101BD0006AE170E00E94DC328DE8861B8083CC23B2
:101BE00029F0B701A6018BE092E00AC040918E0572
:101BF00050918F0560919005709191058FEF91E064
:101C0000D2DC12C0CC2329F0AB01BC0187EF91E0FC
:101C10000AC040918E0550918F056091900570919A
:101C2000910580EF91E050DCDF91CF911F91FF9003
:101C3000EF90DF90CF90089596FB442740F9609194
:101C4000490570914A0580914B0590914C0556CD00
:101C5000CF92DF92EF92FF928091A60496FF23C06D
:101C600084608093A60429E838E848E85CE3609142
:101C700096057091970580919805909199050E941D
:101C8000D5316B017C010E948930675F7F4F6331E2
:101C9000710518F086EA92E002C08EEA92E0B70180
:101CA000A60112DC14C08B7F8093A604E091650529
:101CB000F091660572962491409196055091970592
:101CC00060919805709199058AE792E02DDCFF906C
:101CD000EF90DF90CF900895AAE0B0E0E2E7FEE059
:101CE0000C945633C82EE62E8091120327EA32E96F
:101CF0004BE25CE38034C9F46091F1057091F20528
:101D00008091F3059091F4050E94D5314B015C015F
:101D100025E33AEF4EE85CE36091ED057091EE0546
:101D20008091EF059091F00518C06091F9057091D0
:101D3000FA058091FB059091FC050E94D5314B017D
:101D40005C0125E33AEF4EE85CE36091F5057091A4
:101D5000F6058091F7059091F8050E94D5312B0189
:101D60003C0180910F05909110052091070627FFF7
:101D700003C09195819591098A35910538F09C01B0
:101D80002D543F4F2935310570F4C9018734910531
:101D900034F58A31910544F50A9758F118E073EF4C
:101DA000D72E00ED2AC08B35910514F0835B910985
:101DB00097FF03C0919581959109873491057CF433
:101DC0008A3191053CF40A97A0F018E065EFD62E11
:101DD00002EE13C017E05BEFD52E0BEE0EC010E045
:101DE0004DECD42E01EC09C017E038EFD32E09EDED
:101DF00004C019E02DECD22E06EC60910D05709117
:101E00000E05072E000C880B990B0E94BC30A50113
:101E1000940150580E94D5310E947D3220E030E07C
:101E200044EB52E40E94D5314B015C0120E030E0EC
:101E3000A9010E94CA3120E030E040E05FE387FD65
:101E40000CC0C501B4010E94542F0E9489309B012F
:101E5000235D3F4F3A8729870BC0C501B4010E941B
:101E6000532F0E948930AB01435D5F4F5A874987EA
:101E700089859A8597FF05C0885A9F4F9A878987D9
:101E800009C029853A852B35310534F0285A3F4F52
:101E90003A87298782E001C080E0FF24F394F80E9E
:101EA0009CE0899F902D112419822CE030E01901CB
:101EB000281A310892549A8392E1892E912CCA945F
:101EC000CB82A12E012E000CBB083AEF3D0D3C83C6
:101ED0008F2D90E0281639060CF479C0DA804981FC
:101EE000D40E60910F05709110058091070687FF51
:101EF00003C0719561957109072E000C880B990B31
:101F00000E94BC30A30192010E94D5310E947D3213
:101F10009B01AC016D2D0D2C000C770B880B990BE0
:101F20002E833F834D8358870E94BC302E813F8192
:101F30004D8158850E94D5310E94893029853A8586
:101F4000260F371FC90101978A359105D8F5B401CD
:101F50000E94F0326B01112399F05EEE5603C0012E
:101F6000579F900D1124BC01620F731F6F5F7F4F4D
:101F700077FF02C06F5F7F4F75956795262F01C071
:101F800020E05E2D5C193B813F0D64E0650F402F22
:101F9000420F832F2E833F83588794D82E813F8111
:101FA0005885222379F0822F90E08A159B0554F002
:101FB00064E0C616D10431F04C81420F63E0650F36
:101FC000832F80D8F3948981845F898381CF2A9677
:101FD000E2E10C94723366E089E07ECEAB01BC0195
:101FE000E0916505F09166053996249185E892E0C7
:101FF0009BCA1F920F920FB60F9211242F938F93AB
:102000009F93EF93FF939091C600809198068F5F06
:102010008F7720919906821741F0E0919806F0E0C1
:10202000EA5EF94F908380939806FF91EF919F911C
:102030008F912F910F900FBE0F901F9018951F92A8
:102040000F920FB60F9211248F939F93EF93FF93EC
:102050009091970680919606981779F0E0919706EF
:10206000F0E0EE5EF94F80818093C6008091970684
:102070008F5F83708093970605C08091C1008F7D2C
:102080008093C100FF91EF919F918F910F900FBEB0
:102090000F901F901895EAE7F0E080818B7F808396
:1020A000808186608083089595FB222720F994FD26
:1020B00002C090E001C092E0922B86FD02C080E059
:1020C00001C084E0892B08951F93CF93DF93182FCD
:1020D000EBDF8C5FC82FD0E017FD06C0BE016F5F3D
:1020E0007F4F8DE493E074D9CC0FDD1FC959DA4FCF
:1020F0006881798185E593E06BD9DF91CF911F915C
:1021000008951F93CF93DF93182FC92FCDDFD4E00D
:10211000D80F17FD07C06D2F70E06F5F7F4F82E50E
:1021200093E056D9C6FB662760F98D2F50D8D82F7B
:10213000C0E0DC1302C081E801C080E80E945408BE
:10214000CF5FC530B1F7DF91CF911F9108951F93F5
:10215000CF93DF93182FC92FA7DFD4E0D80F17FD37
:1021600007C06D2F70E06F5F7F4F8DE493E030D933
:10217000C6FB662760F98D2F2AD8182FC0E0D3E060
:10218000CE010E948D338F3F71F0811103C0112366
:1021900051F01150111102C00E9454082196C0380C
:1021A00083E0D80769F7DF91CF911F9108950F93CE
:1021B0001F93CF93DF93EC018B010E940429DC0174
:1021C000CB01800F911FA11DB11D88839983AA8324
:1021D000BB83DF91CF911F910F9108959B01FC016B
:1021E0004081518162817381420F531F611D711DB6
:1021F00040835183628373830895E0916505F09174
:102200006605349665917591859194910895A4E041
:10221000B0E0EDE0F1E10C9460339B01AC01698327
:102220003A834B835C83E9DF29813A814B815C816E
:102230000E94D5316B017C010E94893000916505B7
:1022400010916605F801603177423CF4399624918B
:10225000B701A6018AE792E024C070966591749157
:1022600080E090E00E94BA309B01AC01C701B6014A
:102270000E9421306B017C010E9489306A30710517
:1022800034F06436710534F08AE792E005C087E4E3
:1022900093E002C081E493E0F8013F962491B701F6
:1022A000A60142D92496E8E00C947C336091920513
:1022B000709193058091940590919505A8CF809198
:1022C000A50482FF0BC060911805709119058091DB
:1022D0001A0590911B050E94BC3099CF0895A4E087
:1022E000B0E0E5E7F1E10C9466339B01AC01698352
:1022F0003A834B835C8381DF29813A814B815C8106
:102300000E94D5316BDE2496E2E00C94823360911A
:102310000705709108058091090590910A05DFCFA6
:10232000E0916505F09166056591759185919491AF
:1023300008950F931F93CF93DF938091A004182FDC
:10234000117080FFDEC08E7F8093A004E9DF2091B2
:1023500003053091040540910505509106050E9442
:10236000D5310E948930A0916305B09164058091B8
:10237000A60481FF09C081E090E020912A05223067
:1023800008F080E0EC0102C0C0E0D0E0E091BF05C1
:10239000E1110AC02091C30530E06217730724F4ED
:1023A0008091A30482FDC2602091C205222329F0FE
:1023B00030E0261737070CF4C46030915E05209199
:1023C0005D054091C405442369F0CD0164E670E0E9
:1023D0000E94DC326115710529F0842F90E06817A6
:1023E0007907E4F04091CA054423C9F054E6359FCB
:1023F000C0011124322F27FF02C031E0320F359582
:10240000830F911D37FD9A95622F220F770B0E9443
:10241000F032842F90E0681779070CF4C86080913F
:10242000C90580FD0BC08091CB0590E02091E604AA
:102430003091E7042817390708F4C061E130E1F46E
:102440008091960590919705A0919805B091990576
:102450000091C305002381F0BC01CD019F770E944C
:102460008930CB016AE070E00E94F032802F90E06A
:10247000861797070CF4C062809161059091620500
:102480002091FD05222371F064E670E00E94DC32A9
:102490006115710539F0822F90E06817790714F4FF
:1024A000C06405C0209719F410925B032AC0909174
:1024B0005B0381E09111890F80935B0380915B0343
:1024C0004FEF480F21E030E002C0220F331F4A9542
:1024D000E2F740E08B3020F0412F81E021E030E056
:1024E000B9016C237D23672B29F48F5F220F331FE3
:1024F000412FF0CF411180935B0380915B039817CC
:1025000099F2E0915B03EE2359F0F0E0EE0FFF1F2C
:10251000EA56F74F6591749181E794E00E94C02BD1
:10252000DF91CF911F910F910895A0E0B0E0EBE90A
:10253000F2E10C946133EC01FE0105911491011557
:10254000110509F468C0FE013296849181110E9440
:102550005408FE01339684913196E590F4908936C3
:1025600091F030F4813609F43CC08836C1F004C0E3
:102570008337E9F0863719F150E2D52E60E070E03C
:1025800080E89FE337C0F70160817181072E000C5E
:10259000880B990B0E94BC3040E2D42E32C0E091EF
:1025A0006505F09166053996D49027DE23C0E09149
:1025B0006505F09166053896D490B2DE1BC01DDE2D
:1025C0002091A60422FD14C0E0916505F0916605F6
:1025D0007296D49020E030E040E752E40E94D5317A
:1025E00009C031E4D32E6AE077ED83E29CE302C0B8
:1025F00028E1D22EF70120813181428153810E944E
:10260000D5312D2DAB01BC01C8010E94940A0E9456
:10261000C409279691CFCDB7DEB7E7E00C947D33A0
:102620008DEE92E082CFCF93DF93EC0148E06D2FE7
:102630000E9462086091490570914A0580914B059E
:1026400090914C0540E05AD80E94C4098DE691E073
:102650006CDF6D2F8BE08C0F0E9431086CE783E3F9
:1026600098E00E94F00ADF91CF910895CF92DF9217
:10267000EF92FF920F931F93CF938C016A017B011E
:10268000C22F4EDEA70196010E94D531C1110BC0A9
:10269000E0916505F09166053896C49120E030E040
:1026A00040E85FE305C0C8E126E636E646E650E4CA
:1026B0000E942130AB01BC012C2FC8010E94940A5A
:1026C000CF911F910F91FF90EF90DF90CF900895E1
:1026D00096FB222720F94091030550910405609153
:1026E0000505709106058AE992E0C0CF96FB222786
:1026F00020F94091FF04509100056091010570910F
:1027000002058AE992E0B2CF2FE632E143E85AE3CC
:102710000C94D531A4E0B0E0E0E9F3E10C9464332B
:1027200000915C0310915D0368DD9B01AC018AEFB1
:10273000809FB001819F700D1124072E000C880B23
:10274000990B2C8339834A835B830E94BC302C8194
:1027500039814A815B810E94D531E0916505F09114
:1027600066050832110554F03F9624912C83CCDF86
:10277000AB01BC012C8187E493E006C0399624911B
:10278000AB01BC018AE792E00E94940A2496E4E03F
:102790000C948033A4E0B0E0E0EDF3E10C945B3303
:1027A000782E8091BF058111E1C0C090FF04D090C8
:1027B0000005E0900105F090020520E030E0A9015D
:1027C000C701B6010E941A30882309F425C100917F
:1027D0005F0510916005A4DD9B01AC019091FE04A2
:1027E0008091A3049330E0F181FD03C08260809367
:1027F000A304B801012E000C880B990B29833A839E
:102800004B835C830E94BC304B015C0129813A817F
:102810004B815C81C701B6010E94D5319B01AC019F
:10282000C501B4010E94213020E030E040E251E4D3
:102830000E94D5316B017C010E9489306150710981
:102840006F30774208F0E8C077FC03C086E10E9451
:102850005408B701A60180EF91E00E94640ADCC031
:1028600081FF1BC010923C0510923D0510923E0561
:1028700010923F0540919205509193056091940507
:1028800070919505409356035093570360935803F6
:10289000709359038D7F8093A3042DEC3CEC4CE4A2
:1028A0005DEB609138057091390580913A05909102
:1028B0003B050E941A3087FF45C020915603309196
:1028C00057034091580350915903609192057091BC
:1028D000930580919405909195050E94532F20E0D7
:1028E00030E0A9010E94D5316B017C0186DC9B019F
:1028F000AC01C701B6010E94D5316B017C010E9479
:102900008930603187E2780724F41616170644F000
:1029100083C0C12C8CE3D82E8CE1E82E86E4F82EFF
:1029200077FC03C08EEE0E945408E0916505F0919B
:10293000660539962491B701A6018AE792E00E94C4
:10294000940A6AC080910D0590910E0597FF64C0AE
:102950008091A404882319F06FE273E002C06EE254
:1029600073E081E794E00E94C02B56C08091A104DF
:10297000882309F451C0B0905E050B2D10E08091C2
:102980005C05082E000C990B08171907D1F18091EE
:102990009C0482FD36C06091490570914A05809182
:1029A0004B0590914C050E94BA306B017C016B2D58
:1029B00070E080E090E00E94BA309B01AC01C7015A
:1029C000B6010E94D5316B017C0160915D05062E38
:1029D000000C770B601B710B072E000C880B990BFA
:1029E0000E94BC309B01AC01C701B6010E9421309E
:1029F0008BDE0E948E3070935B0560935A05B09217
:102A00005C0577FC03C087E10E94540880915A0559
:102A100090915B050E941C0A2496EDE00C9477339C
:102A20004091340550913505609136057091370518
:102A300096FF0CC08091240590912505A091260554
:102A4000B0912705481B590B6A0B7B0BCB01BA01D0
:102A50000E94BC3059DE43CCBC0180E090E00E9473
:102A6000BA3052DEAB01BC018EEC91E00C94640AEA
:102A70008091070697FD08C08062809307068091C9
:102A8000610590916205E8CF91E02091FD0521114B
:102A900001C090E090FB85F980930706089580912E
:102AA000630590916405D8CF2091FC043091FD041A
:102AB000260F311D3093B0042093AF048093AE04F1
:102AC0008091F4048093AD04089597FF03C0885962
:102AD0009E4F0895893621E0920714F08856914060
:102AE0000895CF93DF93EC010E9404292881398156
:102AF000CB01821B930BDF91CF91089524E0880FC7
:102B0000991F2A95E1F78C549F4F68E671E00E9467
:102B1000F032CB0101960895A0E0B0E0E2E9F5E1E2
:102B20000C946033C92F80E090E0CFDF8C01C0901F
:102B30009A05D0909B05E0909C05F0909D05C701FB
:102B4000B60190582AE037ED43E25CE30E94D531AC
:102B5000A70196010E94542F60939A0570939B05DC
:102B600080939C0590939D05C6FBDD27D0F92D2F02
:102B700040E050E0BA018AE992E078DD0E94C409A1
:102B800080910B0590910C059801281B390BC90108
:102B9000B5DF9C2F9072C5FD98E0890F0E94D50982
:102BA00040919A0550919B0560919C0570919D05FF
:102BB0002D2F80EA92E05ADDCDB7DEB7E8E00C9425
:102BC0007C33EF92FF921F93CF93DF9300D000D01E
:102BD000CDB7DEB7809159058A3009F057C0E09033
:102BE0007705F090780588EEE81683E0F80654F44F
:102BF00089E1E8168CEFF8064CF489E1E82E8CEFB9
:102C0000F82E04C097EEE92E93E0F92EE0916505C9
:102C1000F0916605399614916091850570E080E821
:102C200092E00E94E809E9DA212F40E050E0BA0181
:102C30008AE792E00E94940A0E94C4098091860566
:102C40009091870542DF20910B0530910C05821B86
:102C5000930B54DF0E94D509D0DA9B01AC01B70178
:102C6000FF0C880B990B29833A834B835C830E946A
:102C7000BC3029813A814B815C810E94D531AB0106
:102C8000BC01212F81E792E00E94940A0F900F90DF
:102C90000F900F90DF91CF911F91FF90EF900895CB
:102CA00080910B0590910C059195819591090DDF0F
:102CB000845B910990932905809328051FDF885F25
:102CC0000E94D509609128057091290588E192E05C
:102CD0000C94E809CF92DF92EF92FF92CF93DF93AB
:102CE000EC016A017B019A01AB01688179818A81DB
:102CF0009B810E941A3087FF04C0C882D982EA8271
:102D0000FB82DF91CF91FF90EF90DF90CF900895FD
:102D1000CF93DF93EC019A01AB01688179818A81BD
:102D20009B810E94542F688379838A839B83DF91E0
:102D3000CF910895A0E0B0E0E0EAF6E10C945833BA
:102D400085E495E0CEDEEC0160E070E085E495E09E
:102D50002EDABE0189E495E041DABE0180E090E020
:102D60000E94BA30D1DC6B017C0147DA2B013C01B7
:102D70008090960590909705A0909805B090990541
:102D800020E030E040E752E4609138057091390569
:102D900080913A0590913B050E94D531A3019201A3
:102DA0000E94D531A50194010E94532F2DEC3CECDB
:102DB0004CEC5DE30E94D531A50194010E94542F93
:102DC0006093960570939705809398059093990565
:102DD00020915E0580915D05082E000C990B422F15
:102DE00050E08417950714F420935D058091A504A5
:102DF00082FF15C08091A104882389F02091FF04EF
:102E0000309100054091010550910205C701B601BE
:102E10000E94D531AB01BC0182E995E079DF609178
:102E20005F0570916005072E000C880B990B0E94BE
:102E3000BC3021E63BE046E35BE30E94D531A701CD
:102E400096010E94D531AB01BC018EE895E060DFB0
:102E50008091E8049091E9042091C90520FD5EC0AD
:102E60000091030610910406C0910506D091060654
:102E7000C017D10740F4302F212F8E01C32FD22F3E
:102E8000FF24F39401C0F12C98010817190708F4E6
:102E90009C01BE012C173D0708F4B90180E090E0C9
:102EA0000E94BA304B015C01B80180E090E00E94C2
:102EB000BA309B01AC01C501B4010E94532F4B01F4
:102EC0005C01BE01601B710B80E090E00E94BA3093
:102ED0009B01AC01C501B4010E94213020E030E02B
:102EE00048EC52E40E94D5310E9489306536710564
:102EF00028F47093E7046093E60406C084E690E04B
:102F00009093E7048093E604FF2061F02091E604AB
:102F10003091E70484E690E0821B930B9093E704E2
:102F20008093E6048091BF05811104C08091A304C1
:102F300082FD05C08091A104882309F458C06091E6
:102F400018057091190580911A0590911B050E9432
:102F5000BC30AB01BC018AEB95E0BCDE40910305BF
:102F600050910405609105057091060586EB95E08A
:102F7000B1DE4091FF045091000560910105709110
:102F8000020582EB95E0A6DE409107055091080509
:102F90006091090570910A058EEA95E09BDE40E09C
:102FA00050E0BA018AEA95E095DE60915F05709184
:102FB0006005072E000C880B990B0E94BC30AB01FA
:102FC000BC0186EA95E086DEC0903805D0903905D0
:102FD000E0903A05F0903B05B701A60182EA95E042
:102FE00079DEB701A60170588EE995E073DECDB7A2
:102FF000DEB7E0E10C947433CF93DF93EC01CB01A7
:10300000BA010E94BC3025E93FEB46ED53E30E9434
:10301000D531688379838A839B83DF91CF9108952B
:103020000E9404296093F6047093F7048093F804D7
:103030009093F9048091FC049091FD049093FB041B
:103040008093FA04EBE9F4E081E0808382830895C1
:103050008AEA90E00C945A290E94742B811101C0D5
:10306000F7CF089590919C04892F817090FF05C03F
:1030700090919A0481E0911180E00895A8E6B4E06F
:10308000EC918E27E82FF0E0ED5DF64FE491EC93A4
:1030900008958F929F92AF92BF92EF92FF920F93FB
:1030A0001F93CF93DF93FF24F39487E0E82E0AE089
:1030B00010E00E94742B882309F49BC30E94832B89
:1030C000C82FD09169048D2F90E08930910508F0C8
:1030D000C1C0FC01EC5CFF4F0C944133C093600312
:1030E00020915F033091600380916B0490916C0498
:1030F0002817390730F5CC3311F0D1E0ABC010926E
:1031000068048CE3BBDF10936C0400936B04D2E083
:10311000A1C08C2FB3DF8C2F887F803261F7C093E2
:103120005E0310926A04D3E095C08C2FA7DF8091D4
:103130006A048F5F80936A04823080F6C0935F03D5
:1031400089C081509F4F82179307A8F210926A049A
:10315000D4E080C08C2F92DFE0916A04EF5FE093AF
:103160006A04E13008F476C0E43048F0E43009F055
:1031700071C0C093640310926A04D5E06BC0F0E0A4
:10318000E05AFC4FC08366C08C2F78DF80916A04C0
:103190008F5F80936A04813019F0823021F05AC029
:1031A000C093650357C0C093660320915F033091BD
:1031B000600380916B0490916C042817390749F0E3
:1031C000D0915E03DD1FDD27DD1F2E2D2D1BD22F9D
:1031D00001C0D8E010926A043DC08C2F4FDF80916F
:1031E0006A048F5F80936A04813041F0823091F5E8
:1031F000C093680310926A04D7E02CC0C0936703A1
:1032000029C08C2F3BDFE0916A0481E08E0F809310
:103210006A04F0E0E25AFC4FC38790E020915F031C
:103220003091600340916B0450916C04241B350B6A
:103230008217930778F010926A04D8E00BC080914F
:103240006804C81358CFF092690480915F0381111C
:1032500004C0CDC2D0936904CAC280919C0484602A
:1032600080939C04DDDE8091610390916203A091C4
:103270006303B0916403863E26EA920726E2A20722
:103280002DE7B20709F4DFC108F070C0823D22ECDF
:10329000920722E8A2072EE1B20709F428C198F5A7
:1032A00084302AE9920727EDA2072EE0B20709F43D
:1032B00011C180F486312AEA920727E3A2072BE0A6
:1032C000B20709F407C184359447A54CBB4009F403
:1032D00009C28AC28E3C28E4920727E5A2072AE1A8
:1032E000B20709F4B0C184372BEE92072AE7A20790
:1032F0002BE1B20709F4EEC088399C42AA41B641DD
:1033000009F4F5C071C2863E25ED92072AEDA207A9
:1033100023E3B20709F4A2C080F48C3921EB9207B1
:1033200025EAA2072EE1B20709F443C2823593428F
:10333000A649B64209F4E8C157C2863A2EE0920780
:1033400022E1A20728E4B20709F415C2823E25E56E
:1033500092072CE9A20726E6B20709F425C28A39AA
:103360009F45AD48B34409F429C23EC280322EE4E1
:10337000920729EAA20721EBB20709F415C298F5D2
:1033800082352AEE920720E8A2072AE8B20709F45C
:10339000A1C080F480382CED920725E4A20722E832
:1033A000B20709F49FC1843E9C42A540B64809F487
:1033B00091C01AC28E3722E192072AE6A2072BE9B2
:1033C000B20709F487C08A3726EF920721EFA207D8
:1033D0002DE9B20709F437C18A369E42A246B9499F
:1033E00009F002C2C8C184352DE292072FEFA2076F
:1033F00025ECB20709F46EC0C8F48A3B24E89207B2
:1034000025E2A2072EEBB20709F4CEC1803824E7EB
:10341000920720E1A20724ECB20709F4BCC08A3865
:10342000974FA74CB84B09F0DFC161C0843629ED36
:10343000920720EEA20727EDB20781F0863B23E238
:10344000920723EAA20722EEB20709F4FCC08639EC
:103450009543A840B24D09F457C1C6C160917903A4
:1034600070917A0380917B0390917C030E94893054
:103470007093100560930F0560917D0370917E033A
:1034800080917F03909180030E94893070930E0594
:1034900060930D0560918103709182038091830395
:1034A000909184030E9489307093120560931105F6
:1034B00080902C0590902D05A0902E05B0902F05A2
:1034C00089288A288B2809F08FC170930C05609396
:1034D0000B058AC181E090916903911101C080E0E0
:1034E0008093A10480916A03809359057DC120E0F7
:1034F00030E048EC52E46091690370916A03809176
:103500006B0390916C030E94D5310E948930693C15
:1035100018F46093FE0402C01092FE0480918303AD
:103520009091840390936C0580936B058091850343
:103530009091860390936805809367058091870337
:103540009091880390936A0580936905809189031F
:1035500090918A0390936E0580936D0580918B0303
:1035600090918C039093700580936F0580918D03EB
:1035700090918E03909372058093710580918F03D3
:1035800090919003909374058093730580919103BB
:103590009091920353C020E030E048EC52E46091F7
:1035A000690370916A0380916B0390916C030E9490
:1035B000D5310E948930693C18F46093FE0402C042
:1035C0001092FE04809181039091820390936C0588
:1035D00080936B0580918303909184039093680599
:1035E00080936705809185039091860390936A0587
:1035F00080936905809187039091880390936E056D
:1036000080936D058091890390918A039093700552
:1036100080936F0580918B0390918C03909372053A
:103620008093710580918D0390918E039093740522
:103630008093730580918F0390919003909376050A
:1036400080937505D1C04091690350916A036091E0
:103650006B0370916C038CE295E0CEDC40916D03BE
:1036600050916E0360916F037091700380E395E059
:10367000C3DC80918E0380932B0580918D03809312
:103680002A056091790370917A0380917B03909170
:103690007C030E94893070930C0560930B05609148
:1036A00071037091720380917303909174030E946F
:1036B0008930609334057093350580933605909377
:1036C000370580917D0390917E03A0917F03B09197
:1036D00080038093FF0490930005A0930105B093AD
:1036E000020582C08091710390917203A0917303CF
:1036F000B0917403B0588093380590933905A09326
:103700003A05B0933B0570C0C0910706C4FD0EC0DA
:103710006091690370916A0380916B0390916C03CF
:103720000E948E307093640560936305C6FD14C0DB
:1037300020E030E048EC52E460916D0370916E033C
:1037400080916F03909170030E94D5310E9489305F
:103750007093600560935F056091810370918203AF
:1037600080918303909184030E94893070935B055C
:1037700060935A0539C06091690370916A03809122
:103780006B0390916C030E948930072E000C880B0C
:10379000990B0E94BC3060930705709308058093D5
:1037A000090590930A0520C08091C9038093EA041B
:1037B0001BC0809169038093850516C080917D03AD
:1037C000882391F06091750370917603072E000CA9
:1037D000880B990B0E94BC3060930305709304051D
:1037E00080930505909306053DDC811103C034DC10
:1037F00060CC80E0DF91CF911F910F91FF90EF900F
:10380000BF90AF909F908F90089580910B059091FD
:103810000C05880F991F8D966AE570E00E94F032C2
:1038200077FF03C0685F7F4FFBCF67707727FB018F
:10383000E75AFC4F8491089587FD03C0E6DF0E949C
:10384000540860910B0570910C058CE692E00C9485
:10385000E809A4E0B0E0EFE2FCE10C9458334C013D
:10386000D92C96FE0BC015E019C0133001F585EC7C
:103870000E9454080E94C4091150D9F4CC24C39466
:10388000C80C692D8C2D0E946C0E26E0B22EB80C4F
:1038900032E0A32EA90C94FECBC00FC082EB0E9495
:1038A00054080DE0015009F30E94D309FBCF83EBCC
:1038B000DFCF133099F786ECF2CF00911505109108
:1038C0001605E0901305F0901405C80117FF04C019
:1038D00088279927801B910B6AEF70E00E94F032D5
:1038E000362F272FC701F7FE04C0882799278E1986
:1038F0009F096AEF70E00E94F032832F922F8617A3
:1039000097070CF4CB01BC016F5F7F4F70935D0391
:1039100060935C03072E000C880B990B0E94BC304F
:103920002B013C01B701FF0C880B990B0E94BC30A6
:1039300069837A838B839C8324EE38E34EE552E4DB
:10394000C301B2010E94D5319B01AC0169817A812A
:103950008B819C810E9421300E948930F62EE62EB8
:10396000B801012E000C880B990B0E94BC306983B2
:103970007A838B839C832DE63BED4EE052E4C301BA
:10398000B2010E94D5319B01AC0169817A818B81A2
:103990009C810E94213020E030E040E05FE30E9403
:1039A000542F0E948930562E86FC09C02EDF6A2DC6
:1039B0006F19482F8B2D850D0E94620839C08091A8
:1039C000EB04681304C08091EC04F816E1F08091D8
:1039D000EF049091F0049093F2048093F1048091AD
:1039E000ED049091EE049093F0048093EF048091A5
:1039F000EB049091EC049093EE048093ED045092CC
:103A0000EB04F092EC0401EF14E09BEE692E94E0DD
:103A1000792EF80181816A2D681B808144E28B0D2B
:103A20000E946208025011096016710691F7BECF1C
:103A300087FC0AC06A2D8B2D0E9431086FEB71E064
:103A400081E794E00E94C02B95FEC1C08091A10443
:103A5000882309F4BCC08091BF05811185C06091A5
:103A600018057091190580911A0590911B050E9407
:103A7000BC309B01AC0160E070E0CB010E94C72F1D
:103A800021EE3EE245E652E40E94D5310E948930A3
:103A90006A5071092DE2269FC001279F900D1124C5
:103AA0006AE070E00E94F032CB01469669E070E077
:103AB0000E94F032663078F400ED081B192D160FC5
:103AC000402F612F8CE0880D0E946208402F612FEB
:103AD0008C2D0E9462088091170590E020910D01C5
:103AE00030910E01821B930B0E946515853B910559
:103AF00034F028E631E0A901481B590BCA019C01AA
:103B0000245B310948E4429FC001439F900D11247A
:103B10006AE070E00E94F032CB01849666E070E0CB
:103B20000E94F032962F64E0690D97FF06C04CE3C7
:103B30008C2D0E9462084CE314C09D3054F01CE0B0
:103B4000180D4EE3812F0E9462084EE3692D812FEC
:103B50003CC01FEB180FC90E412F8C2D0E9462082C
:103B6000412F692D8C2D31C00E94FD102091070539
:103B7000309108054091090550910A050E94D53100
:103B800020E030E040EA50E40E94542F2DEC3CEC61
:103B90004CE850E40E94D5310E948930862F9FEF77
:103BA000960F9B3240F469E00E94CF324FEC491BE4
:103BB000D92CD80E08C06C322CF084E0D82ED90C49
:103BC0004EE201C04FEC6D2D8B2D0E9462082496B1
:103BD000E0E10C947433ACE0B0E0E1EFFDE10C9473
:103BE00056330E94AE070E9404296B017C0180912C
:103BF000BF051091A104811118C0112321F18091FA
:103C0000A30482FF20C06091FF04709100058091A1
:103C10000105909102050E948930623071055CF4C3
:103C20008091FE04823038F40EC011110CC08091D6
:103C3000A204882341F0C0927905D0927A05E092DF
:103C40007B05F0927C051093A204809102068530DA
:103C500018F084E08093020686EF94E00E947115CC
:103C6000853C994018F163E085E00E94310860913D
:103C7000FC047091FD048091FA049091FB04681B90
:103C8000790B8CEA91E00E94E8094091060150917D
:103C9000070160910801709109012AE030E081E795
:103CA00094E00E94F02A83E095E02FC08091A10467
:103CB00081112EC08091790590917A05A0917B05A4
:103CC000B0917C05892B8A2B8B2B11F189E795E02C
:103CD0000E947115883B9B40D8F4609192057091C9
:103CE000930580919405909195050E9489306630E6
:103CF000710574F081E08093A7040E943E098091D1
:103D0000F3048093800481E091E00E941313A1C228
:103D10008091A7048823D9F1809180049091F304C5
:103D2000891721F08093F3041092A70482E00E9487
:103D30005309092E000CAA0BBB0BB7FF07C0B095A7
:103D4000A095909581959F4FAF4FBF4F8D32914079
:103D5000A105B1050CF07AC283E00E945309092E37
:103D6000000CAA0BBB0BB7FF07C0B095A0959095B0
:103D700081959F4FAF4FBF4F8D329140A105B10547
:103D80000CF064C28091A104811160C2BCCF80910B
:103D90000206882321F09091F304981718F481E625
:103DA00093E051C28091A10481114BC21D821E82F9
:103DB0001F82188640917F04842E912C85E0489FB5
:103DC000A0011124FA01EF5EFB4F8591949190932D
:103DD000760480937504FA01ED5EFB4F14910E9406
:103DE0003E09A12CB12C00E0712C1A861B86612C97
:103DF0001986C12C101709F4B6C0DD24D394D00E57
:103E0000E0907504F0907604EA0CFB1CF7014590F5
:103E100054906D2D81E00E943108B20181E794E059
:103E20000E94C02B6D2D83E10E9431088091050115
:103E3000081306C08EE30E945408C090140302C009
:103E40000E94D309F70132968491319624912C87F0
:103E5000833609F442C060F48A3509F43CC08236E6
:103E600089F1811169C09EE0A90EB11C0D2DC2CF50
:103E70008836D1F088F4863609F05EC0F7013496B2
:103E8000A591B4918D919D910D90BC91A02D8D83A4
:103E90009E83AF83B88750C0833709F443C08A3705
:103EA00009F04AC080E118C080911203803419F4EF
:103EB0006CE471E002C064E471E081E794E00E9488
:103EC000C02BD1CFF7013496A591B4916C9170E0DD
:103ED00080E090E011C080E28987F7013496A591D7
:103EE000B4916C91062E000C770B9985691B7109B2
:103EF000072E000C880B990B0E94BC301B012C0173
:103F00002C85622F70E080E090E00E94BA309B0127
:103F1000AC01C201B1010E9421306D837E838F8389
:103F200098870AC0F70134966591749144E050E097
:103F3000CE0105960E94670980910501BD81AE8181
:103F40003F812885081304C07B2EAA873B87622EF9
:103F5000F7013896859194914B2F5A2F632F722F2A
:103F60000E94640A80CF85E0889DF001899DF00D54
:103F70001124EC5EFB4F85919491009711F0FC01A8
:103F800009958091A50483FF64C1877F8093A50470
:103F900001E000939B0481E00E9453098739910559
:103FA00014F081E004C08A369F4F24F48FEF0E9402
:103FB0000F094FC183E00E945309873991055CF0D6
:103FC0000093050180917F04823019F410927F04E0
:103FD00040C18F5F0CC08A369F4F64F40093050187
:103FE00080917F04811102C082E001C081508093E2
:103FF0007F042FC1609105016F5F8C2D0E943108F5
:1040000080910501E0907504F09076049EE0899F10
:10401000E00CF11C112480E00E9453096C0197FF11
:1040200006C0D194C194D1088824839401C0812C06
:10403000F7013496A590B490F70132960491319629
:104040009490872D9A85AB85B62D8D839E83AF8303
:10405000B887043630F4023660F40A3509F04AC0F5
:1040600008C0033771F10A3721F0063609F042C063
:1040700028C0EDE2CE16E1E0DE0684F0692D70E0A6
:1040800080E090E00E94BA309B01AC0160E070E0FB
:1040900080E291E40E94213011E04AC0F7E9CF1696
:1040A000D10464F1692D70E080E090E00E94BA30A4
:1040B0009B01AC0160E070E080E89FE30E9421304A
:1040C00020C021E9C21621E0D2066CF58DE2C816A7
:1040D00081E0D806C4F499ECC916D104CCF414E0FC
:1040E000E5E6CE16D1040CF45CC06FE672E183E81D
:1040F0009AE31EC060E070E0CB010FC060E070E0AA
:10410000CB0111E00AC06DEC7CEC8CEC9DE304C0AB
:104110006AE077ED83E29CE314E0F5E6CF16D10484
:104120000CF43FC005C060E070E080E89FE314E05D
:1041300081109058AB01BC01CE0105960E948816F3
:10414000F7013A9665917491F7013C96C590D49029
:10415000072E000C880B990B0E94BC301B012C0110
:104160002D813E814F8158850E94CA31181624F452
:104170002D823E824F825886B6010D2C000C880B92
:10418000990B0E94BC301B012C012D813E814F8177
:1041900058850E941A3087FF04C02D823E824F82CC
:1041A00058862D803E804F805884A2019101672D52
:1041B0007A858B85962D0E941A30882309F449C090
:1041C000692D70E080E090E00E94BC30A201910176
:1041D0000E94D5310E9489300336A9F028F40A35AF
:1041E00079F0023681F01CC0033781F00A3751F0B4
:1041F0000636B1F4F501208231824282538210C02A
:10420000605E01C0605FF50160830AC029823A8266
:104210004B825C8244E050E0B501CE01019606C0BD
:10422000412F50E0B5016B5B7340C5010E94150B37
:10423000F701369685919491009759F0FC01099504
:1042400008C089E094E00E94B90B03C01092A70453
:104250005ACD2C96E2E10C9472331F920F920FB656
:104260000F9211242F933F934F935F936F937F93FC
:104270008F939F93AF93BF93EF93FF9310929A0402
:10428000809199048F5F8093990480915A038111E2
:1042900014C08091AC04882381F080915A038F5F11
:1042A00080935A0378940E947108F8941092AC0499
:1042B00080915A03815080935A03FF91EF91BF91EF
:1042C000AF919F918F917F916F915F914F913F91AE
:1042D0002F910F900FBE0F901F901895CF92DF92E5
:1042E000EF92FF929DD76B017C0183E00E94E4294D
:1042F000813049F4C0929204D0929304E0929404E5
:10430000F09295041FC08091920490919304A09123
:104310009404B09195040097A105B10599F0C81ACD
:10432000D90AEA0AFB0AD0929704C0929604109226
:10433000920410929304109294041092950481E0D8
:1043400080939804FF90EF90DF90CF90089566E9F6
:1043500070E080E090E089C765E085E00E94310868
:1043600068E673E081E291E00E94E8094DD74AE0F7
:1043700050E081E794E00E94FD2A8091D5058F34BA
:1043800021F48091D6058A3159F061E081E00E94E4
:1043900031086091D50570E084E091E00E94E80961
:1043A000D6DF0C9471081F920F920FB60F92112452
:1043B0002F933F934F935F936F937F938F939F932D
:1043C000AF93BF93EF93FF9389DFFF91EF91BF917D
:1043D000AF919F918F917F916F915F914F913F919D
:1043E0002F910F900FBE0F901F9018950FB6F89455
:1043F000A8958091600088618093600010926000B1
:104400000FBE60E071EE80E090E00E94342B42E04D
:1044100050E060E072E087E096E00E94670948E4BF
:1044200050E064E072E08FEB95E00E9467098091B4
:10443000070681FD03C086E39AE002C083E29AE0AA
:10444000909366058093650584B58C7F84BD83E079
:104450000E945C2A0E944B10809169008C7F8260D0
:1044600080936900E89A8091C005813051F462E040
:1044700083E04ED780916900837F846080936900D8
:10448000E99A5E9A0E94710878948091D7058833E2
:1044900041F48091D805873321F48091D905823386
:1044A00089F088E38093D70587E38093D80582E37A
:1044B0008093D90543E050E06CE172E087ED95E030
:1044C0000E94150B80910006882391F0E09101066F
:1044D000EE2371F0F0E0E15CFE4F84918093910453
:1044E000882331F061E014D760E0809191044CD7CB
:1044F0000E94180831DF1092E504109249051092CD
:104500004A0510924B0510924C050895E091030165
:10451000EF5FE0930301E770F0E0EE0FFF1FEA5B4F
:10452000FC4F9183808388E060E070E08150E82F49
:10453000F0E0EE0FFF1FEA5BFC4F20813181620F3C
:10454000731F8111F3CF80E090E00E94BA3020E029
:1045500030E040E05EE30C94D531CF92DF92EF92F1
:10456000FF92CF93DF938091070684FD05C0809171
:104570008504882309F4AAC0C0910201CF5FC093CB
:10458000020180E19CD7C770EC2FF0E0EE0FFF1F17
:10459000EA5CFC4F9183808388E0C0E0D0E08150EA
:1045A000E82FF0E0EE0FFF1FEA5CFC4F2081318125
:1045B000C20FD31F8111F3CF2091890430918A0457
:1045C00047E0429FC001439F900D11248C0F9D1F17
:1045D00023E0969587952A95E1F790938A04809336
:1045E00089048091070684FF71C029E53EEE49E009
:1045F00050E46091DD057091DE058091DF059091BA
:10460000E0050E94D5316B017C01BE0180E090E0A5
:104610000E94BA309B01AC01C701B6010E94D5319E
:104620000E948E30409163055091640541155105FB
:1046300029F4709364056093630512C09A01220FF8
:10464000331F240F351F2E5F3F4FA901460F571F01
:104650005695479556954795509364054093630545
:1046600081E080939B04E091C4058E2F61E20E945B
:10467000C332482F8091630590916405C29664E629
:1046800070E00E94DC32F0E09B012E1B3F0BAFEF8D
:10469000B0E00E9447335AE2459F900111242E1B3F
:1046A0003F0B032E000C440B550B0E94253337FFA4
:1046B00003C010925E050AC02F3F310529F024F097
:1046C0008FEF80935E0502C020935E058091070600
:1046D00085FD05C080918604882309F474C0C091CB
:1046E0000101CF5FC09301018EE0E9D6C770EC2FC6
:1046F000F0E0EE0FFF1FEA5DFC4F9183808388E0BE
:10470000C0E0D0E08150E82FF0E0EE0FFF1FEA5D3F
:10471000FC4F20813181C20FD31F8111F3CF209133
:104720008B0430918C0447E0429FC001439F900D61
:1047300011248C0F9D1FA3E096958795AA95E1F70C
:1047400090938C0480938B048091070685FF3BC077
:1047500029EA3CEC48E050E46091E1057091E20503
:104760008091E3059091E4050E94D5316B017C01B5
:10477000BE0180E090E00E94BA309B01AC01C7010D
:10478000B6010E94D5310E948E3040916105509152
:1047900062054115510529F4709362056093610526
:1047A00012C09A01220F331F240F351F2E5F3F4F77
:1047B000A901460F571F5695479556954795509313
:1047C0006205409361058091070686FD05C08091D2
:1047D0008704882309F480C080918304882349F0EA
:1047E00020E137E240E050E061E08FE033D6CB01DA
:1047F00002C08FE064D6E0910001EF5FE09300011A
:10480000E770F0E0EE0FFF1FEA5EFC4F91838083BC
:1048100088E0C0E0D0E08150E82FF0E0EE0FFF1F0D
:10482000EA5EFC4F20813181C20FD31F8111F3CF8B
:1048300020918D0430918E0447E0429FC001439F38
:10484000900D11248C0F9D1F33E0969587953A9516
:10485000E1F790938E0480938D048091070686FF84
:104860003BC02DE032E348EC5CE36091E5057091DC
:10487000E6058091E7059091E8050E94D5316B012E
:104880007C01BE0180E090E00E94BA309B01AC0147
:10489000C701B6010E94D5310E948E3040915F055C
:1048A000509160054115510529F47093600560939E
:1048B0005F0512C09A01220F331F240F351F2E5F90
:1048C0003F4FA901460F571F569547955695479557
:1048D0005093600540935F058091C90586958230AD
:1048E00099F040F4882369F1813009F05FC081E1DB
:1048F000E6D512C0833049F1843009F057C0809169
:1049000075059091760523C020E23EE440E050E03A
:1049100061E081E19FD5CB01F9DD2091E90530917E
:10492000EA054091EB055091EC050E94D5310E94BB
:104930008E307093E9046093E80481E080939B04D7
:1049400035C08091EA0490E002C080E090E0DEDDB6
:104950000E948E307093E9046093E804809188048B
:10496000882321F180918404882341F020E137E2FB
:1049700040E050E061E081E16DD503C081E19FD569
:10498000BC0120918F043091900447E0429FC00108
:10499000439F900D1124680F791F83E076956795EA
:1049A0008A95E1F77093900460938F04DF91CF9123
:1049B000FF90EF90DF90CF9008951F93CF93DF93F8
:1049C00020919104222321F1E0910006F0E0EE0F06
:1049D000FF1FE159FA4F8081918130E0F901E35ADC
:1049E000F54F1491F901EF58F54FE491F0E0EE0F17
:1049F000FF1FE157F54FC591D491F8942881212BE1
:104A0000288358D48881E12FE095E823E8837894BF
:104A1000DF91CF911F91089581E794E00E947C0778
:104A20008DE694E019D6E5E2F4E088E992E097A7F4
:104A300086A78CE992E095AF84AF80EB92E09093EB
:104A4000700480936F0484EB92E090937E048093D3
:104A50007D0488EC92E090938C0480938B048CEC22
:104A600092E090939A04809399040895A4E0B0E0B2
:104A7000ECE3F5E20C945833A895C6D36B017C01A6
:104A800028EE33E040E050E00E9403333093FD0411
:104A90002093FC0424E1C21625E0D206E104F104CF
:104AA00008F07FC021D6882309F479C02CD68A303B
:104AB00031F48091E5048F5F8093E50402C0109289
:104AC000E5048091E504843068F38CB583608CBD87
:104AD0006FEF70E08DE694E053D6B12CE12CF12C11
:104AE000912CA12CE9EFCE2EE0E0DE2E0DE614E0B5
:104AF0003FEFE316F10411F00CF04BC0F5D588231D
:104B0000B9F301D6823338F48033D8F48A3081F394
:104B10008D3039F023C0823709F5A1E0EA1AF10897
:104B20001DC088E0981219C0EA2DF0E0E25AFC4F4F
:104B30008081B826A394EA2DF0E0E25AFC4F10825F
:104B40000CC0EA2DF0E0E25AFC4F9081990F8133BE
:104B500009F49F5F9083939401C0912CB0E4AB1251
:104B6000C7CF6EE573E0C7010E949508EFEFEE1A1C
:104B7000FE0A1F92BF92DF92CF921F930F932AD605
:104B80000F900F900F900F900F900F90B12CA12CC1
:104B9000AFCF65EF70E08DE694E0F2D5E7C2DCDBE5
:104BA000E5C280919C0482FD86C080E4EEE5F3E0DE
:104BB000DF011D928A95E9F78091F50465E00E9476
:104BC000C332913021F0923009F475C076C089D596
:104BD0001BD34B015C01B4E68B0E911CA11CB11CD4
:104BE0000AEF1FEF11D386169706A806B906A0F0A4
:104BF00024EC39E040E050E060E080E02BD46F3FEF
:104C000071058105910509F02CF4662319F06117EF
:104C100008F4162F015031F71F3F19F410910401C9
:104C200002C0109304011B3088F01331B0F01D3125
:104C3000D0F01832F0F01C3318F1163938F570E85E
:104C4000872E75E2972EA12CB12C26C0812C62EC08
:104C5000962EAA24A394B12C1FC0812C51EE952E20
:104C6000A12CB12C19C0812C46E9942EA12CB12C79
:104C700013C030E8832E30E7932EA12CB12C0CC04A
:104C8000812C2BE4922EA12CB12C06C090EC892E05
:104C900092E1992EA12CB12C8092060190920701ED
:104CA000A0920801B09209018DE694E0CCD4C50130
:104CB000B401DAD402C00E94491880919B04882371
:104CC00009F4DEC0E091C005E33008F4CDC0B09037
:104CD000F304E33029F480919604909197043BC04B
:104CE0008BEF8E0F843040F4F0E0EE0FFF1FEB5996
:104CF000FA4F808191812FC0809175059091760542
:104D0000E43049F5809159059AEF980F923008F4F4
:104D100071C090914405891789F08093440560E043
:104D200070E080E495E00E94D71090914405809156
:104D30000A01981303C081E080939E0480E495E00B
:104D40000E947115813D974008F454C08091590527
:104D500080930A014FC02091C505211118C06091B0
:104D600002068D34F4E09F0760F09C012C5434401F
:104D700070E080E293E00E94F032C9010E94DC32D0
:104D800001C060E0B616B1F16093F30433C0209126
:104D9000070620FF13C0815B94408730974020F4C2
:104DA00081E080939F0426C080919F04882319F09E
:104DB00081E080939E0410929F041CC08D5D9540FD
:104DC0008B3D9540B8F420D20091400510914105EB
:104DD0002091420530914305061717072807390728
:104DE00048F481E080939E0464EF71E080E495E0F4
:104DF0000E94D71080919E04882369F010929E042F
:104E00008091F3048F5F8093F304909102069817CA
:104E100010F41092F3048091F304B81629F191E094
:104E200090939B0498E0E7E7F4E0DF011D929A95E8
:104E3000E9F79091A80490FD12C0A1EBB4E0ECEE6C
:104E4000F0E094919D9331969111FBCF9091B8042D
:104E5000890F8093B80463E088E00E945415809124
:104E6000A8048E7F8093A80480919C0480FD06C0D6
:104E7000816080939C0481E080939A0410929B044B
:104E800080919C0480FF34C090919A04911130C0AD
:104E90008E7F80939C0490912A05992329F080911C
:104EA000A60482608093A6048091BF05882309F43C
:104EB000ADC08091A1048111BFC08091A50482FD85
:104EC000C8C0933070F08CE0ECE2F5E0ACE1B5E006
:104ED00001900D928A95E1F78091A50484608093FA
:104EE000A5040E949A160E94EB1D81E08093AC04F9
:104EF0008091550590915605A0915705B0915805A0
:104F00008C159D05AE05BF0538F464E170E085E5BC
:104F100095E00E94EE1051DD80915105909152056F
:104F2000A0915305B09154058C159D05AE05BF05A4
:104F300050F564E670E081E595E00E94EE100DDB2F
:104F40008091A50484FB222720F991E0922790FB11
:104F500084F98093A5049923B1F08091AB04882350
:104F600069F08F5F8093AB04833068F08091F40424
:104F70008F5F8093F4041092AB0405C08091F40419
:104F80008F5F8093F40480914D0590914E05A09120
:104F90004F05B09150058C159D05AE05BF0508F075
:104FA000E5C064EF71E08DE495E00E94EE1081E0D1
:104FB00080939B049091A50498609093A504909190
:104FC000F5049F5F9093F5049091A4048927809342
:104FD000A404882309F4CAC08091A004816080934E
:104FE000A00480919904853060F48091BE058F5FA4
:104FF0008093BE05843038F00E94F6070E94710845
:1050000002C01092BE0510929904B0C08091FE04B7
:10501000833308F44ECF20910D0130910E012037DB
:105020003E4F09F046CF20910B0530910C0530938F
:105030000E0120930D013DCF8091A30480FD3DCF53
:105040002091A5042B7F2093A50481608093A30465
:1050500034CF80901C0590901D05A0901E05B09047
:105060001F05C501B4019F7725E33AEF4EE85CE3E5
:105070000E94D531E3D72B013C0120912C053091C2
:105080002D0540912E0550912F05C501B4010E94B8
:10509000300B4B015C01209130053091310540917E
:1050A0003205509133056091200570912105809162
:1050B0002205909123050E94300B9B01AC01C30196
:1050C000B2010E94D5312B013C01A5019401C5011B
:1050D000B4010E94D53169837A838B839C83A301B9
:1050E0009201C301B2010E94D5319B01AC016981DB
:1050F0007A818B819C81D8D60E943C320E94893073
:10510000609318057093190580931A0590931B05F9
:10511000C501B4019F77FDD77093160560931505FF
:10512000C301B2019F77F5D77093140560931305FF
:10513000A30192015058C501B40129D720EE3EE2E7
:1051400045E652E40E94D531E4D76A557109809151
:105150000B0590910C05FB01E81BF90BCF010E9498
:1051600065150E947E1580931705BBCE2496E0E15D
:105170000C9474331F920F920FB60F9211242F9339
:105180003F938F939F93AF93BF9380910A06909123
:105190000B06A0910C06B0910D063091090623E094
:1051A000230F2D3720F40196A11DB11D05C026E85F
:1051B000230F0296A11DB11D2093090680930A06B4
:1051C00090930B06A0930C06B0930D0680910E06EB
:1051D00090910F06A0911006B09111060196A11DA5
:1051E000B11D80930E0690930F06A0931006B09306
:1051F0001106BF91AF919F918F913F912F910F9089
:105200000FBE0F901F9018952FB7F89460910A0663
:1052100070910B0680910C0690910D062FBF08959A
:105220003FB7F89480910E0690910F06A09110065A
:10523000B091110626B5A89B05C02F3F19F0019625
:10524000A11DB11D3FBFBA2FA92F982F8827820F0C
:10525000911DA11DB11DBC01CD0142E0660F771F5C
:10526000881F991F4A95D1F70895CF92DF92EF9248
:10527000FF92CF93DF936B017C01D2DFEB01C1146E
:10528000D104E104F10479F0E4D0CADF6C1B7D0B9A
:10529000683E7340A0F381E0C81AD108E108F10824
:1052A000C851DC4FECCFDF91CF91FF90EF90DF90B2
:1052B000CF9008958230910538F0880F991F880F9C
:1052C000991F05970197F1F70895789484B5826046
:1052D00084BD84B5816084BD85B5826085BD85B59A
:1052E000816085BDEEE6F0E0808181608083EAE741
:1052F000F0E080818460808380818260808380810F
:10530000816080838081806880831092C1000895CD
:10531000CF93DF9390E0FC01E35AF54F2491FC0119
:10532000EF58F54F8491882361F190E0880F991F21
:10533000FC01E756F54FC591D491FC01E157F54FBB
:10534000A591B491611109C09FB7F8948881209507
:1053500082238883EC912E230BC0623061F49FB7C7
:10536000F8948881322F309583238883EC912E2BFB
:105370002C939FBF06C08FB7F894E8812E2B28830B
:105380008FBFDF91CF91089590E0FC01E35AF54F74
:105390002491FC01EF58F54FE491EE23A1F0F0E0E9
:1053A000EE0FFF1FE157F54FA591B4919FB7F89409
:1053B000611105C08C91E22FE095E82302C0EC91C9
:1053C000E22BEC939FBF089590E0FC01E75BF54F63
:1053D0002491FC01E35AF54F3491FC01EF58F54F4D
:1053E000E491EE23A1F1222339F1233091F038F436
:1053F0002130A9F0223001F584B58F7D12C027300D
:1054000091F02830A1F02430B9F4809180008F7D94
:1054100003C0809180008F77809380000DC084B599
:105420008F7784BD09C08091B0008F7703C08091D1
:10543000B0008F7D8093B000F0E0EE0FFF1FEB57C0
:10544000F54FA591B491EC91E32381E009F480E05C
:10545000089508950F931F9390E0FC01E35AF54FD0
:105460007491FC01EF58F54FE491662311F0672F1A
:1054700001C060E0F0E0EE0FFF1FEB57F54F8591A4
:10548000949189019A013F70462F672F0E94FE0573
:10549000611571058105910549F0DC01CB0101968B
:1054A000A11DB11DBC01CD019F7003C060E070E083
:1054B000CB011F910F91089580930F0108958E30B5
:1054C00008F08E5020910F0190E4299F9001112443
:1054D0008770822B80937C0080917A008064809317
:1054E0007A0080917A0086FDFCCF8091780020912F
:1054F000790090E0922B0895A0E0B0E0E2E8FAE2B3
:105500000C9460336C017A018B01C0E0D0E0CE15C1
:10551000DF0581F0D8016D918D01D601ED91FC91EF
:105520000190F081E02DC6010995892B11F021969B
:10553000EECF7E01C701CDB7DEB7E8E00C947C3337
:105540006115710581F0FB0101900020E9F73197A9
:10555000AF01461B570BDC01ED91FC910280F381FA
:10556000E02D0995089580E090E00895E9CF089531
:10557000A1E2B0E0EEEBFAE20C945C336C01142F84
:10558000E52FCB01022F19A2223008F40AE07E0198
:1055900021E2E20EF11C802E912CA12CB12C612F66
:1055A0007E2FA50194010E940333029F101911243C
:1055B00081E0E81AF1081A3014F4105D01C0195C9A
:1055C000F7011083122FE32FCA01232B242B252B45
:1055D00031F7B701C601B4DFA196ECE00C94783343
:1055E0002115310549F4DC01ED91FC910190F08128
:1055F000E02D642F09950895BBCF9A01AB0160E0BF
:1056000070E0EECF089561DEFDDF0E94F621CFEB62
:10561000DBE22CDA2097E9F3B2D0FBCF9091C10006
:10562000892F807194FF0EC0909198068091990601
:10563000981302C080E00895E0919906F0E0EA5ED8
:10564000F94F80810895E8E9F6E081818083E6E9F9
:10565000F6E0808181830895FC011382128224E2A6
:1056600031E03183208308959B01AC018091C1001A
:1056700084FD1092C1001092970610929606109227
:105680009906109298061216130614061506ECF4E5
:10569000211581EE380741055105F1F082E0809334
:1056A000C00060E079E08DE390E0CFD7CA01B90196
:1056B000615071098109910922E030E040E050E039
:1056C000C4D73093C5002093C40088E98093C100FB
:1056D00086E08093C20008951092C00020E130E07F
:1056E000F0CF1092C10008959091C100892F807170
:1056F00094FF06C08091980690919906891B8F7738
:105700000895F2CF08959091C100892F807194FF80
:1057100014C09091980680919906981302C080E079
:105720000895E0919906F0E0EA5EF94F808190914A
:1057300099069F5F9F77909399060895E4CF089507
:105740009091C10094FF15C0909196069F5F937051
:10575000209197069217E1F3E0919606F0E0EE5E55
:10576000F94F8083909396068091C1008062809368
:10577000C1000895862FE4DF81E090E00895089548
:105780000F931F93CF93DF938C01FB016491EF0183
:105790002196662351F0D801ED91FC910190F081A2
:1057A000E02DC8010995FE01F1CFDF91CF911F9146
:1057B0000F910895A0E0B0E0EFEDFBE287C79E01F6
:1057C000275F3F4F4F81588560E08D819E811AD0C1
:1057D000E2E098C7A0E0B0E0EFEEFBE277C79E0101
:1057E000275F3F4F4F81588561E08D819E810AD0B0
:1057F000E2E088C7DC01ED91FC910190F081E02DA1
:1058000009950895A1E1B0E0E7E0FCE24FC77C0113
:105810006C876A013901AE014F5F5F4F4A01F601A3
:105820005C8550FD059150FF01916F01002309F443
:105830001FC3053241F450FD059150FF01916F01E6
:10584000053261F405C00A3019F46DE0C701D2DFFA
:10585000602FC701CFDF53013501E1CF10E0312CBC
:1058600020E02032A0F40B3269F030F4003259F01D
:10587000033269F420612CC00D3239F0003339F461
:10588000216026C02260246023C0286021C027FD3B
:1058900028C080ED800F8A3078F426FF06C09AE099
:1058A000199F800D1124182F13C0EAE03E9E800D31
:1058B0001124382E20620CC00E3221F426FDD8C2ED
:1058C000206406C00C3611F4206802C0083649F482
:1058D000F6014C8540FD059140FF01916F010111DA
:1058E000C0CF8BEB800F833018F42061005E06C0C0
:1058F0008BE9800F833008F04DC12F7E26FF16E024
:105900002F73522E053619F42064522E08C0063625
:1059100021F4522F5068552E02C01111115057FE1C
:1059200005C01C3348F431E0310F07C0183038F09F
:1059300030E027E017E005C03CE327E002C0212F5C
:1059400030E0530184E0A80EB11CF3016081718145
:1059500082819381032FA401398B0E94A1063C010F
:105960002980398920FE02C023FE06C051FC06C0F2
:1059700052FE06C000E205C00DE203C00BE201C00A
:1059800000E0822D8C7019F0011142C246C257FE10
:105990000DC0360D24FE04C08A81813309F43150D4
:1059A00013165CF5393060F138E02AC056FC28C087
:1059B000812F90E08615970544F0FCEF6F16FFEFFE
:1059C0007F061CF0252D2068522E112359F0E2E0AD
:1059D000F0E0EC0FFD1FE10FF11D8081803311F429
:1059E0001150F3CF57FE0CC031E0310F812F90E002
:1059F0006816790624F4161903C031E001C010E0DE
:105A000057FE06C01614170434F4C301019605C0EE
:105A100085E090E002C081E090E001110196112341
:105A200031F0412F50E04F5F5F4F840F951F432DA2
:105A300050E08417950714F4381A01C0312C852DD5
:105A4000897049F4332039F060E2C701398BD2DE26
:105A50003A943989F7CF002329F0602FC701398B99
:105A6000C9DE398953FC09C0332039F060E3C7012E
:105A7000398BC0DE3A943989F7CF57FE49C02301EC
:105A800077FE02C0412C512CC3010196841995095F
:105A9000A401480F591F5E874D87A301431B51097D
:105AA000588B4F87012F10E01195019511095FEF79
:105AB0004516550619F46EE2C7019CDE64147504A0
:105AC0004CF04F8558894415550524F4ED85FE8525
:105AD000608101C060E3F1E04F1A51084D855E8599
